{
  "_format": "hh-sol-artifact-1",
  "contractName": "NonFungibleRegistryEnumerableUpgradeable",
  "sourceName": "contracts/identity/NonFungibleRegistryEnumerableUpgradeable.sol",
  "abi": [
    {
      "inputs": [],
      "stateMutability": "nonpayable",
      "type": "constructor"
    },
    {
      "anonymous": false,
      "inputs": [
        {
          "indexed": true,
          "internalType": "address",
          "name": "owner",
          "type": "address"
        },
        {
          "indexed": true,
          "internalType": "address",
          "name": "approved",
          "type": "address"
        },
        {
          "indexed": true,
          "internalType": "uint256",
          "name": "tokenId",
          "type": "uint256"
        }
      ],
      "name": "Approval",
      "type": "event"
    },
    {
      "anonymous": false,
      "inputs": [
        {
          "indexed": true,
          "internalType": "address",
          "name": "owner",
          "type": "address"
        },
        {
          "indexed": true,
          "internalType": "address",
          "name": "operator",
          "type": "address"
        },
        {
          "indexed": false,
          "internalType": "bool",
          "name": "approved",
          "type": "bool"
        }
      ],
      "name": "ApprovalForAll",
      "type": "event"
    },
    {
      "anonymous": false,
      "inputs": [
        {
          "indexed": false,
          "internalType": "uint256",
          "name": "tokenId",
          "type": "uint256"
        },
        {
          "indexed": false,
          "internalType": "string",
          "name": "label",
          "type": "string"
        }
      ],
      "name": "LabelUpdated",
      "type": "event"
    },
    {
      "anonymous": false,
      "inputs": [
        {
          "indexed": false,
          "internalType": "bytes32",
          "name": "merkleRoot",
          "type": "bytes32"
        },
        {
          "indexed": false,
          "internalType": "bool",
          "name": "frozen",
          "type": "bool"
        }
      ],
      "name": "MerkleRootUpdated",
      "type": "event"
    },
    {
      "anonymous": false,
      "inputs": [
        {
          "indexed": true,
          "internalType": "bytes32",
          "name": "role",
          "type": "bytes32"
        },
        {
          "indexed": true,
          "internalType": "bytes32",
          "name": "previousAdminRole",
          "type": "bytes32"
        },
        {
          "indexed": true,
          "internalType": "bytes32",
          "name": "newAdminRole",
          "type": "bytes32"
        }
      ],
      "name": "RoleAdminChanged",
      "type": "event"
    },
    {
      "anonymous": false,
      "inputs": [
        {
          "indexed": true,
          "internalType": "bytes32",
          "name": "role",
          "type": "bytes32"
        },
        {
          "indexed": true,
          "internalType": "address",
          "name": "account",
          "type": "address"
        },
        {
          "indexed": true,
          "internalType": "address",
          "name": "sender",
          "type": "address"
        }
      ],
      "name": "RoleGranted",
      "type": "event"
    },
    {
      "anonymous": false,
      "inputs": [
        {
          "indexed": true,
          "internalType": "bytes32",
          "name": "role",
          "type": "bytes32"
        },
        {
          "indexed": true,
          "internalType": "address",
          "name": "account",
          "type": "address"
        },
        {
          "indexed": true,
          "internalType": "address",
          "name": "sender",
          "type": "address"
        }
      ],
      "name": "RoleRevoked",
      "type": "event"
    },
    {
      "anonymous": false,
      "inputs": [
        {
          "indexed": false,
          "internalType": "uint256",
          "name": "tokenId",
          "type": "uint256"
        },
        {
          "indexed": false,
          "internalType": "bytes32",
          "name": "registrationData",
          "type": "bytes32"
        }
      ],
      "name": "StorageUpdated",
      "type": "event"
    },
    {
      "anonymous": false,
      "inputs": [
        {
          "indexed": true,
          "internalType": "address",
          "name": "from",
          "type": "address"
        },
        {
          "indexed": true,
          "internalType": "address",
          "name": "to",
          "type": "address"
        },
        {
          "indexed": true,
          "internalType": "uint256",
          "name": "tokenId",
          "type": "uint256"
        }
      ],
      "name": "Transfer",
      "type": "event"
    },
    {
      "inputs": [],
      "name": "DEFAULT_ADMIN_ROLE",
      "outputs": [
        {
          "internalType": "bytes32",
          "name": "",
          "type": "bytes32"
        }
      ],
      "stateMutability": "view",
      "type": "function"
    },
    {
      "inputs": [],
      "name": "REGISTRAR_ROLE",
      "outputs": [
        {
          "internalType": "bytes32",
          "name": "",
          "type": "bytes32"
        }
      ],
      "stateMutability": "view",
      "type": "function"
    },
    {
      "inputs": [],
      "name": "REGISTRAR_ROLE_ADMIN",
      "outputs": [
        {
          "internalType": "bytes32",
          "name": "",
          "type": "bytes32"
        }
      ],
      "stateMutability": "view",
      "type": "function"
    },
    {
      "inputs": [],
      "name": "allowLabelChange",
      "outputs": [
        {
          "internalType": "bool",
          "name": "",
          "type": "bool"
        }
      ],
      "stateMutability": "view",
      "type": "function"
    },
    {
      "inputs": [],
      "name": "allowStorageUpdate",
      "outputs": [
        {
          "internalType": "bool",
          "name": "",
          "type": "bool"
        }
      ],
      "stateMutability": "view",
      "type": "function"
    },
    {
      "inputs": [],
      "name": "allowTransfers",
      "outputs": [
        {
          "internalType": "bool",
          "name": "",
          "type": "bool"
        }
      ],
      "stateMutability": "view",
      "type": "function"
    },
    {
      "inputs": [
        {
          "internalType": "address",
          "name": "to",
          "type": "address"
        },
        {
          "internalType": "uint256",
          "name": "tokenId",
          "type": "uint256"
        }
      ],
      "name": "approve",
      "outputs": [],
      "stateMutability": "nonpayable",
      "type": "function"
    },
    {
      "inputs": [
        {
          "internalType": "address",
          "name": "owner",
          "type": "address"
        }
      ],
      "name": "balanceOf",
      "outputs": [
        {
          "internalType": "uint256",
          "name": "",
          "type": "uint256"
        }
      ],
      "stateMutability": "view",
      "type": "function"
    },
    {
      "inputs": [],
      "name": "baseURI",
      "outputs": [
        {
          "internalType": "string",
          "name": "",
          "type": "string"
        }
      ],
      "stateMutability": "view",
      "type": "function"
    },
    {
      "inputs": [
        {
          "internalType": "uint256",
          "name": "tokenId",
          "type": "uint256"
        }
      ],
      "name": "burn",
      "outputs": [],
      "stateMutability": "nonpayable",
      "type": "function"
    },
    {
      "inputs": [],
      "name": "burnAddress",
      "outputs": [
        {
          "internalType": "address",
          "name": "",
          "type": "address"
        }
      ],
      "stateMutability": "view",
      "type": "function"
    },
    {
      "inputs": [],
      "name": "burnFee",
      "outputs": [
        {
          "internalType": "uint256",
          "name": "",
          "type": "uint256"
        }
      ],
      "stateMutability": "view",
      "type": "function"
    },
    {
      "inputs": [],
      "name": "frozen",
      "outputs": [
        {
          "internalType": "bool",
          "name": "",
          "type": "bool"
        }
      ],
      "stateMutability": "view",
      "type": "function"
    },
    {
      "inputs": [
        {
          "internalType": "uint256",
          "name": "tokenId",
          "type": "uint256"
        }
      ],
      "name": "getApproved",
      "outputs": [
        {
          "internalType": "address",
          "name": "",
          "type": "address"
        }
      ],
      "stateMutability": "view",
      "type": "function"
    },
    {
      "inputs": [
        {
          "internalType": "bytes32",
          "name": "role",
          "type": "bytes32"
        }
      ],
      "name": "getRoleAdmin",
      "outputs": [
        {
          "internalType": "bytes32",
          "name": "",
          "type": "bytes32"
        }
      ],
      "stateMutability": "view",
      "type": "function"
    },
    {
      "inputs": [
        {
          "internalType": "bytes32",
          "name": "role",
          "type": "bytes32"
        },
        {
          "internalType": "uint256",
          "name": "index",
          "type": "uint256"
        }
      ],
      "name": "getRoleMember",
      "outputs": [
        {
          "internalType": "address",
          "name": "",
          "type": "address"
        }
      ],
      "stateMutability": "view",
      "type": "function"
    },
    {
      "inputs": [
        {
          "internalType": "bytes32",
          "name": "role",
          "type": "bytes32"
        }
      ],
      "name": "getRoleMemberCount",
      "outputs": [
        {
          "internalType": "uint256",
          "name": "",
          "type": "uint256"
        }
      ],
      "stateMutability": "view",
      "type": "function"
    },
    {
      "inputs": [
        {
          "internalType": "bytes32",
          "name": "role",
          "type": "bytes32"
        },
        {
          "internalType": "address",
          "name": "account",
          "type": "address"
        }
      ],
      "name": "grantRole",
      "outputs": [],
      "stateMutability": "nonpayable",
      "type": "function"
    },
    {
      "inputs": [
        {
          "internalType": "bytes32",
          "name": "role",
          "type": "bytes32"
        },
        {
          "internalType": "address",
          "name": "account",
          "type": "address"
        }
      ],
      "name": "hasRole",
      "outputs": [
        {
          "internalType": "bool",
          "name": "",
          "type": "bool"
        }
      ],
      "stateMutability": "view",
      "type": "function"
    },
    {
      "inputs": [
        {
          "internalType": "uint256",
          "name": "",
          "type": "uint256"
        }
      ],
      "name": "identityStakes",
      "outputs": [
        {
          "internalType": "address",
          "name": "token",
          "type": "address"
        },
        {
          "internalType": "uint256",
          "name": "amount",
          "type": "uint256"
        }
      ],
      "stateMutability": "view",
      "type": "function"
    },
    {
      "inputs": [
        {
          "internalType": "string",
          "name": "name_",
          "type": "string"
        },
        {
          "internalType": "string",
          "name": "symbol_",
          "type": "string"
        },
        {
          "internalType": "address",
          "name": "_primaryRegistry",
          "type": "address"
        },
        {
          "internalType": "address",
          "name": "_registrar",
          "type": "address"
        },
        {
          "internalType": "address",
          "name": "_admin",
          "type": "address"
        }
      ],
      "name": "initialize",
      "outputs": [],
      "stateMutability": "nonpayable",
      "type": "function"
    },
    {
      "inputs": [
        {
          "internalType": "address",
          "name": "owner",
          "type": "address"
        },
        {
          "internalType": "address",
          "name": "operator",
          "type": "address"
        }
      ],
      "name": "isApprovedForAll",
      "outputs": [
        {
          "internalType": "bool",
          "name": "",
          "type": "bool"
        }
      ],
      "stateMutability": "view",
      "type": "function"
    },
    {
      "inputs": [],
      "name": "merkleRoot",
      "outputs": [
        {
          "internalType": "bytes32",
          "name": "",
          "type": "bytes32"
        }
      ],
      "stateMutability": "view",
      "type": "function"
    },
    {
      "inputs": [],
      "name": "name",
      "outputs": [
        {
          "internalType": "string",
          "name": "",
          "type": "string"
        }
      ],
      "stateMutability": "view",
      "type": "function"
    },
    {
      "inputs": [
        {
          "internalType": "uint256",
          "name": "tokenId",
          "type": "uint256"
        }
      ],
      "name": "ownerOf",
      "outputs": [
        {
          "internalType": "address",
          "name": "",
          "type": "address"
        }
      ],
      "stateMutability": "view",
      "type": "function"
    },
    {
      "inputs": [],
      "name": "primaryRegistry",
      "outputs": [
        {
          "internalType": "address",
          "name": "",
          "type": "address"
        }
      ],
      "stateMutability": "view",
      "type": "function"
    },
    {
      "inputs": [
        {
          "internalType": "address",
          "name": "to",
          "type": "address"
        },
        {
          "internalType": "string",
          "name": "label",
          "type": "string"
        },
        {
          "internalType": "string",
          "name": "registrationData",
          "type": "string"
        },
        {
          "internalType": "uint256",
          "name": "tokenId",
          "type": "uint256"
        }
      ],
      "name": "register",
      "outputs": [],
      "stateMutability": "nonpayable",
      "type": "function"
    },
    {
      "inputs": [
        {
          "internalType": "address",
          "name": "to",
          "type": "address"
        },
        {
          "internalType": "string",
          "name": "label",
          "type": "string"
        },
        {
          "internalType": "string",
          "name": "registrationData",
          "type": "string"
        },
        {
          "internalType": "uint256",
          "name": "tokenId",
          "type": "uint256"
        }
      ],
      "name": "registerByToken",
      "outputs": [],
      "stateMutability": "nonpayable",
      "type": "function"
    },
    {
      "inputs": [],
      "name": "registrationFee",
      "outputs": [
        {
          "internalType": "uint256",
          "name": "",
          "type": "uint256"
        }
      ],
      "stateMutability": "view",
      "type": "function"
    },
    {
      "inputs": [],
      "name": "registrationToken",
      "outputs": [
        {
          "internalType": "address",
          "name": "",
          "type": "address"
        }
      ],
      "stateMutability": "view",
      "type": "function"
    },
    {
      "inputs": [
        {
          "internalType": "string",
          "name": "",
          "type": "string"
        }
      ],
      "name": "registryMap",
      "outputs": [
        {
          "internalType": "uint256",
          "name": "",
          "type": "uint256"
        }
      ],
      "stateMutability": "view",
      "type": "function"
    },
    {
      "inputs": [
        {
          "internalType": "bytes32",
          "name": "role",
          "type": "bytes32"
        },
        {
          "internalType": "address",
          "name": "account",
          "type": "address"
        }
      ],
      "name": "renounceRole",
      "outputs": [],
      "stateMutability": "nonpayable",
      "type": "function"
    },
    {
      "inputs": [
        {
          "internalType": "uint256",
          "name": "",
          "type": "uint256"
        }
      ],
      "name": "reverseRegistryMap",
      "outputs": [
        {
          "internalType": "string",
          "name": "",
          "type": "string"
        }
      ],
      "stateMutability": "view",
      "type": "function"
    },
    {
      "inputs": [
        {
          "internalType": "bytes32",
          "name": "role",
          "type": "bytes32"
        },
        {
          "internalType": "address",
          "name": "account",
          "type": "address"
        }
      ],
      "name": "revokeRole",
      "outputs": [],
      "stateMutability": "nonpayable",
      "type": "function"
    },
    {
      "inputs": [
        {
          "internalType": "address",
          "name": "from",
          "type": "address"
        },
        {
          "internalType": "address",
          "name": "to",
          "type": "address"
        },
        {
          "internalType": "uint256",
          "name": "tokenId",
          "type": "uint256"
        }
      ],
      "name": "safeTransferFrom",
      "outputs": [],
      "stateMutability": "nonpayable",
      "type": "function"
    },
    {
      "inputs": [
        {
          "internalType": "address",
          "name": "from",
          "type": "address"
        },
        {
          "internalType": "address",
          "name": "to",
          "type": "address"
        },
        {
          "internalType": "uint256",
          "name": "tokenId",
          "type": "uint256"
        },
        {
          "internalType": "bytes",
          "name": "_data",
          "type": "bytes"
        }
      ],
      "name": "safeTransferFrom",
      "outputs": [],
      "stateMutability": "nonpayable",
      "type": "function"
    },
    {
      "inputs": [],
      "name": "schema",
      "outputs": [
        {
          "internalType": "string",
          "name": "",
          "type": "string"
        }
      ],
      "stateMutability": "view",
      "type": "function"
    },
    {
      "inputs": [
        {
          "internalType": "address",
          "name": "operator",
          "type": "address"
        },
        {
          "internalType": "bool",
          "name": "approved",
          "type": "bool"
        }
      ],
      "name": "setApprovalForAll",
      "outputs": [],
      "stateMutability": "nonpayable",
      "type": "function"
    },
    {
      "inputs": [
        {
          "internalType": "bytes32",
          "name": "_merkleRoot",
          "type": "bytes32"
        },
        {
          "internalType": "bool",
          "name": "freeze",
          "type": "bool"
        }
      ],
      "name": "setMerkleRoot",
      "outputs": [],
      "stateMutability": "nonpayable",
      "type": "function"
    },
    {
      "inputs": [
        {
          "internalType": "address",
          "name": "_primaryRegistry",
          "type": "address"
        }
      ],
      "name": "setPrimaryRegistry",
      "outputs": [],
      "stateMutability": "nonpayable",
      "type": "function"
    },
    {
      "inputs": [
        {
          "internalType": "bytes",
          "name": "encodedParameters",
          "type": "bytes"
        }
      ],
      "name": "setRegistryParameters",
      "outputs": [],
      "stateMutability": "nonpayable",
      "type": "function"
    },
    {
      "inputs": [
        {
          "internalType": "bytes4",
          "name": "interfaceId",
          "type": "bytes4"
        }
      ],
      "name": "supportsInterface",
      "outputs": [
        {
          "internalType": "bool",
          "name": "",
          "type": "bool"
        }
      ],
      "stateMutability": "view",
      "type": "function"
    },
    {
      "inputs": [],
      "name": "symbol",
      "outputs": [
        {
          "internalType": "string",
          "name": "",
          "type": "string"
        }
      ],
      "stateMutability": "view",
      "type": "function"
    },
    {
      "inputs": [
        {
          "internalType": "uint256",
          "name": "index",
          "type": "uint256"
        }
      ],
      "name": "tokenByIndex",
      "outputs": [
        {
          "internalType": "uint256",
          "name": "",
          "type": "uint256"
        }
      ],
      "stateMutability": "view",
      "type": "function"
    },
    {
      "inputs": [
        {
          "internalType": "address",
          "name": "owner",
          "type": "address"
        },
        {
          "internalType": "uint256",
          "name": "index",
          "type": "uint256"
        }
      ],
      "name": "tokenOfOwnerByIndex",
      "outputs": [
        {
          "internalType": "uint256",
          "name": "",
          "type": "uint256"
        }
      ],
      "stateMutability": "view",
      "type": "function"
    },
    {
      "inputs": [
        {
          "internalType": "uint256",
          "name": "tokenId",
          "type": "uint256"
        }
      ],
      "name": "tokenURI",
      "outputs": [
        {
          "internalType": "string",
          "name": "",
          "type": "string"
        }
      ],
      "stateMutability": "view",
      "type": "function"
    },
    {
      "inputs": [],
      "name": "totalSupply",
      "outputs": [
        {
          "internalType": "uint256",
          "name": "",
          "type": "uint256"
        }
      ],
      "stateMutability": "view",
      "type": "function"
    },
    {
      "inputs": [
        {
          "internalType": "address",
          "name": "from",
          "type": "address"
        },
        {
          "internalType": "address",
          "name": "to",
          "type": "address"
        },
        {
          "internalType": "uint256",
          "name": "tokenId",
          "type": "uint256"
        }
      ],
      "name": "transferFrom",
      "outputs": [],
      "stateMutability": "nonpayable",
      "type": "function"
    },
    {
      "inputs": [
        {
          "internalType": "uint256",
          "name": "tokenId",
          "type": "uint256"
        },
        {
          "internalType": "string",
          "name": "label",
          "type": "string"
        }
      ],
      "name": "updateLabel",
      "outputs": [],
      "stateMutability": "nonpayable",
      "type": "function"
    },
    {
      "inputs": [
        {
          "internalType": "uint256",
          "name": "tokenId",
          "type": "uint256"
        },
        {
          "internalType": "string",
          "name": "registrationData",
          "type": "string"
        }
      ],
      "name": "updateRegistration",
      "outputs": [],
      "stateMutability": "nonpayable",
      "type": "function"
    }
  ],
  "bytecode": "0x60806040523480156200001157600080fd5b50600054610100900460ff166200002f5760005460ff161562000039565b62000039620000de565b620000a15760405162461bcd60e51b815260206004820152602e60248201527f496e697469616c697a61626c653a20636f6e747261637420697320616c72656160448201526d191e481a5b9a5d1a585b1a5e995960921b606482015260840160405180910390fd5b600054610100900460ff16158015620000c4576000805461ffff19166101011790555b8015620000d7576000805461ff00191690555b5062000102565b6000620000f630620000fc60201b62001f301760201c565b15905090565b3b151590565b6147d480620001126000396000f3fe608060405234801561001057600080fd5b50600436106102d65760003560e01c80636c0360eb11610182578063a22cb465116100e9578063d547741f116100a2578063f041b4a71161007c578063f041b4a7146106ec578063f68e955314610700578063f8895cc814610715578063fce589d81461071d57600080fd5b8063d547741f1461068a578063db0ed6a01461069d578063e985e9c5146106b057600080fd5b8063a22cb465146105ff578063a8f1c6d814610612578063b88d4fde14610625578063bce8542e14610638578063c87b56dd14610664578063ca15c8731461067757600080fd5b80639010d07c1161013b5780639010d07c146105a357806391d14854146105b657806393d0da07146105c957806395d89b41146105dc578063a10474c7146105e4578063a217fddf146105f757600080fd5b80636c0360eb1461053b5780636f4c25aa1461054357806370a082311461055657806370d5ae05146105695780638792ffef1461057d5780638daf3f4e1461059057600080fd5b80632f2ff15d1161024157806347f00d5a116101fa5780635471a057116101d45780635471a057146104e057806358083969146104ee5780636017160b146105155780636352211e1461052857600080fd5b806347f00d5a1461049f5780634b08b0a3146104b25780634f6ccce7146104cd57600080fd5b80632f2ff15d146103ed5780632f745c591461040057806336568abe1461041357806338f292d51461042657806342842e0e1461047957806342966c681461048c57600080fd5b806318160ddd1161029357806318160ddd1461037e5780632185810b1461038657806323b872dd1461039a578063248a9ca3146103ad578063267be25c146103d05780632eb4a7ab146103e357600080fd5b806301ffc9a7146102db578063054f7d9c1461030357806306fdde0314610311578063081812fc14610326578063095ea7b31461035157806314c44e0914610366575b600080fd5b6102ee6102e9366004613ed7565b610727565b60405190151581526020015b60405180910390f35b610169546102ee9060ff1681565b610319610738565b6040516102fa9190614331565b610339610334366004613e58565b6107ca565b6040516001600160a01b0390911681526020016102fa565b61036461035f366004613e13565b610857565b005b6103706101645481565b6040519081526020016102fa565b60fd54610370565b610163546102ee9062010000900460ff1681565b6103646103a8366004613ca5565b61096d565b6103706103bb366004613e58565b60009081526065602052604090206001015490565b6103646103de366004613d8e565b6109c4565b6103706101685481565b6103646103fb366004613e70565b610d4c565b61037061040e366004613e13565b610d72565b610364610421366004613e70565b610e08565b61045a610434366004613e58565b61016260205260009081526040902080546001909101546001600160a01b039091169082565b604080516001600160a01b0390931683526020830191909152016102fa565b610364610487366004613ca5565b610e86565b61036461049a366004613e58565b610ea1565b6103646104ad3660046141af565b61101c565b6101635461033990630100000090046001600160a01b031681565b6103706104db366004613e58565b611157565b610163546102ee9060ff1681565b6103707fab17982698983e428c1b3359c794bb98c356bd485b8da9b6bffc27745eece3ba81565b610319610523366004613e58565b6111f8565b610339610536366004613e58565b611293565b61031961130a565b610163546102ee90610100900460ff1681565b610370610564366004613c59565b611318565b61016554610339906001600160a01b031681565b61036461058b366004613d8e565b61139f565b61036461059e366004613f0f565b6114a7565b6103396105b1366004613eb6565b611859565b6102ee6105c4366004613e70565b611878565b6103646105d73660046141af565b6118a3565b610319611a05565b6103646105f2366004613c59565b611a14565b610370600081565b61036461060d366004613d58565b611baa565b610364610620366004613e92565b611bb5565b610364610633366004613ce0565b611cb0565b610370610646366004613f4e565b80516020818301810180516101608252928201919093012091525481565b610319610672366004613e58565b611d07565b610370610685366004613e58565b611d12565b610364610698366004613e70565b611d29565b6103646106ab366004613f80565b611d4f565b6102ee6106be366004613c73565b6001600160a01b03918216600090815260ce6020908152604080832093909416825291909152205460ff1690565b61016754610339906001600160a01b031681565b61037060008051602061477f83398151915281565b610319611f22565b6103706101665481565b600061073282611f36565b92915050565b606060c98054610747906146ae565b80601f0160208091040260200160405190810160405280929190818152602001828054610773906146ae565b80156107c05780601f10610795576101008083540402835291602001916107c0565b820191906000526020600020905b8154815290600101906020018083116107a357829003601f168201915b5050505050905090565b60006107d582611f5b565b61083b5760405162461bcd60e51b815260206004820152602c60248201527f4552433732313a20617070726f76656420717565727920666f72206e6f6e657860448201526b34b9ba32b73a103a37b5b2b760a11b60648201526084015b60405180910390fd5b50600090815260cd60205260409020546001600160a01b031690565b600061086282611293565b9050806001600160a01b0316836001600160a01b031614156108d05760405162461bcd60e51b815260206004820152602160248201527f4552433732313a20617070726f76616c20746f2063757272656e74206f776e656044820152603960f91b6064820152608401610832565b336001600160a01b03821614806108ec57506108ec81336106be565b61095e5760405162461bcd60e51b815260206004820152603860248201527f4552433732313a20617070726f76652063616c6c6572206973206e6f74206f7760448201527f6e6572206e6f7220617070726f76656420666f7220616c6c00000000000000006064820152608401610832565b6109688383611f78565b505050565b610978335b82611fe6565b6109945760405162461bcd60e51b8152600401610832906143dd565b61099d826120ee565b6109b95760405162461bcd60e51b8152600401610832906144e3565b61096883838361218b565b61016354630100000090046001600160a01b0316610a4a5760405162461bcd60e51b815260206004820152603760248201527f4e6f6e46756e6769626c6552656769737472793a20726567697374726174696f60448201527f6e20627920746f6b656e206e6f7420656e61626c65642e0000000000000000006064820152608401610832565b610a8985858080601f01602080910402602001604051908101604052809392919081815260200183838082843760009201919091525061233692505050565b15610aa65760405162461bcd60e51b815260040161083290614447565b61016354630100000090046001600160a01b03166323b872dd33610164546040516001600160e01b031960e085901b1681526001600160a01b0390921660048301523060248301526044820152606401602060405180830381600087803b158015610b1057600080fd5b505af1158015610b24573d6000803e3d6000fd5b505050506040513d601f19601f82011682018060405250810190610b489190613e3c565b610ba85760405162461bcd60e51b815260206004820152602b60248201527f4e6f6e46756e6769626c6552656769737472793a20746f6b656e207472616e7360448201526a3332b9103330b4b632b21760a91b6064820152608401610832565b610c1e8686868080601f01602080910402602001604051908101604052809392919081815260200183838082843760009201919091525050604080516020601f8a018190048102820181019092528881529250889150879081908401838280828437600092019190915250879250612361915050565b60006127106101665461016454610c359190614635565b610c3f9190614621565b610163546101655460405163a9059cbb60e01b81526001600160a01b039182166004820152602481018490529293506301000000909104169063a9059cbb90604401602060405180830381600087803b158015610c9b57600080fd5b505af1158015610caf573d6000803e3d6000fd5b505050506040513d601f19601f82011682018060405250810190610cd39190613e3c565b506040805180820190915261016354630100000090046001600160a01b03168152610164546020820190610d08908490614654565b9052600092835261016260209081526040909320815181546001600160a01b0319166001600160a01b03909116178155920151600190920191909155505050505050565b600082815260656020526040902060010154610d6881336123ed565b6109688383612451565b6000610d7d83611318565b8210610ddf5760405162461bcd60e51b815260206004820152602b60248201527f455243373231456e756d657261626c653a206f776e657220696e646578206f7560448201526a74206f6620626f756e647360a81b6064820152608401610832565b506001600160a01b0391909116600090815260fb60209081526040808320938352929052205490565b6001600160a01b0381163314610e785760405162461bcd60e51b815260206004820152602f60248201527f416363657373436f6e74726f6c3a2063616e206f6e6c792072656e6f756e636560448201526e103937b632b9903337b91039b2b63360891b6064820152608401610832565b610e828282612473565b5050565b61096883838360405180602001604052806000815250611cb0565b610eaa33610972565b610ec65760405162461bcd60e51b8152600401610832906143dd565b610ecf81612495565b600081815261016260205260409020600101541561101957600081815261016260205260409020546001600160a01b031663a9059cbb33600084815261016260205260409081902060010154905160e084901b6001600160e01b03191681526001600160a01b0390921660048301526024820152604401602060405180830381600087803b158015610f6057600080fd5b505af1158015610f74573d6000803e3d6000fd5b505050506040513d601f19601f82011682018060405250810190610f989190613e3c565b610ff75760405162461bcd60e51b815260206004820152602a60248201527f4e6f6e46756e6769626c6552656769737472793a20746f6b656e2074616e736660448201526932b9103330b4b632b21760b11b6064820152608401610832565b60008181526101626020526040812080546001600160a01b0319168155600101555b50565b61102461257a565b61108b5760405162461bcd60e51b815260206004820152603260248201527f4e6f6e46756e6769626c6552656769737472793a2053746f726167652075706460448201527130ba34b7339034b9903234b9b0b13632b21760711b6064820152608401610832565b611096335b84611fe6565b6110b25760405162461bcd60e51b8152600401610832906143dd565b6110f28383838080601f0160208091040260200160405190810160405280939291908181526020018383808284376000920191909152506125a792505050565b7f2f0b1fafb1d28d13e045afb299578515ce12beeff8ee8ca9c6a32f18be41f0f4838383604051602001611127929190614224565b60408051601f198184030181528282528051602091820120938352820192909252015b60405180910390a1505050565b600061116260fd5490565b82106111c55760405162461bcd60e51b815260206004820152602c60248201527f455243373231456e756d657261626c653a20676c6f62616c20696e646578206f60448201526b7574206f6620626f756e647360a01b6064820152608401610832565b60fd82815481106111e657634e487b7160e01b600052603260045260246000fd5b90600052602060002001549050919050565b6101616020526000908152604090208054611212906146ae565b80601f016020809104026020016040519081016040528092919081815260200182805461123e906146ae565b801561128b5780601f106112605761010080835404028352916020019161128b565b820191906000526020600020905b81548152906001019060200180831161126e57829003601f168201915b505050505081565b600081815260cb60205260408120546001600160a01b0316806107325760405162461bcd60e51b815260206004820152602960248201527f4552433732313a206f776e657220717565727920666f72206e6f6e657869737460448201526832b73a103a37b5b2b760b91b6064820152608401610832565b61016a8054611212906146ae565b60006001600160a01b0382166113835760405162461bcd60e51b815260206004820152602a60248201527f4552433732313a2062616c616e636520717565727920666f7220746865207a65604482015269726f206164647265737360b01b6064820152608401610832565b506001600160a01b0316600090815260cc602052604090205490565b6113b760008051602061477f83398151915233611878565b6114295760405162461bcd60e51b815260206004820152603a60248201527f4e6f6e46756e6769626c6552656769737472793a206d7573742068617665207260448201527f656769737472617220726f6c6520746f2072656769737465722e0000000000006064820152608401610832565b61149f8686868080601f01602080910402602001604051908101604052809392919081815260200183838082843760009201919091525050604080516020601f8a018190048102820181019092528881529250889150879081908401838280828437600092019190915250879250612361915050565b505050505050565b6114bf60008051602061477f83398151915233611878565b6114db5760405162461bcd60e51b815260040161083290614396565b60006114e982840184614012565b80515190915015611535578051805160009061151557634e487b7160e01b600052603260045260246000fd5b602002602001015161015f9080519060200190611533929190613886565b505b6020810151511561158857806020015160008151811061156557634e487b7160e01b600052603260045260246000fd5b602002602001015161016360006101000a81548160ff0219169083151502179055505b604081015151156115db5780604001516000815181106115b857634e487b7160e01b600052603260045260246000fd5b602002602001015161016360016101000a81548160ff0219169083151502179055505b6060810151511561162e57806060015160008151811061160b57634e487b7160e01b600052603260045260246000fd5b602002602001015161016360026101000a81548160ff0219169083151502179055505b6080810151511561168e57806080015160008151811061165e57634e487b7160e01b600052603260045260246000fd5b602002602001015161016360036101000a8154816001600160a01b0302191690836001600160a01b031602179055505b60a081015151156116ce578060a001516000815181106116be57634e487b7160e01b600052603260045260246000fd5b6020026020010151610164819055505b60c0810151511561172e578060c001516000815181106116fe57634e487b7160e01b600052603260045260246000fd5b602002602001015161016560006101000a8154816001600160a01b0302191690836001600160a01b031602179055505b60e08101515115611803576127108160e0015160008151811061176157634e487b7160e01b600052603260045260246000fd5b602002602001015111156117ce5760405162461bcd60e51b815260206004820152602e60248201527f4e6f6e46756e6769626c6552656769737472793a206275726e466565206d757360448201526d3a1031329036329018981818181760911b6064820152608401610832565b8060e001516000815181106117f357634e487b7160e01b600052603260045260246000fd5b6020026020010151610166819055505b61010081015151156109685780610100015160008151811061183557634e487b7160e01b600052603260045260246000fd5b602002602001015161016a9080519060200190611853929190613886565b50505050565b60008281526097602052604081206118719083612633565b9392505050565b60009182526065602090815260408084206001600160a01b0393909316845291905290205460ff1690565b6118ab61263f565b6119105760405162461bcd60e51b815260206004820152603060248201527f4e6f6e46756e6769626c6552656769737472793a204c6162656c20757064617460448201526f34b7339034b9903234b9b0b13632b21760811b6064820152608401610832565b61191933611090565b6119355760405162461bcd60e51b8152600401610832906143dd565b61197482828080601f01602080910402602001604051908101604052809392919081815260200183838082843760009201919091525061233692505050565b156119915760405162461bcd60e51b815260040161083290614447565b8261016083836040516119a5929190614224565b9081526040805160209281900383019020929092556000858152610161909152206119d190838361390a565b507fec8103a13d35079ee852a6e0f70658be4c82016236869c5283833b6721454b2c83838360405161114a93929190614557565b606060ca8054610747906146ae565b611a1f600033611878565b611a775760405162461bcd60e51b815260206004820152602360248201527f4e6f6e46756e6769626c6552656769737472793a206d7573742062652061646d60448201526234b71760e91b6064820152608401610832565b6001600160a01b038116611a995761016780546001600160a01b031916905550565b6040516301ffc9a760e01b81526380ac58cd60e01b60048201526001600160a01b038216906301ffc9a79060240160206040518083038186803b158015611adf57600080fd5b505afa158015611af3573d6000803e3d6000fd5b505050506040513d601f19601f82011682018060405250810190611b179190613e3c565b611b895760405162461bcd60e51b815260206004820152603f60248201527f4e6f6e46756e6769626c6552656769737472793a204164647265737320646f6560448201527f73206e6f7420737570706f72742045524337323120696e746572666163652e006064820152608401610832565b61016780546001600160a01b0383166001600160a01b031990911617905550565b610e8233838361266c565b611bcd60008051602061477f83398151915233611878565b611be95760405162461bcd60e51b815260040161083290614396565b6101695460ff1615611c565760405162461bcd60e51b815260206004820152603060248201527f4e6f6e46756e6769626c6552656769737472793a206d65726b6c65526f6f742060448201526f3430b9903132b2b710333937bd32b71760811b6064820152608401610832565b610168829055610169805460ff19168215159081179091556040805184815260ff909216151560208301527fc72271867375e4dc99b635d35b37f44698b889895effb6891602e23128d4f68d910160405180910390a15050565b611cba3383611fe6565b611cd65760405162461bcd60e51b8152600401610832906143dd565b611cdf836120ee565b611cfb5760405162461bcd60e51b8152600401610832906144e3565b6118538484848461273b565b60606107328261276e565b6000818152609760205260408120610732906128d1565b600082815260656020526040902060010154611d4581336123ed565b6109688383612473565b600054610100900460ff16611d6a5760005460ff1615611d6e565b303b155b611dd15760405162461bcd60e51b815260206004820152602e60248201527f496e697469616c697a61626c653a20636f6e747261637420697320616c72656160448201526d191e481a5b9a5d1a585b1a5e995960921b6064820152608401610832565b600054610100900460ff16158015611df3576000805461ffff19166101011790555b611dfb6128db565b611e0361290c565b611e0b61294b565b611e1361294b565b611e1d8686612972565b611e286000836129b3565b611e4060008051602061477f833981519152846129b3565b611e7860008051602061477f8339815191527fab17982698983e428c1b3359c794bb98c356bd485b8da9b6bffc27745eece3ba6129bd565b611ea27fab17982698983e428c1b3359c794bb98c356bd485b8da9b6bffc27745eece3ba846129b3565b61016380546001600160b81b03191662010001179055670de0b6b3a76400006101645561016580546001600160a01b038481166001600160a01b0319928316179092556101f461016655610167805492871692909116919091179055610169805460ff19169055801561149f576000805461ff0019169055505050505050565b61015f8054611212906146ae565b3b151590565b60006001600160e01b0319821663780e9d6360e01b1480610732575061073282612a08565b600090815260cb60205260409020546001600160a01b0316151590565b600081815260cd6020526040902080546001600160a01b0319166001600160a01b0384169081179091558190611fad82611293565b6001600160a01b03167f8c5be1e5ebec7d5bd14f71427d1e84f3dd0314c0f7b2291e5b200ac8c7c3b92560405160405180910390a45050565b6000611ff182611f5b565b6120525760405162461bcd60e51b815260206004820152602c60248201527f4552433732313a206f70657261746f7220717565727920666f72206e6f6e657860448201526b34b9ba32b73a103a37b5b2b760a11b6064820152608401610832565b600061205d83611293565b9050806001600160a01b0316846001600160a01b031614806120985750836001600160a01b031661208d846107ca565b6001600160a01b0316145b806120c857506001600160a01b03808216600090815260ce602090815260408083209388168352929052205460ff165b806120e657506120e660008051602061477f83398151915285611878565b949350505050565b610167546000906001600160a01b031615806107325750610167546040516370a0823160e01b81526001600160a01b03848116600483015260009216906370a082319060240160206040518083038186803b15801561214c57600080fd5b505afa158015612160573d6000803e3d6000fd5b505050506040513d601f19601f820116820180604052508101906121849190614197565b1192915050565b826001600160a01b031661219e82611293565b6001600160a01b0316146122065760405162461bcd60e51b815260206004820152602960248201527f4552433732313a207472616e73666572206f6620746f6b656e2074686174206960448201526839903737ba1037bbb760b91b6064820152608401610832565b6001600160a01b0382166122685760405162461bcd60e51b8152602060048201526024808201527f4552433732313a207472616e7366657220746f20746865207a65726f206164646044820152637265737360e01b6064820152608401610832565b612273838383612a48565b61227e600082611f78565b6001600160a01b038316600090815260cc602052604081208054600192906122a7908490614654565b90915550506001600160a01b038216600090815260cc602052604081208054600192906122d5908490614609565b9091555050600081815260cb602052604080822080546001600160a01b0319166001600160a01b0386811691821790925591518493918716917fddf252ad1be2c89b69c2b068fc378daa952ba7f163c4a11628f55a4df523b3ef91a4505050565b6000610160826040516123499190614234565b90815260405190819003602001902054151592915050565b8251156123e25761237183612336565b1561238e5760405162461bcd60e51b815260040161083290614447565b612399848383612abc565b80610160846040516123ab9190614234565b908152604080516020928190038301902092909255600083815261016182529190912084516123dc92860190613886565b50611853565b611853848383612abc565b6123f78282611878565b610e825761240f816001600160a01b03166014612b53565b61241a836020612b53565b60405160200161242b92919061427f565b60408051601f198184030181529082905262461bcd60e51b825261083291600401614331565b61245b8282612d34565b60008281526097602052604090206109689082612dba565b61247d8282612dcf565b60008281526097602052604090206109689082612e36565b61249e81612e4b565b60008181526101616020526040812080546124b8906146ae565b80601f01602080910402602001604051908101604052809291908181526020018280546124e4906146ae565b80156125315780601f1061250657610100808354040283529160200191612531565b820191906000526020600020905b81548152906001019060200180831161251457829003601f168201915b505050600085815261016160205260408120939450612553939250905061397e565b610160816040516125649190614234565b9081526020016040518091039020600090555050565b6101635460009060ff16806125a257506125a260008051602061477f83398151915233611878565b905090565b6125b082611f5b565b6126135760405162461bcd60e51b815260206004820152602e60248201527f45524337323155524953746f726167653a2055524920736574206f66206e6f6e60448201526d32bc34b9ba32b73a103a37b5b2b760911b6064820152608401610832565b600082815261012d60209081526040909120825161096892840190613886565b60006118718383612e8d565b61016354600090610100900460ff16806125a257506125a260008051602061477f83398151915233611878565b816001600160a01b0316836001600160a01b031614156126ce5760405162461bcd60e51b815260206004820152601960248201527f4552433732313a20617070726f766520746f2063616c6c6572000000000000006044820152606401610832565b6001600160a01b03838116600081815260ce6020908152604080832094871680845294825291829020805460ff191686151590811790915591519182527f17307eab39ab6107e8899845ad3d59bd9653f200f220920489ca2b5937696c31910160405180910390a3505050565b61274684848461218b565b61275284848484612ec5565b6118535760405162461bcd60e51b815260040161083290614344565b606061277982611f5b565b6127df5760405162461bcd60e51b815260206004820152603160248201527f45524337323155524953746f726167653a2055524920717565727920666f72206044820152703737b732bc34b9ba32b73a103a37b5b2b760791b6064820152608401610832565b600082815261012d6020526040812080546127f9906146ae565b80601f0160208091040260200160405190810160405280929190818152602001828054612825906146ae565b80156128725780601f1061284757610100808354040283529160200191612872565b820191906000526020600020905b81548152906001019060200180831161285557829003601f168201915b505050505090506000612883612fd2565b9050805160001415612896575092915050565b8151156128c85780826040516020016128b0929190614250565b60405160208183030381529060405292505050919050565b6120e684612fe2565b6000610732825490565b600054610100900460ff166129025760405162461bcd60e51b815260040161083290614498565b61290a6130ac565b565b600054610100900460ff166129335760405162461bcd60e51b815260040161083290614498565b61293b6130ac565b6129436130ac565b6129026130ac565b600054610100900460ff1661293b5760405162461bcd60e51b815260040161083290614498565b600054610100900460ff166129995760405162461bcd60e51b815260040161083290614498565b6129a16130ac565b6129a96130ac565b610e8282826130d3565b610e828282612451565b600082815260656020526040808220600101805490849055905190918391839186917fbd79b86ffe0ab8e8776151514217cd7cacd52c909f66475c3af44e129f0b00ff9190a4505050565b60006001600160e01b031982166380ac58cd60e01b1480612a3957506001600160e01b03198216635b5e139f60e01b145b80610732575061073282613121565b612a50613146565b612ab15760405162461bcd60e51b815260206004820152602c60248201527f4e6f6e46756e6769626c6552656769737472793a207472616e7366657273206160448201526b3932903234b9b0b13632b21760a11b6064820152608401610832565b610968838383613174565b612ac5836120ee565b612ae15760405162461bcd60e51b8152600401610832906144e3565b80612b3f5760405162461bcd60e51b815260206004820152602860248201527f4e6f6e46756e6769626c6552656769737472793a20746f6b656e49642063616e60448201526706e6f7420626520360c41b6064820152608401610832565b612b49838261322c565b61096881836125a7565b60606000612b62836002614635565b612b6d906002614609565b6001600160401b03811115612b9257634e487b7160e01b600052604160045260246000fd5b6040519080825280601f01601f191660200182016040528015612bbc576020820181803683370190505b509050600360fc1b81600081518110612be557634e487b7160e01b600052603260045260246000fd5b60200101906001600160f81b031916908160001a905350600f60fb1b81600181518110612c2257634e487b7160e01b600052603260045260246000fd5b60200101906001600160f81b031916908160001a9053506000612c46846002614635565b612c51906001614609565b90505b6001811115612ce5576f181899199a1a9b1b9c1cb0b131b232b360811b85600f1660108110612c9357634e487b7160e01b600052603260045260246000fd5b1a60f81b828281518110612cb757634e487b7160e01b600052603260045260246000fd5b60200101906001600160f81b031916908160001a90535060049490941c93612cde81614697565b9050612c54565b5083156118715760405162461bcd60e51b815260206004820181905260248201527f537472696e67733a20686578206c656e67746820696e73756666696369656e746044820152606401610832565b612d3e8282611878565b610e825760008281526065602090815260408083206001600160a01b03851684529091529020805460ff19166001179055612d763390565b6001600160a01b0316816001600160a01b0316837f2f8788117e7eff1d82e926ec794901d17c78024a50270940304540a733656f0d60405160405180910390a45050565b6000611871836001600160a01b03841661336b565b612dd98282611878565b15610e825760008281526065602090815260408083206001600160a01b0385168085529252808320805460ff1916905551339285917ff6391f5c32d9c69d2a47ea670b442974b53935d1edc7fd64eb21e047a839171b9190a45050565b6000611871836001600160a01b0384166133ba565b612e54816134d7565b600081815261012d602052604090208054612e6e906146ae565b15905061101957600081815261012d602052604081206110199161397e565b6000826000018281548110612eb257634e487b7160e01b600052603260045260246000fd5b9060005260206000200154905092915050565b60006001600160a01b0384163b15612fc757604051630a85bd0160e11b81526001600160a01b0385169063150b7a0290612f099033908990889088906004016142f4565b602060405180830381600087803b158015612f2357600080fd5b505af1925050508015612f53575060408051601f3d908101601f19168201909252612f5091810190613ef3565b60015b612fad573d808015612f81576040519150601f19603f3d011682016040523d82523d6000602084013e612f86565b606091505b508051612fa55760405162461bcd60e51b815260040161083290614344565b805181602001fd5b6001600160e01b031916630a85bd0160e11b1490506120e6565b506001949350505050565b606061016a8054610747906146ae565b6060612fed82611f5b565b6130515760405162461bcd60e51b815260206004820152602f60248201527f4552433732314d657461646174613a2055524920717565727920666f72206e6f60448201526e3732bc34b9ba32b73a103a37b5b2b760891b6064820152608401610832565b600061305b612fd2565b9050600081511161307b5760405180602001604052806000815250611871565b806130858461357e565b604051602001613096929190614250565b6040516020818303038152906040529392505050565b600054610100900460ff1661290a5760405162461bcd60e51b815260040161083290614498565b600054610100900460ff166130fa5760405162461bcd60e51b815260040161083290614498565b815161310d9060c9906020850190613886565b5080516109689060ca906020840190613886565b60006001600160e01b03198216635a05180f60e01b1480610732575061073282613697565b6101635460009062010000900460ff16806125a257506125a260008051602061477f83398151915233611878565b6001600160a01b0383166131cf576131ca8160fd8054600083815260fe60205260408120829055600182018355919091527f9346ac6dd7de6b96975fec380d4d994c4c12e6a8897544f22915316cc6cca2800155565b6131f2565b816001600160a01b0316836001600160a01b0316146131f2576131f283826136cc565b6001600160a01b0382166132095761096881613769565b826001600160a01b0316826001600160a01b031614610968576109688282613842565b6001600160a01b0382166132825760405162461bcd60e51b815260206004820181905260248201527f4552433732313a206d696e7420746f20746865207a65726f20616464726573736044820152606401610832565b61328b81611f5b565b156132d85760405162461bcd60e51b815260206004820152601c60248201527f4552433732313a20746f6b656e20616c7265616479206d696e746564000000006044820152606401610832565b6132e460008383612a48565b6001600160a01b038216600090815260cc6020526040812080546001929061330d908490614609565b9091555050600081815260cb602052604080822080546001600160a01b0319166001600160a01b03861690811790915590518392907fddf252ad1be2c89b69c2b068fc378daa952ba7f163c4a11628f55a4df523b3ef908290a45050565b60008181526001830160205260408120546133b257508154600181810184556000848152602080822090930184905584548482528286019093526040902091909155610732565b506000610732565b600081815260018301602052604081205480156134cd5760006133de600183614654565b85549091506000906133f290600190614654565b905081811461347357600086600001828154811061342057634e487b7160e01b600052603260045260246000fd5b906000526020600020015490508087600001848154811061345157634e487b7160e01b600052603260045260246000fd5b6000918252602080832090910192909255918252600188019052604090208390555b855486908061349257634e487b7160e01b600052603160045260246000fd5b600190038181906000526020600020016000905590558560010160008681526020019081526020016000206000905560019350505050610732565b6000915050610732565b60006134e282611293565b90506134f081600084612a48565b6134fb600083611f78565b6001600160a01b038116600090815260cc60205260408120805460019290613524908490614654565b9091555050600082815260cb602052604080822080546001600160a01b0319169055518391906001600160a01b038416907fddf252ad1be2c89b69c2b068fc378daa952ba7f163c4a11628f55a4df523b3ef908390a45050565b6060816135a25750506040805180820190915260018152600360fc1b602082015290565b8160005b81156135cc57806135b6816146e9565b91506135c59050600a83614621565b91506135a6565b6000816001600160401b038111156135f457634e487b7160e01b600052604160045260246000fd5b6040519080825280601f01601f19166020018201604052801561361e576020820181803683370190505b5090505b84156120e657613633600183614654565b9150613640600a86614704565b61364b906030614609565b60f81b81838151811061366e57634e487b7160e01b600052603260045260246000fd5b60200101906001600160f81b031916908160001a905350613690600a86614621565b9450613622565b60006001600160e01b03198216637965db0b60e01b148061073257506301ffc9a760e01b6001600160e01b0319831614610732565b600060016136d984611318565b6136e39190614654565b600083815260fc6020526040902054909150808214613736576001600160a01b038416600090815260fb60209081526040808320858452825280832054848452818420819055835260fc90915290208190555b50600091825260fc602090815260408084208490556001600160a01b03909416835260fb81528383209183525290812055565b60fd5460009061377b90600190614654565b600083815260fe602052604081205460fd80549394509092849081106137b157634e487b7160e01b600052603260045260246000fd5b906000526020600020015490508060fd83815481106137e057634e487b7160e01b600052603260045260246000fd5b600091825260208083209091019290925582815260fe909152604080822084905585825281205560fd80548061382657634e487b7160e01b600052603160045260246000fd5b6001900381819060005260206000200160009055905550505050565b600061384d83611318565b6001600160a01b03909316600090815260fb60209081526040808320868452825280832085905593825260fc9052919091209190915550565b828054613892906146ae565b90600052602060002090601f0160209004810192826138b457600085556138fa565b82601f106138cd57805160ff19168380011785556138fa565b828001600101855582156138fa579182015b828111156138fa5782518255916020019190600101906138df565b506139069291506139b4565b5090565b828054613916906146ae565b90600052602060002090601f01602090048101928261393857600085556138fa565b82601f106139515782800160ff198235161785556138fa565b828001600101855582156138fa579182015b828111156138fa578235825591602001919060010190613963565b50805461398a906146ae565b6000825580601f1061399a575050565b601f01602090049060005260206000209081019061101991905b5b8082111561390657600081556001016139b5565b60006001600160401b038311156139e2576139e2614744565b6139f5601f8401601f19166020016145b6565b9050828152838383011115613a0957600080fd5b828260208301376000602084830101529392505050565b80356001600160a01b0381168114613a3757600080fd5b919050565b600082601f830112613a4c578081fd5b81356020613a61613a5c836145e6565b6145b6565b80838252828201915082860187848660051b8901011115613a80578586fd5b855b85811015613aa557613a9382613a20565b84529284019290840190600101613a82565b5090979650505050505050565b600082601f830112613ac2578081fd5b81356020613ad2613a5c836145e6565b80838252828201915082860187848660051b8901011115613af1578586fd5b855b85811015613aa5578135613b068161475a565b84529284019290840190600101613af3565b600082601f830112613b28578081fd5b81356020613b38613a5c836145e6565b80838252828201915082860187848660051b8901011115613b57578586fd5b855b85811015613aa55781356001600160401b03811115613b76578788fd5b613b848a87838c0101613c3a565b8552509284019290840190600101613b59565b600082601f830112613ba7578081fd5b81356020613bb7613a5c836145e6565b80838252828201915082860187848660051b8901011115613bd6578586fd5b855b85811015613aa557813584529284019290840190600101613bd8565b60008083601f840112613c05578182fd5b5081356001600160401b03811115613c1b578182fd5b602083019150836020828501011115613c3357600080fd5b9250929050565b600082601f830112613c4a578081fd5b611871838335602085016139c9565b600060208284031215613c6a578081fd5b61187182613a20565b60008060408385031215613c85578081fd5b613c8e83613a20565b9150613c9c60208401613a20565b90509250929050565b600080600060608486031215613cb9578081fd5b613cc284613a20565b9250613cd060208501613a20565b9150604084013590509250925092565b60008060008060808587031215613cf5578182fd5b613cfe85613a20565b9350613d0c60208601613a20565b92506040850135915060608501356001600160401b03811115613d2d578182fd5b8501601f81018713613d3d578182fd5b613d4c878235602084016139c9565b91505092959194509250565b60008060408385031215613d6a578182fd5b613d7383613a20565b91506020830135613d838161475a565b809150509250929050565b60008060008060008060808789031215613da6578384fd5b613daf87613a20565b955060208701356001600160401b0380821115613dca578586fd5b613dd68a838b01613bf4565b90975095506040890135915080821115613dee578384fd5b50613dfb89828a01613bf4565b979a9699509497949695606090950135949350505050565b60008060408385031215613e25578182fd5b613e2e83613a20565b946020939093013593505050565b600060208284031215613e4d578081fd5b81516118718161475a565b600060208284031215613e69578081fd5b5035919050565b60008060408385031215613e82578182fd5b82359150613c9c60208401613a20565b60008060408385031215613ea4578182fd5b823591506020830135613d838161475a565b60008060408385031215613ec8578182fd5b50508035926020909101359150565b600060208284031215613ee8578081fd5b813561187181614768565b600060208284031215613f04578081fd5b815161187181614768565b60008060208385031215613f21578182fd5b82356001600160401b03811115613f36578283fd5b613f4285828601613bf4565b90969095509350505050565b600060208284031215613f5f578081fd5b81356001600160401b03811115613f74578182fd5b6120e684828501613c3a565b600080600080600060a08688031215613f97578283fd5b85356001600160401b0380821115613fad578485fd5b613fb989838a01613c3a565b96506020880135915080821115613fce578485fd5b50613fdb88828901613c3a565b945050613fea60408701613a20565b9250613ff860608701613a20565b915061400660808701613a20565b90509295509295909350565b600060208284031215614023578081fd5b81356001600160401b0380821115614039578283fd5b90830190610120828603121561404d578283fd5b61405561458d565b823582811115614063578485fd5b61406f87828601613b18565b825250602083013582811115614083578485fd5b61408f87828601613ab2565b6020830152506040830135828111156140a6578485fd5b6140b287828601613ab2565b6040830152506060830135828111156140c9578485fd5b6140d587828601613ab2565b6060830152506080830135828111156140ec578485fd5b6140f887828601613a3c565b60808301525060a08301358281111561410f578485fd5b61411b87828601613b97565b60a08301525060c083013582811115614132578485fd5b61413e87828601613a3c565b60c08301525060e083013582811115614155578485fd5b61416187828601613b97565b60e083015250610100808401358381111561417a578586fd5b61418688828701613b18565b918301919091525095945050505050565b6000602082840312156141a8578081fd5b5051919050565b6000806000604084860312156141c3578081fd5b8335925060208401356001600160401b038111156141df578182fd5b6141eb86828701613bf4565b9497909650939450505050565b6000815180845261421081602086016020860161466b565b601f01601f19169290920160200192915050565b8183823760009101908152919050565b6000825161424681846020870161466b565b9190910192915050565b6000835161426281846020880161466b565b83519083019061427681836020880161466b565b01949350505050565b7f416363657373436f6e74726f6c3a206163636f756e74200000000000000000008152600083516142b781601785016020880161466b565b7001034b99036b4b9b9b4b733903937b6329607d1b60179184019182015283516142e881602884016020880161466b565b01602801949350505050565b6001600160a01b0385811682528416602082015260408101839052608060608201819052600090614327908301846141f8565b9695505050505050565b60208152600061187160208301846141f8565b60208082526032908201527f4552433732313a207472616e7366657220746f206e6f6e20455243373231526560408201527131b2b4bb32b91034b6b83632b6b2b73a32b960711b606082015260800190565b60208082526027908201527f4e6f6e46756e6769626c6552656769737472793a206d7573742062652072656760408201526634b9ba3930b91760c91b606082015260800190565b60208082526044908201527f4e6f6e46756e6769626c6552656769737472793a2063616c6c6572206973206e60408201527f6f74206f776e6572206e6f7220617070726f766564206e6f72207265676973746060820152633930b91760e11b608082015260a00190565b60208082526031908201527f4e6f6e46756e6769626c6552656769737472793a206c6162656c20697320616c6040820152703932b0b23c903932b3b4b9ba32b932b21760791b606082015260800190565b6020808252602b908201527f496e697469616c697a61626c653a20636f6e7472616374206973206e6f74206960408201526a6e697469616c697a696e6760a81b606082015260800190565b6020808252604e908201527f4e6f6e46756e6769626c6552656769737472793a20726563697069656e74206d60408201527f7573742068617665206e6f6e2d7a65726f2062616c616e636520696e2070726960608201526d36b0b93c903932b3b4b9ba393c9760911b608082015260a00190565b83815260406020820152816040820152818360608301376000818301606090810191909152601f909201601f1916010192915050565b60405161012081016001600160401b03811182821017156145b0576145b0614744565b60405290565b604051601f8201601f191681016001600160401b03811182821017156145de576145de614744565b604052919050565b60006001600160401b038211156145ff576145ff614744565b5060051b60200190565b6000821982111561461c5761461c614718565b500190565b6000826146305761463061472e565b500490565b600081600019048311821515161561464f5761464f614718565b500290565b60008282101561466657614666614718565b500390565b60005b8381101561468657818101518382015260200161466e565b838111156118535750506000910152565b6000816146a6576146a6614718565b506000190190565b600181811c908216806146c257607f821691505b602082108114156146e357634e487b7160e01b600052602260045260246000fd5b50919050565b60006000198214156146fd576146fd614718565b5060010190565b6000826147135761471361472e565b500690565b634e487b7160e01b600052601160045260246000fd5b634e487b7160e01b600052601260045260246000fd5b634e487b7160e01b600052604160045260246000fd5b801515811461101957600080fd5b6001600160e01b03198116811461101957600080fdfeedcc084d3dcd65a1f7f23c65c46722faca6953d28e43150a467cf43e5c309238a26469706673582212206e38ba97e30b7e2f9f4662c2780a41353b457838efb41403075ca00b26a519cf64736f6c63430008040033",
  "linkReferences": {},
  "deployedLinkReferences": {}
}