{
  "_format": "hh-sol-artifact-1",
  "contractName": "LazyMintModule",
  "sourceName": "contracts/modules/LazyMintModule.sol",
  "abi": [
    {
      "inputs": [
        {
          "internalType": "string",
          "name": "_name",
          "type": "string"
        }
      ],
      "stateMutability": "nonpayable",
      "type": "constructor"
    },
    {
      "inputs": [
        {
          "internalType": "address",
          "name": "to",
          "type": "address"
        },
        {
          "internalType": "string",
          "name": "label",
          "type": "string"
        },
        {
          "internalType": "string",
          "name": "registrationData",
          "type": "string"
        },
        {
          "internalType": "uint256",
          "name": "tokenId",
          "type": "uint256"
        },
        {
          "internalType": "bytes",
          "name": "signature",
          "type": "bytes"
        },
        {
          "internalType": "address",
          "name": "registry",
          "type": "address"
        }
      ],
      "name": "lazyRegister",
      "outputs": [],
      "stateMutability": "nonpayable",
      "type": "function"
    },
    {
      "inputs": [],
      "name": "name",
      "outputs": [
        {
          "internalType": "string",
          "name": "",
          "type": "string"
        }
      ],
      "stateMutability": "view",
      "type": "function"
    }
  ],
  "bytecode": "0x60806040523480156200001157600080fd5b5060405162000dc038038062000dc08339810160408190526200003491620000f7565b80516200004990600090602084019062000051565b505062000220565b8280546200005f90620001cd565b90600052602060002090601f016020900481019282620000835760008555620000ce565b82601f106200009e57805160ff1916838001178555620000ce565b82800160010185558215620000ce579182015b82811115620000ce578251825591602001919060010190620000b1565b50620000dc929150620000e0565b5090565b5b80821115620000dc5760008155600101620000e1565b600060208083850312156200010a578182fd5b82516001600160401b038082111562000121578384fd5b818501915085601f83011262000135578384fd5b8151818111156200014a576200014a6200020a565b604051601f8201601f19908116603f011681019083821181831017156200017557620001756200020a565b8160405282815288868487010111156200018d578687fd5b8693505b82841015620001b0578484018601518185018701529285019262000191565b82841115620001c157868684830101525b98975050505050505050565b600181811c90821680620001e257607f821691505b602082108114156200020457634e487b7160e01b600052602260045260246000fd5b50919050565b634e487b7160e01b600052604160045260246000fd5b610b9080620002306000396000f3fe608060405234801561001057600080fd5b50600436106100365760003560e01c806306fdde031461003b578063583b8db714610059575b600080fd5b61004361006e565b6040516100509190610abc565b60405180910390f35b61006c6100673660046108f2565b6100fc565b005b6000805461007b90610b1f565b80601f01602080910402602001604051908101604052809291908181526020018280546100a790610b1f565b80156100f45780601f106100c9576101008083540402835291602001916100f4565b820191906000526020600020905b8154815290600101906020018083116100d757829003601f168201915b505050505081565b336001600160a01b038a161461016a5760405162461bcd60e51b815260206004820152602860248201527f4c617a794d696e744d6f64756c653a2043616c6c6572206973206e6f7420726560448201526731b4b834b2b73a1760c11b60648201526084015b60405180910390fd5b6102168989898080601f01602080910402602001604051908101604052809392919081815260200183838082843760009201919091525050604080516020601f8d018190048102820181019092528b815292508b91508a908190840183828082843760009201919091525050604080516020601f8b018190048102820181019092528981528b9350915089908990819084018382808284376000920191909152508992506102e0915050565b61026d5760405162461bcd60e51b815260206004820152602260248201527f4c617a794d696e744d6f64756c653a207369676e6174757265206661696c7572604482015261329760f11b6064820152608401610161565b604051638792ffef60e01b81526001600160a01b03821690638792ffef906102a3908c908c908c908c908c908c90600401610a70565b600060405180830381600087803b1580156102bd57600080fd5b505af11580156102d1573d6000803e3d6000fd5b50505050505050505050505050565b60008061035d888888886040516020016102fd9493929190610a1a565b60408051601f1981840301815282825280516020918201207f19457468657265756d205369676e6564204d6573736167653a0a33320000000084830152603c8085019190915282518085039091018152605c909301909152815191012090565b9050600061036b82866104e2565b90506001600160a01b0381166103d75760405162461bcd60e51b815260206004820152602b60248201527f4c617a794d696e744d6f64756c653a205369676e65722063616e6e6f7420626560448201526a10181030b2323932b9b99760a91b6064820152608401610161565b836001600160a01b03166391d14854856001600160a01b031663f68e95536040518163ffffffff1660e01b815260040160206040518083038186803b15801561041f57600080fd5b505afa158015610433573d6000803e3d6000fd5b505050506040513d601f19601f8201168201806040525081019061045791906109d9565b6040516001600160e01b031960e084901b16815260048101919091526001600160a01b038416602482015260440160206040518083038186803b15801561049d57600080fd5b505afa1580156104b1573d6000803e3d6000fd5b505050506040513d601f19601f820116820180604052508101906104d591906109b2565b9998505050505050505050565b60008060006104f18585610506565b915091506104fe81610576565b509392505050565b60008082516041141561053d5760208301516040840151606085015160001a6105318782858561077a565b9450945050505061056f565b825160401415610567576020830151604084015161055c868383610867565b93509350505061056f565b506000905060025b9250929050565b600081600481111561059857634e487b7160e01b600052602160045260246000fd5b14156105a15750565b60018160048111156105c357634e487b7160e01b600052602160045260246000fd5b14156106115760405162461bcd60e51b815260206004820152601860248201527f45434453413a20696e76616c6964207369676e617475726500000000000000006044820152606401610161565b600281600481111561063357634e487b7160e01b600052602160045260246000fd5b14156106815760405162461bcd60e51b815260206004820152601f60248201527f45434453413a20696e76616c6964207369676e6174757265206c656e677468006044820152606401610161565b60038160048111156106a357634e487b7160e01b600052602160045260246000fd5b14156106fc5760405162461bcd60e51b815260206004820152602260248201527f45434453413a20696e76616c6964207369676e6174757265202773272076616c604482015261756560f01b6064820152608401610161565b600481600481111561071e57634e487b7160e01b600052602160045260246000fd5b14156107775760405162461bcd60e51b815260206004820152602260248201527f45434453413a20696e76616c6964207369676e6174757265202776272076616c604482015261756560f01b6064820152608401610161565b50565b6000807f7fffffffffffffffffffffffffffffff5d576e7357a4501ddfe92f46681b20a08311156107b1575060009050600361085e565b8460ff16601b141580156107c957508460ff16601c14155b156107da575060009050600461085e565b6040805160008082526020820180845289905260ff881692820192909252606081018690526080810185905260019060a0016020604051602081039080840390855afa15801561082e573d6000803e3d6000fd5b5050604051601f1901519150506001600160a01b0381166108575760006001925092505061085e565b9150600090505b94509492505050565b6000806001600160ff1b03831660ff84901c601b016108888782888561077a565b935093505050935093915050565b80356001600160a01b03811681146108ad57600080fd5b919050565b60008083601f8401126108c3578182fd5b50813567ffffffffffffffff8111156108da578182fd5b60208301915083602082850101111561056f57600080fd5b600080600080600080600080600060c08a8c03121561090f578485fd5b6109188a610896565b985060208a013567ffffffffffffffff80821115610934578687fd5b6109408d838e016108b2565b909a50985060408c0135915080821115610958578687fd5b6109648d838e016108b2565b909850965060608c0135955060808c0135915080821115610983578485fd5b506109908c828d016108b2565b90945092506109a3905060a08b01610896565b90509295985092959850929598565b6000602082840312156109c3578081fd5b815180151581146109d2578182fd5b9392505050565b6000602082840312156109ea578081fd5b5051919050565b81835281816020850137506000828201602090810191909152601f909101601f19169091010190565b6bffffffffffffffffffffffff198560601b16815260008451610a44816014850160208901610aef565b845190830190610a5b816014840160208901610aef565b01601481019390935250506034019392505050565b6001600160a01b0387168152608060208201819052600090610a9590830187896109f1565b8281036040840152610aa88186886109f1565b915050826060830152979650505050505050565b6020815260008251806020840152610adb816040850160208701610aef565b601f01601f19169190910160400192915050565b60005b83811015610b0a578181015183820152602001610af2565b83811115610b19576000848401525b50505050565b600181811c90821680610b3357607f821691505b60208210811415610b5457634e487b7160e01b600052602260045260246000fd5b5091905056fea26469706673582212207aa6d74fc25eeae30798cf5f520d8c40a19565f88cf2c529f7aad3bb2358201f64736f6c63430008040033",
  "linkReferences": {},
  "deployedLinkReferences": {}
}