{
  "_format": "hh-sol-artifact-1",
  "contractName": "NonFungibleRegistryUpgradeable",
  "sourceName": "contracts/identity/NonFungibleRegistryUpgradeable.sol",
  "abi": [
    {
      "inputs": [],
      "stateMutability": "nonpayable",
      "type": "constructor"
    },
    {
      "anonymous": false,
      "inputs": [
        {
          "indexed": true,
          "internalType": "address",
          "name": "owner",
          "type": "address"
        },
        {
          "indexed": true,
          "internalType": "address",
          "name": "approved",
          "type": "address"
        },
        {
          "indexed": true,
          "internalType": "uint256",
          "name": "tokenId",
          "type": "uint256"
        }
      ],
      "name": "Approval",
      "type": "event"
    },
    {
      "anonymous": false,
      "inputs": [
        {
          "indexed": true,
          "internalType": "address",
          "name": "owner",
          "type": "address"
        },
        {
          "indexed": true,
          "internalType": "address",
          "name": "operator",
          "type": "address"
        },
        {
          "indexed": false,
          "internalType": "bool",
          "name": "approved",
          "type": "bool"
        }
      ],
      "name": "ApprovalForAll",
      "type": "event"
    },
    {
      "anonymous": false,
      "inputs": [
        {
          "indexed": false,
          "internalType": "uint256",
          "name": "tokenId",
          "type": "uint256"
        },
        {
          "indexed": false,
          "internalType": "string",
          "name": "label",
          "type": "string"
        }
      ],
      "name": "LabelUpdated",
      "type": "event"
    },
    {
      "anonymous": false,
      "inputs": [
        {
          "indexed": false,
          "internalType": "bytes32",
          "name": "merkleRoot",
          "type": "bytes32"
        },
        {
          "indexed": false,
          "internalType": "bool",
          "name": "frozen",
          "type": "bool"
        }
      ],
      "name": "MerkleRootUpdated",
      "type": "event"
    },
    {
      "anonymous": false,
      "inputs": [
        {
          "indexed": true,
          "internalType": "bytes32",
          "name": "role",
          "type": "bytes32"
        },
        {
          "indexed": true,
          "internalType": "bytes32",
          "name": "previousAdminRole",
          "type": "bytes32"
        },
        {
          "indexed": true,
          "internalType": "bytes32",
          "name": "newAdminRole",
          "type": "bytes32"
        }
      ],
      "name": "RoleAdminChanged",
      "type": "event"
    },
    {
      "anonymous": false,
      "inputs": [
        {
          "indexed": true,
          "internalType": "bytes32",
          "name": "role",
          "type": "bytes32"
        },
        {
          "indexed": true,
          "internalType": "address",
          "name": "account",
          "type": "address"
        },
        {
          "indexed": true,
          "internalType": "address",
          "name": "sender",
          "type": "address"
        }
      ],
      "name": "RoleGranted",
      "type": "event"
    },
    {
      "anonymous": false,
      "inputs": [
        {
          "indexed": true,
          "internalType": "bytes32",
          "name": "role",
          "type": "bytes32"
        },
        {
          "indexed": true,
          "internalType": "address",
          "name": "account",
          "type": "address"
        },
        {
          "indexed": true,
          "internalType": "address",
          "name": "sender",
          "type": "address"
        }
      ],
      "name": "RoleRevoked",
      "type": "event"
    },
    {
      "anonymous": false,
      "inputs": [
        {
          "indexed": false,
          "internalType": "uint256",
          "name": "tokenId",
          "type": "uint256"
        },
        {
          "indexed": false,
          "internalType": "bytes32",
          "name": "registrationData",
          "type": "bytes32"
        }
      ],
      "name": "StorageUpdated",
      "type": "event"
    },
    {
      "anonymous": false,
      "inputs": [
        {
          "indexed": true,
          "internalType": "address",
          "name": "from",
          "type": "address"
        },
        {
          "indexed": true,
          "internalType": "address",
          "name": "to",
          "type": "address"
        },
        {
          "indexed": true,
          "internalType": "uint256",
          "name": "tokenId",
          "type": "uint256"
        }
      ],
      "name": "Transfer",
      "type": "event"
    },
    {
      "inputs": [],
      "name": "DEFAULT_ADMIN_ROLE",
      "outputs": [
        {
          "internalType": "bytes32",
          "name": "",
          "type": "bytes32"
        }
      ],
      "stateMutability": "view",
      "type": "function"
    },
    {
      "inputs": [],
      "name": "REGISTRAR_ROLE",
      "outputs": [
        {
          "internalType": "bytes32",
          "name": "",
          "type": "bytes32"
        }
      ],
      "stateMutability": "view",
      "type": "function"
    },
    {
      "inputs": [],
      "name": "REGISTRAR_ROLE_ADMIN",
      "outputs": [
        {
          "internalType": "bytes32",
          "name": "",
          "type": "bytes32"
        }
      ],
      "stateMutability": "view",
      "type": "function"
    },
    {
      "inputs": [],
      "name": "allowLabelChange",
      "outputs": [
        {
          "internalType": "bool",
          "name": "",
          "type": "bool"
        }
      ],
      "stateMutability": "view",
      "type": "function"
    },
    {
      "inputs": [],
      "name": "allowStorageUpdate",
      "outputs": [
        {
          "internalType": "bool",
          "name": "",
          "type": "bool"
        }
      ],
      "stateMutability": "view",
      "type": "function"
    },
    {
      "inputs": [],
      "name": "allowTransfers",
      "outputs": [
        {
          "internalType": "bool",
          "name": "",
          "type": "bool"
        }
      ],
      "stateMutability": "view",
      "type": "function"
    },
    {
      "inputs": [
        {
          "internalType": "address",
          "name": "to",
          "type": "address"
        },
        {
          "internalType": "uint256",
          "name": "tokenId",
          "type": "uint256"
        }
      ],
      "name": "approve",
      "outputs": [],
      "stateMutability": "nonpayable",
      "type": "function"
    },
    {
      "inputs": [
        {
          "internalType": "address",
          "name": "owner",
          "type": "address"
        }
      ],
      "name": "balanceOf",
      "outputs": [
        {
          "internalType": "uint256",
          "name": "",
          "type": "uint256"
        }
      ],
      "stateMutability": "view",
      "type": "function"
    },
    {
      "inputs": [],
      "name": "baseURI",
      "outputs": [
        {
          "internalType": "string",
          "name": "",
          "type": "string"
        }
      ],
      "stateMutability": "view",
      "type": "function"
    },
    {
      "inputs": [
        {
          "internalType": "uint256",
          "name": "tokenId",
          "type": "uint256"
        }
      ],
      "name": "burn",
      "outputs": [],
      "stateMutability": "nonpayable",
      "type": "function"
    },
    {
      "inputs": [],
      "name": "burnAddress",
      "outputs": [
        {
          "internalType": "address",
          "name": "",
          "type": "address"
        }
      ],
      "stateMutability": "view",
      "type": "function"
    },
    {
      "inputs": [],
      "name": "burnFee",
      "outputs": [
        {
          "internalType": "uint256",
          "name": "",
          "type": "uint256"
        }
      ],
      "stateMutability": "view",
      "type": "function"
    },
    {
      "inputs": [],
      "name": "frozen",
      "outputs": [
        {
          "internalType": "bool",
          "name": "",
          "type": "bool"
        }
      ],
      "stateMutability": "view",
      "type": "function"
    },
    {
      "inputs": [
        {
          "internalType": "uint256",
          "name": "tokenId",
          "type": "uint256"
        }
      ],
      "name": "getApproved",
      "outputs": [
        {
          "internalType": "address",
          "name": "",
          "type": "address"
        }
      ],
      "stateMutability": "view",
      "type": "function"
    },
    {
      "inputs": [
        {
          "internalType": "bytes32",
          "name": "role",
          "type": "bytes32"
        }
      ],
      "name": "getRoleAdmin",
      "outputs": [
        {
          "internalType": "bytes32",
          "name": "",
          "type": "bytes32"
        }
      ],
      "stateMutability": "view",
      "type": "function"
    },
    {
      "inputs": [
        {
          "internalType": "bytes32",
          "name": "role",
          "type": "bytes32"
        },
        {
          "internalType": "uint256",
          "name": "index",
          "type": "uint256"
        }
      ],
      "name": "getRoleMember",
      "outputs": [
        {
          "internalType": "address",
          "name": "",
          "type": "address"
        }
      ],
      "stateMutability": "view",
      "type": "function"
    },
    {
      "inputs": [
        {
          "internalType": "bytes32",
          "name": "role",
          "type": "bytes32"
        }
      ],
      "name": "getRoleMemberCount",
      "outputs": [
        {
          "internalType": "uint256",
          "name": "",
          "type": "uint256"
        }
      ],
      "stateMutability": "view",
      "type": "function"
    },
    {
      "inputs": [
        {
          "internalType": "bytes32",
          "name": "role",
          "type": "bytes32"
        },
        {
          "internalType": "address",
          "name": "account",
          "type": "address"
        }
      ],
      "name": "grantRole",
      "outputs": [],
      "stateMutability": "nonpayable",
      "type": "function"
    },
    {
      "inputs": [
        {
          "internalType": "bytes32",
          "name": "role",
          "type": "bytes32"
        },
        {
          "internalType": "address",
          "name": "account",
          "type": "address"
        }
      ],
      "name": "hasRole",
      "outputs": [
        {
          "internalType": "bool",
          "name": "",
          "type": "bool"
        }
      ],
      "stateMutability": "view",
      "type": "function"
    },
    {
      "inputs": [
        {
          "internalType": "uint256",
          "name": "",
          "type": "uint256"
        }
      ],
      "name": "identityStakes",
      "outputs": [
        {
          "internalType": "address",
          "name": "token",
          "type": "address"
        },
        {
          "internalType": "uint256",
          "name": "amount",
          "type": "uint256"
        }
      ],
      "stateMutability": "view",
      "type": "function"
    },
    {
      "inputs": [
        {
          "internalType": "string",
          "name": "name_",
          "type": "string"
        },
        {
          "internalType": "string",
          "name": "symbol_",
          "type": "string"
        },
        {
          "internalType": "address",
          "name": "_primaryRegistry",
          "type": "address"
        },
        {
          "internalType": "address",
          "name": "_registrar",
          "type": "address"
        },
        {
          "internalType": "address",
          "name": "_admin",
          "type": "address"
        }
      ],
      "name": "initialize",
      "outputs": [],
      "stateMutability": "nonpayable",
      "type": "function"
    },
    {
      "inputs": [
        {
          "internalType": "address",
          "name": "owner",
          "type": "address"
        },
        {
          "internalType": "address",
          "name": "operator",
          "type": "address"
        }
      ],
      "name": "isApprovedForAll",
      "outputs": [
        {
          "internalType": "bool",
          "name": "",
          "type": "bool"
        }
      ],
      "stateMutability": "view",
      "type": "function"
    },
    {
      "inputs": [],
      "name": "merkleRoot",
      "outputs": [
        {
          "internalType": "bytes32",
          "name": "",
          "type": "bytes32"
        }
      ],
      "stateMutability": "view",
      "type": "function"
    },
    {
      "inputs": [],
      "name": "name",
      "outputs": [
        {
          "internalType": "string",
          "name": "",
          "type": "string"
        }
      ],
      "stateMutability": "view",
      "type": "function"
    },
    {
      "inputs": [
        {
          "internalType": "uint256",
          "name": "tokenId",
          "type": "uint256"
        }
      ],
      "name": "ownerOf",
      "outputs": [
        {
          "internalType": "address",
          "name": "",
          "type": "address"
        }
      ],
      "stateMutability": "view",
      "type": "function"
    },
    {
      "inputs": [],
      "name": "primaryRegistry",
      "outputs": [
        {
          "internalType": "address",
          "name": "",
          "type": "address"
        }
      ],
      "stateMutability": "view",
      "type": "function"
    },
    {
      "inputs": [
        {
          "internalType": "address",
          "name": "to",
          "type": "address"
        },
        {
          "internalType": "string",
          "name": "label",
          "type": "string"
        },
        {
          "internalType": "string",
          "name": "registrationData",
          "type": "string"
        },
        {
          "internalType": "uint256",
          "name": "tokenId",
          "type": "uint256"
        }
      ],
      "name": "register",
      "outputs": [],
      "stateMutability": "nonpayable",
      "type": "function"
    },
    {
      "inputs": [
        {
          "internalType": "address",
          "name": "to",
          "type": "address"
        },
        {
          "internalType": "string",
          "name": "label",
          "type": "string"
        },
        {
          "internalType": "string",
          "name": "registrationData",
          "type": "string"
        },
        {
          "internalType": "uint256",
          "name": "tokenId",
          "type": "uint256"
        }
      ],
      "name": "registerByToken",
      "outputs": [],
      "stateMutability": "nonpayable",
      "type": "function"
    },
    {
      "inputs": [],
      "name": "registrationFee",
      "outputs": [
        {
          "internalType": "uint256",
          "name": "",
          "type": "uint256"
        }
      ],
      "stateMutability": "view",
      "type": "function"
    },
    {
      "inputs": [],
      "name": "registrationToken",
      "outputs": [
        {
          "internalType": "address",
          "name": "",
          "type": "address"
        }
      ],
      "stateMutability": "view",
      "type": "function"
    },
    {
      "inputs": [
        {
          "internalType": "string",
          "name": "",
          "type": "string"
        }
      ],
      "name": "registryMap",
      "outputs": [
        {
          "internalType": "uint256",
          "name": "",
          "type": "uint256"
        }
      ],
      "stateMutability": "view",
      "type": "function"
    },
    {
      "inputs": [
        {
          "internalType": "bytes32",
          "name": "role",
          "type": "bytes32"
        },
        {
          "internalType": "address",
          "name": "account",
          "type": "address"
        }
      ],
      "name": "renounceRole",
      "outputs": [],
      "stateMutability": "nonpayable",
      "type": "function"
    },
    {
      "inputs": [
        {
          "internalType": "uint256",
          "name": "",
          "type": "uint256"
        }
      ],
      "name": "reverseRegistryMap",
      "outputs": [
        {
          "internalType": "string",
          "name": "",
          "type": "string"
        }
      ],
      "stateMutability": "view",
      "type": "function"
    },
    {
      "inputs": [
        {
          "internalType": "bytes32",
          "name": "role",
          "type": "bytes32"
        },
        {
          "internalType": "address",
          "name": "account",
          "type": "address"
        }
      ],
      "name": "revokeRole",
      "outputs": [],
      "stateMutability": "nonpayable",
      "type": "function"
    },
    {
      "inputs": [
        {
          "internalType": "address",
          "name": "from",
          "type": "address"
        },
        {
          "internalType": "address",
          "name": "to",
          "type": "address"
        },
        {
          "internalType": "uint256",
          "name": "tokenId",
          "type": "uint256"
        }
      ],
      "name": "safeTransferFrom",
      "outputs": [],
      "stateMutability": "nonpayable",
      "type": "function"
    },
    {
      "inputs": [
        {
          "internalType": "address",
          "name": "from",
          "type": "address"
        },
        {
          "internalType": "address",
          "name": "to",
          "type": "address"
        },
        {
          "internalType": "uint256",
          "name": "tokenId",
          "type": "uint256"
        },
        {
          "internalType": "bytes",
          "name": "_data",
          "type": "bytes"
        }
      ],
      "name": "safeTransferFrom",
      "outputs": [],
      "stateMutability": "nonpayable",
      "type": "function"
    },
    {
      "inputs": [],
      "name": "schema",
      "outputs": [
        {
          "internalType": "string",
          "name": "",
          "type": "string"
        }
      ],
      "stateMutability": "view",
      "type": "function"
    },
    {
      "inputs": [
        {
          "internalType": "address",
          "name": "operator",
          "type": "address"
        },
        {
          "internalType": "bool",
          "name": "approved",
          "type": "bool"
        }
      ],
      "name": "setApprovalForAll",
      "outputs": [],
      "stateMutability": "nonpayable",
      "type": "function"
    },
    {
      "inputs": [
        {
          "internalType": "bytes32",
          "name": "_merkleRoot",
          "type": "bytes32"
        },
        {
          "internalType": "bool",
          "name": "freeze",
          "type": "bool"
        }
      ],
      "name": "setMerkleRoot",
      "outputs": [],
      "stateMutability": "nonpayable",
      "type": "function"
    },
    {
      "inputs": [
        {
          "internalType": "address",
          "name": "_primaryRegistry",
          "type": "address"
        }
      ],
      "name": "setPrimaryRegistry",
      "outputs": [],
      "stateMutability": "nonpayable",
      "type": "function"
    },
    {
      "inputs": [
        {
          "internalType": "bytes",
          "name": "encodedParameters",
          "type": "bytes"
        }
      ],
      "name": "setRegistryParameters",
      "outputs": [],
      "stateMutability": "nonpayable",
      "type": "function"
    },
    {
      "inputs": [
        {
          "internalType": "bytes4",
          "name": "interfaceId",
          "type": "bytes4"
        }
      ],
      "name": "supportsInterface",
      "outputs": [
        {
          "internalType": "bool",
          "name": "",
          "type": "bool"
        }
      ],
      "stateMutability": "view",
      "type": "function"
    },
    {
      "inputs": [],
      "name": "symbol",
      "outputs": [
        {
          "internalType": "string",
          "name": "",
          "type": "string"
        }
      ],
      "stateMutability": "view",
      "type": "function"
    },
    {
      "inputs": [
        {
          "internalType": "uint256",
          "name": "tokenId",
          "type": "uint256"
        }
      ],
      "name": "tokenURI",
      "outputs": [
        {
          "internalType": "string",
          "name": "",
          "type": "string"
        }
      ],
      "stateMutability": "view",
      "type": "function"
    },
    {
      "inputs": [
        {
          "internalType": "address",
          "name": "from",
          "type": "address"
        },
        {
          "internalType": "address",
          "name": "to",
          "type": "address"
        },
        {
          "internalType": "uint256",
          "name": "tokenId",
          "type": "uint256"
        }
      ],
      "name": "transferFrom",
      "outputs": [],
      "stateMutability": "nonpayable",
      "type": "function"
    },
    {
      "inputs": [
        {
          "internalType": "uint256",
          "name": "tokenId",
          "type": "uint256"
        },
        {
          "internalType": "string",
          "name": "label",
          "type": "string"
        }
      ],
      "name": "updateLabel",
      "outputs": [],
      "stateMutability": "nonpayable",
      "type": "function"
    },
    {
      "inputs": [
        {
          "internalType": "uint256",
          "name": "tokenId",
          "type": "uint256"
        },
        {
          "internalType": "string",
          "name": "registrationData",
          "type": "string"
        }
      ],
      "name": "updateRegistration",
      "outputs": [],
      "stateMutability": "nonpayable",
      "type": "function"
    }
  ],
  "bytecode": "0x60806040523480156200001157600080fd5b50600054610100900460ff166200002f5760005460ff161562000039565b62000039620000de565b620000a15760405162461bcd60e51b815260206004820152602e60248201527f496e697469616c697a61626c653a20636f6e747261637420697320616c72656160448201526d191e481a5b9a5d1a585b1a5e995960921b606482015260840160405180910390fd5b600054610100900460ff16158015620000c4576000805461ffff19166101011790555b8015620000d7576000805461ff00191690555b5062000102565b6000620000f630620000fc60201b62001cfb1760201c565b15905090565b3b151590565b61434480620001126000396000f3fe608060405234801561001057600080fd5b50600436106102955760003560e01c80636f4c25aa11610167578063a8f1c6d8116100ce578063db0ed6a011610087578063db0ed6a01461062e578063e985e9c514610641578063f041b4a71461067d578063f68e955314610691578063f8895cc8146106a6578063fce589d8146106ae57600080fd5b8063a8f1c6d8146105a3578063b88d4fde146105b6578063bce8542e146105c9578063c87b56dd146105f5578063ca15c87314610608578063d547741f1461061b57600080fd5b806391d148541161012057806391d148541461054757806393d0da071461055a57806395d89b411461056d578063a10474c714610575578063a217fddf14610588578063a22cb4651461059057600080fd5b80636f4c25aa146104d457806370a08231146104e757806370d5ae05146104fa5780638792ffef1461050e5780638daf3f4e146105215780639010d07c1461053457600080fd5b80632f2ff15d1161020b5780634b08b0a3116101c45780634b08b0a3146104565780635471a05714610471578063580839691461047f5780636017160b146104a65780636352211e146104b95780636c0360eb146104cc57600080fd5b80632f2ff15d146103a457806336568abe146103b757806338f292d5146103ca57806342842e0e1461041d57806342966c681461043057806347f00d5a1461044357600080fd5b806314c44e091161025d57806314c44e09146103255780632185810b1461033d57806323b872dd14610351578063248a9ca314610364578063267be25c146103875780632eb4a7ab1461039a57600080fd5b806301ffc9a71461029a578063054f7d9c146102c257806306fdde03146102d0578063081812fc146102e5578063095ea7b314610310575b600080fd5b6102ad6102a83660046139fc565b6106b8565b60405190151581526020015b60405180910390f35b610137546102ad9060ff1681565b6102d86106c9565b6040516102b99190613e56565b6102f86102f336600461397d565b61075b565b6040516001600160a01b0390911681526020016102b9565b61032361031e366004613938565b6107e8565b005b61032f6101325481565b6040519081526020016102b9565b610131546102ad9062010000900460ff1681565b61032361035f3660046137ca565b6108fe565b61032f61037236600461397d565b60009081526065602052604090206001015490565b6103236103953660046138b3565b610955565b61032f6101365481565b6103236103b2366004613995565b610c99565b6103236103c5366004613995565b610cbf565b6103fe6103d836600461397d565b61013060205260009081526040902080546001909101546001600160a01b039091169082565b604080516001600160a01b0390931683526020830191909152016102b9565b61032361042b3660046137ca565b610d3d565b61032361043e36600461397d565b610d58565b610323610451366004613cd4565b610e90565b610131546102f890630100000090046001600160a01b031681565b610131546102ad9060ff1681565b61032f7fab17982698983e428c1b3359c794bb98c356bd485b8da9b6bffc27745eece3ba81565b6102d86104b436600461397d565b610fcb565b6102f86104c736600461397d565b611066565b6102d86110dd565b610131546102ad90610100900460ff1681565b61032f6104f536600461377e565b6110eb565b610133546102f8906001600160a01b031681565b61032361051c3660046138b3565b611172565b61032361052f366004613a34565b61127a565b6102f86105423660046139db565b61162c565b6102ad610555366004613995565b61164b565b610323610568366004613cd4565b611676565b6102d86117d8565b61032361058336600461377e565b6117e7565b61032f600081565b61032361059e36600461387d565b61197d565b6103236105b13660046139b7565b611988565b6103236105c4366004613805565b611a83565b61032f6105d7366004613a73565b805160208183018101805161012e8252928201919093012091525481565b6102d861060336600461397d565b611ada565b61032f61061636600461397d565b611ae5565b610323610629366004613995565b611afc565b61032361063c366004613aa5565b611b22565b6102ad61064f366004613798565b6001600160a01b03918216600090815260ce6020908152604080832093909416825291909152205460ff1690565b610135546102f8906001600160a01b031681565b61032f6000805160206142ef83398151915281565b6102d8611ced565b61032f6101345481565b60006106c382611d01565b92915050565b606060c980546106d89061421e565b80601f01602080910402602001604051908101604052809291908181526020018280546107049061421e565b80156107515780601f1061072657610100808354040283529160200191610751565b820191906000526020600020905b81548152906001019060200180831161073457829003601f168201915b5050505050905090565b600061076682611d41565b6107cc5760405162461bcd60e51b815260206004820152602c60248201527f4552433732313a20617070726f76656420717565727920666f72206e6f6e657860448201526b34b9ba32b73a103a37b5b2b760a11b60648201526084015b60405180910390fd5b50600090815260cd60205260409020546001600160a01b031690565b60006107f382611066565b9050806001600160a01b0316836001600160a01b031614156108615760405162461bcd60e51b815260206004820152602160248201527f4552433732313a20617070726f76616c20746f2063757272656e74206f776e656044820152603960f91b60648201526084016107c3565b336001600160a01b038216148061087d575061087d813361064f565b6108ef5760405162461bcd60e51b815260206004820152603860248201527f4552433732313a20617070726f76652063616c6c6572206973206e6f74206f7760448201527f6e6572206e6f7220617070726f76656420666f7220616c6c000000000000000060648201526084016107c3565b6108f98383611d5e565b505050565b610909335b82611dcc565b6109255760405162461bcd60e51b81526004016107c390613f02565b61092e82611ed4565b61094a5760405162461bcd60e51b81526004016107c390614053565b6108f9838383611f71565b61013154630100000090046001600160a01b03166109db5760405162461bcd60e51b815260206004820152603760248201527f4e6f6e46756e6769626c6552656769737472793a20726567697374726174696f60448201527f6e20627920746f6b656e206e6f7420656e61626c65642e00000000000000000060648201526084016107c3565b610a1a85858080601f01602080910402602001604051908101604052809392919081815260200183838082843760009201919091525061211c92505050565b15610a375760405162461bcd60e51b81526004016107c390613fb7565b61013154630100000090046001600160a01b03166323b872dd33610132546040516001600160e01b031960e085901b1681526001600160a01b0390921660048301523060248301526044820152606401602060405180830381600087803b158015610aa157600080fd5b505af1158015610ab5573d6000803e3d6000fd5b505050506040513d601f19601f82011682018060405250810190610ad99190613961565b610af55760405162461bcd60e51b81526004016107c390613f6c565b610b6b8686868080601f01602080910402602001604051908101604052809392919081815260200183838082843760009201919091525050604080516020601f8a018190048102820181019092528881529250889150879081908401838280828437600092019190915250879250612147915050565b60006127106101345461013254610b8291906141a5565b610b8c9190614191565b610131546101335460405163a9059cbb60e01b81526001600160a01b039182166004820152602481018490529293506301000000909104169063a9059cbb90604401602060405180830381600087803b158015610be857600080fd5b505af1158015610bfc573d6000803e3d6000fd5b505050506040513d601f19601f82011682018060405250810190610c209190613961565b506040805180820190915261013154630100000090046001600160a01b03168152610132546020820190610c559084906141c4565b9052600092835261013060209081526040909320815181546001600160a01b0319166001600160a01b03909116178155920151600190920191909155505050505050565b600082815260656020526040902060010154610cb581336121d3565b6108f98383612237565b6001600160a01b0381163314610d2f5760405162461bcd60e51b815260206004820152602f60248201527f416363657373436f6e74726f6c3a2063616e206f6e6c792072656e6f756e636560448201526e103937b632b9903337b91039b2b63360891b60648201526084016107c3565b610d398282612259565b5050565b6108f983838360405180602001604052806000815250611a83565b610d6133610903565b610d7d5760405162461bcd60e51b81526004016107c390613f02565b610d868161227b565b6000818152610130602052604090206001015415610e8d57600081815261013060205260409020546001600160a01b031663a9059cbb33600084815261013060205260409081902060010154905160e084901b6001600160e01b03191681526001600160a01b0390921660048301526024820152604401602060405180830381600087803b158015610e1757600080fd5b505af1158015610e2b573d6000803e3d6000fd5b505050506040513d601f19601f82011682018060405250810190610e4f9190613961565b610e6b5760405162461bcd60e51b81526004016107c390613f6c565b60008181526101306020526040812080546001600160a01b0319168155600101555b50565b610e98612360565b610eff5760405162461bcd60e51b815260206004820152603260248201527f4e6f6e46756e6769626c6552656769737472793a2053746f726167652075706460448201527130ba34b7339034b9903234b9b0b13632b21760711b60648201526084016107c3565b610f0a335b84611dcc565b610f265760405162461bcd60e51b81526004016107c390613f02565b610f668383838080601f01602080910402602001604051908101604052809392919081815260200183838082843760009201919091525061238d92505050565b7f2f0b1fafb1d28d13e045afb299578515ce12beeff8ee8ca9c6a32f18be41f0f4838383604051602001610f9b929190613d49565b60408051601f198184030181528282528051602091820120938352820192909252015b60405180910390a1505050565b61012f6020526000908152604090208054610fe59061421e565b80601f01602080910402602001604051908101604052809291908181526020018280546110119061421e565b801561105e5780601f106110335761010080835404028352916020019161105e565b820191906000526020600020905b81548152906001019060200180831161104157829003601f168201915b505050505081565b600081815260cb60205260408120546001600160a01b0316806106c35760405162461bcd60e51b815260206004820152602960248201527f4552433732313a206f776e657220717565727920666f72206e6f6e657869737460448201526832b73a103a37b5b2b760b91b60648201526084016107c3565b6101388054610fe59061421e565b60006001600160a01b0382166111565760405162461bcd60e51b815260206004820152602a60248201527f4552433732313a2062616c616e636520717565727920666f7220746865207a65604482015269726f206164647265737360b01b60648201526084016107c3565b506001600160a01b0316600090815260cc602052604090205490565b61118a6000805160206142ef8339815191523361164b565b6111fc5760405162461bcd60e51b815260206004820152603a60248201527f4e6f6e46756e6769626c6552656769737472793a206d7573742068617665207260448201527f656769737472617220726f6c6520746f2072656769737465722e00000000000060648201526084016107c3565b6112728686868080601f01602080910402602001604051908101604052809392919081815260200183838082843760009201919091525050604080516020601f8a018190048102820181019092528881529250889150879081908401838280828437600092019190915250879250612147915050565b505050505050565b6112926000805160206142ef8339815191523361164b565b6112ae5760405162461bcd60e51b81526004016107c390613ebb565b60006112bc82840184613b37565b8051519091501561130857805180516000906112e857634e487b7160e01b600052603260045260246000fd5b602002602001015161012d90805190602001906113069291906133ab565b505b6020810151511561135b57806020015160008151811061133857634e487b7160e01b600052603260045260246000fd5b602002602001015161013160006101000a81548160ff0219169083151502179055505b604081015151156113ae57806040015160008151811061138b57634e487b7160e01b600052603260045260246000fd5b602002602001015161013160016101000a81548160ff0219169083151502179055505b606081015151156114015780606001516000815181106113de57634e487b7160e01b600052603260045260246000fd5b602002602001015161013160026101000a81548160ff0219169083151502179055505b6080810151511561146157806080015160008151811061143157634e487b7160e01b600052603260045260246000fd5b602002602001015161013160036101000a8154816001600160a01b0302191690836001600160a01b031602179055505b60a081015151156114a1578060a0015160008151811061149157634e487b7160e01b600052603260045260246000fd5b6020026020010151610132819055505b60c08101515115611501578060c001516000815181106114d157634e487b7160e01b600052603260045260246000fd5b602002602001015161013360006101000a8154816001600160a01b0302191690836001600160a01b031602179055505b60e081015151156115d6576127108160e0015160008151811061153457634e487b7160e01b600052603260045260246000fd5b602002602001015111156115a15760405162461bcd60e51b815260206004820152602e60248201527f4e6f6e46756e6769626c6552656769737472793a206275726e466565206d757360448201526d3a1031329036329018981818181760911b60648201526084016107c3565b8060e001516000815181106115c657634e487b7160e01b600052603260045260246000fd5b6020026020010151610134819055505b61010081015151156108f95780610100015160008151811061160857634e487b7160e01b600052603260045260246000fd5b602002602001015161013890805190602001906116269291906133ab565b50505050565b60008281526097602052604081206116449083612418565b9392505050565b60009182526065602090815260408084206001600160a01b0393909316845291905290205460ff1690565b61167e612424565b6116e35760405162461bcd60e51b815260206004820152603060248201527f4e6f6e46756e6769626c6552656769737472793a204c6162656c20757064617460448201526f34b7339034b9903234b9b0b13632b21760811b60648201526084016107c3565b6116ec33610f04565b6117085760405162461bcd60e51b81526004016107c390613f02565b61174782828080601f01602080910402602001604051908101604052809392919081815260200183838082843760009201919091525061211c92505050565b156117645760405162461bcd60e51b81526004016107c390613fb7565b8261012e8383604051611778929190613d49565b908152604080516020928190038301902092909255600085815261012f909152206117a490838361342f565b507fec8103a13d35079ee852a6e0f70658be4c82016236869c5283833b6721454b2c838383604051610fbe939291906140c7565b606060ca80546106d89061421e565b6117f260003361164b565b61184a5760405162461bcd60e51b815260206004820152602360248201527f4e6f6e46756e6769626c6552656769737472793a206d7573742062652061646d60448201526234b71760e91b60648201526084016107c3565b6001600160a01b03811661186c5761013580546001600160a01b031916905550565b6040516301ffc9a760e01b81526380ac58cd60e01b60048201526001600160a01b038216906301ffc9a79060240160206040518083038186803b1580156118b257600080fd5b505afa1580156118c6573d6000803e3d6000fd5b505050506040513d601f19601f820116820180604052508101906118ea9190613961565b61195c5760405162461bcd60e51b815260206004820152603f60248201527f4e6f6e46756e6769626c6552656769737472793a204164647265737320646f6560448201527f73206e6f7420737570706f72742045524337323120696e746572666163652e0060648201526084016107c3565b61013580546001600160a01b0383166001600160a01b031990911617905550565b610d39338383612451565b6119a06000805160206142ef8339815191523361164b565b6119bc5760405162461bcd60e51b81526004016107c390613ebb565b6101375460ff1615611a295760405162461bcd60e51b815260206004820152603060248201527f4e6f6e46756e6769626c6552656769737472793a206d65726b6c65526f6f742060448201526f3430b9903132b2b710333937bd32b71760811b60648201526084016107c3565b610136829055610137805460ff19168215159081179091556040805184815260ff909216151560208301527fc72271867375e4dc99b635d35b37f44698b889895effb6891602e23128d4f68d910160405180910390a15050565b611a8d3383611dcc565b611aa95760405162461bcd60e51b81526004016107c390613f02565b611ab283611ed4565b611ace5760405162461bcd60e51b81526004016107c390614053565b61162684848484612520565b60606106c382612553565b60008181526097602052604081206106c3906126b5565b600082815260656020526040902060010154611b1881336121d3565b6108f98383612259565b600054610100900460ff16611b3d5760005460ff1615611b41565b303b155b611ba45760405162461bcd60e51b815260206004820152602e60248201527f496e697469616c697a61626c653a20636f6e747261637420697320616c72656160448201526d191e481a5b9a5d1a585b1a5e995960921b60648201526084016107c3565b600054610100900460ff16158015611bc6576000805461ffff19166101011790555b611bce6126bf565b611bd66126f0565b611bde61272f565b611be88686612756565b611bf3600083612797565b611c0b6000805160206142ef83398151915284612797565b611c436000805160206142ef8339815191527fab17982698983e428c1b3359c794bb98c356bd485b8da9b6bffc27745eece3ba6127a1565b611c6d7fab17982698983e428c1b3359c794bb98c356bd485b8da9b6bffc27745eece3ba84612797565b61013180546001600160b81b03191662010001179055670de0b6b3a76400006101325561013380546001600160a01b038481166001600160a01b0319928316179092556101f461013455610135805492871692909116919091179055610137805460ff191690558015611272576000805461ff0019169055505050505050565b61012d8054610fe59061421e565b3b151590565b60006001600160e01b031982166380ac58cd60e01b1480611d3257506001600160e01b03198216635b5e139f60e01b145b806106c357506106c3826127ec565b600090815260cb60205260409020546001600160a01b0316151590565b600081815260cd6020526040902080546001600160a01b0319166001600160a01b0384169081179091558190611d9382611066565b6001600160a01b03167f8c5be1e5ebec7d5bd14f71427d1e84f3dd0314c0f7b2291e5b200ac8c7c3b92560405160405180910390a45050565b6000611dd782611d41565b611e385760405162461bcd60e51b815260206004820152602c60248201527f4552433732313a206f70657261746f7220717565727920666f72206e6f6e657860448201526b34b9ba32b73a103a37b5b2b760a11b60648201526084016107c3565b6000611e4383611066565b9050806001600160a01b0316846001600160a01b03161480611e7e5750836001600160a01b0316611e738461075b565b6001600160a01b0316145b80611eae57506001600160a01b03808216600090815260ce602090815260408083209388168352929052205460ff165b80611ecc5750611ecc6000805160206142ef8339815191528561164b565b949350505050565b610135546000906001600160a01b031615806106c35750610135546040516370a0823160e01b81526001600160a01b03848116600483015260009216906370a082319060240160206040518083038186803b158015611f3257600080fd5b505afa158015611f46573d6000803e3d6000fd5b505050506040513d601f19601f82011682018060405250810190611f6a9190613cbc565b1192915050565b826001600160a01b0316611f8482611066565b6001600160a01b031614611fec5760405162461bcd60e51b815260206004820152602960248201527f4552433732313a207472616e73666572206f6620746f6b656e2074686174206960448201526839903737ba1037bbb760b91b60648201526084016107c3565b6001600160a01b03821661204e5760405162461bcd60e51b8152602060048201526024808201527f4552433732313a207472616e7366657220746f20746865207a65726f206164646044820152637265737360e01b60648201526084016107c3565b612059838383612811565b612064600082611d5e565b6001600160a01b038316600090815260cc6020526040812080546001929061208d9084906141c4565b90915550506001600160a01b038216600090815260cc602052604081208054600192906120bb908490614179565b9091555050600081815260cb602052604080822080546001600160a01b0319166001600160a01b0386811691821790925591518493918716917fddf252ad1be2c89b69c2b068fc378daa952ba7f163c4a11628f55a4df523b3ef91a4505050565b600061012e8260405161212f9190613d59565b90815260405190819003602001902054151592915050565b8251156121c8576121578361211c565b156121745760405162461bcd60e51b81526004016107c390613fb7565b61217f84838361287a565b8061012e846040516121919190613d59565b908152604080516020928190038301902092909255600083815261012f82529190912084516121c2928601906133ab565b50611626565b61162684838361287a565b6121dd828261164b565b610d39576121f5816001600160a01b03166014612911565b612200836020612911565b604051602001612211929190613da4565b60408051601f198184030181529082905262461bcd60e51b82526107c391600401613e56565b6122418282612af2565b60008281526097602052604090206108f99082612b78565b6122638282612b8d565b60008281526097602052604090206108f99082612bf4565b61228481612c09565b600081815261012f60205260408120805461229e9061421e565b80601f01602080910402602001604051908101604052809291908181526020018280546122ca9061421e565b80156123175780601f106122ec57610100808354040283529160200191612317565b820191906000526020600020905b8154815290600101906020018083116122fa57829003601f168201915b505050600085815261012f6020526040812093945061233993925090506134a3565b61012e8160405161234a9190613d59565b9081526020016040518091039020600090555050565b6101315460009060ff168061238857506123886000805160206142ef8339815191523361164b565b905090565b61239682611d41565b6123f95760405162461bcd60e51b815260206004820152602e60248201527f45524337323155524953746f726167653a2055524920736574206f66206e6f6e60448201526d32bc34b9ba32b73a103a37b5b2b760911b60648201526084016107c3565b600082815260fb6020908152604090912082516108f9928401906133ab565b60006116448383612c49565b61013154600090610100900460ff168061238857506123886000805160206142ef8339815191523361164b565b816001600160a01b0316836001600160a01b031614156124b35760405162461bcd60e51b815260206004820152601960248201527f4552433732313a20617070726f766520746f2063616c6c65720000000000000060448201526064016107c3565b6001600160a01b03838116600081815260ce6020908152604080832094871680845294825291829020805460ff191686151590811790915591519182527f17307eab39ab6107e8899845ad3d59bd9653f200f220920489ca2b5937696c31910160405180910390a3505050565b61252b848484611f71565b61253784848484612c81565b6116265760405162461bcd60e51b81526004016107c390613e69565b606061255e82611d41565b6125c45760405162461bcd60e51b815260206004820152603160248201527f45524337323155524953746f726167653a2055524920717565727920666f72206044820152703737b732bc34b9ba32b73a103a37b5b2b760791b60648201526084016107c3565b600082815260fb6020526040812080546125dd9061421e565b80601f01602080910402602001604051908101604052809291908181526020018280546126099061421e565b80156126565780601f1061262b57610100808354040283529160200191612656565b820191906000526020600020905b81548152906001019060200180831161263957829003601f168201915b505050505090506000612667612d8e565b905080516000141561267a575092915050565b8151156126ac578082604051602001612694929190613d75565b60405160208183030381529060405292505050919050565b611ecc84612d9e565b60006106c3825490565b600054610100900460ff166126e65760405162461bcd60e51b81526004016107c390614008565b6126ee612e68565b565b600054610100900460ff166127175760405162461bcd60e51b81526004016107c390614008565b61271f612e68565b612727612e68565b6126e6612e68565b600054610100900460ff1661271f5760405162461bcd60e51b81526004016107c390614008565b600054610100900460ff1661277d5760405162461bcd60e51b81526004016107c390614008565b612785612e68565b61278d612e68565b610d398282612e8f565b610d398282612237565b600082815260656020526040808220600101805490849055905190918391839186917fbd79b86ffe0ab8e8776151514217cd7cacd52c909f66475c3af44e129f0b00ff9190a4505050565b60006001600160e01b03198216635a05180f60e01b14806106c357506106c382612edd565b612819612f12565b6108f95760405162461bcd60e51b815260206004820152602c60248201527f4e6f6e46756e6769626c6552656769737472793a207472616e7366657273206160448201526b3932903234b9b0b13632b21760a11b60648201526084016107c3565b61288383611ed4565b61289f5760405162461bcd60e51b81526004016107c390614053565b806128fd5760405162461bcd60e51b815260206004820152602860248201527f4e6f6e46756e6769626c6552656769737472793a20746f6b656e49642063616e60448201526706e6f7420626520360c41b60648201526084016107c3565b6129078382612f40565b6108f9818361238d565b606060006129208360026141a5565b61292b906002614179565b6001600160401b0381111561295057634e487b7160e01b600052604160045260246000fd5b6040519080825280601f01601f19166020018201604052801561297a576020820181803683370190505b509050600360fc1b816000815181106129a357634e487b7160e01b600052603260045260246000fd5b60200101906001600160f81b031916908160001a905350600f60fb1b816001815181106129e057634e487b7160e01b600052603260045260246000fd5b60200101906001600160f81b031916908160001a9053506000612a048460026141a5565b612a0f906001614179565b90505b6001811115612aa3576f181899199a1a9b1b9c1cb0b131b232b360811b85600f1660108110612a5157634e487b7160e01b600052603260045260246000fd5b1a60f81b828281518110612a7557634e487b7160e01b600052603260045260246000fd5b60200101906001600160f81b031916908160001a90535060049490941c93612a9c81614207565b9050612a12565b5083156116445760405162461bcd60e51b815260206004820181905260248201527f537472696e67733a20686578206c656e67746820696e73756666696369656e7460448201526064016107c3565b612afc828261164b565b610d395760008281526065602090815260408083206001600160a01b03851684529091529020805460ff19166001179055612b343390565b6001600160a01b0316816001600160a01b0316837f2f8788117e7eff1d82e926ec794901d17c78024a50270940304540a733656f0d60405160405180910390a45050565b6000611644836001600160a01b03841661307f565b612b97828261164b565b15610d395760008281526065602090815260408083206001600160a01b0385168085529252808320805460ff1916905551339285917ff6391f5c32d9c69d2a47ea670b442974b53935d1edc7fd64eb21e047a839171b9190a45050565b6000611644836001600160a01b0384166130ce565b612c12816131eb565b600081815260fb602052604090208054612c2b9061421e565b159050610e8d57600081815260fb60205260408120610e8d916134a3565b6000826000018281548110612c6e57634e487b7160e01b600052603260045260246000fd5b9060005260206000200154905092915050565b60006001600160a01b0384163b15612d8357604051630a85bd0160e11b81526001600160a01b0385169063150b7a0290612cc5903390899088908890600401613e19565b602060405180830381600087803b158015612cdf57600080fd5b505af1925050508015612d0f575060408051601f3d908101601f19168201909252612d0c91810190613a18565b60015b612d69573d808015612d3d576040519150601f19603f3d011682016040523d82523d6000602084013e612d42565b606091505b508051612d615760405162461bcd60e51b81526004016107c390613e69565b805181602001fd5b6001600160e01b031916630a85bd0160e11b149050611ecc565b506001949350505050565b606061013880546106d89061421e565b6060612da982611d41565b612e0d5760405162461bcd60e51b815260206004820152602f60248201527f4552433732314d657461646174613a2055524920717565727920666f72206e6f60448201526e3732bc34b9ba32b73a103a37b5b2b760891b60648201526084016107c3565b6000612e17612d8e565b90506000815111612e375760405180602001604052806000815250611644565b80612e4184613292565b604051602001612e52929190613d75565b6040516020818303038152906040529392505050565b600054610100900460ff166126ee5760405162461bcd60e51b81526004016107c390614008565b600054610100900460ff16612eb65760405162461bcd60e51b81526004016107c390614008565b8151612ec99060c99060208501906133ab565b5080516108f99060ca9060208401906133ab565b60006001600160e01b03198216637965db0b60e01b14806106c357506301ffc9a760e01b6001600160e01b03198316146106c3565b6101315460009062010000900460ff168061238857506123886000805160206142ef8339815191523361164b565b6001600160a01b038216612f965760405162461bcd60e51b815260206004820181905260248201527f4552433732313a206d696e7420746f20746865207a65726f206164647265737360448201526064016107c3565b612f9f81611d41565b15612fec5760405162461bcd60e51b815260206004820152601c60248201527f4552433732313a20746f6b656e20616c7265616479206d696e7465640000000060448201526064016107c3565b612ff860008383612811565b6001600160a01b038216600090815260cc60205260408120805460019290613021908490614179565b9091555050600081815260cb602052604080822080546001600160a01b0319166001600160a01b03861690811790915590518392907fddf252ad1be2c89b69c2b068fc378daa952ba7f163c4a11628f55a4df523b3ef908290a45050565b60008181526001830160205260408120546130c6575081546001818101845560008481526020808220909301849055845484825282860190935260409020919091556106c3565b5060006106c3565b600081815260018301602052604081205480156131e15760006130f26001836141c4565b8554909150600090613106906001906141c4565b905081811461318757600086600001828154811061313457634e487b7160e01b600052603260045260246000fd5b906000526020600020015490508087600001848154811061316557634e487b7160e01b600052603260045260246000fd5b6000918252602080832090910192909255918252600188019052604090208390555b85548690806131a657634e487b7160e01b600052603160045260246000fd5b6001900381819060005260206000200160009055905585600101600086815260200190815260200160002060009055600193505050506106c3565b60009150506106c3565b60006131f682611066565b905061320481600084612811565b61320f600083611d5e565b6001600160a01b038116600090815260cc602052604081208054600192906132389084906141c4565b9091555050600082815260cb602052604080822080546001600160a01b0319169055518391906001600160a01b038416907fddf252ad1be2c89b69c2b068fc378daa952ba7f163c4a11628f55a4df523b3ef908390a45050565b6060816132b65750506040805180820190915260018152600360fc1b602082015290565b8160005b81156132e057806132ca81614259565b91506132d99050600a83614191565b91506132ba565b6000816001600160401b0381111561330857634e487b7160e01b600052604160045260246000fd5b6040519080825280601f01601f191660200182016040528015613332576020820181803683370190505b5090505b8415611ecc576133476001836141c4565b9150613354600a86614274565b61335f906030614179565b60f81b81838151811061338257634e487b7160e01b600052603260045260246000fd5b60200101906001600160f81b031916908160001a9053506133a4600a86614191565b9450613336565b8280546133b79061421e565b90600052602060002090601f0160209004810192826133d9576000855561341f565b82601f106133f257805160ff191683800117855561341f565b8280016001018555821561341f579182015b8281111561341f578251825591602001919060010190613404565b5061342b9291506134d9565b5090565b82805461343b9061421e565b90600052602060002090601f01602090048101928261345d576000855561341f565b82601f106134765782800160ff1982351617855561341f565b8280016001018555821561341f579182015b8281111561341f578235825591602001919060010190613488565b5080546134af9061421e565b6000825580601f106134bf575050565b601f016020900490600052602060002090810190610e8d91905b5b8082111561342b57600081556001016134da565b60006001600160401b03831115613507576135076142b4565b61351a601f8401601f1916602001614126565b905082815283838301111561352e57600080fd5b828260208301376000602084830101529392505050565b80356001600160a01b038116811461355c57600080fd5b919050565b600082601f830112613571578081fd5b8135602061358661358183614156565b614126565b80838252828201915082860187848660051b89010111156135a5578586fd5b855b858110156135ca576135b882613545565b845292840192908401906001016135a7565b5090979650505050505050565b600082601f8301126135e7578081fd5b813560206135f761358183614156565b80838252828201915082860187848660051b8901011115613616578586fd5b855b858110156135ca57813561362b816142ca565b84529284019290840190600101613618565b600082601f83011261364d578081fd5b8135602061365d61358183614156565b80838252828201915082860187848660051b890101111561367c578586fd5b855b858110156135ca5781356001600160401b0381111561369b578788fd5b6136a98a87838c010161375f565b855250928401929084019060010161367e565b600082601f8301126136cc578081fd5b813560206136dc61358183614156565b80838252828201915082860187848660051b89010111156136fb578586fd5b855b858110156135ca578135845292840192908401906001016136fd565b60008083601f84011261372a578182fd5b5081356001600160401b03811115613740578182fd5b60208301915083602082850101111561375857600080fd5b9250929050565b600082601f83011261376f578081fd5b611644838335602085016134ee565b60006020828403121561378f578081fd5b61164482613545565b600080604083850312156137aa578081fd5b6137b383613545565b91506137c160208401613545565b90509250929050565b6000806000606084860312156137de578081fd5b6137e784613545565b92506137f560208501613545565b9150604084013590509250925092565b6000806000806080858703121561381a578182fd5b61382385613545565b935061383160208601613545565b92506040850135915060608501356001600160401b03811115613852578182fd5b8501601f81018713613862578182fd5b613871878235602084016134ee565b91505092959194509250565b6000806040838503121561388f578182fd5b61389883613545565b915060208301356138a8816142ca565b809150509250929050565b600080600080600080608087890312156138cb578384fd5b6138d487613545565b955060208701356001600160401b03808211156138ef578586fd5b6138fb8a838b01613719565b90975095506040890135915080821115613913578384fd5b5061392089828a01613719565b979a9699509497949695606090950135949350505050565b6000806040838503121561394a578182fd5b61395383613545565b946020939093013593505050565b600060208284031215613972578081fd5b8151611644816142ca565b60006020828403121561398e578081fd5b5035919050565b600080604083850312156139a7578182fd5b823591506137c160208401613545565b600080604083850312156139c9578182fd5b8235915060208301356138a8816142ca565b600080604083850312156139ed578182fd5b50508035926020909101359150565b600060208284031215613a0d578081fd5b8135611644816142d8565b600060208284031215613a29578081fd5b8151611644816142d8565b60008060208385031215613a46578182fd5b82356001600160401b03811115613a5b578283fd5b613a6785828601613719565b90969095509350505050565b600060208284031215613a84578081fd5b81356001600160401b03811115613a99578182fd5b611ecc8482850161375f565b600080600080600060a08688031215613abc578283fd5b85356001600160401b0380821115613ad2578485fd5b613ade89838a0161375f565b96506020880135915080821115613af3578485fd5b50613b008882890161375f565b945050613b0f60408701613545565b9250613b1d60608701613545565b9150613b2b60808701613545565b90509295509295909350565b600060208284031215613b48578081fd5b81356001600160401b0380821115613b5e578283fd5b908301906101208286031215613b72578283fd5b613b7a6140fd565b823582811115613b88578485fd5b613b948782860161363d565b825250602083013582811115613ba8578485fd5b613bb4878286016135d7565b602083015250604083013582811115613bcb578485fd5b613bd7878286016135d7565b604083015250606083013582811115613bee578485fd5b613bfa878286016135d7565b606083015250608083013582811115613c11578485fd5b613c1d87828601613561565b60808301525060a083013582811115613c34578485fd5b613c40878286016136bc565b60a08301525060c083013582811115613c57578485fd5b613c6387828601613561565b60c08301525060e083013582811115613c7a578485fd5b613c86878286016136bc565b60e0830152506101008084013583811115613c9f578586fd5b613cab8882870161363d565b918301919091525095945050505050565b600060208284031215613ccd578081fd5b5051919050565b600080600060408486031215613ce8578081fd5b8335925060208401356001600160401b03811115613d04578182fd5b613d1086828701613719565b9497909650939450505050565b60008151808452613d358160208601602086016141db565b601f01601f19169290920160200192915050565b8183823760009101908152919050565b60008251613d6b8184602087016141db565b9190910192915050565b60008351613d878184602088016141db565b835190830190613d9b8183602088016141db565b01949350505050565b7f416363657373436f6e74726f6c3a206163636f756e7420000000000000000000815260008351613ddc8160178501602088016141db565b7001034b99036b4b9b9b4b733903937b6329607d1b6017918401918201528351613e0d8160288401602088016141db565b01602801949350505050565b6001600160a01b0385811682528416602082015260408101839052608060608201819052600090613e4c90830184613d1d565b9695505050505050565b6020815260006116446020830184613d1d565b60208082526032908201527f4552433732313a207472616e7366657220746f206e6f6e20455243373231526560408201527131b2b4bb32b91034b6b83632b6b2b73a32b960711b606082015260800190565b60208082526027908201527f4e6f6e46756e6769626c6552656769737472793a206d7573742062652072656760408201526634b9ba3930b91760c91b606082015260800190565b60208082526044908201527f4e6f6e46756e6769626c6552656769737472793a2063616c6c6572206973206e60408201527f6f74206f776e6572206e6f7220617070726f766564206e6f72207265676973746060820152633930b91760e11b608082015260a00190565b6020808252602b908201527f4e6f6e46756e6769626c6552656769737472793a20746f6b656e207472616e7360408201526a3332b9103330b4b632b21760a91b606082015260800190565b60208082526031908201527f4e6f6e46756e6769626c6552656769737472793a206c6162656c20697320616c6040820152703932b0b23c903932b3b4b9ba32b932b21760791b606082015260800190565b6020808252602b908201527f496e697469616c697a61626c653a20636f6e7472616374206973206e6f74206960408201526a6e697469616c697a696e6760a81b606082015260800190565b6020808252604e908201527f4e6f6e46756e6769626c6552656769737472793a20726563697069656e74206d60408201527f7573742068617665206e6f6e2d7a65726f2062616c616e636520696e2070726960608201526d36b0b93c903932b3b4b9ba393c9760911b608082015260a00190565b83815260406020820152816040820152818360608301376000818301606090810191909152601f909201601f1916010192915050565b60405161012081016001600160401b0381118282101715614120576141206142b4565b60405290565b604051601f8201601f191681016001600160401b038111828210171561414e5761414e6142b4565b604052919050565b60006001600160401b0382111561416f5761416f6142b4565b5060051b60200190565b6000821982111561418c5761418c614288565b500190565b6000826141a0576141a061429e565b500490565b60008160001904831182151516156141bf576141bf614288565b500290565b6000828210156141d6576141d6614288565b500390565b60005b838110156141f65781810151838201526020016141de565b838111156116265750506000910152565b60008161421657614216614288565b506000190190565b600181811c9082168061423257607f821691505b6020821081141561425357634e487b7160e01b600052602260045260246000fd5b50919050565b600060001982141561426d5761426d614288565b5060010190565b6000826142835761428361429e565b500690565b634e487b7160e01b600052601160045260246000fd5b634e487b7160e01b600052601260045260246000fd5b634e487b7160e01b600052604160045260246000fd5b8015158114610e8d57600080fd5b6001600160e01b031981168114610e8d57600080fdfeedcc084d3dcd65a1f7f23c65c46722faca6953d28e43150a467cf43e5c309238a264697066735822122098cdd82120ebe27c518ca2e9164aa0eade69edac34c0c942947907f6a11ca50064736f6c63430008040033",
  "linkReferences": {},
  "deployedLinkReferences": {}
}