{
  "abi": [
    {
      "anonymous": false,
      "inputs": [
        {
          "indexed": true,
          "internalType": "bytes32",
          "name": "channelId",
          "type": "bytes32"
        },
        {
          "indexed": false,
          "internalType": "uint48",
          "name": "newTurnNumRecord",
          "type": "uint48"
        }
      ],
      "name": "ChallengeCleared",
      "type": "event"
    },
    {
      "anonymous": false,
      "inputs": [
        {
          "indexed": true,
          "internalType": "bytes32",
          "name": "channelId",
          "type": "bytes32"
        },
        {
          "indexed": false,
          "internalType": "uint48",
          "name": "turnNumRecord",
          "type": "uint48"
        },
        {
          "indexed": false,
          "internalType": "uint48",
          "name": "finalizesAt",
          "type": "uint48"
        },
        {
          "indexed": false,
          "internalType": "address",
          "name": "challenger",
          "type": "address"
        },
        {
          "indexed": false,
          "internalType": "bool",
          "name": "isFinal",
          "type": "bool"
        },
        {
          "components": [
            {
              "internalType": "uint256",
              "name": "chainId",
              "type": "uint256"
            },
            {
              "internalType": "address[]",
              "name": "participants",
              "type": "address[]"
            },
            {
              "internalType": "uint48",
              "name": "channelNonce",
              "type": "uint48"
            },
            {
              "internalType": "address",
              "name": "appDefinition",
              "type": "address"
            },
            {
              "internalType": "uint48",
              "name": "challengeDuration",
              "type": "uint48"
            }
          ],
          "indexed": false,
          "internalType": "struct IForceMove.FixedPart",
          "name": "fixedPart",
          "type": "tuple"
        },
        {
          "components": [
            {
              "internalType": "bytes",
              "name": "outcome",
              "type": "bytes"
            },
            {
              "internalType": "bytes",
              "name": "appData",
              "type": "bytes"
            }
          ],
          "indexed": false,
          "internalType": "struct ForceMoveApp.VariablePart[]",
          "name": "variableParts",
          "type": "tuple[]"
        },
        {
          "components": [
            {
              "internalType": "uint8",
              "name": "v",
              "type": "uint8"
            },
            {
              "internalType": "bytes32",
              "name": "r",
              "type": "bytes32"
            },
            {
              "internalType": "bytes32",
              "name": "s",
              "type": "bytes32"
            }
          ],
          "indexed": false,
          "internalType": "struct IForceMove.Signature[]",
          "name": "sigs",
          "type": "tuple[]"
        },
        {
          "indexed": false,
          "internalType": "uint8[]",
          "name": "whoSignedWhat",
          "type": "uint8[]"
        }
      ],
      "name": "ChallengeRegistered",
      "type": "event"
    },
    {
      "anonymous": false,
      "inputs": [
        {
          "indexed": true,
          "internalType": "bytes32",
          "name": "channelId",
          "type": "bytes32"
        }
      ],
      "name": "Concluded",
      "type": "event"
    },
    {
      "inputs": [
        {
          "internalType": "bytes32",
          "name": "",
          "type": "bytes32"
        }
      ],
      "name": "channelStorageHashes",
      "outputs": [
        {
          "internalType": "bytes32",
          "name": "",
          "type": "bytes32"
        }
      ],
      "stateMutability": "view",
      "type": "function"
    },
    {
      "inputs": [
        {
          "components": [
            {
              "internalType": "uint256",
              "name": "chainId",
              "type": "uint256"
            },
            {
              "internalType": "address[]",
              "name": "participants",
              "type": "address[]"
            },
            {
              "internalType": "uint48",
              "name": "channelNonce",
              "type": "uint48"
            },
            {
              "internalType": "address",
              "name": "appDefinition",
              "type": "address"
            },
            {
              "internalType": "uint48",
              "name": "challengeDuration",
              "type": "uint48"
            }
          ],
          "internalType": "struct IForceMove.FixedPart",
          "name": "fixedPart",
          "type": "tuple"
        },
        {
          "internalType": "uint48",
          "name": "largestTurnNum",
          "type": "uint48"
        },
        {
          "components": [
            {
              "internalType": "bytes",
              "name": "outcome",
              "type": "bytes"
            },
            {
              "internalType": "bytes",
              "name": "appData",
              "type": "bytes"
            }
          ],
          "internalType": "struct ForceMoveApp.VariablePart[]",
          "name": "variableParts",
          "type": "tuple[]"
        },
        {
          "internalType": "uint8",
          "name": "isFinalCount",
          "type": "uint8"
        },
        {
          "components": [
            {
              "internalType": "uint8",
              "name": "v",
              "type": "uint8"
            },
            {
              "internalType": "bytes32",
              "name": "r",
              "type": "bytes32"
            },
            {
              "internalType": "bytes32",
              "name": "s",
              "type": "bytes32"
            }
          ],
          "internalType": "struct IForceMove.Signature[]",
          "name": "sigs",
          "type": "tuple[]"
        },
        {
          "internalType": "uint8[]",
          "name": "whoSignedWhat",
          "type": "uint8[]"
        }
      ],
      "name": "checkpoint",
      "outputs": [],
      "stateMutability": "nonpayable",
      "type": "function"
    },
    {
      "inputs": [
        {
          "internalType": "uint48",
          "name": "largestTurnNum",
          "type": "uint48"
        },
        {
          "components": [
            {
              "internalType": "uint256",
              "name": "chainId",
              "type": "uint256"
            },
            {
              "internalType": "address[]",
              "name": "participants",
              "type": "address[]"
            },
            {
              "internalType": "uint48",
              "name": "channelNonce",
              "type": "uint48"
            },
            {
              "internalType": "address",
              "name": "appDefinition",
              "type": "address"
            },
            {
              "internalType": "uint48",
              "name": "challengeDuration",
              "type": "uint48"
            }
          ],
          "internalType": "struct IForceMove.FixedPart",
          "name": "fixedPart",
          "type": "tuple"
        },
        {
          "internalType": "bytes32",
          "name": "appPartHash",
          "type": "bytes32"
        },
        {
          "internalType": "bytes32",
          "name": "outcomeHash",
          "type": "bytes32"
        },
        {
          "internalType": "uint8",
          "name": "numStates",
          "type": "uint8"
        },
        {
          "internalType": "uint8[]",
          "name": "whoSignedWhat",
          "type": "uint8[]"
        },
        {
          "components": [
            {
              "internalType": "uint8",
              "name": "v",
              "type": "uint8"
            },
            {
              "internalType": "bytes32",
              "name": "r",
              "type": "bytes32"
            },
            {
              "internalType": "bytes32",
              "name": "s",
              "type": "bytes32"
            }
          ],
          "internalType": "struct IForceMove.Signature[]",
          "name": "sigs",
          "type": "tuple[]"
        }
      ],
      "name": "conclude",
      "outputs": [],
      "stateMutability": "nonpayable",
      "type": "function"
    },
    {
      "inputs": [
        {
          "components": [
            {
              "internalType": "uint256",
              "name": "chainId",
              "type": "uint256"
            },
            {
              "internalType": "address[]",
              "name": "participants",
              "type": "address[]"
            },
            {
              "internalType": "uint48",
              "name": "channelNonce",
              "type": "uint48"
            },
            {
              "internalType": "address",
              "name": "appDefinition",
              "type": "address"
            },
            {
              "internalType": "uint48",
              "name": "challengeDuration",
              "type": "uint48"
            }
          ],
          "internalType": "struct IForceMove.FixedPart",
          "name": "fixedPart",
          "type": "tuple"
        },
        {
          "internalType": "uint48",
          "name": "largestTurnNum",
          "type": "uint48"
        },
        {
          "components": [
            {
              "internalType": "bytes",
              "name": "outcome",
              "type": "bytes"
            },
            {
              "internalType": "bytes",
              "name": "appData",
              "type": "bytes"
            }
          ],
          "internalType": "struct ForceMoveApp.VariablePart[]",
          "name": "variableParts",
          "type": "tuple[]"
        },
        {
          "internalType": "uint8",
          "name": "isFinalCount",
          "type": "uint8"
        },
        {
          "components": [
            {
              "internalType": "uint8",
              "name": "v",
              "type": "uint8"
            },
            {
              "internalType": "bytes32",
              "name": "r",
              "type": "bytes32"
            },
            {
              "internalType": "bytes32",
              "name": "s",
              "type": "bytes32"
            }
          ],
          "internalType": "struct IForceMove.Signature[]",
          "name": "sigs",
          "type": "tuple[]"
        },
        {
          "internalType": "uint8[]",
          "name": "whoSignedWhat",
          "type": "uint8[]"
        },
        {
          "components": [
            {
              "internalType": "uint8",
              "name": "v",
              "type": "uint8"
            },
            {
              "internalType": "bytes32",
              "name": "r",
              "type": "bytes32"
            },
            {
              "internalType": "bytes32",
              "name": "s",
              "type": "bytes32"
            }
          ],
          "internalType": "struct IForceMove.Signature",
          "name": "challengerSig",
          "type": "tuple"
        }
      ],
      "name": "forceMove",
      "outputs": [],
      "stateMutability": "nonpayable",
      "type": "function"
    },
    {
      "inputs": [
        {
          "internalType": "bytes32",
          "name": "channelId",
          "type": "bytes32"
        }
      ],
      "name": "getChannelStorage",
      "outputs": [
        {
          "internalType": "uint48",
          "name": "turnNumRecord",
          "type": "uint48"
        },
        {
          "internalType": "uint48",
          "name": "finalizesAt",
          "type": "uint48"
        },
        {
          "internalType": "uint160",
          "name": "fingerprint",
          "type": "uint160"
        }
      ],
      "stateMutability": "view",
      "type": "function"
    },
    {
      "inputs": [
        {
          "internalType": "address",
          "name": "challenger",
          "type": "address"
        },
        {
          "internalType": "bool[2]",
          "name": "isFinalAB",
          "type": "bool[2]"
        },
        {
          "components": [
            {
              "internalType": "uint256",
              "name": "chainId",
              "type": "uint256"
            },
            {
              "internalType": "address[]",
              "name": "participants",
              "type": "address[]"
            },
            {
              "internalType": "uint48",
              "name": "channelNonce",
              "type": "uint48"
            },
            {
              "internalType": "address",
              "name": "appDefinition",
              "type": "address"
            },
            {
              "internalType": "uint48",
              "name": "challengeDuration",
              "type": "uint48"
            }
          ],
          "internalType": "struct IForceMove.FixedPart",
          "name": "fixedPart",
          "type": "tuple"
        },
        {
          "components": [
            {
              "internalType": "bytes",
              "name": "outcome",
              "type": "bytes"
            },
            {
              "internalType": "bytes",
              "name": "appData",
              "type": "bytes"
            }
          ],
          "internalType": "struct ForceMoveApp.VariablePart[2]",
          "name": "variablePartAB",
          "type": "tuple[2]"
        },
        {
          "components": [
            {
              "internalType": "uint8",
              "name": "v",
              "type": "uint8"
            },
            {
              "internalType": "bytes32",
              "name": "r",
              "type": "bytes32"
            },
            {
              "internalType": "bytes32",
              "name": "s",
              "type": "bytes32"
            }
          ],
          "internalType": "struct IForceMove.Signature",
          "name": "sig",
          "type": "tuple"
        }
      ],
      "name": "respond",
      "outputs": [],
      "stateMutability": "nonpayable",
      "type": "function"
    }
  ],
  "evm": {
    "bytecode": {
      "linkReferences": {},
      "object": "608060405234801561001057600080fd5b506133af806100206000396000f3fe608060405234801561001057600080fd5b50600436106100625760003560e01c80630149b762146100675780636f65e87d1461008357806378b9e5cb146100b35780637ff6a982146100cf578063fe9e5db9146100eb578063ff8ceb321461011d575b600080fd5b610081600480360361007c9190810190611bee565b610139565b005b61009d60048036036100989190810190611bc5565b61017c565b6040516100aa9190612af8565b60405180910390f35b6100cd60048036036100c89190810190611cd7565b610194565b005b6100e960048036036100e49190810190611dd6565b61034e565b005b61010560048036036101009190810190611bc5565b61053c565b60405161011493929190612f64565b60405180910390f35b61013760048036036101329190810190611af4565b61055d565b005b600061014487610764565b905061014f816107a4565b6101598187610808565b610168868686848b888861086e565b5061017381876108f7565b50505050505050565b60006020528060005260406000206000915090505481565b600061019f88610764565b9050600060028111156101ae57fe5b6101b7826109a6565b60028111156101c257fe5b14156101d7576101d281886109f5565b610218565b600160028111156101e457fe5b6101ed826109a6565b60028111156101f857fe5b141561020d576102088188610808565b610217565b610216816107a4565b5b5b6000610229888888858d8a8a61086e565b9050600061023c828b6020015186610a5c565b9050827f1f9f029de8ab3f81b5381a9bc066b421d0f215db28cc8160ec346bc6f0463c6e8a8c6080015142018460008c60ff16118f8e8d8d604051610288989796959493929190612eca565b60405180910390a261032c6040518060a001604052808b65ffffffffffff1681526020018c60800151420165ffffffffffff1681526020018481526020018373ffffffffffffffffffffffffffffffffffffffff1681526020018a60018c5103815181106102f257fe5b60200260200101516000015160405160200161030e9190612b86565b60405160208183030381529060405280519060200120815250610ae0565b6000808581526020019081526020016000208190555050505050505050505050565b600061035987610764565b9050610364816107a4565b60608460ff166040519080825280602002602001820160405280156103985781602001602082028038833980820191505090505b50905060008090505b8560ff168165ffffffffffff161015610443576040518060a001604052808760ff16600184018d010365ffffffffffff168152602001600115158152602001848152602001898152602001888152506040516020016104009190612dc5565b60405160208183030381529060405280519060200120828265ffffffffffff168151811061042a57fe5b60200260200101818152505080806001019150506103a1565b50610455898960200151838688610b75565b610494576040517f08c379a000000000000000000000000000000000000000000000000000000000815260040161048b90612d4a565b60405180910390fd5b6104ee6040518060a00160405280600065ffffffffffff1681526020014265ffffffffffff1681526020016000801b8152602001600073ffffffffffffffffffffffffffffffffffffffff16815260200188815250610ae0565b60008084815260200190815260200160002081905550817f3e659e9176c25a527f4575e010a270b3e1f8e9d1e94f5e49d4a91dd2c59e8cf860405160405180910390a2505050505050505050565b600080600061054a84610c97565b8093508194508295505050509193909250565b600061056884610764565b905060008061057683610c97565b5091509150600061059b8660006002811061058d57fe5b602002015160000151610cee565b905060006105bd876001600281106105af57fe5b602002015160000151610cee565b905060006105f5858b6000600281106105d257fe5b6020020151888c8c6000600281106105e657fe5b60200201516020015188610d1e565b90506000610630600187018c60016002811061060d57fe5b6020020151898d8d60016002811061062157fe5b60200201516020015188610d1e565b90506106886040518060a001604052808865ffffffffffff1681526020018765ffffffffffff1681526020018481526020018e73ffffffffffffffffffffffffffffffffffffffff1681526020018681525088610db5565b89602001518a60200151516001880165ffffffffffff16816106a657fe5b06815181106106b157fe5b602002602001015173ffffffffffffffffffffffffffffffffffffffff166106d9828a610dcc565b73ffffffffffffffffffffffffffffffffffffffff161461072f576040517f08c379a000000000000000000000000000000000000000000000000000000000815260040161072690612d8a565b60405180910390fd5b6107488a60200151518c8b60018a018e60600151610e99565b5061075687600188016108f7565b505050505050505050505050565b600081600001518260200151836040015160405160200161078793929190612e33565b604051602081830303815290604052805190602001209050919050565b6002808111156107b057fe5b6107b9826109a6565b60028111156107c457fe5b1415610805576040517f08c379a00000000000000000000000000000000000000000000000000000000081526004016107fc90612c0a565b60405180910390fd5b50565b600061081383610c97565b505090508065ffffffffffff168265ffffffffffff1611610869576040517f08c379a000000000000000000000000000000000000000000000000000000000815260040161086090612bea565b60405180910390fd5b505050565b6000606061087f8989898989611166565b9050610892898660200151838787610b75565b6108d1576040517f08c379a00000000000000000000000000000000000000000000000000000000081526004016108c890612c8a565b60405180910390fd5b806001825103815181106108e157fe5b6020026020010151915050979650505050505050565b6109546040518060a001604052808365ffffffffffff168152602001600065ffffffffffff1681526020016000801b8152602001600073ffffffffffffffffffffffffffffffffffffffff1681526020016000801b815250610ae0565b60008084815260200190815260200160002081905550817f07da0a0674fb921e484018c8b81d80e292745e5d8ed134b580c8b9c631c5e9e08260405161099a9190612e71565b60405180910390a25050565b6000806109b283610c97565b5091505060008165ffffffffffff1614156109d15760009150506109f0565b428165ffffffffffff16116109ea5760029150506109f0565b60019150505b919050565b6000610a0083610c97565b505090508065ffffffffffff168265ffffffffffff161015610a57576040517f08c379a0000000000000000000000000000000000000000000000000000000008152600401610a4e90612c2a565b60405180910390fd5b505050565b6000610a8e84604051602001610a729190612b13565b6040516020818303038152906040528051906020012083610dcc565b9050610a9a8184611336565b610ad9576040517f08c379a0000000000000000000000000000000000000000000000000000000008152600401610ad090612c6a565b60405180910390fd5b9392505050565b600080600061010090506030810390508061ffff16846000015165ffffffffffff16901b91506030810390508061ffff16846020015165ffffffffffff16901b8217915083604051602001610b359190612daa565b6040516020818303038152906040528051906020012060001c73ffffffffffffffffffffffffffffffffffffffff16821791508160001b92505050919050565b60008085519050600085519050610b8e848984846113b1565b610bcd576040517f08c379a0000000000000000000000000000000000000000000000000000000008152600401610bc490612d6a565b60405180910390fd5b60008090505b82811015610c86576000610c2388878481518110610bed57fe5b602002602001015160ff1681518110610c0257fe5b6020026020010151888481518110610c1657fe5b6020026020010151610dcc565b9050888281518110610c3157fe5b602002602001015173ffffffffffffffffffffffffffffffffffffffff168173ffffffffffffffffffffffffffffffffffffffff1614610c78576000945050505050610c8e565b508080600101915050610bd3565b506001925050505b95945050505050565b600080600080600080868152602001908152602001600020549050600061010090506030810390508061ffff168260001c901c94506030810390508061ffff168260001c901c93508160001c925050509193909250565b600081604051602001610d019190612ba8565b604051602081830303815290604052805190602001209050919050565b60006040518060a001604052808865ffffffffffff16815260200187151581526020018681526020018560800151866060015186604051602001610d6493929190612e8c565b60405160208183030381529060405280519060200120815260200183815250604051602001610d939190612dc5565b6040516020818303038152906040528051906020012090509695505050505050565b610dbf8282611468565b610dc8816114c7565b5050565b6000806040518060400160405280601c81526020017f19457468657265756d205369676e6564204d6573736167653a0a33320000000081525084604051602001610e17929190612ad0565b604051602081830303815290604052805190602001209050600060018285600001518660200151876040015160405160008152602001604052604051610e609493929190612b41565b6020604051602081039080840390855afa158015610e82573d6000803e3d6000fd5b505050602060405103519050809250505092915050565b600084600160028110610ea857fe5b602002015115610f2a57610ee684600160028110610ec257fe5b60200201516000015185600060028110610ed857fe5b60200201516000015161152b565b610f25576040517f08c379a0000000000000000000000000000000000000000000000000000000008152600401610f1c90612d0a565b60405180910390fd5b611159565b84600060028110610f3757fe5b602002015115610f7c576040517f08c379a0000000000000000000000000000000000000000000000000000000008152600401610f7390612cea565b60405180910390fd5b856002028365ffffffffffff16101561109d57610fc384600160028110610f9f57fe5b60200201516000015185600060028110610fb557fe5b60200201516000015161152b565b611002576040517f08c379a0000000000000000000000000000000000000000000000000000000008152600401610ff990612caa565b60405180910390fd5b8360006002811061100f57fe5b6020020151602001516040516110259190612ab9565b60405180910390208460016002811061103a57fe5b6020020151602001516040516110509190612ab9565b604051809103902014611098576040517f08c379a000000000000000000000000000000000000000000000000000000000815260040161108f90612bca565b60405180910390fd5b611158565b8173ffffffffffffffffffffffffffffffffffffffff1663fd7a2f65856000600281106110c657fe5b6020020151866001600281106110d857fe5b6020020151868a6040518563ffffffff1660e01b81526004016110fe9493929190612de0565b60206040518083038186803b15801561111657600080fd5b505afa15801561112a573d6000803e3d6000fd5b505050506040513d601f19601f8201168201806040525061114e9190810190611b9c565b61115757600080fd5b5b5b6001905095945050505050565b60608085516040519080825280602002602001820160405280156111995781602001602082028038833980820191505090505b509050600060018660ff168903019050600080600090505b88518165ffffffffffff161015611326578060018a518c0301019150611234828465ffffffffffff168465ffffffffffff16101589898d8665ffffffffffff16815181106111fb57fe5b60200260200101516020015161122f8f8865ffffffffffff168151811061121e57fe5b602002602001015160000151610cee565b610d1e565b848265ffffffffffff168151811061124857fe5b6020026020010181815250508965ffffffffffff168265ffffffffffff1610156113195761131786602001515160405180604001604052808665ffffffffffff168665ffffffffffff1610151515151581526020018665ffffffffffff166001870165ffffffffffff1610151515151581525060405180604001604052808d8665ffffffffffff16815181106112da57fe5b602002602001015181526020018d6001870165ffffffffffff16815181106112fe57fe5b6020026020010151815250600186018a60600151610e99565b505b80806001019150506111b1565b5082935050505095945050505050565b600080600090505b82518110156113a55782818151811061135357fe5b602002602001015173ffffffffffffffffffffffffffffffffffffffff168473ffffffffffffffffffffffffffffffffffffffff1614156113985760019150506113ab565b808060010191505061133e565b50600090505b92915050565b6000828551146113f6576040517f08c379a00000000000000000000000000000000000000000000000000000000081526004016113ed90612cca565b60405180910390fd5b60008090505b8381101561145a57600084828765ffffffffffff168701038161141b57fe5b069050600184038188848151811061142f57fe5b602002602001015160ff1601101561144c57600092505050611460565b5080806001019150506113fc565b50600190505b949350505050565b6114848260008084815260200190815260200160002054611546565b6114c3576040517f08c379a00000000000000000000000000000000000000000000000000000000081526004016114ba90612d2a565b60405180910390fd5b5050565b600160028111156114d457fe5b6114dd826109a6565b60028111156114e857fe5b14611528576040517f08c379a000000000000000000000000000000000000000000000000000000000815260040161151f90612c4a565b60405180910390fd5b50565b60008180519060200120838051906020012014905092915050565b60008161155284610ae0565b14905092915050565b60008135905061156a816132ef565b92915050565b600082601f83011261158157600080fd5b813561159461158f82612fc8565b612f9b565b915081818352602084019350602081019050838560208402820111156115b957600080fd5b60005b838110156115e957816115cf888261155b565b8452602084019350602083019250506001810190506115bc565b5050505092915050565b600082601f83011261160457600080fd5b600261161761161282612ff0565b612f9b565b9150818385602084028201111561162d57600080fd5b60005b8381101561165d57816116438882611846565b845260208401935060208301925050600181019050611630565b5050505092915050565b600082601f83011261167857600080fd5b813561168b61168682613012565b612f9b565b915081818352602084019350602081019050838560608402820111156116b057600080fd5b60005b838110156116e057816116c68882611979565b8452602084019350606083019250506001810190506116b3565b5050505092915050565b600082601f8301126116fb57600080fd5b600261170e6117098261303a565b612f9b565b9150818360005b83811015611745578135860161172b8882611a39565b845260208401935060208301925050600181019050611715565b5050505092915050565b600082601f83011261176057600080fd5b813561177361176e8261305c565b612f9b565b9150818183526020840193506020810190508360005b838110156117b9578135860161179f8882611a39565b845260208401935060208301925050600181019050611789565b5050505092915050565b600082601f8301126117d457600080fd5b81356117e76117e282613084565b612f9b565b9150818183526020840193506020810190508385602084028201111561180c57600080fd5b60005b8381101561183c57816118228882611adf565b84526020840193506020830192505060018101905061180f565b5050505092915050565b60008135905061185581613306565b92915050565b60008151905061186a81613306565b92915050565b60008135905061187f8161331d565b92915050565b600082601f83011261189657600080fd5b81356118a96118a4826130ac565b612f9b565b915080825260208301602083018583830111156118c557600080fd5b6118d0838284613292565b50505092915050565b600060a082840312156118eb57600080fd5b6118f560a0612f9b565b9050600061190584828501611ab5565b600083015250602082013567ffffffffffffffff81111561192557600080fd5b61193184828501611570565b602083015250604061194584828501611aca565b60408301525060606119598482850161155b565b606083015250608061196d84828501611aca565b60808301525092915050565b60006060828403121561198b57600080fd5b6119956060612f9b565b905060006119a584828501611adf565b60008301525060206119b984828501611870565b60208301525060406119cd84828501611870565b60408301525092915050565b6000606082840312156119eb57600080fd5b6119f56060612f9b565b90506000611a0584828501611adf565b6000830152506020611a1984828501611870565b6020830152506040611a2d84828501611870565b60408301525092915050565b600060408284031215611a4b57600080fd5b611a556040612f9b565b9050600082013567ffffffffffffffff811115611a7157600080fd5b611a7d84828501611885565b600083015250602082013567ffffffffffffffff811115611a9d57600080fd5b611aa984828501611885565b60208301525092915050565b600081359050611ac481613334565b92915050565b600081359050611ad98161334b565b92915050565b600081359050611aee81613362565b92915050565b60008060008060006101008688031215611b0d57600080fd5b6000611b1b8882890161155b565b9550506020611b2c888289016115f3565b945050606086013567ffffffffffffffff811115611b4957600080fd5b611b55888289016118d9565b935050608086013567ffffffffffffffff811115611b7257600080fd5b611b7e888289016116ea565b92505060a0611b8f888289016119d9565b9150509295509295909350565b600060208284031215611bae57600080fd5b6000611bbc8482850161185b565b91505092915050565b600060208284031215611bd757600080fd5b6000611be584828501611870565b91505092915050565b60008060008060008060c08789031215611c0757600080fd5b600087013567ffffffffffffffff811115611c2157600080fd5b611c2d89828a016118d9565b9650506020611c3e89828a01611aca565b955050604087013567ffffffffffffffff811115611c5b57600080fd5b611c6789828a0161174f565b9450506060611c7889828a01611adf565b935050608087013567ffffffffffffffff811115611c9557600080fd5b611ca189828a01611667565b92505060a087013567ffffffffffffffff811115611cbe57600080fd5b611cca89828a016117c3565b9150509295509295509295565b6000806000806000806000610120888a031215611cf357600080fd5b600088013567ffffffffffffffff811115611d0d57600080fd5b611d198a828b016118d9565b9750506020611d2a8a828b01611aca565b965050604088013567ffffffffffffffff811115611d4757600080fd5b611d538a828b0161174f565b9550506060611d648a828b01611adf565b945050608088013567ffffffffffffffff811115611d8157600080fd5b611d8d8a828b01611667565b93505060a088013567ffffffffffffffff811115611daa57600080fd5b611db68a828b016117c3565b92505060c0611dc78a828b016119d9565b91505092959891949750929550565b600080600080600080600060e0888a031215611df157600080fd5b6000611dff8a828b01611aca565b975050602088013567ffffffffffffffff811115611e1c57600080fd5b611e288a828b016118d9565b9650506040611e398a828b01611870565b9550506060611e4a8a828b01611870565b9450506080611e5b8a828b01611adf565b93505060a088013567ffffffffffffffff811115611e7857600080fd5b611e848a828b016117c3565b92505060c088013567ffffffffffffffff811115611ea157600080fd5b611ead8a828b01611667565b91505092959891949750929550565b6000611ec88383611f18565b60208301905092915050565b6000611ee0838361291e565b60608301905092915050565b6000611ef883836129c8565b905092915050565b6000611f0c8383612a9b565b60208301905092915050565b611f2181613221565b82525050565b611f3081613221565b82525050565b6000611f4182613118565b611f4b818561318e565b9350611f56836130d8565b8060005b83811015611f87578151611f6e8882611ebc565b9750611f798361315a565b925050600181019050611f5a565b5085935050505092915050565b6000611f9f82613118565b611fa9818561319f565b9350611fb4836130d8565b8060005b83811015611fe5578151611fcc8882611ebc565b9750611fd78361315a565b925050600181019050611fb8565b5085935050505092915050565b6000611ffd82613123565b61200781856131b0565b9350612012836130e8565b8060005b8381101561204357815161202a8882611ed4565b975061203583613167565b925050600181019050612016565b5085935050505092915050565b600061205b8261312e565b61206581856131c1565b935083602082028501612077856130f8565b8060005b858110156120b357848403895281516120948582611eec565b945061209f83613174565b925060208a0199505060018101905061207b565b50829750879550505050505092915050565b60006120d082613139565b6120da81856131d2565b93506120e583613108565b8060005b838110156121165781516120fd8882611f00565b975061210883613181565b9250506001810190506120e9565b5085935050505092915050565b61212c81613233565b82525050565b61213b81613233565b82525050565b61214a8161323f565b82525050565b6121598161323f565b82525050565b61217061216b8261323f565b6132d4565b82525050565b60006121818261314f565b61218b81856131f4565b935061219b8185602086016132a1565b6121a4816132de565b840191505092915050565b60006121ba82613144565b6121c481856131e3565b93506121d48185602086016132a1565b6121dd816132de565b840191505092915050565b60006121f382613144565b6121fd81856131f4565b935061220d8185602086016132a1565b612216816132de565b840191505092915050565b600061222c82613144565b6122368185613205565b93506122468185602086016132a1565b80840191505092915050565b600061225f604483613210565b91507f496e76616c69645472616e736974696f6e4572726f723a2043616e6e6f74206360008301527f68616e676520746865206170704461746120647572696e67207365747570207060208301527f68617365000000000000000000000000000000000000000000000000000000006040830152606082019050919050565b60006122eb601c83613210565b91507f7475726e4e756d5265636f7264206e6f7420696e637265617365642e000000006000830152602082019050919050565b600061232b601283613210565b91507f4368616e6e656c2066696e616c697a65642e00000000000000000000000000006000830152602082019050919050565b600061236b601883613210565b91507f7475726e4e756d5265636f7264206465637265617365642e00000000000000006000830152602082019050919050565b60006123ab601583613210565b91507f4e6f206f6e676f696e67206368616c6c656e67652e00000000000000000000006000830152602082019050919050565b60006123eb601f83613210565b91507f4368616c6c656e676572206973206e6f742061207061727469636970616e74006000830152602082019050919050565b600061242b601283613210565b91507f496e76616c6964207369676e61747572657300000000000000000000000000006000830152602082019050919050565b600061246b604c83613210565b91507f496e76616c69645472616e736974696f6e4572726f723a2043616e6e6f74206360008301527f68616e6765207468652064656661756c74206f7574636f6d6520647572696e6760208301527f20736574757020706861736500000000000000000000000000000000000000006040830152606082019050919050565b60006124f7604783613210565b91507f5f76616c69645369676e6174757265733a2077686f5369676e6564576861742060008301527f6d757374206265207468652073616d65206c656e67746820617320706172746960208301527f636970616e7473000000000000000000000000000000000000000000000000006040830152606082019050919050565b6000612583600983613210565b91507f666f7263654d6f766500000000000000000000000000000000000000000000006000830152602082019050919050565b60006125c3604b83613210565b91507f496e76616c69645472616e736974696f6e4572726f723a2043616e6e6f74206d60008301527f6f76652066726f6d20612066696e616c20737461746520746f2061206e6f6e2060208301527f66696e616c2073746174650000000000000000000000000000000000000000006040830152606082019050919050565b600061264f605583613210565b91507f496e76616c69645472616e736974696f6e4572726f723a2043616e6e6f74206d60008301527f6f766520746f20612066696e616c20737461746520776974682061206469666660208301527f6572656e742064656661756c74206f7574636f6d6500000000000000000000006040830152606082019050919050565b60006126db602e83613210565b91507f4368616e6e656c2073746f7261676520646f6573206e6f74206d61746368207360008301527f746f7265642076657273696f6e2e0000000000000000000000000000000000006020830152604082019050919050565b6000612741602b83613210565b91507f496e76616c6964207369676e617475726573204f5220697346696e616c3d747260008301527f75652065787065637465640000000000000000000000000000000000000000006020830152604082019050919050565b60006127a7602083613210565b91507f556e61636365707461626c652077686f5369676e6564576861742061727261796000830152602082019050919050565b60006127e7602783613210565b91507f526573706f6e7365206e6f74207369676e656420627920617574686f72697a6560008301527f64206d6f766572000000000000000000000000000000000000000000000000006020830152604082019050919050565b60a0820160008201516128566000850182612a7d565b5060208201516128696020850182612a7d565b50604082015161287c6040850182612141565b50606082015161288f6060850182611f18565b5060808201516128a26080850182612141565b50505050565b600060a0830160008301516128c06000860182612a5f565b50602083015184820360208601526128d88282611f36565b91505060408301516128ed6040860182612a7d565b5060608301516129006060860182611f18565b5060808301516129136080860182612a7d565b508091505092915050565b6060820160008201516129346000850182612a9b565b5060208201516129476020850182612141565b50604082015161295a6040850182612141565b50505050565b60a0820160008201516129766000850182612a7d565b5060208201516129896020850182612123565b50604082015161299c6040850182612141565b5060608201516129af6060850182612141565b5060808201516129c26080850182612141565b50505050565b600060408301600083015184820360008601526129e582826121af565b915050602083015184820360208601526129ff82826121af565b9150508091505092915050565b60006040830160008301518482036000860152612a2982826121af565b91505060208301518482036020860152612a4382826121af565b9150508091505092915050565b612a5981613249565b82525050565b612a6881613269565b82525050565b612a7781613269565b82525050565b612a8681613273565b82525050565b612a9581613273565b82525050565b612aa481613285565b82525050565b612ab381613285565b82525050565b6000612ac58284612221565b915081905092915050565b6000612adc8285612221565b9150612ae8828461215f565b6020820191508190509392505050565b6000602082019050612b0d6000830184612150565b92915050565b6000604082019050612b286000830184612150565b8181036020830152612b3981612576565b905092915050565b6000608082019050612b566000830187612150565b612b636020830186612aaa565b612b706040830185612150565b612b7d6060830184612150565b95945050505050565b60006020820190508181036000830152612ba081846121e8565b905092915050565b60006020820190508181036000830152612bc28184612176565b905092915050565b60006020820190508181036000830152612be381612252565b9050919050565b60006020820190508181036000830152612c03816122de565b9050919050565b60006020820190508181036000830152612c238161231e565b9050919050565b60006020820190508181036000830152612c438161235e565b9050919050565b60006020820190508181036000830152612c638161239e565b9050919050565b60006020820190508181036000830152612c83816123de565b9050919050565b60006020820190508181036000830152612ca38161241e565b9050919050565b60006020820190508181036000830152612cc38161245e565b9050919050565b60006020820190508181036000830152612ce3816124ea565b9050919050565b60006020820190508181036000830152612d03816125b6565b9050919050565b60006020820190508181036000830152612d2381612642565b9050919050565b60006020820190508181036000830152612d43816126ce565b9050919050565b60006020820190508181036000830152612d6381612734565b9050919050565b60006020820190508181036000830152612d838161279a565b9050919050565b60006020820190508181036000830152612da3816127da565b9050919050565b600060a082019050612dbf6000830184612840565b92915050565b600060a082019050612dda6000830184612960565b92915050565b60006080820190508181036000830152612dfa8187612a0c565b90508181036020830152612e0e8186612a0c565b9050612e1d6040830185612a8c565b612e2a6060830184612a6e565b95945050505050565b6000606082019050612e486000830186612a6e565b8181036020830152612e5a8185611f94565b9050612e696040830184612a8c565b949350505050565b6000602082019050612e866000830184612a8c565b92915050565b6000606082019050612ea16000830186612a8c565b612eae6020830185611f27565b8181036040830152612ec08184612176565b9050949350505050565b600061010082019050612ee0600083018b612a8c565b612eed602083018a612a8c565b612efa6040830189611f27565b612f076060830188612132565b8181036080830152612f1981876128a8565b905081810360a0830152612f2d8186612050565b905081810360c0830152612f418185611ff2565b905081810360e0830152612f5581846120c5565b90509998505050505050505050565b6000606082019050612f796000830186612a8c565b612f866020830185612a8c565b612f936040830184612a50565b949350505050565b6000604051905081810181811067ffffffffffffffff82111715612fbe57600080fd5b8060405250919050565b600067ffffffffffffffff821115612fdf57600080fd5b602082029050602081019050919050565b600067ffffffffffffffff82111561300757600080fd5b602082029050919050565b600067ffffffffffffffff82111561302957600080fd5b602082029050602081019050919050565b600067ffffffffffffffff82111561305157600080fd5b602082029050919050565b600067ffffffffffffffff82111561307357600080fd5b602082029050602081019050919050565b600067ffffffffffffffff82111561309b57600080fd5b602082029050602081019050919050565b600067ffffffffffffffff8211156130c357600080fd5b601f19601f8301169050602081019050919050565b6000819050602082019050919050565b6000819050602082019050919050565b6000819050602082019050919050565b6000819050602082019050919050565b600081519050919050565b600081519050919050565b600081519050919050565b600081519050919050565b600081519050919050565b600081519050919050565b6000602082019050919050565b6000602082019050919050565b6000602082019050919050565b6000602082019050919050565b600082825260208201905092915050565b600082825260208201905092915050565b600082825260208201905092915050565b600082825260208201905092915050565b600082825260208201905092915050565b600082825260208201905092915050565b600082825260208201905092915050565b600081905092915050565b600082825260208201905092915050565b600061322c82613249565b9050919050565b60008115159050919050565b6000819050919050565b600073ffffffffffffffffffffffffffffffffffffffff82169050919050565b6000819050919050565b600065ffffffffffff82169050919050565b600060ff82169050919050565b82818337600083830152505050565b60005b838110156132bf5780820151818401526020810190506132a4565b838111156132ce576000848401525b50505050565b6000819050919050565b6000601f19601f8301169050919050565b6132f881613221565b811461330357600080fd5b50565b61330f81613233565b811461331a57600080fd5b50565b6133268161323f565b811461333157600080fd5b50565b61333d81613269565b811461334857600080fd5b50565b61335481613273565b811461335f57600080fd5b50565b61336b81613285565b811461337657600080fd5b5056fea26469706673582212205c7d822e1aa45d66b38ea6a4b731ea722efc510908855dd2c73c956f2d5df06964736f6c63430006020033",
      "opcodes": "PUSH1 0x80 PUSH1 0x40 MSTORE CALLVALUE DUP1 ISZERO PUSH2 0x10 JUMPI PUSH1 0x0 DUP1 REVERT JUMPDEST POP PUSH2 0x33AF DUP1 PUSH2 0x20 PUSH1 0x0 CODECOPY PUSH1 0x0 RETURN INVALID PUSH1 0x80 PUSH1 0x40 MSTORE CALLVALUE DUP1 ISZERO PUSH2 0x10 JUMPI PUSH1 0x0 DUP1 REVERT JUMPDEST POP PUSH1 0x4 CALLDATASIZE LT PUSH2 0x62 JUMPI PUSH1 0x0 CALLDATALOAD PUSH1 0xE0 SHR DUP1 PUSH4 0x149B762 EQ PUSH2 0x67 JUMPI DUP1 PUSH4 0x6F65E87D EQ PUSH2 0x83 JUMPI DUP1 PUSH4 0x78B9E5CB EQ PUSH2 0xB3 JUMPI DUP1 PUSH4 0x7FF6A982 EQ PUSH2 0xCF JUMPI DUP1 PUSH4 0xFE9E5DB9 EQ PUSH2 0xEB JUMPI DUP1 PUSH4 0xFF8CEB32 EQ PUSH2 0x11D JUMPI JUMPDEST PUSH1 0x0 DUP1 REVERT JUMPDEST PUSH2 0x81 PUSH1 0x4 DUP1 CALLDATASIZE SUB PUSH2 0x7C SWAP2 SWAP1 DUP2 ADD SWAP1 PUSH2 0x1BEE JUMP JUMPDEST PUSH2 0x139 JUMP JUMPDEST STOP JUMPDEST PUSH2 0x9D PUSH1 0x4 DUP1 CALLDATASIZE SUB PUSH2 0x98 SWAP2 SWAP1 DUP2 ADD SWAP1 PUSH2 0x1BC5 JUMP JUMPDEST PUSH2 0x17C JUMP JUMPDEST PUSH1 0x40 MLOAD PUSH2 0xAA SWAP2 SWAP1 PUSH2 0x2AF8 JUMP JUMPDEST PUSH1 0x40 MLOAD DUP1 SWAP2 SUB SWAP1 RETURN JUMPDEST PUSH2 0xCD PUSH1 0x4 DUP1 CALLDATASIZE SUB PUSH2 0xC8 SWAP2 SWAP1 DUP2 ADD SWAP1 PUSH2 0x1CD7 JUMP JUMPDEST PUSH2 0x194 JUMP JUMPDEST STOP JUMPDEST PUSH2 0xE9 PUSH1 0x4 DUP1 CALLDATASIZE SUB PUSH2 0xE4 SWAP2 SWAP1 DUP2 ADD SWAP1 PUSH2 0x1DD6 JUMP JUMPDEST PUSH2 0x34E JUMP JUMPDEST STOP JUMPDEST PUSH2 0x105 PUSH1 0x4 DUP1 CALLDATASIZE SUB PUSH2 0x100 SWAP2 SWAP1 DUP2 ADD SWAP1 PUSH2 0x1BC5 JUMP JUMPDEST PUSH2 0x53C JUMP JUMPDEST PUSH1 0x40 MLOAD PUSH2 0x114 SWAP4 SWAP3 SWAP2 SWAP1 PUSH2 0x2F64 JUMP JUMPDEST PUSH1 0x40 MLOAD DUP1 SWAP2 SUB SWAP1 RETURN JUMPDEST PUSH2 0x137 PUSH1 0x4 DUP1 CALLDATASIZE SUB PUSH2 0x132 SWAP2 SWAP1 DUP2 ADD SWAP1 PUSH2 0x1AF4 JUMP JUMPDEST PUSH2 0x55D JUMP JUMPDEST STOP JUMPDEST PUSH1 0x0 PUSH2 0x144 DUP8 PUSH2 0x764 JUMP JUMPDEST SWAP1 POP PUSH2 0x14F DUP2 PUSH2 0x7A4 JUMP JUMPDEST PUSH2 0x159 DUP2 DUP8 PUSH2 0x808 JUMP JUMPDEST PUSH2 0x168 DUP7 DUP7 DUP7 DUP5 DUP12 DUP9 DUP9 PUSH2 0x86E JUMP JUMPDEST POP PUSH2 0x173 DUP2 DUP8 PUSH2 0x8F7 JUMP JUMPDEST POP POP POP POP POP POP POP JUMP JUMPDEST PUSH1 0x0 PUSH1 0x20 MSTORE DUP1 PUSH1 0x0 MSTORE PUSH1 0x40 PUSH1 0x0 KECCAK256 PUSH1 0x0 SWAP2 POP SWAP1 POP SLOAD DUP2 JUMP JUMPDEST PUSH1 0x0 PUSH2 0x19F DUP9 PUSH2 0x764 JUMP JUMPDEST SWAP1 POP PUSH1 0x0 PUSH1 0x2 DUP2 GT ISZERO PUSH2 0x1AE JUMPI INVALID JUMPDEST PUSH2 0x1B7 DUP3 PUSH2 0x9A6 JUMP JUMPDEST PUSH1 0x2 DUP2 GT ISZERO PUSH2 0x1C2 JUMPI INVALID JUMPDEST EQ ISZERO PUSH2 0x1D7 JUMPI PUSH2 0x1D2 DUP2 DUP9 PUSH2 0x9F5 JUMP JUMPDEST PUSH2 0x218 JUMP JUMPDEST PUSH1 0x1 PUSH1 0x2 DUP2 GT ISZERO PUSH2 0x1E4 JUMPI INVALID JUMPDEST PUSH2 0x1ED DUP3 PUSH2 0x9A6 JUMP JUMPDEST PUSH1 0x2 DUP2 GT ISZERO PUSH2 0x1F8 JUMPI INVALID JUMPDEST EQ ISZERO PUSH2 0x20D JUMPI PUSH2 0x208 DUP2 DUP9 PUSH2 0x808 JUMP JUMPDEST PUSH2 0x217 JUMP JUMPDEST PUSH2 0x216 DUP2 PUSH2 0x7A4 JUMP JUMPDEST JUMPDEST JUMPDEST PUSH1 0x0 PUSH2 0x229 DUP9 DUP9 DUP9 DUP6 DUP14 DUP11 DUP11 PUSH2 0x86E JUMP JUMPDEST SWAP1 POP PUSH1 0x0 PUSH2 0x23C DUP3 DUP12 PUSH1 0x20 ADD MLOAD DUP7 PUSH2 0xA5C JUMP JUMPDEST SWAP1 POP DUP3 PUSH32 0x1F9F029DE8AB3F81B5381A9BC066B421D0F215DB28CC8160EC346BC6F0463C6E DUP11 DUP13 PUSH1 0x80 ADD MLOAD TIMESTAMP ADD DUP5 PUSH1 0x0 DUP13 PUSH1 0xFF AND GT DUP16 DUP15 DUP14 DUP14 PUSH1 0x40 MLOAD PUSH2 0x288 SWAP9 SWAP8 SWAP7 SWAP6 SWAP5 SWAP4 SWAP3 SWAP2 SWAP1 PUSH2 0x2ECA JUMP JUMPDEST PUSH1 0x40 MLOAD DUP1 SWAP2 SUB SWAP1 LOG2 PUSH2 0x32C PUSH1 0x40 MLOAD DUP1 PUSH1 0xA0 ADD PUSH1 0x40 MSTORE DUP1 DUP12 PUSH6 0xFFFFFFFFFFFF AND DUP2 MSTORE PUSH1 0x20 ADD DUP13 PUSH1 0x80 ADD MLOAD TIMESTAMP ADD PUSH6 0xFFFFFFFFFFFF AND DUP2 MSTORE PUSH1 0x20 ADD DUP5 DUP2 MSTORE PUSH1 0x20 ADD DUP4 PUSH20 0xFFFFFFFFFFFFFFFFFFFFFFFFFFFFFFFFFFFFFFFF AND DUP2 MSTORE PUSH1 0x20 ADD DUP11 PUSH1 0x1 DUP13 MLOAD SUB DUP2 MLOAD DUP2 LT PUSH2 0x2F2 JUMPI INVALID JUMPDEST PUSH1 0x20 MUL PUSH1 0x20 ADD ADD MLOAD PUSH1 0x0 ADD MLOAD PUSH1 0x40 MLOAD PUSH1 0x20 ADD PUSH2 0x30E SWAP2 SWAP1 PUSH2 0x2B86 JUMP JUMPDEST PUSH1 0x40 MLOAD PUSH1 0x20 DUP2 DUP4 SUB SUB DUP2 MSTORE SWAP1 PUSH1 0x40 MSTORE DUP1 MLOAD SWAP1 PUSH1 0x20 ADD KECCAK256 DUP2 MSTORE POP PUSH2 0xAE0 JUMP JUMPDEST PUSH1 0x0 DUP1 DUP6 DUP2 MSTORE PUSH1 0x20 ADD SWAP1 DUP2 MSTORE PUSH1 0x20 ADD PUSH1 0x0 KECCAK256 DUP2 SWAP1 SSTORE POP POP POP POP POP POP POP POP POP POP POP JUMP JUMPDEST PUSH1 0x0 PUSH2 0x359 DUP8 PUSH2 0x764 JUMP JUMPDEST SWAP1 POP PUSH2 0x364 DUP2 PUSH2 0x7A4 JUMP JUMPDEST PUSH1 0x60 DUP5 PUSH1 0xFF AND PUSH1 0x40 MLOAD SWAP1 DUP1 DUP3 MSTORE DUP1 PUSH1 0x20 MUL PUSH1 0x20 ADD DUP3 ADD PUSH1 0x40 MSTORE DUP1 ISZERO PUSH2 0x398 JUMPI DUP2 PUSH1 0x20 ADD PUSH1 0x20 DUP3 MUL DUP1 CODESIZE DUP4 CODECOPY DUP1 DUP3 ADD SWAP2 POP POP SWAP1 POP JUMPDEST POP SWAP1 POP PUSH1 0x0 DUP1 SWAP1 POP JUMPDEST DUP6 PUSH1 0xFF AND DUP2 PUSH6 0xFFFFFFFFFFFF AND LT ISZERO PUSH2 0x443 JUMPI PUSH1 0x40 MLOAD DUP1 PUSH1 0xA0 ADD PUSH1 0x40 MSTORE DUP1 DUP8 PUSH1 0xFF AND PUSH1 0x1 DUP5 ADD DUP14 ADD SUB PUSH6 0xFFFFFFFFFFFF AND DUP2 MSTORE PUSH1 0x20 ADD PUSH1 0x1 ISZERO ISZERO DUP2 MSTORE PUSH1 0x20 ADD DUP5 DUP2 MSTORE PUSH1 0x20 ADD DUP10 DUP2 MSTORE PUSH1 0x20 ADD DUP9 DUP2 MSTORE POP PUSH1 0x40 MLOAD PUSH1 0x20 ADD PUSH2 0x400 SWAP2 SWAP1 PUSH2 0x2DC5 JUMP JUMPDEST PUSH1 0x40 MLOAD PUSH1 0x20 DUP2 DUP4 SUB SUB DUP2 MSTORE SWAP1 PUSH1 0x40 MSTORE DUP1 MLOAD SWAP1 PUSH1 0x20 ADD KECCAK256 DUP3 DUP3 PUSH6 0xFFFFFFFFFFFF AND DUP2 MLOAD DUP2 LT PUSH2 0x42A JUMPI INVALID JUMPDEST PUSH1 0x20 MUL PUSH1 0x20 ADD ADD DUP2 DUP2 MSTORE POP POP DUP1 DUP1 PUSH1 0x1 ADD SWAP2 POP POP PUSH2 0x3A1 JUMP JUMPDEST POP PUSH2 0x455 DUP10 DUP10 PUSH1 0x20 ADD MLOAD DUP4 DUP7 DUP9 PUSH2 0xB75 JUMP JUMPDEST PUSH2 0x494 JUMPI PUSH1 0x40 MLOAD PUSH32 0x8C379A000000000000000000000000000000000000000000000000000000000 DUP2 MSTORE PUSH1 0x4 ADD PUSH2 0x48B SWAP1 PUSH2 0x2D4A JUMP JUMPDEST PUSH1 0x40 MLOAD DUP1 SWAP2 SUB SWAP1 REVERT JUMPDEST PUSH2 0x4EE PUSH1 0x40 MLOAD DUP1 PUSH1 0xA0 ADD PUSH1 0x40 MSTORE DUP1 PUSH1 0x0 PUSH6 0xFFFFFFFFFFFF AND DUP2 MSTORE PUSH1 0x20 ADD TIMESTAMP PUSH6 0xFFFFFFFFFFFF AND DUP2 MSTORE PUSH1 0x20 ADD PUSH1 0x0 DUP1 SHL DUP2 MSTORE PUSH1 0x20 ADD PUSH1 0x0 PUSH20 0xFFFFFFFFFFFFFFFFFFFFFFFFFFFFFFFFFFFFFFFF AND DUP2 MSTORE PUSH1 0x20 ADD DUP9 DUP2 MSTORE POP PUSH2 0xAE0 JUMP JUMPDEST PUSH1 0x0 DUP1 DUP5 DUP2 MSTORE PUSH1 0x20 ADD SWAP1 DUP2 MSTORE PUSH1 0x20 ADD PUSH1 0x0 KECCAK256 DUP2 SWAP1 SSTORE POP DUP2 PUSH32 0x3E659E9176C25A527F4575E010A270B3E1F8E9D1E94F5E49D4A91DD2C59E8CF8 PUSH1 0x40 MLOAD PUSH1 0x40 MLOAD DUP1 SWAP2 SUB SWAP1 LOG2 POP POP POP POP POP POP POP POP POP JUMP JUMPDEST PUSH1 0x0 DUP1 PUSH1 0x0 PUSH2 0x54A DUP5 PUSH2 0xC97 JUMP JUMPDEST DUP1 SWAP4 POP DUP2 SWAP5 POP DUP3 SWAP6 POP POP POP POP SWAP2 SWAP4 SWAP1 SWAP3 POP JUMP JUMPDEST PUSH1 0x0 PUSH2 0x568 DUP5 PUSH2 0x764 JUMP JUMPDEST SWAP1 POP PUSH1 0x0 DUP1 PUSH2 0x576 DUP4 PUSH2 0xC97 JUMP JUMPDEST POP SWAP2 POP SWAP2 POP PUSH1 0x0 PUSH2 0x59B DUP7 PUSH1 0x0 PUSH1 0x2 DUP2 LT PUSH2 0x58D JUMPI INVALID JUMPDEST PUSH1 0x20 MUL ADD MLOAD PUSH1 0x0 ADD MLOAD PUSH2 0xCEE JUMP JUMPDEST SWAP1 POP PUSH1 0x0 PUSH2 0x5BD DUP8 PUSH1 0x1 PUSH1 0x2 DUP2 LT PUSH2 0x5AF JUMPI INVALID JUMPDEST PUSH1 0x20 MUL ADD MLOAD PUSH1 0x0 ADD MLOAD PUSH2 0xCEE JUMP JUMPDEST SWAP1 POP PUSH1 0x0 PUSH2 0x5F5 DUP6 DUP12 PUSH1 0x0 PUSH1 0x2 DUP2 LT PUSH2 0x5D2 JUMPI INVALID JUMPDEST PUSH1 0x20 MUL ADD MLOAD DUP9 DUP13 DUP13 PUSH1 0x0 PUSH1 0x2 DUP2 LT PUSH2 0x5E6 JUMPI INVALID JUMPDEST PUSH1 0x20 MUL ADD MLOAD PUSH1 0x20 ADD MLOAD DUP9 PUSH2 0xD1E JUMP JUMPDEST SWAP1 POP PUSH1 0x0 PUSH2 0x630 PUSH1 0x1 DUP8 ADD DUP13 PUSH1 0x1 PUSH1 0x2 DUP2 LT PUSH2 0x60D JUMPI INVALID JUMPDEST PUSH1 0x20 MUL ADD MLOAD DUP10 DUP14 DUP14 PUSH1 0x1 PUSH1 0x2 DUP2 LT PUSH2 0x621 JUMPI INVALID JUMPDEST PUSH1 0x20 MUL ADD MLOAD PUSH1 0x20 ADD MLOAD DUP9 PUSH2 0xD1E JUMP JUMPDEST SWAP1 POP PUSH2 0x688 PUSH1 0x40 MLOAD DUP1 PUSH1 0xA0 ADD PUSH1 0x40 MSTORE DUP1 DUP9 PUSH6 0xFFFFFFFFFFFF AND DUP2 MSTORE PUSH1 0x20 ADD DUP8 PUSH6 0xFFFFFFFFFFFF AND DUP2 MSTORE PUSH1 0x20 ADD DUP5 DUP2 MSTORE PUSH1 0x20 ADD DUP15 PUSH20 0xFFFFFFFFFFFFFFFFFFFFFFFFFFFFFFFFFFFFFFFF AND DUP2 MSTORE PUSH1 0x20 ADD DUP7 DUP2 MSTORE POP DUP9 PUSH2 0xDB5 JUMP JUMPDEST DUP10 PUSH1 0x20 ADD MLOAD DUP11 PUSH1 0x20 ADD MLOAD MLOAD PUSH1 0x1 DUP9 ADD PUSH6 0xFFFFFFFFFFFF AND DUP2 PUSH2 0x6A6 JUMPI INVALID JUMPDEST MOD DUP2 MLOAD DUP2 LT PUSH2 0x6B1 JUMPI INVALID JUMPDEST PUSH1 0x20 MUL PUSH1 0x20 ADD ADD MLOAD PUSH20 0xFFFFFFFFFFFFFFFFFFFFFFFFFFFFFFFFFFFFFFFF AND PUSH2 0x6D9 DUP3 DUP11 PUSH2 0xDCC JUMP JUMPDEST PUSH20 0xFFFFFFFFFFFFFFFFFFFFFFFFFFFFFFFFFFFFFFFF AND EQ PUSH2 0x72F JUMPI PUSH1 0x40 MLOAD PUSH32 0x8C379A000000000000000000000000000000000000000000000000000000000 DUP2 MSTORE PUSH1 0x4 ADD PUSH2 0x726 SWAP1 PUSH2 0x2D8A JUMP JUMPDEST PUSH1 0x40 MLOAD DUP1 SWAP2 SUB SWAP1 REVERT JUMPDEST PUSH2 0x748 DUP11 PUSH1 0x20 ADD MLOAD MLOAD DUP13 DUP12 PUSH1 0x1 DUP11 ADD DUP15 PUSH1 0x60 ADD MLOAD PUSH2 0xE99 JUMP JUMPDEST POP PUSH2 0x756 DUP8 PUSH1 0x1 DUP9 ADD PUSH2 0x8F7 JUMP JUMPDEST POP POP POP POP POP POP POP POP POP POP POP POP JUMP JUMPDEST PUSH1 0x0 DUP2 PUSH1 0x0 ADD MLOAD DUP3 PUSH1 0x20 ADD MLOAD DUP4 PUSH1 0x40 ADD MLOAD PUSH1 0x40 MLOAD PUSH1 0x20 ADD PUSH2 0x787 SWAP4 SWAP3 SWAP2 SWAP1 PUSH2 0x2E33 JUMP JUMPDEST PUSH1 0x40 MLOAD PUSH1 0x20 DUP2 DUP4 SUB SUB DUP2 MSTORE SWAP1 PUSH1 0x40 MSTORE DUP1 MLOAD SWAP1 PUSH1 0x20 ADD KECCAK256 SWAP1 POP SWAP2 SWAP1 POP JUMP JUMPDEST PUSH1 0x2 DUP1 DUP2 GT ISZERO PUSH2 0x7B0 JUMPI INVALID JUMPDEST PUSH2 0x7B9 DUP3 PUSH2 0x9A6 JUMP JUMPDEST PUSH1 0x2 DUP2 GT ISZERO PUSH2 0x7C4 JUMPI INVALID JUMPDEST EQ ISZERO PUSH2 0x805 JUMPI PUSH1 0x40 MLOAD PUSH32 0x8C379A000000000000000000000000000000000000000000000000000000000 DUP2 MSTORE PUSH1 0x4 ADD PUSH2 0x7FC SWAP1 PUSH2 0x2C0A JUMP JUMPDEST PUSH1 0x40 MLOAD DUP1 SWAP2 SUB SWAP1 REVERT JUMPDEST POP JUMP JUMPDEST PUSH1 0x0 PUSH2 0x813 DUP4 PUSH2 0xC97 JUMP JUMPDEST POP POP SWAP1 POP DUP1 PUSH6 0xFFFFFFFFFFFF AND DUP3 PUSH6 0xFFFFFFFFFFFF AND GT PUSH2 0x869 JUMPI PUSH1 0x40 MLOAD PUSH32 0x8C379A000000000000000000000000000000000000000000000000000000000 DUP2 MSTORE PUSH1 0x4 ADD PUSH2 0x860 SWAP1 PUSH2 0x2BEA JUMP JUMPDEST PUSH1 0x40 MLOAD DUP1 SWAP2 SUB SWAP1 REVERT JUMPDEST POP POP POP JUMP JUMPDEST PUSH1 0x0 PUSH1 0x60 PUSH2 0x87F DUP10 DUP10 DUP10 DUP10 DUP10 PUSH2 0x1166 JUMP JUMPDEST SWAP1 POP PUSH2 0x892 DUP10 DUP7 PUSH1 0x20 ADD MLOAD DUP4 DUP8 DUP8 PUSH2 0xB75 JUMP JUMPDEST PUSH2 0x8D1 JUMPI PUSH1 0x40 MLOAD PUSH32 0x8C379A000000000000000000000000000000000000000000000000000000000 DUP2 MSTORE PUSH1 0x4 ADD PUSH2 0x8C8 SWAP1 PUSH2 0x2C8A JUMP JUMPDEST PUSH1 0x40 MLOAD DUP1 SWAP2 SUB SWAP1 REVERT JUMPDEST DUP1 PUSH1 0x1 DUP3 MLOAD SUB DUP2 MLOAD DUP2 LT PUSH2 0x8E1 JUMPI INVALID JUMPDEST PUSH1 0x20 MUL PUSH1 0x20 ADD ADD MLOAD SWAP2 POP POP SWAP8 SWAP7 POP POP POP POP POP POP POP JUMP JUMPDEST PUSH2 0x954 PUSH1 0x40 MLOAD DUP1 PUSH1 0xA0 ADD PUSH1 0x40 MSTORE DUP1 DUP4 PUSH6 0xFFFFFFFFFFFF AND DUP2 MSTORE PUSH1 0x20 ADD PUSH1 0x0 PUSH6 0xFFFFFFFFFFFF AND DUP2 MSTORE PUSH1 0x20 ADD PUSH1 0x0 DUP1 SHL DUP2 MSTORE PUSH1 0x20 ADD PUSH1 0x0 PUSH20 0xFFFFFFFFFFFFFFFFFFFFFFFFFFFFFFFFFFFFFFFF AND DUP2 MSTORE PUSH1 0x20 ADD PUSH1 0x0 DUP1 SHL DUP2 MSTORE POP PUSH2 0xAE0 JUMP JUMPDEST PUSH1 0x0 DUP1 DUP5 DUP2 MSTORE PUSH1 0x20 ADD SWAP1 DUP2 MSTORE PUSH1 0x20 ADD PUSH1 0x0 KECCAK256 DUP2 SWAP1 SSTORE POP DUP2 PUSH32 0x7DA0A0674FB921E484018C8B81D80E292745E5D8ED134B580C8B9C631C5E9E0 DUP3 PUSH1 0x40 MLOAD PUSH2 0x99A SWAP2 SWAP1 PUSH2 0x2E71 JUMP JUMPDEST PUSH1 0x40 MLOAD DUP1 SWAP2 SUB SWAP1 LOG2 POP POP JUMP JUMPDEST PUSH1 0x0 DUP1 PUSH2 0x9B2 DUP4 PUSH2 0xC97 JUMP JUMPDEST POP SWAP2 POP POP PUSH1 0x0 DUP2 PUSH6 0xFFFFFFFFFFFF AND EQ ISZERO PUSH2 0x9D1 JUMPI PUSH1 0x0 SWAP2 POP POP PUSH2 0x9F0 JUMP JUMPDEST TIMESTAMP DUP2 PUSH6 0xFFFFFFFFFFFF AND GT PUSH2 0x9EA JUMPI PUSH1 0x2 SWAP2 POP POP PUSH2 0x9F0 JUMP JUMPDEST PUSH1 0x1 SWAP2 POP POP JUMPDEST SWAP2 SWAP1 POP JUMP JUMPDEST PUSH1 0x0 PUSH2 0xA00 DUP4 PUSH2 0xC97 JUMP JUMPDEST POP POP SWAP1 POP DUP1 PUSH6 0xFFFFFFFFFFFF AND DUP3 PUSH6 0xFFFFFFFFFFFF AND LT ISZERO PUSH2 0xA57 JUMPI PUSH1 0x40 MLOAD PUSH32 0x8C379A000000000000000000000000000000000000000000000000000000000 DUP2 MSTORE PUSH1 0x4 ADD PUSH2 0xA4E SWAP1 PUSH2 0x2C2A JUMP JUMPDEST PUSH1 0x40 MLOAD DUP1 SWAP2 SUB SWAP1 REVERT JUMPDEST POP POP POP JUMP JUMPDEST PUSH1 0x0 PUSH2 0xA8E DUP5 PUSH1 0x40 MLOAD PUSH1 0x20 ADD PUSH2 0xA72 SWAP2 SWAP1 PUSH2 0x2B13 JUMP JUMPDEST PUSH1 0x40 MLOAD PUSH1 0x20 DUP2 DUP4 SUB SUB DUP2 MSTORE SWAP1 PUSH1 0x40 MSTORE DUP1 MLOAD SWAP1 PUSH1 0x20 ADD KECCAK256 DUP4 PUSH2 0xDCC JUMP JUMPDEST SWAP1 POP PUSH2 0xA9A DUP2 DUP5 PUSH2 0x1336 JUMP JUMPDEST PUSH2 0xAD9 JUMPI PUSH1 0x40 MLOAD PUSH32 0x8C379A000000000000000000000000000000000000000000000000000000000 DUP2 MSTORE PUSH1 0x4 ADD PUSH2 0xAD0 SWAP1 PUSH2 0x2C6A JUMP JUMPDEST PUSH1 0x40 MLOAD DUP1 SWAP2 SUB SWAP1 REVERT JUMPDEST SWAP4 SWAP3 POP POP POP JUMP JUMPDEST PUSH1 0x0 DUP1 PUSH1 0x0 PUSH2 0x100 SWAP1 POP PUSH1 0x30 DUP2 SUB SWAP1 POP DUP1 PUSH2 0xFFFF AND DUP5 PUSH1 0x0 ADD MLOAD PUSH6 0xFFFFFFFFFFFF AND SWAP1 SHL SWAP2 POP PUSH1 0x30 DUP2 SUB SWAP1 POP DUP1 PUSH2 0xFFFF AND DUP5 PUSH1 0x20 ADD MLOAD PUSH6 0xFFFFFFFFFFFF AND SWAP1 SHL DUP3 OR SWAP2 POP DUP4 PUSH1 0x40 MLOAD PUSH1 0x20 ADD PUSH2 0xB35 SWAP2 SWAP1 PUSH2 0x2DAA JUMP JUMPDEST PUSH1 0x40 MLOAD PUSH1 0x20 DUP2 DUP4 SUB SUB DUP2 MSTORE SWAP1 PUSH1 0x40 MSTORE DUP1 MLOAD SWAP1 PUSH1 0x20 ADD KECCAK256 PUSH1 0x0 SHR PUSH20 0xFFFFFFFFFFFFFFFFFFFFFFFFFFFFFFFFFFFFFFFF AND DUP3 OR SWAP2 POP DUP2 PUSH1 0x0 SHL SWAP3 POP POP POP SWAP2 SWAP1 POP JUMP JUMPDEST PUSH1 0x0 DUP1 DUP6 MLOAD SWAP1 POP PUSH1 0x0 DUP6 MLOAD SWAP1 POP PUSH2 0xB8E DUP5 DUP10 DUP5 DUP5 PUSH2 0x13B1 JUMP JUMPDEST PUSH2 0xBCD JUMPI PUSH1 0x40 MLOAD PUSH32 0x8C379A000000000000000000000000000000000000000000000000000000000 DUP2 MSTORE PUSH1 0x4 ADD PUSH2 0xBC4 SWAP1 PUSH2 0x2D6A JUMP JUMPDEST PUSH1 0x40 MLOAD DUP1 SWAP2 SUB SWAP1 REVERT JUMPDEST PUSH1 0x0 DUP1 SWAP1 POP JUMPDEST DUP3 DUP2 LT ISZERO PUSH2 0xC86 JUMPI PUSH1 0x0 PUSH2 0xC23 DUP9 DUP8 DUP5 DUP2 MLOAD DUP2 LT PUSH2 0xBED JUMPI INVALID JUMPDEST PUSH1 0x20 MUL PUSH1 0x20 ADD ADD MLOAD PUSH1 0xFF AND DUP2 MLOAD DUP2 LT PUSH2 0xC02 JUMPI INVALID JUMPDEST PUSH1 0x20 MUL PUSH1 0x20 ADD ADD MLOAD DUP9 DUP5 DUP2 MLOAD DUP2 LT PUSH2 0xC16 JUMPI INVALID JUMPDEST PUSH1 0x20 MUL PUSH1 0x20 ADD ADD MLOAD PUSH2 0xDCC JUMP JUMPDEST SWAP1 POP DUP9 DUP3 DUP2 MLOAD DUP2 LT PUSH2 0xC31 JUMPI INVALID JUMPDEST PUSH1 0x20 MUL PUSH1 0x20 ADD ADD MLOAD PUSH20 0xFFFFFFFFFFFFFFFFFFFFFFFFFFFFFFFFFFFFFFFF AND DUP2 PUSH20 0xFFFFFFFFFFFFFFFFFFFFFFFFFFFFFFFFFFFFFFFF AND EQ PUSH2 0xC78 JUMPI PUSH1 0x0 SWAP5 POP POP POP POP POP PUSH2 0xC8E JUMP JUMPDEST POP DUP1 DUP1 PUSH1 0x1 ADD SWAP2 POP POP PUSH2 0xBD3 JUMP JUMPDEST POP PUSH1 0x1 SWAP3 POP POP POP JUMPDEST SWAP6 SWAP5 POP POP POP POP POP JUMP JUMPDEST PUSH1 0x0 DUP1 PUSH1 0x0 DUP1 PUSH1 0x0 DUP1 DUP7 DUP2 MSTORE PUSH1 0x20 ADD SWAP1 DUP2 MSTORE PUSH1 0x20 ADD PUSH1 0x0 KECCAK256 SLOAD SWAP1 POP PUSH1 0x0 PUSH2 0x100 SWAP1 POP PUSH1 0x30 DUP2 SUB SWAP1 POP DUP1 PUSH2 0xFFFF AND DUP3 PUSH1 0x0 SHR SWAP1 SHR SWAP5 POP PUSH1 0x30 DUP2 SUB SWAP1 POP DUP1 PUSH2 0xFFFF AND DUP3 PUSH1 0x0 SHR SWAP1 SHR SWAP4 POP DUP2 PUSH1 0x0 SHR SWAP3 POP POP POP SWAP2 SWAP4 SWAP1 SWAP3 POP JUMP JUMPDEST PUSH1 0x0 DUP2 PUSH1 0x40 MLOAD PUSH1 0x20 ADD PUSH2 0xD01 SWAP2 SWAP1 PUSH2 0x2BA8 JUMP JUMPDEST PUSH1 0x40 MLOAD PUSH1 0x20 DUP2 DUP4 SUB SUB DUP2 MSTORE SWAP1 PUSH1 0x40 MSTORE DUP1 MLOAD SWAP1 PUSH1 0x20 ADD KECCAK256 SWAP1 POP SWAP2 SWAP1 POP JUMP JUMPDEST PUSH1 0x0 PUSH1 0x40 MLOAD DUP1 PUSH1 0xA0 ADD PUSH1 0x40 MSTORE DUP1 DUP9 PUSH6 0xFFFFFFFFFFFF AND DUP2 MSTORE PUSH1 0x20 ADD DUP8 ISZERO ISZERO DUP2 MSTORE PUSH1 0x20 ADD DUP7 DUP2 MSTORE PUSH1 0x20 ADD DUP6 PUSH1 0x80 ADD MLOAD DUP7 PUSH1 0x60 ADD MLOAD DUP7 PUSH1 0x40 MLOAD PUSH1 0x20 ADD PUSH2 0xD64 SWAP4 SWAP3 SWAP2 SWAP1 PUSH2 0x2E8C JUMP JUMPDEST PUSH1 0x40 MLOAD PUSH1 0x20 DUP2 DUP4 SUB SUB DUP2 MSTORE SWAP1 PUSH1 0x40 MSTORE DUP1 MLOAD SWAP1 PUSH1 0x20 ADD KECCAK256 DUP2 MSTORE PUSH1 0x20 ADD DUP4 DUP2 MSTORE POP PUSH1 0x40 MLOAD PUSH1 0x20 ADD PUSH2 0xD93 SWAP2 SWAP1 PUSH2 0x2DC5 JUMP JUMPDEST PUSH1 0x40 MLOAD PUSH1 0x20 DUP2 DUP4 SUB SUB DUP2 MSTORE SWAP1 PUSH1 0x40 MSTORE DUP1 MLOAD SWAP1 PUSH1 0x20 ADD KECCAK256 SWAP1 POP SWAP7 SWAP6 POP POP POP POP POP POP JUMP JUMPDEST PUSH2 0xDBF DUP3 DUP3 PUSH2 0x1468 JUMP JUMPDEST PUSH2 0xDC8 DUP2 PUSH2 0x14C7 JUMP JUMPDEST POP POP JUMP JUMPDEST PUSH1 0x0 DUP1 PUSH1 0x40 MLOAD DUP1 PUSH1 0x40 ADD PUSH1 0x40 MSTORE DUP1 PUSH1 0x1C DUP2 MSTORE PUSH1 0x20 ADD PUSH32 0x19457468657265756D205369676E6564204D6573736167653A0A333200000000 DUP2 MSTORE POP DUP5 PUSH1 0x40 MLOAD PUSH1 0x20 ADD PUSH2 0xE17 SWAP3 SWAP2 SWAP1 PUSH2 0x2AD0 JUMP JUMPDEST PUSH1 0x40 MLOAD PUSH1 0x20 DUP2 DUP4 SUB SUB DUP2 MSTORE SWAP1 PUSH1 0x40 MSTORE DUP1 MLOAD SWAP1 PUSH1 0x20 ADD KECCAK256 SWAP1 POP PUSH1 0x0 PUSH1 0x1 DUP3 DUP6 PUSH1 0x0 ADD MLOAD DUP7 PUSH1 0x20 ADD MLOAD DUP8 PUSH1 0x40 ADD MLOAD PUSH1 0x40 MLOAD PUSH1 0x0 DUP2 MSTORE PUSH1 0x20 ADD PUSH1 0x40 MSTORE PUSH1 0x40 MLOAD PUSH2 0xE60 SWAP5 SWAP4 SWAP3 SWAP2 SWAP1 PUSH2 0x2B41 JUMP JUMPDEST PUSH1 0x20 PUSH1 0x40 MLOAD PUSH1 0x20 DUP2 SUB SWAP1 DUP1 DUP5 SUB SWAP1 DUP6 GAS STATICCALL ISZERO DUP1 ISZERO PUSH2 0xE82 JUMPI RETURNDATASIZE PUSH1 0x0 DUP1 RETURNDATACOPY RETURNDATASIZE PUSH1 0x0 REVERT JUMPDEST POP POP POP PUSH1 0x20 PUSH1 0x40 MLOAD SUB MLOAD SWAP1 POP DUP1 SWAP3 POP POP POP SWAP3 SWAP2 POP POP JUMP JUMPDEST PUSH1 0x0 DUP5 PUSH1 0x1 PUSH1 0x2 DUP2 LT PUSH2 0xEA8 JUMPI INVALID JUMPDEST PUSH1 0x20 MUL ADD MLOAD ISZERO PUSH2 0xF2A JUMPI PUSH2 0xEE6 DUP5 PUSH1 0x1 PUSH1 0x2 DUP2 LT PUSH2 0xEC2 JUMPI INVALID JUMPDEST PUSH1 0x20 MUL ADD MLOAD PUSH1 0x0 ADD MLOAD DUP6 PUSH1 0x0 PUSH1 0x2 DUP2 LT PUSH2 0xED8 JUMPI INVALID JUMPDEST PUSH1 0x20 MUL ADD MLOAD PUSH1 0x0 ADD MLOAD PUSH2 0x152B JUMP JUMPDEST PUSH2 0xF25 JUMPI PUSH1 0x40 MLOAD PUSH32 0x8C379A000000000000000000000000000000000000000000000000000000000 DUP2 MSTORE PUSH1 0x4 ADD PUSH2 0xF1C SWAP1 PUSH2 0x2D0A JUMP JUMPDEST PUSH1 0x40 MLOAD DUP1 SWAP2 SUB SWAP1 REVERT JUMPDEST PUSH2 0x1159 JUMP JUMPDEST DUP5 PUSH1 0x0 PUSH1 0x2 DUP2 LT PUSH2 0xF37 JUMPI INVALID JUMPDEST PUSH1 0x20 MUL ADD MLOAD ISZERO PUSH2 0xF7C JUMPI PUSH1 0x40 MLOAD PUSH32 0x8C379A000000000000000000000000000000000000000000000000000000000 DUP2 MSTORE PUSH1 0x4 ADD PUSH2 0xF73 SWAP1 PUSH2 0x2CEA JUMP JUMPDEST PUSH1 0x40 MLOAD DUP1 SWAP2 SUB SWAP1 REVERT JUMPDEST DUP6 PUSH1 0x2 MUL DUP4 PUSH6 0xFFFFFFFFFFFF AND LT ISZERO PUSH2 0x109D JUMPI PUSH2 0xFC3 DUP5 PUSH1 0x1 PUSH1 0x2 DUP2 LT PUSH2 0xF9F JUMPI INVALID JUMPDEST PUSH1 0x20 MUL ADD MLOAD PUSH1 0x0 ADD MLOAD DUP6 PUSH1 0x0 PUSH1 0x2 DUP2 LT PUSH2 0xFB5 JUMPI INVALID JUMPDEST PUSH1 0x20 MUL ADD MLOAD PUSH1 0x0 ADD MLOAD PUSH2 0x152B JUMP JUMPDEST PUSH2 0x1002 JUMPI PUSH1 0x40 MLOAD PUSH32 0x8C379A000000000000000000000000000000000000000000000000000000000 DUP2 MSTORE PUSH1 0x4 ADD PUSH2 0xFF9 SWAP1 PUSH2 0x2CAA JUMP JUMPDEST PUSH1 0x40 MLOAD DUP1 SWAP2 SUB SWAP1 REVERT JUMPDEST DUP4 PUSH1 0x0 PUSH1 0x2 DUP2 LT PUSH2 0x100F JUMPI INVALID JUMPDEST PUSH1 0x20 MUL ADD MLOAD PUSH1 0x20 ADD MLOAD PUSH1 0x40 MLOAD PUSH2 0x1025 SWAP2 SWAP1 PUSH2 0x2AB9 JUMP JUMPDEST PUSH1 0x40 MLOAD DUP1 SWAP2 SUB SWAP1 KECCAK256 DUP5 PUSH1 0x1 PUSH1 0x2 DUP2 LT PUSH2 0x103A JUMPI INVALID JUMPDEST PUSH1 0x20 MUL ADD MLOAD PUSH1 0x20 ADD MLOAD PUSH1 0x40 MLOAD PUSH2 0x1050 SWAP2 SWAP1 PUSH2 0x2AB9 JUMP JUMPDEST PUSH1 0x40 MLOAD DUP1 SWAP2 SUB SWAP1 KECCAK256 EQ PUSH2 0x1098 JUMPI PUSH1 0x40 MLOAD PUSH32 0x8C379A000000000000000000000000000000000000000000000000000000000 DUP2 MSTORE PUSH1 0x4 ADD PUSH2 0x108F SWAP1 PUSH2 0x2BCA JUMP JUMPDEST PUSH1 0x40 MLOAD DUP1 SWAP2 SUB SWAP1 REVERT JUMPDEST PUSH2 0x1158 JUMP JUMPDEST DUP2 PUSH20 0xFFFFFFFFFFFFFFFFFFFFFFFFFFFFFFFFFFFFFFFF AND PUSH4 0xFD7A2F65 DUP6 PUSH1 0x0 PUSH1 0x2 DUP2 LT PUSH2 0x10C6 JUMPI INVALID JUMPDEST PUSH1 0x20 MUL ADD MLOAD DUP7 PUSH1 0x1 PUSH1 0x2 DUP2 LT PUSH2 0x10D8 JUMPI INVALID JUMPDEST PUSH1 0x20 MUL ADD MLOAD DUP7 DUP11 PUSH1 0x40 MLOAD DUP6 PUSH4 0xFFFFFFFF AND PUSH1 0xE0 SHL DUP2 MSTORE PUSH1 0x4 ADD PUSH2 0x10FE SWAP5 SWAP4 SWAP3 SWAP2 SWAP1 PUSH2 0x2DE0 JUMP JUMPDEST PUSH1 0x20 PUSH1 0x40 MLOAD DUP1 DUP4 SUB DUP2 DUP7 DUP1 EXTCODESIZE ISZERO DUP1 ISZERO PUSH2 0x1116 JUMPI PUSH1 0x0 DUP1 REVERT JUMPDEST POP GAS STATICCALL ISZERO DUP1 ISZERO PUSH2 0x112A JUMPI RETURNDATASIZE PUSH1 0x0 DUP1 RETURNDATACOPY RETURNDATASIZE PUSH1 0x0 REVERT JUMPDEST POP POP POP POP PUSH1 0x40 MLOAD RETURNDATASIZE PUSH1 0x1F NOT PUSH1 0x1F DUP3 ADD AND DUP3 ADD DUP1 PUSH1 0x40 MSTORE POP PUSH2 0x114E SWAP2 SWAP1 DUP2 ADD SWAP1 PUSH2 0x1B9C JUMP JUMPDEST PUSH2 0x1157 JUMPI PUSH1 0x0 DUP1 REVERT JUMPDEST JUMPDEST JUMPDEST PUSH1 0x1 SWAP1 POP SWAP6 SWAP5 POP POP POP POP POP JUMP JUMPDEST PUSH1 0x60 DUP1 DUP6 MLOAD PUSH1 0x40 MLOAD SWAP1 DUP1 DUP3 MSTORE DUP1 PUSH1 0x20 MUL PUSH1 0x20 ADD DUP3 ADD PUSH1 0x40 MSTORE DUP1 ISZERO PUSH2 0x1199 JUMPI DUP2 PUSH1 0x20 ADD PUSH1 0x20 DUP3 MUL DUP1 CODESIZE DUP4 CODECOPY DUP1 DUP3 ADD SWAP2 POP POP SWAP1 POP JUMPDEST POP SWAP1 POP PUSH1 0x0 PUSH1 0x1 DUP7 PUSH1 0xFF AND DUP10 SUB ADD SWAP1 POP PUSH1 0x0 DUP1 PUSH1 0x0 SWAP1 POP JUMPDEST DUP9 MLOAD DUP2 PUSH6 0xFFFFFFFFFFFF AND LT ISZERO PUSH2 0x1326 JUMPI DUP1 PUSH1 0x1 DUP11 MLOAD DUP13 SUB ADD ADD SWAP2 POP PUSH2 0x1234 DUP3 DUP5 PUSH6 0xFFFFFFFFFFFF AND DUP5 PUSH6 0xFFFFFFFFFFFF AND LT ISZERO DUP10 DUP10 DUP14 DUP7 PUSH6 0xFFFFFFFFFFFF AND DUP2 MLOAD DUP2 LT PUSH2 0x11FB JUMPI INVALID JUMPDEST PUSH1 0x20 MUL PUSH1 0x20 ADD ADD MLOAD PUSH1 0x20 ADD MLOAD PUSH2 0x122F DUP16 DUP9 PUSH6 0xFFFFFFFFFFFF AND DUP2 MLOAD DUP2 LT PUSH2 0x121E JUMPI INVALID JUMPDEST PUSH1 0x20 MUL PUSH1 0x20 ADD ADD MLOAD PUSH1 0x0 ADD MLOAD PUSH2 0xCEE JUMP JUMPDEST PUSH2 0xD1E JUMP JUMPDEST DUP5 DUP3 PUSH6 0xFFFFFFFFFFFF AND DUP2 MLOAD DUP2 LT PUSH2 0x1248 JUMPI INVALID JUMPDEST PUSH1 0x20 MUL PUSH1 0x20 ADD ADD DUP2 DUP2 MSTORE POP POP DUP10 PUSH6 0xFFFFFFFFFFFF AND DUP3 PUSH6 0xFFFFFFFFFFFF AND LT ISZERO PUSH2 0x1319 JUMPI PUSH2 0x1317 DUP7 PUSH1 0x20 ADD MLOAD MLOAD PUSH1 0x40 MLOAD DUP1 PUSH1 0x40 ADD PUSH1 0x40 MSTORE DUP1 DUP7 PUSH6 0xFFFFFFFFFFFF AND DUP7 PUSH6 0xFFFFFFFFFFFF AND LT ISZERO ISZERO ISZERO ISZERO ISZERO DUP2 MSTORE PUSH1 0x20 ADD DUP7 PUSH6 0xFFFFFFFFFFFF AND PUSH1 0x1 DUP8 ADD PUSH6 0xFFFFFFFFFFFF AND LT ISZERO ISZERO ISZERO ISZERO ISZERO DUP2 MSTORE POP PUSH1 0x40 MLOAD DUP1 PUSH1 0x40 ADD PUSH1 0x40 MSTORE DUP1 DUP14 DUP7 PUSH6 0xFFFFFFFFFFFF AND DUP2 MLOAD DUP2 LT PUSH2 0x12DA JUMPI INVALID JUMPDEST PUSH1 0x20 MUL PUSH1 0x20 ADD ADD MLOAD DUP2 MSTORE PUSH1 0x20 ADD DUP14 PUSH1 0x1 DUP8 ADD PUSH6 0xFFFFFFFFFFFF AND DUP2 MLOAD DUP2 LT PUSH2 0x12FE JUMPI INVALID JUMPDEST PUSH1 0x20 MUL PUSH1 0x20 ADD ADD MLOAD DUP2 MSTORE POP PUSH1 0x1 DUP7 ADD DUP11 PUSH1 0x60 ADD MLOAD PUSH2 0xE99 JUMP JUMPDEST POP JUMPDEST DUP1 DUP1 PUSH1 0x1 ADD SWAP2 POP POP PUSH2 0x11B1 JUMP JUMPDEST POP DUP3 SWAP4 POP POP POP POP SWAP6 SWAP5 POP POP POP POP POP JUMP JUMPDEST PUSH1 0x0 DUP1 PUSH1 0x0 SWAP1 POP JUMPDEST DUP3 MLOAD DUP2 LT ISZERO PUSH2 0x13A5 JUMPI DUP3 DUP2 DUP2 MLOAD DUP2 LT PUSH2 0x1353 JUMPI INVALID JUMPDEST PUSH1 0x20 MUL PUSH1 0x20 ADD ADD MLOAD PUSH20 0xFFFFFFFFFFFFFFFFFFFFFFFFFFFFFFFFFFFFFFFF AND DUP5 PUSH20 0xFFFFFFFFFFFFFFFFFFFFFFFFFFFFFFFFFFFFFFFF AND EQ ISZERO PUSH2 0x1398 JUMPI PUSH1 0x1 SWAP2 POP POP PUSH2 0x13AB JUMP JUMPDEST DUP1 DUP1 PUSH1 0x1 ADD SWAP2 POP POP PUSH2 0x133E JUMP JUMPDEST POP PUSH1 0x0 SWAP1 POP JUMPDEST SWAP3 SWAP2 POP POP JUMP JUMPDEST PUSH1 0x0 DUP3 DUP6 MLOAD EQ PUSH2 0x13F6 JUMPI PUSH1 0x40 MLOAD PUSH32 0x8C379A000000000000000000000000000000000000000000000000000000000 DUP2 MSTORE PUSH1 0x4 ADD PUSH2 0x13ED SWAP1 PUSH2 0x2CCA JUMP JUMPDEST PUSH1 0x40 MLOAD DUP1 SWAP2 SUB SWAP1 REVERT JUMPDEST PUSH1 0x0 DUP1 SWAP1 POP JUMPDEST DUP4 DUP2 LT ISZERO PUSH2 0x145A JUMPI PUSH1 0x0 DUP5 DUP3 DUP8 PUSH6 0xFFFFFFFFFFFF AND DUP8 ADD SUB DUP2 PUSH2 0x141B JUMPI INVALID JUMPDEST MOD SWAP1 POP PUSH1 0x1 DUP5 SUB DUP2 DUP9 DUP5 DUP2 MLOAD DUP2 LT PUSH2 0x142F JUMPI INVALID JUMPDEST PUSH1 0x20 MUL PUSH1 0x20 ADD ADD MLOAD PUSH1 0xFF AND ADD LT ISZERO PUSH2 0x144C JUMPI PUSH1 0x0 SWAP3 POP POP POP PUSH2 0x1460 JUMP JUMPDEST POP DUP1 DUP1 PUSH1 0x1 ADD SWAP2 POP POP PUSH2 0x13FC JUMP JUMPDEST POP PUSH1 0x1 SWAP1 POP JUMPDEST SWAP5 SWAP4 POP POP POP POP JUMP JUMPDEST PUSH2 0x1484 DUP3 PUSH1 0x0 DUP1 DUP5 DUP2 MSTORE PUSH1 0x20 ADD SWAP1 DUP2 MSTORE PUSH1 0x20 ADD PUSH1 0x0 KECCAK256 SLOAD PUSH2 0x1546 JUMP JUMPDEST PUSH2 0x14C3 JUMPI PUSH1 0x40 MLOAD PUSH32 0x8C379A000000000000000000000000000000000000000000000000000000000 DUP2 MSTORE PUSH1 0x4 ADD PUSH2 0x14BA SWAP1 PUSH2 0x2D2A JUMP JUMPDEST PUSH1 0x40 MLOAD DUP1 SWAP2 SUB SWAP1 REVERT JUMPDEST POP POP JUMP JUMPDEST PUSH1 0x1 PUSH1 0x2 DUP2 GT ISZERO PUSH2 0x14D4 JUMPI INVALID JUMPDEST PUSH2 0x14DD DUP3 PUSH2 0x9A6 JUMP JUMPDEST PUSH1 0x2 DUP2 GT ISZERO PUSH2 0x14E8 JUMPI INVALID JUMPDEST EQ PUSH2 0x1528 JUMPI PUSH1 0x40 MLOAD PUSH32 0x8C379A000000000000000000000000000000000000000000000000000000000 DUP2 MSTORE PUSH1 0x4 ADD PUSH2 0x151F SWAP1 PUSH2 0x2C4A JUMP JUMPDEST PUSH1 0x40 MLOAD DUP1 SWAP2 SUB SWAP1 REVERT JUMPDEST POP JUMP JUMPDEST PUSH1 0x0 DUP2 DUP1 MLOAD SWAP1 PUSH1 0x20 ADD KECCAK256 DUP4 DUP1 MLOAD SWAP1 PUSH1 0x20 ADD KECCAK256 EQ SWAP1 POP SWAP3 SWAP2 POP POP JUMP JUMPDEST PUSH1 0x0 DUP2 PUSH2 0x1552 DUP5 PUSH2 0xAE0 JUMP JUMPDEST EQ SWAP1 POP SWAP3 SWAP2 POP POP JUMP JUMPDEST PUSH1 0x0 DUP2 CALLDATALOAD SWAP1 POP PUSH2 0x156A DUP2 PUSH2 0x32EF JUMP JUMPDEST SWAP3 SWAP2 POP POP JUMP JUMPDEST PUSH1 0x0 DUP3 PUSH1 0x1F DUP4 ADD SLT PUSH2 0x1581 JUMPI PUSH1 0x0 DUP1 REVERT JUMPDEST DUP2 CALLDATALOAD PUSH2 0x1594 PUSH2 0x158F DUP3 PUSH2 0x2FC8 JUMP JUMPDEST PUSH2 0x2F9B JUMP JUMPDEST SWAP2 POP DUP2 DUP2 DUP4 MSTORE PUSH1 0x20 DUP5 ADD SWAP4 POP PUSH1 0x20 DUP2 ADD SWAP1 POP DUP4 DUP6 PUSH1 0x20 DUP5 MUL DUP3 ADD GT ISZERO PUSH2 0x15B9 JUMPI PUSH1 0x0 DUP1 REVERT JUMPDEST PUSH1 0x0 JUMPDEST DUP4 DUP2 LT ISZERO PUSH2 0x15E9 JUMPI DUP2 PUSH2 0x15CF DUP9 DUP3 PUSH2 0x155B JUMP JUMPDEST DUP5 MSTORE PUSH1 0x20 DUP5 ADD SWAP4 POP PUSH1 0x20 DUP4 ADD SWAP3 POP POP PUSH1 0x1 DUP2 ADD SWAP1 POP PUSH2 0x15BC JUMP JUMPDEST POP POP POP POP SWAP3 SWAP2 POP POP JUMP JUMPDEST PUSH1 0x0 DUP3 PUSH1 0x1F DUP4 ADD SLT PUSH2 0x1604 JUMPI PUSH1 0x0 DUP1 REVERT JUMPDEST PUSH1 0x2 PUSH2 0x1617 PUSH2 0x1612 DUP3 PUSH2 0x2FF0 JUMP JUMPDEST PUSH2 0x2F9B JUMP JUMPDEST SWAP2 POP DUP2 DUP4 DUP6 PUSH1 0x20 DUP5 MUL DUP3 ADD GT ISZERO PUSH2 0x162D JUMPI PUSH1 0x0 DUP1 REVERT JUMPDEST PUSH1 0x0 JUMPDEST DUP4 DUP2 LT ISZERO PUSH2 0x165D JUMPI DUP2 PUSH2 0x1643 DUP9 DUP3 PUSH2 0x1846 JUMP JUMPDEST DUP5 MSTORE PUSH1 0x20 DUP5 ADD SWAP4 POP PUSH1 0x20 DUP4 ADD SWAP3 POP POP PUSH1 0x1 DUP2 ADD SWAP1 POP PUSH2 0x1630 JUMP JUMPDEST POP POP POP POP SWAP3 SWAP2 POP POP JUMP JUMPDEST PUSH1 0x0 DUP3 PUSH1 0x1F DUP4 ADD SLT PUSH2 0x1678 JUMPI PUSH1 0x0 DUP1 REVERT JUMPDEST DUP2 CALLDATALOAD PUSH2 0x168B PUSH2 0x1686 DUP3 PUSH2 0x3012 JUMP JUMPDEST PUSH2 0x2F9B JUMP JUMPDEST SWAP2 POP DUP2 DUP2 DUP4 MSTORE PUSH1 0x20 DUP5 ADD SWAP4 POP PUSH1 0x20 DUP2 ADD SWAP1 POP DUP4 DUP6 PUSH1 0x60 DUP5 MUL DUP3 ADD GT ISZERO PUSH2 0x16B0 JUMPI PUSH1 0x0 DUP1 REVERT JUMPDEST PUSH1 0x0 JUMPDEST DUP4 DUP2 LT ISZERO PUSH2 0x16E0 JUMPI DUP2 PUSH2 0x16C6 DUP9 DUP3 PUSH2 0x1979 JUMP JUMPDEST DUP5 MSTORE PUSH1 0x20 DUP5 ADD SWAP4 POP PUSH1 0x60 DUP4 ADD SWAP3 POP POP PUSH1 0x1 DUP2 ADD SWAP1 POP PUSH2 0x16B3 JUMP JUMPDEST POP POP POP POP SWAP3 SWAP2 POP POP JUMP JUMPDEST PUSH1 0x0 DUP3 PUSH1 0x1F DUP4 ADD SLT PUSH2 0x16FB JUMPI PUSH1 0x0 DUP1 REVERT JUMPDEST PUSH1 0x2 PUSH2 0x170E PUSH2 0x1709 DUP3 PUSH2 0x303A JUMP JUMPDEST PUSH2 0x2F9B JUMP JUMPDEST SWAP2 POP DUP2 DUP4 PUSH1 0x0 JUMPDEST DUP4 DUP2 LT ISZERO PUSH2 0x1745 JUMPI DUP2 CALLDATALOAD DUP7 ADD PUSH2 0x172B DUP9 DUP3 PUSH2 0x1A39 JUMP JUMPDEST DUP5 MSTORE PUSH1 0x20 DUP5 ADD SWAP4 POP PUSH1 0x20 DUP4 ADD SWAP3 POP POP PUSH1 0x1 DUP2 ADD SWAP1 POP PUSH2 0x1715 JUMP JUMPDEST POP POP POP POP SWAP3 SWAP2 POP POP JUMP JUMPDEST PUSH1 0x0 DUP3 PUSH1 0x1F DUP4 ADD SLT PUSH2 0x1760 JUMPI PUSH1 0x0 DUP1 REVERT JUMPDEST DUP2 CALLDATALOAD PUSH2 0x1773 PUSH2 0x176E DUP3 PUSH2 0x305C JUMP JUMPDEST PUSH2 0x2F9B JUMP JUMPDEST SWAP2 POP DUP2 DUP2 DUP4 MSTORE PUSH1 0x20 DUP5 ADD SWAP4 POP PUSH1 0x20 DUP2 ADD SWAP1 POP DUP4 PUSH1 0x0 JUMPDEST DUP4 DUP2 LT ISZERO PUSH2 0x17B9 JUMPI DUP2 CALLDATALOAD DUP7 ADD PUSH2 0x179F DUP9 DUP3 PUSH2 0x1A39 JUMP JUMPDEST DUP5 MSTORE PUSH1 0x20 DUP5 ADD SWAP4 POP PUSH1 0x20 DUP4 ADD SWAP3 POP POP PUSH1 0x1 DUP2 ADD SWAP1 POP PUSH2 0x1789 JUMP JUMPDEST POP POP POP POP SWAP3 SWAP2 POP POP JUMP JUMPDEST PUSH1 0x0 DUP3 PUSH1 0x1F DUP4 ADD SLT PUSH2 0x17D4 JUMPI PUSH1 0x0 DUP1 REVERT JUMPDEST DUP2 CALLDATALOAD PUSH2 0x17E7 PUSH2 0x17E2 DUP3 PUSH2 0x3084 JUMP JUMPDEST PUSH2 0x2F9B JUMP JUMPDEST SWAP2 POP DUP2 DUP2 DUP4 MSTORE PUSH1 0x20 DUP5 ADD SWAP4 POP PUSH1 0x20 DUP2 ADD SWAP1 POP DUP4 DUP6 PUSH1 0x20 DUP5 MUL DUP3 ADD GT ISZERO PUSH2 0x180C JUMPI PUSH1 0x0 DUP1 REVERT JUMPDEST PUSH1 0x0 JUMPDEST DUP4 DUP2 LT ISZERO PUSH2 0x183C JUMPI DUP2 PUSH2 0x1822 DUP9 DUP3 PUSH2 0x1ADF JUMP JUMPDEST DUP5 MSTORE PUSH1 0x20 DUP5 ADD SWAP4 POP PUSH1 0x20 DUP4 ADD SWAP3 POP POP PUSH1 0x1 DUP2 ADD SWAP1 POP PUSH2 0x180F JUMP JUMPDEST POP POP POP POP SWAP3 SWAP2 POP POP JUMP JUMPDEST PUSH1 0x0 DUP2 CALLDATALOAD SWAP1 POP PUSH2 0x1855 DUP2 PUSH2 0x3306 JUMP JUMPDEST SWAP3 SWAP2 POP POP JUMP JUMPDEST PUSH1 0x0 DUP2 MLOAD SWAP1 POP PUSH2 0x186A DUP2 PUSH2 0x3306 JUMP JUMPDEST SWAP3 SWAP2 POP POP JUMP JUMPDEST PUSH1 0x0 DUP2 CALLDATALOAD SWAP1 POP PUSH2 0x187F DUP2 PUSH2 0x331D JUMP JUMPDEST SWAP3 SWAP2 POP POP JUMP JUMPDEST PUSH1 0x0 DUP3 PUSH1 0x1F DUP4 ADD SLT PUSH2 0x1896 JUMPI PUSH1 0x0 DUP1 REVERT JUMPDEST DUP2 CALLDATALOAD PUSH2 0x18A9 PUSH2 0x18A4 DUP3 PUSH2 0x30AC JUMP JUMPDEST PUSH2 0x2F9B JUMP JUMPDEST SWAP2 POP DUP1 DUP3 MSTORE PUSH1 0x20 DUP4 ADD PUSH1 0x20 DUP4 ADD DUP6 DUP4 DUP4 ADD GT ISZERO PUSH2 0x18C5 JUMPI PUSH1 0x0 DUP1 REVERT JUMPDEST PUSH2 0x18D0 DUP4 DUP3 DUP5 PUSH2 0x3292 JUMP JUMPDEST POP POP POP SWAP3 SWAP2 POP POP JUMP JUMPDEST PUSH1 0x0 PUSH1 0xA0 DUP3 DUP5 SUB SLT ISZERO PUSH2 0x18EB JUMPI PUSH1 0x0 DUP1 REVERT JUMPDEST PUSH2 0x18F5 PUSH1 0xA0 PUSH2 0x2F9B JUMP JUMPDEST SWAP1 POP PUSH1 0x0 PUSH2 0x1905 DUP5 DUP3 DUP6 ADD PUSH2 0x1AB5 JUMP JUMPDEST PUSH1 0x0 DUP4 ADD MSTORE POP PUSH1 0x20 DUP3 ADD CALLDATALOAD PUSH8 0xFFFFFFFFFFFFFFFF DUP2 GT ISZERO PUSH2 0x1925 JUMPI PUSH1 0x0 DUP1 REVERT JUMPDEST PUSH2 0x1931 DUP5 DUP3 DUP6 ADD PUSH2 0x1570 JUMP JUMPDEST PUSH1 0x20 DUP4 ADD MSTORE POP PUSH1 0x40 PUSH2 0x1945 DUP5 DUP3 DUP6 ADD PUSH2 0x1ACA JUMP JUMPDEST PUSH1 0x40 DUP4 ADD MSTORE POP PUSH1 0x60 PUSH2 0x1959 DUP5 DUP3 DUP6 ADD PUSH2 0x155B JUMP JUMPDEST PUSH1 0x60 DUP4 ADD MSTORE POP PUSH1 0x80 PUSH2 0x196D DUP5 DUP3 DUP6 ADD PUSH2 0x1ACA JUMP JUMPDEST PUSH1 0x80 DUP4 ADD MSTORE POP SWAP3 SWAP2 POP POP JUMP JUMPDEST PUSH1 0x0 PUSH1 0x60 DUP3 DUP5 SUB SLT ISZERO PUSH2 0x198B JUMPI PUSH1 0x0 DUP1 REVERT JUMPDEST PUSH2 0x1995 PUSH1 0x60 PUSH2 0x2F9B JUMP JUMPDEST SWAP1 POP PUSH1 0x0 PUSH2 0x19A5 DUP5 DUP3 DUP6 ADD PUSH2 0x1ADF JUMP JUMPDEST PUSH1 0x0 DUP4 ADD MSTORE POP PUSH1 0x20 PUSH2 0x19B9 DUP5 DUP3 DUP6 ADD PUSH2 0x1870 JUMP JUMPDEST PUSH1 0x20 DUP4 ADD MSTORE POP PUSH1 0x40 PUSH2 0x19CD DUP5 DUP3 DUP6 ADD PUSH2 0x1870 JUMP JUMPDEST PUSH1 0x40 DUP4 ADD MSTORE POP SWAP3 SWAP2 POP POP JUMP JUMPDEST PUSH1 0x0 PUSH1 0x60 DUP3 DUP5 SUB SLT ISZERO PUSH2 0x19EB JUMPI PUSH1 0x0 DUP1 REVERT JUMPDEST PUSH2 0x19F5 PUSH1 0x60 PUSH2 0x2F9B JUMP JUMPDEST SWAP1 POP PUSH1 0x0 PUSH2 0x1A05 DUP5 DUP3 DUP6 ADD PUSH2 0x1ADF JUMP JUMPDEST PUSH1 0x0 DUP4 ADD MSTORE POP PUSH1 0x20 PUSH2 0x1A19 DUP5 DUP3 DUP6 ADD PUSH2 0x1870 JUMP JUMPDEST PUSH1 0x20 DUP4 ADD MSTORE POP PUSH1 0x40 PUSH2 0x1A2D DUP5 DUP3 DUP6 ADD PUSH2 0x1870 JUMP JUMPDEST PUSH1 0x40 DUP4 ADD MSTORE POP SWAP3 SWAP2 POP POP JUMP JUMPDEST PUSH1 0x0 PUSH1 0x40 DUP3 DUP5 SUB SLT ISZERO PUSH2 0x1A4B JUMPI PUSH1 0x0 DUP1 REVERT JUMPDEST PUSH2 0x1A55 PUSH1 0x40 PUSH2 0x2F9B JUMP JUMPDEST SWAP1 POP PUSH1 0x0 DUP3 ADD CALLDATALOAD PUSH8 0xFFFFFFFFFFFFFFFF DUP2 GT ISZERO PUSH2 0x1A71 JUMPI PUSH1 0x0 DUP1 REVERT JUMPDEST PUSH2 0x1A7D DUP5 DUP3 DUP6 ADD PUSH2 0x1885 JUMP JUMPDEST PUSH1 0x0 DUP4 ADD MSTORE POP PUSH1 0x20 DUP3 ADD CALLDATALOAD PUSH8 0xFFFFFFFFFFFFFFFF DUP2 GT ISZERO PUSH2 0x1A9D JUMPI PUSH1 0x0 DUP1 REVERT JUMPDEST PUSH2 0x1AA9 DUP5 DUP3 DUP6 ADD PUSH2 0x1885 JUMP JUMPDEST PUSH1 0x20 DUP4 ADD MSTORE POP SWAP3 SWAP2 POP POP JUMP JUMPDEST PUSH1 0x0 DUP2 CALLDATALOAD SWAP1 POP PUSH2 0x1AC4 DUP2 PUSH2 0x3334 JUMP JUMPDEST SWAP3 SWAP2 POP POP JUMP JUMPDEST PUSH1 0x0 DUP2 CALLDATALOAD SWAP1 POP PUSH2 0x1AD9 DUP2 PUSH2 0x334B JUMP JUMPDEST SWAP3 SWAP2 POP POP JUMP JUMPDEST PUSH1 0x0 DUP2 CALLDATALOAD SWAP1 POP PUSH2 0x1AEE DUP2 PUSH2 0x3362 JUMP JUMPDEST SWAP3 SWAP2 POP POP JUMP JUMPDEST PUSH1 0x0 DUP1 PUSH1 0x0 DUP1 PUSH1 0x0 PUSH2 0x100 DUP7 DUP9 SUB SLT ISZERO PUSH2 0x1B0D JUMPI PUSH1 0x0 DUP1 REVERT JUMPDEST PUSH1 0x0 PUSH2 0x1B1B DUP9 DUP3 DUP10 ADD PUSH2 0x155B JUMP JUMPDEST SWAP6 POP POP PUSH1 0x20 PUSH2 0x1B2C DUP9 DUP3 DUP10 ADD PUSH2 0x15F3 JUMP JUMPDEST SWAP5 POP POP PUSH1 0x60 DUP7 ADD CALLDATALOAD PUSH8 0xFFFFFFFFFFFFFFFF DUP2 GT ISZERO PUSH2 0x1B49 JUMPI PUSH1 0x0 DUP1 REVERT JUMPDEST PUSH2 0x1B55 DUP9 DUP3 DUP10 ADD PUSH2 0x18D9 JUMP JUMPDEST SWAP4 POP POP PUSH1 0x80 DUP7 ADD CALLDATALOAD PUSH8 0xFFFFFFFFFFFFFFFF DUP2 GT ISZERO PUSH2 0x1B72 JUMPI PUSH1 0x0 DUP1 REVERT JUMPDEST PUSH2 0x1B7E DUP9 DUP3 DUP10 ADD PUSH2 0x16EA JUMP JUMPDEST SWAP3 POP POP PUSH1 0xA0 PUSH2 0x1B8F DUP9 DUP3 DUP10 ADD PUSH2 0x19D9 JUMP JUMPDEST SWAP2 POP POP SWAP3 SWAP6 POP SWAP3 SWAP6 SWAP1 SWAP4 POP JUMP JUMPDEST PUSH1 0x0 PUSH1 0x20 DUP3 DUP5 SUB SLT ISZERO PUSH2 0x1BAE JUMPI PUSH1 0x0 DUP1 REVERT JUMPDEST PUSH1 0x0 PUSH2 0x1BBC DUP5 DUP3 DUP6 ADD PUSH2 0x185B JUMP JUMPDEST SWAP2 POP POP SWAP3 SWAP2 POP POP JUMP JUMPDEST PUSH1 0x0 PUSH1 0x20 DUP3 DUP5 SUB SLT ISZERO PUSH2 0x1BD7 JUMPI PUSH1 0x0 DUP1 REVERT JUMPDEST PUSH1 0x0 PUSH2 0x1BE5 DUP5 DUP3 DUP6 ADD PUSH2 0x1870 JUMP JUMPDEST SWAP2 POP POP SWAP3 SWAP2 POP POP JUMP JUMPDEST PUSH1 0x0 DUP1 PUSH1 0x0 DUP1 PUSH1 0x0 DUP1 PUSH1 0xC0 DUP8 DUP10 SUB SLT ISZERO PUSH2 0x1C07 JUMPI PUSH1 0x0 DUP1 REVERT JUMPDEST PUSH1 0x0 DUP8 ADD CALLDATALOAD PUSH8 0xFFFFFFFFFFFFFFFF DUP2 GT ISZERO PUSH2 0x1C21 JUMPI PUSH1 0x0 DUP1 REVERT JUMPDEST PUSH2 0x1C2D DUP10 DUP3 DUP11 ADD PUSH2 0x18D9 JUMP JUMPDEST SWAP7 POP POP PUSH1 0x20 PUSH2 0x1C3E DUP10 DUP3 DUP11 ADD PUSH2 0x1ACA JUMP JUMPDEST SWAP6 POP POP PUSH1 0x40 DUP8 ADD CALLDATALOAD PUSH8 0xFFFFFFFFFFFFFFFF DUP2 GT ISZERO PUSH2 0x1C5B JUMPI PUSH1 0x0 DUP1 REVERT JUMPDEST PUSH2 0x1C67 DUP10 DUP3 DUP11 ADD PUSH2 0x174F JUMP JUMPDEST SWAP5 POP POP PUSH1 0x60 PUSH2 0x1C78 DUP10 DUP3 DUP11 ADD PUSH2 0x1ADF JUMP JUMPDEST SWAP4 POP POP PUSH1 0x80 DUP8 ADD CALLDATALOAD PUSH8 0xFFFFFFFFFFFFFFFF DUP2 GT ISZERO PUSH2 0x1C95 JUMPI PUSH1 0x0 DUP1 REVERT JUMPDEST PUSH2 0x1CA1 DUP10 DUP3 DUP11 ADD PUSH2 0x1667 JUMP JUMPDEST SWAP3 POP POP PUSH1 0xA0 DUP8 ADD CALLDATALOAD PUSH8 0xFFFFFFFFFFFFFFFF DUP2 GT ISZERO PUSH2 0x1CBE JUMPI PUSH1 0x0 DUP1 REVERT JUMPDEST PUSH2 0x1CCA DUP10 DUP3 DUP11 ADD PUSH2 0x17C3 JUMP JUMPDEST SWAP2 POP POP SWAP3 SWAP6 POP SWAP3 SWAP6 POP SWAP3 SWAP6 JUMP JUMPDEST PUSH1 0x0 DUP1 PUSH1 0x0 DUP1 PUSH1 0x0 DUP1 PUSH1 0x0 PUSH2 0x120 DUP9 DUP11 SUB SLT ISZERO PUSH2 0x1CF3 JUMPI PUSH1 0x0 DUP1 REVERT JUMPDEST PUSH1 0x0 DUP9 ADD CALLDATALOAD PUSH8 0xFFFFFFFFFFFFFFFF DUP2 GT ISZERO PUSH2 0x1D0D JUMPI PUSH1 0x0 DUP1 REVERT JUMPDEST PUSH2 0x1D19 DUP11 DUP3 DUP12 ADD PUSH2 0x18D9 JUMP JUMPDEST SWAP8 POP POP PUSH1 0x20 PUSH2 0x1D2A DUP11 DUP3 DUP12 ADD PUSH2 0x1ACA JUMP JUMPDEST SWAP7 POP POP PUSH1 0x40 DUP9 ADD CALLDATALOAD PUSH8 0xFFFFFFFFFFFFFFFF DUP2 GT ISZERO PUSH2 0x1D47 JUMPI PUSH1 0x0 DUP1 REVERT JUMPDEST PUSH2 0x1D53 DUP11 DUP3 DUP12 ADD PUSH2 0x174F JUMP JUMPDEST SWAP6 POP POP PUSH1 0x60 PUSH2 0x1D64 DUP11 DUP3 DUP12 ADD PUSH2 0x1ADF JUMP JUMPDEST SWAP5 POP POP PUSH1 0x80 DUP9 ADD CALLDATALOAD PUSH8 0xFFFFFFFFFFFFFFFF DUP2 GT ISZERO PUSH2 0x1D81 JUMPI PUSH1 0x0 DUP1 REVERT JUMPDEST PUSH2 0x1D8D DUP11 DUP3 DUP12 ADD PUSH2 0x1667 JUMP JUMPDEST SWAP4 POP POP PUSH1 0xA0 DUP9 ADD CALLDATALOAD PUSH8 0xFFFFFFFFFFFFFFFF DUP2 GT ISZERO PUSH2 0x1DAA JUMPI PUSH1 0x0 DUP1 REVERT JUMPDEST PUSH2 0x1DB6 DUP11 DUP3 DUP12 ADD PUSH2 0x17C3 JUMP JUMPDEST SWAP3 POP POP PUSH1 0xC0 PUSH2 0x1DC7 DUP11 DUP3 DUP12 ADD PUSH2 0x19D9 JUMP JUMPDEST SWAP2 POP POP SWAP3 SWAP6 SWAP9 SWAP2 SWAP5 SWAP8 POP SWAP3 SWAP6 POP JUMP JUMPDEST PUSH1 0x0 DUP1 PUSH1 0x0 DUP1 PUSH1 0x0 DUP1 PUSH1 0x0 PUSH1 0xE0 DUP9 DUP11 SUB SLT ISZERO PUSH2 0x1DF1 JUMPI PUSH1 0x0 DUP1 REVERT JUMPDEST PUSH1 0x0 PUSH2 0x1DFF DUP11 DUP3 DUP12 ADD PUSH2 0x1ACA JUMP JUMPDEST SWAP8 POP POP PUSH1 0x20 DUP9 ADD CALLDATALOAD PUSH8 0xFFFFFFFFFFFFFFFF DUP2 GT ISZERO PUSH2 0x1E1C JUMPI PUSH1 0x0 DUP1 REVERT JUMPDEST PUSH2 0x1E28 DUP11 DUP3 DUP12 ADD PUSH2 0x18D9 JUMP JUMPDEST SWAP7 POP POP PUSH1 0x40 PUSH2 0x1E39 DUP11 DUP3 DUP12 ADD PUSH2 0x1870 JUMP JUMPDEST SWAP6 POP POP PUSH1 0x60 PUSH2 0x1E4A DUP11 DUP3 DUP12 ADD PUSH2 0x1870 JUMP JUMPDEST SWAP5 POP POP PUSH1 0x80 PUSH2 0x1E5B DUP11 DUP3 DUP12 ADD PUSH2 0x1ADF JUMP JUMPDEST SWAP4 POP POP PUSH1 0xA0 DUP9 ADD CALLDATALOAD PUSH8 0xFFFFFFFFFFFFFFFF DUP2 GT ISZERO PUSH2 0x1E78 JUMPI PUSH1 0x0 DUP1 REVERT JUMPDEST PUSH2 0x1E84 DUP11 DUP3 DUP12 ADD PUSH2 0x17C3 JUMP JUMPDEST SWAP3 POP POP PUSH1 0xC0 DUP9 ADD CALLDATALOAD PUSH8 0xFFFFFFFFFFFFFFFF DUP2 GT ISZERO PUSH2 0x1EA1 JUMPI PUSH1 0x0 DUP1 REVERT JUMPDEST PUSH2 0x1EAD DUP11 DUP3 DUP12 ADD PUSH2 0x1667 JUMP JUMPDEST SWAP2 POP POP SWAP3 SWAP6 SWAP9 SWAP2 SWAP5 SWAP8 POP SWAP3 SWAP6 POP JUMP JUMPDEST PUSH1 0x0 PUSH2 0x1EC8 DUP4 DUP4 PUSH2 0x1F18 JUMP JUMPDEST PUSH1 0x20 DUP4 ADD SWAP1 POP SWAP3 SWAP2 POP POP JUMP JUMPDEST PUSH1 0x0 PUSH2 0x1EE0 DUP4 DUP4 PUSH2 0x291E JUMP JUMPDEST PUSH1 0x60 DUP4 ADD SWAP1 POP SWAP3 SWAP2 POP POP JUMP JUMPDEST PUSH1 0x0 PUSH2 0x1EF8 DUP4 DUP4 PUSH2 0x29C8 JUMP JUMPDEST SWAP1 POP SWAP3 SWAP2 POP POP JUMP JUMPDEST PUSH1 0x0 PUSH2 0x1F0C DUP4 DUP4 PUSH2 0x2A9B JUMP JUMPDEST PUSH1 0x20 DUP4 ADD SWAP1 POP SWAP3 SWAP2 POP POP JUMP JUMPDEST PUSH2 0x1F21 DUP2 PUSH2 0x3221 JUMP JUMPDEST DUP3 MSTORE POP POP JUMP JUMPDEST PUSH2 0x1F30 DUP2 PUSH2 0x3221 JUMP JUMPDEST DUP3 MSTORE POP POP JUMP JUMPDEST PUSH1 0x0 PUSH2 0x1F41 DUP3 PUSH2 0x3118 JUMP JUMPDEST PUSH2 0x1F4B DUP2 DUP6 PUSH2 0x318E JUMP JUMPDEST SWAP4 POP PUSH2 0x1F56 DUP4 PUSH2 0x30D8 JUMP JUMPDEST DUP1 PUSH1 0x0 JUMPDEST DUP4 DUP2 LT ISZERO PUSH2 0x1F87 JUMPI DUP2 MLOAD PUSH2 0x1F6E DUP9 DUP3 PUSH2 0x1EBC JUMP JUMPDEST SWAP8 POP PUSH2 0x1F79 DUP4 PUSH2 0x315A JUMP JUMPDEST SWAP3 POP POP PUSH1 0x1 DUP2 ADD SWAP1 POP PUSH2 0x1F5A JUMP JUMPDEST POP DUP6 SWAP4 POP POP POP POP SWAP3 SWAP2 POP POP JUMP JUMPDEST PUSH1 0x0 PUSH2 0x1F9F DUP3 PUSH2 0x3118 JUMP JUMPDEST PUSH2 0x1FA9 DUP2 DUP6 PUSH2 0x319F JUMP JUMPDEST SWAP4 POP PUSH2 0x1FB4 DUP4 PUSH2 0x30D8 JUMP JUMPDEST DUP1 PUSH1 0x0 JUMPDEST DUP4 DUP2 LT ISZERO PUSH2 0x1FE5 JUMPI DUP2 MLOAD PUSH2 0x1FCC DUP9 DUP3 PUSH2 0x1EBC JUMP JUMPDEST SWAP8 POP PUSH2 0x1FD7 DUP4 PUSH2 0x315A JUMP JUMPDEST SWAP3 POP POP PUSH1 0x1 DUP2 ADD SWAP1 POP PUSH2 0x1FB8 JUMP JUMPDEST POP DUP6 SWAP4 POP POP POP POP SWAP3 SWAP2 POP POP JUMP JUMPDEST PUSH1 0x0 PUSH2 0x1FFD DUP3 PUSH2 0x3123 JUMP JUMPDEST PUSH2 0x2007 DUP2 DUP6 PUSH2 0x31B0 JUMP JUMPDEST SWAP4 POP PUSH2 0x2012 DUP4 PUSH2 0x30E8 JUMP JUMPDEST DUP1 PUSH1 0x0 JUMPDEST DUP4 DUP2 LT ISZERO PUSH2 0x2043 JUMPI DUP2 MLOAD PUSH2 0x202A DUP9 DUP3 PUSH2 0x1ED4 JUMP JUMPDEST SWAP8 POP PUSH2 0x2035 DUP4 PUSH2 0x3167 JUMP JUMPDEST SWAP3 POP POP PUSH1 0x1 DUP2 ADD SWAP1 POP PUSH2 0x2016 JUMP JUMPDEST POP DUP6 SWAP4 POP POP POP POP SWAP3 SWAP2 POP POP JUMP JUMPDEST PUSH1 0x0 PUSH2 0x205B DUP3 PUSH2 0x312E JUMP JUMPDEST PUSH2 0x2065 DUP2 DUP6 PUSH2 0x31C1 JUMP JUMPDEST SWAP4 POP DUP4 PUSH1 0x20 DUP3 MUL DUP6 ADD PUSH2 0x2077 DUP6 PUSH2 0x30F8 JUMP JUMPDEST DUP1 PUSH1 0x0 JUMPDEST DUP6 DUP2 LT ISZERO PUSH2 0x20B3 JUMPI DUP5 DUP5 SUB DUP10 MSTORE DUP2 MLOAD PUSH2 0x2094 DUP6 DUP3 PUSH2 0x1EEC JUMP JUMPDEST SWAP5 POP PUSH2 0x209F DUP4 PUSH2 0x3174 JUMP JUMPDEST SWAP3 POP PUSH1 0x20 DUP11 ADD SWAP10 POP POP PUSH1 0x1 DUP2 ADD SWAP1 POP PUSH2 0x207B JUMP JUMPDEST POP DUP3 SWAP8 POP DUP8 SWAP6 POP POP POP POP POP POP SWAP3 SWAP2 POP POP JUMP JUMPDEST PUSH1 0x0 PUSH2 0x20D0 DUP3 PUSH2 0x3139 JUMP JUMPDEST PUSH2 0x20DA DUP2 DUP6 PUSH2 0x31D2 JUMP JUMPDEST SWAP4 POP PUSH2 0x20E5 DUP4 PUSH2 0x3108 JUMP JUMPDEST DUP1 PUSH1 0x0 JUMPDEST DUP4 DUP2 LT ISZERO PUSH2 0x2116 JUMPI DUP2 MLOAD PUSH2 0x20FD DUP9 DUP3 PUSH2 0x1F00 JUMP JUMPDEST SWAP8 POP PUSH2 0x2108 DUP4 PUSH2 0x3181 JUMP JUMPDEST SWAP3 POP POP PUSH1 0x1 DUP2 ADD SWAP1 POP PUSH2 0x20E9 JUMP JUMPDEST POP DUP6 SWAP4 POP POP POP POP SWAP3 SWAP2 POP POP JUMP JUMPDEST PUSH2 0x212C DUP2 PUSH2 0x3233 JUMP JUMPDEST DUP3 MSTORE POP POP JUMP JUMPDEST PUSH2 0x213B DUP2 PUSH2 0x3233 JUMP JUMPDEST DUP3 MSTORE POP POP JUMP JUMPDEST PUSH2 0x214A DUP2 PUSH2 0x323F JUMP JUMPDEST DUP3 MSTORE POP POP JUMP JUMPDEST PUSH2 0x2159 DUP2 PUSH2 0x323F JUMP JUMPDEST DUP3 MSTORE POP POP JUMP JUMPDEST PUSH2 0x2170 PUSH2 0x216B DUP3 PUSH2 0x323F JUMP JUMPDEST PUSH2 0x32D4 JUMP JUMPDEST DUP3 MSTORE POP POP JUMP JUMPDEST PUSH1 0x0 PUSH2 0x2181 DUP3 PUSH2 0x314F JUMP JUMPDEST PUSH2 0x218B DUP2 DUP6 PUSH2 0x31F4 JUMP JUMPDEST SWAP4 POP PUSH2 0x219B DUP2 DUP6 PUSH1 0x20 DUP7 ADD PUSH2 0x32A1 JUMP JUMPDEST PUSH2 0x21A4 DUP2 PUSH2 0x32DE JUMP JUMPDEST DUP5 ADD SWAP2 POP POP SWAP3 SWAP2 POP POP JUMP JUMPDEST PUSH1 0x0 PUSH2 0x21BA DUP3 PUSH2 0x3144 JUMP JUMPDEST PUSH2 0x21C4 DUP2 DUP6 PUSH2 0x31E3 JUMP JUMPDEST SWAP4 POP PUSH2 0x21D4 DUP2 DUP6 PUSH1 0x20 DUP7 ADD PUSH2 0x32A1 JUMP JUMPDEST PUSH2 0x21DD DUP2 PUSH2 0x32DE JUMP JUMPDEST DUP5 ADD SWAP2 POP POP SWAP3 SWAP2 POP POP JUMP JUMPDEST PUSH1 0x0 PUSH2 0x21F3 DUP3 PUSH2 0x3144 JUMP JUMPDEST PUSH2 0x21FD DUP2 DUP6 PUSH2 0x31F4 JUMP JUMPDEST SWAP4 POP PUSH2 0x220D DUP2 DUP6 PUSH1 0x20 DUP7 ADD PUSH2 0x32A1 JUMP JUMPDEST PUSH2 0x2216 DUP2 PUSH2 0x32DE JUMP JUMPDEST DUP5 ADD SWAP2 POP POP SWAP3 SWAP2 POP POP JUMP JUMPDEST PUSH1 0x0 PUSH2 0x222C DUP3 PUSH2 0x3144 JUMP JUMPDEST PUSH2 0x2236 DUP2 DUP6 PUSH2 0x3205 JUMP JUMPDEST SWAP4 POP PUSH2 0x2246 DUP2 DUP6 PUSH1 0x20 DUP7 ADD PUSH2 0x32A1 JUMP JUMPDEST DUP1 DUP5 ADD SWAP2 POP POP SWAP3 SWAP2 POP POP JUMP JUMPDEST PUSH1 0x0 PUSH2 0x225F PUSH1 0x44 DUP4 PUSH2 0x3210 JUMP JUMPDEST SWAP2 POP PUSH32 0x496E76616C69645472616E736974696F6E4572726F723A2043616E6E6F742063 PUSH1 0x0 DUP4 ADD MSTORE PUSH32 0x68616E676520746865206170704461746120647572696E672073657475702070 PUSH1 0x20 DUP4 ADD MSTORE PUSH32 0x6861736500000000000000000000000000000000000000000000000000000000 PUSH1 0x40 DUP4 ADD MSTORE PUSH1 0x60 DUP3 ADD SWAP1 POP SWAP2 SWAP1 POP JUMP JUMPDEST PUSH1 0x0 PUSH2 0x22EB PUSH1 0x1C DUP4 PUSH2 0x3210 JUMP JUMPDEST SWAP2 POP PUSH32 0x7475726E4E756D5265636F7264206E6F7420696E637265617365642E00000000 PUSH1 0x0 DUP4 ADD MSTORE PUSH1 0x20 DUP3 ADD SWAP1 POP SWAP2 SWAP1 POP JUMP JUMPDEST PUSH1 0x0 PUSH2 0x232B PUSH1 0x12 DUP4 PUSH2 0x3210 JUMP JUMPDEST SWAP2 POP PUSH32 0x4368616E6E656C2066696E616C697A65642E0000000000000000000000000000 PUSH1 0x0 DUP4 ADD MSTORE PUSH1 0x20 DUP3 ADD SWAP1 POP SWAP2 SWAP1 POP JUMP JUMPDEST PUSH1 0x0 PUSH2 0x236B PUSH1 0x18 DUP4 PUSH2 0x3210 JUMP JUMPDEST SWAP2 POP PUSH32 0x7475726E4E756D5265636F7264206465637265617365642E0000000000000000 PUSH1 0x0 DUP4 ADD MSTORE PUSH1 0x20 DUP3 ADD SWAP1 POP SWAP2 SWAP1 POP JUMP JUMPDEST PUSH1 0x0 PUSH2 0x23AB PUSH1 0x15 DUP4 PUSH2 0x3210 JUMP JUMPDEST SWAP2 POP PUSH32 0x4E6F206F6E676F696E67206368616C6C656E67652E0000000000000000000000 PUSH1 0x0 DUP4 ADD MSTORE PUSH1 0x20 DUP3 ADD SWAP1 POP SWAP2 SWAP1 POP JUMP JUMPDEST PUSH1 0x0 PUSH2 0x23EB PUSH1 0x1F DUP4 PUSH2 0x3210 JUMP JUMPDEST SWAP2 POP PUSH32 0x4368616C6C656E676572206973206E6F742061207061727469636970616E7400 PUSH1 0x0 DUP4 ADD MSTORE PUSH1 0x20 DUP3 ADD SWAP1 POP SWAP2 SWAP1 POP JUMP JUMPDEST PUSH1 0x0 PUSH2 0x242B PUSH1 0x12 DUP4 PUSH2 0x3210 JUMP JUMPDEST SWAP2 POP PUSH32 0x496E76616C6964207369676E6174757265730000000000000000000000000000 PUSH1 0x0 DUP4 ADD MSTORE PUSH1 0x20 DUP3 ADD SWAP1 POP SWAP2 SWAP1 POP JUMP JUMPDEST PUSH1 0x0 PUSH2 0x246B PUSH1 0x4C DUP4 PUSH2 0x3210 JUMP JUMPDEST SWAP2 POP PUSH32 0x496E76616C69645472616E736974696F6E4572726F723A2043616E6E6F742063 PUSH1 0x0 DUP4 ADD MSTORE PUSH32 0x68616E6765207468652064656661756C74206F7574636F6D6520647572696E67 PUSH1 0x20 DUP4 ADD MSTORE PUSH32 0x2073657475702070686173650000000000000000000000000000000000000000 PUSH1 0x40 DUP4 ADD MSTORE PUSH1 0x60 DUP3 ADD SWAP1 POP SWAP2 SWAP1 POP JUMP JUMPDEST PUSH1 0x0 PUSH2 0x24F7 PUSH1 0x47 DUP4 PUSH2 0x3210 JUMP JUMPDEST SWAP2 POP PUSH32 0x5F76616C69645369676E6174757265733A2077686F5369676E65645768617420 PUSH1 0x0 DUP4 ADD MSTORE PUSH32 0x6D757374206265207468652073616D65206C656E677468206173207061727469 PUSH1 0x20 DUP4 ADD MSTORE PUSH32 0x636970616E747300000000000000000000000000000000000000000000000000 PUSH1 0x40 DUP4 ADD MSTORE PUSH1 0x60 DUP3 ADD SWAP1 POP SWAP2 SWAP1 POP JUMP JUMPDEST PUSH1 0x0 PUSH2 0x2583 PUSH1 0x9 DUP4 PUSH2 0x3210 JUMP JUMPDEST SWAP2 POP PUSH32 0x666F7263654D6F76650000000000000000000000000000000000000000000000 PUSH1 0x0 DUP4 ADD MSTORE PUSH1 0x20 DUP3 ADD SWAP1 POP SWAP2 SWAP1 POP JUMP JUMPDEST PUSH1 0x0 PUSH2 0x25C3 PUSH1 0x4B DUP4 PUSH2 0x3210 JUMP JUMPDEST SWAP2 POP PUSH32 0x496E76616C69645472616E736974696F6E4572726F723A2043616E6E6F74206D PUSH1 0x0 DUP4 ADD MSTORE PUSH32 0x6F76652066726F6D20612066696E616C20737461746520746F2061206E6F6E20 PUSH1 0x20 DUP4 ADD MSTORE PUSH32 0x66696E616C207374617465000000000000000000000000000000000000000000 PUSH1 0x40 DUP4 ADD MSTORE PUSH1 0x60 DUP3 ADD SWAP1 POP SWAP2 SWAP1 POP JUMP JUMPDEST PUSH1 0x0 PUSH2 0x264F PUSH1 0x55 DUP4 PUSH2 0x3210 JUMP JUMPDEST SWAP2 POP PUSH32 0x496E76616C69645472616E736974696F6E4572726F723A2043616E6E6F74206D PUSH1 0x0 DUP4 ADD MSTORE PUSH32 0x6F766520746F20612066696E616C207374617465207769746820612064696666 PUSH1 0x20 DUP4 ADD MSTORE PUSH32 0x6572656E742064656661756C74206F7574636F6D650000000000000000000000 PUSH1 0x40 DUP4 ADD MSTORE PUSH1 0x60 DUP3 ADD SWAP1 POP SWAP2 SWAP1 POP JUMP JUMPDEST PUSH1 0x0 PUSH2 0x26DB PUSH1 0x2E DUP4 PUSH2 0x3210 JUMP JUMPDEST SWAP2 POP PUSH32 0x4368616E6E656C2073746F7261676520646F6573206E6F74206D617463682073 PUSH1 0x0 DUP4 ADD MSTORE PUSH32 0x746F7265642076657273696F6E2E000000000000000000000000000000000000 PUSH1 0x20 DUP4 ADD MSTORE PUSH1 0x40 DUP3 ADD SWAP1 POP SWAP2 SWAP1 POP JUMP JUMPDEST PUSH1 0x0 PUSH2 0x2741 PUSH1 0x2B DUP4 PUSH2 0x3210 JUMP JUMPDEST SWAP2 POP PUSH32 0x496E76616C6964207369676E617475726573204F5220697346696E616C3D7472 PUSH1 0x0 DUP4 ADD MSTORE PUSH32 0x7565206578706563746564000000000000000000000000000000000000000000 PUSH1 0x20 DUP4 ADD MSTORE PUSH1 0x40 DUP3 ADD SWAP1 POP SWAP2 SWAP1 POP JUMP JUMPDEST PUSH1 0x0 PUSH2 0x27A7 PUSH1 0x20 DUP4 PUSH2 0x3210 JUMP JUMPDEST SWAP2 POP PUSH32 0x556E61636365707461626C652077686F5369676E656457686174206172726179 PUSH1 0x0 DUP4 ADD MSTORE PUSH1 0x20 DUP3 ADD SWAP1 POP SWAP2 SWAP1 POP JUMP JUMPDEST PUSH1 0x0 PUSH2 0x27E7 PUSH1 0x27 DUP4 PUSH2 0x3210 JUMP JUMPDEST SWAP2 POP PUSH32 0x526573706F6E7365206E6F74207369676E656420627920617574686F72697A65 PUSH1 0x0 DUP4 ADD MSTORE PUSH32 0x64206D6F76657200000000000000000000000000000000000000000000000000 PUSH1 0x20 DUP4 ADD MSTORE PUSH1 0x40 DUP3 ADD SWAP1 POP SWAP2 SWAP1 POP JUMP JUMPDEST PUSH1 0xA0 DUP3 ADD PUSH1 0x0 DUP3 ADD MLOAD PUSH2 0x2856 PUSH1 0x0 DUP6 ADD DUP3 PUSH2 0x2A7D JUMP JUMPDEST POP PUSH1 0x20 DUP3 ADD MLOAD PUSH2 0x2869 PUSH1 0x20 DUP6 ADD DUP3 PUSH2 0x2A7D JUMP JUMPDEST POP PUSH1 0x40 DUP3 ADD MLOAD PUSH2 0x287C PUSH1 0x40 DUP6 ADD DUP3 PUSH2 0x2141 JUMP JUMPDEST POP PUSH1 0x60 DUP3 ADD MLOAD PUSH2 0x288F PUSH1 0x60 DUP6 ADD DUP3 PUSH2 0x1F18 JUMP JUMPDEST POP PUSH1 0x80 DUP3 ADD MLOAD PUSH2 0x28A2 PUSH1 0x80 DUP6 ADD DUP3 PUSH2 0x2141 JUMP JUMPDEST POP POP POP POP JUMP JUMPDEST PUSH1 0x0 PUSH1 0xA0 DUP4 ADD PUSH1 0x0 DUP4 ADD MLOAD PUSH2 0x28C0 PUSH1 0x0 DUP7 ADD DUP3 PUSH2 0x2A5F JUMP JUMPDEST POP PUSH1 0x20 DUP4 ADD MLOAD DUP5 DUP3 SUB PUSH1 0x20 DUP7 ADD MSTORE PUSH2 0x28D8 DUP3 DUP3 PUSH2 0x1F36 JUMP JUMPDEST SWAP2 POP POP PUSH1 0x40 DUP4 ADD MLOAD PUSH2 0x28ED PUSH1 0x40 DUP7 ADD DUP3 PUSH2 0x2A7D JUMP JUMPDEST POP PUSH1 0x60 DUP4 ADD MLOAD PUSH2 0x2900 PUSH1 0x60 DUP7 ADD DUP3 PUSH2 0x1F18 JUMP JUMPDEST POP PUSH1 0x80 DUP4 ADD MLOAD PUSH2 0x2913 PUSH1 0x80 DUP7 ADD DUP3 PUSH2 0x2A7D JUMP JUMPDEST POP DUP1 SWAP2 POP POP SWAP3 SWAP2 POP POP JUMP JUMPDEST PUSH1 0x60 DUP3 ADD PUSH1 0x0 DUP3 ADD MLOAD PUSH2 0x2934 PUSH1 0x0 DUP6 ADD DUP3 PUSH2 0x2A9B JUMP JUMPDEST POP PUSH1 0x20 DUP3 ADD MLOAD PUSH2 0x2947 PUSH1 0x20 DUP6 ADD DUP3 PUSH2 0x2141 JUMP JUMPDEST POP PUSH1 0x40 DUP3 ADD MLOAD PUSH2 0x295A PUSH1 0x40 DUP6 ADD DUP3 PUSH2 0x2141 JUMP JUMPDEST POP POP POP POP JUMP JUMPDEST PUSH1 0xA0 DUP3 ADD PUSH1 0x0 DUP3 ADD MLOAD PUSH2 0x2976 PUSH1 0x0 DUP6 ADD DUP3 PUSH2 0x2A7D JUMP JUMPDEST POP PUSH1 0x20 DUP3 ADD MLOAD PUSH2 0x2989 PUSH1 0x20 DUP6 ADD DUP3 PUSH2 0x2123 JUMP JUMPDEST POP PUSH1 0x40 DUP3 ADD MLOAD PUSH2 0x299C PUSH1 0x40 DUP6 ADD DUP3 PUSH2 0x2141 JUMP JUMPDEST POP PUSH1 0x60 DUP3 ADD MLOAD PUSH2 0x29AF PUSH1 0x60 DUP6 ADD DUP3 PUSH2 0x2141 JUMP JUMPDEST POP PUSH1 0x80 DUP3 ADD MLOAD PUSH2 0x29C2 PUSH1 0x80 DUP6 ADD DUP3 PUSH2 0x2141 JUMP JUMPDEST POP POP POP POP JUMP JUMPDEST PUSH1 0x0 PUSH1 0x40 DUP4 ADD PUSH1 0x0 DUP4 ADD MLOAD DUP5 DUP3 SUB PUSH1 0x0 DUP7 ADD MSTORE PUSH2 0x29E5 DUP3 DUP3 PUSH2 0x21AF JUMP JUMPDEST SWAP2 POP POP PUSH1 0x20 DUP4 ADD MLOAD DUP5 DUP3 SUB PUSH1 0x20 DUP7 ADD MSTORE PUSH2 0x29FF DUP3 DUP3 PUSH2 0x21AF JUMP JUMPDEST SWAP2 POP POP DUP1 SWAP2 POP POP SWAP3 SWAP2 POP POP JUMP JUMPDEST PUSH1 0x0 PUSH1 0x40 DUP4 ADD PUSH1 0x0 DUP4 ADD MLOAD DUP5 DUP3 SUB PUSH1 0x0 DUP7 ADD MSTORE PUSH2 0x2A29 DUP3 DUP3 PUSH2 0x21AF JUMP JUMPDEST SWAP2 POP POP PUSH1 0x20 DUP4 ADD MLOAD DUP5 DUP3 SUB PUSH1 0x20 DUP7 ADD MSTORE PUSH2 0x2A43 DUP3 DUP3 PUSH2 0x21AF JUMP JUMPDEST SWAP2 POP POP DUP1 SWAP2 POP POP SWAP3 SWAP2 POP POP JUMP JUMPDEST PUSH2 0x2A59 DUP2 PUSH2 0x3249 JUMP JUMPDEST DUP3 MSTORE POP POP JUMP JUMPDEST PUSH2 0x2A68 DUP2 PUSH2 0x3269 JUMP JUMPDEST DUP3 MSTORE POP POP JUMP JUMPDEST PUSH2 0x2A77 DUP2 PUSH2 0x3269 JUMP JUMPDEST DUP3 MSTORE POP POP JUMP JUMPDEST PUSH2 0x2A86 DUP2 PUSH2 0x3273 JUMP JUMPDEST DUP3 MSTORE POP POP JUMP JUMPDEST PUSH2 0x2A95 DUP2 PUSH2 0x3273 JUMP JUMPDEST DUP3 MSTORE POP POP JUMP JUMPDEST PUSH2 0x2AA4 DUP2 PUSH2 0x3285 JUMP JUMPDEST DUP3 MSTORE POP POP JUMP JUMPDEST PUSH2 0x2AB3 DUP2 PUSH2 0x3285 JUMP JUMPDEST DUP3 MSTORE POP POP JUMP JUMPDEST PUSH1 0x0 PUSH2 0x2AC5 DUP3 DUP5 PUSH2 0x2221 JUMP JUMPDEST SWAP2 POP DUP2 SWAP1 POP SWAP3 SWAP2 POP POP JUMP JUMPDEST PUSH1 0x0 PUSH2 0x2ADC DUP3 DUP6 PUSH2 0x2221 JUMP JUMPDEST SWAP2 POP PUSH2 0x2AE8 DUP3 DUP5 PUSH2 0x215F JUMP JUMPDEST PUSH1 0x20 DUP3 ADD SWAP2 POP DUP2 SWAP1 POP SWAP4 SWAP3 POP POP POP JUMP JUMPDEST PUSH1 0x0 PUSH1 0x20 DUP3 ADD SWAP1 POP PUSH2 0x2B0D PUSH1 0x0 DUP4 ADD DUP5 PUSH2 0x2150 JUMP JUMPDEST SWAP3 SWAP2 POP POP JUMP JUMPDEST PUSH1 0x0 PUSH1 0x40 DUP3 ADD SWAP1 POP PUSH2 0x2B28 PUSH1 0x0 DUP4 ADD DUP5 PUSH2 0x2150 JUMP JUMPDEST DUP2 DUP2 SUB PUSH1 0x20 DUP4 ADD MSTORE PUSH2 0x2B39 DUP2 PUSH2 0x2576 JUMP JUMPDEST SWAP1 POP SWAP3 SWAP2 POP POP JUMP JUMPDEST PUSH1 0x0 PUSH1 0x80 DUP3 ADD SWAP1 POP PUSH2 0x2B56 PUSH1 0x0 DUP4 ADD DUP8 PUSH2 0x2150 JUMP JUMPDEST PUSH2 0x2B63 PUSH1 0x20 DUP4 ADD DUP7 PUSH2 0x2AAA JUMP JUMPDEST PUSH2 0x2B70 PUSH1 0x40 DUP4 ADD DUP6 PUSH2 0x2150 JUMP JUMPDEST PUSH2 0x2B7D PUSH1 0x60 DUP4 ADD DUP5 PUSH2 0x2150 JUMP JUMPDEST SWAP6 SWAP5 POP POP POP POP POP JUMP JUMPDEST PUSH1 0x0 PUSH1 0x20 DUP3 ADD SWAP1 POP DUP2 DUP2 SUB PUSH1 0x0 DUP4 ADD MSTORE PUSH2 0x2BA0 DUP2 DUP5 PUSH2 0x21E8 JUMP JUMPDEST SWAP1 POP SWAP3 SWAP2 POP POP JUMP JUMPDEST PUSH1 0x0 PUSH1 0x20 DUP3 ADD SWAP1 POP DUP2 DUP2 SUB PUSH1 0x0 DUP4 ADD MSTORE PUSH2 0x2BC2 DUP2 DUP5 PUSH2 0x2176 JUMP JUMPDEST SWAP1 POP SWAP3 SWAP2 POP POP JUMP JUMPDEST PUSH1 0x0 PUSH1 0x20 DUP3 ADD SWAP1 POP DUP2 DUP2 SUB PUSH1 0x0 DUP4 ADD MSTORE PUSH2 0x2BE3 DUP2 PUSH2 0x2252 JUMP JUMPDEST SWAP1 POP SWAP2 SWAP1 POP JUMP JUMPDEST PUSH1 0x0 PUSH1 0x20 DUP3 ADD SWAP1 POP DUP2 DUP2 SUB PUSH1 0x0 DUP4 ADD MSTORE PUSH2 0x2C03 DUP2 PUSH2 0x22DE JUMP JUMPDEST SWAP1 POP SWAP2 SWAP1 POP JUMP JUMPDEST PUSH1 0x0 PUSH1 0x20 DUP3 ADD SWAP1 POP DUP2 DUP2 SUB PUSH1 0x0 DUP4 ADD MSTORE PUSH2 0x2C23 DUP2 PUSH2 0x231E JUMP JUMPDEST SWAP1 POP SWAP2 SWAP1 POP JUMP JUMPDEST PUSH1 0x0 PUSH1 0x20 DUP3 ADD SWAP1 POP DUP2 DUP2 SUB PUSH1 0x0 DUP4 ADD MSTORE PUSH2 0x2C43 DUP2 PUSH2 0x235E JUMP JUMPDEST SWAP1 POP SWAP2 SWAP1 POP JUMP JUMPDEST PUSH1 0x0 PUSH1 0x20 DUP3 ADD SWAP1 POP DUP2 DUP2 SUB PUSH1 0x0 DUP4 ADD MSTORE PUSH2 0x2C63 DUP2 PUSH2 0x239E JUMP JUMPDEST SWAP1 POP SWAP2 SWAP1 POP JUMP JUMPDEST PUSH1 0x0 PUSH1 0x20 DUP3 ADD SWAP1 POP DUP2 DUP2 SUB PUSH1 0x0 DUP4 ADD MSTORE PUSH2 0x2C83 DUP2 PUSH2 0x23DE JUMP JUMPDEST SWAP1 POP SWAP2 SWAP1 POP JUMP JUMPDEST PUSH1 0x0 PUSH1 0x20 DUP3 ADD SWAP1 POP DUP2 DUP2 SUB PUSH1 0x0 DUP4 ADD MSTORE PUSH2 0x2CA3 DUP2 PUSH2 0x241E JUMP JUMPDEST SWAP1 POP SWAP2 SWAP1 POP JUMP JUMPDEST PUSH1 0x0 PUSH1 0x20 DUP3 ADD SWAP1 POP DUP2 DUP2 SUB PUSH1 0x0 DUP4 ADD MSTORE PUSH2 0x2CC3 DUP2 PUSH2 0x245E JUMP JUMPDEST SWAP1 POP SWAP2 SWAP1 POP JUMP JUMPDEST PUSH1 0x0 PUSH1 0x20 DUP3 ADD SWAP1 POP DUP2 DUP2 SUB PUSH1 0x0 DUP4 ADD MSTORE PUSH2 0x2CE3 DUP2 PUSH2 0x24EA JUMP JUMPDEST SWAP1 POP SWAP2 SWAP1 POP JUMP JUMPDEST PUSH1 0x0 PUSH1 0x20 DUP3 ADD SWAP1 POP DUP2 DUP2 SUB PUSH1 0x0 DUP4 ADD MSTORE PUSH2 0x2D03 DUP2 PUSH2 0x25B6 JUMP JUMPDEST SWAP1 POP SWAP2 SWAP1 POP JUMP JUMPDEST PUSH1 0x0 PUSH1 0x20 DUP3 ADD SWAP1 POP DUP2 DUP2 SUB PUSH1 0x0 DUP4 ADD MSTORE PUSH2 0x2D23 DUP2 PUSH2 0x2642 JUMP JUMPDEST SWAP1 POP SWAP2 SWAP1 POP JUMP JUMPDEST PUSH1 0x0 PUSH1 0x20 DUP3 ADD SWAP1 POP DUP2 DUP2 SUB PUSH1 0x0 DUP4 ADD MSTORE PUSH2 0x2D43 DUP2 PUSH2 0x26CE JUMP JUMPDEST SWAP1 POP SWAP2 SWAP1 POP JUMP JUMPDEST PUSH1 0x0 PUSH1 0x20 DUP3 ADD SWAP1 POP DUP2 DUP2 SUB PUSH1 0x0 DUP4 ADD MSTORE PUSH2 0x2D63 DUP2 PUSH2 0x2734 JUMP JUMPDEST SWAP1 POP SWAP2 SWAP1 POP JUMP JUMPDEST PUSH1 0x0 PUSH1 0x20 DUP3 ADD SWAP1 POP DUP2 DUP2 SUB PUSH1 0x0 DUP4 ADD MSTORE PUSH2 0x2D83 DUP2 PUSH2 0x279A JUMP JUMPDEST SWAP1 POP SWAP2 SWAP1 POP JUMP JUMPDEST PUSH1 0x0 PUSH1 0x20 DUP3 ADD SWAP1 POP DUP2 DUP2 SUB PUSH1 0x0 DUP4 ADD MSTORE PUSH2 0x2DA3 DUP2 PUSH2 0x27DA JUMP JUMPDEST SWAP1 POP SWAP2 SWAP1 POP JUMP JUMPDEST PUSH1 0x0 PUSH1 0xA0 DUP3 ADD SWAP1 POP PUSH2 0x2DBF PUSH1 0x0 DUP4 ADD DUP5 PUSH2 0x2840 JUMP JUMPDEST SWAP3 SWAP2 POP POP JUMP JUMPDEST PUSH1 0x0 PUSH1 0xA0 DUP3 ADD SWAP1 POP PUSH2 0x2DDA PUSH1 0x0 DUP4 ADD DUP5 PUSH2 0x2960 JUMP JUMPDEST SWAP3 SWAP2 POP POP JUMP JUMPDEST PUSH1 0x0 PUSH1 0x80 DUP3 ADD SWAP1 POP DUP2 DUP2 SUB PUSH1 0x0 DUP4 ADD MSTORE PUSH2 0x2DFA DUP2 DUP8 PUSH2 0x2A0C JUMP JUMPDEST SWAP1 POP DUP2 DUP2 SUB PUSH1 0x20 DUP4 ADD MSTORE PUSH2 0x2E0E DUP2 DUP7 PUSH2 0x2A0C JUMP JUMPDEST SWAP1 POP PUSH2 0x2E1D PUSH1 0x40 DUP4 ADD DUP6 PUSH2 0x2A8C JUMP JUMPDEST PUSH2 0x2E2A PUSH1 0x60 DUP4 ADD DUP5 PUSH2 0x2A6E JUMP JUMPDEST SWAP6 SWAP5 POP POP POP POP POP JUMP JUMPDEST PUSH1 0x0 PUSH1 0x60 DUP3 ADD SWAP1 POP PUSH2 0x2E48 PUSH1 0x0 DUP4 ADD DUP7 PUSH2 0x2A6E JUMP JUMPDEST DUP2 DUP2 SUB PUSH1 0x20 DUP4 ADD MSTORE PUSH2 0x2E5A DUP2 DUP6 PUSH2 0x1F94 JUMP JUMPDEST SWAP1 POP PUSH2 0x2E69 PUSH1 0x40 DUP4 ADD DUP5 PUSH2 0x2A8C JUMP JUMPDEST SWAP5 SWAP4 POP POP POP POP JUMP JUMPDEST PUSH1 0x0 PUSH1 0x20 DUP3 ADD SWAP1 POP PUSH2 0x2E86 PUSH1 0x0 DUP4 ADD DUP5 PUSH2 0x2A8C JUMP JUMPDEST SWAP3 SWAP2 POP POP JUMP JUMPDEST PUSH1 0x0 PUSH1 0x60 DUP3 ADD SWAP1 POP PUSH2 0x2EA1 PUSH1 0x0 DUP4 ADD DUP7 PUSH2 0x2A8C JUMP JUMPDEST PUSH2 0x2EAE PUSH1 0x20 DUP4 ADD DUP6 PUSH2 0x1F27 JUMP JUMPDEST DUP2 DUP2 SUB PUSH1 0x40 DUP4 ADD MSTORE PUSH2 0x2EC0 DUP2 DUP5 PUSH2 0x2176 JUMP JUMPDEST SWAP1 POP SWAP5 SWAP4 POP POP POP POP JUMP JUMPDEST PUSH1 0x0 PUSH2 0x100 DUP3 ADD SWAP1 POP PUSH2 0x2EE0 PUSH1 0x0 DUP4 ADD DUP12 PUSH2 0x2A8C JUMP JUMPDEST PUSH2 0x2EED PUSH1 0x20 DUP4 ADD DUP11 PUSH2 0x2A8C JUMP JUMPDEST PUSH2 0x2EFA PUSH1 0x40 DUP4 ADD DUP10 PUSH2 0x1F27 JUMP JUMPDEST PUSH2 0x2F07 PUSH1 0x60 DUP4 ADD DUP9 PUSH2 0x2132 JUMP JUMPDEST DUP2 DUP2 SUB PUSH1 0x80 DUP4 ADD MSTORE PUSH2 0x2F19 DUP2 DUP8 PUSH2 0x28A8 JUMP JUMPDEST SWAP1 POP DUP2 DUP2 SUB PUSH1 0xA0 DUP4 ADD MSTORE PUSH2 0x2F2D DUP2 DUP7 PUSH2 0x2050 JUMP JUMPDEST SWAP1 POP DUP2 DUP2 SUB PUSH1 0xC0 DUP4 ADD MSTORE PUSH2 0x2F41 DUP2 DUP6 PUSH2 0x1FF2 JUMP JUMPDEST SWAP1 POP DUP2 DUP2 SUB PUSH1 0xE0 DUP4 ADD MSTORE PUSH2 0x2F55 DUP2 DUP5 PUSH2 0x20C5 JUMP JUMPDEST SWAP1 POP SWAP10 SWAP9 POP POP POP POP POP POP POP POP POP JUMP JUMPDEST PUSH1 0x0 PUSH1 0x60 DUP3 ADD SWAP1 POP PUSH2 0x2F79 PUSH1 0x0 DUP4 ADD DUP7 PUSH2 0x2A8C JUMP JUMPDEST PUSH2 0x2F86 PUSH1 0x20 DUP4 ADD DUP6 PUSH2 0x2A8C JUMP JUMPDEST PUSH2 0x2F93 PUSH1 0x40 DUP4 ADD DUP5 PUSH2 0x2A50 JUMP JUMPDEST SWAP5 SWAP4 POP POP POP POP JUMP JUMPDEST PUSH1 0x0 PUSH1 0x40 MLOAD SWAP1 POP DUP2 DUP2 ADD DUP2 DUP2 LT PUSH8 0xFFFFFFFFFFFFFFFF DUP3 GT OR ISZERO PUSH2 0x2FBE JUMPI PUSH1 0x0 DUP1 REVERT JUMPDEST DUP1 PUSH1 0x40 MSTORE POP SWAP2 SWAP1 POP JUMP JUMPDEST PUSH1 0x0 PUSH8 0xFFFFFFFFFFFFFFFF DUP3 GT ISZERO PUSH2 0x2FDF JUMPI PUSH1 0x0 DUP1 REVERT JUMPDEST PUSH1 0x20 DUP3 MUL SWAP1 POP PUSH1 0x20 DUP2 ADD SWAP1 POP SWAP2 SWAP1 POP JUMP JUMPDEST PUSH1 0x0 PUSH8 0xFFFFFFFFFFFFFFFF DUP3 GT ISZERO PUSH2 0x3007 JUMPI PUSH1 0x0 DUP1 REVERT JUMPDEST PUSH1 0x20 DUP3 MUL SWAP1 POP SWAP2 SWAP1 POP JUMP JUMPDEST PUSH1 0x0 PUSH8 0xFFFFFFFFFFFFFFFF DUP3 GT ISZERO PUSH2 0x3029 JUMPI PUSH1 0x0 DUP1 REVERT JUMPDEST PUSH1 0x20 DUP3 MUL SWAP1 POP PUSH1 0x20 DUP2 ADD SWAP1 POP SWAP2 SWAP1 POP JUMP JUMPDEST PUSH1 0x0 PUSH8 0xFFFFFFFFFFFFFFFF DUP3 GT ISZERO PUSH2 0x3051 JUMPI PUSH1 0x0 DUP1 REVERT JUMPDEST PUSH1 0x20 DUP3 MUL SWAP1 POP SWAP2 SWAP1 POP JUMP JUMPDEST PUSH1 0x0 PUSH8 0xFFFFFFFFFFFFFFFF DUP3 GT ISZERO PUSH2 0x3073 JUMPI PUSH1 0x0 DUP1 REVERT JUMPDEST PUSH1 0x20 DUP3 MUL SWAP1 POP PUSH1 0x20 DUP2 ADD SWAP1 POP SWAP2 SWAP1 POP JUMP JUMPDEST PUSH1 0x0 PUSH8 0xFFFFFFFFFFFFFFFF DUP3 GT ISZERO PUSH2 0x309B JUMPI PUSH1 0x0 DUP1 REVERT JUMPDEST PUSH1 0x20 DUP3 MUL SWAP1 POP PUSH1 0x20 DUP2 ADD SWAP1 POP SWAP2 SWAP1 POP JUMP JUMPDEST PUSH1 0x0 PUSH8 0xFFFFFFFFFFFFFFFF DUP3 GT ISZERO PUSH2 0x30C3 JUMPI PUSH1 0x0 DUP1 REVERT JUMPDEST PUSH1 0x1F NOT PUSH1 0x1F DUP4 ADD AND SWAP1 POP PUSH1 0x20 DUP2 ADD SWAP1 POP SWAP2 SWAP1 POP JUMP JUMPDEST PUSH1 0x0 DUP2 SWAP1 POP PUSH1 0x20 DUP3 ADD SWAP1 POP SWAP2 SWAP1 POP JUMP JUMPDEST PUSH1 0x0 DUP2 SWAP1 POP PUSH1 0x20 DUP3 ADD SWAP1 POP SWAP2 SWAP1 POP JUMP JUMPDEST PUSH1 0x0 DUP2 SWAP1 POP PUSH1 0x20 DUP3 ADD SWAP1 POP SWAP2 SWAP1 POP JUMP JUMPDEST PUSH1 0x0 DUP2 SWAP1 POP PUSH1 0x20 DUP3 ADD SWAP1 POP SWAP2 SWAP1 POP JUMP JUMPDEST PUSH1 0x0 DUP2 MLOAD SWAP1 POP SWAP2 SWAP1 POP JUMP JUMPDEST PUSH1 0x0 DUP2 MLOAD SWAP1 POP SWAP2 SWAP1 POP JUMP JUMPDEST PUSH1 0x0 DUP2 MLOAD SWAP1 POP SWAP2 SWAP1 POP JUMP JUMPDEST PUSH1 0x0 DUP2 MLOAD SWAP1 POP SWAP2 SWAP1 POP JUMP JUMPDEST PUSH1 0x0 DUP2 MLOAD SWAP1 POP SWAP2 SWAP1 POP JUMP JUMPDEST PUSH1 0x0 DUP2 MLOAD SWAP1 POP SWAP2 SWAP1 POP JUMP JUMPDEST PUSH1 0x0 PUSH1 0x20 DUP3 ADD SWAP1 POP SWAP2 SWAP1 POP JUMP JUMPDEST PUSH1 0x0 PUSH1 0x20 DUP3 ADD SWAP1 POP SWAP2 SWAP1 POP JUMP JUMPDEST PUSH1 0x0 PUSH1 0x20 DUP3 ADD SWAP1 POP SWAP2 SWAP1 POP JUMP JUMPDEST PUSH1 0x0 PUSH1 0x20 DUP3 ADD SWAP1 POP SWAP2 SWAP1 POP JUMP JUMPDEST PUSH1 0x0 DUP3 DUP3 MSTORE PUSH1 0x20 DUP3 ADD SWAP1 POP SWAP3 SWAP2 POP POP JUMP JUMPDEST PUSH1 0x0 DUP3 DUP3 MSTORE PUSH1 0x20 DUP3 ADD SWAP1 POP SWAP3 SWAP2 POP POP JUMP JUMPDEST PUSH1 0x0 DUP3 DUP3 MSTORE PUSH1 0x20 DUP3 ADD SWAP1 POP SWAP3 SWAP2 POP POP JUMP JUMPDEST PUSH1 0x0 DUP3 DUP3 MSTORE PUSH1 0x20 DUP3 ADD SWAP1 POP SWAP3 SWAP2 POP POP JUMP JUMPDEST PUSH1 0x0 DUP3 DUP3 MSTORE PUSH1 0x20 DUP3 ADD SWAP1 POP SWAP3 SWAP2 POP POP JUMP JUMPDEST PUSH1 0x0 DUP3 DUP3 MSTORE PUSH1 0x20 DUP3 ADD SWAP1 POP SWAP3 SWAP2 POP POP JUMP JUMPDEST PUSH1 0x0 DUP3 DUP3 MSTORE PUSH1 0x20 DUP3 ADD SWAP1 POP SWAP3 SWAP2 POP POP JUMP JUMPDEST PUSH1 0x0 DUP2 SWAP1 POP SWAP3 SWAP2 POP POP JUMP JUMPDEST PUSH1 0x0 DUP3 DUP3 MSTORE PUSH1 0x20 DUP3 ADD SWAP1 POP SWAP3 SWAP2 POP POP JUMP JUMPDEST PUSH1 0x0 PUSH2 0x322C DUP3 PUSH2 0x3249 JUMP JUMPDEST SWAP1 POP SWAP2 SWAP1 POP JUMP JUMPDEST PUSH1 0x0 DUP2 ISZERO ISZERO SWAP1 POP SWAP2 SWAP1 POP JUMP JUMPDEST PUSH1 0x0 DUP2 SWAP1 POP SWAP2 SWAP1 POP JUMP JUMPDEST PUSH1 0x0 PUSH20 0xFFFFFFFFFFFFFFFFFFFFFFFFFFFFFFFFFFFFFFFF DUP3 AND SWAP1 POP SWAP2 SWAP1 POP JUMP JUMPDEST PUSH1 0x0 DUP2 SWAP1 POP SWAP2 SWAP1 POP JUMP JUMPDEST PUSH1 0x0 PUSH6 0xFFFFFFFFFFFF DUP3 AND SWAP1 POP SWAP2 SWAP1 POP JUMP JUMPDEST PUSH1 0x0 PUSH1 0xFF DUP3 AND SWAP1 POP SWAP2 SWAP1 POP JUMP JUMPDEST DUP3 DUP2 DUP4 CALLDATACOPY PUSH1 0x0 DUP4 DUP4 ADD MSTORE POP POP POP JUMP JUMPDEST PUSH1 0x0 JUMPDEST DUP4 DUP2 LT ISZERO PUSH2 0x32BF JUMPI DUP1 DUP3 ADD MLOAD DUP2 DUP5 ADD MSTORE PUSH1 0x20 DUP2 ADD SWAP1 POP PUSH2 0x32A4 JUMP JUMPDEST DUP4 DUP2 GT ISZERO PUSH2 0x32CE JUMPI PUSH1 0x0 DUP5 DUP5 ADD MSTORE JUMPDEST POP POP POP POP JUMP JUMPDEST PUSH1 0x0 DUP2 SWAP1 POP SWAP2 SWAP1 POP JUMP JUMPDEST PUSH1 0x0 PUSH1 0x1F NOT PUSH1 0x1F DUP4 ADD AND SWAP1 POP SWAP2 SWAP1 POP JUMP JUMPDEST PUSH2 0x32F8 DUP2 PUSH2 0x3221 JUMP JUMPDEST DUP2 EQ PUSH2 0x3303 JUMPI PUSH1 0x0 DUP1 REVERT JUMPDEST POP JUMP JUMPDEST PUSH2 0x330F DUP2 PUSH2 0x3233 JUMP JUMPDEST DUP2 EQ PUSH2 0x331A JUMPI PUSH1 0x0 DUP1 REVERT JUMPDEST POP JUMP JUMPDEST PUSH2 0x3326 DUP2 PUSH2 0x323F JUMP JUMPDEST DUP2 EQ PUSH2 0x3331 JUMPI PUSH1 0x0 DUP1 REVERT JUMPDEST POP JUMP JUMPDEST PUSH2 0x333D DUP2 PUSH2 0x3269 JUMP JUMPDEST DUP2 EQ PUSH2 0x3348 JUMPI PUSH1 0x0 DUP1 REVERT JUMPDEST POP JUMP JUMPDEST PUSH2 0x3354 DUP2 PUSH2 0x3273 JUMP JUMPDEST DUP2 EQ PUSH2 0x335F JUMPI PUSH1 0x0 DUP1 REVERT JUMPDEST POP JUMP JUMPDEST PUSH2 0x336B DUP2 PUSH2 0x3285 JUMP JUMPDEST DUP2 EQ PUSH2 0x3376 JUMPI PUSH1 0x0 DUP1 REVERT JUMPDEST POP JUMP INVALID LOG2 PUSH5 0x6970667358 0x22 SLT KECCAK256 0x5C PUSH30 0x822E1AA45D66B38EA6A4B731EA722EFC510908855DD2C73C956F2D5DF069 PUSH5 0x736F6C6343 STOP MOD MUL STOP CALLER "
    }
  },
  "sourcePath": "contracts/ForceMove.sol",
  "contractName": "ForceMove",
  "compiler": {
    "version": "unknown"
  }
}