{
  "abi": [
    {
      "anonymous": false,
      "inputs": [
        {
          "indexed": true,
          "internalType": "bytes32",
          "name": "channelId",
          "type": "bytes32"
        },
        {
          "indexed": false,
          "internalType": "uint48",
          "name": "newTurnNumRecord",
          "type": "uint48"
        }
      ],
      "name": "ChallengeCleared",
      "type": "event"
    },
    {
      "anonymous": false,
      "inputs": [
        {
          "indexed": true,
          "internalType": "bytes32",
          "name": "channelId",
          "type": "bytes32"
        },
        {
          "indexed": false,
          "internalType": "uint48",
          "name": "turnNumRecord",
          "type": "uint48"
        },
        {
          "indexed": false,
          "internalType": "uint48",
          "name": "finalizesAt",
          "type": "uint48"
        },
        {
          "indexed": false,
          "internalType": "address",
          "name": "challenger",
          "type": "address"
        },
        {
          "indexed": false,
          "internalType": "bool",
          "name": "isFinal",
          "type": "bool"
        },
        {
          "components": [
            {
              "internalType": "uint256",
              "name": "chainId",
              "type": "uint256"
            },
            {
              "internalType": "address[]",
              "name": "participants",
              "type": "address[]"
            },
            {
              "internalType": "uint48",
              "name": "channelNonce",
              "type": "uint48"
            },
            {
              "internalType": "address",
              "name": "appDefinition",
              "type": "address"
            },
            {
              "internalType": "uint48",
              "name": "challengeDuration",
              "type": "uint48"
            }
          ],
          "indexed": false,
          "internalType": "struct IForceMove.FixedPart",
          "name": "fixedPart",
          "type": "tuple"
        },
        {
          "components": [
            {
              "internalType": "bytes",
              "name": "outcome",
              "type": "bytes"
            },
            {
              "internalType": "bytes",
              "name": "appData",
              "type": "bytes"
            }
          ],
          "indexed": false,
          "internalType": "struct ForceMoveApp.VariablePart[]",
          "name": "variableParts",
          "type": "tuple[]"
        },
        {
          "components": [
            {
              "internalType": "uint8",
              "name": "v",
              "type": "uint8"
            },
            {
              "internalType": "bytes32",
              "name": "r",
              "type": "bytes32"
            },
            {
              "internalType": "bytes32",
              "name": "s",
              "type": "bytes32"
            }
          ],
          "indexed": false,
          "internalType": "struct IForceMove.Signature[]",
          "name": "sigs",
          "type": "tuple[]"
        },
        {
          "indexed": false,
          "internalType": "uint8[]",
          "name": "whoSignedWhat",
          "type": "uint8[]"
        }
      ],
      "name": "ChallengeRegistered",
      "type": "event"
    },
    {
      "anonymous": false,
      "inputs": [
        {
          "indexed": true,
          "internalType": "bytes32",
          "name": "channelId",
          "type": "bytes32"
        }
      ],
      "name": "Concluded",
      "type": "event"
    },
    {
      "inputs": [
        {
          "internalType": "bytes32",
          "name": "",
          "type": "bytes32"
        }
      ],
      "name": "channelStorageHashes",
      "outputs": [
        {
          "internalType": "bytes32",
          "name": "",
          "type": "bytes32"
        }
      ],
      "stateMutability": "view",
      "type": "function"
    },
    {
      "inputs": [
        {
          "components": [
            {
              "internalType": "uint256",
              "name": "chainId",
              "type": "uint256"
            },
            {
              "internalType": "address[]",
              "name": "participants",
              "type": "address[]"
            },
            {
              "internalType": "uint48",
              "name": "channelNonce",
              "type": "uint48"
            },
            {
              "internalType": "address",
              "name": "appDefinition",
              "type": "address"
            },
            {
              "internalType": "uint48",
              "name": "challengeDuration",
              "type": "uint48"
            }
          ],
          "internalType": "struct IForceMove.FixedPart",
          "name": "fixedPart",
          "type": "tuple"
        },
        {
          "internalType": "uint48",
          "name": "largestTurnNum",
          "type": "uint48"
        },
        {
          "components": [
            {
              "internalType": "bytes",
              "name": "outcome",
              "type": "bytes"
            },
            {
              "internalType": "bytes",
              "name": "appData",
              "type": "bytes"
            }
          ],
          "internalType": "struct ForceMoveApp.VariablePart[]",
          "name": "variableParts",
          "type": "tuple[]"
        },
        {
          "internalType": "uint8",
          "name": "isFinalCount",
          "type": "uint8"
        },
        {
          "components": [
            {
              "internalType": "uint8",
              "name": "v",
              "type": "uint8"
            },
            {
              "internalType": "bytes32",
              "name": "r",
              "type": "bytes32"
            },
            {
              "internalType": "bytes32",
              "name": "s",
              "type": "bytes32"
            }
          ],
          "internalType": "struct IForceMove.Signature[]",
          "name": "sigs",
          "type": "tuple[]"
        },
        {
          "internalType": "uint8[]",
          "name": "whoSignedWhat",
          "type": "uint8[]"
        }
      ],
      "name": "checkpoint",
      "outputs": [],
      "stateMutability": "nonpayable",
      "type": "function"
    },
    {
      "inputs": [
        {
          "internalType": "uint48",
          "name": "largestTurnNum",
          "type": "uint48"
        },
        {
          "components": [
            {
              "internalType": "uint256",
              "name": "chainId",
              "type": "uint256"
            },
            {
              "internalType": "address[]",
              "name": "participants",
              "type": "address[]"
            },
            {
              "internalType": "uint48",
              "name": "channelNonce",
              "type": "uint48"
            },
            {
              "internalType": "address",
              "name": "appDefinition",
              "type": "address"
            },
            {
              "internalType": "uint48",
              "name": "challengeDuration",
              "type": "uint48"
            }
          ],
          "internalType": "struct IForceMove.FixedPart",
          "name": "fixedPart",
          "type": "tuple"
        },
        {
          "internalType": "bytes32",
          "name": "appPartHash",
          "type": "bytes32"
        },
        {
          "internalType": "bytes32",
          "name": "outcomeHash",
          "type": "bytes32"
        },
        {
          "internalType": "uint8",
          "name": "numStates",
          "type": "uint8"
        },
        {
          "internalType": "uint8[]",
          "name": "whoSignedWhat",
          "type": "uint8[]"
        },
        {
          "components": [
            {
              "internalType": "uint8",
              "name": "v",
              "type": "uint8"
            },
            {
              "internalType": "bytes32",
              "name": "r",
              "type": "bytes32"
            },
            {
              "internalType": "bytes32",
              "name": "s",
              "type": "bytes32"
            }
          ],
          "internalType": "struct IForceMove.Signature[]",
          "name": "sigs",
          "type": "tuple[]"
        }
      ],
      "name": "conclude",
      "outputs": [],
      "stateMutability": "nonpayable",
      "type": "function"
    },
    {
      "inputs": [
        {
          "internalType": "uint48",
          "name": "largestTurnNum",
          "type": "uint48"
        },
        {
          "components": [
            {
              "internalType": "uint256",
              "name": "chainId",
              "type": "uint256"
            },
            {
              "internalType": "address[]",
              "name": "participants",
              "type": "address[]"
            },
            {
              "internalType": "uint48",
              "name": "channelNonce",
              "type": "uint48"
            },
            {
              "internalType": "address",
              "name": "appDefinition",
              "type": "address"
            },
            {
              "internalType": "uint48",
              "name": "challengeDuration",
              "type": "uint48"
            }
          ],
          "internalType": "struct IForceMove.FixedPart",
          "name": "fixedPart",
          "type": "tuple"
        },
        {
          "internalType": "bytes32",
          "name": "appPartHash",
          "type": "bytes32"
        },
        {
          "internalType": "bytes",
          "name": "outcomeBytes",
          "type": "bytes"
        },
        {
          "internalType": "uint8",
          "name": "numStates",
          "type": "uint8"
        },
        {
          "internalType": "uint8[]",
          "name": "whoSignedWhat",
          "type": "uint8[]"
        },
        {
          "components": [
            {
              "internalType": "uint8",
              "name": "v",
              "type": "uint8"
            },
            {
              "internalType": "bytes32",
              "name": "r",
              "type": "bytes32"
            },
            {
              "internalType": "bytes32",
              "name": "s",
              "type": "bytes32"
            }
          ],
          "internalType": "struct IForceMove.Signature[]",
          "name": "sigs",
          "type": "tuple[]"
        }
      ],
      "name": "concludePushOutcomeAndTransferAll",
      "outputs": [],
      "stateMutability": "nonpayable",
      "type": "function"
    },
    {
      "inputs": [
        {
          "components": [
            {
              "internalType": "uint256",
              "name": "chainId",
              "type": "uint256"
            },
            {
              "internalType": "address[]",
              "name": "participants",
              "type": "address[]"
            },
            {
              "internalType": "uint48",
              "name": "channelNonce",
              "type": "uint48"
            },
            {
              "internalType": "address",
              "name": "appDefinition",
              "type": "address"
            },
            {
              "internalType": "uint48",
              "name": "challengeDuration",
              "type": "uint48"
            }
          ],
          "internalType": "struct IForceMove.FixedPart",
          "name": "fixedPart",
          "type": "tuple"
        },
        {
          "internalType": "uint48",
          "name": "largestTurnNum",
          "type": "uint48"
        },
        {
          "components": [
            {
              "internalType": "bytes",
              "name": "outcome",
              "type": "bytes"
            },
            {
              "internalType": "bytes",
              "name": "appData",
              "type": "bytes"
            }
          ],
          "internalType": "struct ForceMoveApp.VariablePart[]",
          "name": "variableParts",
          "type": "tuple[]"
        },
        {
          "internalType": "uint8",
          "name": "isFinalCount",
          "type": "uint8"
        },
        {
          "components": [
            {
              "internalType": "uint8",
              "name": "v",
              "type": "uint8"
            },
            {
              "internalType": "bytes32",
              "name": "r",
              "type": "bytes32"
            },
            {
              "internalType": "bytes32",
              "name": "s",
              "type": "bytes32"
            }
          ],
          "internalType": "struct IForceMove.Signature[]",
          "name": "sigs",
          "type": "tuple[]"
        },
        {
          "internalType": "uint8[]",
          "name": "whoSignedWhat",
          "type": "uint8[]"
        },
        {
          "components": [
            {
              "internalType": "uint8",
              "name": "v",
              "type": "uint8"
            },
            {
              "internalType": "bytes32",
              "name": "r",
              "type": "bytes32"
            },
            {
              "internalType": "bytes32",
              "name": "s",
              "type": "bytes32"
            }
          ],
          "internalType": "struct IForceMove.Signature",
          "name": "challengerSig",
          "type": "tuple"
        }
      ],
      "name": "forceMove",
      "outputs": [],
      "stateMutability": "nonpayable",
      "type": "function"
    },
    {
      "inputs": [
        {
          "internalType": "bytes32",
          "name": "channelId",
          "type": "bytes32"
        }
      ],
      "name": "getChannelStorage",
      "outputs": [
        {
          "internalType": "uint48",
          "name": "turnNumRecord",
          "type": "uint48"
        },
        {
          "internalType": "uint48",
          "name": "finalizesAt",
          "type": "uint48"
        },
        {
          "internalType": "uint160",
          "name": "fingerprint",
          "type": "uint160"
        }
      ],
      "stateMutability": "view",
      "type": "function"
    },
    {
      "inputs": [
        {
          "internalType": "bytes32",
          "name": "channelId",
          "type": "bytes32"
        },
        {
          "internalType": "uint48",
          "name": "turnNumRecord",
          "type": "uint48"
        },
        {
          "internalType": "uint48",
          "name": "finalizesAt",
          "type": "uint48"
        },
        {
          "internalType": "bytes32",
          "name": "stateHash",
          "type": "bytes32"
        },
        {
          "internalType": "address",
          "name": "challengerAddress",
          "type": "address"
        },
        {
          "internalType": "bytes",
          "name": "outcomeBytes",
          "type": "bytes"
        }
      ],
      "name": "pushOutcome",
      "outputs": [],
      "stateMutability": "nonpayable",
      "type": "function"
    },
    {
      "inputs": [
        {
          "internalType": "bytes32",
          "name": "channelId",
          "type": "bytes32"
        },
        {
          "internalType": "uint48",
          "name": "turnNumRecord",
          "type": "uint48"
        },
        {
          "internalType": "uint48",
          "name": "finalizesAt",
          "type": "uint48"
        },
        {
          "internalType": "bytes32",
          "name": "stateHash",
          "type": "bytes32"
        },
        {
          "internalType": "address",
          "name": "challengerAddress",
          "type": "address"
        },
        {
          "internalType": "bytes",
          "name": "outcomeBytes",
          "type": "bytes"
        }
      ],
      "name": "pushOutcomeAndTransferAll",
      "outputs": [],
      "stateMutability": "nonpayable",
      "type": "function"
    },
    {
      "inputs": [
        {
          "internalType": "address",
          "name": "challenger",
          "type": "address"
        },
        {
          "internalType": "bool[2]",
          "name": "isFinalAB",
          "type": "bool[2]"
        },
        {
          "components": [
            {
              "internalType": "uint256",
              "name": "chainId",
              "type": "uint256"
            },
            {
              "internalType": "address[]",
              "name": "participants",
              "type": "address[]"
            },
            {
              "internalType": "uint48",
              "name": "channelNonce",
              "type": "uint48"
            },
            {
              "internalType": "address",
              "name": "appDefinition",
              "type": "address"
            },
            {
              "internalType": "uint48",
              "name": "challengeDuration",
              "type": "uint48"
            }
          ],
          "internalType": "struct IForceMove.FixedPart",
          "name": "fixedPart",
          "type": "tuple"
        },
        {
          "components": [
            {
              "internalType": "bytes",
              "name": "outcome",
              "type": "bytes"
            },
            {
              "internalType": "bytes",
              "name": "appData",
              "type": "bytes"
            }
          ],
          "internalType": "struct ForceMoveApp.VariablePart[2]",
          "name": "variablePartAB",
          "type": "tuple[2]"
        },
        {
          "components": [
            {
              "internalType": "uint8",
              "name": "v",
              "type": "uint8"
            },
            {
              "internalType": "bytes32",
              "name": "r",
              "type": "bytes32"
            },
            {
              "internalType": "bytes32",
              "name": "s",
              "type": "bytes32"
            }
          ],
          "internalType": "struct IForceMove.Signature",
          "name": "sig",
          "type": "tuple"
        }
      ],
      "name": "respond",
      "outputs": [],
      "stateMutability": "nonpayable",
      "type": "function"
    },
    {
      "inputs": [
        {
          "internalType": "uint256",
          "name": "nParticipants",
          "type": "uint256"
        },
        {
          "internalType": "bool[2]",
          "name": "isFinalAB",
          "type": "bool[2]"
        },
        {
          "components": [
            {
              "internalType": "bytes",
              "name": "outcome",
              "type": "bytes"
            },
            {
              "internalType": "bytes",
              "name": "appData",
              "type": "bytes"
            }
          ],
          "internalType": "struct ForceMoveApp.VariablePart[2]",
          "name": "ab",
          "type": "tuple[2]"
        },
        {
          "internalType": "uint48",
          "name": "turnNumB",
          "type": "uint48"
        },
        {
          "internalType": "address",
          "name": "appDefinition",
          "type": "address"
        }
      ],
      "name": "validTransition",
      "outputs": [
        {
          "internalType": "bool",
          "name": "",
          "type": "bool"
        }
      ],
      "stateMutability": "pure",
      "type": "function"
    }
  ],
  "evm": {
    "bytecode": {
      "linkReferences": {},
      "object": "608060405234801561001057600080fd5b50614072806100206000396000f3fe608060405234801561001057600080fd5b506004361061009e5760003560e01c806378b9e5cb1161006657806378b9e5cb146101575780637ff6a98214610173578063eb0265141461018f578063fe9e5db9146101ab578063ff8ceb32146101dd5761009e565b80630149b762146100a35780635a04d456146100bf5780636775b173146100db5780636f65e87d1461010b57806374ce052a1461013b575b600080fd5b6100bd60048036036100b891908101906125fc565b6101f9565b005b6100d960048036036100d4919081019061251a565b61023c565b005b6100f560048036036100f091908101906127e4565b6103de565b60405161010291906136d3565b60405180910390f35b610125600480360361012091908101906124f1565b6103f8565b60405161013291906136ee565b60405180910390f35b6101556004803603610150919081019061251a565b610410565b005b610171600480360361016c91908101906126e5565b6104ad565b005b61018d60048036036101889190810190612873565b610667565b005b6101a960048036036101a49190810190612959565b610855565b005b6101c560048036036101c091908101906124f1565b610a79565b6040516101d493929190613bd3565b60405180910390f35b6101f760048036036101f291908101906123df565b610a9a565b005b600061020487610ca1565b905061020f81610ce1565b6102198187610d45565b610228868686848b8888610dab565b506102338187610e34565b50505050505050565b61024586610ee3565b60008160405160200161025891906137f7565b6040516020818303038152906040528051906020012090506102c66040518060a001604052808865ffffffffffff1681526020018765ffffffffffff1681526020018681526020018573ffffffffffffffffffffffffffffffffffffffff1681526020018381525088610f46565b6060828060200190516102dc9190810190612487565b905060008090505b81518110156103d3578181815181106102f957fe5b60200260200101516000015173ffffffffffffffffffffffffffffffffffffffff1663a3c863a38a84848151811061032d57fe5b6020026020010151602001516040516103469190613694565b60405180910390206040518363ffffffff1660e01b815260040161036b929190613709565b602060405180830381600087803b15801561038557600080fd5b505af1158015610399573d6000803e3d6000fd5b505050506040513d601f19601f820116820180604052506103bd91908101906124c8565b6103c657600080fd5b80806001019150506102e4565b505050505050505050565b60006103ed8686868686610fa5565b905095945050505050565b60006020528060005260406000206000915090505481565b61041986610ee3565b60008160405160200161042c91906137f7565b60405160208183030381529060405280519060200120905061049a6040518060a001604052808865ffffffffffff1681526020018765ffffffffffff1681526020018681526020018573ffffffffffffffffffffffffffffffffffffffff1681526020018381525088610f46565b6104a48783611272565b50505050505050565b60006104b888610ca1565b9050600060028111156104c757fe5b6104d082611392565b60028111156104db57fe5b14156104f0576104eb81886113e1565b610531565b600160028111156104fd57fe5b61050682611392565b600281111561051157fe5b1415610526576105218188610d45565b610530565b61052f81610ce1565b5b5b6000610542888888858d8a8a610dab565b90506000610555828b6020015186611448565b9050827f1f9f029de8ab3f81b5381a9bc066b421d0f215db28cc8160ec346bc6f0463c6e8a8c6080015142018460008c60ff16118f8e8d8d6040516105a1989796959493929190613b39565b60405180910390a26106456040518060a001604052808b65ffffffffffff1681526020018c60800151420165ffffffffffff1681526020018481526020018373ffffffffffffffffffffffffffffffffffffffff1681526020018a60018c51038151811061060b57fe5b60200260200101516000015160405160200161062791906137d5565b604051602081830303815290604052805190602001208152506114cc565b6000808581526020019081526020016000208190555050505050505050505050565b600061067287610ca1565b905061067d81610ce1565b60608460ff166040519080825280602002602001820160405280156106b15781602001602082028038833980820191505090505b50905060008090505b8560ff168165ffffffffffff16101561075c576040518060a001604052808760ff16600184018d010365ffffffffffff168152602001600115158152602001848152602001898152602001888152506040516020016107199190613a34565b60405160208183030381529060405280519060200120828265ffffffffffff168151811061074357fe5b60200260200101818152505080806001019150506106ba565b5061076e898960200151838688611561565b6107ad576040517f08c379a00000000000000000000000000000000000000000000000000000000081526004016107a490613999565b60405180910390fd5b6108076040518060a00160405280600065ffffffffffff1681526020014265ffffffffffff1681526020016000801b8152602001600073ffffffffffffffffffffffffffffffffffffffff168152602001888152506114cc565b60008084815260200190815260200160002081905550817f3e659e9176c25a527f4575e010a270b3e1f8e9d1e94f5e49d4a91dd2c59e8cf860405160405180910390a2505050505050505050565b600061086087610ca1565b905061086b81610ce1565b60608460ff1660405190808252806020026020018201604052801561089f5781602001602082028038833980820191505090505b5090506000866040516020016108b591906137f7565b60405160208183030381529060405280519060200120905060008090505b8660ff168165ffffffffffff161015610975576040518060a001604052808860ff16600184018e010365ffffffffffff1681526020016001151581526020018581526020018a8152602001838152506040516020016109329190613a34565b60405160208183030381529060405280519060200120838265ffffffffffff168151811061095c57fe5b60200260200101818152505080806001019150506108d3565b506109878a8a60200151848789611561565b6109c6576040517f08c379a00000000000000000000000000000000000000000000000000000000081526004016109bd906138d9565b60405180910390fd5b610a206040518060a00160405280600065ffffffffffff1681526020014265ffffffffffff1681526020016000801b8152602001600073ffffffffffffffffffffffffffffffffffffffff168152602001838152506114cc565b60008085815260200190815260200160002081905550827f3e659e9176c25a527f4575e010a270b3e1f8e9d1e94f5e49d4a91dd2c59e8cf860405160405180910390a2610a6d8388611272565b50505050505050505050565b6000806000610a8784611683565b8093508194508295505050509193909250565b6000610aa584610ca1565b9050600080610ab383611683565b50915091506000610ad886600060028110610aca57fe5b6020020151600001516116da565b90506000610afa87600160028110610aec57fe5b6020020151600001516116da565b90506000610b32858b600060028110610b0f57fe5b6020020151888c8c600060028110610b2357fe5b6020020151602001518861170a565b90506000610b6d600187018c600160028110610b4a57fe5b6020020151898d8d600160028110610b5e57fe5b6020020151602001518861170a565b9050610bc56040518060a001604052808865ffffffffffff1681526020018765ffffffffffff1681526020018481526020018e73ffffffffffffffffffffffffffffffffffffffff16815260200186815250886117a1565b89602001518a60200151516001880165ffffffffffff1681610be357fe5b0681518110610bee57fe5b602002602001015173ffffffffffffffffffffffffffffffffffffffff16610c16828a6117b8565b73ffffffffffffffffffffffffffffffffffffffff1614610c6c576040517f08c379a0000000000000000000000000000000000000000000000000000000008152600401610c63906139f9565b60405180910390fd5b610c858a60200151518c8b60018a018e60600151610fa5565b50610c938760018801610e34565b505050505050505050505050565b6000816000015182602001518360400151604051602001610cc493929190613aa2565b604051602081830303815290604052805190602001209050919050565b600280811115610ced57fe5b610cf682611392565b6002811115610d0157fe5b1415610d42576040517f08c379a0000000000000000000000000000000000000000000000000000000008152600401610d3990613859565b60405180910390fd5b50565b6000610d5083611683565b505090508065ffffffffffff168265ffffffffffff1611610da6576040517f08c379a0000000000000000000000000000000000000000000000000000000008152600401610d9d90613839565b60405180910390fd5b505050565b60006060610dbc8989898989611885565b9050610dcf898660200151838787611561565b610e0e576040517f08c379a0000000000000000000000000000000000000000000000000000000008152600401610e05906138d9565b60405180910390fd5b80600182510381518110610e1e57fe5b6020026020010151915050979650505050505050565b610e916040518060a001604052808365ffffffffffff168152602001600065ffffffffffff1681526020016000801b8152602001600073ffffffffffffffffffffffffffffffffffffffff1681526020016000801b8152506114cc565b60008084815260200190815260200160002081905550817f07da0a0674fb921e484018c8b81d80e292745e5d8ed134b580c8b9c631c5e9e082604051610ed79190613ae0565b60405180910390a25050565b600280811115610eef57fe5b610ef882611392565b6002811115610f0357fe5b14610f43576040517f08c379a0000000000000000000000000000000000000000000000000000000008152600401610f3a906139d9565b60405180910390fd5b50565b610f628260008084815260200190815260200160002054611a55565b610fa1576040517f08c379a0000000000000000000000000000000000000000000000000000000008152600401610f9890613979565b60405180910390fd5b5050565b600084600160028110610fb457fe5b60200201511561103657610ff284600160028110610fce57fe5b60200201516000015185600060028110610fe457fe5b602002015160000151611a6a565b611031576040517f08c379a000000000000000000000000000000000000000000000000000000000815260040161102890613959565b60405180910390fd5b611265565b8460006002811061104357fe5b602002015115611088576040517f08c379a000000000000000000000000000000000000000000000000000000000815260040161107f90613939565b60405180910390fd5b856002028365ffffffffffff1610156111a9576110cf846001600281106110ab57fe5b602002015160000151856000600281106110c157fe5b602002015160000151611a6a565b61110e576040517f08c379a0000000000000000000000000000000000000000000000000000000008152600401611105906138f9565b60405180910390fd5b8360006002811061111b57fe5b6020020151602001516040516111319190613694565b60405180910390208460016002811061114657fe5b60200201516020015160405161115c9190613694565b6040518091039020146111a4576040517f08c379a000000000000000000000000000000000000000000000000000000000815260040161119b90613819565b60405180910390fd5b611264565b8173ffffffffffffffffffffffffffffffffffffffff1663fd7a2f65856000600281106111d257fe5b6020020151866001600281106111e457fe5b6020020151868a6040518563ffffffff1660e01b815260040161120a9493929190613a4f565b60206040518083038186803b15801561122257600080fd5b505afa158015611236573d6000803e3d6000fd5b505050506040513d601f19601f8201168201806040525061125a91908101906124c8565b61126357600080fd5b5b5b6001905095945050505050565b6060818060200190516112889190810190612487565b905060008090505b815181101561138c576112a1611c1b565b8282815181106112ad57fe5b6020026020010151602001518060200190516112cc91908101906125bb565b9050600060018111156112db57fe5b60ff16816000015160ff161415611379578282815181106112f857fe5b60200260200101516000015173ffffffffffffffffffffffffffffffffffffffff1663022cbbe88683602001516040518363ffffffff1660e01b8152600401611342929190613732565b600060405180830381600087803b15801561135c57600080fd5b505af1158015611370573d6000803e3d6000fd5b5050505061137e565b600080fd5b508080600101915050611290565b50505050565b60008061139e83611683565b5091505060008165ffffffffffff1614156113bd5760009150506113dc565b428165ffffffffffff16116113d65760029150506113dc565b60019150505b919050565b60006113ec83611683565b505090508065ffffffffffff168265ffffffffffff161015611443576040517f08c379a000000000000000000000000000000000000000000000000000000000815260040161143a90613879565b60405180910390fd5b505050565b600061147a8460405160200161145e9190613762565b60405160208183030381529060405280519060200120836117b8565b90506114868184611a85565b6114c5576040517f08c379a00000000000000000000000000000000000000000000000000000000081526004016114bc906138b9565b60405180910390fd5b9392505050565b600080600061010090506030810390508061ffff16846000015165ffffffffffff16901b91506030810390508061ffff16846020015165ffffffffffff16901b82179150836040516020016115219190613a19565b6040516020818303038152906040528051906020012060001c73ffffffffffffffffffffffffffffffffffffffff16821791508160001b92505050919050565b6000808551905060008551905061157a84898484611b00565b6115b9576040517f08c379a00000000000000000000000000000000000000000000000000000000081526004016115b0906139b9565b60405180910390fd5b60008090505b8281101561167257600061160f888784815181106115d957fe5b602002602001015160ff16815181106115ee57fe5b602002602001015188848151811061160257fe5b60200260200101516117b8565b905088828151811061161d57fe5b602002602001015173ffffffffffffffffffffffffffffffffffffffff168173ffffffffffffffffffffffffffffffffffffffff161461166457600094505050505061167a565b5080806001019150506115bf565b506001925050505b95945050505050565b600080600080600080868152602001908152602001600020549050600061010090506030810390508061ffff168260001c901c94506030810390508061ffff168260001c901c93508160001c925050509193909250565b6000816040516020016116ed91906137f7565b604051602081830303815290604052805190602001209050919050565b60006040518060a001604052808865ffffffffffff1681526020018715158152602001868152602001856080015186606001518660405160200161175093929190613afb565b6040516020818303038152906040528051906020012081526020018381525060405160200161177f9190613a34565b6040516020818303038152906040528051906020012090509695505050505050565b6117ab8282610f46565b6117b481611bb7565b5050565b6000806040518060400160405280601c81526020017f19457468657265756d205369676e6564204d6573736167653a0a333200000000815250846040516020016118039291906136ab565b60405160208183030381529060405280519060200120905060006001828560000151866020015187604001516040516000815260200160405260405161184c9493929190613790565b6020604051602081039080840390855afa15801561186e573d6000803e3d6000fd5b505050602060405103519050809250505092915050565b60608085516040519080825280602002602001820160405280156118b85781602001602082028038833980820191505090505b509050600060018660ff168903019050600080600090505b88518165ffffffffffff161015611a45578060018a518c0301019150611953828465ffffffffffff168465ffffffffffff16101589898d8665ffffffffffff168151811061191a57fe5b60200260200101516020015161194e8f8865ffffffffffff168151811061193d57fe5b6020026020010151600001516116da565b61170a565b848265ffffffffffff168151811061196757fe5b6020026020010181815250508965ffffffffffff168265ffffffffffff161015611a3857611a3686602001515160405180604001604052808665ffffffffffff168665ffffffffffff1610151515151581526020018665ffffffffffff166001870165ffffffffffff1610151515151581525060405180604001604052808d8665ffffffffffff16815181106119f957fe5b602002602001015181526020018d6001870165ffffffffffff1681518110611a1d57fe5b6020026020010151815250600186018a60600151610fa5565b505b80806001019150506118d0565b5082935050505095945050505050565b600081611a61846114cc565b14905092915050565b60008180519060200120838051906020012014905092915050565b600080600090505b8251811015611af457828181518110611aa257fe5b602002602001015173ffffffffffffffffffffffffffffffffffffffff168473ffffffffffffffffffffffffffffffffffffffff161415611ae7576001915050611afa565b8080600101915050611a8d565b50600090505b92915050565b600082855114611b45576040517f08c379a0000000000000000000000000000000000000000000000000000000008152600401611b3c90613919565b60405180910390fd5b60008090505b83811015611ba957600084828765ffffffffffff1687010381611b6a57fe5b0690506001840381888481518110611b7e57fe5b602002602001015160ff16011015611b9b57600092505050611baf565b508080600101915050611b4b565b50600190505b949350505050565b60016002811115611bc457fe5b611bcd82611392565b6002811115611bd857fe5b14611c18576040517f08c379a0000000000000000000000000000000000000000000000000000000008152600401611c0f90613899565b60405180910390fd5b50565b6040518060400160405280600060ff168152602001606081525090565b600081359050611c4781613fb2565b92915050565b600081519050611c5c81613fb2565b92915050565b600082601f830112611c7357600080fd5b8135611c86611c8182613c37565b613c0a565b91508181835260208401935060208101905083856020840282011115611cab57600080fd5b60005b83811015611cdb5781611cc18882611c38565b845260208401935060208301925050600181019050611cae565b5050505092915050565b600082601f830112611cf657600080fd5b6002611d09611d0482613c5f565b613c0a565b91508183856020840282011115611d1f57600080fd5b60005b83811015611d4f5781611d358882611fac565b845260208401935060208301925050600181019050611d22565b5050505092915050565b600082601f830112611d6a57600080fd5b8151611d7d611d7882613c81565b613c0a565b9150818183526020840193506020810190508360005b83811015611dc35781518601611da988826121eb565b845260208401935060208301925050600181019050611d93565b5050505092915050565b600082601f830112611dde57600080fd5b8135611df1611dec82613ca9565b613c0a565b91508181835260208401935060208101905083856060840282011115611e1657600080fd5b60005b83811015611e465781611e2c888261224f565b845260208401935060608301925050600181019050611e19565b5050505092915050565b600082601f830112611e6157600080fd5b6002611e74611e6f82613cd1565b613c0a565b9150818360005b83811015611eab5781358601611e91888261230f565b845260208401935060208301925050600181019050611e7b565b5050505092915050565b600082601f830112611ec657600080fd5b8135611ed9611ed482613cf3565b613c0a565b9150818183526020840193506020810190508360005b83811015611f1f5781358601611f05888261230f565b845260208401935060208301925050600181019050611eef565b5050505092915050565b600082601f830112611f3a57600080fd5b8135611f4d611f4882613d1b565b613c0a565b91508181835260208401935060208101905083856020840282011115611f7257600080fd5b60005b83811015611fa25781611f8888826123b5565b845260208401935060208301925050600181019050611f75565b5050505092915050565b600081359050611fbb81613fc9565b92915050565b600081519050611fd081613fc9565b92915050565b600081359050611fe581613fe0565b92915050565b600082601f830112611ffc57600080fd5b813561200f61200a82613d43565b613c0a565b9150808252602083016020830185838301111561202b57600080fd5b612036838284613f55565b50505092915050565b600082601f83011261205057600080fd5b815161206361205e82613d43565b613c0a565b9150808252602083016020830185838301111561207f57600080fd5b61208a838284613f64565b50505092915050565b600082601f8301126120a457600080fd5b81356120b76120b282613d6f565b613c0a565b915080825260208301602083018583830111156120d357600080fd5b6120de838284613f55565b50505092915050565b6000604082840312156120f957600080fd5b6121036040613c0a565b90506000612113848285016123ca565b600083015250602082015167ffffffffffffffff81111561213357600080fd5b61213f8482850161203f565b60208301525092915050565b600060a0828403121561215d57600080fd5b61216760a0613c0a565b905060006121778482850161238b565b600083015250602082013567ffffffffffffffff81111561219757600080fd5b6121a384828501611c62565b60208301525060406121b7848285016123a0565b60408301525060606121cb84828501611c38565b60608301525060806121df848285016123a0565b60808301525092915050565b6000604082840312156121fd57600080fd5b6122076040613c0a565b9050600061221784828501611c4d565b600083015250602082015167ffffffffffffffff81111561223757600080fd5b6122438482850161203f565b60208301525092915050565b60006060828403121561226157600080fd5b61226b6060613c0a565b9050600061227b848285016123b5565b600083015250602061228f84828501611fd6565b60208301525060406122a384828501611fd6565b60408301525092915050565b6000606082840312156122c157600080fd5b6122cb6060613c0a565b905060006122db848285016123b5565b60008301525060206122ef84828501611fd6565b602083015250604061230384828501611fd6565b60408301525092915050565b60006040828403121561232157600080fd5b61232b6040613c0a565b9050600082013567ffffffffffffffff81111561234757600080fd5b61235384828501611feb565b600083015250602082013567ffffffffffffffff81111561237357600080fd5b61237f84828501611feb565b60208301525092915050565b60008135905061239a81613ff7565b92915050565b6000813590506123af8161400e565b92915050565b6000813590506123c481614025565b92915050565b6000815190506123d981614025565b92915050565b600080600080600061010086880312156123f857600080fd5b600061240688828901611c38565b955050602061241788828901611ce5565b945050606086013567ffffffffffffffff81111561243457600080fd5b6124408882890161214b565b935050608086013567ffffffffffffffff81111561245d57600080fd5b61246988828901611e50565b92505060a061247a888289016122af565b9150509295509295909350565b60006020828403121561249957600080fd5b600082015167ffffffffffffffff8111156124b357600080fd5b6124bf84828501611d59565b91505092915050565b6000602082840312156124da57600080fd5b60006124e884828501611fc1565b91505092915050565b60006020828403121561250357600080fd5b600061251184828501611fd6565b91505092915050565b60008060008060008060c0878903121561253357600080fd5b600061254189828a01611fd6565b965050602061255289828a016123a0565b955050604061256389828a016123a0565b945050606061257489828a01611fd6565b935050608061258589828a01611c38565b92505060a087013567ffffffffffffffff8111156125a257600080fd5b6125ae89828a01612093565b9150509295509295509295565b6000602082840312156125cd57600080fd5b600082015167ffffffffffffffff8111156125e757600080fd5b6125f3848285016120e7565b91505092915050565b60008060008060008060c0878903121561261557600080fd5b600087013567ffffffffffffffff81111561262f57600080fd5b61263b89828a0161214b565b965050602061264c89828a016123a0565b955050604087013567ffffffffffffffff81111561266957600080fd5b61267589828a01611eb5565b945050606061268689828a016123b5565b935050608087013567ffffffffffffffff8111156126a357600080fd5b6126af89828a01611dcd565b92505060a087013567ffffffffffffffff8111156126cc57600080fd5b6126d889828a01611f29565b9150509295509295509295565b6000806000806000806000610120888a03121561270157600080fd5b600088013567ffffffffffffffff81111561271b57600080fd5b6127278a828b0161214b565b97505060206127388a828b016123a0565b965050604088013567ffffffffffffffff81111561275557600080fd5b6127618a828b01611eb5565b95505060606127728a828b016123b5565b945050608088013567ffffffffffffffff81111561278f57600080fd5b61279b8a828b01611dcd565b93505060a088013567ffffffffffffffff8111156127b857600080fd5b6127c48a828b01611f29565b92505060c06127d58a828b016122af565b91505092959891949750929550565b600080600080600060c086880312156127fc57600080fd5b600061280a8882890161238b565b955050602061281b88828901611ce5565b945050606086013567ffffffffffffffff81111561283857600080fd5b61284488828901611e50565b9350506080612855888289016123a0565b92505060a061286688828901611c38565b9150509295509295909350565b600080600080600080600060e0888a03121561288e57600080fd5b600061289c8a828b016123a0565b975050602088013567ffffffffffffffff8111156128b957600080fd5b6128c58a828b0161214b565b96505060406128d68a828b01611fd6565b95505060606128e78a828b01611fd6565b94505060806128f88a828b016123b5565b93505060a088013567ffffffffffffffff81111561291557600080fd5b6129218a828b01611f29565b92505060c088013567ffffffffffffffff81111561293e57600080fd5b61294a8a828b01611dcd565b91505092959891949750929550565b600080600080600080600060e0888a03121561297457600080fd5b60006129828a828b016123a0565b975050602088013567ffffffffffffffff81111561299f57600080fd5b6129ab8a828b0161214b565b96505060406129bc8a828b01611fd6565b955050606088013567ffffffffffffffff8111156129d957600080fd5b6129e58a828b01612093565b94505060806129f68a828b016123b5565b93505060a088013567ffffffffffffffff811115612a1357600080fd5b612a1f8a828b01611f29565b92505060c088013567ffffffffffffffff811115612a3c57600080fd5b612a488a828b01611dcd565b91505092959891949750929550565b6000612a638383612ab3565b60208301905092915050565b6000612a7b83836134f9565b60608301905092915050565b6000612a9383836135a3565b905092915050565b6000612aa78383613676565b60208301905092915050565b612abc81613ee4565b82525050565b612acb81613ee4565b82525050565b6000612adc82613ddb565b612ae68185613e51565b9350612af183613d9b565b8060005b83811015612b22578151612b098882612a57565b9750612b1483613e1d565b925050600181019050612af5565b5085935050505092915050565b6000612b3a82613ddb565b612b448185613e62565b9350612b4f83613d9b565b8060005b83811015612b80578151612b678882612a57565b9750612b7283613e1d565b925050600181019050612b53565b5085935050505092915050565b6000612b9882613de6565b612ba28185613e73565b9350612bad83613dab565b8060005b83811015612bde578151612bc58882612a6f565b9750612bd083613e2a565b925050600181019050612bb1565b5085935050505092915050565b6000612bf682613df1565b612c008185613e84565b935083602082028501612c1285613dbb565b8060005b85811015612c4e5784840389528151612c2f8582612a87565b9450612c3a83613e37565b925060208a01995050600181019050612c16565b50829750879550505050505092915050565b6000612c6b82613dfc565b612c758185613e95565b9350612c8083613dcb565b8060005b83811015612cb1578151612c988882612a9b565b9750612ca383613e44565b925050600181019050612c84565b5085935050505092915050565b612cc781613ef6565b82525050565b612cd681613ef6565b82525050565b612ce581613f02565b82525050565b612cf481613f02565b82525050565b612d0b612d0682613f02565b613f97565b82525050565b6000612d1c82613e12565b612d268185613eb7565b9350612d36818560208601613f64565b612d3f81613fa1565b840191505092915050565b6000612d5582613e07565b612d5f8185613ea6565b9350612d6f818560208601613f64565b612d7881613fa1565b840191505092915050565b6000612d8e82613e07565b612d988185613eb7565b9350612da8818560208601613f64565b612db181613fa1565b840191505092915050565b6000612dc782613e07565b612dd18185613ec8565b9350612de1818560208601613f64565b80840191505092915050565b6000612dfa604483613ed3565b91507f496e76616c69645472616e736974696f6e4572726f723a2043616e6e6f74206360008301527f68616e676520746865206170704461746120647572696e67207365747570207060208301527f68617365000000000000000000000000000000000000000000000000000000006040830152606082019050919050565b6000612e86601c83613ed3565b91507f7475726e4e756d5265636f7264206e6f7420696e637265617365642e000000006000830152602082019050919050565b6000612ec6601283613ed3565b91507f4368616e6e656c2066696e616c697a65642e00000000000000000000000000006000830152602082019050919050565b6000612f06601883613ed3565b91507f7475726e4e756d5265636f7264206465637265617365642e00000000000000006000830152602082019050919050565b6000612f46601583613ed3565b91507f4e6f206f6e676f696e67206368616c6c656e67652e00000000000000000000006000830152602082019050919050565b6000612f86601f83613ed3565b91507f4368616c6c656e676572206973206e6f742061207061727469636970616e74006000830152602082019050919050565b6000612fc6601283613ed3565b91507f496e76616c6964207369676e61747572657300000000000000000000000000006000830152602082019050919050565b6000613006604c83613ed3565b91507f496e76616c69645472616e736974696f6e4572726f723a2043616e6e6f74206360008301527f68616e6765207468652064656661756c74206f7574636f6d6520647572696e6760208301527f20736574757020706861736500000000000000000000000000000000000000006040830152606082019050919050565b6000613092604783613ed3565b91507f5f76616c69645369676e6174757265733a2077686f5369676e6564576861742060008301527f6d757374206265207468652073616d65206c656e67746820617320706172746960208301527f636970616e7473000000000000000000000000000000000000000000000000006040830152606082019050919050565b600061311e600983613ed3565b91507f666f7263654d6f766500000000000000000000000000000000000000000000006000830152602082019050919050565b600061315e604b83613ed3565b91507f496e76616c69645472616e736974696f6e4572726f723a2043616e6e6f74206d60008301527f6f76652066726f6d20612066696e616c20737461746520746f2061206e6f6e2060208301527f66696e616c2073746174650000000000000000000000000000000000000000006040830152606082019050919050565b60006131ea605583613ed3565b91507f496e76616c69645472616e736974696f6e4572726f723a2043616e6e6f74206d60008301527f6f766520746f20612066696e616c20737461746520776974682061206469666660208301527f6572656e742064656661756c74206f7574636f6d6500000000000000000000006040830152606082019050919050565b6000613276602e83613ed3565b91507f4368616e6e656c2073746f7261676520646f6573206e6f74206d61746368207360008301527f746f7265642076657273696f6e2e0000000000000000000000000000000000006020830152604082019050919050565b60006132dc602b83613ed3565b91507f496e76616c6964207369676e617475726573204f5220697346696e616c3d747260008301527f75652065787065637465640000000000000000000000000000000000000000006020830152604082019050919050565b6000613342602083613ed3565b91507f556e61636365707461626c652077686f5369676e6564576861742061727261796000830152602082019050919050565b6000613382601683613ed3565b91507f4368616e6e656c206e6f742066696e616c697a65642e000000000000000000006000830152602082019050919050565b60006133c2602783613ed3565b91507f526573706f6e7365206e6f74207369676e656420627920617574686f72697a6560008301527f64206d6f766572000000000000000000000000000000000000000000000000006020830152604082019050919050565b60a0820160008201516134316000850182613658565b5060208201516134446020850182613658565b5060408201516134576040850182612cdc565b50606082015161346a6060850182612ab3565b50608082015161347d6080850182612cdc565b50505050565b600060a08301600083015161349b600086018261363a565b50602083015184820360208601526134b38282612ad1565b91505060408301516134c86040860182613658565b5060608301516134db6060860182612ab3565b5060808301516134ee6080860182613658565b508091505092915050565b60608201600082015161350f6000850182613676565b5060208201516135226020850182612cdc565b5060408201516135356040850182612cdc565b50505050565b60a0820160008201516135516000850182613658565b5060208201516135646020850182612cbe565b5060408201516135776040850182612cdc565b50606082015161358a6060850182612cdc565b50608082015161359d6080850182612cdc565b50505050565b600060408301600083015184820360008601526135c08282612d4a565b915050602083015184820360208601526135da8282612d4a565b9150508091505092915050565b600060408301600083015184820360008601526136048282612d4a565b9150506020830151848203602086015261361e8282612d4a565b9150508091505092915050565b61363481613f0c565b82525050565b61364381613f2c565b82525050565b61365281613f2c565b82525050565b61366181613f36565b82525050565b61367081613f36565b82525050565b61367f81613f48565b82525050565b61368e81613f48565b82525050565b60006136a08284612dbc565b915081905092915050565b60006136b78285612dbc565b91506136c38284612cfa565b6020820191508190509392505050565b60006020820190506136e86000830184612ccd565b92915050565b60006020820190506137036000830184612ceb565b92915050565b600060408201905061371e6000830185612ceb565b61372b6020830184612ceb565b9392505050565b60006040820190506137476000830185612ceb565b81810360208301526137598184612d83565b90509392505050565b60006040820190506137776000830184612ceb565b818103602083015261378881613111565b905092915050565b60006080820190506137a56000830187612ceb565b6137b26020830186613685565b6137bf6040830185612ceb565b6137cc6060830184612ceb565b95945050505050565b600060208201905081810360008301526137ef8184612d83565b905092915050565b600060208201905081810360008301526138118184612d11565b905092915050565b6000602082019050818103600083015261383281612ded565b9050919050565b6000602082019050818103600083015261385281612e79565b9050919050565b6000602082019050818103600083015261387281612eb9565b9050919050565b6000602082019050818103600083015261389281612ef9565b9050919050565b600060208201905081810360008301526138b281612f39565b9050919050565b600060208201905081810360008301526138d281612f79565b9050919050565b600060208201905081810360008301526138f281612fb9565b9050919050565b6000602082019050818103600083015261391281612ff9565b9050919050565b6000602082019050818103600083015261393281613085565b9050919050565b6000602082019050818103600083015261395281613151565b9050919050565b60006020820190508181036000830152613972816131dd565b9050919050565b6000602082019050818103600083015261399281613269565b9050919050565b600060208201905081810360008301526139b2816132cf565b9050919050565b600060208201905081810360008301526139d281613335565b9050919050565b600060208201905081810360008301526139f281613375565b9050919050565b60006020820190508181036000830152613a12816133b5565b9050919050565b600060a082019050613a2e600083018461341b565b92915050565b600060a082019050613a49600083018461353b565b92915050565b60006080820190508181036000830152613a6981876135e7565b90508181036020830152613a7d81866135e7565b9050613a8c6040830185613667565b613a996060830184613649565b95945050505050565b6000606082019050613ab76000830186613649565b8181036020830152613ac98185612b2f565b9050613ad86040830184613667565b949350505050565b6000602082019050613af56000830184613667565b92915050565b6000606082019050613b106000830186613667565b613b1d6020830185612ac2565b8181036040830152613b2f8184612d11565b9050949350505050565b600061010082019050613b4f600083018b613667565b613b5c602083018a613667565b613b696040830189612ac2565b613b766060830188612ccd565b8181036080830152613b888187613483565b905081810360a0830152613b9c8186612beb565b905081810360c0830152613bb08185612b8d565b905081810360e0830152613bc48184612c60565b90509998505050505050505050565b6000606082019050613be86000830186613667565b613bf56020830185613667565b613c02604083018461362b565b949350505050565b6000604051905081810181811067ffffffffffffffff82111715613c2d57600080fd5b8060405250919050565b600067ffffffffffffffff821115613c4e57600080fd5b602082029050602081019050919050565b600067ffffffffffffffff821115613c7657600080fd5b602082029050919050565b600067ffffffffffffffff821115613c9857600080fd5b602082029050602081019050919050565b600067ffffffffffffffff821115613cc057600080fd5b602082029050602081019050919050565b600067ffffffffffffffff821115613ce857600080fd5b602082029050919050565b600067ffffffffffffffff821115613d0a57600080fd5b602082029050602081019050919050565b600067ffffffffffffffff821115613d3257600080fd5b602082029050602081019050919050565b600067ffffffffffffffff821115613d5a57600080fd5b601f19601f8301169050602081019050919050565b600067ffffffffffffffff821115613d8657600080fd5b601f19601f8301169050602081019050919050565b6000819050602082019050919050565b6000819050602082019050919050565b6000819050602082019050919050565b6000819050602082019050919050565b600081519050919050565b600081519050919050565b600081519050919050565b600081519050919050565b600081519050919050565b600081519050919050565b6000602082019050919050565b6000602082019050919050565b6000602082019050919050565b6000602082019050919050565b600082825260208201905092915050565b600082825260208201905092915050565b600082825260208201905092915050565b600082825260208201905092915050565b600082825260208201905092915050565b600082825260208201905092915050565b600082825260208201905092915050565b600081905092915050565b600082825260208201905092915050565b6000613eef82613f0c565b9050919050565b60008115159050919050565b6000819050919050565b600073ffffffffffffffffffffffffffffffffffffffff82169050919050565b6000819050919050565b600065ffffffffffff82169050919050565b600060ff82169050919050565b82818337600083830152505050565b60005b83811015613f82578082015181840152602081019050613f67565b83811115613f91576000848401525b50505050565b6000819050919050565b6000601f19601f8301169050919050565b613fbb81613ee4565b8114613fc657600080fd5b50565b613fd281613ef6565b8114613fdd57600080fd5b50565b613fe981613f02565b8114613ff457600080fd5b50565b61400081613f2c565b811461400b57600080fd5b50565b61401781613f36565b811461402257600080fd5b50565b61402e81613f48565b811461403957600080fd5b5056fea2646970667358221220dece26df20b1e25baf78935eb717afe5f169c438730be1b440cac985c57c33fd64736f6c63430006020033",
      "opcodes": "PUSH1 0x80 PUSH1 0x40 MSTORE CALLVALUE DUP1 ISZERO PUSH2 0x10 JUMPI PUSH1 0x0 DUP1 REVERT JUMPDEST POP PUSH2 0x4072 DUP1 PUSH2 0x20 PUSH1 0x0 CODECOPY PUSH1 0x0 RETURN INVALID PUSH1 0x80 PUSH1 0x40 MSTORE CALLVALUE DUP1 ISZERO PUSH2 0x10 JUMPI PUSH1 0x0 DUP1 REVERT JUMPDEST POP PUSH1 0x4 CALLDATASIZE LT PUSH2 0x9E JUMPI PUSH1 0x0 CALLDATALOAD PUSH1 0xE0 SHR DUP1 PUSH4 0x78B9E5CB GT PUSH2 0x66 JUMPI DUP1 PUSH4 0x78B9E5CB EQ PUSH2 0x157 JUMPI DUP1 PUSH4 0x7FF6A982 EQ PUSH2 0x173 JUMPI DUP1 PUSH4 0xEB026514 EQ PUSH2 0x18F JUMPI DUP1 PUSH4 0xFE9E5DB9 EQ PUSH2 0x1AB JUMPI DUP1 PUSH4 0xFF8CEB32 EQ PUSH2 0x1DD JUMPI PUSH2 0x9E JUMP JUMPDEST DUP1 PUSH4 0x149B762 EQ PUSH2 0xA3 JUMPI DUP1 PUSH4 0x5A04D456 EQ PUSH2 0xBF JUMPI DUP1 PUSH4 0x6775B173 EQ PUSH2 0xDB JUMPI DUP1 PUSH4 0x6F65E87D EQ PUSH2 0x10B JUMPI DUP1 PUSH4 0x74CE052A EQ PUSH2 0x13B JUMPI JUMPDEST PUSH1 0x0 DUP1 REVERT JUMPDEST PUSH2 0xBD PUSH1 0x4 DUP1 CALLDATASIZE SUB PUSH2 0xB8 SWAP2 SWAP1 DUP2 ADD SWAP1 PUSH2 0x25FC JUMP JUMPDEST PUSH2 0x1F9 JUMP JUMPDEST STOP JUMPDEST PUSH2 0xD9 PUSH1 0x4 DUP1 CALLDATASIZE SUB PUSH2 0xD4 SWAP2 SWAP1 DUP2 ADD SWAP1 PUSH2 0x251A JUMP JUMPDEST PUSH2 0x23C JUMP JUMPDEST STOP JUMPDEST PUSH2 0xF5 PUSH1 0x4 DUP1 CALLDATASIZE SUB PUSH2 0xF0 SWAP2 SWAP1 DUP2 ADD SWAP1 PUSH2 0x27E4 JUMP JUMPDEST PUSH2 0x3DE JUMP JUMPDEST PUSH1 0x40 MLOAD PUSH2 0x102 SWAP2 SWAP1 PUSH2 0x36D3 JUMP JUMPDEST PUSH1 0x40 MLOAD DUP1 SWAP2 SUB SWAP1 RETURN JUMPDEST PUSH2 0x125 PUSH1 0x4 DUP1 CALLDATASIZE SUB PUSH2 0x120 SWAP2 SWAP1 DUP2 ADD SWAP1 PUSH2 0x24F1 JUMP JUMPDEST PUSH2 0x3F8 JUMP JUMPDEST PUSH1 0x40 MLOAD PUSH2 0x132 SWAP2 SWAP1 PUSH2 0x36EE JUMP JUMPDEST PUSH1 0x40 MLOAD DUP1 SWAP2 SUB SWAP1 RETURN JUMPDEST PUSH2 0x155 PUSH1 0x4 DUP1 CALLDATASIZE SUB PUSH2 0x150 SWAP2 SWAP1 DUP2 ADD SWAP1 PUSH2 0x251A JUMP JUMPDEST PUSH2 0x410 JUMP JUMPDEST STOP JUMPDEST PUSH2 0x171 PUSH1 0x4 DUP1 CALLDATASIZE SUB PUSH2 0x16C SWAP2 SWAP1 DUP2 ADD SWAP1 PUSH2 0x26E5 JUMP JUMPDEST PUSH2 0x4AD JUMP JUMPDEST STOP JUMPDEST PUSH2 0x18D PUSH1 0x4 DUP1 CALLDATASIZE SUB PUSH2 0x188 SWAP2 SWAP1 DUP2 ADD SWAP1 PUSH2 0x2873 JUMP JUMPDEST PUSH2 0x667 JUMP JUMPDEST STOP JUMPDEST PUSH2 0x1A9 PUSH1 0x4 DUP1 CALLDATASIZE SUB PUSH2 0x1A4 SWAP2 SWAP1 DUP2 ADD SWAP1 PUSH2 0x2959 JUMP JUMPDEST PUSH2 0x855 JUMP JUMPDEST STOP JUMPDEST PUSH2 0x1C5 PUSH1 0x4 DUP1 CALLDATASIZE SUB PUSH2 0x1C0 SWAP2 SWAP1 DUP2 ADD SWAP1 PUSH2 0x24F1 JUMP JUMPDEST PUSH2 0xA79 JUMP JUMPDEST PUSH1 0x40 MLOAD PUSH2 0x1D4 SWAP4 SWAP3 SWAP2 SWAP1 PUSH2 0x3BD3 JUMP JUMPDEST PUSH1 0x40 MLOAD DUP1 SWAP2 SUB SWAP1 RETURN JUMPDEST PUSH2 0x1F7 PUSH1 0x4 DUP1 CALLDATASIZE SUB PUSH2 0x1F2 SWAP2 SWAP1 DUP2 ADD SWAP1 PUSH2 0x23DF JUMP JUMPDEST PUSH2 0xA9A JUMP JUMPDEST STOP JUMPDEST PUSH1 0x0 PUSH2 0x204 DUP8 PUSH2 0xCA1 JUMP JUMPDEST SWAP1 POP PUSH2 0x20F DUP2 PUSH2 0xCE1 JUMP JUMPDEST PUSH2 0x219 DUP2 DUP8 PUSH2 0xD45 JUMP JUMPDEST PUSH2 0x228 DUP7 DUP7 DUP7 DUP5 DUP12 DUP9 DUP9 PUSH2 0xDAB JUMP JUMPDEST POP PUSH2 0x233 DUP2 DUP8 PUSH2 0xE34 JUMP JUMPDEST POP POP POP POP POP POP POP JUMP JUMPDEST PUSH2 0x245 DUP7 PUSH2 0xEE3 JUMP JUMPDEST PUSH1 0x0 DUP2 PUSH1 0x40 MLOAD PUSH1 0x20 ADD PUSH2 0x258 SWAP2 SWAP1 PUSH2 0x37F7 JUMP JUMPDEST PUSH1 0x40 MLOAD PUSH1 0x20 DUP2 DUP4 SUB SUB DUP2 MSTORE SWAP1 PUSH1 0x40 MSTORE DUP1 MLOAD SWAP1 PUSH1 0x20 ADD KECCAK256 SWAP1 POP PUSH2 0x2C6 PUSH1 0x40 MLOAD DUP1 PUSH1 0xA0 ADD PUSH1 0x40 MSTORE DUP1 DUP9 PUSH6 0xFFFFFFFFFFFF AND DUP2 MSTORE PUSH1 0x20 ADD DUP8 PUSH6 0xFFFFFFFFFFFF AND DUP2 MSTORE PUSH1 0x20 ADD DUP7 DUP2 MSTORE PUSH1 0x20 ADD DUP6 PUSH20 0xFFFFFFFFFFFFFFFFFFFFFFFFFFFFFFFFFFFFFFFF AND DUP2 MSTORE PUSH1 0x20 ADD DUP4 DUP2 MSTORE POP DUP9 PUSH2 0xF46 JUMP JUMPDEST PUSH1 0x60 DUP3 DUP1 PUSH1 0x20 ADD SWAP1 MLOAD PUSH2 0x2DC SWAP2 SWAP1 DUP2 ADD SWAP1 PUSH2 0x2487 JUMP JUMPDEST SWAP1 POP PUSH1 0x0 DUP1 SWAP1 POP JUMPDEST DUP2 MLOAD DUP2 LT ISZERO PUSH2 0x3D3 JUMPI DUP2 DUP2 DUP2 MLOAD DUP2 LT PUSH2 0x2F9 JUMPI INVALID JUMPDEST PUSH1 0x20 MUL PUSH1 0x20 ADD ADD MLOAD PUSH1 0x0 ADD MLOAD PUSH20 0xFFFFFFFFFFFFFFFFFFFFFFFFFFFFFFFFFFFFFFFF AND PUSH4 0xA3C863A3 DUP11 DUP5 DUP5 DUP2 MLOAD DUP2 LT PUSH2 0x32D JUMPI INVALID JUMPDEST PUSH1 0x20 MUL PUSH1 0x20 ADD ADD MLOAD PUSH1 0x20 ADD MLOAD PUSH1 0x40 MLOAD PUSH2 0x346 SWAP2 SWAP1 PUSH2 0x3694 JUMP JUMPDEST PUSH1 0x40 MLOAD DUP1 SWAP2 SUB SWAP1 KECCAK256 PUSH1 0x40 MLOAD DUP4 PUSH4 0xFFFFFFFF AND PUSH1 0xE0 SHL DUP2 MSTORE PUSH1 0x4 ADD PUSH2 0x36B SWAP3 SWAP2 SWAP1 PUSH2 0x3709 JUMP JUMPDEST PUSH1 0x20 PUSH1 0x40 MLOAD DUP1 DUP4 SUB DUP2 PUSH1 0x0 DUP8 DUP1 EXTCODESIZE ISZERO DUP1 ISZERO PUSH2 0x385 JUMPI PUSH1 0x0 DUP1 REVERT JUMPDEST POP GAS CALL ISZERO DUP1 ISZERO PUSH2 0x399 JUMPI RETURNDATASIZE PUSH1 0x0 DUP1 RETURNDATACOPY RETURNDATASIZE PUSH1 0x0 REVERT JUMPDEST POP POP POP POP PUSH1 0x40 MLOAD RETURNDATASIZE PUSH1 0x1F NOT PUSH1 0x1F DUP3 ADD AND DUP3 ADD DUP1 PUSH1 0x40 MSTORE POP PUSH2 0x3BD SWAP2 SWAP1 DUP2 ADD SWAP1 PUSH2 0x24C8 JUMP JUMPDEST PUSH2 0x3C6 JUMPI PUSH1 0x0 DUP1 REVERT JUMPDEST DUP1 DUP1 PUSH1 0x1 ADD SWAP2 POP POP PUSH2 0x2E4 JUMP JUMPDEST POP POP POP POP POP POP POP POP POP JUMP JUMPDEST PUSH1 0x0 PUSH2 0x3ED DUP7 DUP7 DUP7 DUP7 DUP7 PUSH2 0xFA5 JUMP JUMPDEST SWAP1 POP SWAP6 SWAP5 POP POP POP POP POP JUMP JUMPDEST PUSH1 0x0 PUSH1 0x20 MSTORE DUP1 PUSH1 0x0 MSTORE PUSH1 0x40 PUSH1 0x0 KECCAK256 PUSH1 0x0 SWAP2 POP SWAP1 POP SLOAD DUP2 JUMP JUMPDEST PUSH2 0x419 DUP7 PUSH2 0xEE3 JUMP JUMPDEST PUSH1 0x0 DUP2 PUSH1 0x40 MLOAD PUSH1 0x20 ADD PUSH2 0x42C SWAP2 SWAP1 PUSH2 0x37F7 JUMP JUMPDEST PUSH1 0x40 MLOAD PUSH1 0x20 DUP2 DUP4 SUB SUB DUP2 MSTORE SWAP1 PUSH1 0x40 MSTORE DUP1 MLOAD SWAP1 PUSH1 0x20 ADD KECCAK256 SWAP1 POP PUSH2 0x49A PUSH1 0x40 MLOAD DUP1 PUSH1 0xA0 ADD PUSH1 0x40 MSTORE DUP1 DUP9 PUSH6 0xFFFFFFFFFFFF AND DUP2 MSTORE PUSH1 0x20 ADD DUP8 PUSH6 0xFFFFFFFFFFFF AND DUP2 MSTORE PUSH1 0x20 ADD DUP7 DUP2 MSTORE PUSH1 0x20 ADD DUP6 PUSH20 0xFFFFFFFFFFFFFFFFFFFFFFFFFFFFFFFFFFFFFFFF AND DUP2 MSTORE PUSH1 0x20 ADD DUP4 DUP2 MSTORE POP DUP9 PUSH2 0xF46 JUMP JUMPDEST PUSH2 0x4A4 DUP8 DUP4 PUSH2 0x1272 JUMP JUMPDEST POP POP POP POP POP POP POP JUMP JUMPDEST PUSH1 0x0 PUSH2 0x4B8 DUP9 PUSH2 0xCA1 JUMP JUMPDEST SWAP1 POP PUSH1 0x0 PUSH1 0x2 DUP2 GT ISZERO PUSH2 0x4C7 JUMPI INVALID JUMPDEST PUSH2 0x4D0 DUP3 PUSH2 0x1392 JUMP JUMPDEST PUSH1 0x2 DUP2 GT ISZERO PUSH2 0x4DB JUMPI INVALID JUMPDEST EQ ISZERO PUSH2 0x4F0 JUMPI PUSH2 0x4EB DUP2 DUP9 PUSH2 0x13E1 JUMP JUMPDEST PUSH2 0x531 JUMP JUMPDEST PUSH1 0x1 PUSH1 0x2 DUP2 GT ISZERO PUSH2 0x4FD JUMPI INVALID JUMPDEST PUSH2 0x506 DUP3 PUSH2 0x1392 JUMP JUMPDEST PUSH1 0x2 DUP2 GT ISZERO PUSH2 0x511 JUMPI INVALID JUMPDEST EQ ISZERO PUSH2 0x526 JUMPI PUSH2 0x521 DUP2 DUP9 PUSH2 0xD45 JUMP JUMPDEST PUSH2 0x530 JUMP JUMPDEST PUSH2 0x52F DUP2 PUSH2 0xCE1 JUMP JUMPDEST JUMPDEST JUMPDEST PUSH1 0x0 PUSH2 0x542 DUP9 DUP9 DUP9 DUP6 DUP14 DUP11 DUP11 PUSH2 0xDAB JUMP JUMPDEST SWAP1 POP PUSH1 0x0 PUSH2 0x555 DUP3 DUP12 PUSH1 0x20 ADD MLOAD DUP7 PUSH2 0x1448 JUMP JUMPDEST SWAP1 POP DUP3 PUSH32 0x1F9F029DE8AB3F81B5381A9BC066B421D0F215DB28CC8160EC346BC6F0463C6E DUP11 DUP13 PUSH1 0x80 ADD MLOAD TIMESTAMP ADD DUP5 PUSH1 0x0 DUP13 PUSH1 0xFF AND GT DUP16 DUP15 DUP14 DUP14 PUSH1 0x40 MLOAD PUSH2 0x5A1 SWAP9 SWAP8 SWAP7 SWAP6 SWAP5 SWAP4 SWAP3 SWAP2 SWAP1 PUSH2 0x3B39 JUMP JUMPDEST PUSH1 0x40 MLOAD DUP1 SWAP2 SUB SWAP1 LOG2 PUSH2 0x645 PUSH1 0x40 MLOAD DUP1 PUSH1 0xA0 ADD PUSH1 0x40 MSTORE DUP1 DUP12 PUSH6 0xFFFFFFFFFFFF AND DUP2 MSTORE PUSH1 0x20 ADD DUP13 PUSH1 0x80 ADD MLOAD TIMESTAMP ADD PUSH6 0xFFFFFFFFFFFF AND DUP2 MSTORE PUSH1 0x20 ADD DUP5 DUP2 MSTORE PUSH1 0x20 ADD DUP4 PUSH20 0xFFFFFFFFFFFFFFFFFFFFFFFFFFFFFFFFFFFFFFFF AND DUP2 MSTORE PUSH1 0x20 ADD DUP11 PUSH1 0x1 DUP13 MLOAD SUB DUP2 MLOAD DUP2 LT PUSH2 0x60B JUMPI INVALID JUMPDEST PUSH1 0x20 MUL PUSH1 0x20 ADD ADD MLOAD PUSH1 0x0 ADD MLOAD PUSH1 0x40 MLOAD PUSH1 0x20 ADD PUSH2 0x627 SWAP2 SWAP1 PUSH2 0x37D5 JUMP JUMPDEST PUSH1 0x40 MLOAD PUSH1 0x20 DUP2 DUP4 SUB SUB DUP2 MSTORE SWAP1 PUSH1 0x40 MSTORE DUP1 MLOAD SWAP1 PUSH1 0x20 ADD KECCAK256 DUP2 MSTORE POP PUSH2 0x14CC JUMP JUMPDEST PUSH1 0x0 DUP1 DUP6 DUP2 MSTORE PUSH1 0x20 ADD SWAP1 DUP2 MSTORE PUSH1 0x20 ADD PUSH1 0x0 KECCAK256 DUP2 SWAP1 SSTORE POP POP POP POP POP POP POP POP POP POP POP JUMP JUMPDEST PUSH1 0x0 PUSH2 0x672 DUP8 PUSH2 0xCA1 JUMP JUMPDEST SWAP1 POP PUSH2 0x67D DUP2 PUSH2 0xCE1 JUMP JUMPDEST PUSH1 0x60 DUP5 PUSH1 0xFF AND PUSH1 0x40 MLOAD SWAP1 DUP1 DUP3 MSTORE DUP1 PUSH1 0x20 MUL PUSH1 0x20 ADD DUP3 ADD PUSH1 0x40 MSTORE DUP1 ISZERO PUSH2 0x6B1 JUMPI DUP2 PUSH1 0x20 ADD PUSH1 0x20 DUP3 MUL DUP1 CODESIZE DUP4 CODECOPY DUP1 DUP3 ADD SWAP2 POP POP SWAP1 POP JUMPDEST POP SWAP1 POP PUSH1 0x0 DUP1 SWAP1 POP JUMPDEST DUP6 PUSH1 0xFF AND DUP2 PUSH6 0xFFFFFFFFFFFF AND LT ISZERO PUSH2 0x75C JUMPI PUSH1 0x40 MLOAD DUP1 PUSH1 0xA0 ADD PUSH1 0x40 MSTORE DUP1 DUP8 PUSH1 0xFF AND PUSH1 0x1 DUP5 ADD DUP14 ADD SUB PUSH6 0xFFFFFFFFFFFF AND DUP2 MSTORE PUSH1 0x20 ADD PUSH1 0x1 ISZERO ISZERO DUP2 MSTORE PUSH1 0x20 ADD DUP5 DUP2 MSTORE PUSH1 0x20 ADD DUP10 DUP2 MSTORE PUSH1 0x20 ADD DUP9 DUP2 MSTORE POP PUSH1 0x40 MLOAD PUSH1 0x20 ADD PUSH2 0x719 SWAP2 SWAP1 PUSH2 0x3A34 JUMP JUMPDEST PUSH1 0x40 MLOAD PUSH1 0x20 DUP2 DUP4 SUB SUB DUP2 MSTORE SWAP1 PUSH1 0x40 MSTORE DUP1 MLOAD SWAP1 PUSH1 0x20 ADD KECCAK256 DUP3 DUP3 PUSH6 0xFFFFFFFFFFFF AND DUP2 MLOAD DUP2 LT PUSH2 0x743 JUMPI INVALID JUMPDEST PUSH1 0x20 MUL PUSH1 0x20 ADD ADD DUP2 DUP2 MSTORE POP POP DUP1 DUP1 PUSH1 0x1 ADD SWAP2 POP POP PUSH2 0x6BA JUMP JUMPDEST POP PUSH2 0x76E DUP10 DUP10 PUSH1 0x20 ADD MLOAD DUP4 DUP7 DUP9 PUSH2 0x1561 JUMP JUMPDEST PUSH2 0x7AD JUMPI PUSH1 0x40 MLOAD PUSH32 0x8C379A000000000000000000000000000000000000000000000000000000000 DUP2 MSTORE PUSH1 0x4 ADD PUSH2 0x7A4 SWAP1 PUSH2 0x3999 JUMP JUMPDEST PUSH1 0x40 MLOAD DUP1 SWAP2 SUB SWAP1 REVERT JUMPDEST PUSH2 0x807 PUSH1 0x40 MLOAD DUP1 PUSH1 0xA0 ADD PUSH1 0x40 MSTORE DUP1 PUSH1 0x0 PUSH6 0xFFFFFFFFFFFF AND DUP2 MSTORE PUSH1 0x20 ADD TIMESTAMP PUSH6 0xFFFFFFFFFFFF AND DUP2 MSTORE PUSH1 0x20 ADD PUSH1 0x0 DUP1 SHL DUP2 MSTORE PUSH1 0x20 ADD PUSH1 0x0 PUSH20 0xFFFFFFFFFFFFFFFFFFFFFFFFFFFFFFFFFFFFFFFF AND DUP2 MSTORE PUSH1 0x20 ADD DUP9 DUP2 MSTORE POP PUSH2 0x14CC JUMP JUMPDEST PUSH1 0x0 DUP1 DUP5 DUP2 MSTORE PUSH1 0x20 ADD SWAP1 DUP2 MSTORE PUSH1 0x20 ADD PUSH1 0x0 KECCAK256 DUP2 SWAP1 SSTORE POP DUP2 PUSH32 0x3E659E9176C25A527F4575E010A270B3E1F8E9D1E94F5E49D4A91DD2C59E8CF8 PUSH1 0x40 MLOAD PUSH1 0x40 MLOAD DUP1 SWAP2 SUB SWAP1 LOG2 POP POP POP POP POP POP POP POP POP JUMP JUMPDEST PUSH1 0x0 PUSH2 0x860 DUP8 PUSH2 0xCA1 JUMP JUMPDEST SWAP1 POP PUSH2 0x86B DUP2 PUSH2 0xCE1 JUMP JUMPDEST PUSH1 0x60 DUP5 PUSH1 0xFF AND PUSH1 0x40 MLOAD SWAP1 DUP1 DUP3 MSTORE DUP1 PUSH1 0x20 MUL PUSH1 0x20 ADD DUP3 ADD PUSH1 0x40 MSTORE DUP1 ISZERO PUSH2 0x89F JUMPI DUP2 PUSH1 0x20 ADD PUSH1 0x20 DUP3 MUL DUP1 CODESIZE DUP4 CODECOPY DUP1 DUP3 ADD SWAP2 POP POP SWAP1 POP JUMPDEST POP SWAP1 POP PUSH1 0x0 DUP7 PUSH1 0x40 MLOAD PUSH1 0x20 ADD PUSH2 0x8B5 SWAP2 SWAP1 PUSH2 0x37F7 JUMP JUMPDEST PUSH1 0x40 MLOAD PUSH1 0x20 DUP2 DUP4 SUB SUB DUP2 MSTORE SWAP1 PUSH1 0x40 MSTORE DUP1 MLOAD SWAP1 PUSH1 0x20 ADD KECCAK256 SWAP1 POP PUSH1 0x0 DUP1 SWAP1 POP JUMPDEST DUP7 PUSH1 0xFF AND DUP2 PUSH6 0xFFFFFFFFFFFF AND LT ISZERO PUSH2 0x975 JUMPI PUSH1 0x40 MLOAD DUP1 PUSH1 0xA0 ADD PUSH1 0x40 MSTORE DUP1 DUP9 PUSH1 0xFF AND PUSH1 0x1 DUP5 ADD DUP15 ADD SUB PUSH6 0xFFFFFFFFFFFF AND DUP2 MSTORE PUSH1 0x20 ADD PUSH1 0x1 ISZERO ISZERO DUP2 MSTORE PUSH1 0x20 ADD DUP6 DUP2 MSTORE PUSH1 0x20 ADD DUP11 DUP2 MSTORE PUSH1 0x20 ADD DUP4 DUP2 MSTORE POP PUSH1 0x40 MLOAD PUSH1 0x20 ADD PUSH2 0x932 SWAP2 SWAP1 PUSH2 0x3A34 JUMP JUMPDEST PUSH1 0x40 MLOAD PUSH1 0x20 DUP2 DUP4 SUB SUB DUP2 MSTORE SWAP1 PUSH1 0x40 MSTORE DUP1 MLOAD SWAP1 PUSH1 0x20 ADD KECCAK256 DUP4 DUP3 PUSH6 0xFFFFFFFFFFFF AND DUP2 MLOAD DUP2 LT PUSH2 0x95C JUMPI INVALID JUMPDEST PUSH1 0x20 MUL PUSH1 0x20 ADD ADD DUP2 DUP2 MSTORE POP POP DUP1 DUP1 PUSH1 0x1 ADD SWAP2 POP POP PUSH2 0x8D3 JUMP JUMPDEST POP PUSH2 0x987 DUP11 DUP11 PUSH1 0x20 ADD MLOAD DUP5 DUP8 DUP10 PUSH2 0x1561 JUMP JUMPDEST PUSH2 0x9C6 JUMPI PUSH1 0x40 MLOAD PUSH32 0x8C379A000000000000000000000000000000000000000000000000000000000 DUP2 MSTORE PUSH1 0x4 ADD PUSH2 0x9BD SWAP1 PUSH2 0x38D9 JUMP JUMPDEST PUSH1 0x40 MLOAD DUP1 SWAP2 SUB SWAP1 REVERT JUMPDEST PUSH2 0xA20 PUSH1 0x40 MLOAD DUP1 PUSH1 0xA0 ADD PUSH1 0x40 MSTORE DUP1 PUSH1 0x0 PUSH6 0xFFFFFFFFFFFF AND DUP2 MSTORE PUSH1 0x20 ADD TIMESTAMP PUSH6 0xFFFFFFFFFFFF AND DUP2 MSTORE PUSH1 0x20 ADD PUSH1 0x0 DUP1 SHL DUP2 MSTORE PUSH1 0x20 ADD PUSH1 0x0 PUSH20 0xFFFFFFFFFFFFFFFFFFFFFFFFFFFFFFFFFFFFFFFF AND DUP2 MSTORE PUSH1 0x20 ADD DUP4 DUP2 MSTORE POP PUSH2 0x14CC JUMP JUMPDEST PUSH1 0x0 DUP1 DUP6 DUP2 MSTORE PUSH1 0x20 ADD SWAP1 DUP2 MSTORE PUSH1 0x20 ADD PUSH1 0x0 KECCAK256 DUP2 SWAP1 SSTORE POP DUP3 PUSH32 0x3E659E9176C25A527F4575E010A270B3E1F8E9D1E94F5E49D4A91DD2C59E8CF8 PUSH1 0x40 MLOAD PUSH1 0x40 MLOAD DUP1 SWAP2 SUB SWAP1 LOG2 PUSH2 0xA6D DUP4 DUP9 PUSH2 0x1272 JUMP JUMPDEST POP POP POP POP POP POP POP POP POP POP JUMP JUMPDEST PUSH1 0x0 DUP1 PUSH1 0x0 PUSH2 0xA87 DUP5 PUSH2 0x1683 JUMP JUMPDEST DUP1 SWAP4 POP DUP2 SWAP5 POP DUP3 SWAP6 POP POP POP POP SWAP2 SWAP4 SWAP1 SWAP3 POP JUMP JUMPDEST PUSH1 0x0 PUSH2 0xAA5 DUP5 PUSH2 0xCA1 JUMP JUMPDEST SWAP1 POP PUSH1 0x0 DUP1 PUSH2 0xAB3 DUP4 PUSH2 0x1683 JUMP JUMPDEST POP SWAP2 POP SWAP2 POP PUSH1 0x0 PUSH2 0xAD8 DUP7 PUSH1 0x0 PUSH1 0x2 DUP2 LT PUSH2 0xACA JUMPI INVALID JUMPDEST PUSH1 0x20 MUL ADD MLOAD PUSH1 0x0 ADD MLOAD PUSH2 0x16DA JUMP JUMPDEST SWAP1 POP PUSH1 0x0 PUSH2 0xAFA DUP8 PUSH1 0x1 PUSH1 0x2 DUP2 LT PUSH2 0xAEC JUMPI INVALID JUMPDEST PUSH1 0x20 MUL ADD MLOAD PUSH1 0x0 ADD MLOAD PUSH2 0x16DA JUMP JUMPDEST SWAP1 POP PUSH1 0x0 PUSH2 0xB32 DUP6 DUP12 PUSH1 0x0 PUSH1 0x2 DUP2 LT PUSH2 0xB0F JUMPI INVALID JUMPDEST PUSH1 0x20 MUL ADD MLOAD DUP9 DUP13 DUP13 PUSH1 0x0 PUSH1 0x2 DUP2 LT PUSH2 0xB23 JUMPI INVALID JUMPDEST PUSH1 0x20 MUL ADD MLOAD PUSH1 0x20 ADD MLOAD DUP9 PUSH2 0x170A JUMP JUMPDEST SWAP1 POP PUSH1 0x0 PUSH2 0xB6D PUSH1 0x1 DUP8 ADD DUP13 PUSH1 0x1 PUSH1 0x2 DUP2 LT PUSH2 0xB4A JUMPI INVALID JUMPDEST PUSH1 0x20 MUL ADD MLOAD DUP10 DUP14 DUP14 PUSH1 0x1 PUSH1 0x2 DUP2 LT PUSH2 0xB5E JUMPI INVALID JUMPDEST PUSH1 0x20 MUL ADD MLOAD PUSH1 0x20 ADD MLOAD DUP9 PUSH2 0x170A JUMP JUMPDEST SWAP1 POP PUSH2 0xBC5 PUSH1 0x40 MLOAD DUP1 PUSH1 0xA0 ADD PUSH1 0x40 MSTORE DUP1 DUP9 PUSH6 0xFFFFFFFFFFFF AND DUP2 MSTORE PUSH1 0x20 ADD DUP8 PUSH6 0xFFFFFFFFFFFF AND DUP2 MSTORE PUSH1 0x20 ADD DUP5 DUP2 MSTORE PUSH1 0x20 ADD DUP15 PUSH20 0xFFFFFFFFFFFFFFFFFFFFFFFFFFFFFFFFFFFFFFFF AND DUP2 MSTORE PUSH1 0x20 ADD DUP7 DUP2 MSTORE POP DUP9 PUSH2 0x17A1 JUMP JUMPDEST DUP10 PUSH1 0x20 ADD MLOAD DUP11 PUSH1 0x20 ADD MLOAD MLOAD PUSH1 0x1 DUP9 ADD PUSH6 0xFFFFFFFFFFFF AND DUP2 PUSH2 0xBE3 JUMPI INVALID JUMPDEST MOD DUP2 MLOAD DUP2 LT PUSH2 0xBEE JUMPI INVALID JUMPDEST PUSH1 0x20 MUL PUSH1 0x20 ADD ADD MLOAD PUSH20 0xFFFFFFFFFFFFFFFFFFFFFFFFFFFFFFFFFFFFFFFF AND PUSH2 0xC16 DUP3 DUP11 PUSH2 0x17B8 JUMP JUMPDEST PUSH20 0xFFFFFFFFFFFFFFFFFFFFFFFFFFFFFFFFFFFFFFFF AND EQ PUSH2 0xC6C JUMPI PUSH1 0x40 MLOAD PUSH32 0x8C379A000000000000000000000000000000000000000000000000000000000 DUP2 MSTORE PUSH1 0x4 ADD PUSH2 0xC63 SWAP1 PUSH2 0x39F9 JUMP JUMPDEST PUSH1 0x40 MLOAD DUP1 SWAP2 SUB SWAP1 REVERT JUMPDEST PUSH2 0xC85 DUP11 PUSH1 0x20 ADD MLOAD MLOAD DUP13 DUP12 PUSH1 0x1 DUP11 ADD DUP15 PUSH1 0x60 ADD MLOAD PUSH2 0xFA5 JUMP JUMPDEST POP PUSH2 0xC93 DUP8 PUSH1 0x1 DUP9 ADD PUSH2 0xE34 JUMP JUMPDEST POP POP POP POP POP POP POP POP POP POP POP POP JUMP JUMPDEST PUSH1 0x0 DUP2 PUSH1 0x0 ADD MLOAD DUP3 PUSH1 0x20 ADD MLOAD DUP4 PUSH1 0x40 ADD MLOAD PUSH1 0x40 MLOAD PUSH1 0x20 ADD PUSH2 0xCC4 SWAP4 SWAP3 SWAP2 SWAP1 PUSH2 0x3AA2 JUMP JUMPDEST PUSH1 0x40 MLOAD PUSH1 0x20 DUP2 DUP4 SUB SUB DUP2 MSTORE SWAP1 PUSH1 0x40 MSTORE DUP1 MLOAD SWAP1 PUSH1 0x20 ADD KECCAK256 SWAP1 POP SWAP2 SWAP1 POP JUMP JUMPDEST PUSH1 0x2 DUP1 DUP2 GT ISZERO PUSH2 0xCED JUMPI INVALID JUMPDEST PUSH2 0xCF6 DUP3 PUSH2 0x1392 JUMP JUMPDEST PUSH1 0x2 DUP2 GT ISZERO PUSH2 0xD01 JUMPI INVALID JUMPDEST EQ ISZERO PUSH2 0xD42 JUMPI PUSH1 0x40 MLOAD PUSH32 0x8C379A000000000000000000000000000000000000000000000000000000000 DUP2 MSTORE PUSH1 0x4 ADD PUSH2 0xD39 SWAP1 PUSH2 0x3859 JUMP JUMPDEST PUSH1 0x40 MLOAD DUP1 SWAP2 SUB SWAP1 REVERT JUMPDEST POP JUMP JUMPDEST PUSH1 0x0 PUSH2 0xD50 DUP4 PUSH2 0x1683 JUMP JUMPDEST POP POP SWAP1 POP DUP1 PUSH6 0xFFFFFFFFFFFF AND DUP3 PUSH6 0xFFFFFFFFFFFF AND GT PUSH2 0xDA6 JUMPI PUSH1 0x40 MLOAD PUSH32 0x8C379A000000000000000000000000000000000000000000000000000000000 DUP2 MSTORE PUSH1 0x4 ADD PUSH2 0xD9D SWAP1 PUSH2 0x3839 JUMP JUMPDEST PUSH1 0x40 MLOAD DUP1 SWAP2 SUB SWAP1 REVERT JUMPDEST POP POP POP JUMP JUMPDEST PUSH1 0x0 PUSH1 0x60 PUSH2 0xDBC DUP10 DUP10 DUP10 DUP10 DUP10 PUSH2 0x1885 JUMP JUMPDEST SWAP1 POP PUSH2 0xDCF DUP10 DUP7 PUSH1 0x20 ADD MLOAD DUP4 DUP8 DUP8 PUSH2 0x1561 JUMP JUMPDEST PUSH2 0xE0E JUMPI PUSH1 0x40 MLOAD PUSH32 0x8C379A000000000000000000000000000000000000000000000000000000000 DUP2 MSTORE PUSH1 0x4 ADD PUSH2 0xE05 SWAP1 PUSH2 0x38D9 JUMP JUMPDEST PUSH1 0x40 MLOAD DUP1 SWAP2 SUB SWAP1 REVERT JUMPDEST DUP1 PUSH1 0x1 DUP3 MLOAD SUB DUP2 MLOAD DUP2 LT PUSH2 0xE1E JUMPI INVALID JUMPDEST PUSH1 0x20 MUL PUSH1 0x20 ADD ADD MLOAD SWAP2 POP POP SWAP8 SWAP7 POP POP POP POP POP POP POP JUMP JUMPDEST PUSH2 0xE91 PUSH1 0x40 MLOAD DUP1 PUSH1 0xA0 ADD PUSH1 0x40 MSTORE DUP1 DUP4 PUSH6 0xFFFFFFFFFFFF AND DUP2 MSTORE PUSH1 0x20 ADD PUSH1 0x0 PUSH6 0xFFFFFFFFFFFF AND DUP2 MSTORE PUSH1 0x20 ADD PUSH1 0x0 DUP1 SHL DUP2 MSTORE PUSH1 0x20 ADD PUSH1 0x0 PUSH20 0xFFFFFFFFFFFFFFFFFFFFFFFFFFFFFFFFFFFFFFFF AND DUP2 MSTORE PUSH1 0x20 ADD PUSH1 0x0 DUP1 SHL DUP2 MSTORE POP PUSH2 0x14CC JUMP JUMPDEST PUSH1 0x0 DUP1 DUP5 DUP2 MSTORE PUSH1 0x20 ADD SWAP1 DUP2 MSTORE PUSH1 0x20 ADD PUSH1 0x0 KECCAK256 DUP2 SWAP1 SSTORE POP DUP2 PUSH32 0x7DA0A0674FB921E484018C8B81D80E292745E5D8ED134B580C8B9C631C5E9E0 DUP3 PUSH1 0x40 MLOAD PUSH2 0xED7 SWAP2 SWAP1 PUSH2 0x3AE0 JUMP JUMPDEST PUSH1 0x40 MLOAD DUP1 SWAP2 SUB SWAP1 LOG2 POP POP JUMP JUMPDEST PUSH1 0x2 DUP1 DUP2 GT ISZERO PUSH2 0xEEF JUMPI INVALID JUMPDEST PUSH2 0xEF8 DUP3 PUSH2 0x1392 JUMP JUMPDEST PUSH1 0x2 DUP2 GT ISZERO PUSH2 0xF03 JUMPI INVALID JUMPDEST EQ PUSH2 0xF43 JUMPI PUSH1 0x40 MLOAD PUSH32 0x8C379A000000000000000000000000000000000000000000000000000000000 DUP2 MSTORE PUSH1 0x4 ADD PUSH2 0xF3A SWAP1 PUSH2 0x39D9 JUMP JUMPDEST PUSH1 0x40 MLOAD DUP1 SWAP2 SUB SWAP1 REVERT JUMPDEST POP JUMP JUMPDEST PUSH2 0xF62 DUP3 PUSH1 0x0 DUP1 DUP5 DUP2 MSTORE PUSH1 0x20 ADD SWAP1 DUP2 MSTORE PUSH1 0x20 ADD PUSH1 0x0 KECCAK256 SLOAD PUSH2 0x1A55 JUMP JUMPDEST PUSH2 0xFA1 JUMPI PUSH1 0x40 MLOAD PUSH32 0x8C379A000000000000000000000000000000000000000000000000000000000 DUP2 MSTORE PUSH1 0x4 ADD PUSH2 0xF98 SWAP1 PUSH2 0x3979 JUMP JUMPDEST PUSH1 0x40 MLOAD DUP1 SWAP2 SUB SWAP1 REVERT JUMPDEST POP POP JUMP JUMPDEST PUSH1 0x0 DUP5 PUSH1 0x1 PUSH1 0x2 DUP2 LT PUSH2 0xFB4 JUMPI INVALID JUMPDEST PUSH1 0x20 MUL ADD MLOAD ISZERO PUSH2 0x1036 JUMPI PUSH2 0xFF2 DUP5 PUSH1 0x1 PUSH1 0x2 DUP2 LT PUSH2 0xFCE JUMPI INVALID JUMPDEST PUSH1 0x20 MUL ADD MLOAD PUSH1 0x0 ADD MLOAD DUP6 PUSH1 0x0 PUSH1 0x2 DUP2 LT PUSH2 0xFE4 JUMPI INVALID JUMPDEST PUSH1 0x20 MUL ADD MLOAD PUSH1 0x0 ADD MLOAD PUSH2 0x1A6A JUMP JUMPDEST PUSH2 0x1031 JUMPI PUSH1 0x40 MLOAD PUSH32 0x8C379A000000000000000000000000000000000000000000000000000000000 DUP2 MSTORE PUSH1 0x4 ADD PUSH2 0x1028 SWAP1 PUSH2 0x3959 JUMP JUMPDEST PUSH1 0x40 MLOAD DUP1 SWAP2 SUB SWAP1 REVERT JUMPDEST PUSH2 0x1265 JUMP JUMPDEST DUP5 PUSH1 0x0 PUSH1 0x2 DUP2 LT PUSH2 0x1043 JUMPI INVALID JUMPDEST PUSH1 0x20 MUL ADD MLOAD ISZERO PUSH2 0x1088 JUMPI PUSH1 0x40 MLOAD PUSH32 0x8C379A000000000000000000000000000000000000000000000000000000000 DUP2 MSTORE PUSH1 0x4 ADD PUSH2 0x107F SWAP1 PUSH2 0x3939 JUMP JUMPDEST PUSH1 0x40 MLOAD DUP1 SWAP2 SUB SWAP1 REVERT JUMPDEST DUP6 PUSH1 0x2 MUL DUP4 PUSH6 0xFFFFFFFFFFFF AND LT ISZERO PUSH2 0x11A9 JUMPI PUSH2 0x10CF DUP5 PUSH1 0x1 PUSH1 0x2 DUP2 LT PUSH2 0x10AB JUMPI INVALID JUMPDEST PUSH1 0x20 MUL ADD MLOAD PUSH1 0x0 ADD MLOAD DUP6 PUSH1 0x0 PUSH1 0x2 DUP2 LT PUSH2 0x10C1 JUMPI INVALID JUMPDEST PUSH1 0x20 MUL ADD MLOAD PUSH1 0x0 ADD MLOAD PUSH2 0x1A6A JUMP JUMPDEST PUSH2 0x110E JUMPI PUSH1 0x40 MLOAD PUSH32 0x8C379A000000000000000000000000000000000000000000000000000000000 DUP2 MSTORE PUSH1 0x4 ADD PUSH2 0x1105 SWAP1 PUSH2 0x38F9 JUMP JUMPDEST PUSH1 0x40 MLOAD DUP1 SWAP2 SUB SWAP1 REVERT JUMPDEST DUP4 PUSH1 0x0 PUSH1 0x2 DUP2 LT PUSH2 0x111B JUMPI INVALID JUMPDEST PUSH1 0x20 MUL ADD MLOAD PUSH1 0x20 ADD MLOAD PUSH1 0x40 MLOAD PUSH2 0x1131 SWAP2 SWAP1 PUSH2 0x3694 JUMP JUMPDEST PUSH1 0x40 MLOAD DUP1 SWAP2 SUB SWAP1 KECCAK256 DUP5 PUSH1 0x1 PUSH1 0x2 DUP2 LT PUSH2 0x1146 JUMPI INVALID JUMPDEST PUSH1 0x20 MUL ADD MLOAD PUSH1 0x20 ADD MLOAD PUSH1 0x40 MLOAD PUSH2 0x115C SWAP2 SWAP1 PUSH2 0x3694 JUMP JUMPDEST PUSH1 0x40 MLOAD DUP1 SWAP2 SUB SWAP1 KECCAK256 EQ PUSH2 0x11A4 JUMPI PUSH1 0x40 MLOAD PUSH32 0x8C379A000000000000000000000000000000000000000000000000000000000 DUP2 MSTORE PUSH1 0x4 ADD PUSH2 0x119B SWAP1 PUSH2 0x3819 JUMP JUMPDEST PUSH1 0x40 MLOAD DUP1 SWAP2 SUB SWAP1 REVERT JUMPDEST PUSH2 0x1264 JUMP JUMPDEST DUP2 PUSH20 0xFFFFFFFFFFFFFFFFFFFFFFFFFFFFFFFFFFFFFFFF AND PUSH4 0xFD7A2F65 DUP6 PUSH1 0x0 PUSH1 0x2 DUP2 LT PUSH2 0x11D2 JUMPI INVALID JUMPDEST PUSH1 0x20 MUL ADD MLOAD DUP7 PUSH1 0x1 PUSH1 0x2 DUP2 LT PUSH2 0x11E4 JUMPI INVALID JUMPDEST PUSH1 0x20 MUL ADD MLOAD DUP7 DUP11 PUSH1 0x40 MLOAD DUP6 PUSH4 0xFFFFFFFF AND PUSH1 0xE0 SHL DUP2 MSTORE PUSH1 0x4 ADD PUSH2 0x120A SWAP5 SWAP4 SWAP3 SWAP2 SWAP1 PUSH2 0x3A4F JUMP JUMPDEST PUSH1 0x20 PUSH1 0x40 MLOAD DUP1 DUP4 SUB DUP2 DUP7 DUP1 EXTCODESIZE ISZERO DUP1 ISZERO PUSH2 0x1222 JUMPI PUSH1 0x0 DUP1 REVERT JUMPDEST POP GAS STATICCALL ISZERO DUP1 ISZERO PUSH2 0x1236 JUMPI RETURNDATASIZE PUSH1 0x0 DUP1 RETURNDATACOPY RETURNDATASIZE PUSH1 0x0 REVERT JUMPDEST POP POP POP POP PUSH1 0x40 MLOAD RETURNDATASIZE PUSH1 0x1F NOT PUSH1 0x1F DUP3 ADD AND DUP3 ADD DUP1 PUSH1 0x40 MSTORE POP PUSH2 0x125A SWAP2 SWAP1 DUP2 ADD SWAP1 PUSH2 0x24C8 JUMP JUMPDEST PUSH2 0x1263 JUMPI PUSH1 0x0 DUP1 REVERT JUMPDEST JUMPDEST JUMPDEST PUSH1 0x1 SWAP1 POP SWAP6 SWAP5 POP POP POP POP POP JUMP JUMPDEST PUSH1 0x60 DUP2 DUP1 PUSH1 0x20 ADD SWAP1 MLOAD PUSH2 0x1288 SWAP2 SWAP1 DUP2 ADD SWAP1 PUSH2 0x2487 JUMP JUMPDEST SWAP1 POP PUSH1 0x0 DUP1 SWAP1 POP JUMPDEST DUP2 MLOAD DUP2 LT ISZERO PUSH2 0x138C JUMPI PUSH2 0x12A1 PUSH2 0x1C1B JUMP JUMPDEST DUP3 DUP3 DUP2 MLOAD DUP2 LT PUSH2 0x12AD JUMPI INVALID JUMPDEST PUSH1 0x20 MUL PUSH1 0x20 ADD ADD MLOAD PUSH1 0x20 ADD MLOAD DUP1 PUSH1 0x20 ADD SWAP1 MLOAD PUSH2 0x12CC SWAP2 SWAP1 DUP2 ADD SWAP1 PUSH2 0x25BB JUMP JUMPDEST SWAP1 POP PUSH1 0x0 PUSH1 0x1 DUP2 GT ISZERO PUSH2 0x12DB JUMPI INVALID JUMPDEST PUSH1 0xFF AND DUP2 PUSH1 0x0 ADD MLOAD PUSH1 0xFF AND EQ ISZERO PUSH2 0x1379 JUMPI DUP3 DUP3 DUP2 MLOAD DUP2 LT PUSH2 0x12F8 JUMPI INVALID JUMPDEST PUSH1 0x20 MUL PUSH1 0x20 ADD ADD MLOAD PUSH1 0x0 ADD MLOAD PUSH20 0xFFFFFFFFFFFFFFFFFFFFFFFFFFFFFFFFFFFFFFFF AND PUSH4 0x22CBBE8 DUP7 DUP4 PUSH1 0x20 ADD MLOAD PUSH1 0x40 MLOAD DUP4 PUSH4 0xFFFFFFFF AND PUSH1 0xE0 SHL DUP2 MSTORE PUSH1 0x4 ADD PUSH2 0x1342 SWAP3 SWAP2 SWAP1 PUSH2 0x3732 JUMP JUMPDEST PUSH1 0x0 PUSH1 0x40 MLOAD DUP1 DUP4 SUB DUP2 PUSH1 0x0 DUP8 DUP1 EXTCODESIZE ISZERO DUP1 ISZERO PUSH2 0x135C JUMPI PUSH1 0x0 DUP1 REVERT JUMPDEST POP GAS CALL ISZERO DUP1 ISZERO PUSH2 0x1370 JUMPI RETURNDATASIZE PUSH1 0x0 DUP1 RETURNDATACOPY RETURNDATASIZE PUSH1 0x0 REVERT JUMPDEST POP POP POP POP PUSH2 0x137E JUMP JUMPDEST PUSH1 0x0 DUP1 REVERT JUMPDEST POP DUP1 DUP1 PUSH1 0x1 ADD SWAP2 POP POP PUSH2 0x1290 JUMP JUMPDEST POP POP POP POP JUMP JUMPDEST PUSH1 0x0 DUP1 PUSH2 0x139E DUP4 PUSH2 0x1683 JUMP JUMPDEST POP SWAP2 POP POP PUSH1 0x0 DUP2 PUSH6 0xFFFFFFFFFFFF AND EQ ISZERO PUSH2 0x13BD JUMPI PUSH1 0x0 SWAP2 POP POP PUSH2 0x13DC JUMP JUMPDEST TIMESTAMP DUP2 PUSH6 0xFFFFFFFFFFFF AND GT PUSH2 0x13D6 JUMPI PUSH1 0x2 SWAP2 POP POP PUSH2 0x13DC JUMP JUMPDEST PUSH1 0x1 SWAP2 POP POP JUMPDEST SWAP2 SWAP1 POP JUMP JUMPDEST PUSH1 0x0 PUSH2 0x13EC DUP4 PUSH2 0x1683 JUMP JUMPDEST POP POP SWAP1 POP DUP1 PUSH6 0xFFFFFFFFFFFF AND DUP3 PUSH6 0xFFFFFFFFFFFF AND LT ISZERO PUSH2 0x1443 JUMPI PUSH1 0x40 MLOAD PUSH32 0x8C379A000000000000000000000000000000000000000000000000000000000 DUP2 MSTORE PUSH1 0x4 ADD PUSH2 0x143A SWAP1 PUSH2 0x3879 JUMP JUMPDEST PUSH1 0x40 MLOAD DUP1 SWAP2 SUB SWAP1 REVERT JUMPDEST POP POP POP JUMP JUMPDEST PUSH1 0x0 PUSH2 0x147A DUP5 PUSH1 0x40 MLOAD PUSH1 0x20 ADD PUSH2 0x145E SWAP2 SWAP1 PUSH2 0x3762 JUMP JUMPDEST PUSH1 0x40 MLOAD PUSH1 0x20 DUP2 DUP4 SUB SUB DUP2 MSTORE SWAP1 PUSH1 0x40 MSTORE DUP1 MLOAD SWAP1 PUSH1 0x20 ADD KECCAK256 DUP4 PUSH2 0x17B8 JUMP JUMPDEST SWAP1 POP PUSH2 0x1486 DUP2 DUP5 PUSH2 0x1A85 JUMP JUMPDEST PUSH2 0x14C5 JUMPI PUSH1 0x40 MLOAD PUSH32 0x8C379A000000000000000000000000000000000000000000000000000000000 DUP2 MSTORE PUSH1 0x4 ADD PUSH2 0x14BC SWAP1 PUSH2 0x38B9 JUMP JUMPDEST PUSH1 0x40 MLOAD DUP1 SWAP2 SUB SWAP1 REVERT JUMPDEST SWAP4 SWAP3 POP POP POP JUMP JUMPDEST PUSH1 0x0 DUP1 PUSH1 0x0 PUSH2 0x100 SWAP1 POP PUSH1 0x30 DUP2 SUB SWAP1 POP DUP1 PUSH2 0xFFFF AND DUP5 PUSH1 0x0 ADD MLOAD PUSH6 0xFFFFFFFFFFFF AND SWAP1 SHL SWAP2 POP PUSH1 0x30 DUP2 SUB SWAP1 POP DUP1 PUSH2 0xFFFF AND DUP5 PUSH1 0x20 ADD MLOAD PUSH6 0xFFFFFFFFFFFF AND SWAP1 SHL DUP3 OR SWAP2 POP DUP4 PUSH1 0x40 MLOAD PUSH1 0x20 ADD PUSH2 0x1521 SWAP2 SWAP1 PUSH2 0x3A19 JUMP JUMPDEST PUSH1 0x40 MLOAD PUSH1 0x20 DUP2 DUP4 SUB SUB DUP2 MSTORE SWAP1 PUSH1 0x40 MSTORE DUP1 MLOAD SWAP1 PUSH1 0x20 ADD KECCAK256 PUSH1 0x0 SHR PUSH20 0xFFFFFFFFFFFFFFFFFFFFFFFFFFFFFFFFFFFFFFFF AND DUP3 OR SWAP2 POP DUP2 PUSH1 0x0 SHL SWAP3 POP POP POP SWAP2 SWAP1 POP JUMP JUMPDEST PUSH1 0x0 DUP1 DUP6 MLOAD SWAP1 POP PUSH1 0x0 DUP6 MLOAD SWAP1 POP PUSH2 0x157A DUP5 DUP10 DUP5 DUP5 PUSH2 0x1B00 JUMP JUMPDEST PUSH2 0x15B9 JUMPI PUSH1 0x40 MLOAD PUSH32 0x8C379A000000000000000000000000000000000000000000000000000000000 DUP2 MSTORE PUSH1 0x4 ADD PUSH2 0x15B0 SWAP1 PUSH2 0x39B9 JUMP JUMPDEST PUSH1 0x40 MLOAD DUP1 SWAP2 SUB SWAP1 REVERT JUMPDEST PUSH1 0x0 DUP1 SWAP1 POP JUMPDEST DUP3 DUP2 LT ISZERO PUSH2 0x1672 JUMPI PUSH1 0x0 PUSH2 0x160F DUP9 DUP8 DUP5 DUP2 MLOAD DUP2 LT PUSH2 0x15D9 JUMPI INVALID JUMPDEST PUSH1 0x20 MUL PUSH1 0x20 ADD ADD MLOAD PUSH1 0xFF AND DUP2 MLOAD DUP2 LT PUSH2 0x15EE JUMPI INVALID JUMPDEST PUSH1 0x20 MUL PUSH1 0x20 ADD ADD MLOAD DUP9 DUP5 DUP2 MLOAD DUP2 LT PUSH2 0x1602 JUMPI INVALID JUMPDEST PUSH1 0x20 MUL PUSH1 0x20 ADD ADD MLOAD PUSH2 0x17B8 JUMP JUMPDEST SWAP1 POP DUP9 DUP3 DUP2 MLOAD DUP2 LT PUSH2 0x161D JUMPI INVALID JUMPDEST PUSH1 0x20 MUL PUSH1 0x20 ADD ADD MLOAD PUSH20 0xFFFFFFFFFFFFFFFFFFFFFFFFFFFFFFFFFFFFFFFF AND DUP2 PUSH20 0xFFFFFFFFFFFFFFFFFFFFFFFFFFFFFFFFFFFFFFFF AND EQ PUSH2 0x1664 JUMPI PUSH1 0x0 SWAP5 POP POP POP POP POP PUSH2 0x167A JUMP JUMPDEST POP DUP1 DUP1 PUSH1 0x1 ADD SWAP2 POP POP PUSH2 0x15BF JUMP JUMPDEST POP PUSH1 0x1 SWAP3 POP POP POP JUMPDEST SWAP6 SWAP5 POP POP POP POP POP JUMP JUMPDEST PUSH1 0x0 DUP1 PUSH1 0x0 DUP1 PUSH1 0x0 DUP1 DUP7 DUP2 MSTORE PUSH1 0x20 ADD SWAP1 DUP2 MSTORE PUSH1 0x20 ADD PUSH1 0x0 KECCAK256 SLOAD SWAP1 POP PUSH1 0x0 PUSH2 0x100 SWAP1 POP PUSH1 0x30 DUP2 SUB SWAP1 POP DUP1 PUSH2 0xFFFF AND DUP3 PUSH1 0x0 SHR SWAP1 SHR SWAP5 POP PUSH1 0x30 DUP2 SUB SWAP1 POP DUP1 PUSH2 0xFFFF AND DUP3 PUSH1 0x0 SHR SWAP1 SHR SWAP4 POP DUP2 PUSH1 0x0 SHR SWAP3 POP POP POP SWAP2 SWAP4 SWAP1 SWAP3 POP JUMP JUMPDEST PUSH1 0x0 DUP2 PUSH1 0x40 MLOAD PUSH1 0x20 ADD PUSH2 0x16ED SWAP2 SWAP1 PUSH2 0x37F7 JUMP JUMPDEST PUSH1 0x40 MLOAD PUSH1 0x20 DUP2 DUP4 SUB SUB DUP2 MSTORE SWAP1 PUSH1 0x40 MSTORE DUP1 MLOAD SWAP1 PUSH1 0x20 ADD KECCAK256 SWAP1 POP SWAP2 SWAP1 POP JUMP JUMPDEST PUSH1 0x0 PUSH1 0x40 MLOAD DUP1 PUSH1 0xA0 ADD PUSH1 0x40 MSTORE DUP1 DUP9 PUSH6 0xFFFFFFFFFFFF AND DUP2 MSTORE PUSH1 0x20 ADD DUP8 ISZERO ISZERO DUP2 MSTORE PUSH1 0x20 ADD DUP7 DUP2 MSTORE PUSH1 0x20 ADD DUP6 PUSH1 0x80 ADD MLOAD DUP7 PUSH1 0x60 ADD MLOAD DUP7 PUSH1 0x40 MLOAD PUSH1 0x20 ADD PUSH2 0x1750 SWAP4 SWAP3 SWAP2 SWAP1 PUSH2 0x3AFB JUMP JUMPDEST PUSH1 0x40 MLOAD PUSH1 0x20 DUP2 DUP4 SUB SUB DUP2 MSTORE SWAP1 PUSH1 0x40 MSTORE DUP1 MLOAD SWAP1 PUSH1 0x20 ADD KECCAK256 DUP2 MSTORE PUSH1 0x20 ADD DUP4 DUP2 MSTORE POP PUSH1 0x40 MLOAD PUSH1 0x20 ADD PUSH2 0x177F SWAP2 SWAP1 PUSH2 0x3A34 JUMP JUMPDEST PUSH1 0x40 MLOAD PUSH1 0x20 DUP2 DUP4 SUB SUB DUP2 MSTORE SWAP1 PUSH1 0x40 MSTORE DUP1 MLOAD SWAP1 PUSH1 0x20 ADD KECCAK256 SWAP1 POP SWAP7 SWAP6 POP POP POP POP POP POP JUMP JUMPDEST PUSH2 0x17AB DUP3 DUP3 PUSH2 0xF46 JUMP JUMPDEST PUSH2 0x17B4 DUP2 PUSH2 0x1BB7 JUMP JUMPDEST POP POP JUMP JUMPDEST PUSH1 0x0 DUP1 PUSH1 0x40 MLOAD DUP1 PUSH1 0x40 ADD PUSH1 0x40 MSTORE DUP1 PUSH1 0x1C DUP2 MSTORE PUSH1 0x20 ADD PUSH32 0x19457468657265756D205369676E6564204D6573736167653A0A333200000000 DUP2 MSTORE POP DUP5 PUSH1 0x40 MLOAD PUSH1 0x20 ADD PUSH2 0x1803 SWAP3 SWAP2 SWAP1 PUSH2 0x36AB JUMP JUMPDEST PUSH1 0x40 MLOAD PUSH1 0x20 DUP2 DUP4 SUB SUB DUP2 MSTORE SWAP1 PUSH1 0x40 MSTORE DUP1 MLOAD SWAP1 PUSH1 0x20 ADD KECCAK256 SWAP1 POP PUSH1 0x0 PUSH1 0x1 DUP3 DUP6 PUSH1 0x0 ADD MLOAD DUP7 PUSH1 0x20 ADD MLOAD DUP8 PUSH1 0x40 ADD MLOAD PUSH1 0x40 MLOAD PUSH1 0x0 DUP2 MSTORE PUSH1 0x20 ADD PUSH1 0x40 MSTORE PUSH1 0x40 MLOAD PUSH2 0x184C SWAP5 SWAP4 SWAP3 SWAP2 SWAP1 PUSH2 0x3790 JUMP JUMPDEST PUSH1 0x20 PUSH1 0x40 MLOAD PUSH1 0x20 DUP2 SUB SWAP1 DUP1 DUP5 SUB SWAP1 DUP6 GAS STATICCALL ISZERO DUP1 ISZERO PUSH2 0x186E JUMPI RETURNDATASIZE PUSH1 0x0 DUP1 RETURNDATACOPY RETURNDATASIZE PUSH1 0x0 REVERT JUMPDEST POP POP POP PUSH1 0x20 PUSH1 0x40 MLOAD SUB MLOAD SWAP1 POP DUP1 SWAP3 POP POP POP SWAP3 SWAP2 POP POP JUMP JUMPDEST PUSH1 0x60 DUP1 DUP6 MLOAD PUSH1 0x40 MLOAD SWAP1 DUP1 DUP3 MSTORE DUP1 PUSH1 0x20 MUL PUSH1 0x20 ADD DUP3 ADD PUSH1 0x40 MSTORE DUP1 ISZERO PUSH2 0x18B8 JUMPI DUP2 PUSH1 0x20 ADD PUSH1 0x20 DUP3 MUL DUP1 CODESIZE DUP4 CODECOPY DUP1 DUP3 ADD SWAP2 POP POP SWAP1 POP JUMPDEST POP SWAP1 POP PUSH1 0x0 PUSH1 0x1 DUP7 PUSH1 0xFF AND DUP10 SUB ADD SWAP1 POP PUSH1 0x0 DUP1 PUSH1 0x0 SWAP1 POP JUMPDEST DUP9 MLOAD DUP2 PUSH6 0xFFFFFFFFFFFF AND LT ISZERO PUSH2 0x1A45 JUMPI DUP1 PUSH1 0x1 DUP11 MLOAD DUP13 SUB ADD ADD SWAP2 POP PUSH2 0x1953 DUP3 DUP5 PUSH6 0xFFFFFFFFFFFF AND DUP5 PUSH6 0xFFFFFFFFFFFF AND LT ISZERO DUP10 DUP10 DUP14 DUP7 PUSH6 0xFFFFFFFFFFFF AND DUP2 MLOAD DUP2 LT PUSH2 0x191A JUMPI INVALID JUMPDEST PUSH1 0x20 MUL PUSH1 0x20 ADD ADD MLOAD PUSH1 0x20 ADD MLOAD PUSH2 0x194E DUP16 DUP9 PUSH6 0xFFFFFFFFFFFF AND DUP2 MLOAD DUP2 LT PUSH2 0x193D JUMPI INVALID JUMPDEST PUSH1 0x20 MUL PUSH1 0x20 ADD ADD MLOAD PUSH1 0x0 ADD MLOAD PUSH2 0x16DA JUMP JUMPDEST PUSH2 0x170A JUMP JUMPDEST DUP5 DUP3 PUSH6 0xFFFFFFFFFFFF AND DUP2 MLOAD DUP2 LT PUSH2 0x1967 JUMPI INVALID JUMPDEST PUSH1 0x20 MUL PUSH1 0x20 ADD ADD DUP2 DUP2 MSTORE POP POP DUP10 PUSH6 0xFFFFFFFFFFFF AND DUP3 PUSH6 0xFFFFFFFFFFFF AND LT ISZERO PUSH2 0x1A38 JUMPI PUSH2 0x1A36 DUP7 PUSH1 0x20 ADD MLOAD MLOAD PUSH1 0x40 MLOAD DUP1 PUSH1 0x40 ADD PUSH1 0x40 MSTORE DUP1 DUP7 PUSH6 0xFFFFFFFFFFFF AND DUP7 PUSH6 0xFFFFFFFFFFFF AND LT ISZERO ISZERO ISZERO ISZERO ISZERO DUP2 MSTORE PUSH1 0x20 ADD DUP7 PUSH6 0xFFFFFFFFFFFF AND PUSH1 0x1 DUP8 ADD PUSH6 0xFFFFFFFFFFFF AND LT ISZERO ISZERO ISZERO ISZERO ISZERO DUP2 MSTORE POP PUSH1 0x40 MLOAD DUP1 PUSH1 0x40 ADD PUSH1 0x40 MSTORE DUP1 DUP14 DUP7 PUSH6 0xFFFFFFFFFFFF AND DUP2 MLOAD DUP2 LT PUSH2 0x19F9 JUMPI INVALID JUMPDEST PUSH1 0x20 MUL PUSH1 0x20 ADD ADD MLOAD DUP2 MSTORE PUSH1 0x20 ADD DUP14 PUSH1 0x1 DUP8 ADD PUSH6 0xFFFFFFFFFFFF AND DUP2 MLOAD DUP2 LT PUSH2 0x1A1D JUMPI INVALID JUMPDEST PUSH1 0x20 MUL PUSH1 0x20 ADD ADD MLOAD DUP2 MSTORE POP PUSH1 0x1 DUP7 ADD DUP11 PUSH1 0x60 ADD MLOAD PUSH2 0xFA5 JUMP JUMPDEST POP JUMPDEST DUP1 DUP1 PUSH1 0x1 ADD SWAP2 POP POP PUSH2 0x18D0 JUMP JUMPDEST POP DUP3 SWAP4 POP POP POP POP SWAP6 SWAP5 POP POP POP POP POP JUMP JUMPDEST PUSH1 0x0 DUP2 PUSH2 0x1A61 DUP5 PUSH2 0x14CC JUMP JUMPDEST EQ SWAP1 POP SWAP3 SWAP2 POP POP JUMP JUMPDEST PUSH1 0x0 DUP2 DUP1 MLOAD SWAP1 PUSH1 0x20 ADD KECCAK256 DUP4 DUP1 MLOAD SWAP1 PUSH1 0x20 ADD KECCAK256 EQ SWAP1 POP SWAP3 SWAP2 POP POP JUMP JUMPDEST PUSH1 0x0 DUP1 PUSH1 0x0 SWAP1 POP JUMPDEST DUP3 MLOAD DUP2 LT ISZERO PUSH2 0x1AF4 JUMPI DUP3 DUP2 DUP2 MLOAD DUP2 LT PUSH2 0x1AA2 JUMPI INVALID JUMPDEST PUSH1 0x20 MUL PUSH1 0x20 ADD ADD MLOAD PUSH20 0xFFFFFFFFFFFFFFFFFFFFFFFFFFFFFFFFFFFFFFFF AND DUP5 PUSH20 0xFFFFFFFFFFFFFFFFFFFFFFFFFFFFFFFFFFFFFFFF AND EQ ISZERO PUSH2 0x1AE7 JUMPI PUSH1 0x1 SWAP2 POP POP PUSH2 0x1AFA JUMP JUMPDEST DUP1 DUP1 PUSH1 0x1 ADD SWAP2 POP POP PUSH2 0x1A8D JUMP JUMPDEST POP PUSH1 0x0 SWAP1 POP JUMPDEST SWAP3 SWAP2 POP POP JUMP JUMPDEST PUSH1 0x0 DUP3 DUP6 MLOAD EQ PUSH2 0x1B45 JUMPI PUSH1 0x40 MLOAD PUSH32 0x8C379A000000000000000000000000000000000000000000000000000000000 DUP2 MSTORE PUSH1 0x4 ADD PUSH2 0x1B3C SWAP1 PUSH2 0x3919 JUMP JUMPDEST PUSH1 0x40 MLOAD DUP1 SWAP2 SUB SWAP1 REVERT JUMPDEST PUSH1 0x0 DUP1 SWAP1 POP JUMPDEST DUP4 DUP2 LT ISZERO PUSH2 0x1BA9 JUMPI PUSH1 0x0 DUP5 DUP3 DUP8 PUSH6 0xFFFFFFFFFFFF AND DUP8 ADD SUB DUP2 PUSH2 0x1B6A JUMPI INVALID JUMPDEST MOD SWAP1 POP PUSH1 0x1 DUP5 SUB DUP2 DUP9 DUP5 DUP2 MLOAD DUP2 LT PUSH2 0x1B7E JUMPI INVALID JUMPDEST PUSH1 0x20 MUL PUSH1 0x20 ADD ADD MLOAD PUSH1 0xFF AND ADD LT ISZERO PUSH2 0x1B9B JUMPI PUSH1 0x0 SWAP3 POP POP POP PUSH2 0x1BAF JUMP JUMPDEST POP DUP1 DUP1 PUSH1 0x1 ADD SWAP2 POP POP PUSH2 0x1B4B JUMP JUMPDEST POP PUSH1 0x1 SWAP1 POP JUMPDEST SWAP5 SWAP4 POP POP POP POP JUMP JUMPDEST PUSH1 0x1 PUSH1 0x2 DUP2 GT ISZERO PUSH2 0x1BC4 JUMPI INVALID JUMPDEST PUSH2 0x1BCD DUP3 PUSH2 0x1392 JUMP JUMPDEST PUSH1 0x2 DUP2 GT ISZERO PUSH2 0x1BD8 JUMPI INVALID JUMPDEST EQ PUSH2 0x1C18 JUMPI PUSH1 0x40 MLOAD PUSH32 0x8C379A000000000000000000000000000000000000000000000000000000000 DUP2 MSTORE PUSH1 0x4 ADD PUSH2 0x1C0F SWAP1 PUSH2 0x3899 JUMP JUMPDEST PUSH1 0x40 MLOAD DUP1 SWAP2 SUB SWAP1 REVERT JUMPDEST POP JUMP JUMPDEST PUSH1 0x40 MLOAD DUP1 PUSH1 0x40 ADD PUSH1 0x40 MSTORE DUP1 PUSH1 0x0 PUSH1 0xFF AND DUP2 MSTORE PUSH1 0x20 ADD PUSH1 0x60 DUP2 MSTORE POP SWAP1 JUMP JUMPDEST PUSH1 0x0 DUP2 CALLDATALOAD SWAP1 POP PUSH2 0x1C47 DUP2 PUSH2 0x3FB2 JUMP JUMPDEST SWAP3 SWAP2 POP POP JUMP JUMPDEST PUSH1 0x0 DUP2 MLOAD SWAP1 POP PUSH2 0x1C5C DUP2 PUSH2 0x3FB2 JUMP JUMPDEST SWAP3 SWAP2 POP POP JUMP JUMPDEST PUSH1 0x0 DUP3 PUSH1 0x1F DUP4 ADD SLT PUSH2 0x1C73 JUMPI PUSH1 0x0 DUP1 REVERT JUMPDEST DUP2 CALLDATALOAD PUSH2 0x1C86 PUSH2 0x1C81 DUP3 PUSH2 0x3C37 JUMP JUMPDEST PUSH2 0x3C0A JUMP JUMPDEST SWAP2 POP DUP2 DUP2 DUP4 MSTORE PUSH1 0x20 DUP5 ADD SWAP4 POP PUSH1 0x20 DUP2 ADD SWAP1 POP DUP4 DUP6 PUSH1 0x20 DUP5 MUL DUP3 ADD GT ISZERO PUSH2 0x1CAB JUMPI PUSH1 0x0 DUP1 REVERT JUMPDEST PUSH1 0x0 JUMPDEST DUP4 DUP2 LT ISZERO PUSH2 0x1CDB JUMPI DUP2 PUSH2 0x1CC1 DUP9 DUP3 PUSH2 0x1C38 JUMP JUMPDEST DUP5 MSTORE PUSH1 0x20 DUP5 ADD SWAP4 POP PUSH1 0x20 DUP4 ADD SWAP3 POP POP PUSH1 0x1 DUP2 ADD SWAP1 POP PUSH2 0x1CAE JUMP JUMPDEST POP POP POP POP SWAP3 SWAP2 POP POP JUMP JUMPDEST PUSH1 0x0 DUP3 PUSH1 0x1F DUP4 ADD SLT PUSH2 0x1CF6 JUMPI PUSH1 0x0 DUP1 REVERT JUMPDEST PUSH1 0x2 PUSH2 0x1D09 PUSH2 0x1D04 DUP3 PUSH2 0x3C5F JUMP JUMPDEST PUSH2 0x3C0A JUMP JUMPDEST SWAP2 POP DUP2 DUP4 DUP6 PUSH1 0x20 DUP5 MUL DUP3 ADD GT ISZERO PUSH2 0x1D1F JUMPI PUSH1 0x0 DUP1 REVERT JUMPDEST PUSH1 0x0 JUMPDEST DUP4 DUP2 LT ISZERO PUSH2 0x1D4F JUMPI DUP2 PUSH2 0x1D35 DUP9 DUP3 PUSH2 0x1FAC JUMP JUMPDEST DUP5 MSTORE PUSH1 0x20 DUP5 ADD SWAP4 POP PUSH1 0x20 DUP4 ADD SWAP3 POP POP PUSH1 0x1 DUP2 ADD SWAP1 POP PUSH2 0x1D22 JUMP JUMPDEST POP POP POP POP SWAP3 SWAP2 POP POP JUMP JUMPDEST PUSH1 0x0 DUP3 PUSH1 0x1F DUP4 ADD SLT PUSH2 0x1D6A JUMPI PUSH1 0x0 DUP1 REVERT JUMPDEST DUP2 MLOAD PUSH2 0x1D7D PUSH2 0x1D78 DUP3 PUSH2 0x3C81 JUMP JUMPDEST PUSH2 0x3C0A JUMP JUMPDEST SWAP2 POP DUP2 DUP2 DUP4 MSTORE PUSH1 0x20 DUP5 ADD SWAP4 POP PUSH1 0x20 DUP2 ADD SWAP1 POP DUP4 PUSH1 0x0 JUMPDEST DUP4 DUP2 LT ISZERO PUSH2 0x1DC3 JUMPI DUP2 MLOAD DUP7 ADD PUSH2 0x1DA9 DUP9 DUP3 PUSH2 0x21EB JUMP JUMPDEST DUP5 MSTORE PUSH1 0x20 DUP5 ADD SWAP4 POP PUSH1 0x20 DUP4 ADD SWAP3 POP POP PUSH1 0x1 DUP2 ADD SWAP1 POP PUSH2 0x1D93 JUMP JUMPDEST POP POP POP POP SWAP3 SWAP2 POP POP JUMP JUMPDEST PUSH1 0x0 DUP3 PUSH1 0x1F DUP4 ADD SLT PUSH2 0x1DDE JUMPI PUSH1 0x0 DUP1 REVERT JUMPDEST DUP2 CALLDATALOAD PUSH2 0x1DF1 PUSH2 0x1DEC DUP3 PUSH2 0x3CA9 JUMP JUMPDEST PUSH2 0x3C0A JUMP JUMPDEST SWAP2 POP DUP2 DUP2 DUP4 MSTORE PUSH1 0x20 DUP5 ADD SWAP4 POP PUSH1 0x20 DUP2 ADD SWAP1 POP DUP4 DUP6 PUSH1 0x60 DUP5 MUL DUP3 ADD GT ISZERO PUSH2 0x1E16 JUMPI PUSH1 0x0 DUP1 REVERT JUMPDEST PUSH1 0x0 JUMPDEST DUP4 DUP2 LT ISZERO PUSH2 0x1E46 JUMPI DUP2 PUSH2 0x1E2C DUP9 DUP3 PUSH2 0x224F JUMP JUMPDEST DUP5 MSTORE PUSH1 0x20 DUP5 ADD SWAP4 POP PUSH1 0x60 DUP4 ADD SWAP3 POP POP PUSH1 0x1 DUP2 ADD SWAP1 POP PUSH2 0x1E19 JUMP JUMPDEST POP POP POP POP SWAP3 SWAP2 POP POP JUMP JUMPDEST PUSH1 0x0 DUP3 PUSH1 0x1F DUP4 ADD SLT PUSH2 0x1E61 JUMPI PUSH1 0x0 DUP1 REVERT JUMPDEST PUSH1 0x2 PUSH2 0x1E74 PUSH2 0x1E6F DUP3 PUSH2 0x3CD1 JUMP JUMPDEST PUSH2 0x3C0A JUMP JUMPDEST SWAP2 POP DUP2 DUP4 PUSH1 0x0 JUMPDEST DUP4 DUP2 LT ISZERO PUSH2 0x1EAB JUMPI DUP2 CALLDATALOAD DUP7 ADD PUSH2 0x1E91 DUP9 DUP3 PUSH2 0x230F JUMP JUMPDEST DUP5 MSTORE PUSH1 0x20 DUP5 ADD SWAP4 POP PUSH1 0x20 DUP4 ADD SWAP3 POP POP PUSH1 0x1 DUP2 ADD SWAP1 POP PUSH2 0x1E7B JUMP JUMPDEST POP POP POP POP SWAP3 SWAP2 POP POP JUMP JUMPDEST PUSH1 0x0 DUP3 PUSH1 0x1F DUP4 ADD SLT PUSH2 0x1EC6 JUMPI PUSH1 0x0 DUP1 REVERT JUMPDEST DUP2 CALLDATALOAD PUSH2 0x1ED9 PUSH2 0x1ED4 DUP3 PUSH2 0x3CF3 JUMP JUMPDEST PUSH2 0x3C0A JUMP JUMPDEST SWAP2 POP DUP2 DUP2 DUP4 MSTORE PUSH1 0x20 DUP5 ADD SWAP4 POP PUSH1 0x20 DUP2 ADD SWAP1 POP DUP4 PUSH1 0x0 JUMPDEST DUP4 DUP2 LT ISZERO PUSH2 0x1F1F JUMPI DUP2 CALLDATALOAD DUP7 ADD PUSH2 0x1F05 DUP9 DUP3 PUSH2 0x230F JUMP JUMPDEST DUP5 MSTORE PUSH1 0x20 DUP5 ADD SWAP4 POP PUSH1 0x20 DUP4 ADD SWAP3 POP POP PUSH1 0x1 DUP2 ADD SWAP1 POP PUSH2 0x1EEF JUMP JUMPDEST POP POP POP POP SWAP3 SWAP2 POP POP JUMP JUMPDEST PUSH1 0x0 DUP3 PUSH1 0x1F DUP4 ADD SLT PUSH2 0x1F3A JUMPI PUSH1 0x0 DUP1 REVERT JUMPDEST DUP2 CALLDATALOAD PUSH2 0x1F4D PUSH2 0x1F48 DUP3 PUSH2 0x3D1B JUMP JUMPDEST PUSH2 0x3C0A JUMP JUMPDEST SWAP2 POP DUP2 DUP2 DUP4 MSTORE PUSH1 0x20 DUP5 ADD SWAP4 POP PUSH1 0x20 DUP2 ADD SWAP1 POP DUP4 DUP6 PUSH1 0x20 DUP5 MUL DUP3 ADD GT ISZERO PUSH2 0x1F72 JUMPI PUSH1 0x0 DUP1 REVERT JUMPDEST PUSH1 0x0 JUMPDEST DUP4 DUP2 LT ISZERO PUSH2 0x1FA2 JUMPI DUP2 PUSH2 0x1F88 DUP9 DUP3 PUSH2 0x23B5 JUMP JUMPDEST DUP5 MSTORE PUSH1 0x20 DUP5 ADD SWAP4 POP PUSH1 0x20 DUP4 ADD SWAP3 POP POP PUSH1 0x1 DUP2 ADD SWAP1 POP PUSH2 0x1F75 JUMP JUMPDEST POP POP POP POP SWAP3 SWAP2 POP POP JUMP JUMPDEST PUSH1 0x0 DUP2 CALLDATALOAD SWAP1 POP PUSH2 0x1FBB DUP2 PUSH2 0x3FC9 JUMP JUMPDEST SWAP3 SWAP2 POP POP JUMP JUMPDEST PUSH1 0x0 DUP2 MLOAD SWAP1 POP PUSH2 0x1FD0 DUP2 PUSH2 0x3FC9 JUMP JUMPDEST SWAP3 SWAP2 POP POP JUMP JUMPDEST PUSH1 0x0 DUP2 CALLDATALOAD SWAP1 POP PUSH2 0x1FE5 DUP2 PUSH2 0x3FE0 JUMP JUMPDEST SWAP3 SWAP2 POP POP JUMP JUMPDEST PUSH1 0x0 DUP3 PUSH1 0x1F DUP4 ADD SLT PUSH2 0x1FFC JUMPI PUSH1 0x0 DUP1 REVERT JUMPDEST DUP2 CALLDATALOAD PUSH2 0x200F PUSH2 0x200A DUP3 PUSH2 0x3D43 JUMP JUMPDEST PUSH2 0x3C0A JUMP JUMPDEST SWAP2 POP DUP1 DUP3 MSTORE PUSH1 0x20 DUP4 ADD PUSH1 0x20 DUP4 ADD DUP6 DUP4 DUP4 ADD GT ISZERO PUSH2 0x202B JUMPI PUSH1 0x0 DUP1 REVERT JUMPDEST PUSH2 0x2036 DUP4 DUP3 DUP5 PUSH2 0x3F55 JUMP JUMPDEST POP POP POP SWAP3 SWAP2 POP POP JUMP JUMPDEST PUSH1 0x0 DUP3 PUSH1 0x1F DUP4 ADD SLT PUSH2 0x2050 JUMPI PUSH1 0x0 DUP1 REVERT JUMPDEST DUP2 MLOAD PUSH2 0x2063 PUSH2 0x205E DUP3 PUSH2 0x3D43 JUMP JUMPDEST PUSH2 0x3C0A JUMP JUMPDEST SWAP2 POP DUP1 DUP3 MSTORE PUSH1 0x20 DUP4 ADD PUSH1 0x20 DUP4 ADD DUP6 DUP4 DUP4 ADD GT ISZERO PUSH2 0x207F JUMPI PUSH1 0x0 DUP1 REVERT JUMPDEST PUSH2 0x208A DUP4 DUP3 DUP5 PUSH2 0x3F64 JUMP JUMPDEST POP POP POP SWAP3 SWAP2 POP POP JUMP JUMPDEST PUSH1 0x0 DUP3 PUSH1 0x1F DUP4 ADD SLT PUSH2 0x20A4 JUMPI PUSH1 0x0 DUP1 REVERT JUMPDEST DUP2 CALLDATALOAD PUSH2 0x20B7 PUSH2 0x20B2 DUP3 PUSH2 0x3D6F JUMP JUMPDEST PUSH2 0x3C0A JUMP JUMPDEST SWAP2 POP DUP1 DUP3 MSTORE PUSH1 0x20 DUP4 ADD PUSH1 0x20 DUP4 ADD DUP6 DUP4 DUP4 ADD GT ISZERO PUSH2 0x20D3 JUMPI PUSH1 0x0 DUP1 REVERT JUMPDEST PUSH2 0x20DE DUP4 DUP3 DUP5 PUSH2 0x3F55 JUMP JUMPDEST POP POP POP SWAP3 SWAP2 POP POP JUMP JUMPDEST PUSH1 0x0 PUSH1 0x40 DUP3 DUP5 SUB SLT ISZERO PUSH2 0x20F9 JUMPI PUSH1 0x0 DUP1 REVERT JUMPDEST PUSH2 0x2103 PUSH1 0x40 PUSH2 0x3C0A JUMP JUMPDEST SWAP1 POP PUSH1 0x0 PUSH2 0x2113 DUP5 DUP3 DUP6 ADD PUSH2 0x23CA JUMP JUMPDEST PUSH1 0x0 DUP4 ADD MSTORE POP PUSH1 0x20 DUP3 ADD MLOAD PUSH8 0xFFFFFFFFFFFFFFFF DUP2 GT ISZERO PUSH2 0x2133 JUMPI PUSH1 0x0 DUP1 REVERT JUMPDEST PUSH2 0x213F DUP5 DUP3 DUP6 ADD PUSH2 0x203F JUMP JUMPDEST PUSH1 0x20 DUP4 ADD MSTORE POP SWAP3 SWAP2 POP POP JUMP JUMPDEST PUSH1 0x0 PUSH1 0xA0 DUP3 DUP5 SUB SLT ISZERO PUSH2 0x215D JUMPI PUSH1 0x0 DUP1 REVERT JUMPDEST PUSH2 0x2167 PUSH1 0xA0 PUSH2 0x3C0A JUMP JUMPDEST SWAP1 POP PUSH1 0x0 PUSH2 0x2177 DUP5 DUP3 DUP6 ADD PUSH2 0x238B JUMP JUMPDEST PUSH1 0x0 DUP4 ADD MSTORE POP PUSH1 0x20 DUP3 ADD CALLDATALOAD PUSH8 0xFFFFFFFFFFFFFFFF DUP2 GT ISZERO PUSH2 0x2197 JUMPI PUSH1 0x0 DUP1 REVERT JUMPDEST PUSH2 0x21A3 DUP5 DUP3 DUP6 ADD PUSH2 0x1C62 JUMP JUMPDEST PUSH1 0x20 DUP4 ADD MSTORE POP PUSH1 0x40 PUSH2 0x21B7 DUP5 DUP3 DUP6 ADD PUSH2 0x23A0 JUMP JUMPDEST PUSH1 0x40 DUP4 ADD MSTORE POP PUSH1 0x60 PUSH2 0x21CB DUP5 DUP3 DUP6 ADD PUSH2 0x1C38 JUMP JUMPDEST PUSH1 0x60 DUP4 ADD MSTORE POP PUSH1 0x80 PUSH2 0x21DF DUP5 DUP3 DUP6 ADD PUSH2 0x23A0 JUMP JUMPDEST PUSH1 0x80 DUP4 ADD MSTORE POP SWAP3 SWAP2 POP POP JUMP JUMPDEST PUSH1 0x0 PUSH1 0x40 DUP3 DUP5 SUB SLT ISZERO PUSH2 0x21FD JUMPI PUSH1 0x0 DUP1 REVERT JUMPDEST PUSH2 0x2207 PUSH1 0x40 PUSH2 0x3C0A JUMP JUMPDEST SWAP1 POP PUSH1 0x0 PUSH2 0x2217 DUP5 DUP3 DUP6 ADD PUSH2 0x1C4D JUMP JUMPDEST PUSH1 0x0 DUP4 ADD MSTORE POP PUSH1 0x20 DUP3 ADD MLOAD PUSH8 0xFFFFFFFFFFFFFFFF DUP2 GT ISZERO PUSH2 0x2237 JUMPI PUSH1 0x0 DUP1 REVERT JUMPDEST PUSH2 0x2243 DUP5 DUP3 DUP6 ADD PUSH2 0x203F JUMP JUMPDEST PUSH1 0x20 DUP4 ADD MSTORE POP SWAP3 SWAP2 POP POP JUMP JUMPDEST PUSH1 0x0 PUSH1 0x60 DUP3 DUP5 SUB SLT ISZERO PUSH2 0x2261 JUMPI PUSH1 0x0 DUP1 REVERT JUMPDEST PUSH2 0x226B PUSH1 0x60 PUSH2 0x3C0A JUMP JUMPDEST SWAP1 POP PUSH1 0x0 PUSH2 0x227B DUP5 DUP3 DUP6 ADD PUSH2 0x23B5 JUMP JUMPDEST PUSH1 0x0 DUP4 ADD MSTORE POP PUSH1 0x20 PUSH2 0x228F DUP5 DUP3 DUP6 ADD PUSH2 0x1FD6 JUMP JUMPDEST PUSH1 0x20 DUP4 ADD MSTORE POP PUSH1 0x40 PUSH2 0x22A3 DUP5 DUP3 DUP6 ADD PUSH2 0x1FD6 JUMP JUMPDEST PUSH1 0x40 DUP4 ADD MSTORE POP SWAP3 SWAP2 POP POP JUMP JUMPDEST PUSH1 0x0 PUSH1 0x60 DUP3 DUP5 SUB SLT ISZERO PUSH2 0x22C1 JUMPI PUSH1 0x0 DUP1 REVERT JUMPDEST PUSH2 0x22CB PUSH1 0x60 PUSH2 0x3C0A JUMP JUMPDEST SWAP1 POP PUSH1 0x0 PUSH2 0x22DB DUP5 DUP3 DUP6 ADD PUSH2 0x23B5 JUMP JUMPDEST PUSH1 0x0 DUP4 ADD MSTORE POP PUSH1 0x20 PUSH2 0x22EF DUP5 DUP3 DUP6 ADD PUSH2 0x1FD6 JUMP JUMPDEST PUSH1 0x20 DUP4 ADD MSTORE POP PUSH1 0x40 PUSH2 0x2303 DUP5 DUP3 DUP6 ADD PUSH2 0x1FD6 JUMP JUMPDEST PUSH1 0x40 DUP4 ADD MSTORE POP SWAP3 SWAP2 POP POP JUMP JUMPDEST PUSH1 0x0 PUSH1 0x40 DUP3 DUP5 SUB SLT ISZERO PUSH2 0x2321 JUMPI PUSH1 0x0 DUP1 REVERT JUMPDEST PUSH2 0x232B PUSH1 0x40 PUSH2 0x3C0A JUMP JUMPDEST SWAP1 POP PUSH1 0x0 DUP3 ADD CALLDATALOAD PUSH8 0xFFFFFFFFFFFFFFFF DUP2 GT ISZERO PUSH2 0x2347 JUMPI PUSH1 0x0 DUP1 REVERT JUMPDEST PUSH2 0x2353 DUP5 DUP3 DUP6 ADD PUSH2 0x1FEB JUMP JUMPDEST PUSH1 0x0 DUP4 ADD MSTORE POP PUSH1 0x20 DUP3 ADD CALLDATALOAD PUSH8 0xFFFFFFFFFFFFFFFF DUP2 GT ISZERO PUSH2 0x2373 JUMPI PUSH1 0x0 DUP1 REVERT JUMPDEST PUSH2 0x237F DUP5 DUP3 DUP6 ADD PUSH2 0x1FEB JUMP JUMPDEST PUSH1 0x20 DUP4 ADD MSTORE POP SWAP3 SWAP2 POP POP JUMP JUMPDEST PUSH1 0x0 DUP2 CALLDATALOAD SWAP1 POP PUSH2 0x239A DUP2 PUSH2 0x3FF7 JUMP JUMPDEST SWAP3 SWAP2 POP POP JUMP JUMPDEST PUSH1 0x0 DUP2 CALLDATALOAD SWAP1 POP PUSH2 0x23AF DUP2 PUSH2 0x400E JUMP JUMPDEST SWAP3 SWAP2 POP POP JUMP JUMPDEST PUSH1 0x0 DUP2 CALLDATALOAD SWAP1 POP PUSH2 0x23C4 DUP2 PUSH2 0x4025 JUMP JUMPDEST SWAP3 SWAP2 POP POP JUMP JUMPDEST PUSH1 0x0 DUP2 MLOAD SWAP1 POP PUSH2 0x23D9 DUP2 PUSH2 0x4025 JUMP JUMPDEST SWAP3 SWAP2 POP POP JUMP JUMPDEST PUSH1 0x0 DUP1 PUSH1 0x0 DUP1 PUSH1 0x0 PUSH2 0x100 DUP7 DUP9 SUB SLT ISZERO PUSH2 0x23F8 JUMPI PUSH1 0x0 DUP1 REVERT JUMPDEST PUSH1 0x0 PUSH2 0x2406 DUP9 DUP3 DUP10 ADD PUSH2 0x1C38 JUMP JUMPDEST SWAP6 POP POP PUSH1 0x20 PUSH2 0x2417 DUP9 DUP3 DUP10 ADD PUSH2 0x1CE5 JUMP JUMPDEST SWAP5 POP POP PUSH1 0x60 DUP7 ADD CALLDATALOAD PUSH8 0xFFFFFFFFFFFFFFFF DUP2 GT ISZERO PUSH2 0x2434 JUMPI PUSH1 0x0 DUP1 REVERT JUMPDEST PUSH2 0x2440 DUP9 DUP3 DUP10 ADD PUSH2 0x214B JUMP JUMPDEST SWAP4 POP POP PUSH1 0x80 DUP7 ADD CALLDATALOAD PUSH8 0xFFFFFFFFFFFFFFFF DUP2 GT ISZERO PUSH2 0x245D JUMPI PUSH1 0x0 DUP1 REVERT JUMPDEST PUSH2 0x2469 DUP9 DUP3 DUP10 ADD PUSH2 0x1E50 JUMP JUMPDEST SWAP3 POP POP PUSH1 0xA0 PUSH2 0x247A DUP9 DUP3 DUP10 ADD PUSH2 0x22AF JUMP JUMPDEST SWAP2 POP POP SWAP3 SWAP6 POP SWAP3 SWAP6 SWAP1 SWAP4 POP JUMP JUMPDEST PUSH1 0x0 PUSH1 0x20 DUP3 DUP5 SUB SLT ISZERO PUSH2 0x2499 JUMPI PUSH1 0x0 DUP1 REVERT JUMPDEST PUSH1 0x0 DUP3 ADD MLOAD PUSH8 0xFFFFFFFFFFFFFFFF DUP2 GT ISZERO PUSH2 0x24B3 JUMPI PUSH1 0x0 DUP1 REVERT JUMPDEST PUSH2 0x24BF DUP5 DUP3 DUP6 ADD PUSH2 0x1D59 JUMP JUMPDEST SWAP2 POP POP SWAP3 SWAP2 POP POP JUMP JUMPDEST PUSH1 0x0 PUSH1 0x20 DUP3 DUP5 SUB SLT ISZERO PUSH2 0x24DA JUMPI PUSH1 0x0 DUP1 REVERT JUMPDEST PUSH1 0x0 PUSH2 0x24E8 DUP5 DUP3 DUP6 ADD PUSH2 0x1FC1 JUMP JUMPDEST SWAP2 POP POP SWAP3 SWAP2 POP POP JUMP JUMPDEST PUSH1 0x0 PUSH1 0x20 DUP3 DUP5 SUB SLT ISZERO PUSH2 0x2503 JUMPI PUSH1 0x0 DUP1 REVERT JUMPDEST PUSH1 0x0 PUSH2 0x2511 DUP5 DUP3 DUP6 ADD PUSH2 0x1FD6 JUMP JUMPDEST SWAP2 POP POP SWAP3 SWAP2 POP POP JUMP JUMPDEST PUSH1 0x0 DUP1 PUSH1 0x0 DUP1 PUSH1 0x0 DUP1 PUSH1 0xC0 DUP8 DUP10 SUB SLT ISZERO PUSH2 0x2533 JUMPI PUSH1 0x0 DUP1 REVERT JUMPDEST PUSH1 0x0 PUSH2 0x2541 DUP10 DUP3 DUP11 ADD PUSH2 0x1FD6 JUMP JUMPDEST SWAP7 POP POP PUSH1 0x20 PUSH2 0x2552 DUP10 DUP3 DUP11 ADD PUSH2 0x23A0 JUMP JUMPDEST SWAP6 POP POP PUSH1 0x40 PUSH2 0x2563 DUP10 DUP3 DUP11 ADD PUSH2 0x23A0 JUMP JUMPDEST SWAP5 POP POP PUSH1 0x60 PUSH2 0x2574 DUP10 DUP3 DUP11 ADD PUSH2 0x1FD6 JUMP JUMPDEST SWAP4 POP POP PUSH1 0x80 PUSH2 0x2585 DUP10 DUP3 DUP11 ADD PUSH2 0x1C38 JUMP JUMPDEST SWAP3 POP POP PUSH1 0xA0 DUP8 ADD CALLDATALOAD PUSH8 0xFFFFFFFFFFFFFFFF DUP2 GT ISZERO PUSH2 0x25A2 JUMPI PUSH1 0x0 DUP1 REVERT JUMPDEST PUSH2 0x25AE DUP10 DUP3 DUP11 ADD PUSH2 0x2093 JUMP JUMPDEST SWAP2 POP POP SWAP3 SWAP6 POP SWAP3 SWAP6 POP SWAP3 SWAP6 JUMP JUMPDEST PUSH1 0x0 PUSH1 0x20 DUP3 DUP5 SUB SLT ISZERO PUSH2 0x25CD JUMPI PUSH1 0x0 DUP1 REVERT JUMPDEST PUSH1 0x0 DUP3 ADD MLOAD PUSH8 0xFFFFFFFFFFFFFFFF DUP2 GT ISZERO PUSH2 0x25E7 JUMPI PUSH1 0x0 DUP1 REVERT JUMPDEST PUSH2 0x25F3 DUP5 DUP3 DUP6 ADD PUSH2 0x20E7 JUMP JUMPDEST SWAP2 POP POP SWAP3 SWAP2 POP POP JUMP JUMPDEST PUSH1 0x0 DUP1 PUSH1 0x0 DUP1 PUSH1 0x0 DUP1 PUSH1 0xC0 DUP8 DUP10 SUB SLT ISZERO PUSH2 0x2615 JUMPI PUSH1 0x0 DUP1 REVERT JUMPDEST PUSH1 0x0 DUP8 ADD CALLDATALOAD PUSH8 0xFFFFFFFFFFFFFFFF DUP2 GT ISZERO PUSH2 0x262F JUMPI PUSH1 0x0 DUP1 REVERT JUMPDEST PUSH2 0x263B DUP10 DUP3 DUP11 ADD PUSH2 0x214B JUMP JUMPDEST SWAP7 POP POP PUSH1 0x20 PUSH2 0x264C DUP10 DUP3 DUP11 ADD PUSH2 0x23A0 JUMP JUMPDEST SWAP6 POP POP PUSH1 0x40 DUP8 ADD CALLDATALOAD PUSH8 0xFFFFFFFFFFFFFFFF DUP2 GT ISZERO PUSH2 0x2669 JUMPI PUSH1 0x0 DUP1 REVERT JUMPDEST PUSH2 0x2675 DUP10 DUP3 DUP11 ADD PUSH2 0x1EB5 JUMP JUMPDEST SWAP5 POP POP PUSH1 0x60 PUSH2 0x2686 DUP10 DUP3 DUP11 ADD PUSH2 0x23B5 JUMP JUMPDEST SWAP4 POP POP PUSH1 0x80 DUP8 ADD CALLDATALOAD PUSH8 0xFFFFFFFFFFFFFFFF DUP2 GT ISZERO PUSH2 0x26A3 JUMPI PUSH1 0x0 DUP1 REVERT JUMPDEST PUSH2 0x26AF DUP10 DUP3 DUP11 ADD PUSH2 0x1DCD JUMP JUMPDEST SWAP3 POP POP PUSH1 0xA0 DUP8 ADD CALLDATALOAD PUSH8 0xFFFFFFFFFFFFFFFF DUP2 GT ISZERO PUSH2 0x26CC JUMPI PUSH1 0x0 DUP1 REVERT JUMPDEST PUSH2 0x26D8 DUP10 DUP3 DUP11 ADD PUSH2 0x1F29 JUMP JUMPDEST SWAP2 POP POP SWAP3 SWAP6 POP SWAP3 SWAP6 POP SWAP3 SWAP6 JUMP JUMPDEST PUSH1 0x0 DUP1 PUSH1 0x0 DUP1 PUSH1 0x0 DUP1 PUSH1 0x0 PUSH2 0x120 DUP9 DUP11 SUB SLT ISZERO PUSH2 0x2701 JUMPI PUSH1 0x0 DUP1 REVERT JUMPDEST PUSH1 0x0 DUP9 ADD CALLDATALOAD PUSH8 0xFFFFFFFFFFFFFFFF DUP2 GT ISZERO PUSH2 0x271B JUMPI PUSH1 0x0 DUP1 REVERT JUMPDEST PUSH2 0x2727 DUP11 DUP3 DUP12 ADD PUSH2 0x214B JUMP JUMPDEST SWAP8 POP POP PUSH1 0x20 PUSH2 0x2738 DUP11 DUP3 DUP12 ADD PUSH2 0x23A0 JUMP JUMPDEST SWAP7 POP POP PUSH1 0x40 DUP9 ADD CALLDATALOAD PUSH8 0xFFFFFFFFFFFFFFFF DUP2 GT ISZERO PUSH2 0x2755 JUMPI PUSH1 0x0 DUP1 REVERT JUMPDEST PUSH2 0x2761 DUP11 DUP3 DUP12 ADD PUSH2 0x1EB5 JUMP JUMPDEST SWAP6 POP POP PUSH1 0x60 PUSH2 0x2772 DUP11 DUP3 DUP12 ADD PUSH2 0x23B5 JUMP JUMPDEST SWAP5 POP POP PUSH1 0x80 DUP9 ADD CALLDATALOAD PUSH8 0xFFFFFFFFFFFFFFFF DUP2 GT ISZERO PUSH2 0x278F JUMPI PUSH1 0x0 DUP1 REVERT JUMPDEST PUSH2 0x279B DUP11 DUP3 DUP12 ADD PUSH2 0x1DCD JUMP JUMPDEST SWAP4 POP POP PUSH1 0xA0 DUP9 ADD CALLDATALOAD PUSH8 0xFFFFFFFFFFFFFFFF DUP2 GT ISZERO PUSH2 0x27B8 JUMPI PUSH1 0x0 DUP1 REVERT JUMPDEST PUSH2 0x27C4 DUP11 DUP3 DUP12 ADD PUSH2 0x1F29 JUMP JUMPDEST SWAP3 POP POP PUSH1 0xC0 PUSH2 0x27D5 DUP11 DUP3 DUP12 ADD PUSH2 0x22AF JUMP JUMPDEST SWAP2 POP POP SWAP3 SWAP6 SWAP9 SWAP2 SWAP5 SWAP8 POP SWAP3 SWAP6 POP JUMP JUMPDEST PUSH1 0x0 DUP1 PUSH1 0x0 DUP1 PUSH1 0x0 PUSH1 0xC0 DUP7 DUP9 SUB SLT ISZERO PUSH2 0x27FC JUMPI PUSH1 0x0 DUP1 REVERT JUMPDEST PUSH1 0x0 PUSH2 0x280A DUP9 DUP3 DUP10 ADD PUSH2 0x238B JUMP JUMPDEST SWAP6 POP POP PUSH1 0x20 PUSH2 0x281B DUP9 DUP3 DUP10 ADD PUSH2 0x1CE5 JUMP JUMPDEST SWAP5 POP POP PUSH1 0x60 DUP7 ADD CALLDATALOAD PUSH8 0xFFFFFFFFFFFFFFFF DUP2 GT ISZERO PUSH2 0x2838 JUMPI PUSH1 0x0 DUP1 REVERT JUMPDEST PUSH2 0x2844 DUP9 DUP3 DUP10 ADD PUSH2 0x1E50 JUMP JUMPDEST SWAP4 POP POP PUSH1 0x80 PUSH2 0x2855 DUP9 DUP3 DUP10 ADD PUSH2 0x23A0 JUMP JUMPDEST SWAP3 POP POP PUSH1 0xA0 PUSH2 0x2866 DUP9 DUP3 DUP10 ADD PUSH2 0x1C38 JUMP JUMPDEST SWAP2 POP POP SWAP3 SWAP6 POP SWAP3 SWAP6 SWAP1 SWAP4 POP JUMP JUMPDEST PUSH1 0x0 DUP1 PUSH1 0x0 DUP1 PUSH1 0x0 DUP1 PUSH1 0x0 PUSH1 0xE0 DUP9 DUP11 SUB SLT ISZERO PUSH2 0x288E JUMPI PUSH1 0x0 DUP1 REVERT JUMPDEST PUSH1 0x0 PUSH2 0x289C DUP11 DUP3 DUP12 ADD PUSH2 0x23A0 JUMP JUMPDEST SWAP8 POP POP PUSH1 0x20 DUP9 ADD CALLDATALOAD PUSH8 0xFFFFFFFFFFFFFFFF DUP2 GT ISZERO PUSH2 0x28B9 JUMPI PUSH1 0x0 DUP1 REVERT JUMPDEST PUSH2 0x28C5 DUP11 DUP3 DUP12 ADD PUSH2 0x214B JUMP JUMPDEST SWAP7 POP POP PUSH1 0x40 PUSH2 0x28D6 DUP11 DUP3 DUP12 ADD PUSH2 0x1FD6 JUMP JUMPDEST SWAP6 POP POP PUSH1 0x60 PUSH2 0x28E7 DUP11 DUP3 DUP12 ADD PUSH2 0x1FD6 JUMP JUMPDEST SWAP5 POP POP PUSH1 0x80 PUSH2 0x28F8 DUP11 DUP3 DUP12 ADD PUSH2 0x23B5 JUMP JUMPDEST SWAP4 POP POP PUSH1 0xA0 DUP9 ADD CALLDATALOAD PUSH8 0xFFFFFFFFFFFFFFFF DUP2 GT ISZERO PUSH2 0x2915 JUMPI PUSH1 0x0 DUP1 REVERT JUMPDEST PUSH2 0x2921 DUP11 DUP3 DUP12 ADD PUSH2 0x1F29 JUMP JUMPDEST SWAP3 POP POP PUSH1 0xC0 DUP9 ADD CALLDATALOAD PUSH8 0xFFFFFFFFFFFFFFFF DUP2 GT ISZERO PUSH2 0x293E JUMPI PUSH1 0x0 DUP1 REVERT JUMPDEST PUSH2 0x294A DUP11 DUP3 DUP12 ADD PUSH2 0x1DCD JUMP JUMPDEST SWAP2 POP POP SWAP3 SWAP6 SWAP9 SWAP2 SWAP5 SWAP8 POP SWAP3 SWAP6 POP JUMP JUMPDEST PUSH1 0x0 DUP1 PUSH1 0x0 DUP1 PUSH1 0x0 DUP1 PUSH1 0x0 PUSH1 0xE0 DUP9 DUP11 SUB SLT ISZERO PUSH2 0x2974 JUMPI PUSH1 0x0 DUP1 REVERT JUMPDEST PUSH1 0x0 PUSH2 0x2982 DUP11 DUP3 DUP12 ADD PUSH2 0x23A0 JUMP JUMPDEST SWAP8 POP POP PUSH1 0x20 DUP9 ADD CALLDATALOAD PUSH8 0xFFFFFFFFFFFFFFFF DUP2 GT ISZERO PUSH2 0x299F JUMPI PUSH1 0x0 DUP1 REVERT JUMPDEST PUSH2 0x29AB DUP11 DUP3 DUP12 ADD PUSH2 0x214B JUMP JUMPDEST SWAP7 POP POP PUSH1 0x40 PUSH2 0x29BC DUP11 DUP3 DUP12 ADD PUSH2 0x1FD6 JUMP JUMPDEST SWAP6 POP POP PUSH1 0x60 DUP9 ADD CALLDATALOAD PUSH8 0xFFFFFFFFFFFFFFFF DUP2 GT ISZERO PUSH2 0x29D9 JUMPI PUSH1 0x0 DUP1 REVERT JUMPDEST PUSH2 0x29E5 DUP11 DUP3 DUP12 ADD PUSH2 0x2093 JUMP JUMPDEST SWAP5 POP POP PUSH1 0x80 PUSH2 0x29F6 DUP11 DUP3 DUP12 ADD PUSH2 0x23B5 JUMP JUMPDEST SWAP4 POP POP PUSH1 0xA0 DUP9 ADD CALLDATALOAD PUSH8 0xFFFFFFFFFFFFFFFF DUP2 GT ISZERO PUSH2 0x2A13 JUMPI PUSH1 0x0 DUP1 REVERT JUMPDEST PUSH2 0x2A1F DUP11 DUP3 DUP12 ADD PUSH2 0x1F29 JUMP JUMPDEST SWAP3 POP POP PUSH1 0xC0 DUP9 ADD CALLDATALOAD PUSH8 0xFFFFFFFFFFFFFFFF DUP2 GT ISZERO PUSH2 0x2A3C JUMPI PUSH1 0x0 DUP1 REVERT JUMPDEST PUSH2 0x2A48 DUP11 DUP3 DUP12 ADD PUSH2 0x1DCD JUMP JUMPDEST SWAP2 POP POP SWAP3 SWAP6 SWAP9 SWAP2 SWAP5 SWAP8 POP SWAP3 SWAP6 POP JUMP JUMPDEST PUSH1 0x0 PUSH2 0x2A63 DUP4 DUP4 PUSH2 0x2AB3 JUMP JUMPDEST PUSH1 0x20 DUP4 ADD SWAP1 POP SWAP3 SWAP2 POP POP JUMP JUMPDEST PUSH1 0x0 PUSH2 0x2A7B DUP4 DUP4 PUSH2 0x34F9 JUMP JUMPDEST PUSH1 0x60 DUP4 ADD SWAP1 POP SWAP3 SWAP2 POP POP JUMP JUMPDEST PUSH1 0x0 PUSH2 0x2A93 DUP4 DUP4 PUSH2 0x35A3 JUMP JUMPDEST SWAP1 POP SWAP3 SWAP2 POP POP JUMP JUMPDEST PUSH1 0x0 PUSH2 0x2AA7 DUP4 DUP4 PUSH2 0x3676 JUMP JUMPDEST PUSH1 0x20 DUP4 ADD SWAP1 POP SWAP3 SWAP2 POP POP JUMP JUMPDEST PUSH2 0x2ABC DUP2 PUSH2 0x3EE4 JUMP JUMPDEST DUP3 MSTORE POP POP JUMP JUMPDEST PUSH2 0x2ACB DUP2 PUSH2 0x3EE4 JUMP JUMPDEST DUP3 MSTORE POP POP JUMP JUMPDEST PUSH1 0x0 PUSH2 0x2ADC DUP3 PUSH2 0x3DDB JUMP JUMPDEST PUSH2 0x2AE6 DUP2 DUP6 PUSH2 0x3E51 JUMP JUMPDEST SWAP4 POP PUSH2 0x2AF1 DUP4 PUSH2 0x3D9B JUMP JUMPDEST DUP1 PUSH1 0x0 JUMPDEST DUP4 DUP2 LT ISZERO PUSH2 0x2B22 JUMPI DUP2 MLOAD PUSH2 0x2B09 DUP9 DUP3 PUSH2 0x2A57 JUMP JUMPDEST SWAP8 POP PUSH2 0x2B14 DUP4 PUSH2 0x3E1D JUMP JUMPDEST SWAP3 POP POP PUSH1 0x1 DUP2 ADD SWAP1 POP PUSH2 0x2AF5 JUMP JUMPDEST POP DUP6 SWAP4 POP POP POP POP SWAP3 SWAP2 POP POP JUMP JUMPDEST PUSH1 0x0 PUSH2 0x2B3A DUP3 PUSH2 0x3DDB JUMP JUMPDEST PUSH2 0x2B44 DUP2 DUP6 PUSH2 0x3E62 JUMP JUMPDEST SWAP4 POP PUSH2 0x2B4F DUP4 PUSH2 0x3D9B JUMP JUMPDEST DUP1 PUSH1 0x0 JUMPDEST DUP4 DUP2 LT ISZERO PUSH2 0x2B80 JUMPI DUP2 MLOAD PUSH2 0x2B67 DUP9 DUP3 PUSH2 0x2A57 JUMP JUMPDEST SWAP8 POP PUSH2 0x2B72 DUP4 PUSH2 0x3E1D JUMP JUMPDEST SWAP3 POP POP PUSH1 0x1 DUP2 ADD SWAP1 POP PUSH2 0x2B53 JUMP JUMPDEST POP DUP6 SWAP4 POP POP POP POP SWAP3 SWAP2 POP POP JUMP JUMPDEST PUSH1 0x0 PUSH2 0x2B98 DUP3 PUSH2 0x3DE6 JUMP JUMPDEST PUSH2 0x2BA2 DUP2 DUP6 PUSH2 0x3E73 JUMP JUMPDEST SWAP4 POP PUSH2 0x2BAD DUP4 PUSH2 0x3DAB JUMP JUMPDEST DUP1 PUSH1 0x0 JUMPDEST DUP4 DUP2 LT ISZERO PUSH2 0x2BDE JUMPI DUP2 MLOAD PUSH2 0x2BC5 DUP9 DUP3 PUSH2 0x2A6F JUMP JUMPDEST SWAP8 POP PUSH2 0x2BD0 DUP4 PUSH2 0x3E2A JUMP JUMPDEST SWAP3 POP POP PUSH1 0x1 DUP2 ADD SWAP1 POP PUSH2 0x2BB1 JUMP JUMPDEST POP DUP6 SWAP4 POP POP POP POP SWAP3 SWAP2 POP POP JUMP JUMPDEST PUSH1 0x0 PUSH2 0x2BF6 DUP3 PUSH2 0x3DF1 JUMP JUMPDEST PUSH2 0x2C00 DUP2 DUP6 PUSH2 0x3E84 JUMP JUMPDEST SWAP4 POP DUP4 PUSH1 0x20 DUP3 MUL DUP6 ADD PUSH2 0x2C12 DUP6 PUSH2 0x3DBB JUMP JUMPDEST DUP1 PUSH1 0x0 JUMPDEST DUP6 DUP2 LT ISZERO PUSH2 0x2C4E JUMPI DUP5 DUP5 SUB DUP10 MSTORE DUP2 MLOAD PUSH2 0x2C2F DUP6 DUP3 PUSH2 0x2A87 JUMP JUMPDEST SWAP5 POP PUSH2 0x2C3A DUP4 PUSH2 0x3E37 JUMP JUMPDEST SWAP3 POP PUSH1 0x20 DUP11 ADD SWAP10 POP POP PUSH1 0x1 DUP2 ADD SWAP1 POP PUSH2 0x2C16 JUMP JUMPDEST POP DUP3 SWAP8 POP DUP8 SWAP6 POP POP POP POP POP POP SWAP3 SWAP2 POP POP JUMP JUMPDEST PUSH1 0x0 PUSH2 0x2C6B DUP3 PUSH2 0x3DFC JUMP JUMPDEST PUSH2 0x2C75 DUP2 DUP6 PUSH2 0x3E95 JUMP JUMPDEST SWAP4 POP PUSH2 0x2C80 DUP4 PUSH2 0x3DCB JUMP JUMPDEST DUP1 PUSH1 0x0 JUMPDEST DUP4 DUP2 LT ISZERO PUSH2 0x2CB1 JUMPI DUP2 MLOAD PUSH2 0x2C98 DUP9 DUP3 PUSH2 0x2A9B JUMP JUMPDEST SWAP8 POP PUSH2 0x2CA3 DUP4 PUSH2 0x3E44 JUMP JUMPDEST SWAP3 POP POP PUSH1 0x1 DUP2 ADD SWAP1 POP PUSH2 0x2C84 JUMP JUMPDEST POP DUP6 SWAP4 POP POP POP POP SWAP3 SWAP2 POP POP JUMP JUMPDEST PUSH2 0x2CC7 DUP2 PUSH2 0x3EF6 JUMP JUMPDEST DUP3 MSTORE POP POP JUMP JUMPDEST PUSH2 0x2CD6 DUP2 PUSH2 0x3EF6 JUMP JUMPDEST DUP3 MSTORE POP POP JUMP JUMPDEST PUSH2 0x2CE5 DUP2 PUSH2 0x3F02 JUMP JUMPDEST DUP3 MSTORE POP POP JUMP JUMPDEST PUSH2 0x2CF4 DUP2 PUSH2 0x3F02 JUMP JUMPDEST DUP3 MSTORE POP POP JUMP JUMPDEST PUSH2 0x2D0B PUSH2 0x2D06 DUP3 PUSH2 0x3F02 JUMP JUMPDEST PUSH2 0x3F97 JUMP JUMPDEST DUP3 MSTORE POP POP JUMP JUMPDEST PUSH1 0x0 PUSH2 0x2D1C DUP3 PUSH2 0x3E12 JUMP JUMPDEST PUSH2 0x2D26 DUP2 DUP6 PUSH2 0x3EB7 JUMP JUMPDEST SWAP4 POP PUSH2 0x2D36 DUP2 DUP6 PUSH1 0x20 DUP7 ADD PUSH2 0x3F64 JUMP JUMPDEST PUSH2 0x2D3F DUP2 PUSH2 0x3FA1 JUMP JUMPDEST DUP5 ADD SWAP2 POP POP SWAP3 SWAP2 POP POP JUMP JUMPDEST PUSH1 0x0 PUSH2 0x2D55 DUP3 PUSH2 0x3E07 JUMP JUMPDEST PUSH2 0x2D5F DUP2 DUP6 PUSH2 0x3EA6 JUMP JUMPDEST SWAP4 POP PUSH2 0x2D6F DUP2 DUP6 PUSH1 0x20 DUP7 ADD PUSH2 0x3F64 JUMP JUMPDEST PUSH2 0x2D78 DUP2 PUSH2 0x3FA1 JUMP JUMPDEST DUP5 ADD SWAP2 POP POP SWAP3 SWAP2 POP POP JUMP JUMPDEST PUSH1 0x0 PUSH2 0x2D8E DUP3 PUSH2 0x3E07 JUMP JUMPDEST PUSH2 0x2D98 DUP2 DUP6 PUSH2 0x3EB7 JUMP JUMPDEST SWAP4 POP PUSH2 0x2DA8 DUP2 DUP6 PUSH1 0x20 DUP7 ADD PUSH2 0x3F64 JUMP JUMPDEST PUSH2 0x2DB1 DUP2 PUSH2 0x3FA1 JUMP JUMPDEST DUP5 ADD SWAP2 POP POP SWAP3 SWAP2 POP POP JUMP JUMPDEST PUSH1 0x0 PUSH2 0x2DC7 DUP3 PUSH2 0x3E07 JUMP JUMPDEST PUSH2 0x2DD1 DUP2 DUP6 PUSH2 0x3EC8 JUMP JUMPDEST SWAP4 POP PUSH2 0x2DE1 DUP2 DUP6 PUSH1 0x20 DUP7 ADD PUSH2 0x3F64 JUMP JUMPDEST DUP1 DUP5 ADD SWAP2 POP POP SWAP3 SWAP2 POP POP JUMP JUMPDEST PUSH1 0x0 PUSH2 0x2DFA PUSH1 0x44 DUP4 PUSH2 0x3ED3 JUMP JUMPDEST SWAP2 POP PUSH32 0x496E76616C69645472616E736974696F6E4572726F723A2043616E6E6F742063 PUSH1 0x0 DUP4 ADD MSTORE PUSH32 0x68616E676520746865206170704461746120647572696E672073657475702070 PUSH1 0x20 DUP4 ADD MSTORE PUSH32 0x6861736500000000000000000000000000000000000000000000000000000000 PUSH1 0x40 DUP4 ADD MSTORE PUSH1 0x60 DUP3 ADD SWAP1 POP SWAP2 SWAP1 POP JUMP JUMPDEST PUSH1 0x0 PUSH2 0x2E86 PUSH1 0x1C DUP4 PUSH2 0x3ED3 JUMP JUMPDEST SWAP2 POP PUSH32 0x7475726E4E756D5265636F7264206E6F7420696E637265617365642E00000000 PUSH1 0x0 DUP4 ADD MSTORE PUSH1 0x20 DUP3 ADD SWAP1 POP SWAP2 SWAP1 POP JUMP JUMPDEST PUSH1 0x0 PUSH2 0x2EC6 PUSH1 0x12 DUP4 PUSH2 0x3ED3 JUMP JUMPDEST SWAP2 POP PUSH32 0x4368616E6E656C2066696E616C697A65642E0000000000000000000000000000 PUSH1 0x0 DUP4 ADD MSTORE PUSH1 0x20 DUP3 ADD SWAP1 POP SWAP2 SWAP1 POP JUMP JUMPDEST PUSH1 0x0 PUSH2 0x2F06 PUSH1 0x18 DUP4 PUSH2 0x3ED3 JUMP JUMPDEST SWAP2 POP PUSH32 0x7475726E4E756D5265636F7264206465637265617365642E0000000000000000 PUSH1 0x0 DUP4 ADD MSTORE PUSH1 0x20 DUP3 ADD SWAP1 POP SWAP2 SWAP1 POP JUMP JUMPDEST PUSH1 0x0 PUSH2 0x2F46 PUSH1 0x15 DUP4 PUSH2 0x3ED3 JUMP JUMPDEST SWAP2 POP PUSH32 0x4E6F206F6E676F696E67206368616C6C656E67652E0000000000000000000000 PUSH1 0x0 DUP4 ADD MSTORE PUSH1 0x20 DUP3 ADD SWAP1 POP SWAP2 SWAP1 POP JUMP JUMPDEST PUSH1 0x0 PUSH2 0x2F86 PUSH1 0x1F DUP4 PUSH2 0x3ED3 JUMP JUMPDEST SWAP2 POP PUSH32 0x4368616C6C656E676572206973206E6F742061207061727469636970616E7400 PUSH1 0x0 DUP4 ADD MSTORE PUSH1 0x20 DUP3 ADD SWAP1 POP SWAP2 SWAP1 POP JUMP JUMPDEST PUSH1 0x0 PUSH2 0x2FC6 PUSH1 0x12 DUP4 PUSH2 0x3ED3 JUMP JUMPDEST SWAP2 POP PUSH32 0x496E76616C6964207369676E6174757265730000000000000000000000000000 PUSH1 0x0 DUP4 ADD MSTORE PUSH1 0x20 DUP3 ADD SWAP1 POP SWAP2 SWAP1 POP JUMP JUMPDEST PUSH1 0x0 PUSH2 0x3006 PUSH1 0x4C DUP4 PUSH2 0x3ED3 JUMP JUMPDEST SWAP2 POP PUSH32 0x496E76616C69645472616E736974696F6E4572726F723A2043616E6E6F742063 PUSH1 0x0 DUP4 ADD MSTORE PUSH32 0x68616E6765207468652064656661756C74206F7574636F6D6520647572696E67 PUSH1 0x20 DUP4 ADD MSTORE PUSH32 0x2073657475702070686173650000000000000000000000000000000000000000 PUSH1 0x40 DUP4 ADD MSTORE PUSH1 0x60 DUP3 ADD SWAP1 POP SWAP2 SWAP1 POP JUMP JUMPDEST PUSH1 0x0 PUSH2 0x3092 PUSH1 0x47 DUP4 PUSH2 0x3ED3 JUMP JUMPDEST SWAP2 POP PUSH32 0x5F76616C69645369676E6174757265733A2077686F5369676E65645768617420 PUSH1 0x0 DUP4 ADD MSTORE PUSH32 0x6D757374206265207468652073616D65206C656E677468206173207061727469 PUSH1 0x20 DUP4 ADD MSTORE PUSH32 0x636970616E747300000000000000000000000000000000000000000000000000 PUSH1 0x40 DUP4 ADD MSTORE PUSH1 0x60 DUP3 ADD SWAP1 POP SWAP2 SWAP1 POP JUMP JUMPDEST PUSH1 0x0 PUSH2 0x311E PUSH1 0x9 DUP4 PUSH2 0x3ED3 JUMP JUMPDEST SWAP2 POP PUSH32 0x666F7263654D6F76650000000000000000000000000000000000000000000000 PUSH1 0x0 DUP4 ADD MSTORE PUSH1 0x20 DUP3 ADD SWAP1 POP SWAP2 SWAP1 POP JUMP JUMPDEST PUSH1 0x0 PUSH2 0x315E PUSH1 0x4B DUP4 PUSH2 0x3ED3 JUMP JUMPDEST SWAP2 POP PUSH32 0x496E76616C69645472616E736974696F6E4572726F723A2043616E6E6F74206D PUSH1 0x0 DUP4 ADD MSTORE PUSH32 0x6F76652066726F6D20612066696E616C20737461746520746F2061206E6F6E20 PUSH1 0x20 DUP4 ADD MSTORE PUSH32 0x66696E616C207374617465000000000000000000000000000000000000000000 PUSH1 0x40 DUP4 ADD MSTORE PUSH1 0x60 DUP3 ADD SWAP1 POP SWAP2 SWAP1 POP JUMP JUMPDEST PUSH1 0x0 PUSH2 0x31EA PUSH1 0x55 DUP4 PUSH2 0x3ED3 JUMP JUMPDEST SWAP2 POP PUSH32 0x496E76616C69645472616E736974696F6E4572726F723A2043616E6E6F74206D PUSH1 0x0 DUP4 ADD MSTORE PUSH32 0x6F766520746F20612066696E616C207374617465207769746820612064696666 PUSH1 0x20 DUP4 ADD MSTORE PUSH32 0x6572656E742064656661756C74206F7574636F6D650000000000000000000000 PUSH1 0x40 DUP4 ADD MSTORE PUSH1 0x60 DUP3 ADD SWAP1 POP SWAP2 SWAP1 POP JUMP JUMPDEST PUSH1 0x0 PUSH2 0x3276 PUSH1 0x2E DUP4 PUSH2 0x3ED3 JUMP JUMPDEST SWAP2 POP PUSH32 0x4368616E6E656C2073746F7261676520646F6573206E6F74206D617463682073 PUSH1 0x0 DUP4 ADD MSTORE PUSH32 0x746F7265642076657273696F6E2E000000000000000000000000000000000000 PUSH1 0x20 DUP4 ADD MSTORE PUSH1 0x40 DUP3 ADD SWAP1 POP SWAP2 SWAP1 POP JUMP JUMPDEST PUSH1 0x0 PUSH2 0x32DC PUSH1 0x2B DUP4 PUSH2 0x3ED3 JUMP JUMPDEST SWAP2 POP PUSH32 0x496E76616C6964207369676E617475726573204F5220697346696E616C3D7472 PUSH1 0x0 DUP4 ADD MSTORE PUSH32 0x7565206578706563746564000000000000000000000000000000000000000000 PUSH1 0x20 DUP4 ADD MSTORE PUSH1 0x40 DUP3 ADD SWAP1 POP SWAP2 SWAP1 POP JUMP JUMPDEST PUSH1 0x0 PUSH2 0x3342 PUSH1 0x20 DUP4 PUSH2 0x3ED3 JUMP JUMPDEST SWAP2 POP PUSH32 0x556E61636365707461626C652077686F5369676E656457686174206172726179 PUSH1 0x0 DUP4 ADD MSTORE PUSH1 0x20 DUP3 ADD SWAP1 POP SWAP2 SWAP1 POP JUMP JUMPDEST PUSH1 0x0 PUSH2 0x3382 PUSH1 0x16 DUP4 PUSH2 0x3ED3 JUMP JUMPDEST SWAP2 POP PUSH32 0x4368616E6E656C206E6F742066696E616C697A65642E00000000000000000000 PUSH1 0x0 DUP4 ADD MSTORE PUSH1 0x20 DUP3 ADD SWAP1 POP SWAP2 SWAP1 POP JUMP JUMPDEST PUSH1 0x0 PUSH2 0x33C2 PUSH1 0x27 DUP4 PUSH2 0x3ED3 JUMP JUMPDEST SWAP2 POP PUSH32 0x526573706F6E7365206E6F74207369676E656420627920617574686F72697A65 PUSH1 0x0 DUP4 ADD MSTORE PUSH32 0x64206D6F76657200000000000000000000000000000000000000000000000000 PUSH1 0x20 DUP4 ADD MSTORE PUSH1 0x40 DUP3 ADD SWAP1 POP SWAP2 SWAP1 POP JUMP JUMPDEST PUSH1 0xA0 DUP3 ADD PUSH1 0x0 DUP3 ADD MLOAD PUSH2 0x3431 PUSH1 0x0 DUP6 ADD DUP3 PUSH2 0x3658 JUMP JUMPDEST POP PUSH1 0x20 DUP3 ADD MLOAD PUSH2 0x3444 PUSH1 0x20 DUP6 ADD DUP3 PUSH2 0x3658 JUMP JUMPDEST POP PUSH1 0x40 DUP3 ADD MLOAD PUSH2 0x3457 PUSH1 0x40 DUP6 ADD DUP3 PUSH2 0x2CDC JUMP JUMPDEST POP PUSH1 0x60 DUP3 ADD MLOAD PUSH2 0x346A PUSH1 0x60 DUP6 ADD DUP3 PUSH2 0x2AB3 JUMP JUMPDEST POP PUSH1 0x80 DUP3 ADD MLOAD PUSH2 0x347D PUSH1 0x80 DUP6 ADD DUP3 PUSH2 0x2CDC JUMP JUMPDEST POP POP POP POP JUMP JUMPDEST PUSH1 0x0 PUSH1 0xA0 DUP4 ADD PUSH1 0x0 DUP4 ADD MLOAD PUSH2 0x349B PUSH1 0x0 DUP7 ADD DUP3 PUSH2 0x363A JUMP JUMPDEST POP PUSH1 0x20 DUP4 ADD MLOAD DUP5 DUP3 SUB PUSH1 0x20 DUP7 ADD MSTORE PUSH2 0x34B3 DUP3 DUP3 PUSH2 0x2AD1 JUMP JUMPDEST SWAP2 POP POP PUSH1 0x40 DUP4 ADD MLOAD PUSH2 0x34C8 PUSH1 0x40 DUP7 ADD DUP3 PUSH2 0x3658 JUMP JUMPDEST POP PUSH1 0x60 DUP4 ADD MLOAD PUSH2 0x34DB PUSH1 0x60 DUP7 ADD DUP3 PUSH2 0x2AB3 JUMP JUMPDEST POP PUSH1 0x80 DUP4 ADD MLOAD PUSH2 0x34EE PUSH1 0x80 DUP7 ADD DUP3 PUSH2 0x3658 JUMP JUMPDEST POP DUP1 SWAP2 POP POP SWAP3 SWAP2 POP POP JUMP JUMPDEST PUSH1 0x60 DUP3 ADD PUSH1 0x0 DUP3 ADD MLOAD PUSH2 0x350F PUSH1 0x0 DUP6 ADD DUP3 PUSH2 0x3676 JUMP JUMPDEST POP PUSH1 0x20 DUP3 ADD MLOAD PUSH2 0x3522 PUSH1 0x20 DUP6 ADD DUP3 PUSH2 0x2CDC JUMP JUMPDEST POP PUSH1 0x40 DUP3 ADD MLOAD PUSH2 0x3535 PUSH1 0x40 DUP6 ADD DUP3 PUSH2 0x2CDC JUMP JUMPDEST POP POP POP POP JUMP JUMPDEST PUSH1 0xA0 DUP3 ADD PUSH1 0x0 DUP3 ADD MLOAD PUSH2 0x3551 PUSH1 0x0 DUP6 ADD DUP3 PUSH2 0x3658 JUMP JUMPDEST POP PUSH1 0x20 DUP3 ADD MLOAD PUSH2 0x3564 PUSH1 0x20 DUP6 ADD DUP3 PUSH2 0x2CBE JUMP JUMPDEST POP PUSH1 0x40 DUP3 ADD MLOAD PUSH2 0x3577 PUSH1 0x40 DUP6 ADD DUP3 PUSH2 0x2CDC JUMP JUMPDEST POP PUSH1 0x60 DUP3 ADD MLOAD PUSH2 0x358A PUSH1 0x60 DUP6 ADD DUP3 PUSH2 0x2CDC JUMP JUMPDEST POP PUSH1 0x80 DUP3 ADD MLOAD PUSH2 0x359D PUSH1 0x80 DUP6 ADD DUP3 PUSH2 0x2CDC JUMP JUMPDEST POP POP POP POP JUMP JUMPDEST PUSH1 0x0 PUSH1 0x40 DUP4 ADD PUSH1 0x0 DUP4 ADD MLOAD DUP5 DUP3 SUB PUSH1 0x0 DUP7 ADD MSTORE PUSH2 0x35C0 DUP3 DUP3 PUSH2 0x2D4A JUMP JUMPDEST SWAP2 POP POP PUSH1 0x20 DUP4 ADD MLOAD DUP5 DUP3 SUB PUSH1 0x20 DUP7 ADD MSTORE PUSH2 0x35DA DUP3 DUP3 PUSH2 0x2D4A JUMP JUMPDEST SWAP2 POP POP DUP1 SWAP2 POP POP SWAP3 SWAP2 POP POP JUMP JUMPDEST PUSH1 0x0 PUSH1 0x40 DUP4 ADD PUSH1 0x0 DUP4 ADD MLOAD DUP5 DUP3 SUB PUSH1 0x0 DUP7 ADD MSTORE PUSH2 0x3604 DUP3 DUP3 PUSH2 0x2D4A JUMP JUMPDEST SWAP2 POP POP PUSH1 0x20 DUP4 ADD MLOAD DUP5 DUP3 SUB PUSH1 0x20 DUP7 ADD MSTORE PUSH2 0x361E DUP3 DUP3 PUSH2 0x2D4A JUMP JUMPDEST SWAP2 POP POP DUP1 SWAP2 POP POP SWAP3 SWAP2 POP POP JUMP JUMPDEST PUSH2 0x3634 DUP2 PUSH2 0x3F0C JUMP JUMPDEST DUP3 MSTORE POP POP JUMP JUMPDEST PUSH2 0x3643 DUP2 PUSH2 0x3F2C JUMP JUMPDEST DUP3 MSTORE POP POP JUMP JUMPDEST PUSH2 0x3652 DUP2 PUSH2 0x3F2C JUMP JUMPDEST DUP3 MSTORE POP POP JUMP JUMPDEST PUSH2 0x3661 DUP2 PUSH2 0x3F36 JUMP JUMPDEST DUP3 MSTORE POP POP JUMP JUMPDEST PUSH2 0x3670 DUP2 PUSH2 0x3F36 JUMP JUMPDEST DUP3 MSTORE POP POP JUMP JUMPDEST PUSH2 0x367F DUP2 PUSH2 0x3F48 JUMP JUMPDEST DUP3 MSTORE POP POP JUMP JUMPDEST PUSH2 0x368E DUP2 PUSH2 0x3F48 JUMP JUMPDEST DUP3 MSTORE POP POP JUMP JUMPDEST PUSH1 0x0 PUSH2 0x36A0 DUP3 DUP5 PUSH2 0x2DBC JUMP JUMPDEST SWAP2 POP DUP2 SWAP1 POP SWAP3 SWAP2 POP POP JUMP JUMPDEST PUSH1 0x0 PUSH2 0x36B7 DUP3 DUP6 PUSH2 0x2DBC JUMP JUMPDEST SWAP2 POP PUSH2 0x36C3 DUP3 DUP5 PUSH2 0x2CFA JUMP JUMPDEST PUSH1 0x20 DUP3 ADD SWAP2 POP DUP2 SWAP1 POP SWAP4 SWAP3 POP POP POP JUMP JUMPDEST PUSH1 0x0 PUSH1 0x20 DUP3 ADD SWAP1 POP PUSH2 0x36E8 PUSH1 0x0 DUP4 ADD DUP5 PUSH2 0x2CCD JUMP JUMPDEST SWAP3 SWAP2 POP POP JUMP JUMPDEST PUSH1 0x0 PUSH1 0x20 DUP3 ADD SWAP1 POP PUSH2 0x3703 PUSH1 0x0 DUP4 ADD DUP5 PUSH2 0x2CEB JUMP JUMPDEST SWAP3 SWAP2 POP POP JUMP JUMPDEST PUSH1 0x0 PUSH1 0x40 DUP3 ADD SWAP1 POP PUSH2 0x371E PUSH1 0x0 DUP4 ADD DUP6 PUSH2 0x2CEB JUMP JUMPDEST PUSH2 0x372B PUSH1 0x20 DUP4 ADD DUP5 PUSH2 0x2CEB JUMP JUMPDEST SWAP4 SWAP3 POP POP POP JUMP JUMPDEST PUSH1 0x0 PUSH1 0x40 DUP3 ADD SWAP1 POP PUSH2 0x3747 PUSH1 0x0 DUP4 ADD DUP6 PUSH2 0x2CEB JUMP JUMPDEST DUP2 DUP2 SUB PUSH1 0x20 DUP4 ADD MSTORE PUSH2 0x3759 DUP2 DUP5 PUSH2 0x2D83 JUMP JUMPDEST SWAP1 POP SWAP4 SWAP3 POP POP POP JUMP JUMPDEST PUSH1 0x0 PUSH1 0x40 DUP3 ADD SWAP1 POP PUSH2 0x3777 PUSH1 0x0 DUP4 ADD DUP5 PUSH2 0x2CEB JUMP JUMPDEST DUP2 DUP2 SUB PUSH1 0x20 DUP4 ADD MSTORE PUSH2 0x3788 DUP2 PUSH2 0x3111 JUMP JUMPDEST SWAP1 POP SWAP3 SWAP2 POP POP JUMP JUMPDEST PUSH1 0x0 PUSH1 0x80 DUP3 ADD SWAP1 POP PUSH2 0x37A5 PUSH1 0x0 DUP4 ADD DUP8 PUSH2 0x2CEB JUMP JUMPDEST PUSH2 0x37B2 PUSH1 0x20 DUP4 ADD DUP7 PUSH2 0x3685 JUMP JUMPDEST PUSH2 0x37BF PUSH1 0x40 DUP4 ADD DUP6 PUSH2 0x2CEB JUMP JUMPDEST PUSH2 0x37CC PUSH1 0x60 DUP4 ADD DUP5 PUSH2 0x2CEB JUMP JUMPDEST SWAP6 SWAP5 POP POP POP POP POP JUMP JUMPDEST PUSH1 0x0 PUSH1 0x20 DUP3 ADD SWAP1 POP DUP2 DUP2 SUB PUSH1 0x0 DUP4 ADD MSTORE PUSH2 0x37EF DUP2 DUP5 PUSH2 0x2D83 JUMP JUMPDEST SWAP1 POP SWAP3 SWAP2 POP POP JUMP JUMPDEST PUSH1 0x0 PUSH1 0x20 DUP3 ADD SWAP1 POP DUP2 DUP2 SUB PUSH1 0x0 DUP4 ADD MSTORE PUSH2 0x3811 DUP2 DUP5 PUSH2 0x2D11 JUMP JUMPDEST SWAP1 POP SWAP3 SWAP2 POP POP JUMP JUMPDEST PUSH1 0x0 PUSH1 0x20 DUP3 ADD SWAP1 POP DUP2 DUP2 SUB PUSH1 0x0 DUP4 ADD MSTORE PUSH2 0x3832 DUP2 PUSH2 0x2DED JUMP JUMPDEST SWAP1 POP SWAP2 SWAP1 POP JUMP JUMPDEST PUSH1 0x0 PUSH1 0x20 DUP3 ADD SWAP1 POP DUP2 DUP2 SUB PUSH1 0x0 DUP4 ADD MSTORE PUSH2 0x3852 DUP2 PUSH2 0x2E79 JUMP JUMPDEST SWAP1 POP SWAP2 SWAP1 POP JUMP JUMPDEST PUSH1 0x0 PUSH1 0x20 DUP3 ADD SWAP1 POP DUP2 DUP2 SUB PUSH1 0x0 DUP4 ADD MSTORE PUSH2 0x3872 DUP2 PUSH2 0x2EB9 JUMP JUMPDEST SWAP1 POP SWAP2 SWAP1 POP JUMP JUMPDEST PUSH1 0x0 PUSH1 0x20 DUP3 ADD SWAP1 POP DUP2 DUP2 SUB PUSH1 0x0 DUP4 ADD MSTORE PUSH2 0x3892 DUP2 PUSH2 0x2EF9 JUMP JUMPDEST SWAP1 POP SWAP2 SWAP1 POP JUMP JUMPDEST PUSH1 0x0 PUSH1 0x20 DUP3 ADD SWAP1 POP DUP2 DUP2 SUB PUSH1 0x0 DUP4 ADD MSTORE PUSH2 0x38B2 DUP2 PUSH2 0x2F39 JUMP JUMPDEST SWAP1 POP SWAP2 SWAP1 POP JUMP JUMPDEST PUSH1 0x0 PUSH1 0x20 DUP3 ADD SWAP1 POP DUP2 DUP2 SUB PUSH1 0x0 DUP4 ADD MSTORE PUSH2 0x38D2 DUP2 PUSH2 0x2F79 JUMP JUMPDEST SWAP1 POP SWAP2 SWAP1 POP JUMP JUMPDEST PUSH1 0x0 PUSH1 0x20 DUP3 ADD SWAP1 POP DUP2 DUP2 SUB PUSH1 0x0 DUP4 ADD MSTORE PUSH2 0x38F2 DUP2 PUSH2 0x2FB9 JUMP JUMPDEST SWAP1 POP SWAP2 SWAP1 POP JUMP JUMPDEST PUSH1 0x0 PUSH1 0x20 DUP3 ADD SWAP1 POP DUP2 DUP2 SUB PUSH1 0x0 DUP4 ADD MSTORE PUSH2 0x3912 DUP2 PUSH2 0x2FF9 JUMP JUMPDEST SWAP1 POP SWAP2 SWAP1 POP JUMP JUMPDEST PUSH1 0x0 PUSH1 0x20 DUP3 ADD SWAP1 POP DUP2 DUP2 SUB PUSH1 0x0 DUP4 ADD MSTORE PUSH2 0x3932 DUP2 PUSH2 0x3085 JUMP JUMPDEST SWAP1 POP SWAP2 SWAP1 POP JUMP JUMPDEST PUSH1 0x0 PUSH1 0x20 DUP3 ADD SWAP1 POP DUP2 DUP2 SUB PUSH1 0x0 DUP4 ADD MSTORE PUSH2 0x3952 DUP2 PUSH2 0x3151 JUMP JUMPDEST SWAP1 POP SWAP2 SWAP1 POP JUMP JUMPDEST PUSH1 0x0 PUSH1 0x20 DUP3 ADD SWAP1 POP DUP2 DUP2 SUB PUSH1 0x0 DUP4 ADD MSTORE PUSH2 0x3972 DUP2 PUSH2 0x31DD JUMP JUMPDEST SWAP1 POP SWAP2 SWAP1 POP JUMP JUMPDEST PUSH1 0x0 PUSH1 0x20 DUP3 ADD SWAP1 POP DUP2 DUP2 SUB PUSH1 0x0 DUP4 ADD MSTORE PUSH2 0x3992 DUP2 PUSH2 0x3269 JUMP JUMPDEST SWAP1 POP SWAP2 SWAP1 POP JUMP JUMPDEST PUSH1 0x0 PUSH1 0x20 DUP3 ADD SWAP1 POP DUP2 DUP2 SUB PUSH1 0x0 DUP4 ADD MSTORE PUSH2 0x39B2 DUP2 PUSH2 0x32CF JUMP JUMPDEST SWAP1 POP SWAP2 SWAP1 POP JUMP JUMPDEST PUSH1 0x0 PUSH1 0x20 DUP3 ADD SWAP1 POP DUP2 DUP2 SUB PUSH1 0x0 DUP4 ADD MSTORE PUSH2 0x39D2 DUP2 PUSH2 0x3335 JUMP JUMPDEST SWAP1 POP SWAP2 SWAP1 POP JUMP JUMPDEST PUSH1 0x0 PUSH1 0x20 DUP3 ADD SWAP1 POP DUP2 DUP2 SUB PUSH1 0x0 DUP4 ADD MSTORE PUSH2 0x39F2 DUP2 PUSH2 0x3375 JUMP JUMPDEST SWAP1 POP SWAP2 SWAP1 POP JUMP JUMPDEST PUSH1 0x0 PUSH1 0x20 DUP3 ADD SWAP1 POP DUP2 DUP2 SUB PUSH1 0x0 DUP4 ADD MSTORE PUSH2 0x3A12 DUP2 PUSH2 0x33B5 JUMP JUMPDEST SWAP1 POP SWAP2 SWAP1 POP JUMP JUMPDEST PUSH1 0x0 PUSH1 0xA0 DUP3 ADD SWAP1 POP PUSH2 0x3A2E PUSH1 0x0 DUP4 ADD DUP5 PUSH2 0x341B JUMP JUMPDEST SWAP3 SWAP2 POP POP JUMP JUMPDEST PUSH1 0x0 PUSH1 0xA0 DUP3 ADD SWAP1 POP PUSH2 0x3A49 PUSH1 0x0 DUP4 ADD DUP5 PUSH2 0x353B JUMP JUMPDEST SWAP3 SWAP2 POP POP JUMP JUMPDEST PUSH1 0x0 PUSH1 0x80 DUP3 ADD SWAP1 POP DUP2 DUP2 SUB PUSH1 0x0 DUP4 ADD MSTORE PUSH2 0x3A69 DUP2 DUP8 PUSH2 0x35E7 JUMP JUMPDEST SWAP1 POP DUP2 DUP2 SUB PUSH1 0x20 DUP4 ADD MSTORE PUSH2 0x3A7D DUP2 DUP7 PUSH2 0x35E7 JUMP JUMPDEST SWAP1 POP PUSH2 0x3A8C PUSH1 0x40 DUP4 ADD DUP6 PUSH2 0x3667 JUMP JUMPDEST PUSH2 0x3A99 PUSH1 0x60 DUP4 ADD DUP5 PUSH2 0x3649 JUMP JUMPDEST SWAP6 SWAP5 POP POP POP POP POP JUMP JUMPDEST PUSH1 0x0 PUSH1 0x60 DUP3 ADD SWAP1 POP PUSH2 0x3AB7 PUSH1 0x0 DUP4 ADD DUP7 PUSH2 0x3649 JUMP JUMPDEST DUP2 DUP2 SUB PUSH1 0x20 DUP4 ADD MSTORE PUSH2 0x3AC9 DUP2 DUP6 PUSH2 0x2B2F JUMP JUMPDEST SWAP1 POP PUSH2 0x3AD8 PUSH1 0x40 DUP4 ADD DUP5 PUSH2 0x3667 JUMP JUMPDEST SWAP5 SWAP4 POP POP POP POP JUMP JUMPDEST PUSH1 0x0 PUSH1 0x20 DUP3 ADD SWAP1 POP PUSH2 0x3AF5 PUSH1 0x0 DUP4 ADD DUP5 PUSH2 0x3667 JUMP JUMPDEST SWAP3 SWAP2 POP POP JUMP JUMPDEST PUSH1 0x0 PUSH1 0x60 DUP3 ADD SWAP1 POP PUSH2 0x3B10 PUSH1 0x0 DUP4 ADD DUP7 PUSH2 0x3667 JUMP JUMPDEST PUSH2 0x3B1D PUSH1 0x20 DUP4 ADD DUP6 PUSH2 0x2AC2 JUMP JUMPDEST DUP2 DUP2 SUB PUSH1 0x40 DUP4 ADD MSTORE PUSH2 0x3B2F DUP2 DUP5 PUSH2 0x2D11 JUMP JUMPDEST SWAP1 POP SWAP5 SWAP4 POP POP POP POP JUMP JUMPDEST PUSH1 0x0 PUSH2 0x100 DUP3 ADD SWAP1 POP PUSH2 0x3B4F PUSH1 0x0 DUP4 ADD DUP12 PUSH2 0x3667 JUMP JUMPDEST PUSH2 0x3B5C PUSH1 0x20 DUP4 ADD DUP11 PUSH2 0x3667 JUMP JUMPDEST PUSH2 0x3B69 PUSH1 0x40 DUP4 ADD DUP10 PUSH2 0x2AC2 JUMP JUMPDEST PUSH2 0x3B76 PUSH1 0x60 DUP4 ADD DUP9 PUSH2 0x2CCD JUMP JUMPDEST DUP2 DUP2 SUB PUSH1 0x80 DUP4 ADD MSTORE PUSH2 0x3B88 DUP2 DUP8 PUSH2 0x3483 JUMP JUMPDEST SWAP1 POP DUP2 DUP2 SUB PUSH1 0xA0 DUP4 ADD MSTORE PUSH2 0x3B9C DUP2 DUP7 PUSH2 0x2BEB JUMP JUMPDEST SWAP1 POP DUP2 DUP2 SUB PUSH1 0xC0 DUP4 ADD MSTORE PUSH2 0x3BB0 DUP2 DUP6 PUSH2 0x2B8D JUMP JUMPDEST SWAP1 POP DUP2 DUP2 SUB PUSH1 0xE0 DUP4 ADD MSTORE PUSH2 0x3BC4 DUP2 DUP5 PUSH2 0x2C60 JUMP JUMPDEST SWAP1 POP SWAP10 SWAP9 POP POP POP POP POP POP POP POP POP JUMP JUMPDEST PUSH1 0x0 PUSH1 0x60 DUP3 ADD SWAP1 POP PUSH2 0x3BE8 PUSH1 0x0 DUP4 ADD DUP7 PUSH2 0x3667 JUMP JUMPDEST PUSH2 0x3BF5 PUSH1 0x20 DUP4 ADD DUP6 PUSH2 0x3667 JUMP JUMPDEST PUSH2 0x3C02 PUSH1 0x40 DUP4 ADD DUP5 PUSH2 0x362B JUMP JUMPDEST SWAP5 SWAP4 POP POP POP POP JUMP JUMPDEST PUSH1 0x0 PUSH1 0x40 MLOAD SWAP1 POP DUP2 DUP2 ADD DUP2 DUP2 LT PUSH8 0xFFFFFFFFFFFFFFFF DUP3 GT OR ISZERO PUSH2 0x3C2D JUMPI PUSH1 0x0 DUP1 REVERT JUMPDEST DUP1 PUSH1 0x40 MSTORE POP SWAP2 SWAP1 POP JUMP JUMPDEST PUSH1 0x0 PUSH8 0xFFFFFFFFFFFFFFFF DUP3 GT ISZERO PUSH2 0x3C4E JUMPI PUSH1 0x0 DUP1 REVERT JUMPDEST PUSH1 0x20 DUP3 MUL SWAP1 POP PUSH1 0x20 DUP2 ADD SWAP1 POP SWAP2 SWAP1 POP JUMP JUMPDEST PUSH1 0x0 PUSH8 0xFFFFFFFFFFFFFFFF DUP3 GT ISZERO PUSH2 0x3C76 JUMPI PUSH1 0x0 DUP1 REVERT JUMPDEST PUSH1 0x20 DUP3 MUL SWAP1 POP SWAP2 SWAP1 POP JUMP JUMPDEST PUSH1 0x0 PUSH8 0xFFFFFFFFFFFFFFFF DUP3 GT ISZERO PUSH2 0x3C98 JUMPI PUSH1 0x0 DUP1 REVERT JUMPDEST PUSH1 0x20 DUP3 MUL SWAP1 POP PUSH1 0x20 DUP2 ADD SWAP1 POP SWAP2 SWAP1 POP JUMP JUMPDEST PUSH1 0x0 PUSH8 0xFFFFFFFFFFFFFFFF DUP3 GT ISZERO PUSH2 0x3CC0 JUMPI PUSH1 0x0 DUP1 REVERT JUMPDEST PUSH1 0x20 DUP3 MUL SWAP1 POP PUSH1 0x20 DUP2 ADD SWAP1 POP SWAP2 SWAP1 POP JUMP JUMPDEST PUSH1 0x0 PUSH8 0xFFFFFFFFFFFFFFFF DUP3 GT ISZERO PUSH2 0x3CE8 JUMPI PUSH1 0x0 DUP1 REVERT JUMPDEST PUSH1 0x20 DUP3 MUL SWAP1 POP SWAP2 SWAP1 POP JUMP JUMPDEST PUSH1 0x0 PUSH8 0xFFFFFFFFFFFFFFFF DUP3 GT ISZERO PUSH2 0x3D0A JUMPI PUSH1 0x0 DUP1 REVERT JUMPDEST PUSH1 0x20 DUP3 MUL SWAP1 POP PUSH1 0x20 DUP2 ADD SWAP1 POP SWAP2 SWAP1 POP JUMP JUMPDEST PUSH1 0x0 PUSH8 0xFFFFFFFFFFFFFFFF DUP3 GT ISZERO PUSH2 0x3D32 JUMPI PUSH1 0x0 DUP1 REVERT JUMPDEST PUSH1 0x20 DUP3 MUL SWAP1 POP PUSH1 0x20 DUP2 ADD SWAP1 POP SWAP2 SWAP1 POP JUMP JUMPDEST PUSH1 0x0 PUSH8 0xFFFFFFFFFFFFFFFF DUP3 GT ISZERO PUSH2 0x3D5A JUMPI PUSH1 0x0 DUP1 REVERT JUMPDEST PUSH1 0x1F NOT PUSH1 0x1F DUP4 ADD AND SWAP1 POP PUSH1 0x20 DUP2 ADD SWAP1 POP SWAP2 SWAP1 POP JUMP JUMPDEST PUSH1 0x0 PUSH8 0xFFFFFFFFFFFFFFFF DUP3 GT ISZERO PUSH2 0x3D86 JUMPI PUSH1 0x0 DUP1 REVERT JUMPDEST PUSH1 0x1F NOT PUSH1 0x1F DUP4 ADD AND SWAP1 POP PUSH1 0x20 DUP2 ADD SWAP1 POP SWAP2 SWAP1 POP JUMP JUMPDEST PUSH1 0x0 DUP2 SWAP1 POP PUSH1 0x20 DUP3 ADD SWAP1 POP SWAP2 SWAP1 POP JUMP JUMPDEST PUSH1 0x0 DUP2 SWAP1 POP PUSH1 0x20 DUP3 ADD SWAP1 POP SWAP2 SWAP1 POP JUMP JUMPDEST PUSH1 0x0 DUP2 SWAP1 POP PUSH1 0x20 DUP3 ADD SWAP1 POP SWAP2 SWAP1 POP JUMP JUMPDEST PUSH1 0x0 DUP2 SWAP1 POP PUSH1 0x20 DUP3 ADD SWAP1 POP SWAP2 SWAP1 POP JUMP JUMPDEST PUSH1 0x0 DUP2 MLOAD SWAP1 POP SWAP2 SWAP1 POP JUMP JUMPDEST PUSH1 0x0 DUP2 MLOAD SWAP1 POP SWAP2 SWAP1 POP JUMP JUMPDEST PUSH1 0x0 DUP2 MLOAD SWAP1 POP SWAP2 SWAP1 POP JUMP JUMPDEST PUSH1 0x0 DUP2 MLOAD SWAP1 POP SWAP2 SWAP1 POP JUMP JUMPDEST PUSH1 0x0 DUP2 MLOAD SWAP1 POP SWAP2 SWAP1 POP JUMP JUMPDEST PUSH1 0x0 DUP2 MLOAD SWAP1 POP SWAP2 SWAP1 POP JUMP JUMPDEST PUSH1 0x0 PUSH1 0x20 DUP3 ADD SWAP1 POP SWAP2 SWAP1 POP JUMP JUMPDEST PUSH1 0x0 PUSH1 0x20 DUP3 ADD SWAP1 POP SWAP2 SWAP1 POP JUMP JUMPDEST PUSH1 0x0 PUSH1 0x20 DUP3 ADD SWAP1 POP SWAP2 SWAP1 POP JUMP JUMPDEST PUSH1 0x0 PUSH1 0x20 DUP3 ADD SWAP1 POP SWAP2 SWAP1 POP JUMP JUMPDEST PUSH1 0x0 DUP3 DUP3 MSTORE PUSH1 0x20 DUP3 ADD SWAP1 POP SWAP3 SWAP2 POP POP JUMP JUMPDEST PUSH1 0x0 DUP3 DUP3 MSTORE PUSH1 0x20 DUP3 ADD SWAP1 POP SWAP3 SWAP2 POP POP JUMP JUMPDEST PUSH1 0x0 DUP3 DUP3 MSTORE PUSH1 0x20 DUP3 ADD SWAP1 POP SWAP3 SWAP2 POP POP JUMP JUMPDEST PUSH1 0x0 DUP3 DUP3 MSTORE PUSH1 0x20 DUP3 ADD SWAP1 POP SWAP3 SWAP2 POP POP JUMP JUMPDEST PUSH1 0x0 DUP3 DUP3 MSTORE PUSH1 0x20 DUP3 ADD SWAP1 POP SWAP3 SWAP2 POP POP JUMP JUMPDEST PUSH1 0x0 DUP3 DUP3 MSTORE PUSH1 0x20 DUP3 ADD SWAP1 POP SWAP3 SWAP2 POP POP JUMP JUMPDEST PUSH1 0x0 DUP3 DUP3 MSTORE PUSH1 0x20 DUP3 ADD SWAP1 POP SWAP3 SWAP2 POP POP JUMP JUMPDEST PUSH1 0x0 DUP2 SWAP1 POP SWAP3 SWAP2 POP POP JUMP JUMPDEST PUSH1 0x0 DUP3 DUP3 MSTORE PUSH1 0x20 DUP3 ADD SWAP1 POP SWAP3 SWAP2 POP POP JUMP JUMPDEST PUSH1 0x0 PUSH2 0x3EEF DUP3 PUSH2 0x3F0C JUMP JUMPDEST SWAP1 POP SWAP2 SWAP1 POP JUMP JUMPDEST PUSH1 0x0 DUP2 ISZERO ISZERO SWAP1 POP SWAP2 SWAP1 POP JUMP JUMPDEST PUSH1 0x0 DUP2 SWAP1 POP SWAP2 SWAP1 POP JUMP JUMPDEST PUSH1 0x0 PUSH20 0xFFFFFFFFFFFFFFFFFFFFFFFFFFFFFFFFFFFFFFFF DUP3 AND SWAP1 POP SWAP2 SWAP1 POP JUMP JUMPDEST PUSH1 0x0 DUP2 SWAP1 POP SWAP2 SWAP1 POP JUMP JUMPDEST PUSH1 0x0 PUSH6 0xFFFFFFFFFFFF DUP3 AND SWAP1 POP SWAP2 SWAP1 POP JUMP JUMPDEST PUSH1 0x0 PUSH1 0xFF DUP3 AND SWAP1 POP SWAP2 SWAP1 POP JUMP JUMPDEST DUP3 DUP2 DUP4 CALLDATACOPY PUSH1 0x0 DUP4 DUP4 ADD MSTORE POP POP POP JUMP JUMPDEST PUSH1 0x0 JUMPDEST DUP4 DUP2 LT ISZERO PUSH2 0x3F82 JUMPI DUP1 DUP3 ADD MLOAD DUP2 DUP5 ADD MSTORE PUSH1 0x20 DUP2 ADD SWAP1 POP PUSH2 0x3F67 JUMP JUMPDEST DUP4 DUP2 GT ISZERO PUSH2 0x3F91 JUMPI PUSH1 0x0 DUP5 DUP5 ADD MSTORE JUMPDEST POP POP POP POP JUMP JUMPDEST PUSH1 0x0 DUP2 SWAP1 POP SWAP2 SWAP1 POP JUMP JUMPDEST PUSH1 0x0 PUSH1 0x1F NOT PUSH1 0x1F DUP4 ADD AND SWAP1 POP SWAP2 SWAP1 POP JUMP JUMPDEST PUSH2 0x3FBB DUP2 PUSH2 0x3EE4 JUMP JUMPDEST DUP2 EQ PUSH2 0x3FC6 JUMPI PUSH1 0x0 DUP1 REVERT JUMPDEST POP JUMP JUMPDEST PUSH2 0x3FD2 DUP2 PUSH2 0x3EF6 JUMP JUMPDEST DUP2 EQ PUSH2 0x3FDD JUMPI PUSH1 0x0 DUP1 REVERT JUMPDEST POP JUMP JUMPDEST PUSH2 0x3FE9 DUP2 PUSH2 0x3F02 JUMP JUMPDEST DUP2 EQ PUSH2 0x3FF4 JUMPI PUSH1 0x0 DUP1 REVERT JUMPDEST POP JUMP JUMPDEST PUSH2 0x4000 DUP2 PUSH2 0x3F2C JUMP JUMPDEST DUP2 EQ PUSH2 0x400B JUMPI PUSH1 0x0 DUP1 REVERT JUMPDEST POP JUMP JUMPDEST PUSH2 0x4017 DUP2 PUSH2 0x3F36 JUMP JUMPDEST DUP2 EQ PUSH2 0x4022 JUMPI PUSH1 0x0 DUP1 REVERT JUMPDEST POP JUMP JUMPDEST PUSH2 0x402E DUP2 PUSH2 0x3F48 JUMP JUMPDEST DUP2 EQ PUSH2 0x4039 JUMPI PUSH1 0x0 DUP1 REVERT JUMPDEST POP JUMP INVALID LOG2 PUSH5 0x6970667358 0x22 SLT KECCAK256 0xDE 0xCE 0x26 0xDF KECCAK256 0xB1 0xE2 JUMPDEST 0xAF PUSH25 0x935EB717AFE5F169C438730BE1B440CAC985C57C33FD64736F PUSH13 0x63430006020033000000000000 "
    }
  },
  "sourcePath": "contracts/NitroAdjudicator.sol",
  "contractName": "NitroAdjudicator",
  "compiler": {
    "version": "unknown"
  }
}