{
  "abi": [
    {
      "anonymous": false,
      "inputs": [
        {
          "indexed": true,
          "internalType": "bytes32",
          "name": "channelId",
          "type": "bytes32"
        },
        {
          "indexed": false,
          "internalType": "uint48",
          "name": "newTurnNumRecord",
          "type": "uint48"
        }
      ],
      "name": "ChallengeCleared",
      "type": "event"
    },
    {
      "anonymous": false,
      "inputs": [
        {
          "indexed": true,
          "internalType": "bytes32",
          "name": "channelId",
          "type": "bytes32"
        },
        {
          "indexed": false,
          "internalType": "uint48",
          "name": "turnNumRecord",
          "type": "uint48"
        },
        {
          "indexed": false,
          "internalType": "uint48",
          "name": "finalizesAt",
          "type": "uint48"
        },
        {
          "indexed": false,
          "internalType": "address",
          "name": "challenger",
          "type": "address"
        },
        {
          "indexed": false,
          "internalType": "bool",
          "name": "isFinal",
          "type": "bool"
        },
        {
          "components": [
            {
              "internalType": "uint256",
              "name": "chainId",
              "type": "uint256"
            },
            {
              "internalType": "address[]",
              "name": "participants",
              "type": "address[]"
            },
            {
              "internalType": "uint48",
              "name": "channelNonce",
              "type": "uint48"
            },
            {
              "internalType": "address",
              "name": "appDefinition",
              "type": "address"
            },
            {
              "internalType": "uint48",
              "name": "challengeDuration",
              "type": "uint48"
            }
          ],
          "indexed": false,
          "internalType": "struct IForceMove.FixedPart",
          "name": "fixedPart",
          "type": "tuple"
        },
        {
          "components": [
            {
              "internalType": "bytes",
              "name": "outcome",
              "type": "bytes"
            },
            {
              "internalType": "bytes",
              "name": "appData",
              "type": "bytes"
            }
          ],
          "indexed": false,
          "internalType": "struct ForceMoveApp.VariablePart[]",
          "name": "variableParts",
          "type": "tuple[]"
        },
        {
          "components": [
            {
              "internalType": "uint8",
              "name": "v",
              "type": "uint8"
            },
            {
              "internalType": "bytes32",
              "name": "r",
              "type": "bytes32"
            },
            {
              "internalType": "bytes32",
              "name": "s",
              "type": "bytes32"
            }
          ],
          "indexed": false,
          "internalType": "struct IForceMove.Signature[]",
          "name": "sigs",
          "type": "tuple[]"
        },
        {
          "indexed": false,
          "internalType": "uint8[]",
          "name": "whoSignedWhat",
          "type": "uint8[]"
        }
      ],
      "name": "ChallengeRegistered",
      "type": "event"
    },
    {
      "anonymous": false,
      "inputs": [
        {
          "indexed": true,
          "internalType": "bytes32",
          "name": "channelId",
          "type": "bytes32"
        }
      ],
      "name": "Concluded",
      "type": "event"
    },
    {
      "inputs": [
        {
          "internalType": "uint8[]",
          "name": "whoSignedWhat",
          "type": "uint8[]"
        },
        {
          "internalType": "uint48",
          "name": "largestTurnNum",
          "type": "uint48"
        },
        {
          "internalType": "uint256",
          "name": "nParticipants",
          "type": "uint256"
        },
        {
          "internalType": "uint256",
          "name": "nStates",
          "type": "uint256"
        }
      ],
      "name": "acceptableWhoSignedWhat",
      "outputs": [
        {
          "internalType": "bool",
          "name": "",
          "type": "bool"
        }
      ],
      "stateMutability": "pure",
      "type": "function"
    },
    {
      "inputs": [
        {
          "internalType": "bytes32",
          "name": "",
          "type": "bytes32"
        }
      ],
      "name": "channelStorageHashes",
      "outputs": [
        {
          "internalType": "bytes32",
          "name": "",
          "type": "bytes32"
        }
      ],
      "stateMutability": "view",
      "type": "function"
    },
    {
      "inputs": [
        {
          "components": [
            {
              "internalType": "uint256",
              "name": "chainId",
              "type": "uint256"
            },
            {
              "internalType": "address[]",
              "name": "participants",
              "type": "address[]"
            },
            {
              "internalType": "uint48",
              "name": "channelNonce",
              "type": "uint48"
            },
            {
              "internalType": "address",
              "name": "appDefinition",
              "type": "address"
            },
            {
              "internalType": "uint48",
              "name": "challengeDuration",
              "type": "uint48"
            }
          ],
          "internalType": "struct IForceMove.FixedPart",
          "name": "fixedPart",
          "type": "tuple"
        },
        {
          "internalType": "uint48",
          "name": "largestTurnNum",
          "type": "uint48"
        },
        {
          "components": [
            {
              "internalType": "bytes",
              "name": "outcome",
              "type": "bytes"
            },
            {
              "internalType": "bytes",
              "name": "appData",
              "type": "bytes"
            }
          ],
          "internalType": "struct ForceMoveApp.VariablePart[]",
          "name": "variableParts",
          "type": "tuple[]"
        },
        {
          "internalType": "uint8",
          "name": "isFinalCount",
          "type": "uint8"
        },
        {
          "components": [
            {
              "internalType": "uint8",
              "name": "v",
              "type": "uint8"
            },
            {
              "internalType": "bytes32",
              "name": "r",
              "type": "bytes32"
            },
            {
              "internalType": "bytes32",
              "name": "s",
              "type": "bytes32"
            }
          ],
          "internalType": "struct IForceMove.Signature[]",
          "name": "sigs",
          "type": "tuple[]"
        },
        {
          "internalType": "uint8[]",
          "name": "whoSignedWhat",
          "type": "uint8[]"
        }
      ],
      "name": "checkpoint",
      "outputs": [],
      "stateMutability": "nonpayable",
      "type": "function"
    },
    {
      "inputs": [
        {
          "internalType": "uint48",
          "name": "largestTurnNum",
          "type": "uint48"
        },
        {
          "components": [
            {
              "internalType": "uint256",
              "name": "chainId",
              "type": "uint256"
            },
            {
              "internalType": "address[]",
              "name": "participants",
              "type": "address[]"
            },
            {
              "internalType": "uint48",
              "name": "channelNonce",
              "type": "uint48"
            },
            {
              "internalType": "address",
              "name": "appDefinition",
              "type": "address"
            },
            {
              "internalType": "uint48",
              "name": "challengeDuration",
              "type": "uint48"
            }
          ],
          "internalType": "struct IForceMove.FixedPart",
          "name": "fixedPart",
          "type": "tuple"
        },
        {
          "internalType": "bytes32",
          "name": "appPartHash",
          "type": "bytes32"
        },
        {
          "internalType": "bytes32",
          "name": "outcomeHash",
          "type": "bytes32"
        },
        {
          "internalType": "uint8",
          "name": "numStates",
          "type": "uint8"
        },
        {
          "internalType": "uint8[]",
          "name": "whoSignedWhat",
          "type": "uint8[]"
        },
        {
          "components": [
            {
              "internalType": "uint8",
              "name": "v",
              "type": "uint8"
            },
            {
              "internalType": "bytes32",
              "name": "r",
              "type": "bytes32"
            },
            {
              "internalType": "bytes32",
              "name": "s",
              "type": "bytes32"
            }
          ],
          "internalType": "struct IForceMove.Signature[]",
          "name": "sigs",
          "type": "tuple[]"
        }
      ],
      "name": "conclude",
      "outputs": [],
      "stateMutability": "nonpayable",
      "type": "function"
    },
    {
      "inputs": [
        {
          "components": [
            {
              "internalType": "uint256",
              "name": "chainId",
              "type": "uint256"
            },
            {
              "internalType": "address[]",
              "name": "participants",
              "type": "address[]"
            },
            {
              "internalType": "uint48",
              "name": "channelNonce",
              "type": "uint48"
            },
            {
              "internalType": "address",
              "name": "appDefinition",
              "type": "address"
            },
            {
              "internalType": "uint48",
              "name": "challengeDuration",
              "type": "uint48"
            }
          ],
          "internalType": "struct IForceMove.FixedPart",
          "name": "fixedPart",
          "type": "tuple"
        },
        {
          "internalType": "uint48",
          "name": "largestTurnNum",
          "type": "uint48"
        },
        {
          "components": [
            {
              "internalType": "bytes",
              "name": "outcome",
              "type": "bytes"
            },
            {
              "internalType": "bytes",
              "name": "appData",
              "type": "bytes"
            }
          ],
          "internalType": "struct ForceMoveApp.VariablePart[]",
          "name": "variableParts",
          "type": "tuple[]"
        },
        {
          "internalType": "uint8",
          "name": "isFinalCount",
          "type": "uint8"
        },
        {
          "components": [
            {
              "internalType": "uint8",
              "name": "v",
              "type": "uint8"
            },
            {
              "internalType": "bytes32",
              "name": "r",
              "type": "bytes32"
            },
            {
              "internalType": "bytes32",
              "name": "s",
              "type": "bytes32"
            }
          ],
          "internalType": "struct IForceMove.Signature[]",
          "name": "sigs",
          "type": "tuple[]"
        },
        {
          "internalType": "uint8[]",
          "name": "whoSignedWhat",
          "type": "uint8[]"
        },
        {
          "components": [
            {
              "internalType": "uint8",
              "name": "v",
              "type": "uint8"
            },
            {
              "internalType": "bytes32",
              "name": "r",
              "type": "bytes32"
            },
            {
              "internalType": "bytes32",
              "name": "s",
              "type": "bytes32"
            }
          ],
          "internalType": "struct IForceMove.Signature",
          "name": "challengerSig",
          "type": "tuple"
        }
      ],
      "name": "forceMove",
      "outputs": [],
      "stateMutability": "nonpayable",
      "type": "function"
    },
    {
      "inputs": [
        {
          "internalType": "bytes32",
          "name": "channelId",
          "type": "bytes32"
        }
      ],
      "name": "getChannelStorage",
      "outputs": [
        {
          "internalType": "uint48",
          "name": "turnNumRecord",
          "type": "uint48"
        },
        {
          "internalType": "uint48",
          "name": "finalizesAt",
          "type": "uint48"
        },
        {
          "internalType": "uint160",
          "name": "fingerprint",
          "type": "uint160"
        }
      ],
      "stateMutability": "view",
      "type": "function"
    },
    {
      "inputs": [
        {
          "components": [
            {
              "internalType": "uint48",
              "name": "turnNumRecord",
              "type": "uint48"
            },
            {
              "internalType": "uint48",
              "name": "finalizesAt",
              "type": "uint48"
            },
            {
              "internalType": "bytes32",
              "name": "stateHash",
              "type": "bytes32"
            },
            {
              "internalType": "address",
              "name": "challengerAddress",
              "type": "address"
            },
            {
              "internalType": "bytes32",
              "name": "outcomeHash",
              "type": "bytes32"
            }
          ],
          "internalType": "struct IForceMove.ChannelData",
          "name": "channelData",
          "type": "tuple"
        }
      ],
      "name": "hashChannelData",
      "outputs": [
        {
          "internalType": "bytes32",
          "name": "newHash",
          "type": "bytes32"
        }
      ],
      "stateMutability": "pure",
      "type": "function"
    },
    {
      "inputs": [
        {
          "internalType": "address",
          "name": "suspect",
          "type": "address"
        },
        {
          "internalType": "address[]",
          "name": "addresses",
          "type": "address[]"
        }
      ],
      "name": "isAddressInArray",
      "outputs": [
        {
          "internalType": "bool",
          "name": "",
          "type": "bool"
        }
      ],
      "stateMutability": "pure",
      "type": "function"
    },
    {
      "inputs": [
        {
          "components": [
            {
              "internalType": "uint48",
              "name": "turnNumRecord",
              "type": "uint48"
            },
            {
              "internalType": "uint48",
              "name": "finalizesAt",
              "type": "uint48"
            },
            {
              "internalType": "bytes32",
              "name": "stateHash",
              "type": "bytes32"
            },
            {
              "internalType": "address",
              "name": "challengerAddress",
              "type": "address"
            },
            {
              "internalType": "bytes32",
              "name": "outcomeHash",
              "type": "bytes32"
            }
          ],
          "internalType": "struct IForceMove.ChannelData",
          "name": "cs",
          "type": "tuple"
        },
        {
          "internalType": "bytes32",
          "name": "h",
          "type": "bytes32"
        }
      ],
      "name": "matchesHash",
      "outputs": [
        {
          "internalType": "bool",
          "name": "",
          "type": "bool"
        }
      ],
      "stateMutability": "pure",
      "type": "function"
    },
    {
      "inputs": [
        {
          "internalType": "bytes32",
          "name": "_d",
          "type": "bytes32"
        },
        {
          "components": [
            {
              "internalType": "uint8",
              "name": "v",
              "type": "uint8"
            },
            {
              "internalType": "bytes32",
              "name": "r",
              "type": "bytes32"
            },
            {
              "internalType": "bytes32",
              "name": "s",
              "type": "bytes32"
            }
          ],
          "internalType": "struct IForceMove.Signature",
          "name": "sig",
          "type": "tuple"
        }
      ],
      "name": "recoverSigner",
      "outputs": [
        {
          "internalType": "address",
          "name": "",
          "type": "address"
        }
      ],
      "stateMutability": "pure",
      "type": "function"
    },
    {
      "inputs": [
        {
          "internalType": "bytes32",
          "name": "channelId",
          "type": "bytes32"
        }
      ],
      "name": "requireChannelOpen",
      "outputs": [],
      "stateMutability": "view",
      "type": "function"
    },
    {
      "inputs": [
        {
          "internalType": "address",
          "name": "challenger",
          "type": "address"
        },
        {
          "internalType": "bool[2]",
          "name": "isFinalAB",
          "type": "bool[2]"
        },
        {
          "components": [
            {
              "internalType": "uint256",
              "name": "chainId",
              "type": "uint256"
            },
            {
              "internalType": "address[]",
              "name": "participants",
              "type": "address[]"
            },
            {
              "internalType": "uint48",
              "name": "channelNonce",
              "type": "uint48"
            },
            {
              "internalType": "address",
              "name": "appDefinition",
              "type": "address"
            },
            {
              "internalType": "uint48",
              "name": "challengeDuration",
              "type": "uint48"
            }
          ],
          "internalType": "struct IForceMove.FixedPart",
          "name": "fixedPart",
          "type": "tuple"
        },
        {
          "components": [
            {
              "internalType": "bytes",
              "name": "outcome",
              "type": "bytes"
            },
            {
              "internalType": "bytes",
              "name": "appData",
              "type": "bytes"
            }
          ],
          "internalType": "struct ForceMoveApp.VariablePart[2]",
          "name": "variablePartAB",
          "type": "tuple[2]"
        },
        {
          "components": [
            {
              "internalType": "uint8",
              "name": "v",
              "type": "uint8"
            },
            {
              "internalType": "bytes32",
              "name": "r",
              "type": "bytes32"
            },
            {
              "internalType": "bytes32",
              "name": "s",
              "type": "bytes32"
            }
          ],
          "internalType": "struct IForceMove.Signature",
          "name": "sig",
          "type": "tuple"
        }
      ],
      "name": "respond",
      "outputs": [],
      "stateMutability": "nonpayable",
      "type": "function"
    },
    {
      "inputs": [
        {
          "internalType": "bytes32",
          "name": "channelId",
          "type": "bytes32"
        },
        {
          "components": [
            {
              "internalType": "uint48",
              "name": "turnNumRecord",
              "type": "uint48"
            },
            {
              "internalType": "uint48",
              "name": "finalizesAt",
              "type": "uint48"
            },
            {
              "internalType": "bytes32",
              "name": "stateHash",
              "type": "bytes32"
            },
            {
              "internalType": "address",
              "name": "challengerAddress",
              "type": "address"
            },
            {
              "internalType": "bytes32",
              "name": "outcomeHash",
              "type": "bytes32"
            }
          ],
          "internalType": "struct IForceMove.ChannelData",
          "name": "channelData",
          "type": "tuple"
        }
      ],
      "name": "setChannelStorage",
      "outputs": [],
      "stateMutability": "nonpayable",
      "type": "function"
    },
    {
      "inputs": [
        {
          "internalType": "bytes32",
          "name": "channelId",
          "type": "bytes32"
        },
        {
          "internalType": "bytes32",
          "name": "h",
          "type": "bytes32"
        }
      ],
      "name": "setChannelStorageHash",
      "outputs": [],
      "stateMutability": "nonpayable",
      "type": "function"
    },
    {
      "inputs": [
        {
          "internalType": "uint48",
          "name": "largestTurnNum",
          "type": "uint48"
        },
        {
          "internalType": "address[]",
          "name": "participants",
          "type": "address[]"
        },
        {
          "internalType": "bytes32[]",
          "name": "stateHashes",
          "type": "bytes32[]"
        },
        {
          "components": [
            {
              "internalType": "uint8",
              "name": "v",
              "type": "uint8"
            },
            {
              "internalType": "bytes32",
              "name": "r",
              "type": "bytes32"
            },
            {
              "internalType": "bytes32",
              "name": "s",
              "type": "bytes32"
            }
          ],
          "internalType": "struct IForceMove.Signature[]",
          "name": "sigs",
          "type": "tuple[]"
        },
        {
          "internalType": "uint8[]",
          "name": "whoSignedWhat",
          "type": "uint8[]"
        }
      ],
      "name": "validSignatures",
      "outputs": [
        {
          "internalType": "bool",
          "name": "",
          "type": "bool"
        }
      ],
      "stateMutability": "pure",
      "type": "function"
    }
  ],
  "evm": {
    "bytecode": {
      "linkReferences": {},
      "object": "608060405234801561001057600080fd5b50613d24806100206000396000f3fe608060405234801561001057600080fd5b50600436106100f55760003560e01c80636f65e87d11610097578063958c960a11610066578063958c960a14610292578063d2f8a1be146102c2578063fe9e5db9146102f2578063ff8ceb3214610324576100f5565b80636f65e87d1461020e57806378b9e5cb1461023e5780637ff6a9821461025a578063829d1a2d14610276576100f5565b80631c3c6cea116100d35780631c3c6cea1461016257806329b40cab146101925780632d6a142d146101c2578063448a4ab3146101f2576100f5565b80630149b762146100fa57806307aa17991461011657806315029f2014610132575b600080fd5b610114600480360361010f9190810190612346565b610340565b005b610130600480360361012b9190810190612204565b610383565b005b61014c600480360361014791908101906122a5565b61038f565b60405161015991906133a7565b60405180910390f35b61017c600480360361017791908101906122e1565b6103a3565b60405161018991906133dd565b60405180910390f35b6101ac60048036036101a79190810190612160565b6103b5565b6040516101b991906133c2565b60405180910390f35b6101dc60048036036101d7919081019061230a565b6103cd565b6040516101e991906133c2565b60405180910390f35b61020c60048036036102079190810190612269565b6103e1565b005b61022860048036036102239190810190612204565b6104b1565b60405161023591906133dd565b60405180910390f35b6102586004803603610253919081019061242f565b6104c9565b005b610274600480360361026f9190810190612605565b610683565b005b610290600480360361028b919081019061222d565b610871565b005b6102ac60048036036102a79190810190612064565b61088c565b6040516102b991906133c2565b60405180910390f35b6102dc60048036036102d7919081019061252e565b6108a0565b6040516102e991906133c2565b60405180910390f35b61030c60048036036103079190810190612204565b6108ba565b60405161031b93929190613889565b60405180910390f35b61033e600480360361033991908101906120b8565b6108db565b005b600061034b87610ae2565b905061035681610b22565b6103608187610b86565b61036f868686848b8888610bec565b5061037a8187610c75565b50505050505050565b61038c81610d24565b50565b600061039b8383610d88565b905092915050565b60006103ae82610e55565b9050919050565b60006103c385858585610eea565b9050949350505050565b60006103d98383610fa1565b905092915050565b6000816020015165ffffffffffff16141561048e576000801b816040015114801561043c5750600073ffffffffffffffffffffffffffffffffffffffff16816060015173ffffffffffffffffffffffffffffffffffffffff16145b801561044e57506000801b8160800151145b61048d576040517f08c379a0000000000000000000000000000000000000000000000000000000008152600401610484906134ef565b60405180910390fd5b5b610497816103a3565b600080848152602001908152602001600020819055505050565b60006020528060005260406000206000915090505481565b60006104d488610ae2565b9050600060028111156104e357fe5b6104ec82610fb6565b60028111156104f757fe5b141561050c576105078188611005565b61054d565b6001600281111561051957fe5b61052282610fb6565b600281111561052d57fe5b14156105425761053d8188610b86565b61054c565b61054b81610b22565b5b5b600061055e888888858d8a8a610bec565b90506000610571828b602001518661106c565b9050827f1f9f029de8ab3f81b5381a9bc066b421d0f215db28cc8160ec346bc6f0463c6e8a8c6080015142018460008c60ff16118f8e8d8d6040516105bd9897969594939291906137ef565b60405180910390a26106616040518060a001604052808b65ffffffffffff1681526020018c60800151420165ffffffffffff1681526020018481526020018373ffffffffffffffffffffffffffffffffffffffff1681526020018a60018c51038151811061062757fe5b602002602001015160000151604051602001610643919061346b565b60405160208183030381529060405280519060200120815250610e55565b6000808581526020019081526020016000208190555050505050505050505050565b600061068e87610ae2565b905061069981610b22565b60608460ff166040519080825280602002602001820160405280156106cd5781602001602082028038833980820191505090505b50905060008090505b8560ff168165ffffffffffff161015610778576040518060a001604052808760ff16600184018d010365ffffffffffff1681526020016001151581526020018481526020018981526020018881525060405160200161073591906136ea565b60405160208183030381529060405280519060200120828265ffffffffffff168151811061075f57fe5b60200260200101818152505080806001019150506106d6565b5061078a8989602001518386886110f0565b6107c9576040517f08c379a00000000000000000000000000000000000000000000000000000000081526004016107c09061364f565b60405180910390fd5b6108236040518060a00160405280600065ffffffffffff1681526020014265ffffffffffff1681526020016000801b8152602001600073ffffffffffffffffffffffffffffffffffffffff16815260200188815250610e55565b60008084815260200190815260200160002081905550817f3e659e9176c25a527f4575e010a270b3e1f8e9d1e94f5e49d4a91dd2c59e8cf860405160405180910390a2505050505050505050565b80600080848152602001908152602001600020819055505050565b60006108988383611212565b905092915050565b60006108af86868686866110f0565b905095945050505050565b60008060006108c88461128d565b8093508194508295505050509193909250565b60006108e684610ae2565b90506000806108f48361128d565b509150915060006109198660006002811061090b57fe5b6020020151600001516112e4565b9050600061093b8760016002811061092d57fe5b6020020151600001516112e4565b90506000610973858b60006002811061095057fe5b6020020151888c8c60006002811061096457fe5b60200201516020015188611314565b905060006109ae600187018c60016002811061098b57fe5b6020020151898d8d60016002811061099f57fe5b60200201516020015188611314565b9050610a066040518060a001604052808865ffffffffffff1681526020018765ffffffffffff1681526020018481526020018e73ffffffffffffffffffffffffffffffffffffffff16815260200186815250886113ab565b89602001518a60200151516001880165ffffffffffff1681610a2457fe5b0681518110610a2f57fe5b602002602001015173ffffffffffffffffffffffffffffffffffffffff16610a57828a610d88565b73ffffffffffffffffffffffffffffffffffffffff1614610aad576040517f08c379a0000000000000000000000000000000000000000000000000000000008152600401610aa49061368f565b60405180910390fd5b610ac68a60200151518c8b60018a018e606001516113c2565b50610ad48760018801610c75565b505050505050505050505050565b6000816000015182602001518360400151604051602001610b0593929190613758565b604051602081830303815290604052805190602001209050919050565b600280811115610b2e57fe5b610b3782610fb6565b6002811115610b4257fe5b1415610b83576040517f08c379a0000000000000000000000000000000000000000000000000000000008152600401610b7a9061350f565b60405180910390fd5b50565b6000610b918361128d565b505090508065ffffffffffff168265ffffffffffff1611610be7576040517f08c379a0000000000000000000000000000000000000000000000000000000008152600401610bde906134cf565b60405180910390fd5b505050565b60006060610bfd898989898961168f565b9050610c108986602001518387876110f0565b610c4f576040517f08c379a0000000000000000000000000000000000000000000000000000000008152600401610c469061358f565b60405180910390fd5b80600182510381518110610c5f57fe5b6020026020010151915050979650505050505050565b610cd26040518060a001604052808365ffffffffffff168152602001600065ffffffffffff1681526020016000801b8152602001600073ffffffffffffffffffffffffffffffffffffffff1681526020016000801b815250610e55565b60008084815260200190815260200160002081905550817f07da0a0674fb921e484018c8b81d80e292745e5d8ed134b580c8b9c631c5e9e082604051610d189190613796565b60405180910390a25050565b60006002811115610d3157fe5b610d3a82610fb6565b6002811115610d4557fe5b14610d85576040517f08c379a0000000000000000000000000000000000000000000000000000000008152600401610d7c906136af565b60405180910390fd5b50565b6000806040518060400160405280601c81526020017f19457468657265756d205369676e6564204d6573736167653a0a33320000000081525084604051602001610dd392919061337f565b604051602081830303815290604052805190602001209050600060018285600001518660200151876040015160405160008152602001604052604051610e1c9493929190613426565b6020604051602081039080840390855afa158015610e3e573d6000803e3d6000fd5b505050602060405103519050809250505092915050565b600080600061010090506030810390508061ffff16846000015165ffffffffffff16901b91506030810390508061ffff16846020015165ffffffffffff16901b8217915083604051602001610eaa91906136cf565b6040516020818303038152906040528051906020012060001c73ffffffffffffffffffffffffffffffffffffffff16821791508160001b92505050919050565b600082855114610f2f576040517f08c379a0000000000000000000000000000000000000000000000000000000008152600401610f26906135cf565b60405180910390fd5b60008090505b83811015610f9357600084828765ffffffffffff1687010381610f5457fe5b0690506001840381888481518110610f6857fe5b602002602001015160ff16011015610f8557600092505050610f99565b508080600101915050610f35565b50600190505b949350505050565b600081610fad84610e55565b14905092915050565b600080610fc28361128d565b5091505060008165ffffffffffff161415610fe1576000915050611000565b428165ffffffffffff1611610ffa576002915050611000565b60019150505b919050565b60006110108361128d565b505090508065ffffffffffff168265ffffffffffff161015611067576040517f08c379a000000000000000000000000000000000000000000000000000000000815260040161105e9061352f565b60405180910390fd5b505050565b600061109e8460405160200161108291906133f8565b6040516020818303038152906040528051906020012083610d88565b90506110aa8184611212565b6110e9576040517f08c379a00000000000000000000000000000000000000000000000000000000081526004016110e09061356f565b60405180910390fd5b9392505050565b6000808551905060008551905061110984898484610eea565b611148576040517f08c379a000000000000000000000000000000000000000000000000000000000815260040161113f9061366f565b60405180910390fd5b60008090505b8281101561120157600061119e8887848151811061116857fe5b602002602001015160ff168151811061117d57fe5b602002602001015188848151811061119157fe5b6020026020010151610d88565b90508882815181106111ac57fe5b602002602001015173ffffffffffffffffffffffffffffffffffffffff168173ffffffffffffffffffffffffffffffffffffffff16146111f3576000945050505050611209565b50808060010191505061114e565b506001925050505b95945050505050565b600080600090505b82518110156112815782818151811061122f57fe5b602002602001015173ffffffffffffffffffffffffffffffffffffffff168473ffffffffffffffffffffffffffffffffffffffff161415611274576001915050611287565b808060010191505061121a565b50600090505b92915050565b600080600080600080868152602001908152602001600020549050600061010090506030810390508061ffff168260001c901c94506030810390508061ffff168260001c901c93508160001c925050509193909250565b6000816040516020016112f7919061348d565b604051602081830303815290604052805190602001209050919050565b60006040518060a001604052808865ffffffffffff1681526020018715158152602001868152602001856080015186606001518660405160200161135a939291906137b1565b6040516020818303038152906040528051906020012081526020018381525060405160200161138991906136ea565b6040516020818303038152906040528051906020012090509695505050505050565b6113b5828261185f565b6113be816118be565b5050565b6000846001600281106113d157fe5b6020020151156114535761140f846001600281106113eb57fe5b6020020151600001518560006002811061140157fe5b602002015160000151611922565b61144e576040517f08c379a00000000000000000000000000000000000000000000000000000000081526004016114459061360f565b60405180910390fd5b611682565b8460006002811061146057fe5b6020020151156114a5576040517f08c379a000000000000000000000000000000000000000000000000000000000815260040161149c906135ef565b60405180910390fd5b856002028365ffffffffffff1610156115c6576114ec846001600281106114c857fe5b602002015160000151856000600281106114de57fe5b602002015160000151611922565b61152b576040517f08c379a0000000000000000000000000000000000000000000000000000000008152600401611522906135af565b60405180910390fd5b8360006002811061153857fe5b60200201516020015160405161154e9190613368565b60405180910390208460016002811061156357fe5b6020020151602001516040516115799190613368565b6040518091039020146115c1576040517f08c379a00000000000000000000000000000000000000000000000000000000081526004016115b8906134af565b60405180910390fd5b611681565b8173ffffffffffffffffffffffffffffffffffffffff1663fd7a2f65856000600281106115ef57fe5b60200201518660016002811061160157fe5b6020020151868a6040518563ffffffff1660e01b81526004016116279493929190613705565b60206040518083038186803b15801561163f57600080fd5b505afa158015611653573d6000803e3d6000fd5b505050506040513d601f19601f8201168201806040525061167791908101906121db565b61168057600080fd5b5b5b6001905095945050505050565b60608085516040519080825280602002602001820160405280156116c25781602001602082028038833980820191505090505b509050600060018660ff168903019050600080600090505b88518165ffffffffffff16101561184f578060018a518c030101915061175d828465ffffffffffff168465ffffffffffff16101589898d8665ffffffffffff168151811061172457fe5b6020026020010151602001516117588f8865ffffffffffff168151811061174757fe5b6020026020010151600001516112e4565b611314565b848265ffffffffffff168151811061177157fe5b6020026020010181815250508965ffffffffffff168265ffffffffffff1610156118425761184086602001515160405180604001604052808665ffffffffffff168665ffffffffffff1610151515151581526020018665ffffffffffff166001870165ffffffffffff1610151515151581525060405180604001604052808d8665ffffffffffff168151811061180357fe5b602002602001015181526020018d6001870165ffffffffffff168151811061182757fe5b6020026020010151815250600186018a606001516113c2565b505b80806001019150506116da565b5082935050505095945050505050565b61187b8260008084815260200190815260200160002054610fa1565b6118ba576040517f08c379a00000000000000000000000000000000000000000000000000000000081526004016118b19061362f565b60405180910390fd5b5050565b600160028111156118cb57fe5b6118d482610fb6565b60028111156118df57fe5b1461191f576040517f08c379a00000000000000000000000000000000000000000000000000000000081526004016119169061354f565b60405180910390fd5b50565b60008180519060200120838051906020012014905092915050565b60008135905061194c81613c64565b92915050565b600082601f83011261196357600080fd5b8135611976611971826138ed565b6138c0565b9150818183526020840193506020810190508385602084028201111561199b57600080fd5b60005b838110156119cb57816119b1888261193d565b84526020840193506020830192505060018101905061199e565b5050505092915050565b600082601f8301126119e657600080fd5b81356119f96119f482613915565b6138c0565b91508181835260208401935060208101905083856020840282011115611a1e57600080fd5b60005b83811015611a4e5781611a34888261193d565b845260208401935060208301925050600181019050611a21565b5050505092915050565b600082601f830112611a6957600080fd5b6002611a7c611a778261393d565b6138c0565b91508183856020840282011115611a9257600080fd5b60005b83811015611ac25781611aa88882611d2e565b845260208401935060208301925050600181019050611a95565b5050505092915050565b600082601f830112611add57600080fd5b8135611af0611aeb8261395f565b6138c0565b91508181835260208401935060208101905083856020840282011115611b1557600080fd5b60005b83811015611b455781611b2b8882611d58565b845260208401935060208301925050600181019050611b18565b5050505092915050565b600082601f830112611b6057600080fd5b8135611b73611b6e82613987565b6138c0565b91508181835260208401935060208101905083856060840282011115611b9857600080fd5b60005b83811015611bc85781611bae8882611ee9565b845260208401935060608301925050600181019050611b9b565b5050505092915050565b600082601f830112611be357600080fd5b6002611bf6611bf1826139af565b6138c0565b9150818360005b83811015611c2d5781358601611c138882611fa9565b845260208401935060208301925050600181019050611bfd565b5050505092915050565b600082601f830112611c4857600080fd5b8135611c5b611c56826139d1565b6138c0565b9150818183526020840193506020810190508360005b83811015611ca15781358601611c878882611fa9565b845260208401935060208301925050600181019050611c71565b5050505092915050565b600082601f830112611cbc57600080fd5b8135611ccf611cca826139f9565b6138c0565b91508181835260208401935060208101905083856020840282011115611cf457600080fd5b60005b83811015611d245781611d0a888261204f565b845260208401935060208301925050600181019050611cf7565b5050505092915050565b600081359050611d3d81613c7b565b92915050565b600081519050611d5281613c7b565b92915050565b600081359050611d6781613c92565b92915050565b600082601f830112611d7e57600080fd5b8135611d91611d8c82613a21565b6138c0565b91508082526020830160208301858383011115611dad57600080fd5b611db8838284613c07565b50505092915050565b600060a08284031215611dd357600080fd5b611ddd60a06138c0565b90506000611ded8482850161203a565b6000830152506020611e018482850161203a565b6020830152506040611e1584828501611d58565b6040830152506060611e298482850161193d565b6060830152506080611e3d84828501611d58565b60808301525092915050565b600060a08284031215611e5b57600080fd5b611e6560a06138c0565b90506000611e7584828501612025565b600083015250602082013567ffffffffffffffff811115611e9557600080fd5b611ea184828501611952565b6020830152506040611eb58482850161203a565b6040830152506060611ec98482850161193d565b6060830152506080611edd8482850161203a565b60808301525092915050565b600060608284031215611efb57600080fd5b611f0560606138c0565b90506000611f158482850161204f565b6000830152506020611f2984828501611d58565b6020830152506040611f3d84828501611d58565b60408301525092915050565b600060608284031215611f5b57600080fd5b611f6560606138c0565b90506000611f758482850161204f565b6000830152506020611f8984828501611d58565b6020830152506040611f9d84828501611d58565b60408301525092915050565b600060408284031215611fbb57600080fd5b611fc560406138c0565b9050600082013567ffffffffffffffff811115611fe157600080fd5b611fed84828501611d6d565b600083015250602082013567ffffffffffffffff81111561200d57600080fd5b61201984828501611d6d565b60208301525092915050565b60008135905061203481613ca9565b92915050565b60008135905061204981613cc0565b92915050565b60008135905061205e81613cd7565b92915050565b6000806040838503121561207757600080fd5b60006120858582860161193d565b925050602083013567ffffffffffffffff8111156120a257600080fd5b6120ae858286016119d5565b9150509250929050565b600080600080600061010086880312156120d157600080fd5b60006120df8882890161193d565b95505060206120f088828901611a58565b945050606086013567ffffffffffffffff81111561210d57600080fd5b61211988828901611e49565b935050608086013567ffffffffffffffff81111561213657600080fd5b61214288828901611bd2565b92505060a061215388828901611f49565b9150509295509295909350565b6000806000806080858703121561217657600080fd5b600085013567ffffffffffffffff81111561219057600080fd5b61219c87828801611cab565b94505060206121ad8782880161203a565b93505060406121be87828801612025565b92505060606121cf87828801612025565b91505092959194509250565b6000602082840312156121ed57600080fd5b60006121fb84828501611d43565b91505092915050565b60006020828403121561221657600080fd5b600061222484828501611d58565b91505092915050565b6000806040838503121561224057600080fd5b600061224e85828601611d58565b925050602061225f85828601611d58565b9150509250929050565b60008060c0838503121561227c57600080fd5b600061228a85828601611d58565b925050602061229b85828601611dc1565b9150509250929050565b600080608083850312156122b857600080fd5b60006122c685828601611d58565b92505060206122d785828601611f49565b9150509250929050565b600060a082840312156122f357600080fd5b600061230184828501611dc1565b91505092915050565b60008060c0838503121561231d57600080fd5b600061232b85828601611dc1565b92505060a061233c85828601611d58565b9150509250929050565b60008060008060008060c0878903121561235f57600080fd5b600087013567ffffffffffffffff81111561237957600080fd5b61238589828a01611e49565b965050602061239689828a0161203a565b955050604087013567ffffffffffffffff8111156123b357600080fd5b6123bf89828a01611c37565b94505060606123d089828a0161204f565b935050608087013567ffffffffffffffff8111156123ed57600080fd5b6123f989828a01611b4f565b92505060a087013567ffffffffffffffff81111561241657600080fd5b61242289828a01611cab565b9150509295509295509295565b6000806000806000806000610120888a03121561244b57600080fd5b600088013567ffffffffffffffff81111561246557600080fd5b6124718a828b01611e49565b97505060206124828a828b0161203a565b965050604088013567ffffffffffffffff81111561249f57600080fd5b6124ab8a828b01611c37565b95505060606124bc8a828b0161204f565b945050608088013567ffffffffffffffff8111156124d957600080fd5b6124e58a828b01611b4f565b93505060a088013567ffffffffffffffff81111561250257600080fd5b61250e8a828b01611cab565b92505060c061251f8a828b01611f49565b91505092959891949750929550565b600080600080600060a0868803121561254657600080fd5b60006125548882890161203a565b955050602086013567ffffffffffffffff81111561257157600080fd5b61257d888289016119d5565b945050604086013567ffffffffffffffff81111561259a57600080fd5b6125a688828901611acc565b935050606086013567ffffffffffffffff8111156125c357600080fd5b6125cf88828901611b4f565b925050608086013567ffffffffffffffff8111156125ec57600080fd5b6125f888828901611cab565b9150509295509295909350565b600080600080600080600060e0888a03121561262057600080fd5b600061262e8a828b0161203a565b975050602088013567ffffffffffffffff81111561264b57600080fd5b6126578a828b01611e49565b96505060406126688a828b01611d58565b95505060606126798a828b01611d58565b945050608061268a8a828b0161204f565b93505060a088013567ffffffffffffffff8111156126a757600080fd5b6126b38a828b01611cab565b92505060c088013567ffffffffffffffff8111156126d057600080fd5b6126dc8a828b01611b4f565b91505092959891949750929550565b60006126f78383612747565b60208301905092915050565b600061270f83836131cd565b60608301905092915050565b60006127278383613277565b905092915050565b600061273b838361334a565b60208301905092915050565b61275081613b96565b82525050565b61275f81613b96565b82525050565b600061277082613a8d565b61277a8185613b03565b935061278583613a4d565b8060005b838110156127b657815161279d88826126eb565b97506127a883613acf565b925050600181019050612789565b5085935050505092915050565b60006127ce82613a8d565b6127d88185613b14565b93506127e383613a4d565b8060005b838110156128145781516127fb88826126eb565b975061280683613acf565b9250506001810190506127e7565b5085935050505092915050565b600061282c82613a98565b6128368185613b25565b935061284183613a5d565b8060005b838110156128725781516128598882612703565b975061286483613adc565b925050600181019050612845565b5085935050505092915050565b600061288a82613aa3565b6128948185613b36565b9350836020820285016128a685613a6d565b8060005b858110156128e257848403895281516128c3858261271b565b94506128ce83613ae9565b925060208a019950506001810190506128aa565b50829750879550505050505092915050565b60006128ff82613aae565b6129098185613b47565b935061291483613a7d565b8060005b8381101561294557815161292c888261272f565b975061293783613af6565b925050600181019050612918565b5085935050505092915050565b61295b81613ba8565b82525050565b61296a81613ba8565b82525050565b61297981613bb4565b82525050565b61298881613bb4565b82525050565b61299f61299a82613bb4565b613c49565b82525050565b60006129b082613ac4565b6129ba8185613b69565b93506129ca818560208601613c16565b6129d381613c53565b840191505092915050565b60006129e982613ab9565b6129f38185613b58565b9350612a03818560208601613c16565b612a0c81613c53565b840191505092915050565b6000612a2282613ab9565b612a2c8185613b69565b9350612a3c818560208601613c16565b612a4581613c53565b840191505092915050565b6000612a5b82613ab9565b612a658185613b7a565b9350612a75818560208601613c16565b80840191505092915050565b6000612a8e604483613b85565b91507f496e76616c69645472616e736974696f6e4572726f723a2043616e6e6f74206360008301527f68616e676520746865206170704461746120647572696e67207365747570207060208301527f68617365000000000000000000000000000000000000000000000000000000006040830152606082019050919050565b6000612b1a601c83613b85565b91507f7475726e4e756d5265636f7264206e6f7420696e637265617365642e000000006000830152602082019050919050565b6000612b5a601483613b85565b91507f496e76616c6964206f70656e206368616e6e656c0000000000000000000000006000830152602082019050919050565b6000612b9a601283613b85565b91507f4368616e6e656c2066696e616c697a65642e00000000000000000000000000006000830152602082019050919050565b6000612bda601883613b85565b91507f7475726e4e756d5265636f7264206465637265617365642e00000000000000006000830152602082019050919050565b6000612c1a601583613b85565b91507f4e6f206f6e676f696e67206368616c6c656e67652e00000000000000000000006000830152602082019050919050565b6000612c5a601f83613b85565b91507f4368616c6c656e676572206973206e6f742061207061727469636970616e74006000830152602082019050919050565b6000612c9a601283613b85565b91507f496e76616c6964207369676e61747572657300000000000000000000000000006000830152602082019050919050565b6000612cda604c83613b85565b91507f496e76616c69645472616e736974696f6e4572726f723a2043616e6e6f74206360008301527f68616e6765207468652064656661756c74206f7574636f6d6520647572696e6760208301527f20736574757020706861736500000000000000000000000000000000000000006040830152606082019050919050565b6000612d66604783613b85565b91507f5f76616c69645369676e6174757265733a2077686f5369676e6564576861742060008301527f6d757374206265207468652073616d65206c656e67746820617320706172746960208301527f636970616e7473000000000000000000000000000000000000000000000000006040830152606082019050919050565b6000612df2600983613b85565b91507f666f7263654d6f766500000000000000000000000000000000000000000000006000830152602082019050919050565b6000612e32604b83613b85565b91507f496e76616c69645472616e736974696f6e4572726f723a2043616e6e6f74206d60008301527f6f76652066726f6d20612066696e616c20737461746520746f2061206e6f6e2060208301527f66696e616c2073746174650000000000000000000000000000000000000000006040830152606082019050919050565b6000612ebe605583613b85565b91507f496e76616c69645472616e736974696f6e4572726f723a2043616e6e6f74206d60008301527f6f766520746f20612066696e616c20737461746520776974682061206469666660208301527f6572656e742064656661756c74206f7574636f6d6500000000000000000000006040830152606082019050919050565b6000612f4a602e83613b85565b91507f4368616e6e656c2073746f7261676520646f6573206e6f74206d61746368207360008301527f746f7265642076657273696f6e2e0000000000000000000000000000000000006020830152604082019050919050565b6000612fb0602b83613b85565b91507f496e76616c6964207369676e617475726573204f5220697346696e616c3d747260008301527f75652065787065637465640000000000000000000000000000000000000000006020830152604082019050919050565b6000613016602083613b85565b91507f556e61636365707461626c652077686f5369676e6564576861742061727261796000830152602082019050919050565b6000613056602783613b85565b91507f526573706f6e7365206e6f74207369676e656420627920617574686f72697a6560008301527f64206d6f766572000000000000000000000000000000000000000000000000006020830152604082019050919050565b60006130bc601183613b85565b91507f4368616e6e656c206e6f74206f70656e2e0000000000000000000000000000006000830152602082019050919050565b60a082016000820151613105600085018261332c565b506020820151613118602085018261332c565b50604082015161312b6040850182612970565b50606082015161313e6060850182612747565b5060808201516131516080850182612970565b50505050565b600060a08301600083015161316f600086018261330e565b50602083015184820360208601526131878282612765565b915050604083015161319c604086018261332c565b5060608301516131af6060860182612747565b5060808301516131c2608086018261332c565b508091505092915050565b6060820160008201516131e3600085018261334a565b5060208201516131f66020850182612970565b5060408201516132096040850182612970565b50505050565b60a082016000820151613225600085018261332c565b5060208201516132386020850182612952565b50604082015161324b6040850182612970565b50606082015161325e6060850182612970565b5060808201516132716080850182612970565b50505050565b6000604083016000830151848203600086015261329482826129de565b915050602083015184820360208601526132ae82826129de565b9150508091505092915050565b600060408301600083015184820360008601526132d882826129de565b915050602083015184820360208601526132f282826129de565b9150508091505092915050565b61330881613bbe565b82525050565b61331781613bde565b82525050565b61332681613bde565b82525050565b61333581613be8565b82525050565b61334481613be8565b82525050565b61335381613bfa565b82525050565b61336281613bfa565b82525050565b60006133748284612a50565b915081905092915050565b600061338b8285612a50565b9150613397828461298e565b6020820191508190509392505050565b60006020820190506133bc6000830184612756565b92915050565b60006020820190506133d76000830184612961565b92915050565b60006020820190506133f2600083018461297f565b92915050565b600060408201905061340d600083018461297f565b818103602083015261341e81612de5565b905092915050565b600060808201905061343b600083018761297f565b6134486020830186613359565b613455604083018561297f565b613462606083018461297f565b95945050505050565b600060208201905081810360008301526134858184612a17565b905092915050565b600060208201905081810360008301526134a781846129a5565b905092915050565b600060208201905081810360008301526134c881612a81565b9050919050565b600060208201905081810360008301526134e881612b0d565b9050919050565b6000602082019050818103600083015261350881612b4d565b9050919050565b6000602082019050818103600083015261352881612b8d565b9050919050565b6000602082019050818103600083015261354881612bcd565b9050919050565b6000602082019050818103600083015261356881612c0d565b9050919050565b6000602082019050818103600083015261358881612c4d565b9050919050565b600060208201905081810360008301526135a881612c8d565b9050919050565b600060208201905081810360008301526135c881612ccd565b9050919050565b600060208201905081810360008301526135e881612d59565b9050919050565b6000602082019050818103600083015261360881612e25565b9050919050565b6000602082019050818103600083015261362881612eb1565b9050919050565b6000602082019050818103600083015261364881612f3d565b9050919050565b6000602082019050818103600083015261366881612fa3565b9050919050565b6000602082019050818103600083015261368881613009565b9050919050565b600060208201905081810360008301526136a881613049565b9050919050565b600060208201905081810360008301526136c8816130af565b9050919050565b600060a0820190506136e460008301846130ef565b92915050565b600060a0820190506136ff600083018461320f565b92915050565b6000608082019050818103600083015261371f81876132bb565b9050818103602083015261373381866132bb565b9050613742604083018561333b565b61374f606083018461331d565b95945050505050565b600060608201905061376d600083018661331d565b818103602083015261377f81856127c3565b905061378e604083018461333b565b949350505050565b60006020820190506137ab600083018461333b565b92915050565b60006060820190506137c6600083018661333b565b6137d36020830185612756565b81810360408301526137e581846129a5565b9050949350505050565b600061010082019050613805600083018b61333b565b613812602083018a61333b565b61381f6040830189612756565b61382c6060830188612961565b818103608083015261383e8187613157565b905081810360a0830152613852818661287f565b905081810360c08301526138668185612821565b905081810360e083015261387a81846128f4565b90509998505050505050505050565b600060608201905061389e600083018661333b565b6138ab602083018561333b565b6138b860408301846132ff565b949350505050565b6000604051905081810181811067ffffffffffffffff821117156138e357600080fd5b8060405250919050565b600067ffffffffffffffff82111561390457600080fd5b602082029050602081019050919050565b600067ffffffffffffffff82111561392c57600080fd5b602082029050602081019050919050565b600067ffffffffffffffff82111561395457600080fd5b602082029050919050565b600067ffffffffffffffff82111561397657600080fd5b602082029050602081019050919050565b600067ffffffffffffffff82111561399e57600080fd5b602082029050602081019050919050565b600067ffffffffffffffff8211156139c657600080fd5b602082029050919050565b600067ffffffffffffffff8211156139e857600080fd5b602082029050602081019050919050565b600067ffffffffffffffff821115613a1057600080fd5b602082029050602081019050919050565b600067ffffffffffffffff821115613a3857600080fd5b601f19601f8301169050602081019050919050565b6000819050602082019050919050565b6000819050602082019050919050565b6000819050602082019050919050565b6000819050602082019050919050565b600081519050919050565b600081519050919050565b600081519050919050565b600081519050919050565b600081519050919050565b600081519050919050565b6000602082019050919050565b6000602082019050919050565b6000602082019050919050565b6000602082019050919050565b600082825260208201905092915050565b600082825260208201905092915050565b600082825260208201905092915050565b600082825260208201905092915050565b600082825260208201905092915050565b600082825260208201905092915050565b600082825260208201905092915050565b600081905092915050565b600082825260208201905092915050565b6000613ba182613bbe565b9050919050565b60008115159050919050565b6000819050919050565b600073ffffffffffffffffffffffffffffffffffffffff82169050919050565b6000819050919050565b600065ffffffffffff82169050919050565b600060ff82169050919050565b82818337600083830152505050565b60005b83811015613c34578082015181840152602081019050613c19565b83811115613c43576000848401525b50505050565b6000819050919050565b6000601f19601f8301169050919050565b613c6d81613b96565b8114613c7857600080fd5b50565b613c8481613ba8565b8114613c8f57600080fd5b50565b613c9b81613bb4565b8114613ca657600080fd5b50565b613cb281613bde565b8114613cbd57600080fd5b50565b613cc981613be8565b8114613cd457600080fd5b50565b613ce081613bfa565b8114613ceb57600080fd5b5056fea2646970667358221220ca49fdb638b3a81a12239bbf97545b554aab88e7cb2ca21c08995f8caa1bca9164736f6c63430006020033",
      "opcodes": "PUSH1 0x80 PUSH1 0x40 MSTORE CALLVALUE DUP1 ISZERO PUSH2 0x10 JUMPI PUSH1 0x0 DUP1 REVERT JUMPDEST POP PUSH2 0x3D24 DUP1 PUSH2 0x20 PUSH1 0x0 CODECOPY PUSH1 0x0 RETURN INVALID PUSH1 0x80 PUSH1 0x40 MSTORE CALLVALUE DUP1 ISZERO PUSH2 0x10 JUMPI PUSH1 0x0 DUP1 REVERT JUMPDEST POP PUSH1 0x4 CALLDATASIZE LT PUSH2 0xF5 JUMPI PUSH1 0x0 CALLDATALOAD PUSH1 0xE0 SHR DUP1 PUSH4 0x6F65E87D GT PUSH2 0x97 JUMPI DUP1 PUSH4 0x958C960A GT PUSH2 0x66 JUMPI DUP1 PUSH4 0x958C960A EQ PUSH2 0x292 JUMPI DUP1 PUSH4 0xD2F8A1BE EQ PUSH2 0x2C2 JUMPI DUP1 PUSH4 0xFE9E5DB9 EQ PUSH2 0x2F2 JUMPI DUP1 PUSH4 0xFF8CEB32 EQ PUSH2 0x324 JUMPI PUSH2 0xF5 JUMP JUMPDEST DUP1 PUSH4 0x6F65E87D EQ PUSH2 0x20E JUMPI DUP1 PUSH4 0x78B9E5CB EQ PUSH2 0x23E JUMPI DUP1 PUSH4 0x7FF6A982 EQ PUSH2 0x25A JUMPI DUP1 PUSH4 0x829D1A2D EQ PUSH2 0x276 JUMPI PUSH2 0xF5 JUMP JUMPDEST DUP1 PUSH4 0x1C3C6CEA GT PUSH2 0xD3 JUMPI DUP1 PUSH4 0x1C3C6CEA EQ PUSH2 0x162 JUMPI DUP1 PUSH4 0x29B40CAB EQ PUSH2 0x192 JUMPI DUP1 PUSH4 0x2D6A142D EQ PUSH2 0x1C2 JUMPI DUP1 PUSH4 0x448A4AB3 EQ PUSH2 0x1F2 JUMPI PUSH2 0xF5 JUMP JUMPDEST DUP1 PUSH4 0x149B762 EQ PUSH2 0xFA JUMPI DUP1 PUSH4 0x7AA1799 EQ PUSH2 0x116 JUMPI DUP1 PUSH4 0x15029F20 EQ PUSH2 0x132 JUMPI JUMPDEST PUSH1 0x0 DUP1 REVERT JUMPDEST PUSH2 0x114 PUSH1 0x4 DUP1 CALLDATASIZE SUB PUSH2 0x10F SWAP2 SWAP1 DUP2 ADD SWAP1 PUSH2 0x2346 JUMP JUMPDEST PUSH2 0x340 JUMP JUMPDEST STOP JUMPDEST PUSH2 0x130 PUSH1 0x4 DUP1 CALLDATASIZE SUB PUSH2 0x12B SWAP2 SWAP1 DUP2 ADD SWAP1 PUSH2 0x2204 JUMP JUMPDEST PUSH2 0x383 JUMP JUMPDEST STOP JUMPDEST PUSH2 0x14C PUSH1 0x4 DUP1 CALLDATASIZE SUB PUSH2 0x147 SWAP2 SWAP1 DUP2 ADD SWAP1 PUSH2 0x22A5 JUMP JUMPDEST PUSH2 0x38F JUMP JUMPDEST PUSH1 0x40 MLOAD PUSH2 0x159 SWAP2 SWAP1 PUSH2 0x33A7 JUMP JUMPDEST PUSH1 0x40 MLOAD DUP1 SWAP2 SUB SWAP1 RETURN JUMPDEST PUSH2 0x17C PUSH1 0x4 DUP1 CALLDATASIZE SUB PUSH2 0x177 SWAP2 SWAP1 DUP2 ADD SWAP1 PUSH2 0x22E1 JUMP JUMPDEST PUSH2 0x3A3 JUMP JUMPDEST PUSH1 0x40 MLOAD PUSH2 0x189 SWAP2 SWAP1 PUSH2 0x33DD JUMP JUMPDEST PUSH1 0x40 MLOAD DUP1 SWAP2 SUB SWAP1 RETURN JUMPDEST PUSH2 0x1AC PUSH1 0x4 DUP1 CALLDATASIZE SUB PUSH2 0x1A7 SWAP2 SWAP1 DUP2 ADD SWAP1 PUSH2 0x2160 JUMP JUMPDEST PUSH2 0x3B5 JUMP JUMPDEST PUSH1 0x40 MLOAD PUSH2 0x1B9 SWAP2 SWAP1 PUSH2 0x33C2 JUMP JUMPDEST PUSH1 0x40 MLOAD DUP1 SWAP2 SUB SWAP1 RETURN JUMPDEST PUSH2 0x1DC PUSH1 0x4 DUP1 CALLDATASIZE SUB PUSH2 0x1D7 SWAP2 SWAP1 DUP2 ADD SWAP1 PUSH2 0x230A JUMP JUMPDEST PUSH2 0x3CD JUMP JUMPDEST PUSH1 0x40 MLOAD PUSH2 0x1E9 SWAP2 SWAP1 PUSH2 0x33C2 JUMP JUMPDEST PUSH1 0x40 MLOAD DUP1 SWAP2 SUB SWAP1 RETURN JUMPDEST PUSH2 0x20C PUSH1 0x4 DUP1 CALLDATASIZE SUB PUSH2 0x207 SWAP2 SWAP1 DUP2 ADD SWAP1 PUSH2 0x2269 JUMP JUMPDEST PUSH2 0x3E1 JUMP JUMPDEST STOP JUMPDEST PUSH2 0x228 PUSH1 0x4 DUP1 CALLDATASIZE SUB PUSH2 0x223 SWAP2 SWAP1 DUP2 ADD SWAP1 PUSH2 0x2204 JUMP JUMPDEST PUSH2 0x4B1 JUMP JUMPDEST PUSH1 0x40 MLOAD PUSH2 0x235 SWAP2 SWAP1 PUSH2 0x33DD JUMP JUMPDEST PUSH1 0x40 MLOAD DUP1 SWAP2 SUB SWAP1 RETURN JUMPDEST PUSH2 0x258 PUSH1 0x4 DUP1 CALLDATASIZE SUB PUSH2 0x253 SWAP2 SWAP1 DUP2 ADD SWAP1 PUSH2 0x242F JUMP JUMPDEST PUSH2 0x4C9 JUMP JUMPDEST STOP JUMPDEST PUSH2 0x274 PUSH1 0x4 DUP1 CALLDATASIZE SUB PUSH2 0x26F SWAP2 SWAP1 DUP2 ADD SWAP1 PUSH2 0x2605 JUMP JUMPDEST PUSH2 0x683 JUMP JUMPDEST STOP JUMPDEST PUSH2 0x290 PUSH1 0x4 DUP1 CALLDATASIZE SUB PUSH2 0x28B SWAP2 SWAP1 DUP2 ADD SWAP1 PUSH2 0x222D JUMP JUMPDEST PUSH2 0x871 JUMP JUMPDEST STOP JUMPDEST PUSH2 0x2AC PUSH1 0x4 DUP1 CALLDATASIZE SUB PUSH2 0x2A7 SWAP2 SWAP1 DUP2 ADD SWAP1 PUSH2 0x2064 JUMP JUMPDEST PUSH2 0x88C JUMP JUMPDEST PUSH1 0x40 MLOAD PUSH2 0x2B9 SWAP2 SWAP1 PUSH2 0x33C2 JUMP JUMPDEST PUSH1 0x40 MLOAD DUP1 SWAP2 SUB SWAP1 RETURN JUMPDEST PUSH2 0x2DC PUSH1 0x4 DUP1 CALLDATASIZE SUB PUSH2 0x2D7 SWAP2 SWAP1 DUP2 ADD SWAP1 PUSH2 0x252E JUMP JUMPDEST PUSH2 0x8A0 JUMP JUMPDEST PUSH1 0x40 MLOAD PUSH2 0x2E9 SWAP2 SWAP1 PUSH2 0x33C2 JUMP JUMPDEST PUSH1 0x40 MLOAD DUP1 SWAP2 SUB SWAP1 RETURN JUMPDEST PUSH2 0x30C PUSH1 0x4 DUP1 CALLDATASIZE SUB PUSH2 0x307 SWAP2 SWAP1 DUP2 ADD SWAP1 PUSH2 0x2204 JUMP JUMPDEST PUSH2 0x8BA JUMP JUMPDEST PUSH1 0x40 MLOAD PUSH2 0x31B SWAP4 SWAP3 SWAP2 SWAP1 PUSH2 0x3889 JUMP JUMPDEST PUSH1 0x40 MLOAD DUP1 SWAP2 SUB SWAP1 RETURN JUMPDEST PUSH2 0x33E PUSH1 0x4 DUP1 CALLDATASIZE SUB PUSH2 0x339 SWAP2 SWAP1 DUP2 ADD SWAP1 PUSH2 0x20B8 JUMP JUMPDEST PUSH2 0x8DB JUMP JUMPDEST STOP JUMPDEST PUSH1 0x0 PUSH2 0x34B DUP8 PUSH2 0xAE2 JUMP JUMPDEST SWAP1 POP PUSH2 0x356 DUP2 PUSH2 0xB22 JUMP JUMPDEST PUSH2 0x360 DUP2 DUP8 PUSH2 0xB86 JUMP JUMPDEST PUSH2 0x36F DUP7 DUP7 DUP7 DUP5 DUP12 DUP9 DUP9 PUSH2 0xBEC JUMP JUMPDEST POP PUSH2 0x37A DUP2 DUP8 PUSH2 0xC75 JUMP JUMPDEST POP POP POP POP POP POP POP JUMP JUMPDEST PUSH2 0x38C DUP2 PUSH2 0xD24 JUMP JUMPDEST POP JUMP JUMPDEST PUSH1 0x0 PUSH2 0x39B DUP4 DUP4 PUSH2 0xD88 JUMP JUMPDEST SWAP1 POP SWAP3 SWAP2 POP POP JUMP JUMPDEST PUSH1 0x0 PUSH2 0x3AE DUP3 PUSH2 0xE55 JUMP JUMPDEST SWAP1 POP SWAP2 SWAP1 POP JUMP JUMPDEST PUSH1 0x0 PUSH2 0x3C3 DUP6 DUP6 DUP6 DUP6 PUSH2 0xEEA JUMP JUMPDEST SWAP1 POP SWAP5 SWAP4 POP POP POP POP JUMP JUMPDEST PUSH1 0x0 PUSH2 0x3D9 DUP4 DUP4 PUSH2 0xFA1 JUMP JUMPDEST SWAP1 POP SWAP3 SWAP2 POP POP JUMP JUMPDEST PUSH1 0x0 DUP2 PUSH1 0x20 ADD MLOAD PUSH6 0xFFFFFFFFFFFF AND EQ ISZERO PUSH2 0x48E JUMPI PUSH1 0x0 DUP1 SHL DUP2 PUSH1 0x40 ADD MLOAD EQ DUP1 ISZERO PUSH2 0x43C JUMPI POP PUSH1 0x0 PUSH20 0xFFFFFFFFFFFFFFFFFFFFFFFFFFFFFFFFFFFFFFFF AND DUP2 PUSH1 0x60 ADD MLOAD PUSH20 0xFFFFFFFFFFFFFFFFFFFFFFFFFFFFFFFFFFFFFFFF AND EQ JUMPDEST DUP1 ISZERO PUSH2 0x44E JUMPI POP PUSH1 0x0 DUP1 SHL DUP2 PUSH1 0x80 ADD MLOAD EQ JUMPDEST PUSH2 0x48D JUMPI PUSH1 0x40 MLOAD PUSH32 0x8C379A000000000000000000000000000000000000000000000000000000000 DUP2 MSTORE PUSH1 0x4 ADD PUSH2 0x484 SWAP1 PUSH2 0x34EF JUMP JUMPDEST PUSH1 0x40 MLOAD DUP1 SWAP2 SUB SWAP1 REVERT JUMPDEST JUMPDEST PUSH2 0x497 DUP2 PUSH2 0x3A3 JUMP JUMPDEST PUSH1 0x0 DUP1 DUP5 DUP2 MSTORE PUSH1 0x20 ADD SWAP1 DUP2 MSTORE PUSH1 0x20 ADD PUSH1 0x0 KECCAK256 DUP2 SWAP1 SSTORE POP POP POP JUMP JUMPDEST PUSH1 0x0 PUSH1 0x20 MSTORE DUP1 PUSH1 0x0 MSTORE PUSH1 0x40 PUSH1 0x0 KECCAK256 PUSH1 0x0 SWAP2 POP SWAP1 POP SLOAD DUP2 JUMP JUMPDEST PUSH1 0x0 PUSH2 0x4D4 DUP9 PUSH2 0xAE2 JUMP JUMPDEST SWAP1 POP PUSH1 0x0 PUSH1 0x2 DUP2 GT ISZERO PUSH2 0x4E3 JUMPI INVALID JUMPDEST PUSH2 0x4EC DUP3 PUSH2 0xFB6 JUMP JUMPDEST PUSH1 0x2 DUP2 GT ISZERO PUSH2 0x4F7 JUMPI INVALID JUMPDEST EQ ISZERO PUSH2 0x50C JUMPI PUSH2 0x507 DUP2 DUP9 PUSH2 0x1005 JUMP JUMPDEST PUSH2 0x54D JUMP JUMPDEST PUSH1 0x1 PUSH1 0x2 DUP2 GT ISZERO PUSH2 0x519 JUMPI INVALID JUMPDEST PUSH2 0x522 DUP3 PUSH2 0xFB6 JUMP JUMPDEST PUSH1 0x2 DUP2 GT ISZERO PUSH2 0x52D JUMPI INVALID JUMPDEST EQ ISZERO PUSH2 0x542 JUMPI PUSH2 0x53D DUP2 DUP9 PUSH2 0xB86 JUMP JUMPDEST PUSH2 0x54C JUMP JUMPDEST PUSH2 0x54B DUP2 PUSH2 0xB22 JUMP JUMPDEST JUMPDEST JUMPDEST PUSH1 0x0 PUSH2 0x55E DUP9 DUP9 DUP9 DUP6 DUP14 DUP11 DUP11 PUSH2 0xBEC JUMP JUMPDEST SWAP1 POP PUSH1 0x0 PUSH2 0x571 DUP3 DUP12 PUSH1 0x20 ADD MLOAD DUP7 PUSH2 0x106C JUMP JUMPDEST SWAP1 POP DUP3 PUSH32 0x1F9F029DE8AB3F81B5381A9BC066B421D0F215DB28CC8160EC346BC6F0463C6E DUP11 DUP13 PUSH1 0x80 ADD MLOAD TIMESTAMP ADD DUP5 PUSH1 0x0 DUP13 PUSH1 0xFF AND GT DUP16 DUP15 DUP14 DUP14 PUSH1 0x40 MLOAD PUSH2 0x5BD SWAP9 SWAP8 SWAP7 SWAP6 SWAP5 SWAP4 SWAP3 SWAP2 SWAP1 PUSH2 0x37EF JUMP JUMPDEST PUSH1 0x40 MLOAD DUP1 SWAP2 SUB SWAP1 LOG2 PUSH2 0x661 PUSH1 0x40 MLOAD DUP1 PUSH1 0xA0 ADD PUSH1 0x40 MSTORE DUP1 DUP12 PUSH6 0xFFFFFFFFFFFF AND DUP2 MSTORE PUSH1 0x20 ADD DUP13 PUSH1 0x80 ADD MLOAD TIMESTAMP ADD PUSH6 0xFFFFFFFFFFFF AND DUP2 MSTORE PUSH1 0x20 ADD DUP5 DUP2 MSTORE PUSH1 0x20 ADD DUP4 PUSH20 0xFFFFFFFFFFFFFFFFFFFFFFFFFFFFFFFFFFFFFFFF AND DUP2 MSTORE PUSH1 0x20 ADD DUP11 PUSH1 0x1 DUP13 MLOAD SUB DUP2 MLOAD DUP2 LT PUSH2 0x627 JUMPI INVALID JUMPDEST PUSH1 0x20 MUL PUSH1 0x20 ADD ADD MLOAD PUSH1 0x0 ADD MLOAD PUSH1 0x40 MLOAD PUSH1 0x20 ADD PUSH2 0x643 SWAP2 SWAP1 PUSH2 0x346B JUMP JUMPDEST PUSH1 0x40 MLOAD PUSH1 0x20 DUP2 DUP4 SUB SUB DUP2 MSTORE SWAP1 PUSH1 0x40 MSTORE DUP1 MLOAD SWAP1 PUSH1 0x20 ADD KECCAK256 DUP2 MSTORE POP PUSH2 0xE55 JUMP JUMPDEST PUSH1 0x0 DUP1 DUP6 DUP2 MSTORE PUSH1 0x20 ADD SWAP1 DUP2 MSTORE PUSH1 0x20 ADD PUSH1 0x0 KECCAK256 DUP2 SWAP1 SSTORE POP POP POP POP POP POP POP POP POP POP POP JUMP JUMPDEST PUSH1 0x0 PUSH2 0x68E DUP8 PUSH2 0xAE2 JUMP JUMPDEST SWAP1 POP PUSH2 0x699 DUP2 PUSH2 0xB22 JUMP JUMPDEST PUSH1 0x60 DUP5 PUSH1 0xFF AND PUSH1 0x40 MLOAD SWAP1 DUP1 DUP3 MSTORE DUP1 PUSH1 0x20 MUL PUSH1 0x20 ADD DUP3 ADD PUSH1 0x40 MSTORE DUP1 ISZERO PUSH2 0x6CD JUMPI DUP2 PUSH1 0x20 ADD PUSH1 0x20 DUP3 MUL DUP1 CODESIZE DUP4 CODECOPY DUP1 DUP3 ADD SWAP2 POP POP SWAP1 POP JUMPDEST POP SWAP1 POP PUSH1 0x0 DUP1 SWAP1 POP JUMPDEST DUP6 PUSH1 0xFF AND DUP2 PUSH6 0xFFFFFFFFFFFF AND LT ISZERO PUSH2 0x778 JUMPI PUSH1 0x40 MLOAD DUP1 PUSH1 0xA0 ADD PUSH1 0x40 MSTORE DUP1 DUP8 PUSH1 0xFF AND PUSH1 0x1 DUP5 ADD DUP14 ADD SUB PUSH6 0xFFFFFFFFFFFF AND DUP2 MSTORE PUSH1 0x20 ADD PUSH1 0x1 ISZERO ISZERO DUP2 MSTORE PUSH1 0x20 ADD DUP5 DUP2 MSTORE PUSH1 0x20 ADD DUP10 DUP2 MSTORE PUSH1 0x20 ADD DUP9 DUP2 MSTORE POP PUSH1 0x40 MLOAD PUSH1 0x20 ADD PUSH2 0x735 SWAP2 SWAP1 PUSH2 0x36EA JUMP JUMPDEST PUSH1 0x40 MLOAD PUSH1 0x20 DUP2 DUP4 SUB SUB DUP2 MSTORE SWAP1 PUSH1 0x40 MSTORE DUP1 MLOAD SWAP1 PUSH1 0x20 ADD KECCAK256 DUP3 DUP3 PUSH6 0xFFFFFFFFFFFF AND DUP2 MLOAD DUP2 LT PUSH2 0x75F JUMPI INVALID JUMPDEST PUSH1 0x20 MUL PUSH1 0x20 ADD ADD DUP2 DUP2 MSTORE POP POP DUP1 DUP1 PUSH1 0x1 ADD SWAP2 POP POP PUSH2 0x6D6 JUMP JUMPDEST POP PUSH2 0x78A DUP10 DUP10 PUSH1 0x20 ADD MLOAD DUP4 DUP7 DUP9 PUSH2 0x10F0 JUMP JUMPDEST PUSH2 0x7C9 JUMPI PUSH1 0x40 MLOAD PUSH32 0x8C379A000000000000000000000000000000000000000000000000000000000 DUP2 MSTORE PUSH1 0x4 ADD PUSH2 0x7C0 SWAP1 PUSH2 0x364F JUMP JUMPDEST PUSH1 0x40 MLOAD DUP1 SWAP2 SUB SWAP1 REVERT JUMPDEST PUSH2 0x823 PUSH1 0x40 MLOAD DUP1 PUSH1 0xA0 ADD PUSH1 0x40 MSTORE DUP1 PUSH1 0x0 PUSH6 0xFFFFFFFFFFFF AND DUP2 MSTORE PUSH1 0x20 ADD TIMESTAMP PUSH6 0xFFFFFFFFFFFF AND DUP2 MSTORE PUSH1 0x20 ADD PUSH1 0x0 DUP1 SHL DUP2 MSTORE PUSH1 0x20 ADD PUSH1 0x0 PUSH20 0xFFFFFFFFFFFFFFFFFFFFFFFFFFFFFFFFFFFFFFFF AND DUP2 MSTORE PUSH1 0x20 ADD DUP9 DUP2 MSTORE POP PUSH2 0xE55 JUMP JUMPDEST PUSH1 0x0 DUP1 DUP5 DUP2 MSTORE PUSH1 0x20 ADD SWAP1 DUP2 MSTORE PUSH1 0x20 ADD PUSH1 0x0 KECCAK256 DUP2 SWAP1 SSTORE POP DUP2 PUSH32 0x3E659E9176C25A527F4575E010A270B3E1F8E9D1E94F5E49D4A91DD2C59E8CF8 PUSH1 0x40 MLOAD PUSH1 0x40 MLOAD DUP1 SWAP2 SUB SWAP1 LOG2 POP POP POP POP POP POP POP POP POP JUMP JUMPDEST DUP1 PUSH1 0x0 DUP1 DUP5 DUP2 MSTORE PUSH1 0x20 ADD SWAP1 DUP2 MSTORE PUSH1 0x20 ADD PUSH1 0x0 KECCAK256 DUP2 SWAP1 SSTORE POP POP POP JUMP JUMPDEST PUSH1 0x0 PUSH2 0x898 DUP4 DUP4 PUSH2 0x1212 JUMP JUMPDEST SWAP1 POP SWAP3 SWAP2 POP POP JUMP JUMPDEST PUSH1 0x0 PUSH2 0x8AF DUP7 DUP7 DUP7 DUP7 DUP7 PUSH2 0x10F0 JUMP JUMPDEST SWAP1 POP SWAP6 SWAP5 POP POP POP POP POP JUMP JUMPDEST PUSH1 0x0 DUP1 PUSH1 0x0 PUSH2 0x8C8 DUP5 PUSH2 0x128D JUMP JUMPDEST DUP1 SWAP4 POP DUP2 SWAP5 POP DUP3 SWAP6 POP POP POP POP SWAP2 SWAP4 SWAP1 SWAP3 POP JUMP JUMPDEST PUSH1 0x0 PUSH2 0x8E6 DUP5 PUSH2 0xAE2 JUMP JUMPDEST SWAP1 POP PUSH1 0x0 DUP1 PUSH2 0x8F4 DUP4 PUSH2 0x128D JUMP JUMPDEST POP SWAP2 POP SWAP2 POP PUSH1 0x0 PUSH2 0x919 DUP7 PUSH1 0x0 PUSH1 0x2 DUP2 LT PUSH2 0x90B JUMPI INVALID JUMPDEST PUSH1 0x20 MUL ADD MLOAD PUSH1 0x0 ADD MLOAD PUSH2 0x12E4 JUMP JUMPDEST SWAP1 POP PUSH1 0x0 PUSH2 0x93B DUP8 PUSH1 0x1 PUSH1 0x2 DUP2 LT PUSH2 0x92D JUMPI INVALID JUMPDEST PUSH1 0x20 MUL ADD MLOAD PUSH1 0x0 ADD MLOAD PUSH2 0x12E4 JUMP JUMPDEST SWAP1 POP PUSH1 0x0 PUSH2 0x973 DUP6 DUP12 PUSH1 0x0 PUSH1 0x2 DUP2 LT PUSH2 0x950 JUMPI INVALID JUMPDEST PUSH1 0x20 MUL ADD MLOAD DUP9 DUP13 DUP13 PUSH1 0x0 PUSH1 0x2 DUP2 LT PUSH2 0x964 JUMPI INVALID JUMPDEST PUSH1 0x20 MUL ADD MLOAD PUSH1 0x20 ADD MLOAD DUP9 PUSH2 0x1314 JUMP JUMPDEST SWAP1 POP PUSH1 0x0 PUSH2 0x9AE PUSH1 0x1 DUP8 ADD DUP13 PUSH1 0x1 PUSH1 0x2 DUP2 LT PUSH2 0x98B JUMPI INVALID JUMPDEST PUSH1 0x20 MUL ADD MLOAD DUP10 DUP14 DUP14 PUSH1 0x1 PUSH1 0x2 DUP2 LT PUSH2 0x99F JUMPI INVALID JUMPDEST PUSH1 0x20 MUL ADD MLOAD PUSH1 0x20 ADD MLOAD DUP9 PUSH2 0x1314 JUMP JUMPDEST SWAP1 POP PUSH2 0xA06 PUSH1 0x40 MLOAD DUP1 PUSH1 0xA0 ADD PUSH1 0x40 MSTORE DUP1 DUP9 PUSH6 0xFFFFFFFFFFFF AND DUP2 MSTORE PUSH1 0x20 ADD DUP8 PUSH6 0xFFFFFFFFFFFF AND DUP2 MSTORE PUSH1 0x20 ADD DUP5 DUP2 MSTORE PUSH1 0x20 ADD DUP15 PUSH20 0xFFFFFFFFFFFFFFFFFFFFFFFFFFFFFFFFFFFFFFFF AND DUP2 MSTORE PUSH1 0x20 ADD DUP7 DUP2 MSTORE POP DUP9 PUSH2 0x13AB JUMP JUMPDEST DUP10 PUSH1 0x20 ADD MLOAD DUP11 PUSH1 0x20 ADD MLOAD MLOAD PUSH1 0x1 DUP9 ADD PUSH6 0xFFFFFFFFFFFF AND DUP2 PUSH2 0xA24 JUMPI INVALID JUMPDEST MOD DUP2 MLOAD DUP2 LT PUSH2 0xA2F JUMPI INVALID JUMPDEST PUSH1 0x20 MUL PUSH1 0x20 ADD ADD MLOAD PUSH20 0xFFFFFFFFFFFFFFFFFFFFFFFFFFFFFFFFFFFFFFFF AND PUSH2 0xA57 DUP3 DUP11 PUSH2 0xD88 JUMP JUMPDEST PUSH20 0xFFFFFFFFFFFFFFFFFFFFFFFFFFFFFFFFFFFFFFFF AND EQ PUSH2 0xAAD JUMPI PUSH1 0x40 MLOAD PUSH32 0x8C379A000000000000000000000000000000000000000000000000000000000 DUP2 MSTORE PUSH1 0x4 ADD PUSH2 0xAA4 SWAP1 PUSH2 0x368F JUMP JUMPDEST PUSH1 0x40 MLOAD DUP1 SWAP2 SUB SWAP1 REVERT JUMPDEST PUSH2 0xAC6 DUP11 PUSH1 0x20 ADD MLOAD MLOAD DUP13 DUP12 PUSH1 0x1 DUP11 ADD DUP15 PUSH1 0x60 ADD MLOAD PUSH2 0x13C2 JUMP JUMPDEST POP PUSH2 0xAD4 DUP8 PUSH1 0x1 DUP9 ADD PUSH2 0xC75 JUMP JUMPDEST POP POP POP POP POP POP POP POP POP POP POP POP JUMP JUMPDEST PUSH1 0x0 DUP2 PUSH1 0x0 ADD MLOAD DUP3 PUSH1 0x20 ADD MLOAD DUP4 PUSH1 0x40 ADD MLOAD PUSH1 0x40 MLOAD PUSH1 0x20 ADD PUSH2 0xB05 SWAP4 SWAP3 SWAP2 SWAP1 PUSH2 0x3758 JUMP JUMPDEST PUSH1 0x40 MLOAD PUSH1 0x20 DUP2 DUP4 SUB SUB DUP2 MSTORE SWAP1 PUSH1 0x40 MSTORE DUP1 MLOAD SWAP1 PUSH1 0x20 ADD KECCAK256 SWAP1 POP SWAP2 SWAP1 POP JUMP JUMPDEST PUSH1 0x2 DUP1 DUP2 GT ISZERO PUSH2 0xB2E JUMPI INVALID JUMPDEST PUSH2 0xB37 DUP3 PUSH2 0xFB6 JUMP JUMPDEST PUSH1 0x2 DUP2 GT ISZERO PUSH2 0xB42 JUMPI INVALID JUMPDEST EQ ISZERO PUSH2 0xB83 JUMPI PUSH1 0x40 MLOAD PUSH32 0x8C379A000000000000000000000000000000000000000000000000000000000 DUP2 MSTORE PUSH1 0x4 ADD PUSH2 0xB7A SWAP1 PUSH2 0x350F JUMP JUMPDEST PUSH1 0x40 MLOAD DUP1 SWAP2 SUB SWAP1 REVERT JUMPDEST POP JUMP JUMPDEST PUSH1 0x0 PUSH2 0xB91 DUP4 PUSH2 0x128D JUMP JUMPDEST POP POP SWAP1 POP DUP1 PUSH6 0xFFFFFFFFFFFF AND DUP3 PUSH6 0xFFFFFFFFFFFF AND GT PUSH2 0xBE7 JUMPI PUSH1 0x40 MLOAD PUSH32 0x8C379A000000000000000000000000000000000000000000000000000000000 DUP2 MSTORE PUSH1 0x4 ADD PUSH2 0xBDE SWAP1 PUSH2 0x34CF JUMP JUMPDEST PUSH1 0x40 MLOAD DUP1 SWAP2 SUB SWAP1 REVERT JUMPDEST POP POP POP JUMP JUMPDEST PUSH1 0x0 PUSH1 0x60 PUSH2 0xBFD DUP10 DUP10 DUP10 DUP10 DUP10 PUSH2 0x168F JUMP JUMPDEST SWAP1 POP PUSH2 0xC10 DUP10 DUP7 PUSH1 0x20 ADD MLOAD DUP4 DUP8 DUP8 PUSH2 0x10F0 JUMP JUMPDEST PUSH2 0xC4F JUMPI PUSH1 0x40 MLOAD PUSH32 0x8C379A000000000000000000000000000000000000000000000000000000000 DUP2 MSTORE PUSH1 0x4 ADD PUSH2 0xC46 SWAP1 PUSH2 0x358F JUMP JUMPDEST PUSH1 0x40 MLOAD DUP1 SWAP2 SUB SWAP1 REVERT JUMPDEST DUP1 PUSH1 0x1 DUP3 MLOAD SUB DUP2 MLOAD DUP2 LT PUSH2 0xC5F JUMPI INVALID JUMPDEST PUSH1 0x20 MUL PUSH1 0x20 ADD ADD MLOAD SWAP2 POP POP SWAP8 SWAP7 POP POP POP POP POP POP POP JUMP JUMPDEST PUSH2 0xCD2 PUSH1 0x40 MLOAD DUP1 PUSH1 0xA0 ADD PUSH1 0x40 MSTORE DUP1 DUP4 PUSH6 0xFFFFFFFFFFFF AND DUP2 MSTORE PUSH1 0x20 ADD PUSH1 0x0 PUSH6 0xFFFFFFFFFFFF AND DUP2 MSTORE PUSH1 0x20 ADD PUSH1 0x0 DUP1 SHL DUP2 MSTORE PUSH1 0x20 ADD PUSH1 0x0 PUSH20 0xFFFFFFFFFFFFFFFFFFFFFFFFFFFFFFFFFFFFFFFF AND DUP2 MSTORE PUSH1 0x20 ADD PUSH1 0x0 DUP1 SHL DUP2 MSTORE POP PUSH2 0xE55 JUMP JUMPDEST PUSH1 0x0 DUP1 DUP5 DUP2 MSTORE PUSH1 0x20 ADD SWAP1 DUP2 MSTORE PUSH1 0x20 ADD PUSH1 0x0 KECCAK256 DUP2 SWAP1 SSTORE POP DUP2 PUSH32 0x7DA0A0674FB921E484018C8B81D80E292745E5D8ED134B580C8B9C631C5E9E0 DUP3 PUSH1 0x40 MLOAD PUSH2 0xD18 SWAP2 SWAP1 PUSH2 0x3796 JUMP JUMPDEST PUSH1 0x40 MLOAD DUP1 SWAP2 SUB SWAP1 LOG2 POP POP JUMP JUMPDEST PUSH1 0x0 PUSH1 0x2 DUP2 GT ISZERO PUSH2 0xD31 JUMPI INVALID JUMPDEST PUSH2 0xD3A DUP3 PUSH2 0xFB6 JUMP JUMPDEST PUSH1 0x2 DUP2 GT ISZERO PUSH2 0xD45 JUMPI INVALID JUMPDEST EQ PUSH2 0xD85 JUMPI PUSH1 0x40 MLOAD PUSH32 0x8C379A000000000000000000000000000000000000000000000000000000000 DUP2 MSTORE PUSH1 0x4 ADD PUSH2 0xD7C SWAP1 PUSH2 0x36AF JUMP JUMPDEST PUSH1 0x40 MLOAD DUP1 SWAP2 SUB SWAP1 REVERT JUMPDEST POP JUMP JUMPDEST PUSH1 0x0 DUP1 PUSH1 0x40 MLOAD DUP1 PUSH1 0x40 ADD PUSH1 0x40 MSTORE DUP1 PUSH1 0x1C DUP2 MSTORE PUSH1 0x20 ADD PUSH32 0x19457468657265756D205369676E6564204D6573736167653A0A333200000000 DUP2 MSTORE POP DUP5 PUSH1 0x40 MLOAD PUSH1 0x20 ADD PUSH2 0xDD3 SWAP3 SWAP2 SWAP1 PUSH2 0x337F JUMP JUMPDEST PUSH1 0x40 MLOAD PUSH1 0x20 DUP2 DUP4 SUB SUB DUP2 MSTORE SWAP1 PUSH1 0x40 MSTORE DUP1 MLOAD SWAP1 PUSH1 0x20 ADD KECCAK256 SWAP1 POP PUSH1 0x0 PUSH1 0x1 DUP3 DUP6 PUSH1 0x0 ADD MLOAD DUP7 PUSH1 0x20 ADD MLOAD DUP8 PUSH1 0x40 ADD MLOAD PUSH1 0x40 MLOAD PUSH1 0x0 DUP2 MSTORE PUSH1 0x20 ADD PUSH1 0x40 MSTORE PUSH1 0x40 MLOAD PUSH2 0xE1C SWAP5 SWAP4 SWAP3 SWAP2 SWAP1 PUSH2 0x3426 JUMP JUMPDEST PUSH1 0x20 PUSH1 0x40 MLOAD PUSH1 0x20 DUP2 SUB SWAP1 DUP1 DUP5 SUB SWAP1 DUP6 GAS STATICCALL ISZERO DUP1 ISZERO PUSH2 0xE3E JUMPI RETURNDATASIZE PUSH1 0x0 DUP1 RETURNDATACOPY RETURNDATASIZE PUSH1 0x0 REVERT JUMPDEST POP POP POP PUSH1 0x20 PUSH1 0x40 MLOAD SUB MLOAD SWAP1 POP DUP1 SWAP3 POP POP POP SWAP3 SWAP2 POP POP JUMP JUMPDEST PUSH1 0x0 DUP1 PUSH1 0x0 PUSH2 0x100 SWAP1 POP PUSH1 0x30 DUP2 SUB SWAP1 POP DUP1 PUSH2 0xFFFF AND DUP5 PUSH1 0x0 ADD MLOAD PUSH6 0xFFFFFFFFFFFF AND SWAP1 SHL SWAP2 POP PUSH1 0x30 DUP2 SUB SWAP1 POP DUP1 PUSH2 0xFFFF AND DUP5 PUSH1 0x20 ADD MLOAD PUSH6 0xFFFFFFFFFFFF AND SWAP1 SHL DUP3 OR SWAP2 POP DUP4 PUSH1 0x40 MLOAD PUSH1 0x20 ADD PUSH2 0xEAA SWAP2 SWAP1 PUSH2 0x36CF JUMP JUMPDEST PUSH1 0x40 MLOAD PUSH1 0x20 DUP2 DUP4 SUB SUB DUP2 MSTORE SWAP1 PUSH1 0x40 MSTORE DUP1 MLOAD SWAP1 PUSH1 0x20 ADD KECCAK256 PUSH1 0x0 SHR PUSH20 0xFFFFFFFFFFFFFFFFFFFFFFFFFFFFFFFFFFFFFFFF AND DUP3 OR SWAP2 POP DUP2 PUSH1 0x0 SHL SWAP3 POP POP POP SWAP2 SWAP1 POP JUMP JUMPDEST PUSH1 0x0 DUP3 DUP6 MLOAD EQ PUSH2 0xF2F JUMPI PUSH1 0x40 MLOAD PUSH32 0x8C379A000000000000000000000000000000000000000000000000000000000 DUP2 MSTORE PUSH1 0x4 ADD PUSH2 0xF26 SWAP1 PUSH2 0x35CF JUMP JUMPDEST PUSH1 0x40 MLOAD DUP1 SWAP2 SUB SWAP1 REVERT JUMPDEST PUSH1 0x0 DUP1 SWAP1 POP JUMPDEST DUP4 DUP2 LT ISZERO PUSH2 0xF93 JUMPI PUSH1 0x0 DUP5 DUP3 DUP8 PUSH6 0xFFFFFFFFFFFF AND DUP8 ADD SUB DUP2 PUSH2 0xF54 JUMPI INVALID JUMPDEST MOD SWAP1 POP PUSH1 0x1 DUP5 SUB DUP2 DUP9 DUP5 DUP2 MLOAD DUP2 LT PUSH2 0xF68 JUMPI INVALID JUMPDEST PUSH1 0x20 MUL PUSH1 0x20 ADD ADD MLOAD PUSH1 0xFF AND ADD LT ISZERO PUSH2 0xF85 JUMPI PUSH1 0x0 SWAP3 POP POP POP PUSH2 0xF99 JUMP JUMPDEST POP DUP1 DUP1 PUSH1 0x1 ADD SWAP2 POP POP PUSH2 0xF35 JUMP JUMPDEST POP PUSH1 0x1 SWAP1 POP JUMPDEST SWAP5 SWAP4 POP POP POP POP JUMP JUMPDEST PUSH1 0x0 DUP2 PUSH2 0xFAD DUP5 PUSH2 0xE55 JUMP JUMPDEST EQ SWAP1 POP SWAP3 SWAP2 POP POP JUMP JUMPDEST PUSH1 0x0 DUP1 PUSH2 0xFC2 DUP4 PUSH2 0x128D JUMP JUMPDEST POP SWAP2 POP POP PUSH1 0x0 DUP2 PUSH6 0xFFFFFFFFFFFF AND EQ ISZERO PUSH2 0xFE1 JUMPI PUSH1 0x0 SWAP2 POP POP PUSH2 0x1000 JUMP JUMPDEST TIMESTAMP DUP2 PUSH6 0xFFFFFFFFFFFF AND GT PUSH2 0xFFA JUMPI PUSH1 0x2 SWAP2 POP POP PUSH2 0x1000 JUMP JUMPDEST PUSH1 0x1 SWAP2 POP POP JUMPDEST SWAP2 SWAP1 POP JUMP JUMPDEST PUSH1 0x0 PUSH2 0x1010 DUP4 PUSH2 0x128D JUMP JUMPDEST POP POP SWAP1 POP DUP1 PUSH6 0xFFFFFFFFFFFF AND DUP3 PUSH6 0xFFFFFFFFFFFF AND LT ISZERO PUSH2 0x1067 JUMPI PUSH1 0x40 MLOAD PUSH32 0x8C379A000000000000000000000000000000000000000000000000000000000 DUP2 MSTORE PUSH1 0x4 ADD PUSH2 0x105E SWAP1 PUSH2 0x352F JUMP JUMPDEST PUSH1 0x40 MLOAD DUP1 SWAP2 SUB SWAP1 REVERT JUMPDEST POP POP POP JUMP JUMPDEST PUSH1 0x0 PUSH2 0x109E DUP5 PUSH1 0x40 MLOAD PUSH1 0x20 ADD PUSH2 0x1082 SWAP2 SWAP1 PUSH2 0x33F8 JUMP JUMPDEST PUSH1 0x40 MLOAD PUSH1 0x20 DUP2 DUP4 SUB SUB DUP2 MSTORE SWAP1 PUSH1 0x40 MSTORE DUP1 MLOAD SWAP1 PUSH1 0x20 ADD KECCAK256 DUP4 PUSH2 0xD88 JUMP JUMPDEST SWAP1 POP PUSH2 0x10AA DUP2 DUP5 PUSH2 0x1212 JUMP JUMPDEST PUSH2 0x10E9 JUMPI PUSH1 0x40 MLOAD PUSH32 0x8C379A000000000000000000000000000000000000000000000000000000000 DUP2 MSTORE PUSH1 0x4 ADD PUSH2 0x10E0 SWAP1 PUSH2 0x356F JUMP JUMPDEST PUSH1 0x40 MLOAD DUP1 SWAP2 SUB SWAP1 REVERT JUMPDEST SWAP4 SWAP3 POP POP POP JUMP JUMPDEST PUSH1 0x0 DUP1 DUP6 MLOAD SWAP1 POP PUSH1 0x0 DUP6 MLOAD SWAP1 POP PUSH2 0x1109 DUP5 DUP10 DUP5 DUP5 PUSH2 0xEEA JUMP JUMPDEST PUSH2 0x1148 JUMPI PUSH1 0x40 MLOAD PUSH32 0x8C379A000000000000000000000000000000000000000000000000000000000 DUP2 MSTORE PUSH1 0x4 ADD PUSH2 0x113F SWAP1 PUSH2 0x366F JUMP JUMPDEST PUSH1 0x40 MLOAD DUP1 SWAP2 SUB SWAP1 REVERT JUMPDEST PUSH1 0x0 DUP1 SWAP1 POP JUMPDEST DUP3 DUP2 LT ISZERO PUSH2 0x1201 JUMPI PUSH1 0x0 PUSH2 0x119E DUP9 DUP8 DUP5 DUP2 MLOAD DUP2 LT PUSH2 0x1168 JUMPI INVALID JUMPDEST PUSH1 0x20 MUL PUSH1 0x20 ADD ADD MLOAD PUSH1 0xFF AND DUP2 MLOAD DUP2 LT PUSH2 0x117D JUMPI INVALID JUMPDEST PUSH1 0x20 MUL PUSH1 0x20 ADD ADD MLOAD DUP9 DUP5 DUP2 MLOAD DUP2 LT PUSH2 0x1191 JUMPI INVALID JUMPDEST PUSH1 0x20 MUL PUSH1 0x20 ADD ADD MLOAD PUSH2 0xD88 JUMP JUMPDEST SWAP1 POP DUP9 DUP3 DUP2 MLOAD DUP2 LT PUSH2 0x11AC JUMPI INVALID JUMPDEST PUSH1 0x20 MUL PUSH1 0x20 ADD ADD MLOAD PUSH20 0xFFFFFFFFFFFFFFFFFFFFFFFFFFFFFFFFFFFFFFFF AND DUP2 PUSH20 0xFFFFFFFFFFFFFFFFFFFFFFFFFFFFFFFFFFFFFFFF AND EQ PUSH2 0x11F3 JUMPI PUSH1 0x0 SWAP5 POP POP POP POP POP PUSH2 0x1209 JUMP JUMPDEST POP DUP1 DUP1 PUSH1 0x1 ADD SWAP2 POP POP PUSH2 0x114E JUMP JUMPDEST POP PUSH1 0x1 SWAP3 POP POP POP JUMPDEST SWAP6 SWAP5 POP POP POP POP POP JUMP JUMPDEST PUSH1 0x0 DUP1 PUSH1 0x0 SWAP1 POP JUMPDEST DUP3 MLOAD DUP2 LT ISZERO PUSH2 0x1281 JUMPI DUP3 DUP2 DUP2 MLOAD DUP2 LT PUSH2 0x122F JUMPI INVALID JUMPDEST PUSH1 0x20 MUL PUSH1 0x20 ADD ADD MLOAD PUSH20 0xFFFFFFFFFFFFFFFFFFFFFFFFFFFFFFFFFFFFFFFF AND DUP5 PUSH20 0xFFFFFFFFFFFFFFFFFFFFFFFFFFFFFFFFFFFFFFFF AND EQ ISZERO PUSH2 0x1274 JUMPI PUSH1 0x1 SWAP2 POP POP PUSH2 0x1287 JUMP JUMPDEST DUP1 DUP1 PUSH1 0x1 ADD SWAP2 POP POP PUSH2 0x121A JUMP JUMPDEST POP PUSH1 0x0 SWAP1 POP JUMPDEST SWAP3 SWAP2 POP POP JUMP JUMPDEST PUSH1 0x0 DUP1 PUSH1 0x0 DUP1 PUSH1 0x0 DUP1 DUP7 DUP2 MSTORE PUSH1 0x20 ADD SWAP1 DUP2 MSTORE PUSH1 0x20 ADD PUSH1 0x0 KECCAK256 SLOAD SWAP1 POP PUSH1 0x0 PUSH2 0x100 SWAP1 POP PUSH1 0x30 DUP2 SUB SWAP1 POP DUP1 PUSH2 0xFFFF AND DUP3 PUSH1 0x0 SHR SWAP1 SHR SWAP5 POP PUSH1 0x30 DUP2 SUB SWAP1 POP DUP1 PUSH2 0xFFFF AND DUP3 PUSH1 0x0 SHR SWAP1 SHR SWAP4 POP DUP2 PUSH1 0x0 SHR SWAP3 POP POP POP SWAP2 SWAP4 SWAP1 SWAP3 POP JUMP JUMPDEST PUSH1 0x0 DUP2 PUSH1 0x40 MLOAD PUSH1 0x20 ADD PUSH2 0x12F7 SWAP2 SWAP1 PUSH2 0x348D JUMP JUMPDEST PUSH1 0x40 MLOAD PUSH1 0x20 DUP2 DUP4 SUB SUB DUP2 MSTORE SWAP1 PUSH1 0x40 MSTORE DUP1 MLOAD SWAP1 PUSH1 0x20 ADD KECCAK256 SWAP1 POP SWAP2 SWAP1 POP JUMP JUMPDEST PUSH1 0x0 PUSH1 0x40 MLOAD DUP1 PUSH1 0xA0 ADD PUSH1 0x40 MSTORE DUP1 DUP9 PUSH6 0xFFFFFFFFFFFF AND DUP2 MSTORE PUSH1 0x20 ADD DUP8 ISZERO ISZERO DUP2 MSTORE PUSH1 0x20 ADD DUP7 DUP2 MSTORE PUSH1 0x20 ADD DUP6 PUSH1 0x80 ADD MLOAD DUP7 PUSH1 0x60 ADD MLOAD DUP7 PUSH1 0x40 MLOAD PUSH1 0x20 ADD PUSH2 0x135A SWAP4 SWAP3 SWAP2 SWAP1 PUSH2 0x37B1 JUMP JUMPDEST PUSH1 0x40 MLOAD PUSH1 0x20 DUP2 DUP4 SUB SUB DUP2 MSTORE SWAP1 PUSH1 0x40 MSTORE DUP1 MLOAD SWAP1 PUSH1 0x20 ADD KECCAK256 DUP2 MSTORE PUSH1 0x20 ADD DUP4 DUP2 MSTORE POP PUSH1 0x40 MLOAD PUSH1 0x20 ADD PUSH2 0x1389 SWAP2 SWAP1 PUSH2 0x36EA JUMP JUMPDEST PUSH1 0x40 MLOAD PUSH1 0x20 DUP2 DUP4 SUB SUB DUP2 MSTORE SWAP1 PUSH1 0x40 MSTORE DUP1 MLOAD SWAP1 PUSH1 0x20 ADD KECCAK256 SWAP1 POP SWAP7 SWAP6 POP POP POP POP POP POP JUMP JUMPDEST PUSH2 0x13B5 DUP3 DUP3 PUSH2 0x185F JUMP JUMPDEST PUSH2 0x13BE DUP2 PUSH2 0x18BE JUMP JUMPDEST POP POP JUMP JUMPDEST PUSH1 0x0 DUP5 PUSH1 0x1 PUSH1 0x2 DUP2 LT PUSH2 0x13D1 JUMPI INVALID JUMPDEST PUSH1 0x20 MUL ADD MLOAD ISZERO PUSH2 0x1453 JUMPI PUSH2 0x140F DUP5 PUSH1 0x1 PUSH1 0x2 DUP2 LT PUSH2 0x13EB JUMPI INVALID JUMPDEST PUSH1 0x20 MUL ADD MLOAD PUSH1 0x0 ADD MLOAD DUP6 PUSH1 0x0 PUSH1 0x2 DUP2 LT PUSH2 0x1401 JUMPI INVALID JUMPDEST PUSH1 0x20 MUL ADD MLOAD PUSH1 0x0 ADD MLOAD PUSH2 0x1922 JUMP JUMPDEST PUSH2 0x144E JUMPI PUSH1 0x40 MLOAD PUSH32 0x8C379A000000000000000000000000000000000000000000000000000000000 DUP2 MSTORE PUSH1 0x4 ADD PUSH2 0x1445 SWAP1 PUSH2 0x360F JUMP JUMPDEST PUSH1 0x40 MLOAD DUP1 SWAP2 SUB SWAP1 REVERT JUMPDEST PUSH2 0x1682 JUMP JUMPDEST DUP5 PUSH1 0x0 PUSH1 0x2 DUP2 LT PUSH2 0x1460 JUMPI INVALID JUMPDEST PUSH1 0x20 MUL ADD MLOAD ISZERO PUSH2 0x14A5 JUMPI PUSH1 0x40 MLOAD PUSH32 0x8C379A000000000000000000000000000000000000000000000000000000000 DUP2 MSTORE PUSH1 0x4 ADD PUSH2 0x149C SWAP1 PUSH2 0x35EF JUMP JUMPDEST PUSH1 0x40 MLOAD DUP1 SWAP2 SUB SWAP1 REVERT JUMPDEST DUP6 PUSH1 0x2 MUL DUP4 PUSH6 0xFFFFFFFFFFFF AND LT ISZERO PUSH2 0x15C6 JUMPI PUSH2 0x14EC DUP5 PUSH1 0x1 PUSH1 0x2 DUP2 LT PUSH2 0x14C8 JUMPI INVALID JUMPDEST PUSH1 0x20 MUL ADD MLOAD PUSH1 0x0 ADD MLOAD DUP6 PUSH1 0x0 PUSH1 0x2 DUP2 LT PUSH2 0x14DE JUMPI INVALID JUMPDEST PUSH1 0x20 MUL ADD MLOAD PUSH1 0x0 ADD MLOAD PUSH2 0x1922 JUMP JUMPDEST PUSH2 0x152B JUMPI PUSH1 0x40 MLOAD PUSH32 0x8C379A000000000000000000000000000000000000000000000000000000000 DUP2 MSTORE PUSH1 0x4 ADD PUSH2 0x1522 SWAP1 PUSH2 0x35AF JUMP JUMPDEST PUSH1 0x40 MLOAD DUP1 SWAP2 SUB SWAP1 REVERT JUMPDEST DUP4 PUSH1 0x0 PUSH1 0x2 DUP2 LT PUSH2 0x1538 JUMPI INVALID JUMPDEST PUSH1 0x20 MUL ADD MLOAD PUSH1 0x20 ADD MLOAD PUSH1 0x40 MLOAD PUSH2 0x154E SWAP2 SWAP1 PUSH2 0x3368 JUMP JUMPDEST PUSH1 0x40 MLOAD DUP1 SWAP2 SUB SWAP1 KECCAK256 DUP5 PUSH1 0x1 PUSH1 0x2 DUP2 LT PUSH2 0x1563 JUMPI INVALID JUMPDEST PUSH1 0x20 MUL ADD MLOAD PUSH1 0x20 ADD MLOAD PUSH1 0x40 MLOAD PUSH2 0x1579 SWAP2 SWAP1 PUSH2 0x3368 JUMP JUMPDEST PUSH1 0x40 MLOAD DUP1 SWAP2 SUB SWAP1 KECCAK256 EQ PUSH2 0x15C1 JUMPI PUSH1 0x40 MLOAD PUSH32 0x8C379A000000000000000000000000000000000000000000000000000000000 DUP2 MSTORE PUSH1 0x4 ADD PUSH2 0x15B8 SWAP1 PUSH2 0x34AF JUMP JUMPDEST PUSH1 0x40 MLOAD DUP1 SWAP2 SUB SWAP1 REVERT JUMPDEST PUSH2 0x1681 JUMP JUMPDEST DUP2 PUSH20 0xFFFFFFFFFFFFFFFFFFFFFFFFFFFFFFFFFFFFFFFF AND PUSH4 0xFD7A2F65 DUP6 PUSH1 0x0 PUSH1 0x2 DUP2 LT PUSH2 0x15EF JUMPI INVALID JUMPDEST PUSH1 0x20 MUL ADD MLOAD DUP7 PUSH1 0x1 PUSH1 0x2 DUP2 LT PUSH2 0x1601 JUMPI INVALID JUMPDEST PUSH1 0x20 MUL ADD MLOAD DUP7 DUP11 PUSH1 0x40 MLOAD DUP6 PUSH4 0xFFFFFFFF AND PUSH1 0xE0 SHL DUP2 MSTORE PUSH1 0x4 ADD PUSH2 0x1627 SWAP5 SWAP4 SWAP3 SWAP2 SWAP1 PUSH2 0x3705 JUMP JUMPDEST PUSH1 0x20 PUSH1 0x40 MLOAD DUP1 DUP4 SUB DUP2 DUP7 DUP1 EXTCODESIZE ISZERO DUP1 ISZERO PUSH2 0x163F JUMPI PUSH1 0x0 DUP1 REVERT JUMPDEST POP GAS STATICCALL ISZERO DUP1 ISZERO PUSH2 0x1653 JUMPI RETURNDATASIZE PUSH1 0x0 DUP1 RETURNDATACOPY RETURNDATASIZE PUSH1 0x0 REVERT JUMPDEST POP POP POP POP PUSH1 0x40 MLOAD RETURNDATASIZE PUSH1 0x1F NOT PUSH1 0x1F DUP3 ADD AND DUP3 ADD DUP1 PUSH1 0x40 MSTORE POP PUSH2 0x1677 SWAP2 SWAP1 DUP2 ADD SWAP1 PUSH2 0x21DB JUMP JUMPDEST PUSH2 0x1680 JUMPI PUSH1 0x0 DUP1 REVERT JUMPDEST JUMPDEST JUMPDEST PUSH1 0x1 SWAP1 POP SWAP6 SWAP5 POP POP POP POP POP JUMP JUMPDEST PUSH1 0x60 DUP1 DUP6 MLOAD PUSH1 0x40 MLOAD SWAP1 DUP1 DUP3 MSTORE DUP1 PUSH1 0x20 MUL PUSH1 0x20 ADD DUP3 ADD PUSH1 0x40 MSTORE DUP1 ISZERO PUSH2 0x16C2 JUMPI DUP2 PUSH1 0x20 ADD PUSH1 0x20 DUP3 MUL DUP1 CODESIZE DUP4 CODECOPY DUP1 DUP3 ADD SWAP2 POP POP SWAP1 POP JUMPDEST POP SWAP1 POP PUSH1 0x0 PUSH1 0x1 DUP7 PUSH1 0xFF AND DUP10 SUB ADD SWAP1 POP PUSH1 0x0 DUP1 PUSH1 0x0 SWAP1 POP JUMPDEST DUP9 MLOAD DUP2 PUSH6 0xFFFFFFFFFFFF AND LT ISZERO PUSH2 0x184F JUMPI DUP1 PUSH1 0x1 DUP11 MLOAD DUP13 SUB ADD ADD SWAP2 POP PUSH2 0x175D DUP3 DUP5 PUSH6 0xFFFFFFFFFFFF AND DUP5 PUSH6 0xFFFFFFFFFFFF AND LT ISZERO DUP10 DUP10 DUP14 DUP7 PUSH6 0xFFFFFFFFFFFF AND DUP2 MLOAD DUP2 LT PUSH2 0x1724 JUMPI INVALID JUMPDEST PUSH1 0x20 MUL PUSH1 0x20 ADD ADD MLOAD PUSH1 0x20 ADD MLOAD PUSH2 0x1758 DUP16 DUP9 PUSH6 0xFFFFFFFFFFFF AND DUP2 MLOAD DUP2 LT PUSH2 0x1747 JUMPI INVALID JUMPDEST PUSH1 0x20 MUL PUSH1 0x20 ADD ADD MLOAD PUSH1 0x0 ADD MLOAD PUSH2 0x12E4 JUMP JUMPDEST PUSH2 0x1314 JUMP JUMPDEST DUP5 DUP3 PUSH6 0xFFFFFFFFFFFF AND DUP2 MLOAD DUP2 LT PUSH2 0x1771 JUMPI INVALID JUMPDEST PUSH1 0x20 MUL PUSH1 0x20 ADD ADD DUP2 DUP2 MSTORE POP POP DUP10 PUSH6 0xFFFFFFFFFFFF AND DUP3 PUSH6 0xFFFFFFFFFFFF AND LT ISZERO PUSH2 0x1842 JUMPI PUSH2 0x1840 DUP7 PUSH1 0x20 ADD MLOAD MLOAD PUSH1 0x40 MLOAD DUP1 PUSH1 0x40 ADD PUSH1 0x40 MSTORE DUP1 DUP7 PUSH6 0xFFFFFFFFFFFF AND DUP7 PUSH6 0xFFFFFFFFFFFF AND LT ISZERO ISZERO ISZERO ISZERO ISZERO DUP2 MSTORE PUSH1 0x20 ADD DUP7 PUSH6 0xFFFFFFFFFFFF AND PUSH1 0x1 DUP8 ADD PUSH6 0xFFFFFFFFFFFF AND LT ISZERO ISZERO ISZERO ISZERO ISZERO DUP2 MSTORE POP PUSH1 0x40 MLOAD DUP1 PUSH1 0x40 ADD PUSH1 0x40 MSTORE DUP1 DUP14 DUP7 PUSH6 0xFFFFFFFFFFFF AND DUP2 MLOAD DUP2 LT PUSH2 0x1803 JUMPI INVALID JUMPDEST PUSH1 0x20 MUL PUSH1 0x20 ADD ADD MLOAD DUP2 MSTORE PUSH1 0x20 ADD DUP14 PUSH1 0x1 DUP8 ADD PUSH6 0xFFFFFFFFFFFF AND DUP2 MLOAD DUP2 LT PUSH2 0x1827 JUMPI INVALID JUMPDEST PUSH1 0x20 MUL PUSH1 0x20 ADD ADD MLOAD DUP2 MSTORE POP PUSH1 0x1 DUP7 ADD DUP11 PUSH1 0x60 ADD MLOAD PUSH2 0x13C2 JUMP JUMPDEST POP JUMPDEST DUP1 DUP1 PUSH1 0x1 ADD SWAP2 POP POP PUSH2 0x16DA JUMP JUMPDEST POP DUP3 SWAP4 POP POP POP POP SWAP6 SWAP5 POP POP POP POP POP JUMP JUMPDEST PUSH2 0x187B DUP3 PUSH1 0x0 DUP1 DUP5 DUP2 MSTORE PUSH1 0x20 ADD SWAP1 DUP2 MSTORE PUSH1 0x20 ADD PUSH1 0x0 KECCAK256 SLOAD PUSH2 0xFA1 JUMP JUMPDEST PUSH2 0x18BA JUMPI PUSH1 0x40 MLOAD PUSH32 0x8C379A000000000000000000000000000000000000000000000000000000000 DUP2 MSTORE PUSH1 0x4 ADD PUSH2 0x18B1 SWAP1 PUSH2 0x362F JUMP JUMPDEST PUSH1 0x40 MLOAD DUP1 SWAP2 SUB SWAP1 REVERT JUMPDEST POP POP JUMP JUMPDEST PUSH1 0x1 PUSH1 0x2 DUP2 GT ISZERO PUSH2 0x18CB JUMPI INVALID JUMPDEST PUSH2 0x18D4 DUP3 PUSH2 0xFB6 JUMP JUMPDEST PUSH1 0x2 DUP2 GT ISZERO PUSH2 0x18DF JUMPI INVALID JUMPDEST EQ PUSH2 0x191F JUMPI PUSH1 0x40 MLOAD PUSH32 0x8C379A000000000000000000000000000000000000000000000000000000000 DUP2 MSTORE PUSH1 0x4 ADD PUSH2 0x1916 SWAP1 PUSH2 0x354F JUMP JUMPDEST PUSH1 0x40 MLOAD DUP1 SWAP2 SUB SWAP1 REVERT JUMPDEST POP JUMP JUMPDEST PUSH1 0x0 DUP2 DUP1 MLOAD SWAP1 PUSH1 0x20 ADD KECCAK256 DUP4 DUP1 MLOAD SWAP1 PUSH1 0x20 ADD KECCAK256 EQ SWAP1 POP SWAP3 SWAP2 POP POP JUMP JUMPDEST PUSH1 0x0 DUP2 CALLDATALOAD SWAP1 POP PUSH2 0x194C DUP2 PUSH2 0x3C64 JUMP JUMPDEST SWAP3 SWAP2 POP POP JUMP JUMPDEST PUSH1 0x0 DUP3 PUSH1 0x1F DUP4 ADD SLT PUSH2 0x1963 JUMPI PUSH1 0x0 DUP1 REVERT JUMPDEST DUP2 CALLDATALOAD PUSH2 0x1976 PUSH2 0x1971 DUP3 PUSH2 0x38ED JUMP JUMPDEST PUSH2 0x38C0 JUMP JUMPDEST SWAP2 POP DUP2 DUP2 DUP4 MSTORE PUSH1 0x20 DUP5 ADD SWAP4 POP PUSH1 0x20 DUP2 ADD SWAP1 POP DUP4 DUP6 PUSH1 0x20 DUP5 MUL DUP3 ADD GT ISZERO PUSH2 0x199B JUMPI PUSH1 0x0 DUP1 REVERT JUMPDEST PUSH1 0x0 JUMPDEST DUP4 DUP2 LT ISZERO PUSH2 0x19CB JUMPI DUP2 PUSH2 0x19B1 DUP9 DUP3 PUSH2 0x193D JUMP JUMPDEST DUP5 MSTORE PUSH1 0x20 DUP5 ADD SWAP4 POP PUSH1 0x20 DUP4 ADD SWAP3 POP POP PUSH1 0x1 DUP2 ADD SWAP1 POP PUSH2 0x199E JUMP JUMPDEST POP POP POP POP SWAP3 SWAP2 POP POP JUMP JUMPDEST PUSH1 0x0 DUP3 PUSH1 0x1F DUP4 ADD SLT PUSH2 0x19E6 JUMPI PUSH1 0x0 DUP1 REVERT JUMPDEST DUP2 CALLDATALOAD PUSH2 0x19F9 PUSH2 0x19F4 DUP3 PUSH2 0x3915 JUMP JUMPDEST PUSH2 0x38C0 JUMP JUMPDEST SWAP2 POP DUP2 DUP2 DUP4 MSTORE PUSH1 0x20 DUP5 ADD SWAP4 POP PUSH1 0x20 DUP2 ADD SWAP1 POP DUP4 DUP6 PUSH1 0x20 DUP5 MUL DUP3 ADD GT ISZERO PUSH2 0x1A1E JUMPI PUSH1 0x0 DUP1 REVERT JUMPDEST PUSH1 0x0 JUMPDEST DUP4 DUP2 LT ISZERO PUSH2 0x1A4E JUMPI DUP2 PUSH2 0x1A34 DUP9 DUP3 PUSH2 0x193D JUMP JUMPDEST DUP5 MSTORE PUSH1 0x20 DUP5 ADD SWAP4 POP PUSH1 0x20 DUP4 ADD SWAP3 POP POP PUSH1 0x1 DUP2 ADD SWAP1 POP PUSH2 0x1A21 JUMP JUMPDEST POP POP POP POP SWAP3 SWAP2 POP POP JUMP JUMPDEST PUSH1 0x0 DUP3 PUSH1 0x1F DUP4 ADD SLT PUSH2 0x1A69 JUMPI PUSH1 0x0 DUP1 REVERT JUMPDEST PUSH1 0x2 PUSH2 0x1A7C PUSH2 0x1A77 DUP3 PUSH2 0x393D JUMP JUMPDEST PUSH2 0x38C0 JUMP JUMPDEST SWAP2 POP DUP2 DUP4 DUP6 PUSH1 0x20 DUP5 MUL DUP3 ADD GT ISZERO PUSH2 0x1A92 JUMPI PUSH1 0x0 DUP1 REVERT JUMPDEST PUSH1 0x0 JUMPDEST DUP4 DUP2 LT ISZERO PUSH2 0x1AC2 JUMPI DUP2 PUSH2 0x1AA8 DUP9 DUP3 PUSH2 0x1D2E JUMP JUMPDEST DUP5 MSTORE PUSH1 0x20 DUP5 ADD SWAP4 POP PUSH1 0x20 DUP4 ADD SWAP3 POP POP PUSH1 0x1 DUP2 ADD SWAP1 POP PUSH2 0x1A95 JUMP JUMPDEST POP POP POP POP SWAP3 SWAP2 POP POP JUMP JUMPDEST PUSH1 0x0 DUP3 PUSH1 0x1F DUP4 ADD SLT PUSH2 0x1ADD JUMPI PUSH1 0x0 DUP1 REVERT JUMPDEST DUP2 CALLDATALOAD PUSH2 0x1AF0 PUSH2 0x1AEB DUP3 PUSH2 0x395F JUMP JUMPDEST PUSH2 0x38C0 JUMP JUMPDEST SWAP2 POP DUP2 DUP2 DUP4 MSTORE PUSH1 0x20 DUP5 ADD SWAP4 POP PUSH1 0x20 DUP2 ADD SWAP1 POP DUP4 DUP6 PUSH1 0x20 DUP5 MUL DUP3 ADD GT ISZERO PUSH2 0x1B15 JUMPI PUSH1 0x0 DUP1 REVERT JUMPDEST PUSH1 0x0 JUMPDEST DUP4 DUP2 LT ISZERO PUSH2 0x1B45 JUMPI DUP2 PUSH2 0x1B2B DUP9 DUP3 PUSH2 0x1D58 JUMP JUMPDEST DUP5 MSTORE PUSH1 0x20 DUP5 ADD SWAP4 POP PUSH1 0x20 DUP4 ADD SWAP3 POP POP PUSH1 0x1 DUP2 ADD SWAP1 POP PUSH2 0x1B18 JUMP JUMPDEST POP POP POP POP SWAP3 SWAP2 POP POP JUMP JUMPDEST PUSH1 0x0 DUP3 PUSH1 0x1F DUP4 ADD SLT PUSH2 0x1B60 JUMPI PUSH1 0x0 DUP1 REVERT JUMPDEST DUP2 CALLDATALOAD PUSH2 0x1B73 PUSH2 0x1B6E DUP3 PUSH2 0x3987 JUMP JUMPDEST PUSH2 0x38C0 JUMP JUMPDEST SWAP2 POP DUP2 DUP2 DUP4 MSTORE PUSH1 0x20 DUP5 ADD SWAP4 POP PUSH1 0x20 DUP2 ADD SWAP1 POP DUP4 DUP6 PUSH1 0x60 DUP5 MUL DUP3 ADD GT ISZERO PUSH2 0x1B98 JUMPI PUSH1 0x0 DUP1 REVERT JUMPDEST PUSH1 0x0 JUMPDEST DUP4 DUP2 LT ISZERO PUSH2 0x1BC8 JUMPI DUP2 PUSH2 0x1BAE DUP9 DUP3 PUSH2 0x1EE9 JUMP JUMPDEST DUP5 MSTORE PUSH1 0x20 DUP5 ADD SWAP4 POP PUSH1 0x60 DUP4 ADD SWAP3 POP POP PUSH1 0x1 DUP2 ADD SWAP1 POP PUSH2 0x1B9B JUMP JUMPDEST POP POP POP POP SWAP3 SWAP2 POP POP JUMP JUMPDEST PUSH1 0x0 DUP3 PUSH1 0x1F DUP4 ADD SLT PUSH2 0x1BE3 JUMPI PUSH1 0x0 DUP1 REVERT JUMPDEST PUSH1 0x2 PUSH2 0x1BF6 PUSH2 0x1BF1 DUP3 PUSH2 0x39AF JUMP JUMPDEST PUSH2 0x38C0 JUMP JUMPDEST SWAP2 POP DUP2 DUP4 PUSH1 0x0 JUMPDEST DUP4 DUP2 LT ISZERO PUSH2 0x1C2D JUMPI DUP2 CALLDATALOAD DUP7 ADD PUSH2 0x1C13 DUP9 DUP3 PUSH2 0x1FA9 JUMP JUMPDEST DUP5 MSTORE PUSH1 0x20 DUP5 ADD SWAP4 POP PUSH1 0x20 DUP4 ADD SWAP3 POP POP PUSH1 0x1 DUP2 ADD SWAP1 POP PUSH2 0x1BFD JUMP JUMPDEST POP POP POP POP SWAP3 SWAP2 POP POP JUMP JUMPDEST PUSH1 0x0 DUP3 PUSH1 0x1F DUP4 ADD SLT PUSH2 0x1C48 JUMPI PUSH1 0x0 DUP1 REVERT JUMPDEST DUP2 CALLDATALOAD PUSH2 0x1C5B PUSH2 0x1C56 DUP3 PUSH2 0x39D1 JUMP JUMPDEST PUSH2 0x38C0 JUMP JUMPDEST SWAP2 POP DUP2 DUP2 DUP4 MSTORE PUSH1 0x20 DUP5 ADD SWAP4 POP PUSH1 0x20 DUP2 ADD SWAP1 POP DUP4 PUSH1 0x0 JUMPDEST DUP4 DUP2 LT ISZERO PUSH2 0x1CA1 JUMPI DUP2 CALLDATALOAD DUP7 ADD PUSH2 0x1C87 DUP9 DUP3 PUSH2 0x1FA9 JUMP JUMPDEST DUP5 MSTORE PUSH1 0x20 DUP5 ADD SWAP4 POP PUSH1 0x20 DUP4 ADD SWAP3 POP POP PUSH1 0x1 DUP2 ADD SWAP1 POP PUSH2 0x1C71 JUMP JUMPDEST POP POP POP POP SWAP3 SWAP2 POP POP JUMP JUMPDEST PUSH1 0x0 DUP3 PUSH1 0x1F DUP4 ADD SLT PUSH2 0x1CBC JUMPI PUSH1 0x0 DUP1 REVERT JUMPDEST DUP2 CALLDATALOAD PUSH2 0x1CCF PUSH2 0x1CCA DUP3 PUSH2 0x39F9 JUMP JUMPDEST PUSH2 0x38C0 JUMP JUMPDEST SWAP2 POP DUP2 DUP2 DUP4 MSTORE PUSH1 0x20 DUP5 ADD SWAP4 POP PUSH1 0x20 DUP2 ADD SWAP1 POP DUP4 DUP6 PUSH1 0x20 DUP5 MUL DUP3 ADD GT ISZERO PUSH2 0x1CF4 JUMPI PUSH1 0x0 DUP1 REVERT JUMPDEST PUSH1 0x0 JUMPDEST DUP4 DUP2 LT ISZERO PUSH2 0x1D24 JUMPI DUP2 PUSH2 0x1D0A DUP9 DUP3 PUSH2 0x204F JUMP JUMPDEST DUP5 MSTORE PUSH1 0x20 DUP5 ADD SWAP4 POP PUSH1 0x20 DUP4 ADD SWAP3 POP POP PUSH1 0x1 DUP2 ADD SWAP1 POP PUSH2 0x1CF7 JUMP JUMPDEST POP POP POP POP SWAP3 SWAP2 POP POP JUMP JUMPDEST PUSH1 0x0 DUP2 CALLDATALOAD SWAP1 POP PUSH2 0x1D3D DUP2 PUSH2 0x3C7B JUMP JUMPDEST SWAP3 SWAP2 POP POP JUMP JUMPDEST PUSH1 0x0 DUP2 MLOAD SWAP1 POP PUSH2 0x1D52 DUP2 PUSH2 0x3C7B JUMP JUMPDEST SWAP3 SWAP2 POP POP JUMP JUMPDEST PUSH1 0x0 DUP2 CALLDATALOAD SWAP1 POP PUSH2 0x1D67 DUP2 PUSH2 0x3C92 JUMP JUMPDEST SWAP3 SWAP2 POP POP JUMP JUMPDEST PUSH1 0x0 DUP3 PUSH1 0x1F DUP4 ADD SLT PUSH2 0x1D7E JUMPI PUSH1 0x0 DUP1 REVERT JUMPDEST DUP2 CALLDATALOAD PUSH2 0x1D91 PUSH2 0x1D8C DUP3 PUSH2 0x3A21 JUMP JUMPDEST PUSH2 0x38C0 JUMP JUMPDEST SWAP2 POP DUP1 DUP3 MSTORE PUSH1 0x20 DUP4 ADD PUSH1 0x20 DUP4 ADD DUP6 DUP4 DUP4 ADD GT ISZERO PUSH2 0x1DAD JUMPI PUSH1 0x0 DUP1 REVERT JUMPDEST PUSH2 0x1DB8 DUP4 DUP3 DUP5 PUSH2 0x3C07 JUMP JUMPDEST POP POP POP SWAP3 SWAP2 POP POP JUMP JUMPDEST PUSH1 0x0 PUSH1 0xA0 DUP3 DUP5 SUB SLT ISZERO PUSH2 0x1DD3 JUMPI PUSH1 0x0 DUP1 REVERT JUMPDEST PUSH2 0x1DDD PUSH1 0xA0 PUSH2 0x38C0 JUMP JUMPDEST SWAP1 POP PUSH1 0x0 PUSH2 0x1DED DUP5 DUP3 DUP6 ADD PUSH2 0x203A JUMP JUMPDEST PUSH1 0x0 DUP4 ADD MSTORE POP PUSH1 0x20 PUSH2 0x1E01 DUP5 DUP3 DUP6 ADD PUSH2 0x203A JUMP JUMPDEST PUSH1 0x20 DUP4 ADD MSTORE POP PUSH1 0x40 PUSH2 0x1E15 DUP5 DUP3 DUP6 ADD PUSH2 0x1D58 JUMP JUMPDEST PUSH1 0x40 DUP4 ADD MSTORE POP PUSH1 0x60 PUSH2 0x1E29 DUP5 DUP3 DUP6 ADD PUSH2 0x193D JUMP JUMPDEST PUSH1 0x60 DUP4 ADD MSTORE POP PUSH1 0x80 PUSH2 0x1E3D DUP5 DUP3 DUP6 ADD PUSH2 0x1D58 JUMP JUMPDEST PUSH1 0x80 DUP4 ADD MSTORE POP SWAP3 SWAP2 POP POP JUMP JUMPDEST PUSH1 0x0 PUSH1 0xA0 DUP3 DUP5 SUB SLT ISZERO PUSH2 0x1E5B JUMPI PUSH1 0x0 DUP1 REVERT JUMPDEST PUSH2 0x1E65 PUSH1 0xA0 PUSH2 0x38C0 JUMP JUMPDEST SWAP1 POP PUSH1 0x0 PUSH2 0x1E75 DUP5 DUP3 DUP6 ADD PUSH2 0x2025 JUMP JUMPDEST PUSH1 0x0 DUP4 ADD MSTORE POP PUSH1 0x20 DUP3 ADD CALLDATALOAD PUSH8 0xFFFFFFFFFFFFFFFF DUP2 GT ISZERO PUSH2 0x1E95 JUMPI PUSH1 0x0 DUP1 REVERT JUMPDEST PUSH2 0x1EA1 DUP5 DUP3 DUP6 ADD PUSH2 0x1952 JUMP JUMPDEST PUSH1 0x20 DUP4 ADD MSTORE POP PUSH1 0x40 PUSH2 0x1EB5 DUP5 DUP3 DUP6 ADD PUSH2 0x203A JUMP JUMPDEST PUSH1 0x40 DUP4 ADD MSTORE POP PUSH1 0x60 PUSH2 0x1EC9 DUP5 DUP3 DUP6 ADD PUSH2 0x193D JUMP JUMPDEST PUSH1 0x60 DUP4 ADD MSTORE POP PUSH1 0x80 PUSH2 0x1EDD DUP5 DUP3 DUP6 ADD PUSH2 0x203A JUMP JUMPDEST PUSH1 0x80 DUP4 ADD MSTORE POP SWAP3 SWAP2 POP POP JUMP JUMPDEST PUSH1 0x0 PUSH1 0x60 DUP3 DUP5 SUB SLT ISZERO PUSH2 0x1EFB JUMPI PUSH1 0x0 DUP1 REVERT JUMPDEST PUSH2 0x1F05 PUSH1 0x60 PUSH2 0x38C0 JUMP JUMPDEST SWAP1 POP PUSH1 0x0 PUSH2 0x1F15 DUP5 DUP3 DUP6 ADD PUSH2 0x204F JUMP JUMPDEST PUSH1 0x0 DUP4 ADD MSTORE POP PUSH1 0x20 PUSH2 0x1F29 DUP5 DUP3 DUP6 ADD PUSH2 0x1D58 JUMP JUMPDEST PUSH1 0x20 DUP4 ADD MSTORE POP PUSH1 0x40 PUSH2 0x1F3D DUP5 DUP3 DUP6 ADD PUSH2 0x1D58 JUMP JUMPDEST PUSH1 0x40 DUP4 ADD MSTORE POP SWAP3 SWAP2 POP POP JUMP JUMPDEST PUSH1 0x0 PUSH1 0x60 DUP3 DUP5 SUB SLT ISZERO PUSH2 0x1F5B JUMPI PUSH1 0x0 DUP1 REVERT JUMPDEST PUSH2 0x1F65 PUSH1 0x60 PUSH2 0x38C0 JUMP JUMPDEST SWAP1 POP PUSH1 0x0 PUSH2 0x1F75 DUP5 DUP3 DUP6 ADD PUSH2 0x204F JUMP JUMPDEST PUSH1 0x0 DUP4 ADD MSTORE POP PUSH1 0x20 PUSH2 0x1F89 DUP5 DUP3 DUP6 ADD PUSH2 0x1D58 JUMP JUMPDEST PUSH1 0x20 DUP4 ADD MSTORE POP PUSH1 0x40 PUSH2 0x1F9D DUP5 DUP3 DUP6 ADD PUSH2 0x1D58 JUMP JUMPDEST PUSH1 0x40 DUP4 ADD MSTORE POP SWAP3 SWAP2 POP POP JUMP JUMPDEST PUSH1 0x0 PUSH1 0x40 DUP3 DUP5 SUB SLT ISZERO PUSH2 0x1FBB JUMPI PUSH1 0x0 DUP1 REVERT JUMPDEST PUSH2 0x1FC5 PUSH1 0x40 PUSH2 0x38C0 JUMP JUMPDEST SWAP1 POP PUSH1 0x0 DUP3 ADD CALLDATALOAD PUSH8 0xFFFFFFFFFFFFFFFF DUP2 GT ISZERO PUSH2 0x1FE1 JUMPI PUSH1 0x0 DUP1 REVERT JUMPDEST PUSH2 0x1FED DUP5 DUP3 DUP6 ADD PUSH2 0x1D6D JUMP JUMPDEST PUSH1 0x0 DUP4 ADD MSTORE POP PUSH1 0x20 DUP3 ADD CALLDATALOAD PUSH8 0xFFFFFFFFFFFFFFFF DUP2 GT ISZERO PUSH2 0x200D JUMPI PUSH1 0x0 DUP1 REVERT JUMPDEST PUSH2 0x2019 DUP5 DUP3 DUP6 ADD PUSH2 0x1D6D JUMP JUMPDEST PUSH1 0x20 DUP4 ADD MSTORE POP SWAP3 SWAP2 POP POP JUMP JUMPDEST PUSH1 0x0 DUP2 CALLDATALOAD SWAP1 POP PUSH2 0x2034 DUP2 PUSH2 0x3CA9 JUMP JUMPDEST SWAP3 SWAP2 POP POP JUMP JUMPDEST PUSH1 0x0 DUP2 CALLDATALOAD SWAP1 POP PUSH2 0x2049 DUP2 PUSH2 0x3CC0 JUMP JUMPDEST SWAP3 SWAP2 POP POP JUMP JUMPDEST PUSH1 0x0 DUP2 CALLDATALOAD SWAP1 POP PUSH2 0x205E DUP2 PUSH2 0x3CD7 JUMP JUMPDEST SWAP3 SWAP2 POP POP JUMP JUMPDEST PUSH1 0x0 DUP1 PUSH1 0x40 DUP4 DUP6 SUB SLT ISZERO PUSH2 0x2077 JUMPI PUSH1 0x0 DUP1 REVERT JUMPDEST PUSH1 0x0 PUSH2 0x2085 DUP6 DUP3 DUP7 ADD PUSH2 0x193D JUMP JUMPDEST SWAP3 POP POP PUSH1 0x20 DUP4 ADD CALLDATALOAD PUSH8 0xFFFFFFFFFFFFFFFF DUP2 GT ISZERO PUSH2 0x20A2 JUMPI PUSH1 0x0 DUP1 REVERT JUMPDEST PUSH2 0x20AE DUP6 DUP3 DUP7 ADD PUSH2 0x19D5 JUMP JUMPDEST SWAP2 POP POP SWAP3 POP SWAP3 SWAP1 POP JUMP JUMPDEST PUSH1 0x0 DUP1 PUSH1 0x0 DUP1 PUSH1 0x0 PUSH2 0x100 DUP7 DUP9 SUB SLT ISZERO PUSH2 0x20D1 JUMPI PUSH1 0x0 DUP1 REVERT JUMPDEST PUSH1 0x0 PUSH2 0x20DF DUP9 DUP3 DUP10 ADD PUSH2 0x193D JUMP JUMPDEST SWAP6 POP POP PUSH1 0x20 PUSH2 0x20F0 DUP9 DUP3 DUP10 ADD PUSH2 0x1A58 JUMP JUMPDEST SWAP5 POP POP PUSH1 0x60 DUP7 ADD CALLDATALOAD PUSH8 0xFFFFFFFFFFFFFFFF DUP2 GT ISZERO PUSH2 0x210D JUMPI PUSH1 0x0 DUP1 REVERT JUMPDEST PUSH2 0x2119 DUP9 DUP3 DUP10 ADD PUSH2 0x1E49 JUMP JUMPDEST SWAP4 POP POP PUSH1 0x80 DUP7 ADD CALLDATALOAD PUSH8 0xFFFFFFFFFFFFFFFF DUP2 GT ISZERO PUSH2 0x2136 JUMPI PUSH1 0x0 DUP1 REVERT JUMPDEST PUSH2 0x2142 DUP9 DUP3 DUP10 ADD PUSH2 0x1BD2 JUMP JUMPDEST SWAP3 POP POP PUSH1 0xA0 PUSH2 0x2153 DUP9 DUP3 DUP10 ADD PUSH2 0x1F49 JUMP JUMPDEST SWAP2 POP POP SWAP3 SWAP6 POP SWAP3 SWAP6 SWAP1 SWAP4 POP JUMP JUMPDEST PUSH1 0x0 DUP1 PUSH1 0x0 DUP1 PUSH1 0x80 DUP6 DUP8 SUB SLT ISZERO PUSH2 0x2176 JUMPI PUSH1 0x0 DUP1 REVERT JUMPDEST PUSH1 0x0 DUP6 ADD CALLDATALOAD PUSH8 0xFFFFFFFFFFFFFFFF DUP2 GT ISZERO PUSH2 0x2190 JUMPI PUSH1 0x0 DUP1 REVERT JUMPDEST PUSH2 0x219C DUP8 DUP3 DUP9 ADD PUSH2 0x1CAB JUMP JUMPDEST SWAP5 POP POP PUSH1 0x20 PUSH2 0x21AD DUP8 DUP3 DUP9 ADD PUSH2 0x203A JUMP JUMPDEST SWAP4 POP POP PUSH1 0x40 PUSH2 0x21BE DUP8 DUP3 DUP9 ADD PUSH2 0x2025 JUMP JUMPDEST SWAP3 POP POP PUSH1 0x60 PUSH2 0x21CF DUP8 DUP3 DUP9 ADD PUSH2 0x2025 JUMP JUMPDEST SWAP2 POP POP SWAP3 SWAP6 SWAP2 SWAP5 POP SWAP3 POP JUMP JUMPDEST PUSH1 0x0 PUSH1 0x20 DUP3 DUP5 SUB SLT ISZERO PUSH2 0x21ED JUMPI PUSH1 0x0 DUP1 REVERT JUMPDEST PUSH1 0x0 PUSH2 0x21FB DUP5 DUP3 DUP6 ADD PUSH2 0x1D43 JUMP JUMPDEST SWAP2 POP POP SWAP3 SWAP2 POP POP JUMP JUMPDEST PUSH1 0x0 PUSH1 0x20 DUP3 DUP5 SUB SLT ISZERO PUSH2 0x2216 JUMPI PUSH1 0x0 DUP1 REVERT JUMPDEST PUSH1 0x0 PUSH2 0x2224 DUP5 DUP3 DUP6 ADD PUSH2 0x1D58 JUMP JUMPDEST SWAP2 POP POP SWAP3 SWAP2 POP POP JUMP JUMPDEST PUSH1 0x0 DUP1 PUSH1 0x40 DUP4 DUP6 SUB SLT ISZERO PUSH2 0x2240 JUMPI PUSH1 0x0 DUP1 REVERT JUMPDEST PUSH1 0x0 PUSH2 0x224E DUP6 DUP3 DUP7 ADD PUSH2 0x1D58 JUMP JUMPDEST SWAP3 POP POP PUSH1 0x20 PUSH2 0x225F DUP6 DUP3 DUP7 ADD PUSH2 0x1D58 JUMP JUMPDEST SWAP2 POP POP SWAP3 POP SWAP3 SWAP1 POP JUMP JUMPDEST PUSH1 0x0 DUP1 PUSH1 0xC0 DUP4 DUP6 SUB SLT ISZERO PUSH2 0x227C JUMPI PUSH1 0x0 DUP1 REVERT JUMPDEST PUSH1 0x0 PUSH2 0x228A DUP6 DUP3 DUP7 ADD PUSH2 0x1D58 JUMP JUMPDEST SWAP3 POP POP PUSH1 0x20 PUSH2 0x229B DUP6 DUP3 DUP7 ADD PUSH2 0x1DC1 JUMP JUMPDEST SWAP2 POP POP SWAP3 POP SWAP3 SWAP1 POP JUMP JUMPDEST PUSH1 0x0 DUP1 PUSH1 0x80 DUP4 DUP6 SUB SLT ISZERO PUSH2 0x22B8 JUMPI PUSH1 0x0 DUP1 REVERT JUMPDEST PUSH1 0x0 PUSH2 0x22C6 DUP6 DUP3 DUP7 ADD PUSH2 0x1D58 JUMP JUMPDEST SWAP3 POP POP PUSH1 0x20 PUSH2 0x22D7 DUP6 DUP3 DUP7 ADD PUSH2 0x1F49 JUMP JUMPDEST SWAP2 POP POP SWAP3 POP SWAP3 SWAP1 POP JUMP JUMPDEST PUSH1 0x0 PUSH1 0xA0 DUP3 DUP5 SUB SLT ISZERO PUSH2 0x22F3 JUMPI PUSH1 0x0 DUP1 REVERT JUMPDEST PUSH1 0x0 PUSH2 0x2301 DUP5 DUP3 DUP6 ADD PUSH2 0x1DC1 JUMP JUMPDEST SWAP2 POP POP SWAP3 SWAP2 POP POP JUMP JUMPDEST PUSH1 0x0 DUP1 PUSH1 0xC0 DUP4 DUP6 SUB SLT ISZERO PUSH2 0x231D JUMPI PUSH1 0x0 DUP1 REVERT JUMPDEST PUSH1 0x0 PUSH2 0x232B DUP6 DUP3 DUP7 ADD PUSH2 0x1DC1 JUMP JUMPDEST SWAP3 POP POP PUSH1 0xA0 PUSH2 0x233C DUP6 DUP3 DUP7 ADD PUSH2 0x1D58 JUMP JUMPDEST SWAP2 POP POP SWAP3 POP SWAP3 SWAP1 POP JUMP JUMPDEST PUSH1 0x0 DUP1 PUSH1 0x0 DUP1 PUSH1 0x0 DUP1 PUSH1 0xC0 DUP8 DUP10 SUB SLT ISZERO PUSH2 0x235F JUMPI PUSH1 0x0 DUP1 REVERT JUMPDEST PUSH1 0x0 DUP8 ADD CALLDATALOAD PUSH8 0xFFFFFFFFFFFFFFFF DUP2 GT ISZERO PUSH2 0x2379 JUMPI PUSH1 0x0 DUP1 REVERT JUMPDEST PUSH2 0x2385 DUP10 DUP3 DUP11 ADD PUSH2 0x1E49 JUMP JUMPDEST SWAP7 POP POP PUSH1 0x20 PUSH2 0x2396 DUP10 DUP3 DUP11 ADD PUSH2 0x203A JUMP JUMPDEST SWAP6 POP POP PUSH1 0x40 DUP8 ADD CALLDATALOAD PUSH8 0xFFFFFFFFFFFFFFFF DUP2 GT ISZERO PUSH2 0x23B3 JUMPI PUSH1 0x0 DUP1 REVERT JUMPDEST PUSH2 0x23BF DUP10 DUP3 DUP11 ADD PUSH2 0x1C37 JUMP JUMPDEST SWAP5 POP POP PUSH1 0x60 PUSH2 0x23D0 DUP10 DUP3 DUP11 ADD PUSH2 0x204F JUMP JUMPDEST SWAP4 POP POP PUSH1 0x80 DUP8 ADD CALLDATALOAD PUSH8 0xFFFFFFFFFFFFFFFF DUP2 GT ISZERO PUSH2 0x23ED JUMPI PUSH1 0x0 DUP1 REVERT JUMPDEST PUSH2 0x23F9 DUP10 DUP3 DUP11 ADD PUSH2 0x1B4F JUMP JUMPDEST SWAP3 POP POP PUSH1 0xA0 DUP8 ADD CALLDATALOAD PUSH8 0xFFFFFFFFFFFFFFFF DUP2 GT ISZERO PUSH2 0x2416 JUMPI PUSH1 0x0 DUP1 REVERT JUMPDEST PUSH2 0x2422 DUP10 DUP3 DUP11 ADD PUSH2 0x1CAB JUMP JUMPDEST SWAP2 POP POP SWAP3 SWAP6 POP SWAP3 SWAP6 POP SWAP3 SWAP6 JUMP JUMPDEST PUSH1 0x0 DUP1 PUSH1 0x0 DUP1 PUSH1 0x0 DUP1 PUSH1 0x0 PUSH2 0x120 DUP9 DUP11 SUB SLT ISZERO PUSH2 0x244B JUMPI PUSH1 0x0 DUP1 REVERT JUMPDEST PUSH1 0x0 DUP9 ADD CALLDATALOAD PUSH8 0xFFFFFFFFFFFFFFFF DUP2 GT ISZERO PUSH2 0x2465 JUMPI PUSH1 0x0 DUP1 REVERT JUMPDEST PUSH2 0x2471 DUP11 DUP3 DUP12 ADD PUSH2 0x1E49 JUMP JUMPDEST SWAP8 POP POP PUSH1 0x20 PUSH2 0x2482 DUP11 DUP3 DUP12 ADD PUSH2 0x203A JUMP JUMPDEST SWAP7 POP POP PUSH1 0x40 DUP9 ADD CALLDATALOAD PUSH8 0xFFFFFFFFFFFFFFFF DUP2 GT ISZERO PUSH2 0x249F JUMPI PUSH1 0x0 DUP1 REVERT JUMPDEST PUSH2 0x24AB DUP11 DUP3 DUP12 ADD PUSH2 0x1C37 JUMP JUMPDEST SWAP6 POP POP PUSH1 0x60 PUSH2 0x24BC DUP11 DUP3 DUP12 ADD PUSH2 0x204F JUMP JUMPDEST SWAP5 POP POP PUSH1 0x80 DUP9 ADD CALLDATALOAD PUSH8 0xFFFFFFFFFFFFFFFF DUP2 GT ISZERO PUSH2 0x24D9 JUMPI PUSH1 0x0 DUP1 REVERT JUMPDEST PUSH2 0x24E5 DUP11 DUP3 DUP12 ADD PUSH2 0x1B4F JUMP JUMPDEST SWAP4 POP POP PUSH1 0xA0 DUP9 ADD CALLDATALOAD PUSH8 0xFFFFFFFFFFFFFFFF DUP2 GT ISZERO PUSH2 0x2502 JUMPI PUSH1 0x0 DUP1 REVERT JUMPDEST PUSH2 0x250E DUP11 DUP3 DUP12 ADD PUSH2 0x1CAB JUMP JUMPDEST SWAP3 POP POP PUSH1 0xC0 PUSH2 0x251F DUP11 DUP3 DUP12 ADD PUSH2 0x1F49 JUMP JUMPDEST SWAP2 POP POP SWAP3 SWAP6 SWAP9 SWAP2 SWAP5 SWAP8 POP SWAP3 SWAP6 POP JUMP JUMPDEST PUSH1 0x0 DUP1 PUSH1 0x0 DUP1 PUSH1 0x0 PUSH1 0xA0 DUP7 DUP9 SUB SLT ISZERO PUSH2 0x2546 JUMPI PUSH1 0x0 DUP1 REVERT JUMPDEST PUSH1 0x0 PUSH2 0x2554 DUP9 DUP3 DUP10 ADD PUSH2 0x203A JUMP JUMPDEST SWAP6 POP POP PUSH1 0x20 DUP7 ADD CALLDATALOAD PUSH8 0xFFFFFFFFFFFFFFFF DUP2 GT ISZERO PUSH2 0x2571 JUMPI PUSH1 0x0 DUP1 REVERT JUMPDEST PUSH2 0x257D DUP9 DUP3 DUP10 ADD PUSH2 0x19D5 JUMP JUMPDEST SWAP5 POP POP PUSH1 0x40 DUP7 ADD CALLDATALOAD PUSH8 0xFFFFFFFFFFFFFFFF DUP2 GT ISZERO PUSH2 0x259A JUMPI PUSH1 0x0 DUP1 REVERT JUMPDEST PUSH2 0x25A6 DUP9 DUP3 DUP10 ADD PUSH2 0x1ACC JUMP JUMPDEST SWAP4 POP POP PUSH1 0x60 DUP7 ADD CALLDATALOAD PUSH8 0xFFFFFFFFFFFFFFFF DUP2 GT ISZERO PUSH2 0x25C3 JUMPI PUSH1 0x0 DUP1 REVERT JUMPDEST PUSH2 0x25CF DUP9 DUP3 DUP10 ADD PUSH2 0x1B4F JUMP JUMPDEST SWAP3 POP POP PUSH1 0x80 DUP7 ADD CALLDATALOAD PUSH8 0xFFFFFFFFFFFFFFFF DUP2 GT ISZERO PUSH2 0x25EC JUMPI PUSH1 0x0 DUP1 REVERT JUMPDEST PUSH2 0x25F8 DUP9 DUP3 DUP10 ADD PUSH2 0x1CAB JUMP JUMPDEST SWAP2 POP POP SWAP3 SWAP6 POP SWAP3 SWAP6 SWAP1 SWAP4 POP JUMP JUMPDEST PUSH1 0x0 DUP1 PUSH1 0x0 DUP1 PUSH1 0x0 DUP1 PUSH1 0x0 PUSH1 0xE0 DUP9 DUP11 SUB SLT ISZERO PUSH2 0x2620 JUMPI PUSH1 0x0 DUP1 REVERT JUMPDEST PUSH1 0x0 PUSH2 0x262E DUP11 DUP3 DUP12 ADD PUSH2 0x203A JUMP JUMPDEST SWAP8 POP POP PUSH1 0x20 DUP9 ADD CALLDATALOAD PUSH8 0xFFFFFFFFFFFFFFFF DUP2 GT ISZERO PUSH2 0x264B JUMPI PUSH1 0x0 DUP1 REVERT JUMPDEST PUSH2 0x2657 DUP11 DUP3 DUP12 ADD PUSH2 0x1E49 JUMP JUMPDEST SWAP7 POP POP PUSH1 0x40 PUSH2 0x2668 DUP11 DUP3 DUP12 ADD PUSH2 0x1D58 JUMP JUMPDEST SWAP6 POP POP PUSH1 0x60 PUSH2 0x2679 DUP11 DUP3 DUP12 ADD PUSH2 0x1D58 JUMP JUMPDEST SWAP5 POP POP PUSH1 0x80 PUSH2 0x268A DUP11 DUP3 DUP12 ADD PUSH2 0x204F JUMP JUMPDEST SWAP4 POP POP PUSH1 0xA0 DUP9 ADD CALLDATALOAD PUSH8 0xFFFFFFFFFFFFFFFF DUP2 GT ISZERO PUSH2 0x26A7 JUMPI PUSH1 0x0 DUP1 REVERT JUMPDEST PUSH2 0x26B3 DUP11 DUP3 DUP12 ADD PUSH2 0x1CAB JUMP JUMPDEST SWAP3 POP POP PUSH1 0xC0 DUP9 ADD CALLDATALOAD PUSH8 0xFFFFFFFFFFFFFFFF DUP2 GT ISZERO PUSH2 0x26D0 JUMPI PUSH1 0x0 DUP1 REVERT JUMPDEST PUSH2 0x26DC DUP11 DUP3 DUP12 ADD PUSH2 0x1B4F JUMP JUMPDEST SWAP2 POP POP SWAP3 SWAP6 SWAP9 SWAP2 SWAP5 SWAP8 POP SWAP3 SWAP6 POP JUMP JUMPDEST PUSH1 0x0 PUSH2 0x26F7 DUP4 DUP4 PUSH2 0x2747 JUMP JUMPDEST PUSH1 0x20 DUP4 ADD SWAP1 POP SWAP3 SWAP2 POP POP JUMP JUMPDEST PUSH1 0x0 PUSH2 0x270F DUP4 DUP4 PUSH2 0x31CD JUMP JUMPDEST PUSH1 0x60 DUP4 ADD SWAP1 POP SWAP3 SWAP2 POP POP JUMP JUMPDEST PUSH1 0x0 PUSH2 0x2727 DUP4 DUP4 PUSH2 0x3277 JUMP JUMPDEST SWAP1 POP SWAP3 SWAP2 POP POP JUMP JUMPDEST PUSH1 0x0 PUSH2 0x273B DUP4 DUP4 PUSH2 0x334A JUMP JUMPDEST PUSH1 0x20 DUP4 ADD SWAP1 POP SWAP3 SWAP2 POP POP JUMP JUMPDEST PUSH2 0x2750 DUP2 PUSH2 0x3B96 JUMP JUMPDEST DUP3 MSTORE POP POP JUMP JUMPDEST PUSH2 0x275F DUP2 PUSH2 0x3B96 JUMP JUMPDEST DUP3 MSTORE POP POP JUMP JUMPDEST PUSH1 0x0 PUSH2 0x2770 DUP3 PUSH2 0x3A8D JUMP JUMPDEST PUSH2 0x277A DUP2 DUP6 PUSH2 0x3B03 JUMP JUMPDEST SWAP4 POP PUSH2 0x2785 DUP4 PUSH2 0x3A4D JUMP JUMPDEST DUP1 PUSH1 0x0 JUMPDEST DUP4 DUP2 LT ISZERO PUSH2 0x27B6 JUMPI DUP2 MLOAD PUSH2 0x279D DUP9 DUP3 PUSH2 0x26EB JUMP JUMPDEST SWAP8 POP PUSH2 0x27A8 DUP4 PUSH2 0x3ACF JUMP JUMPDEST SWAP3 POP POP PUSH1 0x1 DUP2 ADD SWAP1 POP PUSH2 0x2789 JUMP JUMPDEST POP DUP6 SWAP4 POP POP POP POP SWAP3 SWAP2 POP POP JUMP JUMPDEST PUSH1 0x0 PUSH2 0x27CE DUP3 PUSH2 0x3A8D JUMP JUMPDEST PUSH2 0x27D8 DUP2 DUP6 PUSH2 0x3B14 JUMP JUMPDEST SWAP4 POP PUSH2 0x27E3 DUP4 PUSH2 0x3A4D JUMP JUMPDEST DUP1 PUSH1 0x0 JUMPDEST DUP4 DUP2 LT ISZERO PUSH2 0x2814 JUMPI DUP2 MLOAD PUSH2 0x27FB DUP9 DUP3 PUSH2 0x26EB JUMP JUMPDEST SWAP8 POP PUSH2 0x2806 DUP4 PUSH2 0x3ACF JUMP JUMPDEST SWAP3 POP POP PUSH1 0x1 DUP2 ADD SWAP1 POP PUSH2 0x27E7 JUMP JUMPDEST POP DUP6 SWAP4 POP POP POP POP SWAP3 SWAP2 POP POP JUMP JUMPDEST PUSH1 0x0 PUSH2 0x282C DUP3 PUSH2 0x3A98 JUMP JUMPDEST PUSH2 0x2836 DUP2 DUP6 PUSH2 0x3B25 JUMP JUMPDEST SWAP4 POP PUSH2 0x2841 DUP4 PUSH2 0x3A5D JUMP JUMPDEST DUP1 PUSH1 0x0 JUMPDEST DUP4 DUP2 LT ISZERO PUSH2 0x2872 JUMPI DUP2 MLOAD PUSH2 0x2859 DUP9 DUP3 PUSH2 0x2703 JUMP JUMPDEST SWAP8 POP PUSH2 0x2864 DUP4 PUSH2 0x3ADC JUMP JUMPDEST SWAP3 POP POP PUSH1 0x1 DUP2 ADD SWAP1 POP PUSH2 0x2845 JUMP JUMPDEST POP DUP6 SWAP4 POP POP POP POP SWAP3 SWAP2 POP POP JUMP JUMPDEST PUSH1 0x0 PUSH2 0x288A DUP3 PUSH2 0x3AA3 JUMP JUMPDEST PUSH2 0x2894 DUP2 DUP6 PUSH2 0x3B36 JUMP JUMPDEST SWAP4 POP DUP4 PUSH1 0x20 DUP3 MUL DUP6 ADD PUSH2 0x28A6 DUP6 PUSH2 0x3A6D JUMP JUMPDEST DUP1 PUSH1 0x0 JUMPDEST DUP6 DUP2 LT ISZERO PUSH2 0x28E2 JUMPI DUP5 DUP5 SUB DUP10 MSTORE DUP2 MLOAD PUSH2 0x28C3 DUP6 DUP3 PUSH2 0x271B JUMP JUMPDEST SWAP5 POP PUSH2 0x28CE DUP4 PUSH2 0x3AE9 JUMP JUMPDEST SWAP3 POP PUSH1 0x20 DUP11 ADD SWAP10 POP POP PUSH1 0x1 DUP2 ADD SWAP1 POP PUSH2 0x28AA JUMP JUMPDEST POP DUP3 SWAP8 POP DUP8 SWAP6 POP POP POP POP POP POP SWAP3 SWAP2 POP POP JUMP JUMPDEST PUSH1 0x0 PUSH2 0x28FF DUP3 PUSH2 0x3AAE JUMP JUMPDEST PUSH2 0x2909 DUP2 DUP6 PUSH2 0x3B47 JUMP JUMPDEST SWAP4 POP PUSH2 0x2914 DUP4 PUSH2 0x3A7D JUMP JUMPDEST DUP1 PUSH1 0x0 JUMPDEST DUP4 DUP2 LT ISZERO PUSH2 0x2945 JUMPI DUP2 MLOAD PUSH2 0x292C DUP9 DUP3 PUSH2 0x272F JUMP JUMPDEST SWAP8 POP PUSH2 0x2937 DUP4 PUSH2 0x3AF6 JUMP JUMPDEST SWAP3 POP POP PUSH1 0x1 DUP2 ADD SWAP1 POP PUSH2 0x2918 JUMP JUMPDEST POP DUP6 SWAP4 POP POP POP POP SWAP3 SWAP2 POP POP JUMP JUMPDEST PUSH2 0x295B DUP2 PUSH2 0x3BA8 JUMP JUMPDEST DUP3 MSTORE POP POP JUMP JUMPDEST PUSH2 0x296A DUP2 PUSH2 0x3BA8 JUMP JUMPDEST DUP3 MSTORE POP POP JUMP JUMPDEST PUSH2 0x2979 DUP2 PUSH2 0x3BB4 JUMP JUMPDEST DUP3 MSTORE POP POP JUMP JUMPDEST PUSH2 0x2988 DUP2 PUSH2 0x3BB4 JUMP JUMPDEST DUP3 MSTORE POP POP JUMP JUMPDEST PUSH2 0x299F PUSH2 0x299A DUP3 PUSH2 0x3BB4 JUMP JUMPDEST PUSH2 0x3C49 JUMP JUMPDEST DUP3 MSTORE POP POP JUMP JUMPDEST PUSH1 0x0 PUSH2 0x29B0 DUP3 PUSH2 0x3AC4 JUMP JUMPDEST PUSH2 0x29BA DUP2 DUP6 PUSH2 0x3B69 JUMP JUMPDEST SWAP4 POP PUSH2 0x29CA DUP2 DUP6 PUSH1 0x20 DUP7 ADD PUSH2 0x3C16 JUMP JUMPDEST PUSH2 0x29D3 DUP2 PUSH2 0x3C53 JUMP JUMPDEST DUP5 ADD SWAP2 POP POP SWAP3 SWAP2 POP POP JUMP JUMPDEST PUSH1 0x0 PUSH2 0x29E9 DUP3 PUSH2 0x3AB9 JUMP JUMPDEST PUSH2 0x29F3 DUP2 DUP6 PUSH2 0x3B58 JUMP JUMPDEST SWAP4 POP PUSH2 0x2A03 DUP2 DUP6 PUSH1 0x20 DUP7 ADD PUSH2 0x3C16 JUMP JUMPDEST PUSH2 0x2A0C DUP2 PUSH2 0x3C53 JUMP JUMPDEST DUP5 ADD SWAP2 POP POP SWAP3 SWAP2 POP POP JUMP JUMPDEST PUSH1 0x0 PUSH2 0x2A22 DUP3 PUSH2 0x3AB9 JUMP JUMPDEST PUSH2 0x2A2C DUP2 DUP6 PUSH2 0x3B69 JUMP JUMPDEST SWAP4 POP PUSH2 0x2A3C DUP2 DUP6 PUSH1 0x20 DUP7 ADD PUSH2 0x3C16 JUMP JUMPDEST PUSH2 0x2A45 DUP2 PUSH2 0x3C53 JUMP JUMPDEST DUP5 ADD SWAP2 POP POP SWAP3 SWAP2 POP POP JUMP JUMPDEST PUSH1 0x0 PUSH2 0x2A5B DUP3 PUSH2 0x3AB9 JUMP JUMPDEST PUSH2 0x2A65 DUP2 DUP6 PUSH2 0x3B7A JUMP JUMPDEST SWAP4 POP PUSH2 0x2A75 DUP2 DUP6 PUSH1 0x20 DUP7 ADD PUSH2 0x3C16 JUMP JUMPDEST DUP1 DUP5 ADD SWAP2 POP POP SWAP3 SWAP2 POP POP JUMP JUMPDEST PUSH1 0x0 PUSH2 0x2A8E PUSH1 0x44 DUP4 PUSH2 0x3B85 JUMP JUMPDEST SWAP2 POP PUSH32 0x496E76616C69645472616E736974696F6E4572726F723A2043616E6E6F742063 PUSH1 0x0 DUP4 ADD MSTORE PUSH32 0x68616E676520746865206170704461746120647572696E672073657475702070 PUSH1 0x20 DUP4 ADD MSTORE PUSH32 0x6861736500000000000000000000000000000000000000000000000000000000 PUSH1 0x40 DUP4 ADD MSTORE PUSH1 0x60 DUP3 ADD SWAP1 POP SWAP2 SWAP1 POP JUMP JUMPDEST PUSH1 0x0 PUSH2 0x2B1A PUSH1 0x1C DUP4 PUSH2 0x3B85 JUMP JUMPDEST SWAP2 POP PUSH32 0x7475726E4E756D5265636F7264206E6F7420696E637265617365642E00000000 PUSH1 0x0 DUP4 ADD MSTORE PUSH1 0x20 DUP3 ADD SWAP1 POP SWAP2 SWAP1 POP JUMP JUMPDEST PUSH1 0x0 PUSH2 0x2B5A PUSH1 0x14 DUP4 PUSH2 0x3B85 JUMP JUMPDEST SWAP2 POP PUSH32 0x496E76616C6964206F70656E206368616E6E656C000000000000000000000000 PUSH1 0x0 DUP4 ADD MSTORE PUSH1 0x20 DUP3 ADD SWAP1 POP SWAP2 SWAP1 POP JUMP JUMPDEST PUSH1 0x0 PUSH2 0x2B9A PUSH1 0x12 DUP4 PUSH2 0x3B85 JUMP JUMPDEST SWAP2 POP PUSH32 0x4368616E6E656C2066696E616C697A65642E0000000000000000000000000000 PUSH1 0x0 DUP4 ADD MSTORE PUSH1 0x20 DUP3 ADD SWAP1 POP SWAP2 SWAP1 POP JUMP JUMPDEST PUSH1 0x0 PUSH2 0x2BDA PUSH1 0x18 DUP4 PUSH2 0x3B85 JUMP JUMPDEST SWAP2 POP PUSH32 0x7475726E4E756D5265636F7264206465637265617365642E0000000000000000 PUSH1 0x0 DUP4 ADD MSTORE PUSH1 0x20 DUP3 ADD SWAP1 POP SWAP2 SWAP1 POP JUMP JUMPDEST PUSH1 0x0 PUSH2 0x2C1A PUSH1 0x15 DUP4 PUSH2 0x3B85 JUMP JUMPDEST SWAP2 POP PUSH32 0x4E6F206F6E676F696E67206368616C6C656E67652E0000000000000000000000 PUSH1 0x0 DUP4 ADD MSTORE PUSH1 0x20 DUP3 ADD SWAP1 POP SWAP2 SWAP1 POP JUMP JUMPDEST PUSH1 0x0 PUSH2 0x2C5A PUSH1 0x1F DUP4 PUSH2 0x3B85 JUMP JUMPDEST SWAP2 POP PUSH32 0x4368616C6C656E676572206973206E6F742061207061727469636970616E7400 PUSH1 0x0 DUP4 ADD MSTORE PUSH1 0x20 DUP3 ADD SWAP1 POP SWAP2 SWAP1 POP JUMP JUMPDEST PUSH1 0x0 PUSH2 0x2C9A PUSH1 0x12 DUP4 PUSH2 0x3B85 JUMP JUMPDEST SWAP2 POP PUSH32 0x496E76616C6964207369676E6174757265730000000000000000000000000000 PUSH1 0x0 DUP4 ADD MSTORE PUSH1 0x20 DUP3 ADD SWAP1 POP SWAP2 SWAP1 POP JUMP JUMPDEST PUSH1 0x0 PUSH2 0x2CDA PUSH1 0x4C DUP4 PUSH2 0x3B85 JUMP JUMPDEST SWAP2 POP PUSH32 0x496E76616C69645472616E736974696F6E4572726F723A2043616E6E6F742063 PUSH1 0x0 DUP4 ADD MSTORE PUSH32 0x68616E6765207468652064656661756C74206F7574636F6D6520647572696E67 PUSH1 0x20 DUP4 ADD MSTORE PUSH32 0x2073657475702070686173650000000000000000000000000000000000000000 PUSH1 0x40 DUP4 ADD MSTORE PUSH1 0x60 DUP3 ADD SWAP1 POP SWAP2 SWAP1 POP JUMP JUMPDEST PUSH1 0x0 PUSH2 0x2D66 PUSH1 0x47 DUP4 PUSH2 0x3B85 JUMP JUMPDEST SWAP2 POP PUSH32 0x5F76616C69645369676E6174757265733A2077686F5369676E65645768617420 PUSH1 0x0 DUP4 ADD MSTORE PUSH32 0x6D757374206265207468652073616D65206C656E677468206173207061727469 PUSH1 0x20 DUP4 ADD MSTORE PUSH32 0x636970616E747300000000000000000000000000000000000000000000000000 PUSH1 0x40 DUP4 ADD MSTORE PUSH1 0x60 DUP3 ADD SWAP1 POP SWAP2 SWAP1 POP JUMP JUMPDEST PUSH1 0x0 PUSH2 0x2DF2 PUSH1 0x9 DUP4 PUSH2 0x3B85 JUMP JUMPDEST SWAP2 POP PUSH32 0x666F7263654D6F76650000000000000000000000000000000000000000000000 PUSH1 0x0 DUP4 ADD MSTORE PUSH1 0x20 DUP3 ADD SWAP1 POP SWAP2 SWAP1 POP JUMP JUMPDEST PUSH1 0x0 PUSH2 0x2E32 PUSH1 0x4B DUP4 PUSH2 0x3B85 JUMP JUMPDEST SWAP2 POP PUSH32 0x496E76616C69645472616E736974696F6E4572726F723A2043616E6E6F74206D PUSH1 0x0 DUP4 ADD MSTORE PUSH32 0x6F76652066726F6D20612066696E616C20737461746520746F2061206E6F6E20 PUSH1 0x20 DUP4 ADD MSTORE PUSH32 0x66696E616C207374617465000000000000000000000000000000000000000000 PUSH1 0x40 DUP4 ADD MSTORE PUSH1 0x60 DUP3 ADD SWAP1 POP SWAP2 SWAP1 POP JUMP JUMPDEST PUSH1 0x0 PUSH2 0x2EBE PUSH1 0x55 DUP4 PUSH2 0x3B85 JUMP JUMPDEST SWAP2 POP PUSH32 0x496E76616C69645472616E736974696F6E4572726F723A2043616E6E6F74206D PUSH1 0x0 DUP4 ADD MSTORE PUSH32 0x6F766520746F20612066696E616C207374617465207769746820612064696666 PUSH1 0x20 DUP4 ADD MSTORE PUSH32 0x6572656E742064656661756C74206F7574636F6D650000000000000000000000 PUSH1 0x40 DUP4 ADD MSTORE PUSH1 0x60 DUP3 ADD SWAP1 POP SWAP2 SWAP1 POP JUMP JUMPDEST PUSH1 0x0 PUSH2 0x2F4A PUSH1 0x2E DUP4 PUSH2 0x3B85 JUMP JUMPDEST SWAP2 POP PUSH32 0x4368616E6E656C2073746F7261676520646F6573206E6F74206D617463682073 PUSH1 0x0 DUP4 ADD MSTORE PUSH32 0x746F7265642076657273696F6E2E000000000000000000000000000000000000 PUSH1 0x20 DUP4 ADD MSTORE PUSH1 0x40 DUP3 ADD SWAP1 POP SWAP2 SWAP1 POP JUMP JUMPDEST PUSH1 0x0 PUSH2 0x2FB0 PUSH1 0x2B DUP4 PUSH2 0x3B85 JUMP JUMPDEST SWAP2 POP PUSH32 0x496E76616C6964207369676E617475726573204F5220697346696E616C3D7472 PUSH1 0x0 DUP4 ADD MSTORE PUSH32 0x7565206578706563746564000000000000000000000000000000000000000000 PUSH1 0x20 DUP4 ADD MSTORE PUSH1 0x40 DUP3 ADD SWAP1 POP SWAP2 SWAP1 POP JUMP JUMPDEST PUSH1 0x0 PUSH2 0x3016 PUSH1 0x20 DUP4 PUSH2 0x3B85 JUMP JUMPDEST SWAP2 POP PUSH32 0x556E61636365707461626C652077686F5369676E656457686174206172726179 PUSH1 0x0 DUP4 ADD MSTORE PUSH1 0x20 DUP3 ADD SWAP1 POP SWAP2 SWAP1 POP JUMP JUMPDEST PUSH1 0x0 PUSH2 0x3056 PUSH1 0x27 DUP4 PUSH2 0x3B85 JUMP JUMPDEST SWAP2 POP PUSH32 0x526573706F6E7365206E6F74207369676E656420627920617574686F72697A65 PUSH1 0x0 DUP4 ADD MSTORE PUSH32 0x64206D6F76657200000000000000000000000000000000000000000000000000 PUSH1 0x20 DUP4 ADD MSTORE PUSH1 0x40 DUP3 ADD SWAP1 POP SWAP2 SWAP1 POP JUMP JUMPDEST PUSH1 0x0 PUSH2 0x30BC PUSH1 0x11 DUP4 PUSH2 0x3B85 JUMP JUMPDEST SWAP2 POP PUSH32 0x4368616E6E656C206E6F74206F70656E2E000000000000000000000000000000 PUSH1 0x0 DUP4 ADD MSTORE PUSH1 0x20 DUP3 ADD SWAP1 POP SWAP2 SWAP1 POP JUMP JUMPDEST PUSH1 0xA0 DUP3 ADD PUSH1 0x0 DUP3 ADD MLOAD PUSH2 0x3105 PUSH1 0x0 DUP6 ADD DUP3 PUSH2 0x332C JUMP JUMPDEST POP PUSH1 0x20 DUP3 ADD MLOAD PUSH2 0x3118 PUSH1 0x20 DUP6 ADD DUP3 PUSH2 0x332C JUMP JUMPDEST POP PUSH1 0x40 DUP3 ADD MLOAD PUSH2 0x312B PUSH1 0x40 DUP6 ADD DUP3 PUSH2 0x2970 JUMP JUMPDEST POP PUSH1 0x60 DUP3 ADD MLOAD PUSH2 0x313E PUSH1 0x60 DUP6 ADD DUP3 PUSH2 0x2747 JUMP JUMPDEST POP PUSH1 0x80 DUP3 ADD MLOAD PUSH2 0x3151 PUSH1 0x80 DUP6 ADD DUP3 PUSH2 0x2970 JUMP JUMPDEST POP POP POP POP JUMP JUMPDEST PUSH1 0x0 PUSH1 0xA0 DUP4 ADD PUSH1 0x0 DUP4 ADD MLOAD PUSH2 0x316F PUSH1 0x0 DUP7 ADD DUP3 PUSH2 0x330E JUMP JUMPDEST POP PUSH1 0x20 DUP4 ADD MLOAD DUP5 DUP3 SUB PUSH1 0x20 DUP7 ADD MSTORE PUSH2 0x3187 DUP3 DUP3 PUSH2 0x2765 JUMP JUMPDEST SWAP2 POP POP PUSH1 0x40 DUP4 ADD MLOAD PUSH2 0x319C PUSH1 0x40 DUP7 ADD DUP3 PUSH2 0x332C JUMP JUMPDEST POP PUSH1 0x60 DUP4 ADD MLOAD PUSH2 0x31AF PUSH1 0x60 DUP7 ADD DUP3 PUSH2 0x2747 JUMP JUMPDEST POP PUSH1 0x80 DUP4 ADD MLOAD PUSH2 0x31C2 PUSH1 0x80 DUP7 ADD DUP3 PUSH2 0x332C JUMP JUMPDEST POP DUP1 SWAP2 POP POP SWAP3 SWAP2 POP POP JUMP JUMPDEST PUSH1 0x60 DUP3 ADD PUSH1 0x0 DUP3 ADD MLOAD PUSH2 0x31E3 PUSH1 0x0 DUP6 ADD DUP3 PUSH2 0x334A JUMP JUMPDEST POP PUSH1 0x20 DUP3 ADD MLOAD PUSH2 0x31F6 PUSH1 0x20 DUP6 ADD DUP3 PUSH2 0x2970 JUMP JUMPDEST POP PUSH1 0x40 DUP3 ADD MLOAD PUSH2 0x3209 PUSH1 0x40 DUP6 ADD DUP3 PUSH2 0x2970 JUMP JUMPDEST POP POP POP POP JUMP JUMPDEST PUSH1 0xA0 DUP3 ADD PUSH1 0x0 DUP3 ADD MLOAD PUSH2 0x3225 PUSH1 0x0 DUP6 ADD DUP3 PUSH2 0x332C JUMP JUMPDEST POP PUSH1 0x20 DUP3 ADD MLOAD PUSH2 0x3238 PUSH1 0x20 DUP6 ADD DUP3 PUSH2 0x2952 JUMP JUMPDEST POP PUSH1 0x40 DUP3 ADD MLOAD PUSH2 0x324B PUSH1 0x40 DUP6 ADD DUP3 PUSH2 0x2970 JUMP JUMPDEST POP PUSH1 0x60 DUP3 ADD MLOAD PUSH2 0x325E PUSH1 0x60 DUP6 ADD DUP3 PUSH2 0x2970 JUMP JUMPDEST POP PUSH1 0x80 DUP3 ADD MLOAD PUSH2 0x3271 PUSH1 0x80 DUP6 ADD DUP3 PUSH2 0x2970 JUMP JUMPDEST POP POP POP POP JUMP JUMPDEST PUSH1 0x0 PUSH1 0x40 DUP4 ADD PUSH1 0x0 DUP4 ADD MLOAD DUP5 DUP3 SUB PUSH1 0x0 DUP7 ADD MSTORE PUSH2 0x3294 DUP3 DUP3 PUSH2 0x29DE JUMP JUMPDEST SWAP2 POP POP PUSH1 0x20 DUP4 ADD MLOAD DUP5 DUP3 SUB PUSH1 0x20 DUP7 ADD MSTORE PUSH2 0x32AE DUP3 DUP3 PUSH2 0x29DE JUMP JUMPDEST SWAP2 POP POP DUP1 SWAP2 POP POP SWAP3 SWAP2 POP POP JUMP JUMPDEST PUSH1 0x0 PUSH1 0x40 DUP4 ADD PUSH1 0x0 DUP4 ADD MLOAD DUP5 DUP3 SUB PUSH1 0x0 DUP7 ADD MSTORE PUSH2 0x32D8 DUP3 DUP3 PUSH2 0x29DE JUMP JUMPDEST SWAP2 POP POP PUSH1 0x20 DUP4 ADD MLOAD DUP5 DUP3 SUB PUSH1 0x20 DUP7 ADD MSTORE PUSH2 0x32F2 DUP3 DUP3 PUSH2 0x29DE JUMP JUMPDEST SWAP2 POP POP DUP1 SWAP2 POP POP SWAP3 SWAP2 POP POP JUMP JUMPDEST PUSH2 0x3308 DUP2 PUSH2 0x3BBE JUMP JUMPDEST DUP3 MSTORE POP POP JUMP JUMPDEST PUSH2 0x3317 DUP2 PUSH2 0x3BDE JUMP JUMPDEST DUP3 MSTORE POP POP JUMP JUMPDEST PUSH2 0x3326 DUP2 PUSH2 0x3BDE JUMP JUMPDEST DUP3 MSTORE POP POP JUMP JUMPDEST PUSH2 0x3335 DUP2 PUSH2 0x3BE8 JUMP JUMPDEST DUP3 MSTORE POP POP JUMP JUMPDEST PUSH2 0x3344 DUP2 PUSH2 0x3BE8 JUMP JUMPDEST DUP3 MSTORE POP POP JUMP JUMPDEST PUSH2 0x3353 DUP2 PUSH2 0x3BFA JUMP JUMPDEST DUP3 MSTORE POP POP JUMP JUMPDEST PUSH2 0x3362 DUP2 PUSH2 0x3BFA JUMP JUMPDEST DUP3 MSTORE POP POP JUMP JUMPDEST PUSH1 0x0 PUSH2 0x3374 DUP3 DUP5 PUSH2 0x2A50 JUMP JUMPDEST SWAP2 POP DUP2 SWAP1 POP SWAP3 SWAP2 POP POP JUMP JUMPDEST PUSH1 0x0 PUSH2 0x338B DUP3 DUP6 PUSH2 0x2A50 JUMP JUMPDEST SWAP2 POP PUSH2 0x3397 DUP3 DUP5 PUSH2 0x298E JUMP JUMPDEST PUSH1 0x20 DUP3 ADD SWAP2 POP DUP2 SWAP1 POP SWAP4 SWAP3 POP POP POP JUMP JUMPDEST PUSH1 0x0 PUSH1 0x20 DUP3 ADD SWAP1 POP PUSH2 0x33BC PUSH1 0x0 DUP4 ADD DUP5 PUSH2 0x2756 JUMP JUMPDEST SWAP3 SWAP2 POP POP JUMP JUMPDEST PUSH1 0x0 PUSH1 0x20 DUP3 ADD SWAP1 POP PUSH2 0x33D7 PUSH1 0x0 DUP4 ADD DUP5 PUSH2 0x2961 JUMP JUMPDEST SWAP3 SWAP2 POP POP JUMP JUMPDEST PUSH1 0x0 PUSH1 0x20 DUP3 ADD SWAP1 POP PUSH2 0x33F2 PUSH1 0x0 DUP4 ADD DUP5 PUSH2 0x297F JUMP JUMPDEST SWAP3 SWAP2 POP POP JUMP JUMPDEST PUSH1 0x0 PUSH1 0x40 DUP3 ADD SWAP1 POP PUSH2 0x340D PUSH1 0x0 DUP4 ADD DUP5 PUSH2 0x297F JUMP JUMPDEST DUP2 DUP2 SUB PUSH1 0x20 DUP4 ADD MSTORE PUSH2 0x341E DUP2 PUSH2 0x2DE5 JUMP JUMPDEST SWAP1 POP SWAP3 SWAP2 POP POP JUMP JUMPDEST PUSH1 0x0 PUSH1 0x80 DUP3 ADD SWAP1 POP PUSH2 0x343B PUSH1 0x0 DUP4 ADD DUP8 PUSH2 0x297F JUMP JUMPDEST PUSH2 0x3448 PUSH1 0x20 DUP4 ADD DUP7 PUSH2 0x3359 JUMP JUMPDEST PUSH2 0x3455 PUSH1 0x40 DUP4 ADD DUP6 PUSH2 0x297F JUMP JUMPDEST PUSH2 0x3462 PUSH1 0x60 DUP4 ADD DUP5 PUSH2 0x297F JUMP JUMPDEST SWAP6 SWAP5 POP POP POP POP POP JUMP JUMPDEST PUSH1 0x0 PUSH1 0x20 DUP3 ADD SWAP1 POP DUP2 DUP2 SUB PUSH1 0x0 DUP4 ADD MSTORE PUSH2 0x3485 DUP2 DUP5 PUSH2 0x2A17 JUMP JUMPDEST SWAP1 POP SWAP3 SWAP2 POP POP JUMP JUMPDEST PUSH1 0x0 PUSH1 0x20 DUP3 ADD SWAP1 POP DUP2 DUP2 SUB PUSH1 0x0 DUP4 ADD MSTORE PUSH2 0x34A7 DUP2 DUP5 PUSH2 0x29A5 JUMP JUMPDEST SWAP1 POP SWAP3 SWAP2 POP POP JUMP JUMPDEST PUSH1 0x0 PUSH1 0x20 DUP3 ADD SWAP1 POP DUP2 DUP2 SUB PUSH1 0x0 DUP4 ADD MSTORE PUSH2 0x34C8 DUP2 PUSH2 0x2A81 JUMP JUMPDEST SWAP1 POP SWAP2 SWAP1 POP JUMP JUMPDEST PUSH1 0x0 PUSH1 0x20 DUP3 ADD SWAP1 POP DUP2 DUP2 SUB PUSH1 0x0 DUP4 ADD MSTORE PUSH2 0x34E8 DUP2 PUSH2 0x2B0D JUMP JUMPDEST SWAP1 POP SWAP2 SWAP1 POP JUMP JUMPDEST PUSH1 0x0 PUSH1 0x20 DUP3 ADD SWAP1 POP DUP2 DUP2 SUB PUSH1 0x0 DUP4 ADD MSTORE PUSH2 0x3508 DUP2 PUSH2 0x2B4D JUMP JUMPDEST SWAP1 POP SWAP2 SWAP1 POP JUMP JUMPDEST PUSH1 0x0 PUSH1 0x20 DUP3 ADD SWAP1 POP DUP2 DUP2 SUB PUSH1 0x0 DUP4 ADD MSTORE PUSH2 0x3528 DUP2 PUSH2 0x2B8D JUMP JUMPDEST SWAP1 POP SWAP2 SWAP1 POP JUMP JUMPDEST PUSH1 0x0 PUSH1 0x20 DUP3 ADD SWAP1 POP DUP2 DUP2 SUB PUSH1 0x0 DUP4 ADD MSTORE PUSH2 0x3548 DUP2 PUSH2 0x2BCD JUMP JUMPDEST SWAP1 POP SWAP2 SWAP1 POP JUMP JUMPDEST PUSH1 0x0 PUSH1 0x20 DUP3 ADD SWAP1 POP DUP2 DUP2 SUB PUSH1 0x0 DUP4 ADD MSTORE PUSH2 0x3568 DUP2 PUSH2 0x2C0D JUMP JUMPDEST SWAP1 POP SWAP2 SWAP1 POP JUMP JUMPDEST PUSH1 0x0 PUSH1 0x20 DUP3 ADD SWAP1 POP DUP2 DUP2 SUB PUSH1 0x0 DUP4 ADD MSTORE PUSH2 0x3588 DUP2 PUSH2 0x2C4D JUMP JUMPDEST SWAP1 POP SWAP2 SWAP1 POP JUMP JUMPDEST PUSH1 0x0 PUSH1 0x20 DUP3 ADD SWAP1 POP DUP2 DUP2 SUB PUSH1 0x0 DUP4 ADD MSTORE PUSH2 0x35A8 DUP2 PUSH2 0x2C8D JUMP JUMPDEST SWAP1 POP SWAP2 SWAP1 POP JUMP JUMPDEST PUSH1 0x0 PUSH1 0x20 DUP3 ADD SWAP1 POP DUP2 DUP2 SUB PUSH1 0x0 DUP4 ADD MSTORE PUSH2 0x35C8 DUP2 PUSH2 0x2CCD JUMP JUMPDEST SWAP1 POP SWAP2 SWAP1 POP JUMP JUMPDEST PUSH1 0x0 PUSH1 0x20 DUP3 ADD SWAP1 POP DUP2 DUP2 SUB PUSH1 0x0 DUP4 ADD MSTORE PUSH2 0x35E8 DUP2 PUSH2 0x2D59 JUMP JUMPDEST SWAP1 POP SWAP2 SWAP1 POP JUMP JUMPDEST PUSH1 0x0 PUSH1 0x20 DUP3 ADD SWAP1 POP DUP2 DUP2 SUB PUSH1 0x0 DUP4 ADD MSTORE PUSH2 0x3608 DUP2 PUSH2 0x2E25 JUMP JUMPDEST SWAP1 POP SWAP2 SWAP1 POP JUMP JUMPDEST PUSH1 0x0 PUSH1 0x20 DUP3 ADD SWAP1 POP DUP2 DUP2 SUB PUSH1 0x0 DUP4 ADD MSTORE PUSH2 0x3628 DUP2 PUSH2 0x2EB1 JUMP JUMPDEST SWAP1 POP SWAP2 SWAP1 POP JUMP JUMPDEST PUSH1 0x0 PUSH1 0x20 DUP3 ADD SWAP1 POP DUP2 DUP2 SUB PUSH1 0x0 DUP4 ADD MSTORE PUSH2 0x3648 DUP2 PUSH2 0x2F3D JUMP JUMPDEST SWAP1 POP SWAP2 SWAP1 POP JUMP JUMPDEST PUSH1 0x0 PUSH1 0x20 DUP3 ADD SWAP1 POP DUP2 DUP2 SUB PUSH1 0x0 DUP4 ADD MSTORE PUSH2 0x3668 DUP2 PUSH2 0x2FA3 JUMP JUMPDEST SWAP1 POP SWAP2 SWAP1 POP JUMP JUMPDEST PUSH1 0x0 PUSH1 0x20 DUP3 ADD SWAP1 POP DUP2 DUP2 SUB PUSH1 0x0 DUP4 ADD MSTORE PUSH2 0x3688 DUP2 PUSH2 0x3009 JUMP JUMPDEST SWAP1 POP SWAP2 SWAP1 POP JUMP JUMPDEST PUSH1 0x0 PUSH1 0x20 DUP3 ADD SWAP1 POP DUP2 DUP2 SUB PUSH1 0x0 DUP4 ADD MSTORE PUSH2 0x36A8 DUP2 PUSH2 0x3049 JUMP JUMPDEST SWAP1 POP SWAP2 SWAP1 POP JUMP JUMPDEST PUSH1 0x0 PUSH1 0x20 DUP3 ADD SWAP1 POP DUP2 DUP2 SUB PUSH1 0x0 DUP4 ADD MSTORE PUSH2 0x36C8 DUP2 PUSH2 0x30AF JUMP JUMPDEST SWAP1 POP SWAP2 SWAP1 POP JUMP JUMPDEST PUSH1 0x0 PUSH1 0xA0 DUP3 ADD SWAP1 POP PUSH2 0x36E4 PUSH1 0x0 DUP4 ADD DUP5 PUSH2 0x30EF JUMP JUMPDEST SWAP3 SWAP2 POP POP JUMP JUMPDEST PUSH1 0x0 PUSH1 0xA0 DUP3 ADD SWAP1 POP PUSH2 0x36FF PUSH1 0x0 DUP4 ADD DUP5 PUSH2 0x320F JUMP JUMPDEST SWAP3 SWAP2 POP POP JUMP JUMPDEST PUSH1 0x0 PUSH1 0x80 DUP3 ADD SWAP1 POP DUP2 DUP2 SUB PUSH1 0x0 DUP4 ADD MSTORE PUSH2 0x371F DUP2 DUP8 PUSH2 0x32BB JUMP JUMPDEST SWAP1 POP DUP2 DUP2 SUB PUSH1 0x20 DUP4 ADD MSTORE PUSH2 0x3733 DUP2 DUP7 PUSH2 0x32BB JUMP JUMPDEST SWAP1 POP PUSH2 0x3742 PUSH1 0x40 DUP4 ADD DUP6 PUSH2 0x333B JUMP JUMPDEST PUSH2 0x374F PUSH1 0x60 DUP4 ADD DUP5 PUSH2 0x331D JUMP JUMPDEST SWAP6 SWAP5 POP POP POP POP POP JUMP JUMPDEST PUSH1 0x0 PUSH1 0x60 DUP3 ADD SWAP1 POP PUSH2 0x376D PUSH1 0x0 DUP4 ADD DUP7 PUSH2 0x331D JUMP JUMPDEST DUP2 DUP2 SUB PUSH1 0x20 DUP4 ADD MSTORE PUSH2 0x377F DUP2 DUP6 PUSH2 0x27C3 JUMP JUMPDEST SWAP1 POP PUSH2 0x378E PUSH1 0x40 DUP4 ADD DUP5 PUSH2 0x333B JUMP JUMPDEST SWAP5 SWAP4 POP POP POP POP JUMP JUMPDEST PUSH1 0x0 PUSH1 0x20 DUP3 ADD SWAP1 POP PUSH2 0x37AB PUSH1 0x0 DUP4 ADD DUP5 PUSH2 0x333B JUMP JUMPDEST SWAP3 SWAP2 POP POP JUMP JUMPDEST PUSH1 0x0 PUSH1 0x60 DUP3 ADD SWAP1 POP PUSH2 0x37C6 PUSH1 0x0 DUP4 ADD DUP7 PUSH2 0x333B JUMP JUMPDEST PUSH2 0x37D3 PUSH1 0x20 DUP4 ADD DUP6 PUSH2 0x2756 JUMP JUMPDEST DUP2 DUP2 SUB PUSH1 0x40 DUP4 ADD MSTORE PUSH2 0x37E5 DUP2 DUP5 PUSH2 0x29A5 JUMP JUMPDEST SWAP1 POP SWAP5 SWAP4 POP POP POP POP JUMP JUMPDEST PUSH1 0x0 PUSH2 0x100 DUP3 ADD SWAP1 POP PUSH2 0x3805 PUSH1 0x0 DUP4 ADD DUP12 PUSH2 0x333B JUMP JUMPDEST PUSH2 0x3812 PUSH1 0x20 DUP4 ADD DUP11 PUSH2 0x333B JUMP JUMPDEST PUSH2 0x381F PUSH1 0x40 DUP4 ADD DUP10 PUSH2 0x2756 JUMP JUMPDEST PUSH2 0x382C PUSH1 0x60 DUP4 ADD DUP9 PUSH2 0x2961 JUMP JUMPDEST DUP2 DUP2 SUB PUSH1 0x80 DUP4 ADD MSTORE PUSH2 0x383E DUP2 DUP8 PUSH2 0x3157 JUMP JUMPDEST SWAP1 POP DUP2 DUP2 SUB PUSH1 0xA0 DUP4 ADD MSTORE PUSH2 0x3852 DUP2 DUP7 PUSH2 0x287F JUMP JUMPDEST SWAP1 POP DUP2 DUP2 SUB PUSH1 0xC0 DUP4 ADD MSTORE PUSH2 0x3866 DUP2 DUP6 PUSH2 0x2821 JUMP JUMPDEST SWAP1 POP DUP2 DUP2 SUB PUSH1 0xE0 DUP4 ADD MSTORE PUSH2 0x387A DUP2 DUP5 PUSH2 0x28F4 JUMP JUMPDEST SWAP1 POP SWAP10 SWAP9 POP POP POP POP POP POP POP POP POP JUMP JUMPDEST PUSH1 0x0 PUSH1 0x60 DUP3 ADD SWAP1 POP PUSH2 0x389E PUSH1 0x0 DUP4 ADD DUP7 PUSH2 0x333B JUMP JUMPDEST PUSH2 0x38AB PUSH1 0x20 DUP4 ADD DUP6 PUSH2 0x333B JUMP JUMPDEST PUSH2 0x38B8 PUSH1 0x40 DUP4 ADD DUP5 PUSH2 0x32FF JUMP JUMPDEST SWAP5 SWAP4 POP POP POP POP JUMP JUMPDEST PUSH1 0x0 PUSH1 0x40 MLOAD SWAP1 POP DUP2 DUP2 ADD DUP2 DUP2 LT PUSH8 0xFFFFFFFFFFFFFFFF DUP3 GT OR ISZERO PUSH2 0x38E3 JUMPI PUSH1 0x0 DUP1 REVERT JUMPDEST DUP1 PUSH1 0x40 MSTORE POP SWAP2 SWAP1 POP JUMP JUMPDEST PUSH1 0x0 PUSH8 0xFFFFFFFFFFFFFFFF DUP3 GT ISZERO PUSH2 0x3904 JUMPI PUSH1 0x0 DUP1 REVERT JUMPDEST PUSH1 0x20 DUP3 MUL SWAP1 POP PUSH1 0x20 DUP2 ADD SWAP1 POP SWAP2 SWAP1 POP JUMP JUMPDEST PUSH1 0x0 PUSH8 0xFFFFFFFFFFFFFFFF DUP3 GT ISZERO PUSH2 0x392C JUMPI PUSH1 0x0 DUP1 REVERT JUMPDEST PUSH1 0x20 DUP3 MUL SWAP1 POP PUSH1 0x20 DUP2 ADD SWAP1 POP SWAP2 SWAP1 POP JUMP JUMPDEST PUSH1 0x0 PUSH8 0xFFFFFFFFFFFFFFFF DUP3 GT ISZERO PUSH2 0x3954 JUMPI PUSH1 0x0 DUP1 REVERT JUMPDEST PUSH1 0x20 DUP3 MUL SWAP1 POP SWAP2 SWAP1 POP JUMP JUMPDEST PUSH1 0x0 PUSH8 0xFFFFFFFFFFFFFFFF DUP3 GT ISZERO PUSH2 0x3976 JUMPI PUSH1 0x0 DUP1 REVERT JUMPDEST PUSH1 0x20 DUP3 MUL SWAP1 POP PUSH1 0x20 DUP2 ADD SWAP1 POP SWAP2 SWAP1 POP JUMP JUMPDEST PUSH1 0x0 PUSH8 0xFFFFFFFFFFFFFFFF DUP3 GT ISZERO PUSH2 0x399E JUMPI PUSH1 0x0 DUP1 REVERT JUMPDEST PUSH1 0x20 DUP3 MUL SWAP1 POP PUSH1 0x20 DUP2 ADD SWAP1 POP SWAP2 SWAP1 POP JUMP JUMPDEST PUSH1 0x0 PUSH8 0xFFFFFFFFFFFFFFFF DUP3 GT ISZERO PUSH2 0x39C6 JUMPI PUSH1 0x0 DUP1 REVERT JUMPDEST PUSH1 0x20 DUP3 MUL SWAP1 POP SWAP2 SWAP1 POP JUMP JUMPDEST PUSH1 0x0 PUSH8 0xFFFFFFFFFFFFFFFF DUP3 GT ISZERO PUSH2 0x39E8 JUMPI PUSH1 0x0 DUP1 REVERT JUMPDEST PUSH1 0x20 DUP3 MUL SWAP1 POP PUSH1 0x20 DUP2 ADD SWAP1 POP SWAP2 SWAP1 POP JUMP JUMPDEST PUSH1 0x0 PUSH8 0xFFFFFFFFFFFFFFFF DUP3 GT ISZERO PUSH2 0x3A10 JUMPI PUSH1 0x0 DUP1 REVERT JUMPDEST PUSH1 0x20 DUP3 MUL SWAP1 POP PUSH1 0x20 DUP2 ADD SWAP1 POP SWAP2 SWAP1 POP JUMP JUMPDEST PUSH1 0x0 PUSH8 0xFFFFFFFFFFFFFFFF DUP3 GT ISZERO PUSH2 0x3A38 JUMPI PUSH1 0x0 DUP1 REVERT JUMPDEST PUSH1 0x1F NOT PUSH1 0x1F DUP4 ADD AND SWAP1 POP PUSH1 0x20 DUP2 ADD SWAP1 POP SWAP2 SWAP1 POP JUMP JUMPDEST PUSH1 0x0 DUP2 SWAP1 POP PUSH1 0x20 DUP3 ADD SWAP1 POP SWAP2 SWAP1 POP JUMP JUMPDEST PUSH1 0x0 DUP2 SWAP1 POP PUSH1 0x20 DUP3 ADD SWAP1 POP SWAP2 SWAP1 POP JUMP JUMPDEST PUSH1 0x0 DUP2 SWAP1 POP PUSH1 0x20 DUP3 ADD SWAP1 POP SWAP2 SWAP1 POP JUMP JUMPDEST PUSH1 0x0 DUP2 SWAP1 POP PUSH1 0x20 DUP3 ADD SWAP1 POP SWAP2 SWAP1 POP JUMP JUMPDEST PUSH1 0x0 DUP2 MLOAD SWAP1 POP SWAP2 SWAP1 POP JUMP JUMPDEST PUSH1 0x0 DUP2 MLOAD SWAP1 POP SWAP2 SWAP1 POP JUMP JUMPDEST PUSH1 0x0 DUP2 MLOAD SWAP1 POP SWAP2 SWAP1 POP JUMP JUMPDEST PUSH1 0x0 DUP2 MLOAD SWAP1 POP SWAP2 SWAP1 POP JUMP JUMPDEST PUSH1 0x0 DUP2 MLOAD SWAP1 POP SWAP2 SWAP1 POP JUMP JUMPDEST PUSH1 0x0 DUP2 MLOAD SWAP1 POP SWAP2 SWAP1 POP JUMP JUMPDEST PUSH1 0x0 PUSH1 0x20 DUP3 ADD SWAP1 POP SWAP2 SWAP1 POP JUMP JUMPDEST PUSH1 0x0 PUSH1 0x20 DUP3 ADD SWAP1 POP SWAP2 SWAP1 POP JUMP JUMPDEST PUSH1 0x0 PUSH1 0x20 DUP3 ADD SWAP1 POP SWAP2 SWAP1 POP JUMP JUMPDEST PUSH1 0x0 PUSH1 0x20 DUP3 ADD SWAP1 POP SWAP2 SWAP1 POP JUMP JUMPDEST PUSH1 0x0 DUP3 DUP3 MSTORE PUSH1 0x20 DUP3 ADD SWAP1 POP SWAP3 SWAP2 POP POP JUMP JUMPDEST PUSH1 0x0 DUP3 DUP3 MSTORE PUSH1 0x20 DUP3 ADD SWAP1 POP SWAP3 SWAP2 POP POP JUMP JUMPDEST PUSH1 0x0 DUP3 DUP3 MSTORE PUSH1 0x20 DUP3 ADD SWAP1 POP SWAP3 SWAP2 POP POP JUMP JUMPDEST PUSH1 0x0 DUP3 DUP3 MSTORE PUSH1 0x20 DUP3 ADD SWAP1 POP SWAP3 SWAP2 POP POP JUMP JUMPDEST PUSH1 0x0 DUP3 DUP3 MSTORE PUSH1 0x20 DUP3 ADD SWAP1 POP SWAP3 SWAP2 POP POP JUMP JUMPDEST PUSH1 0x0 DUP3 DUP3 MSTORE PUSH1 0x20 DUP3 ADD SWAP1 POP SWAP3 SWAP2 POP POP JUMP JUMPDEST PUSH1 0x0 DUP3 DUP3 MSTORE PUSH1 0x20 DUP3 ADD SWAP1 POP SWAP3 SWAP2 POP POP JUMP JUMPDEST PUSH1 0x0 DUP2 SWAP1 POP SWAP3 SWAP2 POP POP JUMP JUMPDEST PUSH1 0x0 DUP3 DUP3 MSTORE PUSH1 0x20 DUP3 ADD SWAP1 POP SWAP3 SWAP2 POP POP JUMP JUMPDEST PUSH1 0x0 PUSH2 0x3BA1 DUP3 PUSH2 0x3BBE JUMP JUMPDEST SWAP1 POP SWAP2 SWAP1 POP JUMP JUMPDEST PUSH1 0x0 DUP2 ISZERO ISZERO SWAP1 POP SWAP2 SWAP1 POP JUMP JUMPDEST PUSH1 0x0 DUP2 SWAP1 POP SWAP2 SWAP1 POP JUMP JUMPDEST PUSH1 0x0 PUSH20 0xFFFFFFFFFFFFFFFFFFFFFFFFFFFFFFFFFFFFFFFF DUP3 AND SWAP1 POP SWAP2 SWAP1 POP JUMP JUMPDEST PUSH1 0x0 DUP2 SWAP1 POP SWAP2 SWAP1 POP JUMP JUMPDEST PUSH1 0x0 PUSH6 0xFFFFFFFFFFFF DUP3 AND SWAP1 POP SWAP2 SWAP1 POP JUMP JUMPDEST PUSH1 0x0 PUSH1 0xFF DUP3 AND SWAP1 POP SWAP2 SWAP1 POP JUMP JUMPDEST DUP3 DUP2 DUP4 CALLDATACOPY PUSH1 0x0 DUP4 DUP4 ADD MSTORE POP POP POP JUMP JUMPDEST PUSH1 0x0 JUMPDEST DUP4 DUP2 LT ISZERO PUSH2 0x3C34 JUMPI DUP1 DUP3 ADD MLOAD DUP2 DUP5 ADD MSTORE PUSH1 0x20 DUP2 ADD SWAP1 POP PUSH2 0x3C19 JUMP JUMPDEST DUP4 DUP2 GT ISZERO PUSH2 0x3C43 JUMPI PUSH1 0x0 DUP5 DUP5 ADD MSTORE JUMPDEST POP POP POP POP JUMP JUMPDEST PUSH1 0x0 DUP2 SWAP1 POP SWAP2 SWAP1 POP JUMP JUMPDEST PUSH1 0x0 PUSH1 0x1F NOT PUSH1 0x1F DUP4 ADD AND SWAP1 POP SWAP2 SWAP1 POP JUMP JUMPDEST PUSH2 0x3C6D DUP2 PUSH2 0x3B96 JUMP JUMPDEST DUP2 EQ PUSH2 0x3C78 JUMPI PUSH1 0x0 DUP1 REVERT JUMPDEST POP JUMP JUMPDEST PUSH2 0x3C84 DUP2 PUSH2 0x3BA8 JUMP JUMPDEST DUP2 EQ PUSH2 0x3C8F JUMPI PUSH1 0x0 DUP1 REVERT JUMPDEST POP JUMP JUMPDEST PUSH2 0x3C9B DUP2 PUSH2 0x3BB4 JUMP JUMPDEST DUP2 EQ PUSH2 0x3CA6 JUMPI PUSH1 0x0 DUP1 REVERT JUMPDEST POP JUMP JUMPDEST PUSH2 0x3CB2 DUP2 PUSH2 0x3BDE JUMP JUMPDEST DUP2 EQ PUSH2 0x3CBD JUMPI PUSH1 0x0 DUP1 REVERT JUMPDEST POP JUMP JUMPDEST PUSH2 0x3CC9 DUP2 PUSH2 0x3BE8 JUMP JUMPDEST DUP2 EQ PUSH2 0x3CD4 JUMPI PUSH1 0x0 DUP1 REVERT JUMPDEST POP JUMP JUMPDEST PUSH2 0x3CE0 DUP2 PUSH2 0x3BFA JUMP JUMPDEST DUP2 EQ PUSH2 0x3CEB JUMPI PUSH1 0x0 DUP1 REVERT JUMPDEST POP JUMP INVALID LOG2 PUSH5 0x6970667358 0x22 SLT KECCAK256 0xCA 0x49 REVERT 0xB6 CODESIZE 0xB3 0xA8 BYTE SLT 0x23 SWAP12 0xBF SWAP8 SLOAD JUMPDEST SSTORE 0x4A 0xAB DUP9 0xE7 0xCB 0x2C LOG2 SHR ADDMOD SWAP10 0x5F DUP13 0xAA SHL 0xCA SWAP2 PUSH5 0x736F6C6343 STOP MOD MUL STOP CALLER "
    }
  },
  "sourcePath": "contracts/test/TESTForceMove.sol",
  "contractName": "TESTForceMove",
  "compiler": {
    "version": "unknown"
  }
}