{
  "abi": [
    {
      "inputs": [
        {
          "internalType": "address",
          "name": "_AdjudicatorAddress",
          "type": "address"
        }
      ],
      "stateMutability": "nonpayable",
      "type": "constructor"
    },
    {
      "anonymous": false,
      "inputs": [
        {
          "indexed": true,
          "internalType": "bytes32",
          "name": "channelId",
          "type": "bytes32"
        },
        {
          "indexed": true,
          "internalType": "bytes32",
          "name": "destination",
          "type": "bytes32"
        },
        {
          "indexed": false,
          "internalType": "uint256",
          "name": "amount",
          "type": "uint256"
        }
      ],
      "name": "AssetTransferred",
      "type": "event"
    },
    {
      "anonymous": false,
      "inputs": [
        {
          "indexed": true,
          "internalType": "bytes32",
          "name": "destination",
          "type": "bytes32"
        },
        {
          "indexed": false,
          "internalType": "uint256",
          "name": "amountDeposited",
          "type": "uint256"
        },
        {
          "indexed": false,
          "internalType": "uint256",
          "name": "destinationHoldings",
          "type": "uint256"
        }
      ],
      "name": "Deposited",
      "type": "event"
    },
    {
      "inputs": [
        {
          "internalType": "address",
          "name": "participant",
          "type": "address"
        }
      ],
      "name": "addressToBytes32",
      "outputs": [
        {
          "internalType": "bytes32",
          "name": "",
          "type": "bytes32"
        }
      ],
      "stateMutability": "pure",
      "type": "function"
    },
    {
      "inputs": [
        {
          "internalType": "bytes32",
          "name": "",
          "type": "bytes32"
        }
      ],
      "name": "assetOutcomeHashes",
      "outputs": [
        {
          "internalType": "bytes32",
          "name": "",
          "type": "bytes32"
        }
      ],
      "stateMutability": "view",
      "type": "function"
    },
    {
      "inputs": [
        {
          "internalType": "bytes32",
          "name": "guarantorChannelId",
          "type": "bytes32"
        },
        {
          "internalType": "bytes",
          "name": "guaranteeBytes",
          "type": "bytes"
        },
        {
          "internalType": "bytes",
          "name": "allocationBytes",
          "type": "bytes"
        }
      ],
      "name": "claimAll",
      "outputs": [],
      "stateMutability": "nonpayable",
      "type": "function"
    },
    {
      "inputs": [],
      "name": "dummy",
      "outputs": [
        {
          "internalType": "bool",
          "name": "",
          "type": "bool"
        }
      ],
      "stateMutability": "view",
      "type": "function"
    },
    {
      "inputs": [
        {
          "internalType": "bytes32",
          "name": "",
          "type": "bytes32"
        }
      ],
      "name": "holdings",
      "outputs": [
        {
          "internalType": "uint256",
          "name": "",
          "type": "uint256"
        }
      ],
      "stateMutability": "view",
      "type": "function"
    },
    {
      "inputs": [
        {
          "internalType": "bytes32",
          "name": "destination",
          "type": "bytes32"
        }
      ],
      "name": "isExternalDestination",
      "outputs": [
        {
          "internalType": "bool",
          "name": "",
          "type": "bool"
        }
      ],
      "stateMutability": "pure",
      "type": "function"
    },
    {
      "inputs": [
        {
          "internalType": "bytes32",
          "name": "channelId",
          "type": "bytes32"
        },
        {
          "internalType": "bytes32",
          "name": "assetOutcomeHash",
          "type": "bytes32"
        }
      ],
      "name": "setAssetOutcomeHash",
      "outputs": [
        {
          "internalType": "bool",
          "name": "success",
          "type": "bool"
        }
      ],
      "stateMutability": "nonpayable",
      "type": "function"
    },
    {
      "inputs": [
        {
          "internalType": "bytes32",
          "name": "channelId",
          "type": "bytes32"
        },
        {
          "internalType": "bytes32",
          "name": "assetOutcomeHash",
          "type": "bytes32"
        }
      ],
      "name": "setAssetOutcomeHashPermissionless",
      "outputs": [
        {
          "internalType": "bool",
          "name": "success",
          "type": "bool"
        }
      ],
      "stateMutability": "nonpayable",
      "type": "function"
    },
    {
      "inputs": [
        {
          "internalType": "bytes32",
          "name": "channelId",
          "type": "bytes32"
        },
        {
          "internalType": "uint256",
          "name": "amount",
          "type": "uint256"
        }
      ],
      "name": "setHoldings",
      "outputs": [],
      "stateMutability": "nonpayable",
      "type": "function"
    },
    {
      "inputs": [
        {
          "internalType": "bytes32",
          "name": "channelId",
          "type": "bytes32"
        },
        {
          "internalType": "bytes",
          "name": "allocationBytes",
          "type": "bytes"
        }
      ],
      "name": "transferAll",
      "outputs": [],
      "stateMutability": "nonpayable",
      "type": "function"
    },
    {
      "inputs": [
        {
          "internalType": "bytes32",
          "name": "channelId",
          "type": "bytes32"
        },
        {
          "internalType": "bytes",
          "name": "allocationBytes",
          "type": "bytes"
        }
      ],
      "name": "transferAllAdjudicatorOnly",
      "outputs": [],
      "stateMutability": "nonpayable",
      "type": "function"
    }
  ],
  "evm": {
    "bytecode": {
      "linkReferences": {},
      "object": "60806040523480156200001157600080fd5b5060405162001e8238038062001e82833981810160405262000037919081019062000097565b80806000806101000a81548173ffffffffffffffffffffffffffffffffffffffff021916908373ffffffffffffffffffffffffffffffffffffffff160217905550505062000111565b6000815190506200009181620000f7565b92915050565b600060208284031215620000aa57600080fd5b6000620000ba8482850162000080565b91505092915050565b6000620000d082620000d7565b9050919050565b600073ffffffffffffffffffffffffffffffffffffffff82169050919050565b6200010281620000c3565b81146200010e57600080fd5b50565b611d6180620001216000396000f3fe608060405234801561001057600080fd5b50600436106100a95760003560e01c8063a3c863a311610071578063a3c863a314610150578063ae9ee18c14610180578063c2f5bec6146101b0578063ef83b3c8146101e0578063f1c9caf214610210578063ff8609761461022c576100a9565b8063022cbbe8146100ae5780632e36b7f8146100ca57806332e43a11146100e65780636ff56c541461010457806382c947b714610120575b600080fd5b6100c860048036036100c39190810190611423565b61025c565b005b6100e460048036036100df919081019061147b565b6102af565b005b6100ee61035b565b6040516100fb91906119e5565b60405180910390f35b61011e6004803603610119919081019061154e565b61036e565b005b61013a60048036036101359190810190611354565b61038a565b6040516101479190611a00565b60405180910390f35b61016a600480360361016591908101906113e7565b61039c565b60405161017791906119e5565b60405180910390f35b61019a600480360361019591908101906113be565b610441565b6040516101a79190611aff565b60405180910390f35b6101ca60048036036101c591908101906113be565b610459565b6040516101d791906119e5565b60405180910390f35b6101fa60048036036101f591908101906113e7565b61046b565b60405161020791906119e5565b60405180910390f35b61022a600480360361022591908101906114cf565b610481565b005b610246600480360361024191908101906113be565b610b50565b6040516102539190611a00565b60405180910390f35b6102aa8383838080601f016020809104026020016040519081016040528093929190818152602001838380828437600081840152601f19601f82011690508083019250505050505050610b68565b505050565b6040518060400160405280600060018111156102c757fe5b60ff168152602001828152506040516020016102e39190611add565b6040516020818303038152906040528051906020012060026000848152602001908152602001600020541461034d576040517f08c379a000000000000000000000000000000000000000000000000000000000815260040161034490611a3d565b60405180910390fd5b6103578282610b68565b5050565b600360009054906101000a900460ff1681565b8060016000848152602001908152602001600020819055505050565b600061039582610ef3565b9050919050565b60008060009054906101000a900473ffffffffffffffffffffffffffffffffffffffff1673ffffffffffffffffffffffffffffffffffffffff163373ffffffffffffffffffffffffffffffffffffffff161461042d576040517f08c379a000000000000000000000000000000000000000000000000000000000815260040161042490611abd565b60405180910390fd5b6104378383610f16565b6001905092915050565b60016020528060005260406000206000915090505481565b600061046482610f8a565b9050919050565b60006104778383610f16565b6001905092915050565b604051806040016040528060018081111561049857fe5b60ff168152602001838152506040516020016104b49190611add565b6040516020818303038152906040528051906020012060026000858152602001908152602001600020541461051e576040517f08c379a000000000000000000000000000000000000000000000000000000000815260040161051590611a9d565b60405180910390fd5b61052661105d565b8280602001905161053a919081019061158a565b905060405180604001604052806000600181111561055457fe5b60ff168152602001838152506040516020016105709190611add565b60405160208183030381529060405280519060200120600260008360000151815260200190815260200160002054146105de576040517f08c379a00000000000000000000000000000000000000000000000000000000081526004016105d590611a5d565b60405180910390fd5b60006001600086815260200190815260200160002054905060608380602001905161060c919081019061137d565b9050606081516040519080825280602002602001820160405280156106405781602001602082028038833980820191505090505b50905060008251905060008090505b8560200151518110156107975760008660200151828151811061066e57fe5b6020026020010151905060008090505b855181101561078857600087141561069557610788565b8581815181106106a157fe5b60200260200101516000015182141561077b5760008682815181106106c257fe5b602002602001015160200151905060008111156107795780881061073157808803975060008783815181106106f357fe5b602002602001015160200181815250508480600190039550508086838151811061071957fe5b60200260200101818151019150818152505050610788565b87810387838151811061074057fe5b602002602001015160200181815250508786838151811061075d57fe5b6020026020010181815101915081815250506000975050610788565b505b808060010191505061067e565b5050808060010191505061064f565b5060008090505b83518110156108835760008514156107b557610883565b60008482815181106107c357fe5b602002602001015160200151905060008111156108755780861061083157808603955060008583815181106107f457fe5b602002602001015160200181815250508280600190039350508084838151811061081a57fe5b602002602001018181510191508181525050610874565b85810385838151811061084057fe5b602002602001015160200181815250508584838151811061085d57fe5b602002602001018181510191508181525050600095505b5b50808060010191505061079e565b5083600160008a815260200190815260200160002081905550606060008211156108e557816040519080825280602002602001820160405280156108e157816020015b6108ce61107a565b8152602001906001900390816108c65790505b5090505b600080905060008090505b8551811015610a8c57600086828151811061090757fe5b602002602001015160200151111561094d5785818151811061092557fe5b602002602001015183838151811061093957fe5b602002602001018190525081806001019250505b600085828151811061095b57fe5b60200260200101511115610a7f5761098986828151811061097857fe5b602002602001015160000151610f8a565b15610a32576109ca6109b18783815181106109a057fe5b602002602001015160000151610fa7565b8683815181106109bd57fe5b6020026020010151610fb4565b8581815181106109d657fe5b6020026020010151600001518b7f1f6b1af341c61650d8ef5dd2094a77e44ce0568e1acb98baa6007033de9009b7878481518110610a1057fe5b6020026020010151604051610a259190611aff565b60405180910390a3610a7e565b848181518110610a3e57fe5b602002602001015160016000888481518110610a5657fe5b6020026020010151600001518152602001908152602001600020600082825401925050819055505b5b80806001019150506108f0565b50828114610a9657fe5b6000831115610b2857604051806040016040528060006001811115610ab757fe5b60ff16815260200183604051602001610ad091906119c3565b604051602081830303815290604052815250604051602001610af29190611add565b60405160208183030381529060405280519060200120600260008960000151815260200190815260200160002081905550610b44565b6002600088600001518152602001908152602001600020600090555b50505050505050505050565b60026020528060005260406000206000915090505481565b606081806020019051610b7e919081019061137d565b9050600060016000858152602001908152602001600020549050600080905060008351905060008060008060008090505b8851811015610c3a576000881415610bc657610c2d565b888181518110610bd257fe5b602002602001015160200151945084881015610c0557868060010197505060019350879250878503915060009750610c2c565b8680600101975050858060019003965050610c298589610fb890919063ffffffff16565b97505b5b8080600101915050610baf565b5086600160008c8152602001908152602001600020819055506000851115610d9d57606085604051908082528060200260200182016040528015610c9857816020015b610c8561107a565b815260200190600190039081610c7d5790505b50905060008090505b86811015610d16578981888c51030181518110610cba57fe5b6020026020010151828281518110610cce57fe5b6020026020010181905250848015610ce65750600081145b15610d095782828281518110610cf857fe5b602002602001015160200181815250505b8080600101915050610ca1565b50604051806040016040528060006001811115610d2f57fe5b60ff16815260200182604051602001610d4891906119c3565b604051602081830303815290604052815250604051602001610d6a9190611add565b60405160208183030381529060405280519060200120600260008d81526020019081526020016000208190555050610db5565b600260008b8152602001908152602001600020600090555b600080600090505b87811015610ee557848015610dd457506001880381145b15610de157839150610dfc565b898181518110610ded57fe5b60200260200101516020015191505b610e1c8a8281518110610e0b57fe5b602002602001015160000151610f8a565b15610e9f57610e4a610e448b8381518110610e3357fe5b602002602001015160000151610fa7565b83610fb4565b898181518110610e5657fe5b6020026020010151600001518c7f1f6b1af341c61650d8ef5dd2094a77e44ce0568e1acb98baa6007033de9009b784604051610e929190611aff565b60405180910390a3610ed8565b81600160008c8481518110610eb057fe5b6020026020010151600001518152602001908152602001600020600082825401925050819055505b8080600101915050610dbd565b505050505050505050505050565b60008173ffffffffffffffffffffffffffffffffffffffff1660001b9050919050565b6000801b600260008481526020019081526020016000205414610f6e576040517f08c379a0000000000000000000000000000000000000000000000000000000008152600401610f6590611a7d565b60405180910390fd5b8060026000848152602001908152602001600020819055505050565b6000808260a01c6bffffffffffffffffffffffff16149050919050565b60008160001c9050919050565b5050565b6000610ffa83836040518060400160405280601e81526020017f536166654d6174683a207375627472616374696f6e206f766572666c6f770000815250611002565b905092915050565b600083831115829061104a576040517f08c379a00000000000000000000000000000000000000000000000000000000081526004016110419190611a1b565b60405180910390fd5b5060008385039050809150509392505050565b604051806040016040528060008019168152602001606081525090565b604051806040016040528060008019168152602001600081525090565b6000813590506110a681611ce6565b92915050565b600082601f8301126110bd57600080fd5b81516110d06110cb82611b47565b611b1a565b915081818352602084019350602081019050838560208402820111156110f557600080fd5b60005b83811015611125578161110b88826111c7565b8452602084019350602083019250506001810190506110f8565b5050505092915050565b600082601f83011261114057600080fd5b815161115361114e82611b6f565b611b1a565b9150818183526020840193506020810190508385604084028201111561117857600080fd5b60005b838110156111a8578161118e888261127a565b84526020840193506040830192505060018101905061117b565b5050505092915050565b6000813590506111c181611cfd565b92915050565b6000815190506111d681611cfd565b92915050565b60008083601f8401126111ee57600080fd5b8235905067ffffffffffffffff81111561120757600080fd5b60208301915083600182028301111561121f57600080fd5b9250929050565b600082601f83011261123757600080fd5b813561124a61124582611b97565b611b1a565b9150808252602083016020830185838301111561126657600080fd5b611271838284611c93565b50505092915050565b60006040828403121561128c57600080fd5b6112966040611b1a565b905060006112a6848285016111c7565b60008301525060206112ba8482850161133f565b60208301525092915050565b6000604082840312156112d857600080fd5b6112e26040611b1a565b905060006112f2848285016111c7565b600083015250602082015167ffffffffffffffff81111561131257600080fd5b61131e848285016110ac565b60208301525092915050565b60008135905061133981611d14565b92915050565b60008151905061134e81611d14565b92915050565b60006020828403121561136657600080fd5b600061137484828501611097565b91505092915050565b60006020828403121561138f57600080fd5b600082015167ffffffffffffffff8111156113a957600080fd5b6113b58482850161112f565b91505092915050565b6000602082840312156113d057600080fd5b60006113de848285016111b2565b91505092915050565b600080604083850312156113fa57600080fd5b6000611408858286016111b2565b9250506020611419858286016111b2565b9150509250929050565b60008060006040848603121561143857600080fd5b6000611446868287016111b2565b935050602084013567ffffffffffffffff81111561146357600080fd5b61146f868287016111dc565b92509250509250925092565b6000806040838503121561148e57600080fd5b600061149c858286016111b2565b925050602083013567ffffffffffffffff8111156114b957600080fd5b6114c585828601611226565b9150509250929050565b6000806000606084860312156114e457600080fd5b60006114f2868287016111b2565b935050602084013567ffffffffffffffff81111561150f57600080fd5b61151b86828701611226565b925050604084013567ffffffffffffffff81111561153857600080fd5b61154486828701611226565b9150509250925092565b6000806040838503121561156157600080fd5b600061156f858286016111b2565b92505060206115808582860161132a565b9150509250929050565b60006020828403121561159c57600080fd5b600082015167ffffffffffffffff8111156115b657600080fd5b6115c2848285016112c6565b91505092915050565b60006115d7838361192a565b60408301905092915050565b60006115ee82611bd3565b6115f88185611c01565b935061160383611bc3565b8060005b8381101561163457815161161b88826115cb565b975061162683611bf4565b925050600181019050611607565b5085935050505092915050565b61164a81611c46565b82525050565b61165981611c52565b82525050565b61166881611c52565b82525050565b600061167982611bde565b6116838185611c12565b9350611693818560208601611ca2565b61169c81611cd5565b840191505092915050565b60006116b282611be9565b6116bc8185611c23565b93506116cc818560208601611ca2565b6116d581611cd5565b840191505092915050565b60006116ed604383611c23565b91507f7472616e73666572416c6c207c207375626d6974746564206461746120646f6560008301527f73206e6f74206d617463682073746f7265642061737365744f7574636f6d654860208301527f61736800000000000000000000000000000000000000000000000000000000006040830152606082019050919050565b6000611779605883611c23565b91507f636c61696d416c6c207c207375626d6974746564206461746120646f6573206e60008301527f6f74206d617463682061737365744f7574636f6d65486173682073746f72656460208301527f20616761696e7374207461726765744368616e6e656c496400000000000000006040830152606082019050919050565b6000611805601b83611c23565b91507f4f7574636f6d65206861736820616c72656164792065786973747300000000006000830152602082019050919050565b6000611845605b83611c23565b91507f636c61696d416c6c207c207375626d6974746564206461746120646f6573206e60008301527f6f74206d617463682061737365744f7574636f6d65486173682073746f72656460208301527f20616761696e73742067756172616e746f724368616e6e656c496400000000006040830152606082019050919050565b60006118d1602783611c23565b91507f4f6e6c7920746865204e6974726f41646a7564696361746f722069732061757460008301527f686f72697a6564000000000000000000000000000000000000000000000000006020830152604082019050919050565b6040820160008201516119406000850182611650565b5060208201516119536020850182611996565b50505050565b600060408301600083015161197160008601826119b4565b5060208301518482036020860152611989828261166e565b9150508091505092915050565b61199f81611c7c565b82525050565b6119ae81611c7c565b82525050565b6119bd81611c86565b82525050565b600060208201905081810360008301526119dd81846115e3565b905092915050565b60006020820190506119fa6000830184611641565b92915050565b6000602082019050611a15600083018461165f565b92915050565b60006020820190508181036000830152611a3581846116a7565b905092915050565b60006020820190508181036000830152611a56816116e0565b9050919050565b60006020820190508181036000830152611a768161176c565b9050919050565b60006020820190508181036000830152611a96816117f8565b9050919050565b60006020820190508181036000830152611ab681611838565b9050919050565b60006020820190508181036000830152611ad6816118c4565b9050919050565b60006020820190508181036000830152611af78184611959565b905092915050565b6000602082019050611b1460008301846119a5565b92915050565b6000604051905081810181811067ffffffffffffffff82111715611b3d57600080fd5b8060405250919050565b600067ffffffffffffffff821115611b5e57600080fd5b602082029050602081019050919050565b600067ffffffffffffffff821115611b8657600080fd5b602082029050602081019050919050565b600067ffffffffffffffff821115611bae57600080fd5b601f19601f8301169050602081019050919050565b6000819050602082019050919050565b600081519050919050565b600081519050919050565b600081519050919050565b6000602082019050919050565b600082825260208201905092915050565b600082825260208201905092915050565b600082825260208201905092915050565b6000611c3f82611c5c565b9050919050565b60008115159050919050565b6000819050919050565b600073ffffffffffffffffffffffffffffffffffffffff82169050919050565b6000819050919050565b600060ff82169050919050565b82818337600083830152505050565b60005b83811015611cc0578082015181840152602081019050611ca5565b83811115611ccf576000848401525b50505050565b6000601f19601f8301169050919050565b611cef81611c34565b8114611cfa57600080fd5b50565b611d0681611c52565b8114611d1157600080fd5b50565b611d1d81611c7c565b8114611d2857600080fd5b5056fea2646970667358221220f68d6283dae2074f6a28103f6b604ba3fa9dbede16f55ad70dd4fb2e260f130564736f6c63430006020033",
      "opcodes": "PUSH1 0x80 PUSH1 0x40 MSTORE CALLVALUE DUP1 ISZERO PUSH3 0x11 JUMPI PUSH1 0x0 DUP1 REVERT JUMPDEST POP PUSH1 0x40 MLOAD PUSH3 0x1E82 CODESIZE SUB DUP1 PUSH3 0x1E82 DUP4 CODECOPY DUP2 DUP2 ADD PUSH1 0x40 MSTORE PUSH3 0x37 SWAP2 SWAP1 DUP2 ADD SWAP1 PUSH3 0x97 JUMP JUMPDEST DUP1 DUP1 PUSH1 0x0 DUP1 PUSH2 0x100 EXP DUP2 SLOAD DUP2 PUSH20 0xFFFFFFFFFFFFFFFFFFFFFFFFFFFFFFFFFFFFFFFF MUL NOT AND SWAP1 DUP4 PUSH20 0xFFFFFFFFFFFFFFFFFFFFFFFFFFFFFFFFFFFFFFFF AND MUL OR SWAP1 SSTORE POP POP POP PUSH3 0x111 JUMP JUMPDEST PUSH1 0x0 DUP2 MLOAD SWAP1 POP PUSH3 0x91 DUP2 PUSH3 0xF7 JUMP JUMPDEST SWAP3 SWAP2 POP POP JUMP JUMPDEST PUSH1 0x0 PUSH1 0x20 DUP3 DUP5 SUB SLT ISZERO PUSH3 0xAA JUMPI PUSH1 0x0 DUP1 REVERT JUMPDEST PUSH1 0x0 PUSH3 0xBA DUP5 DUP3 DUP6 ADD PUSH3 0x80 JUMP JUMPDEST SWAP2 POP POP SWAP3 SWAP2 POP POP JUMP JUMPDEST PUSH1 0x0 PUSH3 0xD0 DUP3 PUSH3 0xD7 JUMP JUMPDEST SWAP1 POP SWAP2 SWAP1 POP JUMP JUMPDEST PUSH1 0x0 PUSH20 0xFFFFFFFFFFFFFFFFFFFFFFFFFFFFFFFFFFFFFFFF DUP3 AND SWAP1 POP SWAP2 SWAP1 POP JUMP JUMPDEST PUSH3 0x102 DUP2 PUSH3 0xC3 JUMP JUMPDEST DUP2 EQ PUSH3 0x10E JUMPI PUSH1 0x0 DUP1 REVERT JUMPDEST POP JUMP JUMPDEST PUSH2 0x1D61 DUP1 PUSH3 0x121 PUSH1 0x0 CODECOPY PUSH1 0x0 RETURN INVALID PUSH1 0x80 PUSH1 0x40 MSTORE CALLVALUE DUP1 ISZERO PUSH2 0x10 JUMPI PUSH1 0x0 DUP1 REVERT JUMPDEST POP PUSH1 0x4 CALLDATASIZE LT PUSH2 0xA9 JUMPI PUSH1 0x0 CALLDATALOAD PUSH1 0xE0 SHR DUP1 PUSH4 0xA3C863A3 GT PUSH2 0x71 JUMPI DUP1 PUSH4 0xA3C863A3 EQ PUSH2 0x150 JUMPI DUP1 PUSH4 0xAE9EE18C EQ PUSH2 0x180 JUMPI DUP1 PUSH4 0xC2F5BEC6 EQ PUSH2 0x1B0 JUMPI DUP1 PUSH4 0xEF83B3C8 EQ PUSH2 0x1E0 JUMPI DUP1 PUSH4 0xF1C9CAF2 EQ PUSH2 0x210 JUMPI DUP1 PUSH4 0xFF860976 EQ PUSH2 0x22C JUMPI PUSH2 0xA9 JUMP JUMPDEST DUP1 PUSH4 0x22CBBE8 EQ PUSH2 0xAE JUMPI DUP1 PUSH4 0x2E36B7F8 EQ PUSH2 0xCA JUMPI DUP1 PUSH4 0x32E43A11 EQ PUSH2 0xE6 JUMPI DUP1 PUSH4 0x6FF56C54 EQ PUSH2 0x104 JUMPI DUP1 PUSH4 0x82C947B7 EQ PUSH2 0x120 JUMPI JUMPDEST PUSH1 0x0 DUP1 REVERT JUMPDEST PUSH2 0xC8 PUSH1 0x4 DUP1 CALLDATASIZE SUB PUSH2 0xC3 SWAP2 SWAP1 DUP2 ADD SWAP1 PUSH2 0x1423 JUMP JUMPDEST PUSH2 0x25C JUMP JUMPDEST STOP JUMPDEST PUSH2 0xE4 PUSH1 0x4 DUP1 CALLDATASIZE SUB PUSH2 0xDF SWAP2 SWAP1 DUP2 ADD SWAP1 PUSH2 0x147B JUMP JUMPDEST PUSH2 0x2AF JUMP JUMPDEST STOP JUMPDEST PUSH2 0xEE PUSH2 0x35B JUMP JUMPDEST PUSH1 0x40 MLOAD PUSH2 0xFB SWAP2 SWAP1 PUSH2 0x19E5 JUMP JUMPDEST PUSH1 0x40 MLOAD DUP1 SWAP2 SUB SWAP1 RETURN JUMPDEST PUSH2 0x11E PUSH1 0x4 DUP1 CALLDATASIZE SUB PUSH2 0x119 SWAP2 SWAP1 DUP2 ADD SWAP1 PUSH2 0x154E JUMP JUMPDEST PUSH2 0x36E JUMP JUMPDEST STOP JUMPDEST PUSH2 0x13A PUSH1 0x4 DUP1 CALLDATASIZE SUB PUSH2 0x135 SWAP2 SWAP1 DUP2 ADD SWAP1 PUSH2 0x1354 JUMP JUMPDEST PUSH2 0x38A JUMP JUMPDEST PUSH1 0x40 MLOAD PUSH2 0x147 SWAP2 SWAP1 PUSH2 0x1A00 JUMP JUMPDEST PUSH1 0x40 MLOAD DUP1 SWAP2 SUB SWAP1 RETURN JUMPDEST PUSH2 0x16A PUSH1 0x4 DUP1 CALLDATASIZE SUB PUSH2 0x165 SWAP2 SWAP1 DUP2 ADD SWAP1 PUSH2 0x13E7 JUMP JUMPDEST PUSH2 0x39C JUMP JUMPDEST PUSH1 0x40 MLOAD PUSH2 0x177 SWAP2 SWAP1 PUSH2 0x19E5 JUMP JUMPDEST PUSH1 0x40 MLOAD DUP1 SWAP2 SUB SWAP1 RETURN JUMPDEST PUSH2 0x19A PUSH1 0x4 DUP1 CALLDATASIZE SUB PUSH2 0x195 SWAP2 SWAP1 DUP2 ADD SWAP1 PUSH2 0x13BE JUMP JUMPDEST PUSH2 0x441 JUMP JUMPDEST PUSH1 0x40 MLOAD PUSH2 0x1A7 SWAP2 SWAP1 PUSH2 0x1AFF JUMP JUMPDEST PUSH1 0x40 MLOAD DUP1 SWAP2 SUB SWAP1 RETURN JUMPDEST PUSH2 0x1CA PUSH1 0x4 DUP1 CALLDATASIZE SUB PUSH2 0x1C5 SWAP2 SWAP1 DUP2 ADD SWAP1 PUSH2 0x13BE JUMP JUMPDEST PUSH2 0x459 JUMP JUMPDEST PUSH1 0x40 MLOAD PUSH2 0x1D7 SWAP2 SWAP1 PUSH2 0x19E5 JUMP JUMPDEST PUSH1 0x40 MLOAD DUP1 SWAP2 SUB SWAP1 RETURN JUMPDEST PUSH2 0x1FA PUSH1 0x4 DUP1 CALLDATASIZE SUB PUSH2 0x1F5 SWAP2 SWAP1 DUP2 ADD SWAP1 PUSH2 0x13E7 JUMP JUMPDEST PUSH2 0x46B JUMP JUMPDEST PUSH1 0x40 MLOAD PUSH2 0x207 SWAP2 SWAP1 PUSH2 0x19E5 JUMP JUMPDEST PUSH1 0x40 MLOAD DUP1 SWAP2 SUB SWAP1 RETURN JUMPDEST PUSH2 0x22A PUSH1 0x4 DUP1 CALLDATASIZE SUB PUSH2 0x225 SWAP2 SWAP1 DUP2 ADD SWAP1 PUSH2 0x14CF JUMP JUMPDEST PUSH2 0x481 JUMP JUMPDEST STOP JUMPDEST PUSH2 0x246 PUSH1 0x4 DUP1 CALLDATASIZE SUB PUSH2 0x241 SWAP2 SWAP1 DUP2 ADD SWAP1 PUSH2 0x13BE JUMP JUMPDEST PUSH2 0xB50 JUMP JUMPDEST PUSH1 0x40 MLOAD PUSH2 0x253 SWAP2 SWAP1 PUSH2 0x1A00 JUMP JUMPDEST PUSH1 0x40 MLOAD DUP1 SWAP2 SUB SWAP1 RETURN JUMPDEST PUSH2 0x2AA DUP4 DUP4 DUP4 DUP1 DUP1 PUSH1 0x1F ADD PUSH1 0x20 DUP1 SWAP2 DIV MUL PUSH1 0x20 ADD PUSH1 0x40 MLOAD SWAP1 DUP2 ADD PUSH1 0x40 MSTORE DUP1 SWAP4 SWAP3 SWAP2 SWAP1 DUP2 DUP2 MSTORE PUSH1 0x20 ADD DUP4 DUP4 DUP1 DUP3 DUP5 CALLDATACOPY PUSH1 0x0 DUP2 DUP5 ADD MSTORE PUSH1 0x1F NOT PUSH1 0x1F DUP3 ADD AND SWAP1 POP DUP1 DUP4 ADD SWAP3 POP POP POP POP POP POP POP PUSH2 0xB68 JUMP JUMPDEST POP POP POP JUMP JUMPDEST PUSH1 0x40 MLOAD DUP1 PUSH1 0x40 ADD PUSH1 0x40 MSTORE DUP1 PUSH1 0x0 PUSH1 0x1 DUP2 GT ISZERO PUSH2 0x2C7 JUMPI INVALID JUMPDEST PUSH1 0xFF AND DUP2 MSTORE PUSH1 0x20 ADD DUP3 DUP2 MSTORE POP PUSH1 0x40 MLOAD PUSH1 0x20 ADD PUSH2 0x2E3 SWAP2 SWAP1 PUSH2 0x1ADD JUMP JUMPDEST PUSH1 0x40 MLOAD PUSH1 0x20 DUP2 DUP4 SUB SUB DUP2 MSTORE SWAP1 PUSH1 0x40 MSTORE DUP1 MLOAD SWAP1 PUSH1 0x20 ADD KECCAK256 PUSH1 0x2 PUSH1 0x0 DUP5 DUP2 MSTORE PUSH1 0x20 ADD SWAP1 DUP2 MSTORE PUSH1 0x20 ADD PUSH1 0x0 KECCAK256 SLOAD EQ PUSH2 0x34D JUMPI PUSH1 0x40 MLOAD PUSH32 0x8C379A000000000000000000000000000000000000000000000000000000000 DUP2 MSTORE PUSH1 0x4 ADD PUSH2 0x344 SWAP1 PUSH2 0x1A3D JUMP JUMPDEST PUSH1 0x40 MLOAD DUP1 SWAP2 SUB SWAP1 REVERT JUMPDEST PUSH2 0x357 DUP3 DUP3 PUSH2 0xB68 JUMP JUMPDEST POP POP JUMP JUMPDEST PUSH1 0x3 PUSH1 0x0 SWAP1 SLOAD SWAP1 PUSH2 0x100 EXP SWAP1 DIV PUSH1 0xFF AND DUP2 JUMP JUMPDEST DUP1 PUSH1 0x1 PUSH1 0x0 DUP5 DUP2 MSTORE PUSH1 0x20 ADD SWAP1 DUP2 MSTORE PUSH1 0x20 ADD PUSH1 0x0 KECCAK256 DUP2 SWAP1 SSTORE POP POP POP JUMP JUMPDEST PUSH1 0x0 PUSH2 0x395 DUP3 PUSH2 0xEF3 JUMP JUMPDEST SWAP1 POP SWAP2 SWAP1 POP JUMP JUMPDEST PUSH1 0x0 DUP1 PUSH1 0x0 SWAP1 SLOAD SWAP1 PUSH2 0x100 EXP SWAP1 DIV PUSH20 0xFFFFFFFFFFFFFFFFFFFFFFFFFFFFFFFFFFFFFFFF AND PUSH20 0xFFFFFFFFFFFFFFFFFFFFFFFFFFFFFFFFFFFFFFFF AND CALLER PUSH20 0xFFFFFFFFFFFFFFFFFFFFFFFFFFFFFFFFFFFFFFFF AND EQ PUSH2 0x42D JUMPI PUSH1 0x40 MLOAD PUSH32 0x8C379A000000000000000000000000000000000000000000000000000000000 DUP2 MSTORE PUSH1 0x4 ADD PUSH2 0x424 SWAP1 PUSH2 0x1ABD JUMP JUMPDEST PUSH1 0x40 MLOAD DUP1 SWAP2 SUB SWAP1 REVERT JUMPDEST PUSH2 0x437 DUP4 DUP4 PUSH2 0xF16 JUMP JUMPDEST PUSH1 0x1 SWAP1 POP SWAP3 SWAP2 POP POP JUMP JUMPDEST PUSH1 0x1 PUSH1 0x20 MSTORE DUP1 PUSH1 0x0 MSTORE PUSH1 0x40 PUSH1 0x0 KECCAK256 PUSH1 0x0 SWAP2 POP SWAP1 POP SLOAD DUP2 JUMP JUMPDEST PUSH1 0x0 PUSH2 0x464 DUP3 PUSH2 0xF8A JUMP JUMPDEST SWAP1 POP SWAP2 SWAP1 POP JUMP JUMPDEST PUSH1 0x0 PUSH2 0x477 DUP4 DUP4 PUSH2 0xF16 JUMP JUMPDEST PUSH1 0x1 SWAP1 POP SWAP3 SWAP2 POP POP JUMP JUMPDEST PUSH1 0x40 MLOAD DUP1 PUSH1 0x40 ADD PUSH1 0x40 MSTORE DUP1 PUSH1 0x1 DUP1 DUP2 GT ISZERO PUSH2 0x498 JUMPI INVALID JUMPDEST PUSH1 0xFF AND DUP2 MSTORE PUSH1 0x20 ADD DUP4 DUP2 MSTORE POP PUSH1 0x40 MLOAD PUSH1 0x20 ADD PUSH2 0x4B4 SWAP2 SWAP1 PUSH2 0x1ADD JUMP JUMPDEST PUSH1 0x40 MLOAD PUSH1 0x20 DUP2 DUP4 SUB SUB DUP2 MSTORE SWAP1 PUSH1 0x40 MSTORE DUP1 MLOAD SWAP1 PUSH1 0x20 ADD KECCAK256 PUSH1 0x2 PUSH1 0x0 DUP6 DUP2 MSTORE PUSH1 0x20 ADD SWAP1 DUP2 MSTORE PUSH1 0x20 ADD PUSH1 0x0 KECCAK256 SLOAD EQ PUSH2 0x51E JUMPI PUSH1 0x40 MLOAD PUSH32 0x8C379A000000000000000000000000000000000000000000000000000000000 DUP2 MSTORE PUSH1 0x4 ADD PUSH2 0x515 SWAP1 PUSH2 0x1A9D JUMP JUMPDEST PUSH1 0x40 MLOAD DUP1 SWAP2 SUB SWAP1 REVERT JUMPDEST PUSH2 0x526 PUSH2 0x105D JUMP JUMPDEST DUP3 DUP1 PUSH1 0x20 ADD SWAP1 MLOAD PUSH2 0x53A SWAP2 SWAP1 DUP2 ADD SWAP1 PUSH2 0x158A JUMP JUMPDEST SWAP1 POP PUSH1 0x40 MLOAD DUP1 PUSH1 0x40 ADD PUSH1 0x40 MSTORE DUP1 PUSH1 0x0 PUSH1 0x1 DUP2 GT ISZERO PUSH2 0x554 JUMPI INVALID JUMPDEST PUSH1 0xFF AND DUP2 MSTORE PUSH1 0x20 ADD DUP4 DUP2 MSTORE POP PUSH1 0x40 MLOAD PUSH1 0x20 ADD PUSH2 0x570 SWAP2 SWAP1 PUSH2 0x1ADD JUMP JUMPDEST PUSH1 0x40 MLOAD PUSH1 0x20 DUP2 DUP4 SUB SUB DUP2 MSTORE SWAP1 PUSH1 0x40 MSTORE DUP1 MLOAD SWAP1 PUSH1 0x20 ADD KECCAK256 PUSH1 0x2 PUSH1 0x0 DUP4 PUSH1 0x0 ADD MLOAD DUP2 MSTORE PUSH1 0x20 ADD SWAP1 DUP2 MSTORE PUSH1 0x20 ADD PUSH1 0x0 KECCAK256 SLOAD EQ PUSH2 0x5DE JUMPI PUSH1 0x40 MLOAD PUSH32 0x8C379A000000000000000000000000000000000000000000000000000000000 DUP2 MSTORE PUSH1 0x4 ADD PUSH2 0x5D5 SWAP1 PUSH2 0x1A5D JUMP JUMPDEST PUSH1 0x40 MLOAD DUP1 SWAP2 SUB SWAP1 REVERT JUMPDEST PUSH1 0x0 PUSH1 0x1 PUSH1 0x0 DUP7 DUP2 MSTORE PUSH1 0x20 ADD SWAP1 DUP2 MSTORE PUSH1 0x20 ADD PUSH1 0x0 KECCAK256 SLOAD SWAP1 POP PUSH1 0x60 DUP4 DUP1 PUSH1 0x20 ADD SWAP1 MLOAD PUSH2 0x60C SWAP2 SWAP1 DUP2 ADD SWAP1 PUSH2 0x137D JUMP JUMPDEST SWAP1 POP PUSH1 0x60 DUP2 MLOAD PUSH1 0x40 MLOAD SWAP1 DUP1 DUP3 MSTORE DUP1 PUSH1 0x20 MUL PUSH1 0x20 ADD DUP3 ADD PUSH1 0x40 MSTORE DUP1 ISZERO PUSH2 0x640 JUMPI DUP2 PUSH1 0x20 ADD PUSH1 0x20 DUP3 MUL DUP1 CODESIZE DUP4 CODECOPY DUP1 DUP3 ADD SWAP2 POP POP SWAP1 POP JUMPDEST POP SWAP1 POP PUSH1 0x0 DUP3 MLOAD SWAP1 POP PUSH1 0x0 DUP1 SWAP1 POP JUMPDEST DUP6 PUSH1 0x20 ADD MLOAD MLOAD DUP2 LT ISZERO PUSH2 0x797 JUMPI PUSH1 0x0 DUP7 PUSH1 0x20 ADD MLOAD DUP3 DUP2 MLOAD DUP2 LT PUSH2 0x66E JUMPI INVALID JUMPDEST PUSH1 0x20 MUL PUSH1 0x20 ADD ADD MLOAD SWAP1 POP PUSH1 0x0 DUP1 SWAP1 POP JUMPDEST DUP6 MLOAD DUP2 LT ISZERO PUSH2 0x788 JUMPI PUSH1 0x0 DUP8 EQ ISZERO PUSH2 0x695 JUMPI PUSH2 0x788 JUMP JUMPDEST DUP6 DUP2 DUP2 MLOAD DUP2 LT PUSH2 0x6A1 JUMPI INVALID JUMPDEST PUSH1 0x20 MUL PUSH1 0x20 ADD ADD MLOAD PUSH1 0x0 ADD MLOAD DUP3 EQ ISZERO PUSH2 0x77B JUMPI PUSH1 0x0 DUP7 DUP3 DUP2 MLOAD DUP2 LT PUSH2 0x6C2 JUMPI INVALID JUMPDEST PUSH1 0x20 MUL PUSH1 0x20 ADD ADD MLOAD PUSH1 0x20 ADD MLOAD SWAP1 POP PUSH1 0x0 DUP2 GT ISZERO PUSH2 0x779 JUMPI DUP1 DUP9 LT PUSH2 0x731 JUMPI DUP1 DUP9 SUB SWAP8 POP PUSH1 0x0 DUP8 DUP4 DUP2 MLOAD DUP2 LT PUSH2 0x6F3 JUMPI INVALID JUMPDEST PUSH1 0x20 MUL PUSH1 0x20 ADD ADD MLOAD PUSH1 0x20 ADD DUP2 DUP2 MSTORE POP POP DUP5 DUP1 PUSH1 0x1 SWAP1 SUB SWAP6 POP POP DUP1 DUP7 DUP4 DUP2 MLOAD DUP2 LT PUSH2 0x719 JUMPI INVALID JUMPDEST PUSH1 0x20 MUL PUSH1 0x20 ADD ADD DUP2 DUP2 MLOAD ADD SWAP2 POP DUP2 DUP2 MSTORE POP POP POP PUSH2 0x788 JUMP JUMPDEST DUP8 DUP2 SUB DUP8 DUP4 DUP2 MLOAD DUP2 LT PUSH2 0x740 JUMPI INVALID JUMPDEST PUSH1 0x20 MUL PUSH1 0x20 ADD ADD MLOAD PUSH1 0x20 ADD DUP2 DUP2 MSTORE POP POP DUP8 DUP7 DUP4 DUP2 MLOAD DUP2 LT PUSH2 0x75D JUMPI INVALID JUMPDEST PUSH1 0x20 MUL PUSH1 0x20 ADD ADD DUP2 DUP2 MLOAD ADD SWAP2 POP DUP2 DUP2 MSTORE POP POP PUSH1 0x0 SWAP8 POP POP PUSH2 0x788 JUMP JUMPDEST POP JUMPDEST DUP1 DUP1 PUSH1 0x1 ADD SWAP2 POP POP PUSH2 0x67E JUMP JUMPDEST POP POP DUP1 DUP1 PUSH1 0x1 ADD SWAP2 POP POP PUSH2 0x64F JUMP JUMPDEST POP PUSH1 0x0 DUP1 SWAP1 POP JUMPDEST DUP4 MLOAD DUP2 LT ISZERO PUSH2 0x883 JUMPI PUSH1 0x0 DUP6 EQ ISZERO PUSH2 0x7B5 JUMPI PUSH2 0x883 JUMP JUMPDEST PUSH1 0x0 DUP5 DUP3 DUP2 MLOAD DUP2 LT PUSH2 0x7C3 JUMPI INVALID JUMPDEST PUSH1 0x20 MUL PUSH1 0x20 ADD ADD MLOAD PUSH1 0x20 ADD MLOAD SWAP1 POP PUSH1 0x0 DUP2 GT ISZERO PUSH2 0x875 JUMPI DUP1 DUP7 LT PUSH2 0x831 JUMPI DUP1 DUP7 SUB SWAP6 POP PUSH1 0x0 DUP6 DUP4 DUP2 MLOAD DUP2 LT PUSH2 0x7F4 JUMPI INVALID JUMPDEST PUSH1 0x20 MUL PUSH1 0x20 ADD ADD MLOAD PUSH1 0x20 ADD DUP2 DUP2 MSTORE POP POP DUP3 DUP1 PUSH1 0x1 SWAP1 SUB SWAP4 POP POP DUP1 DUP5 DUP4 DUP2 MLOAD DUP2 LT PUSH2 0x81A JUMPI INVALID JUMPDEST PUSH1 0x20 MUL PUSH1 0x20 ADD ADD DUP2 DUP2 MLOAD ADD SWAP2 POP DUP2 DUP2 MSTORE POP POP PUSH2 0x874 JUMP JUMPDEST DUP6 DUP2 SUB DUP6 DUP4 DUP2 MLOAD DUP2 LT PUSH2 0x840 JUMPI INVALID JUMPDEST PUSH1 0x20 MUL PUSH1 0x20 ADD ADD MLOAD PUSH1 0x20 ADD DUP2 DUP2 MSTORE POP POP DUP6 DUP5 DUP4 DUP2 MLOAD DUP2 LT PUSH2 0x85D JUMPI INVALID JUMPDEST PUSH1 0x20 MUL PUSH1 0x20 ADD ADD DUP2 DUP2 MLOAD ADD SWAP2 POP DUP2 DUP2 MSTORE POP POP PUSH1 0x0 SWAP6 POP JUMPDEST JUMPDEST POP DUP1 DUP1 PUSH1 0x1 ADD SWAP2 POP POP PUSH2 0x79E JUMP JUMPDEST POP DUP4 PUSH1 0x1 PUSH1 0x0 DUP11 DUP2 MSTORE PUSH1 0x20 ADD SWAP1 DUP2 MSTORE PUSH1 0x20 ADD PUSH1 0x0 KECCAK256 DUP2 SWAP1 SSTORE POP PUSH1 0x60 PUSH1 0x0 DUP3 GT ISZERO PUSH2 0x8E5 JUMPI DUP2 PUSH1 0x40 MLOAD SWAP1 DUP1 DUP3 MSTORE DUP1 PUSH1 0x20 MUL PUSH1 0x20 ADD DUP3 ADD PUSH1 0x40 MSTORE DUP1 ISZERO PUSH2 0x8E1 JUMPI DUP2 PUSH1 0x20 ADD JUMPDEST PUSH2 0x8CE PUSH2 0x107A JUMP JUMPDEST DUP2 MSTORE PUSH1 0x20 ADD SWAP1 PUSH1 0x1 SWAP1 SUB SWAP1 DUP2 PUSH2 0x8C6 JUMPI SWAP1 POP JUMPDEST POP SWAP1 POP JUMPDEST PUSH1 0x0 DUP1 SWAP1 POP PUSH1 0x0 DUP1 SWAP1 POP JUMPDEST DUP6 MLOAD DUP2 LT ISZERO PUSH2 0xA8C JUMPI PUSH1 0x0 DUP7 DUP3 DUP2 MLOAD DUP2 LT PUSH2 0x907 JUMPI INVALID JUMPDEST PUSH1 0x20 MUL PUSH1 0x20 ADD ADD MLOAD PUSH1 0x20 ADD MLOAD GT ISZERO PUSH2 0x94D JUMPI DUP6 DUP2 DUP2 MLOAD DUP2 LT PUSH2 0x925 JUMPI INVALID JUMPDEST PUSH1 0x20 MUL PUSH1 0x20 ADD ADD MLOAD DUP4 DUP4 DUP2 MLOAD DUP2 LT PUSH2 0x939 JUMPI INVALID JUMPDEST PUSH1 0x20 MUL PUSH1 0x20 ADD ADD DUP2 SWAP1 MSTORE POP DUP2 DUP1 PUSH1 0x1 ADD SWAP3 POP POP JUMPDEST PUSH1 0x0 DUP6 DUP3 DUP2 MLOAD DUP2 LT PUSH2 0x95B JUMPI INVALID JUMPDEST PUSH1 0x20 MUL PUSH1 0x20 ADD ADD MLOAD GT ISZERO PUSH2 0xA7F JUMPI PUSH2 0x989 DUP7 DUP3 DUP2 MLOAD DUP2 LT PUSH2 0x978 JUMPI INVALID JUMPDEST PUSH1 0x20 MUL PUSH1 0x20 ADD ADD MLOAD PUSH1 0x0 ADD MLOAD PUSH2 0xF8A JUMP JUMPDEST ISZERO PUSH2 0xA32 JUMPI PUSH2 0x9CA PUSH2 0x9B1 DUP8 DUP4 DUP2 MLOAD DUP2 LT PUSH2 0x9A0 JUMPI INVALID JUMPDEST PUSH1 0x20 MUL PUSH1 0x20 ADD ADD MLOAD PUSH1 0x0 ADD MLOAD PUSH2 0xFA7 JUMP JUMPDEST DUP7 DUP4 DUP2 MLOAD DUP2 LT PUSH2 0x9BD JUMPI INVALID JUMPDEST PUSH1 0x20 MUL PUSH1 0x20 ADD ADD MLOAD PUSH2 0xFB4 JUMP JUMPDEST DUP6 DUP2 DUP2 MLOAD DUP2 LT PUSH2 0x9D6 JUMPI INVALID JUMPDEST PUSH1 0x20 MUL PUSH1 0x20 ADD ADD MLOAD PUSH1 0x0 ADD MLOAD DUP12 PUSH32 0x1F6B1AF341C61650D8EF5DD2094A77E44CE0568E1ACB98BAA6007033DE9009B7 DUP8 DUP5 DUP2 MLOAD DUP2 LT PUSH2 0xA10 JUMPI INVALID JUMPDEST PUSH1 0x20 MUL PUSH1 0x20 ADD ADD MLOAD PUSH1 0x40 MLOAD PUSH2 0xA25 SWAP2 SWAP1 PUSH2 0x1AFF JUMP JUMPDEST PUSH1 0x40 MLOAD DUP1 SWAP2 SUB SWAP1 LOG3 PUSH2 0xA7E JUMP JUMPDEST DUP5 DUP2 DUP2 MLOAD DUP2 LT PUSH2 0xA3E JUMPI INVALID JUMPDEST PUSH1 0x20 MUL PUSH1 0x20 ADD ADD MLOAD PUSH1 0x1 PUSH1 0x0 DUP9 DUP5 DUP2 MLOAD DUP2 LT PUSH2 0xA56 JUMPI INVALID JUMPDEST PUSH1 0x20 MUL PUSH1 0x20 ADD ADD MLOAD PUSH1 0x0 ADD MLOAD DUP2 MSTORE PUSH1 0x20 ADD SWAP1 DUP2 MSTORE PUSH1 0x20 ADD PUSH1 0x0 KECCAK256 PUSH1 0x0 DUP3 DUP3 SLOAD ADD SWAP3 POP POP DUP2 SWAP1 SSTORE POP JUMPDEST JUMPDEST DUP1 DUP1 PUSH1 0x1 ADD SWAP2 POP POP PUSH2 0x8F0 JUMP JUMPDEST POP DUP3 DUP2 EQ PUSH2 0xA96 JUMPI INVALID JUMPDEST PUSH1 0x0 DUP4 GT ISZERO PUSH2 0xB28 JUMPI PUSH1 0x40 MLOAD DUP1 PUSH1 0x40 ADD PUSH1 0x40 MSTORE DUP1 PUSH1 0x0 PUSH1 0x1 DUP2 GT ISZERO PUSH2 0xAB7 JUMPI INVALID JUMPDEST PUSH1 0xFF AND DUP2 MSTORE PUSH1 0x20 ADD DUP4 PUSH1 0x40 MLOAD PUSH1 0x20 ADD PUSH2 0xAD0 SWAP2 SWAP1 PUSH2 0x19C3 JUMP JUMPDEST PUSH1 0x40 MLOAD PUSH1 0x20 DUP2 DUP4 SUB SUB DUP2 MSTORE SWAP1 PUSH1 0x40 MSTORE DUP2 MSTORE POP PUSH1 0x40 MLOAD PUSH1 0x20 ADD PUSH2 0xAF2 SWAP2 SWAP1 PUSH2 0x1ADD JUMP JUMPDEST PUSH1 0x40 MLOAD PUSH1 0x20 DUP2 DUP4 SUB SUB DUP2 MSTORE SWAP1 PUSH1 0x40 MSTORE DUP1 MLOAD SWAP1 PUSH1 0x20 ADD KECCAK256 PUSH1 0x2 PUSH1 0x0 DUP10 PUSH1 0x0 ADD MLOAD DUP2 MSTORE PUSH1 0x20 ADD SWAP1 DUP2 MSTORE PUSH1 0x20 ADD PUSH1 0x0 KECCAK256 DUP2 SWAP1 SSTORE POP PUSH2 0xB44 JUMP JUMPDEST PUSH1 0x2 PUSH1 0x0 DUP9 PUSH1 0x0 ADD MLOAD DUP2 MSTORE PUSH1 0x20 ADD SWAP1 DUP2 MSTORE PUSH1 0x20 ADD PUSH1 0x0 KECCAK256 PUSH1 0x0 SWAP1 SSTORE JUMPDEST POP POP POP POP POP POP POP POP POP POP JUMP JUMPDEST PUSH1 0x2 PUSH1 0x20 MSTORE DUP1 PUSH1 0x0 MSTORE PUSH1 0x40 PUSH1 0x0 KECCAK256 PUSH1 0x0 SWAP2 POP SWAP1 POP SLOAD DUP2 JUMP JUMPDEST PUSH1 0x60 DUP2 DUP1 PUSH1 0x20 ADD SWAP1 MLOAD PUSH2 0xB7E SWAP2 SWAP1 DUP2 ADD SWAP1 PUSH2 0x137D JUMP JUMPDEST SWAP1 POP PUSH1 0x0 PUSH1 0x1 PUSH1 0x0 DUP6 DUP2 MSTORE PUSH1 0x20 ADD SWAP1 DUP2 MSTORE PUSH1 0x20 ADD PUSH1 0x0 KECCAK256 SLOAD SWAP1 POP PUSH1 0x0 DUP1 SWAP1 POP PUSH1 0x0 DUP4 MLOAD SWAP1 POP PUSH1 0x0 DUP1 PUSH1 0x0 DUP1 PUSH1 0x0 DUP1 SWAP1 POP JUMPDEST DUP9 MLOAD DUP2 LT ISZERO PUSH2 0xC3A JUMPI PUSH1 0x0 DUP9 EQ ISZERO PUSH2 0xBC6 JUMPI PUSH2 0xC2D JUMP JUMPDEST DUP9 DUP2 DUP2 MLOAD DUP2 LT PUSH2 0xBD2 JUMPI INVALID JUMPDEST PUSH1 0x20 MUL PUSH1 0x20 ADD ADD MLOAD PUSH1 0x20 ADD MLOAD SWAP5 POP DUP5 DUP9 LT ISZERO PUSH2 0xC05 JUMPI DUP7 DUP1 PUSH1 0x1 ADD SWAP8 POP POP PUSH1 0x1 SWAP4 POP DUP8 SWAP3 POP DUP8 DUP6 SUB SWAP2 POP PUSH1 0x0 SWAP8 POP PUSH2 0xC2C JUMP JUMPDEST DUP7 DUP1 PUSH1 0x1 ADD SWAP8 POP POP DUP6 DUP1 PUSH1 0x1 SWAP1 SUB SWAP7 POP POP PUSH2 0xC29 DUP6 DUP10 PUSH2 0xFB8 SWAP1 SWAP2 SWAP1 PUSH4 0xFFFFFFFF AND JUMP JUMPDEST SWAP8 POP JUMPDEST JUMPDEST DUP1 DUP1 PUSH1 0x1 ADD SWAP2 POP POP PUSH2 0xBAF JUMP JUMPDEST POP DUP7 PUSH1 0x1 PUSH1 0x0 DUP13 DUP2 MSTORE PUSH1 0x20 ADD SWAP1 DUP2 MSTORE PUSH1 0x20 ADD PUSH1 0x0 KECCAK256 DUP2 SWAP1 SSTORE POP PUSH1 0x0 DUP6 GT ISZERO PUSH2 0xD9D JUMPI PUSH1 0x60 DUP6 PUSH1 0x40 MLOAD SWAP1 DUP1 DUP3 MSTORE DUP1 PUSH1 0x20 MUL PUSH1 0x20 ADD DUP3 ADD PUSH1 0x40 MSTORE DUP1 ISZERO PUSH2 0xC98 JUMPI DUP2 PUSH1 0x20 ADD JUMPDEST PUSH2 0xC85 PUSH2 0x107A JUMP JUMPDEST DUP2 MSTORE PUSH1 0x20 ADD SWAP1 PUSH1 0x1 SWAP1 SUB SWAP1 DUP2 PUSH2 0xC7D JUMPI SWAP1 POP JUMPDEST POP SWAP1 POP PUSH1 0x0 DUP1 SWAP1 POP JUMPDEST DUP7 DUP2 LT ISZERO PUSH2 0xD16 JUMPI DUP10 DUP2 DUP9 DUP13 MLOAD SUB ADD DUP2 MLOAD DUP2 LT PUSH2 0xCBA JUMPI INVALID JUMPDEST PUSH1 0x20 MUL PUSH1 0x20 ADD ADD MLOAD DUP3 DUP3 DUP2 MLOAD DUP2 LT PUSH2 0xCCE JUMPI INVALID JUMPDEST PUSH1 0x20 MUL PUSH1 0x20 ADD ADD DUP2 SWAP1 MSTORE POP DUP5 DUP1 ISZERO PUSH2 0xCE6 JUMPI POP PUSH1 0x0 DUP2 EQ JUMPDEST ISZERO PUSH2 0xD09 JUMPI DUP3 DUP3 DUP3 DUP2 MLOAD DUP2 LT PUSH2 0xCF8 JUMPI INVALID JUMPDEST PUSH1 0x20 MUL PUSH1 0x20 ADD ADD MLOAD PUSH1 0x20 ADD DUP2 DUP2 MSTORE POP POP JUMPDEST DUP1 DUP1 PUSH1 0x1 ADD SWAP2 POP POP PUSH2 0xCA1 JUMP JUMPDEST POP PUSH1 0x40 MLOAD DUP1 PUSH1 0x40 ADD PUSH1 0x40 MSTORE DUP1 PUSH1 0x0 PUSH1 0x1 DUP2 GT ISZERO PUSH2 0xD2F JUMPI INVALID JUMPDEST PUSH1 0xFF AND DUP2 MSTORE PUSH1 0x20 ADD DUP3 PUSH1 0x40 MLOAD PUSH1 0x20 ADD PUSH2 0xD48 SWAP2 SWAP1 PUSH2 0x19C3 JUMP JUMPDEST PUSH1 0x40 MLOAD PUSH1 0x20 DUP2 DUP4 SUB SUB DUP2 MSTORE SWAP1 PUSH1 0x40 MSTORE DUP2 MSTORE POP PUSH1 0x40 MLOAD PUSH1 0x20 ADD PUSH2 0xD6A SWAP2 SWAP1 PUSH2 0x1ADD JUMP JUMPDEST PUSH1 0x40 MLOAD PUSH1 0x20 DUP2 DUP4 SUB SUB DUP2 MSTORE SWAP1 PUSH1 0x40 MSTORE DUP1 MLOAD SWAP1 PUSH1 0x20 ADD KECCAK256 PUSH1 0x2 PUSH1 0x0 DUP14 DUP2 MSTORE PUSH1 0x20 ADD SWAP1 DUP2 MSTORE PUSH1 0x20 ADD PUSH1 0x0 KECCAK256 DUP2 SWAP1 SSTORE POP POP PUSH2 0xDB5 JUMP JUMPDEST PUSH1 0x2 PUSH1 0x0 DUP12 DUP2 MSTORE PUSH1 0x20 ADD SWAP1 DUP2 MSTORE PUSH1 0x20 ADD PUSH1 0x0 KECCAK256 PUSH1 0x0 SWAP1 SSTORE JUMPDEST PUSH1 0x0 DUP1 PUSH1 0x0 SWAP1 POP JUMPDEST DUP8 DUP2 LT ISZERO PUSH2 0xEE5 JUMPI DUP5 DUP1 ISZERO PUSH2 0xDD4 JUMPI POP PUSH1 0x1 DUP9 SUB DUP2 EQ JUMPDEST ISZERO PUSH2 0xDE1 JUMPI DUP4 SWAP2 POP PUSH2 0xDFC JUMP JUMPDEST DUP10 DUP2 DUP2 MLOAD DUP2 LT PUSH2 0xDED JUMPI INVALID JUMPDEST PUSH1 0x20 MUL PUSH1 0x20 ADD ADD MLOAD PUSH1 0x20 ADD MLOAD SWAP2 POP JUMPDEST PUSH2 0xE1C DUP11 DUP3 DUP2 MLOAD DUP2 LT PUSH2 0xE0B JUMPI INVALID JUMPDEST PUSH1 0x20 MUL PUSH1 0x20 ADD ADD MLOAD PUSH1 0x0 ADD MLOAD PUSH2 0xF8A JUMP JUMPDEST ISZERO PUSH2 0xE9F JUMPI PUSH2 0xE4A PUSH2 0xE44 DUP12 DUP4 DUP2 MLOAD DUP2 LT PUSH2 0xE33 JUMPI INVALID JUMPDEST PUSH1 0x20 MUL PUSH1 0x20 ADD ADD MLOAD PUSH1 0x0 ADD MLOAD PUSH2 0xFA7 JUMP JUMPDEST DUP4 PUSH2 0xFB4 JUMP JUMPDEST DUP10 DUP2 DUP2 MLOAD DUP2 LT PUSH2 0xE56 JUMPI INVALID JUMPDEST PUSH1 0x20 MUL PUSH1 0x20 ADD ADD MLOAD PUSH1 0x0 ADD MLOAD DUP13 PUSH32 0x1F6B1AF341C61650D8EF5DD2094A77E44CE0568E1ACB98BAA6007033DE9009B7 DUP5 PUSH1 0x40 MLOAD PUSH2 0xE92 SWAP2 SWAP1 PUSH2 0x1AFF JUMP JUMPDEST PUSH1 0x40 MLOAD DUP1 SWAP2 SUB SWAP1 LOG3 PUSH2 0xED8 JUMP JUMPDEST DUP2 PUSH1 0x1 PUSH1 0x0 DUP13 DUP5 DUP2 MLOAD DUP2 LT PUSH2 0xEB0 JUMPI INVALID JUMPDEST PUSH1 0x20 MUL PUSH1 0x20 ADD ADD MLOAD PUSH1 0x0 ADD MLOAD DUP2 MSTORE PUSH1 0x20 ADD SWAP1 DUP2 MSTORE PUSH1 0x20 ADD PUSH1 0x0 KECCAK256 PUSH1 0x0 DUP3 DUP3 SLOAD ADD SWAP3 POP POP DUP2 SWAP1 SSTORE POP JUMPDEST DUP1 DUP1 PUSH1 0x1 ADD SWAP2 POP POP PUSH2 0xDBD JUMP JUMPDEST POP POP POP POP POP POP POP POP POP POP POP POP JUMP JUMPDEST PUSH1 0x0 DUP2 PUSH20 0xFFFFFFFFFFFFFFFFFFFFFFFFFFFFFFFFFFFFFFFF AND PUSH1 0x0 SHL SWAP1 POP SWAP2 SWAP1 POP JUMP JUMPDEST PUSH1 0x0 DUP1 SHL PUSH1 0x2 PUSH1 0x0 DUP5 DUP2 MSTORE PUSH1 0x20 ADD SWAP1 DUP2 MSTORE PUSH1 0x20 ADD PUSH1 0x0 KECCAK256 SLOAD EQ PUSH2 0xF6E JUMPI PUSH1 0x40 MLOAD PUSH32 0x8C379A000000000000000000000000000000000000000000000000000000000 DUP2 MSTORE PUSH1 0x4 ADD PUSH2 0xF65 SWAP1 PUSH2 0x1A7D JUMP JUMPDEST PUSH1 0x40 MLOAD DUP1 SWAP2 SUB SWAP1 REVERT JUMPDEST DUP1 PUSH1 0x2 PUSH1 0x0 DUP5 DUP2 MSTORE PUSH1 0x20 ADD SWAP1 DUP2 MSTORE PUSH1 0x20 ADD PUSH1 0x0 KECCAK256 DUP2 SWAP1 SSTORE POP POP POP JUMP JUMPDEST PUSH1 0x0 DUP1 DUP3 PUSH1 0xA0 SHR PUSH12 0xFFFFFFFFFFFFFFFFFFFFFFFF AND EQ SWAP1 POP SWAP2 SWAP1 POP JUMP JUMPDEST PUSH1 0x0 DUP2 PUSH1 0x0 SHR SWAP1 POP SWAP2 SWAP1 POP JUMP JUMPDEST POP POP JUMP JUMPDEST PUSH1 0x0 PUSH2 0xFFA DUP4 DUP4 PUSH1 0x40 MLOAD DUP1 PUSH1 0x40 ADD PUSH1 0x40 MSTORE DUP1 PUSH1 0x1E DUP2 MSTORE PUSH1 0x20 ADD PUSH32 0x536166654D6174683A207375627472616374696F6E206F766572666C6F770000 DUP2 MSTORE POP PUSH2 0x1002 JUMP JUMPDEST SWAP1 POP SWAP3 SWAP2 POP POP JUMP JUMPDEST PUSH1 0x0 DUP4 DUP4 GT ISZERO DUP3 SWAP1 PUSH2 0x104A JUMPI PUSH1 0x40 MLOAD PUSH32 0x8C379A000000000000000000000000000000000000000000000000000000000 DUP2 MSTORE PUSH1 0x4 ADD PUSH2 0x1041 SWAP2 SWAP1 PUSH2 0x1A1B JUMP JUMPDEST PUSH1 0x40 MLOAD DUP1 SWAP2 SUB SWAP1 REVERT JUMPDEST POP PUSH1 0x0 DUP4 DUP6 SUB SWAP1 POP DUP1 SWAP2 POP POP SWAP4 SWAP3 POP POP POP JUMP JUMPDEST PUSH1 0x40 MLOAD DUP1 PUSH1 0x40 ADD PUSH1 0x40 MSTORE DUP1 PUSH1 0x0 DUP1 NOT AND DUP2 MSTORE PUSH1 0x20 ADD PUSH1 0x60 DUP2 MSTORE POP SWAP1 JUMP JUMPDEST PUSH1 0x40 MLOAD DUP1 PUSH1 0x40 ADD PUSH1 0x40 MSTORE DUP1 PUSH1 0x0 DUP1 NOT AND DUP2 MSTORE PUSH1 0x20 ADD PUSH1 0x0 DUP2 MSTORE POP SWAP1 JUMP JUMPDEST PUSH1 0x0 DUP2 CALLDATALOAD SWAP1 POP PUSH2 0x10A6 DUP2 PUSH2 0x1CE6 JUMP JUMPDEST SWAP3 SWAP2 POP POP JUMP JUMPDEST PUSH1 0x0 DUP3 PUSH1 0x1F DUP4 ADD SLT PUSH2 0x10BD JUMPI PUSH1 0x0 DUP1 REVERT JUMPDEST DUP2 MLOAD PUSH2 0x10D0 PUSH2 0x10CB DUP3 PUSH2 0x1B47 JUMP JUMPDEST PUSH2 0x1B1A JUMP JUMPDEST SWAP2 POP DUP2 DUP2 DUP4 MSTORE PUSH1 0x20 DUP5 ADD SWAP4 POP PUSH1 0x20 DUP2 ADD SWAP1 POP DUP4 DUP6 PUSH1 0x20 DUP5 MUL DUP3 ADD GT ISZERO PUSH2 0x10F5 JUMPI PUSH1 0x0 DUP1 REVERT JUMPDEST PUSH1 0x0 JUMPDEST DUP4 DUP2 LT ISZERO PUSH2 0x1125 JUMPI DUP2 PUSH2 0x110B DUP9 DUP3 PUSH2 0x11C7 JUMP JUMPDEST DUP5 MSTORE PUSH1 0x20 DUP5 ADD SWAP4 POP PUSH1 0x20 DUP4 ADD SWAP3 POP POP PUSH1 0x1 DUP2 ADD SWAP1 POP PUSH2 0x10F8 JUMP JUMPDEST POP POP POP POP SWAP3 SWAP2 POP POP JUMP JUMPDEST PUSH1 0x0 DUP3 PUSH1 0x1F DUP4 ADD SLT PUSH2 0x1140 JUMPI PUSH1 0x0 DUP1 REVERT JUMPDEST DUP2 MLOAD PUSH2 0x1153 PUSH2 0x114E DUP3 PUSH2 0x1B6F JUMP JUMPDEST PUSH2 0x1B1A JUMP JUMPDEST SWAP2 POP DUP2 DUP2 DUP4 MSTORE PUSH1 0x20 DUP5 ADD SWAP4 POP PUSH1 0x20 DUP2 ADD SWAP1 POP DUP4 DUP6 PUSH1 0x40 DUP5 MUL DUP3 ADD GT ISZERO PUSH2 0x1178 JUMPI PUSH1 0x0 DUP1 REVERT JUMPDEST PUSH1 0x0 JUMPDEST DUP4 DUP2 LT ISZERO PUSH2 0x11A8 JUMPI DUP2 PUSH2 0x118E DUP9 DUP3 PUSH2 0x127A JUMP JUMPDEST DUP5 MSTORE PUSH1 0x20 DUP5 ADD SWAP4 POP PUSH1 0x40 DUP4 ADD SWAP3 POP POP PUSH1 0x1 DUP2 ADD SWAP1 POP PUSH2 0x117B JUMP JUMPDEST POP POP POP POP SWAP3 SWAP2 POP POP JUMP JUMPDEST PUSH1 0x0 DUP2 CALLDATALOAD SWAP1 POP PUSH2 0x11C1 DUP2 PUSH2 0x1CFD JUMP JUMPDEST SWAP3 SWAP2 POP POP JUMP JUMPDEST PUSH1 0x0 DUP2 MLOAD SWAP1 POP PUSH2 0x11D6 DUP2 PUSH2 0x1CFD JUMP JUMPDEST SWAP3 SWAP2 POP POP JUMP JUMPDEST PUSH1 0x0 DUP1 DUP4 PUSH1 0x1F DUP5 ADD SLT PUSH2 0x11EE JUMPI PUSH1 0x0 DUP1 REVERT JUMPDEST DUP3 CALLDATALOAD SWAP1 POP PUSH8 0xFFFFFFFFFFFFFFFF DUP2 GT ISZERO PUSH2 0x1207 JUMPI PUSH1 0x0 DUP1 REVERT JUMPDEST PUSH1 0x20 DUP4 ADD SWAP2 POP DUP4 PUSH1 0x1 DUP3 MUL DUP4 ADD GT ISZERO PUSH2 0x121F JUMPI PUSH1 0x0 DUP1 REVERT JUMPDEST SWAP3 POP SWAP3 SWAP1 POP JUMP JUMPDEST PUSH1 0x0 DUP3 PUSH1 0x1F DUP4 ADD SLT PUSH2 0x1237 JUMPI PUSH1 0x0 DUP1 REVERT JUMPDEST DUP2 CALLDATALOAD PUSH2 0x124A PUSH2 0x1245 DUP3 PUSH2 0x1B97 JUMP JUMPDEST PUSH2 0x1B1A JUMP JUMPDEST SWAP2 POP DUP1 DUP3 MSTORE PUSH1 0x20 DUP4 ADD PUSH1 0x20 DUP4 ADD DUP6 DUP4 DUP4 ADD GT ISZERO PUSH2 0x1266 JUMPI PUSH1 0x0 DUP1 REVERT JUMPDEST PUSH2 0x1271 DUP4 DUP3 DUP5 PUSH2 0x1C93 JUMP JUMPDEST POP POP POP SWAP3 SWAP2 POP POP JUMP JUMPDEST PUSH1 0x0 PUSH1 0x40 DUP3 DUP5 SUB SLT ISZERO PUSH2 0x128C JUMPI PUSH1 0x0 DUP1 REVERT JUMPDEST PUSH2 0x1296 PUSH1 0x40 PUSH2 0x1B1A JUMP JUMPDEST SWAP1 POP PUSH1 0x0 PUSH2 0x12A6 DUP5 DUP3 DUP6 ADD PUSH2 0x11C7 JUMP JUMPDEST PUSH1 0x0 DUP4 ADD MSTORE POP PUSH1 0x20 PUSH2 0x12BA DUP5 DUP3 DUP6 ADD PUSH2 0x133F JUMP JUMPDEST PUSH1 0x20 DUP4 ADD MSTORE POP SWAP3 SWAP2 POP POP JUMP JUMPDEST PUSH1 0x0 PUSH1 0x40 DUP3 DUP5 SUB SLT ISZERO PUSH2 0x12D8 JUMPI PUSH1 0x0 DUP1 REVERT JUMPDEST PUSH2 0x12E2 PUSH1 0x40 PUSH2 0x1B1A JUMP JUMPDEST SWAP1 POP PUSH1 0x0 PUSH2 0x12F2 DUP5 DUP3 DUP6 ADD PUSH2 0x11C7 JUMP JUMPDEST PUSH1 0x0 DUP4 ADD MSTORE POP PUSH1 0x20 DUP3 ADD MLOAD PUSH8 0xFFFFFFFFFFFFFFFF DUP2 GT ISZERO PUSH2 0x1312 JUMPI PUSH1 0x0 DUP1 REVERT JUMPDEST PUSH2 0x131E DUP5 DUP3 DUP6 ADD PUSH2 0x10AC JUMP JUMPDEST PUSH1 0x20 DUP4 ADD MSTORE POP SWAP3 SWAP2 POP POP JUMP JUMPDEST PUSH1 0x0 DUP2 CALLDATALOAD SWAP1 POP PUSH2 0x1339 DUP2 PUSH2 0x1D14 JUMP JUMPDEST SWAP3 SWAP2 POP POP JUMP JUMPDEST PUSH1 0x0 DUP2 MLOAD SWAP1 POP PUSH2 0x134E DUP2 PUSH2 0x1D14 JUMP JUMPDEST SWAP3 SWAP2 POP POP JUMP JUMPDEST PUSH1 0x0 PUSH1 0x20 DUP3 DUP5 SUB SLT ISZERO PUSH2 0x1366 JUMPI PUSH1 0x0 DUP1 REVERT JUMPDEST PUSH1 0x0 PUSH2 0x1374 DUP5 DUP3 DUP6 ADD PUSH2 0x1097 JUMP JUMPDEST SWAP2 POP POP SWAP3 SWAP2 POP POP JUMP JUMPDEST PUSH1 0x0 PUSH1 0x20 DUP3 DUP5 SUB SLT ISZERO PUSH2 0x138F JUMPI PUSH1 0x0 DUP1 REVERT JUMPDEST PUSH1 0x0 DUP3 ADD MLOAD PUSH8 0xFFFFFFFFFFFFFFFF DUP2 GT ISZERO PUSH2 0x13A9 JUMPI PUSH1 0x0 DUP1 REVERT JUMPDEST PUSH2 0x13B5 DUP5 DUP3 DUP6 ADD PUSH2 0x112F JUMP JUMPDEST SWAP2 POP POP SWAP3 SWAP2 POP POP JUMP JUMPDEST PUSH1 0x0 PUSH1 0x20 DUP3 DUP5 SUB SLT ISZERO PUSH2 0x13D0 JUMPI PUSH1 0x0 DUP1 REVERT JUMPDEST PUSH1 0x0 PUSH2 0x13DE DUP5 DUP3 DUP6 ADD PUSH2 0x11B2 JUMP JUMPDEST SWAP2 POP POP SWAP3 SWAP2 POP POP JUMP JUMPDEST PUSH1 0x0 DUP1 PUSH1 0x40 DUP4 DUP6 SUB SLT ISZERO PUSH2 0x13FA JUMPI PUSH1 0x0 DUP1 REVERT JUMPDEST PUSH1 0x0 PUSH2 0x1408 DUP6 DUP3 DUP7 ADD PUSH2 0x11B2 JUMP JUMPDEST SWAP3 POP POP PUSH1 0x20 PUSH2 0x1419 DUP6 DUP3 DUP7 ADD PUSH2 0x11B2 JUMP JUMPDEST SWAP2 POP POP SWAP3 POP SWAP3 SWAP1 POP JUMP JUMPDEST PUSH1 0x0 DUP1 PUSH1 0x0 PUSH1 0x40 DUP5 DUP7 SUB SLT ISZERO PUSH2 0x1438 JUMPI PUSH1 0x0 DUP1 REVERT JUMPDEST PUSH1 0x0 PUSH2 0x1446 DUP7 DUP3 DUP8 ADD PUSH2 0x11B2 JUMP JUMPDEST SWAP4 POP POP PUSH1 0x20 DUP5 ADD CALLDATALOAD PUSH8 0xFFFFFFFFFFFFFFFF DUP2 GT ISZERO PUSH2 0x1463 JUMPI PUSH1 0x0 DUP1 REVERT JUMPDEST PUSH2 0x146F DUP7 DUP3 DUP8 ADD PUSH2 0x11DC JUMP JUMPDEST SWAP3 POP SWAP3 POP POP SWAP3 POP SWAP3 POP SWAP3 JUMP JUMPDEST PUSH1 0x0 DUP1 PUSH1 0x40 DUP4 DUP6 SUB SLT ISZERO PUSH2 0x148E JUMPI PUSH1 0x0 DUP1 REVERT JUMPDEST PUSH1 0x0 PUSH2 0x149C DUP6 DUP3 DUP7 ADD PUSH2 0x11B2 JUMP JUMPDEST SWAP3 POP POP PUSH1 0x20 DUP4 ADD CALLDATALOAD PUSH8 0xFFFFFFFFFFFFFFFF DUP2 GT ISZERO PUSH2 0x14B9 JUMPI PUSH1 0x0 DUP1 REVERT JUMPDEST PUSH2 0x14C5 DUP6 DUP3 DUP7 ADD PUSH2 0x1226 JUMP JUMPDEST SWAP2 POP POP SWAP3 POP SWAP3 SWAP1 POP JUMP JUMPDEST PUSH1 0x0 DUP1 PUSH1 0x0 PUSH1 0x60 DUP5 DUP7 SUB SLT ISZERO PUSH2 0x14E4 JUMPI PUSH1 0x0 DUP1 REVERT JUMPDEST PUSH1 0x0 PUSH2 0x14F2 DUP7 DUP3 DUP8 ADD PUSH2 0x11B2 JUMP JUMPDEST SWAP4 POP POP PUSH1 0x20 DUP5 ADD CALLDATALOAD PUSH8 0xFFFFFFFFFFFFFFFF DUP2 GT ISZERO PUSH2 0x150F JUMPI PUSH1 0x0 DUP1 REVERT JUMPDEST PUSH2 0x151B DUP7 DUP3 DUP8 ADD PUSH2 0x1226 JUMP JUMPDEST SWAP3 POP POP PUSH1 0x40 DUP5 ADD CALLDATALOAD PUSH8 0xFFFFFFFFFFFFFFFF DUP2 GT ISZERO PUSH2 0x1538 JUMPI PUSH1 0x0 DUP1 REVERT JUMPDEST PUSH2 0x1544 DUP7 DUP3 DUP8 ADD PUSH2 0x1226 JUMP JUMPDEST SWAP2 POP POP SWAP3 POP SWAP3 POP SWAP3 JUMP JUMPDEST PUSH1 0x0 DUP1 PUSH1 0x40 DUP4 DUP6 SUB SLT ISZERO PUSH2 0x1561 JUMPI PUSH1 0x0 DUP1 REVERT JUMPDEST PUSH1 0x0 PUSH2 0x156F DUP6 DUP3 DUP7 ADD PUSH2 0x11B2 JUMP JUMPDEST SWAP3 POP POP PUSH1 0x20 PUSH2 0x1580 DUP6 DUP3 DUP7 ADD PUSH2 0x132A JUMP JUMPDEST SWAP2 POP POP SWAP3 POP SWAP3 SWAP1 POP JUMP JUMPDEST PUSH1 0x0 PUSH1 0x20 DUP3 DUP5 SUB SLT ISZERO PUSH2 0x159C JUMPI PUSH1 0x0 DUP1 REVERT JUMPDEST PUSH1 0x0 DUP3 ADD MLOAD PUSH8 0xFFFFFFFFFFFFFFFF DUP2 GT ISZERO PUSH2 0x15B6 JUMPI PUSH1 0x0 DUP1 REVERT JUMPDEST PUSH2 0x15C2 DUP5 DUP3 DUP6 ADD PUSH2 0x12C6 JUMP JUMPDEST SWAP2 POP POP SWAP3 SWAP2 POP POP JUMP JUMPDEST PUSH1 0x0 PUSH2 0x15D7 DUP4 DUP4 PUSH2 0x192A JUMP JUMPDEST PUSH1 0x40 DUP4 ADD SWAP1 POP SWAP3 SWAP2 POP POP JUMP JUMPDEST PUSH1 0x0 PUSH2 0x15EE DUP3 PUSH2 0x1BD3 JUMP JUMPDEST PUSH2 0x15F8 DUP2 DUP6 PUSH2 0x1C01 JUMP JUMPDEST SWAP4 POP PUSH2 0x1603 DUP4 PUSH2 0x1BC3 JUMP JUMPDEST DUP1 PUSH1 0x0 JUMPDEST DUP4 DUP2 LT ISZERO PUSH2 0x1634 JUMPI DUP2 MLOAD PUSH2 0x161B DUP9 DUP3 PUSH2 0x15CB JUMP JUMPDEST SWAP8 POP PUSH2 0x1626 DUP4 PUSH2 0x1BF4 JUMP JUMPDEST SWAP3 POP POP PUSH1 0x1 DUP2 ADD SWAP1 POP PUSH2 0x1607 JUMP JUMPDEST POP DUP6 SWAP4 POP POP POP POP SWAP3 SWAP2 POP POP JUMP JUMPDEST PUSH2 0x164A DUP2 PUSH2 0x1C46 JUMP JUMPDEST DUP3 MSTORE POP POP JUMP JUMPDEST PUSH2 0x1659 DUP2 PUSH2 0x1C52 JUMP JUMPDEST DUP3 MSTORE POP POP JUMP JUMPDEST PUSH2 0x1668 DUP2 PUSH2 0x1C52 JUMP JUMPDEST DUP3 MSTORE POP POP JUMP JUMPDEST PUSH1 0x0 PUSH2 0x1679 DUP3 PUSH2 0x1BDE JUMP JUMPDEST PUSH2 0x1683 DUP2 DUP6 PUSH2 0x1C12 JUMP JUMPDEST SWAP4 POP PUSH2 0x1693 DUP2 DUP6 PUSH1 0x20 DUP7 ADD PUSH2 0x1CA2 JUMP JUMPDEST PUSH2 0x169C DUP2 PUSH2 0x1CD5 JUMP JUMPDEST DUP5 ADD SWAP2 POP POP SWAP3 SWAP2 POP POP JUMP JUMPDEST PUSH1 0x0 PUSH2 0x16B2 DUP3 PUSH2 0x1BE9 JUMP JUMPDEST PUSH2 0x16BC DUP2 DUP6 PUSH2 0x1C23 JUMP JUMPDEST SWAP4 POP PUSH2 0x16CC DUP2 DUP6 PUSH1 0x20 DUP7 ADD PUSH2 0x1CA2 JUMP JUMPDEST PUSH2 0x16D5 DUP2 PUSH2 0x1CD5 JUMP JUMPDEST DUP5 ADD SWAP2 POP POP SWAP3 SWAP2 POP POP JUMP JUMPDEST PUSH1 0x0 PUSH2 0x16ED PUSH1 0x43 DUP4 PUSH2 0x1C23 JUMP JUMPDEST SWAP2 POP PUSH32 0x7472616E73666572416C6C207C207375626D6974746564206461746120646F65 PUSH1 0x0 DUP4 ADD MSTORE PUSH32 0x73206E6F74206D617463682073746F7265642061737365744F7574636F6D6548 PUSH1 0x20 DUP4 ADD MSTORE PUSH32 0x6173680000000000000000000000000000000000000000000000000000000000 PUSH1 0x40 DUP4 ADD MSTORE PUSH1 0x60 DUP3 ADD SWAP1 POP SWAP2 SWAP1 POP JUMP JUMPDEST PUSH1 0x0 PUSH2 0x1779 PUSH1 0x58 DUP4 PUSH2 0x1C23 JUMP JUMPDEST SWAP2 POP PUSH32 0x636C61696D416C6C207C207375626D6974746564206461746120646F6573206E PUSH1 0x0 DUP4 ADD MSTORE PUSH32 0x6F74206D617463682061737365744F7574636F6D65486173682073746F726564 PUSH1 0x20 DUP4 ADD MSTORE PUSH32 0x20616761696E7374207461726765744368616E6E656C49640000000000000000 PUSH1 0x40 DUP4 ADD MSTORE PUSH1 0x60 DUP3 ADD SWAP1 POP SWAP2 SWAP1 POP JUMP JUMPDEST PUSH1 0x0 PUSH2 0x1805 PUSH1 0x1B DUP4 PUSH2 0x1C23 JUMP JUMPDEST SWAP2 POP PUSH32 0x4F7574636F6D65206861736820616C7265616479206578697374730000000000 PUSH1 0x0 DUP4 ADD MSTORE PUSH1 0x20 DUP3 ADD SWAP1 POP SWAP2 SWAP1 POP JUMP JUMPDEST PUSH1 0x0 PUSH2 0x1845 PUSH1 0x5B DUP4 PUSH2 0x1C23 JUMP JUMPDEST SWAP2 POP PUSH32 0x636C61696D416C6C207C207375626D6974746564206461746120646F6573206E PUSH1 0x0 DUP4 ADD MSTORE PUSH32 0x6F74206D617463682061737365744F7574636F6D65486173682073746F726564 PUSH1 0x20 DUP4 ADD MSTORE PUSH32 0x20616761696E73742067756172616E746F724368616E6E656C49640000000000 PUSH1 0x40 DUP4 ADD MSTORE PUSH1 0x60 DUP3 ADD SWAP1 POP SWAP2 SWAP1 POP JUMP JUMPDEST PUSH1 0x0 PUSH2 0x18D1 PUSH1 0x27 DUP4 PUSH2 0x1C23 JUMP JUMPDEST SWAP2 POP PUSH32 0x4F6E6C7920746865204E6974726F41646A7564696361746F7220697320617574 PUSH1 0x0 DUP4 ADD MSTORE PUSH32 0x686F72697A656400000000000000000000000000000000000000000000000000 PUSH1 0x20 DUP4 ADD MSTORE PUSH1 0x40 DUP3 ADD SWAP1 POP SWAP2 SWAP1 POP JUMP JUMPDEST PUSH1 0x40 DUP3 ADD PUSH1 0x0 DUP3 ADD MLOAD PUSH2 0x1940 PUSH1 0x0 DUP6 ADD DUP3 PUSH2 0x1650 JUMP JUMPDEST POP PUSH1 0x20 DUP3 ADD MLOAD PUSH2 0x1953 PUSH1 0x20 DUP6 ADD DUP3 PUSH2 0x1996 JUMP JUMPDEST POP POP POP POP JUMP JUMPDEST PUSH1 0x0 PUSH1 0x40 DUP4 ADD PUSH1 0x0 DUP4 ADD MLOAD PUSH2 0x1971 PUSH1 0x0 DUP7 ADD DUP3 PUSH2 0x19B4 JUMP JUMPDEST POP PUSH1 0x20 DUP4 ADD MLOAD DUP5 DUP3 SUB PUSH1 0x20 DUP7 ADD MSTORE PUSH2 0x1989 DUP3 DUP3 PUSH2 0x166E JUMP JUMPDEST SWAP2 POP POP DUP1 SWAP2 POP POP SWAP3 SWAP2 POP POP JUMP JUMPDEST PUSH2 0x199F DUP2 PUSH2 0x1C7C JUMP JUMPDEST DUP3 MSTORE POP POP JUMP JUMPDEST PUSH2 0x19AE DUP2 PUSH2 0x1C7C JUMP JUMPDEST DUP3 MSTORE POP POP JUMP JUMPDEST PUSH2 0x19BD DUP2 PUSH2 0x1C86 JUMP JUMPDEST DUP3 MSTORE POP POP JUMP JUMPDEST PUSH1 0x0 PUSH1 0x20 DUP3 ADD SWAP1 POP DUP2 DUP2 SUB PUSH1 0x0 DUP4 ADD MSTORE PUSH2 0x19DD DUP2 DUP5 PUSH2 0x15E3 JUMP JUMPDEST SWAP1 POP SWAP3 SWAP2 POP POP JUMP JUMPDEST PUSH1 0x0 PUSH1 0x20 DUP3 ADD SWAP1 POP PUSH2 0x19FA PUSH1 0x0 DUP4 ADD DUP5 PUSH2 0x1641 JUMP JUMPDEST SWAP3 SWAP2 POP POP JUMP JUMPDEST PUSH1 0x0 PUSH1 0x20 DUP3 ADD SWAP1 POP PUSH2 0x1A15 PUSH1 0x0 DUP4 ADD DUP5 PUSH2 0x165F JUMP JUMPDEST SWAP3 SWAP2 POP POP JUMP JUMPDEST PUSH1 0x0 PUSH1 0x20 DUP3 ADD SWAP1 POP DUP2 DUP2 SUB PUSH1 0x0 DUP4 ADD MSTORE PUSH2 0x1A35 DUP2 DUP5 PUSH2 0x16A7 JUMP JUMPDEST SWAP1 POP SWAP3 SWAP2 POP POP JUMP JUMPDEST PUSH1 0x0 PUSH1 0x20 DUP3 ADD SWAP1 POP DUP2 DUP2 SUB PUSH1 0x0 DUP4 ADD MSTORE PUSH2 0x1A56 DUP2 PUSH2 0x16E0 JUMP JUMPDEST SWAP1 POP SWAP2 SWAP1 POP JUMP JUMPDEST PUSH1 0x0 PUSH1 0x20 DUP3 ADD SWAP1 POP DUP2 DUP2 SUB PUSH1 0x0 DUP4 ADD MSTORE PUSH2 0x1A76 DUP2 PUSH2 0x176C JUMP JUMPDEST SWAP1 POP SWAP2 SWAP1 POP JUMP JUMPDEST PUSH1 0x0 PUSH1 0x20 DUP3 ADD SWAP1 POP DUP2 DUP2 SUB PUSH1 0x0 DUP4 ADD MSTORE PUSH2 0x1A96 DUP2 PUSH2 0x17F8 JUMP JUMPDEST SWAP1 POP SWAP2 SWAP1 POP JUMP JUMPDEST PUSH1 0x0 PUSH1 0x20 DUP3 ADD SWAP1 POP DUP2 DUP2 SUB PUSH1 0x0 DUP4 ADD MSTORE PUSH2 0x1AB6 DUP2 PUSH2 0x1838 JUMP JUMPDEST SWAP1 POP SWAP2 SWAP1 POP JUMP JUMPDEST PUSH1 0x0 PUSH1 0x20 DUP3 ADD SWAP1 POP DUP2 DUP2 SUB PUSH1 0x0 DUP4 ADD MSTORE PUSH2 0x1AD6 DUP2 PUSH2 0x18C4 JUMP JUMPDEST SWAP1 POP SWAP2 SWAP1 POP JUMP JUMPDEST PUSH1 0x0 PUSH1 0x20 DUP3 ADD SWAP1 POP DUP2 DUP2 SUB PUSH1 0x0 DUP4 ADD MSTORE PUSH2 0x1AF7 DUP2 DUP5 PUSH2 0x1959 JUMP JUMPDEST SWAP1 POP SWAP3 SWAP2 POP POP JUMP JUMPDEST PUSH1 0x0 PUSH1 0x20 DUP3 ADD SWAP1 POP PUSH2 0x1B14 PUSH1 0x0 DUP4 ADD DUP5 PUSH2 0x19A5 JUMP JUMPDEST SWAP3 SWAP2 POP POP JUMP JUMPDEST PUSH1 0x0 PUSH1 0x40 MLOAD SWAP1 POP DUP2 DUP2 ADD DUP2 DUP2 LT PUSH8 0xFFFFFFFFFFFFFFFF DUP3 GT OR ISZERO PUSH2 0x1B3D JUMPI PUSH1 0x0 DUP1 REVERT JUMPDEST DUP1 PUSH1 0x40 MSTORE POP SWAP2 SWAP1 POP JUMP JUMPDEST PUSH1 0x0 PUSH8 0xFFFFFFFFFFFFFFFF DUP3 GT ISZERO PUSH2 0x1B5E JUMPI PUSH1 0x0 DUP1 REVERT JUMPDEST PUSH1 0x20 DUP3 MUL SWAP1 POP PUSH1 0x20 DUP2 ADD SWAP1 POP SWAP2 SWAP1 POP JUMP JUMPDEST PUSH1 0x0 PUSH8 0xFFFFFFFFFFFFFFFF DUP3 GT ISZERO PUSH2 0x1B86 JUMPI PUSH1 0x0 DUP1 REVERT JUMPDEST PUSH1 0x20 DUP3 MUL SWAP1 POP PUSH1 0x20 DUP2 ADD SWAP1 POP SWAP2 SWAP1 POP JUMP JUMPDEST PUSH1 0x0 PUSH8 0xFFFFFFFFFFFFFFFF DUP3 GT ISZERO PUSH2 0x1BAE JUMPI PUSH1 0x0 DUP1 REVERT JUMPDEST PUSH1 0x1F NOT PUSH1 0x1F DUP4 ADD AND SWAP1 POP PUSH1 0x20 DUP2 ADD SWAP1 POP SWAP2 SWAP1 POP JUMP JUMPDEST PUSH1 0x0 DUP2 SWAP1 POP PUSH1 0x20 DUP3 ADD SWAP1 POP SWAP2 SWAP1 POP JUMP JUMPDEST PUSH1 0x0 DUP2 MLOAD SWAP1 POP SWAP2 SWAP1 POP JUMP JUMPDEST PUSH1 0x0 DUP2 MLOAD SWAP1 POP SWAP2 SWAP1 POP JUMP JUMPDEST PUSH1 0x0 DUP2 MLOAD SWAP1 POP SWAP2 SWAP1 POP JUMP JUMPDEST PUSH1 0x0 PUSH1 0x20 DUP3 ADD SWAP1 POP SWAP2 SWAP1 POP JUMP JUMPDEST PUSH1 0x0 DUP3 DUP3 MSTORE PUSH1 0x20 DUP3 ADD SWAP1 POP SWAP3 SWAP2 POP POP JUMP JUMPDEST PUSH1 0x0 DUP3 DUP3 MSTORE PUSH1 0x20 DUP3 ADD SWAP1 POP SWAP3 SWAP2 POP POP JUMP JUMPDEST PUSH1 0x0 DUP3 DUP3 MSTORE PUSH1 0x20 DUP3 ADD SWAP1 POP SWAP3 SWAP2 POP POP JUMP JUMPDEST PUSH1 0x0 PUSH2 0x1C3F DUP3 PUSH2 0x1C5C JUMP JUMPDEST SWAP1 POP SWAP2 SWAP1 POP JUMP JUMPDEST PUSH1 0x0 DUP2 ISZERO ISZERO SWAP1 POP SWAP2 SWAP1 POP JUMP JUMPDEST PUSH1 0x0 DUP2 SWAP1 POP SWAP2 SWAP1 POP JUMP JUMPDEST PUSH1 0x0 PUSH20 0xFFFFFFFFFFFFFFFFFFFFFFFFFFFFFFFFFFFFFFFF DUP3 AND SWAP1 POP SWAP2 SWAP1 POP JUMP JUMPDEST PUSH1 0x0 DUP2 SWAP1 POP SWAP2 SWAP1 POP JUMP JUMPDEST PUSH1 0x0 PUSH1 0xFF DUP3 AND SWAP1 POP SWAP2 SWAP1 POP JUMP JUMPDEST DUP3 DUP2 DUP4 CALLDATACOPY PUSH1 0x0 DUP4 DUP4 ADD MSTORE POP POP POP JUMP JUMPDEST PUSH1 0x0 JUMPDEST DUP4 DUP2 LT ISZERO PUSH2 0x1CC0 JUMPI DUP1 DUP3 ADD MLOAD DUP2 DUP5 ADD MSTORE PUSH1 0x20 DUP2 ADD SWAP1 POP PUSH2 0x1CA5 JUMP JUMPDEST DUP4 DUP2 GT ISZERO PUSH2 0x1CCF JUMPI PUSH1 0x0 DUP5 DUP5 ADD MSTORE JUMPDEST POP POP POP POP JUMP JUMPDEST PUSH1 0x0 PUSH1 0x1F NOT PUSH1 0x1F DUP4 ADD AND SWAP1 POP SWAP2 SWAP1 POP JUMP JUMPDEST PUSH2 0x1CEF DUP2 PUSH2 0x1C34 JUMP JUMPDEST DUP2 EQ PUSH2 0x1CFA JUMPI PUSH1 0x0 DUP1 REVERT JUMPDEST POP JUMP JUMPDEST PUSH2 0x1D06 DUP2 PUSH2 0x1C52 JUMP JUMPDEST DUP2 EQ PUSH2 0x1D11 JUMPI PUSH1 0x0 DUP1 REVERT JUMPDEST POP JUMP JUMPDEST PUSH2 0x1D1D DUP2 PUSH2 0x1C7C JUMP JUMPDEST DUP2 EQ PUSH2 0x1D28 JUMPI PUSH1 0x0 DUP1 REVERT JUMPDEST POP JUMP INVALID LOG2 PUSH5 0x6970667358 0x22 SLT KECCAK256 0xF6 DUP14 PUSH3 0x83DAE2 SMOD 0x4F PUSH11 0x28103F6B604BA3FA9DBEDE AND CREATE2 GAS 0xD7 0xD 0xD4 0xFB 0x2E 0x26 0xF SGT SDIV PUSH5 0x736F6C6343 STOP MOD MUL STOP CALLER "
    }
  },
  "sourcePath": "contracts/test/TESTAssetHolder2.sol",
  "contractName": "TESTAssetHolder2",
  "compiler": {
    "version": "unknown"
  }
}