{
  "_format": "hh-sol-artifact-1",
  "contractName": "BuyModule",
  "sourceName": "contracts/modules/BuyModule.sol",
  "abi": [
    {
      "inputs": [
        {
          "internalType": "string",
          "name": "_name",
          "type": "string"
        }
      ],
      "stateMutability": "nonpayable",
      "type": "constructor"
    },
    {
      "inputs": [
        {
          "internalType": "uint256",
          "name": "tokenId",
          "type": "uint256"
        },
        {
          "internalType": "address",
          "name": "registry",
          "type": "address"
        }
      ],
      "name": "buyNFI",
      "outputs": [],
      "stateMutability": "nonpayable",
      "type": "function"
    },
    {
      "inputs": [],
      "name": "name",
      "outputs": [
        {
          "internalType": "string",
          "name": "",
          "type": "string"
        }
      ],
      "stateMutability": "view",
      "type": "function"
    }
  ],
  "bytecode": "0x60806040523480156200001157600080fd5b5060405162000a7838038062000a788339810160408190526200003491620000f7565b80516200004990600090602084019062000051565b505062000220565b8280546200005f90620001cd565b90600052602060002090601f016020900481019282620000835760008555620000ce565b82601f106200009e57805160ff1916838001178555620000ce565b82800160010185558215620000ce579182015b82811115620000ce578251825591602001919060010190620000b1565b50620000dc929150620000e0565b5090565b5b80821115620000dc5760008155600101620000e1565b600060208083850312156200010a578182fd5b82516001600160401b038082111562000121578384fd5b818501915085601f83011262000135578384fd5b8151818111156200014a576200014a6200020a565b604051601f8201601f19908116603f011681019083821181831017156200017557620001756200020a565b8160405282815288868487010111156200018d578687fd5b8693505b82841015620001b0578484018601518185018701529285019262000191565b82841115620001c157868684830101525b98975050505050505050565b600181811c90821680620001e257607f821691505b602082108114156200020457634e487b7160e01b600052602260045260246000fd5b50919050565b634e487b7160e01b600052604160045260246000fd5b61084880620002306000396000f3fe608060405234801561001057600080fd5b50600436106100365760003560e01c806306fdde031461003b57806324584bdb14610059575b600080fd5b61004361006e565b604051610050919061076c565b60405180910390f35b61006c61006736600461073d565b6100fc565b005b6000805461007b906107bf565b80601f01602080910402602001604051908101604052809291908181526020018280546100a7906107bf565b80156100f45780601f106100c9576101008083540402835291602001916100f4565b820191906000526020600020905b8154815290600101906020018083116100d757829003601f168201915b505050505081565b6040516331a9108f60e11b8152600481018390526000906001600160a01b03831690636352211e9060240160206040518083038186803b15801561013f57600080fd5b505afa158015610153573d6000803e3d6000fd5b505050506040513d601f19601f8201168201806040525081019061017791906106e2565b90506000826001600160a01b03166314c44e096040518163ffffffff1660e01b815260040160206040518083038186803b1580156101b457600080fd5b505afa1580156101c8573d6000803e3d6000fd5b505050506040513d601f19601f820116820180604052508101906101ec9190610725565b9050826001600160a01b03166391d14854846001600160a01b031663f68e95536040518163ffffffff1660e01b815260040160206040518083038186803b15801561023657600080fd5b505afa15801561024a573d6000803e3d6000fd5b505050506040513d601f19601f8201168201806040525081019061026e9190610725565b6040516001600160e01b031960e084901b16815260048101919091526001600160a01b038516602482015260440160206040518083038186803b1580156102b457600080fd5b505afa1580156102c8573d6000803e3d6000fd5b505050506040513d601f19601f820116820180604052508101906102ec9190610705565b61033d5760405162461bcd60e51b815260206004820152601e60248201527f4275794d6f64756c653a20746f6b656e206e6f7420666f722073616c652e000060448201526064015b60405180910390fd5b600081116103a75760405162461bcd60e51b815260206004820152603160248201527f4275794d6f64756c653a207075726368617365207072696365206d7573742062604482015270329033b932b0ba32b9103a3430b710181760791b6064820152608401610334565b826001600160a01b0316634b08b0a36040518163ffffffff1660e01b815260040160206040518083038186803b1580156103e057600080fd5b505afa1580156103f4573d6000803e3d6000fd5b505050506040513d601f19601f8201168201806040525081019061041891906106e2565b6001600160a01b03166323b872dd33856001600160a01b03166370d5ae056040518163ffffffff1660e01b815260040160206040518083038186803b15801561046057600080fd5b505afa158015610474573d6000803e3d6000fd5b505050506040513d601f19601f8201168201806040525081019061049891906106e2565b6040516001600160e01b031960e085901b1681526001600160a01b0392831660048201529116602482015260448101849052606401602060405180830381600087803b1580156104e757600080fd5b505af11580156104fb573d6000803e3d6000fd5b505050506040513d601f19601f8201168201806040525081019061051f9190610705565b61057b5760405162461bcd60e51b815260206004820152602760248201527f4275794d6f64756c653a20455243323020746f6b656e207472616e73666572206044820152663330b4b632b21760c91b6064820152608401610334565b6001600160a01b0383166342842e0e83336040516001600160e01b031960e085901b1681526001600160a01b0392831660048201529116602482015260448101879052606401600060405180830381600087803b1580156105db57600080fd5b505af11580156105ef573d6000803e3d6000fd5b505050506105fa3390565b6040516331a9108f60e11b8152600481018690526001600160a01b0391821691851690636352211e9060240160206040518083038186803b15801561063e57600080fd5b505afa158015610652573d6000803e3d6000fd5b505050506040513d601f19601f8201168201806040525081019061067691906106e2565b6001600160a01b0316146106dc5760405162461bcd60e51b815260206004820152602760248201527f4275794d6f64756c653a204e4649207075726368617365207472616e736665726044820152660819985a5b195960ca1b6064820152608401610334565b50505050565b6000602082840312156106f3578081fd5b81516106fe816107fa565b9392505050565b600060208284031215610716578081fd5b815180151581146106fe578182fd5b600060208284031215610736578081fd5b5051919050565b6000806040838503121561074f578081fd5b823591506020830135610761816107fa565b809150509250929050565b6000602080835283518082850152825b818110156107985785810183015185820160400152820161077c565b818111156107a95783604083870101525b50601f01601f1916929092016040019392505050565b600181811c908216806107d357607f821691505b602082108114156107f457634e487b7160e01b600052602260045260246000fd5b50919050565b6001600160a01b038116811461080f57600080fd5b5056fea2646970667358221220648fd3f0806683ad950efd71a275e5a34c70f19530182fed763d774af14e498164736f6c63430008040033",
  "linkReferences": {},
  "deployedLinkReferences": {}
}