{
  "_format": "hh-sol-artifact-1",
  "contractName": "Test",
  "sourceName": "contracts/utils/Test.sol",
  "abi": [
    {
      "inputs": [],
      "stateMutability": "nonpayable",
      "type": "constructor"
    },
    {
      "anonymous": false,
      "inputs": [
        {
          "indexed": true,
          "internalType": "bytes32",
          "name": "role",
          "type": "bytes32"
        },
        {
          "indexed": true,
          "internalType": "bytes32",
          "name": "previousAdminRole",
          "type": "bytes32"
        },
        {
          "indexed": true,
          "internalType": "bytes32",
          "name": "newAdminRole",
          "type": "bytes32"
        }
      ],
      "name": "RoleAdminChanged",
      "type": "event"
    },
    {
      "anonymous": false,
      "inputs": [
        {
          "indexed": true,
          "internalType": "bytes32",
          "name": "role",
          "type": "bytes32"
        },
        {
          "indexed": true,
          "internalType": "uint256",
          "name": "tokenId",
          "type": "uint256"
        },
        {
          "indexed": true,
          "internalType": "address",
          "name": "sender",
          "type": "address"
        }
      ],
      "name": "RoleGranted",
      "type": "event"
    },
    {
      "anonymous": false,
      "inputs": [
        {
          "indexed": true,
          "internalType": "bytes32",
          "name": "role",
          "type": "bytes32"
        },
        {
          "indexed": true,
          "internalType": "uint256",
          "name": "tokenId",
          "type": "uint256"
        },
        {
          "indexed": true,
          "internalType": "address",
          "name": "sender",
          "type": "address"
        }
      ],
      "name": "RoleRevoked",
      "type": "event"
    },
    {
      "inputs": [],
      "name": "DEFAULT_ADMIN_ROLE",
      "outputs": [
        {
          "internalType": "bytes32",
          "name": "",
          "type": "bytes32"
        }
      ],
      "stateMutability": "view",
      "type": "function"
    },
    {
      "inputs": [
        {
          "internalType": "address",
          "name": "_contract",
          "type": "address"
        }
      ],
      "name": "checkForEIP2981",
      "outputs": [
        {
          "internalType": "bool",
          "name": "",
          "type": "bool"
        }
      ],
      "stateMutability": "view",
      "type": "function"
    },
    {
      "inputs": [
        {
          "internalType": "bytes32",
          "name": "role",
          "type": "bytes32"
        }
      ],
      "name": "getRoleAdmin",
      "outputs": [
        {
          "internalType": "bytes32",
          "name": "",
          "type": "bytes32"
        }
      ],
      "stateMutability": "view",
      "type": "function"
    },
    {
      "inputs": [
        {
          "internalType": "bytes32",
          "name": "role",
          "type": "bytes32"
        },
        {
          "internalType": "uint256",
          "name": "tokenId",
          "type": "uint256"
        }
      ],
      "name": "grantRole",
      "outputs": [],
      "stateMutability": "nonpayable",
      "type": "function"
    },
    {
      "inputs": [
        {
          "internalType": "bytes32",
          "name": "role",
          "type": "bytes32"
        },
        {
          "internalType": "uint256",
          "name": "tokenId",
          "type": "uint256"
        }
      ],
      "name": "hasRole",
      "outputs": [
        {
          "internalType": "bool",
          "name": "",
          "type": "bool"
        }
      ],
      "stateMutability": "view",
      "type": "function"
    },
    {
      "inputs": [
        {
          "internalType": "bytes32",
          "name": "role",
          "type": "bytes32"
        },
        {
          "internalType": "address",
          "name": "account",
          "type": "address"
        }
      ],
      "name": "hasRole",
      "outputs": [
        {
          "internalType": "bool",
          "name": "",
          "type": "bool"
        }
      ],
      "stateMutability": "view",
      "type": "function"
    },
    {
      "inputs": [
        {
          "internalType": "address",
          "name": "nftRegistry",
          "type": "address"
        },
        {
          "internalType": "uint256",
          "name": "tokenId",
          "type": "uint256"
        }
      ],
      "name": "initialize",
      "outputs": [],
      "stateMutability": "nonpayable",
      "type": "function"
    },
    {
      "inputs": [
        {
          "internalType": "bytes32",
          "name": "role",
          "type": "bytes32"
        },
        {
          "internalType": "uint256",
          "name": "tokenId",
          "type": "uint256"
        }
      ],
      "name": "renounceRole",
      "outputs": [],
      "stateMutability": "nonpayable",
      "type": "function"
    },
    {
      "inputs": [
        {
          "internalType": "bytes32",
          "name": "role",
          "type": "bytes32"
        },
        {
          "internalType": "uint256",
          "name": "tokenId",
          "type": "uint256"
        }
      ],
      "name": "revokeRole",
      "outputs": [],
      "stateMutability": "nonpayable",
      "type": "function"
    },
    {
      "inputs": [
        {
          "internalType": "bytes4",
          "name": "interfaceId",
          "type": "bytes4"
        }
      ],
      "name": "supportsInterface",
      "outputs": [
        {
          "internalType": "bool",
          "name": "",
          "type": "bool"
        }
      ],
      "stateMutability": "view",
      "type": "function"
    }
  ],
  "bytecode": "0x608060405234801561001057600080fd5b50600054610100900460ff1661002c5760005460ff1615610034565b6100346100d5565b61009b5760405162461bcd60e51b815260206004820152602e60248201527f496e697469616c697a61626c653a20636f6e747261637420697320616c72656160448201526d191e481a5b9a5d1a585b1a5e995960921b606482015260840160405180910390fd5b600054610100900460ff161580156100bd576000805461ffff19166101011790555b80156100cf576000805461ff00191690555b506100f6565b60006100ea306100f060201b6105a71760201c565b15905090565b3b151590565b610e9f806101056000396000f3fe608060405234801561001057600080fd5b506004361061009e5760003560e01c80635354caa8116100665780635354caa8146101375780637e063c5a1461014a57806391d1485414610178578063a217fddf1461018b578063cd6dc6871461019357600080fd5b806301ffc9a7146100a357806319d61ad9146100cb5780631b6ea9f9146100e0578063248a9ca3146100f35780634e32967214610124575b600080fd5b6100b66100b1366004610c6f565b6101a6565b60405190151581526020015b60405180910390f35b6100de6100d9366004610c4e565b6101dd565b005b6100de6100ee366004610c4e565b610208565b610116610101366004610c07565b60009081526065602052604090206001015490565b6040519081526020016100c2565b6100b6610132366004610b84565b61022e565b6100de610145366004610c4e565b6102b8565b6100b6610158366004610c4e565b600091825260656020908152604080842092845291905290205460ff1690565b6100b6610186366004610c1f565b6103bd565b610116600081565b6100de6101a1366004610bbc565b610520565b60006001600160e01b03198216639ab1912560e01b14806101d757506301ffc9a760e01b6001600160e01b03198316145b92915050565b6000828152606560205260409020600101546101f981336105ad565b6102038383610611565b505050565b60008281526065602052604090206001015461022481336105ad565b6102038383610683565b6040516301ffc9a760e01b815263152a902d60e11b600482015260009081906001600160a01b038416906301ffc9a79060240160206040518083038186803b15801561027957600080fd5b505afa15801561028d573d6000803e3d6000fd5b505050506040513d601f19601f820116820180604052508101906102b19190610be7565b9392505050565b336066546040516331a9108f60e11b8152600481018490526001600160a01b039283169290911690636352211e9060240160206040518083038186803b15801561030157600080fd5b505afa158015610315573d6000803e3d6000fd5b505050506040513d601f19601f820116820180604052508101906103399190610ba0565b6001600160a01b0316146103af5760405162461bcd60e51b815260206004820152603260248201527f4e4654416363657373436f6e74726f6c3a2063616e206f6e6c792072656e6f756044820152713731b2903937b632b9903337b91039b2b63360711b60648201526084015b60405180910390fd5b6103b98282610611565b5050565b6066546040516370a0823160e01b81526001600160a01b03838116600483015260009283929116906370a082319060240160206040518083038186803b15801561040657600080fd5b505afa15801561041a573d6000803e3d6000fd5b505050506040513d601f19601f8201168201806040525081019061043e9190610c97565b905060005b81811015610515576000858152606560205260408082206066549151632f745c5960e01b81526001600160a01b038881166004830152602482018690529193929190911690632f745c599060440160206040518083038186803b1580156104a957600080fd5b505afa1580156104bd573d6000803e3d6000fd5b505050506040513d601f19601f820116820180604052508101906104e19190610c97565b815260208101919091526040016000205460ff1615610505576001925050506101d7565b61050e81610e23565b9050610443565b506000949350505050565b600054610100900460ff1661053b5760005460ff161561053f565b303b155b61055b5760405162461bcd60e51b81526004016103a690610d57565b600054610100900460ff1615801561057d576000805461ffff19166101011790555b6105868361070a565b6105916000836108b9565b8015610203576000805461ff0019169055505050565b3b151590565b6105b782826103bd565b6103b9576105cf816001600160a01b031660146108c3565b6105da8360206108c3565b6040516020016105eb929190610caf565b60408051601f198184030181529082905262461bcd60e51b82526103a691600401610d24565b600082815260656020908152604080832084845290915290205460ff16156103b9576000828152606560209081526040808320848452909152808220805460ff19169055513391839185917f641261709a27417e18d0ccc3db95ddc812d61be919b2a5a3af21a5870590922a91a45050565b600082815260656020908152604080832084845290915290205460ff166103b95760008281526065602090815260408083208484529091529020805460ff191660011790556106cf3390565b6001600160a01b031681837f7c2a2c4bb5a44dafa473fc49e557303dba6db62123713789deefe8ccb384654960405160405180910390a45050565b600054610100900460ff166107255760005460ff1615610729565b303b155b6107455760405162461bcd60e51b81526004016103a690610d57565b600054610100900460ff16158015610767576000805461ffff19166101011790555b61076f610aa5565b610777610aa5565b61077f610b12565b6040516301ffc9a760e01b815263780e9d6360e01b60048201526001600160a01b038316906301ffc9a79060240160206040518083038186803b1580156107c557600080fd5b505afa1580156107d9573d6000803e3d6000fd5b505050506040513d601f19601f820116820180604052508101906107fd9190610be7565b6108895760405162461bcd60e51b815260206004820152605160248201527f4e4654416363657373436f6e74726f6c5570677261646561626c653a2041646460448201527f7265737320646f6573206e6f7420737570706f727420455243373231456e756d60648201527032b930b136329034b73a32b93330b1b29760791b608482015260a4016103a6565b606680546001600160a01b0319166001600160a01b03841617905580156103b9576000805461ff00191690555050565b6103b98282610683565b606060006108d2836002610dbd565b6108dd906002610da5565b67ffffffffffffffff81111561090357634e487b7160e01b600052604160045260246000fd5b6040519080825280601f01601f19166020018201604052801561092d576020820181803683370190505b509050600360fc1b8160008151811061095657634e487b7160e01b600052603260045260246000fd5b60200101906001600160f81b031916908160001a905350600f60fb1b8160018151811061099357634e487b7160e01b600052603260045260246000fd5b60200101906001600160f81b031916908160001a90535060006109b7846002610dbd565b6109c2906001610da5565b90505b6001811115610a56576f181899199a1a9b1b9c1cb0b131b232b360811b85600f1660108110610a0457634e487b7160e01b600052603260045260246000fd5b1a60f81b828281518110610a2857634e487b7160e01b600052603260045260246000fd5b60200101906001600160f81b031916908160001a90535060049490941c93610a4f81610e0c565b90506109c5565b5083156102b15760405162461bcd60e51b815260206004820181905260248201527f537472696e67733a20686578206c656e67746820696e73756666696369656e7460448201526064016103a6565b600054610100900460ff16610b105760405162461bcd60e51b815260206004820152602b60248201527f496e697469616c697a61626c653a20636f6e7472616374206973206e6f74206960448201526a6e697469616c697a696e6760a81b60648201526084016103a6565b565b600054610100900460ff16610b2d5760005460ff1615610b31565b303b155b610b4d5760405162461bcd60e51b81526004016103a690610d57565b600054610100900460ff16158015610b6f576000805461ffff19166101011790555b8015610b81576000805461ff00191690555b50565b600060208284031215610b95578081fd5b81356102b181610e54565b600060208284031215610bb1578081fd5b81516102b181610e54565b60008060408385031215610bce578081fd5b8235610bd981610e54565b946020939093013593505050565b600060208284031215610bf8578081fd5b815180151581146102b1578182fd5b600060208284031215610c18578081fd5b5035919050565b60008060408385031215610c31578182fd5b823591506020830135610c4381610e54565b809150509250929050565b60008060408385031215610c60578182fd5b50508035926020909101359150565b600060208284031215610c80578081fd5b81356001600160e01b0319811681146102b1578182fd5b600060208284031215610ca8578081fd5b5051919050565b7f4e4654416363657373436f6e74726f6c3a206163636f756e7420000000000000815260008351610ce781601a850160208801610ddc565b7001034b99036b4b9b9b4b733903937b6329607d1b601a918401918201528351610d1881602b840160208801610ddc565b01602b01949350505050565b6020815260008251806020840152610d43816040850160208701610ddc565b601f01601f19169190910160400192915050565b6020808252602e908201527f496e697469616c697a61626c653a20636f6e747261637420697320616c72656160408201526d191e481a5b9a5d1a585b1a5e995960921b606082015260800190565b60008219821115610db857610db8610e3e565b500190565b6000816000190483118215151615610dd757610dd7610e3e565b500290565b60005b83811015610df7578181015183820152602001610ddf565b83811115610e06576000848401525b50505050565b600081610e1b57610e1b610e3e565b506000190190565b6000600019821415610e3757610e37610e3e565b5060010190565b634e487b7160e01b600052601160045260246000fd5b6001600160a01b0381168114610b8157600080fdfea2646970667358221220b9d91cf6a00ed6621516e77fa33b6a3c6fc0e6b1642b8df4bd7a994ea89ef8ff64736f6c63430008040033",
  "linkReferences": {},
  "deployedLinkReferences": {}
}