{
  "_format": "hh-sol-artifact-1",
  "contractName": "MerkleModule",
  "sourceName": "contracts/modules/MerkleModule.sol",
  "abi": [
    {
      "inputs": [
        {
          "internalType": "string",
          "name": "_name",
          "type": "string"
        }
      ],
      "stateMutability": "nonpayable",
      "type": "constructor"
    },
    {
      "inputs": [],
      "name": "name",
      "outputs": [
        {
          "internalType": "string",
          "name": "",
          "type": "string"
        }
      ],
      "stateMutability": "view",
      "type": "function"
    },
    {
      "inputs": [
        {
          "internalType": "address",
          "name": "to",
          "type": "address"
        },
        {
          "internalType": "string",
          "name": "label",
          "type": "string"
        },
        {
          "internalType": "string",
          "name": "registrationData",
          "type": "string"
        },
        {
          "internalType": "uint256",
          "name": "tokenId",
          "type": "uint256"
        },
        {
          "internalType": "bytes32[]",
          "name": "proof",
          "type": "bytes32[]"
        },
        {
          "internalType": "address",
          "name": "registry",
          "type": "address"
        }
      ],
      "name": "redeem",
      "outputs": [],
      "stateMutability": "nonpayable",
      "type": "function"
    }
  ],
  "bytecode": "0x608060405234801561001057600080fd5b506040516108c83803806108c883398101604081905261002f916100e2565b8051610042906000906020840190610049565b50506101fc565b828054610055906101ab565b90600052602060002090601f01602090048101928261007757600085556100bd565b82601f1061009057805160ff19168380011785556100bd565b828001600101855582156100bd579182015b828111156100bd5782518255916020019190600101906100a2565b506100c99291506100cd565b5090565b5b808211156100c957600081556001016100ce565b600060208083850312156100f4578182fd5b82516001600160401b038082111561010a578384fd5b818501915085601f83011261011d578384fd5b81518181111561012f5761012f6101e6565b604051601f8201601f19908116603f01168101908382118183101715610157576101576101e6565b81604052828152888684870101111561016e578687fd5b8693505b8284101561018f5784840186015181850187015292850192610172565b8284111561019f57868684830101525b98975050505050505050565b600181811c908216806101bf57607f821691505b602082108114156101e057634e487b7160e01b600052602260045260246000fd5b50919050565b634e487b7160e01b600052604160045260246000fd5b6106bd8061020b6000396000f3fe608060405234801561001057600080fd5b50600436106100365760003560e01c806306fdde031461003b578063b75c33a314610059575b600080fd5b61004361006e565b60405161005091906105d2565b60405180910390f35b61006c610067366004610413565b6100fc565b005b6000805461007b90610625565b80601f01602080910402602001604051908101604052809291908181526020018280546100a790610625565b80156100f45780601f106100c9576101008083540402835291602001916100f4565b820191906000526020600020905b8154815290600101906020018083116100d757829003601f168201915b505050505081565b6000816001600160a01b0316632eb4a7ab6040518163ffffffff1660e01b815260040160206040518083038186803b15801561013757600080fd5b505afa15801561014b573d6000803e3d6000fd5b505050506040513d601f19601f8201168201806040525081019061016f9190610500565b90506101bd6101828b8b8b8b8b8b61028c565b8585808060200260200160405190810160405280939291908181526020018383602002808284376000920191909152508692506102cb915050565b6102185760405162461bcd60e51b815260206004820152602260248201527f4d65726b6c654d6f64756c653a20496e76616c6964206d65726b6c652070726f60448201526137b360f11b606482015260840160405180910390fd5b604051638792ffef60e01b81526001600160a01b03831690638792ffef9061024e908d908d908d908d908d908d90600401610586565b600060405180830381600087803b15801561026857600080fd5b505af115801561027c573d6000803e3d6000fd5b5050505050505050505050505050565b60008686868686866040516020016102a996959493929190610541565b6040516020818303038152906040528051906020012090509695505050505050565b60006102d88383866102e0565b949350505050565b6000826102ed85846102f6565b14949350505050565b600081815b84518110156103a857600085828151811061032657634e487b7160e01b600052603260045260246000fd5b60200260200101519050808311610368576040805160208101859052908101829052606001604051602081830303815290604052805190602001209250610395565b60408051602081018390529081018490526060016040516020818303038152906040528051906020012092505b50806103a081610660565b9150506102fb565b509392505050565b80356001600160a01b03811681146103c757600080fd5b919050565b60008083601f8401126103dd578182fd5b50813567ffffffffffffffff8111156103f4578182fd5b60208301915083602082850101111561040c57600080fd5b9250929050565b600080600080600080600080600060c08a8c031215610430578485fd5b6104398a6103b0565b985060208a013567ffffffffffffffff80821115610455578687fd5b6104618d838e016103cc565b909a50985060408c0135915080821115610479578687fd5b6104858d838e016103cc565b909850965060608c0135955060808c01359150808211156104a4578485fd5b818c0191508c601f8301126104b7578485fd5b8135818111156104c5578586fd5b8d60208260051b85010111156104d9578586fd5b6020830195508094505050506104f160a08b016103b0565b90509295985092959850929598565b600060208284031215610511578081fd5b5051919050565b81835281816020850137506000828201602090810191909152601f909101601f19169091010190565b6bffffffffffffffffffffffff198760601b16815284866014830137600085820160148101828152858782375060149401938401929092525050603401949350505050565b6001600160a01b03871681526080602082018190526000906105ab9083018789610518565b82810360408401526105be818688610518565b915050826060830152979650505050505050565b6000602080835283518082850152825b818110156105fe578581018301518582016040015282016105e2565b8181111561060f5783604083870101525b50601f01601f1916929092016040019392505050565b600181811c9082168061063957607f821691505b6020821081141561065a57634e487b7160e01b600052602260045260246000fd5b50919050565b600060001982141561068057634e487b7160e01b81526011600452602481fd5b506001019056fea26469706673582212207e7d741a7de3af60844201c8f5ccb0af14b05788d40390dc95152d4de0aac53d64736f6c63430008040033",
  "linkReferences": {},
  "deployedLinkReferences": {}
}