{
  "_format": "hh-sol-artifact-1",
  "contractName": "NonFungibleRegistryEnumerableUpgradeable",
  "sourceName": "contracts/identity/NonFungibleRegistryEnumerableUpgradeable.sol",
  "abi": [
    {
      "inputs": [],
      "stateMutability": "nonpayable",
      "type": "constructor"
    },
    {
      "anonymous": false,
      "inputs": [
        {
          "indexed": true,
          "internalType": "address",
          "name": "owner",
          "type": "address"
        },
        {
          "indexed": true,
          "internalType": "address",
          "name": "approved",
          "type": "address"
        },
        {
          "indexed": true,
          "internalType": "uint256",
          "name": "tokenId",
          "type": "uint256"
        }
      ],
      "name": "Approval",
      "type": "event"
    },
    {
      "anonymous": false,
      "inputs": [
        {
          "indexed": true,
          "internalType": "address",
          "name": "owner",
          "type": "address"
        },
        {
          "indexed": true,
          "internalType": "address",
          "name": "operator",
          "type": "address"
        },
        {
          "indexed": false,
          "internalType": "bool",
          "name": "approved",
          "type": "bool"
        }
      ],
      "name": "ApprovalForAll",
      "type": "event"
    },
    {
      "anonymous": false,
      "inputs": [
        {
          "indexed": false,
          "internalType": "uint256",
          "name": "tokenId",
          "type": "uint256"
        },
        {
          "indexed": false,
          "internalType": "string",
          "name": "label",
          "type": "string"
        }
      ],
      "name": "LabelUpdated",
      "type": "event"
    },
    {
      "anonymous": false,
      "inputs": [
        {
          "indexed": false,
          "internalType": "bytes32",
          "name": "merkleRoot",
          "type": "bytes32"
        },
        {
          "indexed": false,
          "internalType": "bool",
          "name": "frozen",
          "type": "bool"
        }
      ],
      "name": "MerkleRootUpdated",
      "type": "event"
    },
    {
      "anonymous": false,
      "inputs": [
        {
          "indexed": true,
          "internalType": "bytes32",
          "name": "role",
          "type": "bytes32"
        },
        {
          "indexed": true,
          "internalType": "bytes32",
          "name": "previousAdminRole",
          "type": "bytes32"
        },
        {
          "indexed": true,
          "internalType": "bytes32",
          "name": "newAdminRole",
          "type": "bytes32"
        }
      ],
      "name": "RoleAdminChanged",
      "type": "event"
    },
    {
      "anonymous": false,
      "inputs": [
        {
          "indexed": true,
          "internalType": "bytes32",
          "name": "role",
          "type": "bytes32"
        },
        {
          "indexed": true,
          "internalType": "address",
          "name": "account",
          "type": "address"
        },
        {
          "indexed": true,
          "internalType": "address",
          "name": "sender",
          "type": "address"
        }
      ],
      "name": "RoleGranted",
      "type": "event"
    },
    {
      "anonymous": false,
      "inputs": [
        {
          "indexed": true,
          "internalType": "bytes32",
          "name": "role",
          "type": "bytes32"
        },
        {
          "indexed": true,
          "internalType": "address",
          "name": "account",
          "type": "address"
        },
        {
          "indexed": true,
          "internalType": "address",
          "name": "sender",
          "type": "address"
        }
      ],
      "name": "RoleRevoked",
      "type": "event"
    },
    {
      "anonymous": false,
      "inputs": [
        {
          "indexed": false,
          "internalType": "uint256",
          "name": "tokenId",
          "type": "uint256"
        },
        {
          "indexed": false,
          "internalType": "bytes32",
          "name": "registrationData",
          "type": "bytes32"
        }
      ],
      "name": "StorageUpdated",
      "type": "event"
    },
    {
      "anonymous": false,
      "inputs": [
        {
          "indexed": true,
          "internalType": "address",
          "name": "from",
          "type": "address"
        },
        {
          "indexed": true,
          "internalType": "address",
          "name": "to",
          "type": "address"
        },
        {
          "indexed": true,
          "internalType": "uint256",
          "name": "tokenId",
          "type": "uint256"
        }
      ],
      "name": "Transfer",
      "type": "event"
    },
    {
      "inputs": [],
      "name": "DEFAULT_ADMIN_ROLE",
      "outputs": [
        {
          "internalType": "bytes32",
          "name": "",
          "type": "bytes32"
        }
      ],
      "stateMutability": "view",
      "type": "function"
    },
    {
      "inputs": [],
      "name": "REGISTRAR_ROLE",
      "outputs": [
        {
          "internalType": "bytes32",
          "name": "",
          "type": "bytes32"
        }
      ],
      "stateMutability": "view",
      "type": "function"
    },
    {
      "inputs": [],
      "name": "REGISTRAR_ROLE_ADMIN",
      "outputs": [
        {
          "internalType": "bytes32",
          "name": "",
          "type": "bytes32"
        }
      ],
      "stateMutability": "view",
      "type": "function"
    },
    {
      "inputs": [],
      "name": "allowLabelChange",
      "outputs": [
        {
          "internalType": "bool",
          "name": "",
          "type": "bool"
        }
      ],
      "stateMutability": "view",
      "type": "function"
    },
    {
      "inputs": [],
      "name": "allowStorageUpdate",
      "outputs": [
        {
          "internalType": "bool",
          "name": "",
          "type": "bool"
        }
      ],
      "stateMutability": "view",
      "type": "function"
    },
    {
      "inputs": [],
      "name": "allowTransfers",
      "outputs": [
        {
          "internalType": "bool",
          "name": "",
          "type": "bool"
        }
      ],
      "stateMutability": "view",
      "type": "function"
    },
    {
      "inputs": [
        {
          "internalType": "address",
          "name": "to",
          "type": "address"
        },
        {
          "internalType": "uint256",
          "name": "tokenId",
          "type": "uint256"
        }
      ],
      "name": "approve",
      "outputs": [],
      "stateMutability": "nonpayable",
      "type": "function"
    },
    {
      "inputs": [
        {
          "internalType": "address",
          "name": "owner",
          "type": "address"
        }
      ],
      "name": "balanceOf",
      "outputs": [
        {
          "internalType": "uint256",
          "name": "",
          "type": "uint256"
        }
      ],
      "stateMutability": "view",
      "type": "function"
    },
    {
      "inputs": [],
      "name": "baseURI",
      "outputs": [
        {
          "internalType": "string",
          "name": "",
          "type": "string"
        }
      ],
      "stateMutability": "view",
      "type": "function"
    },
    {
      "inputs": [
        {
          "internalType": "uint256",
          "name": "tokenId",
          "type": "uint256"
        }
      ],
      "name": "burn",
      "outputs": [],
      "stateMutability": "nonpayable",
      "type": "function"
    },
    {
      "inputs": [],
      "name": "burnAddress",
      "outputs": [
        {
          "internalType": "address",
          "name": "",
          "type": "address"
        }
      ],
      "stateMutability": "view",
      "type": "function"
    },
    {
      "inputs": [],
      "name": "burnFee",
      "outputs": [
        {
          "internalType": "uint256",
          "name": "",
          "type": "uint256"
        }
      ],
      "stateMutability": "view",
      "type": "function"
    },
    {
      "inputs": [],
      "name": "frozen",
      "outputs": [
        {
          "internalType": "bool",
          "name": "",
          "type": "bool"
        }
      ],
      "stateMutability": "view",
      "type": "function"
    },
    {
      "inputs": [
        {
          "internalType": "uint256",
          "name": "tokenId",
          "type": "uint256"
        }
      ],
      "name": "getApproved",
      "outputs": [
        {
          "internalType": "address",
          "name": "",
          "type": "address"
        }
      ],
      "stateMutability": "view",
      "type": "function"
    },
    {
      "inputs": [
        {
          "internalType": "bytes32",
          "name": "role",
          "type": "bytes32"
        }
      ],
      "name": "getRoleAdmin",
      "outputs": [
        {
          "internalType": "bytes32",
          "name": "",
          "type": "bytes32"
        }
      ],
      "stateMutability": "view",
      "type": "function"
    },
    {
      "inputs": [
        {
          "internalType": "bytes32",
          "name": "role",
          "type": "bytes32"
        },
        {
          "internalType": "uint256",
          "name": "index",
          "type": "uint256"
        }
      ],
      "name": "getRoleMember",
      "outputs": [
        {
          "internalType": "address",
          "name": "",
          "type": "address"
        }
      ],
      "stateMutability": "view",
      "type": "function"
    },
    {
      "inputs": [
        {
          "internalType": "bytes32",
          "name": "role",
          "type": "bytes32"
        }
      ],
      "name": "getRoleMemberCount",
      "outputs": [
        {
          "internalType": "uint256",
          "name": "",
          "type": "uint256"
        }
      ],
      "stateMutability": "view",
      "type": "function"
    },
    {
      "inputs": [
        {
          "internalType": "bytes32",
          "name": "role",
          "type": "bytes32"
        },
        {
          "internalType": "address",
          "name": "account",
          "type": "address"
        }
      ],
      "name": "grantRole",
      "outputs": [],
      "stateMutability": "nonpayable",
      "type": "function"
    },
    {
      "inputs": [
        {
          "internalType": "bytes32",
          "name": "role",
          "type": "bytes32"
        },
        {
          "internalType": "address",
          "name": "account",
          "type": "address"
        }
      ],
      "name": "hasRole",
      "outputs": [
        {
          "internalType": "bool",
          "name": "",
          "type": "bool"
        }
      ],
      "stateMutability": "view",
      "type": "function"
    },
    {
      "inputs": [
        {
          "internalType": "uint256",
          "name": "",
          "type": "uint256"
        }
      ],
      "name": "identityStakes",
      "outputs": [
        {
          "internalType": "address",
          "name": "token",
          "type": "address"
        },
        {
          "internalType": "uint256",
          "name": "amount",
          "type": "uint256"
        }
      ],
      "stateMutability": "view",
      "type": "function"
    },
    {
      "inputs": [
        {
          "internalType": "string",
          "name": "name_",
          "type": "string"
        },
        {
          "internalType": "string",
          "name": "symbol_",
          "type": "string"
        },
        {
          "internalType": "address",
          "name": "_primaryRegistry",
          "type": "address"
        },
        {
          "internalType": "address",
          "name": "_registrar",
          "type": "address"
        },
        {
          "internalType": "address",
          "name": "_admin",
          "type": "address"
        }
      ],
      "name": "initialize",
      "outputs": [],
      "stateMutability": "nonpayable",
      "type": "function"
    },
    {
      "inputs": [
        {
          "internalType": "address",
          "name": "_owner",
          "type": "address"
        },
        {
          "internalType": "address",
          "name": "_operator",
          "type": "address"
        }
      ],
      "name": "isApprovedForAll",
      "outputs": [
        {
          "internalType": "bool",
          "name": "isOperator",
          "type": "bool"
        }
      ],
      "stateMutability": "view",
      "type": "function"
    },
    {
      "inputs": [],
      "name": "merkleRoot",
      "outputs": [
        {
          "internalType": "bytes32",
          "name": "",
          "type": "bytes32"
        }
      ],
      "stateMutability": "view",
      "type": "function"
    },
    {
      "inputs": [],
      "name": "name",
      "outputs": [
        {
          "internalType": "string",
          "name": "",
          "type": "string"
        }
      ],
      "stateMutability": "view",
      "type": "function"
    },
    {
      "inputs": [
        {
          "internalType": "uint256",
          "name": "tokenId",
          "type": "uint256"
        }
      ],
      "name": "ownerOf",
      "outputs": [
        {
          "internalType": "address",
          "name": "",
          "type": "address"
        }
      ],
      "stateMutability": "view",
      "type": "function"
    },
    {
      "inputs": [],
      "name": "primaryRegistry",
      "outputs": [
        {
          "internalType": "address",
          "name": "",
          "type": "address"
        }
      ],
      "stateMutability": "view",
      "type": "function"
    },
    {
      "inputs": [
        {
          "internalType": "address",
          "name": "to",
          "type": "address"
        },
        {
          "internalType": "string",
          "name": "label",
          "type": "string"
        },
        {
          "internalType": "string",
          "name": "registrationData",
          "type": "string"
        },
        {
          "internalType": "uint256",
          "name": "tokenId",
          "type": "uint256"
        }
      ],
      "name": "register",
      "outputs": [],
      "stateMutability": "nonpayable",
      "type": "function"
    },
    {
      "inputs": [
        {
          "internalType": "address",
          "name": "to",
          "type": "address"
        },
        {
          "internalType": "string",
          "name": "label",
          "type": "string"
        },
        {
          "internalType": "string",
          "name": "registrationData",
          "type": "string"
        },
        {
          "internalType": "uint256",
          "name": "tokenId",
          "type": "uint256"
        }
      ],
      "name": "registerByToken",
      "outputs": [],
      "stateMutability": "nonpayable",
      "type": "function"
    },
    {
      "inputs": [],
      "name": "registrationFee",
      "outputs": [
        {
          "internalType": "uint256",
          "name": "",
          "type": "uint256"
        }
      ],
      "stateMutability": "view",
      "type": "function"
    },
    {
      "inputs": [],
      "name": "registrationToken",
      "outputs": [
        {
          "internalType": "address",
          "name": "",
          "type": "address"
        }
      ],
      "stateMutability": "view",
      "type": "function"
    },
    {
      "inputs": [
        {
          "internalType": "string",
          "name": "",
          "type": "string"
        }
      ],
      "name": "registryMap",
      "outputs": [
        {
          "internalType": "uint256",
          "name": "",
          "type": "uint256"
        }
      ],
      "stateMutability": "view",
      "type": "function"
    },
    {
      "inputs": [
        {
          "internalType": "bytes32",
          "name": "role",
          "type": "bytes32"
        },
        {
          "internalType": "address",
          "name": "account",
          "type": "address"
        }
      ],
      "name": "renounceRole",
      "outputs": [],
      "stateMutability": "nonpayable",
      "type": "function"
    },
    {
      "inputs": [
        {
          "internalType": "uint256",
          "name": "",
          "type": "uint256"
        }
      ],
      "name": "reverseRegistryMap",
      "outputs": [
        {
          "internalType": "string",
          "name": "",
          "type": "string"
        }
      ],
      "stateMutability": "view",
      "type": "function"
    },
    {
      "inputs": [
        {
          "internalType": "bytes32",
          "name": "role",
          "type": "bytes32"
        },
        {
          "internalType": "address",
          "name": "account",
          "type": "address"
        }
      ],
      "name": "revokeRole",
      "outputs": [],
      "stateMutability": "nonpayable",
      "type": "function"
    },
    {
      "inputs": [
        {
          "internalType": "address",
          "name": "from",
          "type": "address"
        },
        {
          "internalType": "address",
          "name": "to",
          "type": "address"
        },
        {
          "internalType": "uint256",
          "name": "tokenId",
          "type": "uint256"
        }
      ],
      "name": "safeTransferFrom",
      "outputs": [],
      "stateMutability": "nonpayable",
      "type": "function"
    },
    {
      "inputs": [
        {
          "internalType": "address",
          "name": "from",
          "type": "address"
        },
        {
          "internalType": "address",
          "name": "to",
          "type": "address"
        },
        {
          "internalType": "uint256",
          "name": "tokenId",
          "type": "uint256"
        },
        {
          "internalType": "bytes",
          "name": "_data",
          "type": "bytes"
        }
      ],
      "name": "safeTransferFrom",
      "outputs": [],
      "stateMutability": "nonpayable",
      "type": "function"
    },
    {
      "inputs": [],
      "name": "schema",
      "outputs": [
        {
          "internalType": "string",
          "name": "",
          "type": "string"
        }
      ],
      "stateMutability": "view",
      "type": "function"
    },
    {
      "inputs": [
        {
          "internalType": "address",
          "name": "operator",
          "type": "address"
        },
        {
          "internalType": "bool",
          "name": "approved",
          "type": "bool"
        }
      ],
      "name": "setApprovalForAll",
      "outputs": [],
      "stateMutability": "nonpayable",
      "type": "function"
    },
    {
      "inputs": [
        {
          "internalType": "bytes32",
          "name": "_merkleRoot",
          "type": "bytes32"
        },
        {
          "internalType": "bool",
          "name": "freeze",
          "type": "bool"
        }
      ],
      "name": "setMerkleRoot",
      "outputs": [],
      "stateMutability": "nonpayable",
      "type": "function"
    },
    {
      "inputs": [
        {
          "internalType": "address",
          "name": "_primaryRegistry",
          "type": "address"
        }
      ],
      "name": "setPrimaryRegistry",
      "outputs": [],
      "stateMutability": "nonpayable",
      "type": "function"
    },
    {
      "inputs": [
        {
          "internalType": "bytes",
          "name": "encodedParameters",
          "type": "bytes"
        }
      ],
      "name": "setRegistryParameters",
      "outputs": [],
      "stateMutability": "nonpayable",
      "type": "function"
    },
    {
      "inputs": [
        {
          "internalType": "bytes4",
          "name": "interfaceId",
          "type": "bytes4"
        }
      ],
      "name": "supportsInterface",
      "outputs": [
        {
          "internalType": "bool",
          "name": "",
          "type": "bool"
        }
      ],
      "stateMutability": "view",
      "type": "function"
    },
    {
      "inputs": [],
      "name": "symbol",
      "outputs": [
        {
          "internalType": "string",
          "name": "",
          "type": "string"
        }
      ],
      "stateMutability": "view",
      "type": "function"
    },
    {
      "inputs": [
        {
          "internalType": "uint256",
          "name": "index",
          "type": "uint256"
        }
      ],
      "name": "tokenByIndex",
      "outputs": [
        {
          "internalType": "uint256",
          "name": "",
          "type": "uint256"
        }
      ],
      "stateMutability": "view",
      "type": "function"
    },
    {
      "inputs": [
        {
          "internalType": "address",
          "name": "owner",
          "type": "address"
        },
        {
          "internalType": "uint256",
          "name": "index",
          "type": "uint256"
        }
      ],
      "name": "tokenOfOwnerByIndex",
      "outputs": [
        {
          "internalType": "uint256",
          "name": "",
          "type": "uint256"
        }
      ],
      "stateMutability": "view",
      "type": "function"
    },
    {
      "inputs": [
        {
          "internalType": "uint256",
          "name": "tokenId",
          "type": "uint256"
        }
      ],
      "name": "tokenURI",
      "outputs": [
        {
          "internalType": "string",
          "name": "",
          "type": "string"
        }
      ],
      "stateMutability": "view",
      "type": "function"
    },
    {
      "inputs": [
        {
          "internalType": "uint256",
          "name": "tokenId",
          "type": "uint256"
        }
      ],
      "name": "tokenURINoBase",
      "outputs": [
        {
          "internalType": "string",
          "name": "",
          "type": "string"
        }
      ],
      "stateMutability": "view",
      "type": "function"
    },
    {
      "inputs": [],
      "name": "totalSupply",
      "outputs": [
        {
          "internalType": "uint256",
          "name": "",
          "type": "uint256"
        }
      ],
      "stateMutability": "view",
      "type": "function"
    },
    {
      "inputs": [
        {
          "internalType": "address",
          "name": "from",
          "type": "address"
        },
        {
          "internalType": "address",
          "name": "to",
          "type": "address"
        },
        {
          "internalType": "uint256",
          "name": "tokenId",
          "type": "uint256"
        }
      ],
      "name": "transferFrom",
      "outputs": [],
      "stateMutability": "nonpayable",
      "type": "function"
    },
    {
      "inputs": [
        {
          "internalType": "uint256",
          "name": "tokenId",
          "type": "uint256"
        },
        {
          "internalType": "string",
          "name": "label",
          "type": "string"
        }
      ],
      "name": "updateLabel",
      "outputs": [],
      "stateMutability": "nonpayable",
      "type": "function"
    },
    {
      "inputs": [
        {
          "internalType": "uint256",
          "name": "tokenId",
          "type": "uint256"
        },
        {
          "internalType": "string",
          "name": "registrationData",
          "type": "string"
        }
      ],
      "name": "updateRegistration",
      "outputs": [],
      "stateMutability": "nonpayable",
      "type": "function"
    }
  ],
  "bytecode": "0x60806040523480156200001157600080fd5b50600054610100900460ff166200002f5760005460ff161562000039565b62000039620000de565b620000a15760405162461bcd60e51b815260206004820152602e60248201527f496e697469616c697a61626c653a20636f6e747261637420697320616c72656160448201526d191e481a5b9a5d1a585b1a5e995960921b606482015260840160405180910390fd5b600054610100900460ff16158015620000c4576000805461ffff19166101011790555b8015620000d7576000805461ff00191690555b5062000102565b6000620000f630620000fc60201b620021431760201c565b15905090565b3b151590565b6149a380620001126000396000f3fe608060405234801561001057600080fd5b50600436106102f15760003560e01c80636c0360eb1161019d578063a8f1c6d8116100e9578063d547741f116100a2578063f041b4a71161007c578063f041b4a7146106f1578063f68e955314610705578063f8895cc81461071a578063fce589d81461072257600080fd5b8063d547741f146106b8578063db0ed6a0146106cb578063e985e9c5146106de57600080fd5b8063a8f1c6d81461062d578063b88d4fde14610640578063bce8542e14610653578063c87b56dd1461067f578063ca15c87314610692578063cb9c6154146106a557600080fd5b80639010d07c1161015657806395d89b411161013057806395d89b41146105f7578063a10474c7146105ff578063a217fddf14610612578063a22cb4651461061a57600080fd5b80639010d07c146105be57806391d14854146105d157806393d0da07146105e457600080fd5b80636c0360eb146105565780636f4c25aa1461055e57806370a082311461057157806370d5ae05146105845780638792ffef146105985780638daf3f4e146105ab57600080fd5b80632f2ff15d1161025c57806347f00d5a116102155780635471a057116101ef5780635471a057146104fb57806358083969146105095780636017160b146105305780636352211e1461054357600080fd5b806347f00d5a146104ba5780634b08b0a3146104cd5780634f6ccce7146104e857600080fd5b80632f2ff15d146104085780632f745c591461041b57806336568abe1461042e57806338f292d51461044157806342842e0e1461049457806342966c68146104a757600080fd5b806318160ddd116102ae57806318160ddd146103995780632185810b146103a157806323b872dd146103b5578063248a9ca3146103c8578063267be25c146103eb5780632eb4a7ab146103fe57600080fd5b806301ffc9a7146102f6578063054f7d9c1461031e57806306fdde031461032c578063081812fc14610341578063095ea7b31461036c57806314c44e0914610381575b600080fd5b6103096103043660046140ac565b61072c565b60405190151581526020015b60405180910390f35b610169546103099060ff1681565b61033461073d565b6040516103159190614506565b61035461034f36600461402d565b6107cf565b6040516001600160a01b039091168152602001610315565b61037f61037a366004613fe8565b61085c565b005b61038b6101645481565b604051908152602001610315565b60fd5461038b565b610163546103099062010000900460ff1681565b61037f6103c3366004613e7a565b610972565b61038b6103d636600461402d565b60009081526065602052604090206001015490565b61037f6103f9366004613f63565b6109c9565b61038b6101685481565b61037f610416366004614045565b610d51565b61038b610429366004613fe8565b610d77565b61037f61043c366004614045565b610e0d565b61047561044f36600461402d565b61016260205260009081526040902080546001909101546001600160a01b039091169082565b604080516001600160a01b039093168352602083019190915201610315565b61037f6104a2366004613e7a565b610e8b565b61037f6104b536600461402d565b610ea6565b61037f6104c8366004614384565b611021565b6101635461035490630100000090046001600160a01b031681565b61038b6104f636600461402d565b61115c565b610163546103099060ff1681565b61038b7fab17982698983e428c1b3359c794bb98c356bd485b8da9b6bffc27745eece3ba81565b61033461053e36600461402d565b6111fd565b61035461055136600461402d565b611298565b61033461130f565b6101635461030990610100900460ff1681565b61038b61057f366004613e2e565b61131d565b61016554610354906001600160a01b031681565b61037f6105a6366004613f63565b6113a4565b61037f6105b93660046140e4565b6114ac565b6103546105cc36600461408b565b61185e565b6103096105df366004614045565b61187d565b61037f6105f2366004614384565b6118a8565b610334611a0a565b61037f61060d366004613e2e565b611a19565b61038b600081565b61037f610628366004613f2d565b611baf565b61037f61063b366004614067565b611bba565b61037f61064e366004613eb5565b611cb5565b61038b610661366004614123565b80516020818301810180516101608252928201919093012091525481565b61033461068d36600461402d565b611d0c565b61038b6106a036600461402d565b611d17565b6103346106b336600461402d565b611d2e565b61037f6106c6366004614045565b611ee7565b61037f6106d9366004614155565b611f0d565b6103096106ec366004613e48565b6120e0565b61016754610354906001600160a01b031681565b61038b60008051602061494e83398151915281565b610334612135565b61038b6101665481565b600061073782612149565b92915050565b606060c9805461074c90614883565b80601f016020809104026020016040519081016040528092919081815260200182805461077890614883565b80156107c55780601f1061079a576101008083540402835291602001916107c5565b820191906000526020600020905b8154815290600101906020018083116107a857829003601f168201915b5050505050905090565b60006107da8261216e565b6108405760405162461bcd60e51b815260206004820152602c60248201527f4552433732313a20617070726f76656420717565727920666f72206e6f6e657860448201526b34b9ba32b73a103a37b5b2b760a11b60648201526084015b60405180910390fd5b50600090815260cd60205260409020546001600160a01b031690565b600061086782611298565b9050806001600160a01b0316836001600160a01b031614156108d55760405162461bcd60e51b815260206004820152602160248201527f4552433732313a20617070726f76616c20746f2063757272656e74206f776e656044820152603960f91b6064820152608401610837565b336001600160a01b03821614806108f157506108f181336120e0565b6109635760405162461bcd60e51b815260206004820152603860248201527f4552433732313a20617070726f76652063616c6c6572206973206e6f74206f7760448201527f6e6572206e6f7220617070726f76656420666f7220616c6c00000000000000006064820152608401610837565b61096d838361218b565b505050565b61097d335b826121f9565b6109995760405162461bcd60e51b8152600401610837906145b2565b6109a2826122c3565b6109be5760405162461bcd60e51b8152600401610837906146b8565b61096d838383612360565b61016354630100000090046001600160a01b0316610a4f5760405162461bcd60e51b815260206004820152603760248201527f4e6f6e46756e6769626c6552656769737472793a20726567697374726174696f60448201527f6e20627920746f6b656e206e6f7420656e61626c65642e0000000000000000006064820152608401610837565b610a8e85858080601f01602080910402602001604051908101604052809392919081815260200183838082843760009201919091525061250b92505050565b15610aab5760405162461bcd60e51b81526004016108379061461c565b61016354630100000090046001600160a01b03166323b872dd33610164546040516001600160e01b031960e085901b1681526001600160a01b0390921660048301523060248301526044820152606401602060405180830381600087803b158015610b1557600080fd5b505af1158015610b29573d6000803e3d6000fd5b505050506040513d601f19601f82011682018060405250810190610b4d9190614011565b610bad5760405162461bcd60e51b815260206004820152602b60248201527f4e6f6e46756e6769626c6552656769737472793a20746f6b656e207472616e7360448201526a3332b9103330b4b632b21760a91b6064820152608401610837565b610c238686868080601f01602080910402602001604051908101604052809392919081815260200183838082843760009201919091525050604080516020601f8a018190048102820181019092528881529250889150879081908401838280828437600092019190915250879250612536915050565b60006127106101665461016454610c3a919061480a565b610c4491906147f6565b610163546101655460405163a9059cbb60e01b81526001600160a01b039182166004820152602481018490529293506301000000909104169063a9059cbb90604401602060405180830381600087803b158015610ca057600080fd5b505af1158015610cb4573d6000803e3d6000fd5b505050506040513d601f19601f82011682018060405250810190610cd89190614011565b506040805180820190915261016354630100000090046001600160a01b03168152610164546020820190610d0d908490614829565b9052600092835261016260209081526040909320815181546001600160a01b0319166001600160a01b03909116178155920151600190920191909155505050505050565b600082815260656020526040902060010154610d6d81336125c2565b61096d8383612626565b6000610d828361131d565b8210610de45760405162461bcd60e51b815260206004820152602b60248201527f455243373231456e756d657261626c653a206f776e657220696e646578206f7560448201526a74206f6620626f756e647360a81b6064820152608401610837565b506001600160a01b0391909116600090815260fb60209081526040808320938352929052205490565b6001600160a01b0381163314610e7d5760405162461bcd60e51b815260206004820152602f60248201527f416363657373436f6e74726f6c3a2063616e206f6e6c792072656e6f756e636560448201526e103937b632b9903337b91039b2b63360891b6064820152608401610837565b610e878282612648565b5050565b61096d83838360405180602001604052806000815250611cb5565b610eaf33610977565b610ecb5760405162461bcd60e51b8152600401610837906145b2565b610ed48161266a565b600081815261016260205260409020600101541561101e57600081815261016260205260409020546001600160a01b031663a9059cbb33600084815261016260205260409081902060010154905160e084901b6001600160e01b03191681526001600160a01b0390921660048301526024820152604401602060405180830381600087803b158015610f6557600080fd5b505af1158015610f79573d6000803e3d6000fd5b505050506040513d601f19601f82011682018060405250810190610f9d9190614011565b610ffc5760405162461bcd60e51b815260206004820152602a60248201527f4e6f6e46756e6769626c6552656769737472793a20746f6b656e2074616e736660448201526932b9103330b4b632b21760b11b6064820152608401610837565b60008181526101626020526040812080546001600160a01b0319168155600101555b50565b61102961274f565b6110905760405162461bcd60e51b815260206004820152603260248201527f4e6f6e46756e6769626c6552656769737472793a2053746f726167652075706460448201527130ba34b7339034b9903234b9b0b13632b21760711b6064820152608401610837565b61109b335b846121f9565b6110b75760405162461bcd60e51b8152600401610837906145b2565b6110f78383838080601f01602080910402602001604051908101604052809392919081815260200183838082843760009201919091525061277c92505050565b7f2f0b1fafb1d28d13e045afb299578515ce12beeff8ee8ca9c6a32f18be41f0f483838360405160200161112c9291906143f9565b60408051601f198184030181528282528051602091820120938352820192909252015b60405180910390a1505050565b600061116760fd5490565b82106111ca5760405162461bcd60e51b815260206004820152602c60248201527f455243373231456e756d657261626c653a20676c6f62616c20696e646578206f60448201526b7574206f6620626f756e647360a01b6064820152608401610837565b60fd82815481106111eb57634e487b7160e01b600052603260045260246000fd5b90600052602060002001549050919050565b610161602052600090815260409020805461121790614883565b80601f016020809104026020016040519081016040528092919081815260200182805461124390614883565b80156112905780601f1061126557610100808354040283529160200191611290565b820191906000526020600020905b81548152906001019060200180831161127357829003601f168201915b505050505081565b600081815260cb60205260408120546001600160a01b0316806107375760405162461bcd60e51b815260206004820152602960248201527f4552433732313a206f776e657220717565727920666f72206e6f6e657869737460448201526832b73a103a37b5b2b760b91b6064820152608401610837565b61016a805461121790614883565b60006001600160a01b0382166113885760405162461bcd60e51b815260206004820152602a60248201527f4552433732313a2062616c616e636520717565727920666f7220746865207a65604482015269726f206164647265737360b01b6064820152608401610837565b506001600160a01b0316600090815260cc602052604090205490565b6113bc60008051602061494e8339815191523361187d565b61142e5760405162461bcd60e51b815260206004820152603a60248201527f4e6f6e46756e6769626c6552656769737472793a206d7573742068617665207260448201527f656769737472617220726f6c6520746f2072656769737465722e0000000000006064820152608401610837565b6114a48686868080601f01602080910402602001604051908101604052809392919081815260200183838082843760009201919091525050604080516020601f8a018190048102820181019092528881529250889150879081908401838280828437600092019190915250879250612536915050565b505050505050565b6114c460008051602061494e8339815191523361187d565b6114e05760405162461bcd60e51b81526004016108379061456b565b60006114ee828401846141e7565b8051519091501561153a578051805160009061151a57634e487b7160e01b600052603260045260246000fd5b602002602001015161015f9080519060200190611538929190613a5b565b505b6020810151511561158d57806020015160008151811061156a57634e487b7160e01b600052603260045260246000fd5b602002602001015161016360006101000a81548160ff0219169083151502179055505b604081015151156115e05780604001516000815181106115bd57634e487b7160e01b600052603260045260246000fd5b602002602001015161016360016101000a81548160ff0219169083151502179055505b6060810151511561163357806060015160008151811061161057634e487b7160e01b600052603260045260246000fd5b602002602001015161016360026101000a81548160ff0219169083151502179055505b6080810151511561169357806080015160008151811061166357634e487b7160e01b600052603260045260246000fd5b602002602001015161016360036101000a8154816001600160a01b0302191690836001600160a01b031602179055505b60a081015151156116d3578060a001516000815181106116c357634e487b7160e01b600052603260045260246000fd5b6020026020010151610164819055505b60c08101515115611733578060c0015160008151811061170357634e487b7160e01b600052603260045260246000fd5b602002602001015161016560006101000a8154816001600160a01b0302191690836001600160a01b031602179055505b60e08101515115611808576127108160e0015160008151811061176657634e487b7160e01b600052603260045260246000fd5b602002602001015111156117d35760405162461bcd60e51b815260206004820152602e60248201527f4e6f6e46756e6769626c6552656769737472793a206275726e466565206d757360448201526d3a1031329036329018981818181760911b6064820152608401610837565b8060e001516000815181106117f857634e487b7160e01b600052603260045260246000fd5b6020026020010151610166819055505b610100810151511561096d5780610100015160008151811061183a57634e487b7160e01b600052603260045260246000fd5b602002602001015161016a9080519060200190611858929190613a5b565b50505050565b60008281526097602052604081206118769083612808565b9392505050565b60009182526065602090815260408084206001600160a01b0393909316845291905290205460ff1690565b6118b0612814565b6119155760405162461bcd60e51b815260206004820152603060248201527f4e6f6e46756e6769626c6552656769737472793a204c6162656c20757064617460448201526f34b7339034b9903234b9b0b13632b21760811b6064820152608401610837565b61191e33611095565b61193a5760405162461bcd60e51b8152600401610837906145b2565b61197982828080601f01602080910402602001604051908101604052809392919081815260200183838082843760009201919091525061250b92505050565b156119965760405162461bcd60e51b81526004016108379061461c565b8261016083836040516119aa9291906143f9565b9081526040805160209281900383019020929092556000858152610161909152206119d6908383613adf565b507fec8103a13d35079ee852a6e0f70658be4c82016236869c5283833b6721454b2c83838360405161114f9392919061472c565b606060ca805461074c90614883565b611a2460003361187d565b611a7c5760405162461bcd60e51b815260206004820152602360248201527f4e6f6e46756e6769626c6552656769737472793a206d7573742062652061646d60448201526234b71760e91b6064820152608401610837565b6001600160a01b038116611a9e5761016780546001600160a01b031916905550565b6040516301ffc9a760e01b81526380ac58cd60e01b60048201526001600160a01b038216906301ffc9a79060240160206040518083038186803b158015611ae457600080fd5b505afa158015611af8573d6000803e3d6000fd5b505050506040513d601f19601f82011682018060405250810190611b1c9190614011565b611b8e5760405162461bcd60e51b815260206004820152603f60248201527f4e6f6e46756e6769626c6552656769737472793a204164647265737320646f6560448201527f73206e6f7420737570706f72742045524337323120696e746572666163652e006064820152608401610837565b61016780546001600160a01b0383166001600160a01b031990911617905550565b610e87338383612841565b611bd260008051602061494e8339815191523361187d565b611bee5760405162461bcd60e51b81526004016108379061456b565b6101695460ff1615611c5b5760405162461bcd60e51b815260206004820152603060248201527f4e6f6e46756e6769626c6552656769737472793a206d65726b6c65526f6f742060448201526f3430b9903132b2b710333937bd32b71760811b6064820152608401610837565b610168829055610169805460ff19168215159081179091556040805184815260ff909216151560208301527fc72271867375e4dc99b635d35b37f44698b889895effb6891602e23128d4f68d910160405180910390a15050565b611cbf33836121f9565b611cdb5760405162461bcd60e51b8152600401610837906145b2565b611ce4836122c3565b611d005760405162461bcd60e51b8152600401610837906146b8565b61185884848484612910565b606061073782612943565b600081815260976020526040812061073790612aa6565b6060600061016a8054611d4090614883565b80601f0160208091040260200160405190810160405280929190818152602001828054611d6c90614883565b8015611db95780601f10611d8e57610100808354040283529160200191611db9565b820191906000526020600020905b815481529060010190602001808311611d9c57829003601f168201915b50505050509050805160001415611dd35761187683612943565b6000611dde84612943565b9050600082518251611df09190614829565b6001600160401b03811115611e1557634e487b7160e01b600052604160045260246000fd5b6040519080825280601f01601f191660200182016040528015611e3f576020820181803683370190505b50905060005b83518351611e539190614829565b811015611ed85782845182611e6891906147de565b81518110611e8657634e487b7160e01b600052603260045260246000fd5b602001015160f81c60f81b828281518110611eb157634e487b7160e01b600052603260045260246000fd5b60200101906001600160f81b031916908160001a905350611ed1816148b8565b9050611e45565b50949350505050565b50919050565b600082815260656020526040902060010154611f0381336125c2565b61096d8383612648565b600054610100900460ff16611f285760005460ff1615611f2c565b303b155b611f8f5760405162461bcd60e51b815260206004820152602e60248201527f496e697469616c697a61626c653a20636f6e747261637420697320616c72656160448201526d191e481a5b9a5d1a585b1a5e995960921b6064820152608401610837565b600054610100900460ff16158015611fb1576000805461ffff19166101011790555b611fb9612ab0565b611fc1612ae1565b611fc9612b20565b611fd1612b20565b611fdb8686612b47565b611fe6600083612b88565b611ffe60008051602061494e83398151915284612b88565b61203660008051602061494e8339815191527fab17982698983e428c1b3359c794bb98c356bd485b8da9b6bffc27745eece3ba612b92565b6120607fab17982698983e428c1b3359c794bb98c356bd485b8da9b6bffc27745eece3ba84612b88565b61016380546001600160b81b03191662010001179055670de0b6b3a76400006101645561016580546001600160a01b038481166001600160a01b0319928316179092556101f461016655610167805492871692909116919091179055610169805460ff1916905580156114a4576000805461ff0019169055505050505050565b60006120fa60008051602061494e8339815191528361187d565b1561210757506001610737565b6001600160a01b03808416600090815260ce602090815260408083209386168352929052205460ff16611876565b61015f805461121790614883565b3b151590565b60006001600160e01b0319821663780e9d6360e01b1480610737575061073782612bdd565b600090815260cb60205260409020546001600160a01b0316151590565b600081815260cd6020526040902080546001600160a01b0319166001600160a01b03841690811790915581906121c082611298565b6001600160a01b03167f8c5be1e5ebec7d5bd14f71427d1e84f3dd0314c0f7b2291e5b200ac8c7c3b92560405160405180910390a45050565b60006122048261216e565b6122655760405162461bcd60e51b815260206004820152602c60248201527f4552433732313a206f70657261746f7220717565727920666f72206e6f6e657860448201526b34b9ba32b73a103a37b5b2b760a11b6064820152608401610837565b600061227083611298565b9050806001600160a01b0316846001600160a01b031614806122ab5750836001600160a01b03166122a0846107cf565b6001600160a01b0316145b806122bb57506122bb81856120e0565b949350505050565b610167546000906001600160a01b031615806107375750610167546040516370a0823160e01b81526001600160a01b03848116600483015260009216906370a082319060240160206040518083038186803b15801561232157600080fd5b505afa158015612335573d6000803e3d6000fd5b505050506040513d601f19601f82011682018060405250810190612359919061436c565b1192915050565b826001600160a01b031661237382611298565b6001600160a01b0316146123db5760405162461bcd60e51b815260206004820152602960248201527f4552433732313a207472616e73666572206f6620746f6b656e2074686174206960448201526839903737ba1037bbb760b91b6064820152608401610837565b6001600160a01b03821661243d5760405162461bcd60e51b8152602060048201526024808201527f4552433732313a207472616e7366657220746f20746865207a65726f206164646044820152637265737360e01b6064820152608401610837565b612448838383612c1d565b61245360008261218b565b6001600160a01b038316600090815260cc6020526040812080546001929061247c908490614829565b90915550506001600160a01b038216600090815260cc602052604081208054600192906124aa9084906147de565b9091555050600081815260cb602052604080822080546001600160a01b0319166001600160a01b0386811691821790925591518493918716917fddf252ad1be2c89b69c2b068fc378daa952ba7f163c4a11628f55a4df523b3ef91a4505050565b60006101608260405161251e9190614409565b90815260405190819003602001902054151592915050565b8251156125b7576125468361250b565b156125635760405162461bcd60e51b81526004016108379061461c565b61256e848383612c91565b80610160846040516125809190614409565b908152604080516020928190038301902092909255600083815261016182529190912084516125b192860190613a5b565b50611858565b611858848383612c91565b6125cc828261187d565b610e87576125e4816001600160a01b03166014612d28565b6125ef836020612d28565b604051602001612600929190614454565b60408051601f198184030181529082905262461bcd60e51b825261083791600401614506565b6126308282612f09565b600082815260976020526040902061096d9082612f8f565b6126528282612fa4565b600082815260976020526040902061096d908261300b565b61267381613020565b600081815261016160205260408120805461268d90614883565b80601f01602080910402602001604051908101604052809291908181526020018280546126b990614883565b80156127065780601f106126db57610100808354040283529160200191612706565b820191906000526020600020905b8154815290600101906020018083116126e957829003601f168201915b5050506000858152610161602052604081209394506127289392509050613b53565b610160816040516127399190614409565b9081526020016040518091039020600090555050565b6101635460009060ff1680612777575061277760008051602061494e8339815191523361187d565b905090565b6127858261216e565b6127e85760405162461bcd60e51b815260206004820152602e60248201527f45524337323155524953746f726167653a2055524920736574206f66206e6f6e60448201526d32bc34b9ba32b73a103a37b5b2b760911b6064820152608401610837565b600082815261012d60209081526040909120825161096d92840190613a5b565b60006118768383613062565b61016354600090610100900460ff1680612777575061277760008051602061494e8339815191523361187d565b816001600160a01b0316836001600160a01b031614156128a35760405162461bcd60e51b815260206004820152601960248201527f4552433732313a20617070726f766520746f2063616c6c6572000000000000006044820152606401610837565b6001600160a01b03838116600081815260ce6020908152604080832094871680845294825291829020805460ff191686151590811790915591519182527f17307eab39ab6107e8899845ad3d59bd9653f200f220920489ca2b5937696c31910160405180910390a3505050565b61291b848484612360565b6129278484848461309a565b6118585760405162461bcd60e51b815260040161083790614519565b606061294e8261216e565b6129b45760405162461bcd60e51b815260206004820152603160248201527f45524337323155524953746f726167653a2055524920717565727920666f72206044820152703737b732bc34b9ba32b73a103a37b5b2b760791b6064820152608401610837565b600082815261012d6020526040812080546129ce90614883565b80601f01602080910402602001604051908101604052809291908181526020018280546129fa90614883565b8015612a475780601f10612a1c57610100808354040283529160200191612a47565b820191906000526020600020905b815481529060010190602001808311612a2a57829003601f168201915b505050505090506000612a586131a7565b9050805160001415612a6b575092915050565b815115612a9d578082604051602001612a85929190614425565b60405160208183030381529060405292505050919050565b6122bb846131b7565b6000610737825490565b600054610100900460ff16612ad75760405162461bcd60e51b81526004016108379061466d565b612adf613281565b565b600054610100900460ff16612b085760405162461bcd60e51b81526004016108379061466d565b612b10613281565b612b18613281565b612ad7613281565b600054610100900460ff16612b105760405162461bcd60e51b81526004016108379061466d565b600054610100900460ff16612b6e5760405162461bcd60e51b81526004016108379061466d565b612b76613281565b612b7e613281565b610e8782826132a8565b610e878282612626565b600082815260656020526040808220600101805490849055905190918391839186917fbd79b86ffe0ab8e8776151514217cd7cacd52c909f66475c3af44e129f0b00ff9190a4505050565b60006001600160e01b031982166380ac58cd60e01b1480612c0e57506001600160e01b03198216635b5e139f60e01b145b806107375750610737826132f6565b612c2561331b565b612c865760405162461bcd60e51b815260206004820152602c60248201527f4e6f6e46756e6769626c6552656769737472793a207472616e7366657273206160448201526b3932903234b9b0b13632b21760a11b6064820152608401610837565b61096d838383613349565b612c9a836122c3565b612cb65760405162461bcd60e51b8152600401610837906146b8565b80612d145760405162461bcd60e51b815260206004820152602860248201527f4e6f6e46756e6769626c6552656769737472793a20746f6b656e49642063616e60448201526706e6f7420626520360c41b6064820152608401610837565b612d1e8382613401565b61096d818361277c565b60606000612d3783600261480a565b612d429060026147de565b6001600160401b03811115612d6757634e487b7160e01b600052604160045260246000fd5b6040519080825280601f01601f191660200182016040528015612d91576020820181803683370190505b509050600360fc1b81600081518110612dba57634e487b7160e01b600052603260045260246000fd5b60200101906001600160f81b031916908160001a905350600f60fb1b81600181518110612df757634e487b7160e01b600052603260045260246000fd5b60200101906001600160f81b031916908160001a9053506000612e1b84600261480a565b612e269060016147de565b90505b6001811115612eba576f181899199a1a9b1b9c1cb0b131b232b360811b85600f1660108110612e6857634e487b7160e01b600052603260045260246000fd5b1a60f81b828281518110612e8c57634e487b7160e01b600052603260045260246000fd5b60200101906001600160f81b031916908160001a90535060049490941c93612eb38161486c565b9050612e29565b5083156118765760405162461bcd60e51b815260206004820181905260248201527f537472696e67733a20686578206c656e67746820696e73756666696369656e746044820152606401610837565b612f13828261187d565b610e875760008281526065602090815260408083206001600160a01b03851684529091529020805460ff19166001179055612f4b3390565b6001600160a01b0316816001600160a01b0316837f2f8788117e7eff1d82e926ec794901d17c78024a50270940304540a733656f0d60405160405180910390a45050565b6000611876836001600160a01b038416613540565b612fae828261187d565b15610e875760008281526065602090815260408083206001600160a01b0385168085529252808320805460ff1916905551339285917ff6391f5c32d9c69d2a47ea670b442974b53935d1edc7fd64eb21e047a839171b9190a45050565b6000611876836001600160a01b03841661358f565b613029816136ac565b600081815261012d60205260409020805461304390614883565b15905061101e57600081815261012d6020526040812061101e91613b53565b600082600001828154811061308757634e487b7160e01b600052603260045260246000fd5b9060005260206000200154905092915050565b60006001600160a01b0384163b1561319c57604051630a85bd0160e11b81526001600160a01b0385169063150b7a02906130de9033908990889088906004016144c9565b602060405180830381600087803b1580156130f857600080fd5b505af1925050508015613128575060408051601f3d908101601f19168201909252613125918101906140c8565b60015b613182573d808015613156576040519150601f19603f3d011682016040523d82523d6000602084013e61315b565b606091505b50805161317a5760405162461bcd60e51b815260040161083790614519565b805181602001fd5b6001600160e01b031916630a85bd0160e11b1490506122bb565b506001949350505050565b606061016a805461074c90614883565b60606131c28261216e565b6132265760405162461bcd60e51b815260206004820152602f60248201527f4552433732314d657461646174613a2055524920717565727920666f72206e6f60448201526e3732bc34b9ba32b73a103a37b5b2b760891b6064820152608401610837565b60006132306131a7565b905060008151116132505760405180602001604052806000815250611876565b8061325a84613753565b60405160200161326b929190614425565b6040516020818303038152906040529392505050565b600054610100900460ff16612adf5760405162461bcd60e51b81526004016108379061466d565b600054610100900460ff166132cf5760405162461bcd60e51b81526004016108379061466d565b81516132e29060c9906020850190613a5b565b50805161096d9060ca906020840190613a5b565b60006001600160e01b03198216635a05180f60e01b148061073757506107378261386c565b6101635460009062010000900460ff1680612777575061277760008051602061494e8339815191523361187d565b6001600160a01b0383166133a45761339f8160fd8054600083815260fe60205260408120829055600182018355919091527f9346ac6dd7de6b96975fec380d4d994c4c12e6a8897544f22915316cc6cca2800155565b6133c7565b816001600160a01b0316836001600160a01b0316146133c7576133c783826138a1565b6001600160a01b0382166133de5761096d8161393e565b826001600160a01b0316826001600160a01b03161461096d5761096d8282613a17565b6001600160a01b0382166134575760405162461bcd60e51b815260206004820181905260248201527f4552433732313a206d696e7420746f20746865207a65726f20616464726573736044820152606401610837565b6134608161216e565b156134ad5760405162461bcd60e51b815260206004820152601c60248201527f4552433732313a20746f6b656e20616c7265616479206d696e746564000000006044820152606401610837565b6134b960008383612c1d565b6001600160a01b038216600090815260cc602052604081208054600192906134e29084906147de565b9091555050600081815260cb602052604080822080546001600160a01b0319166001600160a01b03861690811790915590518392907fddf252ad1be2c89b69c2b068fc378daa952ba7f163c4a11628f55a4df523b3ef908290a45050565b600081815260018301602052604081205461358757508154600181810184556000848152602080822090930184905584548482528286019093526040902091909155610737565b506000610737565b600081815260018301602052604081205480156136a25760006135b3600183614829565b85549091506000906135c790600190614829565b90508181146136485760008660000182815481106135f557634e487b7160e01b600052603260045260246000fd5b906000526020600020015490508087600001848154811061362657634e487b7160e01b600052603260045260246000fd5b6000918252602080832090910192909255918252600188019052604090208390555b855486908061366757634e487b7160e01b600052603160045260246000fd5b600190038181906000526020600020016000905590558560010160008681526020019081526020016000206000905560019350505050610737565b6000915050610737565b60006136b782611298565b90506136c581600084612c1d565b6136d060008361218b565b6001600160a01b038116600090815260cc602052604081208054600192906136f9908490614829565b9091555050600082815260cb602052604080822080546001600160a01b0319169055518391906001600160a01b038416907fddf252ad1be2c89b69c2b068fc378daa952ba7f163c4a11628f55a4df523b3ef908390a45050565b6060816137775750506040805180820190915260018152600360fc1b602082015290565b8160005b81156137a1578061378b816148b8565b915061379a9050600a836147f6565b915061377b565b6000816001600160401b038111156137c957634e487b7160e01b600052604160045260246000fd5b6040519080825280601f01601f1916602001820160405280156137f3576020820181803683370190505b5090505b84156122bb57613808600183614829565b9150613815600a866148d3565b6138209060306147de565b60f81b81838151811061384357634e487b7160e01b600052603260045260246000fd5b60200101906001600160f81b031916908160001a905350613865600a866147f6565b94506137f7565b60006001600160e01b03198216637965db0b60e01b148061073757506301ffc9a760e01b6001600160e01b0319831614610737565b600060016138ae8461131d565b6138b89190614829565b600083815260fc602052604090205490915080821461390b576001600160a01b038416600090815260fb60209081526040808320858452825280832054848452818420819055835260fc90915290208190555b50600091825260fc602090815260408084208490556001600160a01b03909416835260fb81528383209183525290812055565b60fd5460009061395090600190614829565b600083815260fe602052604081205460fd805493945090928490811061398657634e487b7160e01b600052603260045260246000fd5b906000526020600020015490508060fd83815481106139b557634e487b7160e01b600052603260045260246000fd5b600091825260208083209091019290925582815260fe909152604080822084905585825281205560fd8054806139fb57634e487b7160e01b600052603160045260246000fd5b6001900381819060005260206000200160009055905550505050565b6000613a228361131d565b6001600160a01b03909316600090815260fb60209081526040808320868452825280832085905593825260fc9052919091209190915550565b828054613a6790614883565b90600052602060002090601f016020900481019282613a895760008555613acf565b82601f10613aa257805160ff1916838001178555613acf565b82800160010185558215613acf579182015b82811115613acf578251825591602001919060010190613ab4565b50613adb929150613b89565b5090565b828054613aeb90614883565b90600052602060002090601f016020900481019282613b0d5760008555613acf565b82601f10613b265782800160ff19823516178555613acf565b82800160010185558215613acf579182015b82811115613acf578235825591602001919060010190613b38565b508054613b5f90614883565b6000825580601f10613b6f575050565b601f01602090049060005260206000209081019061101e91905b5b80821115613adb5760008155600101613b8a565b60006001600160401b03831115613bb757613bb7614913565b613bca601f8401601f191660200161478b565b9050828152838383011115613bde57600080fd5b828260208301376000602084830101529392505050565b80356001600160a01b0381168114613c0c57600080fd5b919050565b600082601f830112613c21578081fd5b81356020613c36613c31836147bb565b61478b565b80838252828201915082860187848660051b8901011115613c55578586fd5b855b85811015613c7a57613c6882613bf5565b84529284019290840190600101613c57565b5090979650505050505050565b600082601f830112613c97578081fd5b81356020613ca7613c31836147bb565b80838252828201915082860187848660051b8901011115613cc6578586fd5b855b85811015613c7a578135613cdb81614929565b84529284019290840190600101613cc8565b600082601f830112613cfd578081fd5b81356020613d0d613c31836147bb565b80838252828201915082860187848660051b8901011115613d2c578586fd5b855b85811015613c7a5781356001600160401b03811115613d4b578788fd5b613d598a87838c0101613e0f565b8552509284019290840190600101613d2e565b600082601f830112613d7c578081fd5b81356020613d8c613c31836147bb565b80838252828201915082860187848660051b8901011115613dab578586fd5b855b85811015613c7a57813584529284019290840190600101613dad565b60008083601f840112613dda578182fd5b5081356001600160401b03811115613df0578182fd5b602083019150836020828501011115613e0857600080fd5b9250929050565b600082601f830112613e1f578081fd5b61187683833560208501613b9e565b600060208284031215613e3f578081fd5b61187682613bf5565b60008060408385031215613e5a578081fd5b613e6383613bf5565b9150613e7160208401613bf5565b90509250929050565b600080600060608486031215613e8e578081fd5b613e9784613bf5565b9250613ea560208501613bf5565b9150604084013590509250925092565b60008060008060808587031215613eca578182fd5b613ed385613bf5565b9350613ee160208601613bf5565b92506040850135915060608501356001600160401b03811115613f02578182fd5b8501601f81018713613f12578182fd5b613f2187823560208401613b9e565b91505092959194509250565b60008060408385031215613f3f578182fd5b613f4883613bf5565b91506020830135613f5881614929565b809150509250929050565b60008060008060008060808789031215613f7b578384fd5b613f8487613bf5565b955060208701356001600160401b0380821115613f9f578586fd5b613fab8a838b01613dc9565b90975095506040890135915080821115613fc3578384fd5b50613fd089828a01613dc9565b979a9699509497949695606090950135949350505050565b60008060408385031215613ffa578182fd5b61400383613bf5565b946020939093013593505050565b600060208284031215614022578081fd5b815161187681614929565b60006020828403121561403e578081fd5b5035919050565b60008060408385031215614057578182fd5b82359150613e7160208401613bf5565b60008060408385031215614079578182fd5b823591506020830135613f5881614929565b6000806040838503121561409d578182fd5b50508035926020909101359150565b6000602082840312156140bd578081fd5b813561187681614937565b6000602082840312156140d9578081fd5b815161187681614937565b600080602083850312156140f6578182fd5b82356001600160401b0381111561410b578283fd5b61411785828601613dc9565b90969095509350505050565b600060208284031215614134578081fd5b81356001600160401b03811115614149578182fd5b6122bb84828501613e0f565b600080600080600060a0868803121561416c578283fd5b85356001600160401b0380821115614182578485fd5b61418e89838a01613e0f565b965060208801359150808211156141a3578485fd5b506141b088828901613e0f565b9450506141bf60408701613bf5565b92506141cd60608701613bf5565b91506141db60808701613bf5565b90509295509295909350565b6000602082840312156141f8578081fd5b81356001600160401b038082111561420e578283fd5b908301906101208286031215614222578283fd5b61422a614762565b823582811115614238578485fd5b61424487828601613ced565b825250602083013582811115614258578485fd5b61426487828601613c87565b60208301525060408301358281111561427b578485fd5b61428787828601613c87565b60408301525060608301358281111561429e578485fd5b6142aa87828601613c87565b6060830152506080830135828111156142c1578485fd5b6142cd87828601613c11565b60808301525060a0830135828111156142e4578485fd5b6142f087828601613d6c565b60a08301525060c083013582811115614307578485fd5b61431387828601613c11565b60c08301525060e08301358281111561432a578485fd5b61433687828601613d6c565b60e083015250610100808401358381111561434f578586fd5b61435b88828701613ced565b918301919091525095945050505050565b60006020828403121561437d578081fd5b5051919050565b600080600060408486031215614398578081fd5b8335925060208401356001600160401b038111156143b4578182fd5b6143c086828701613dc9565b9497909650939450505050565b600081518084526143e5816020860160208601614840565b601f01601f19169290920160200192915050565b8183823760009101908152919050565b6000825161441b818460208701614840565b9190910192915050565b60008351614437818460208801614840565b83519083019061444b818360208801614840565b01949350505050565b7f416363657373436f6e74726f6c3a206163636f756e742000000000000000000081526000835161448c816017850160208801614840565b7001034b99036b4b9b9b4b733903937b6329607d1b60179184019182015283516144bd816028840160208801614840565b01602801949350505050565b6001600160a01b03858116825284166020820152604081018390526080606082018190526000906144fc908301846143cd565b9695505050505050565b60208152600061187660208301846143cd565b60208082526032908201527f4552433732313a207472616e7366657220746f206e6f6e20455243373231526560408201527131b2b4bb32b91034b6b83632b6b2b73a32b960711b606082015260800190565b60208082526027908201527f4e6f6e46756e6769626c6552656769737472793a206d7573742062652072656760408201526634b9ba3930b91760c91b606082015260800190565b60208082526044908201527f4e6f6e46756e6769626c6552656769737472793a2063616c6c6572206973206e60408201527f6f74206f776e6572206e6f7220617070726f766564206e6f72207265676973746060820152633930b91760e11b608082015260a00190565b60208082526031908201527f4e6f6e46756e6769626c6552656769737472793a206c6162656c20697320616c6040820152703932b0b23c903932b3b4b9ba32b932b21760791b606082015260800190565b6020808252602b908201527f496e697469616c697a61626c653a20636f6e7472616374206973206e6f74206960408201526a6e697469616c697a696e6760a81b606082015260800190565b6020808252604e908201527f4e6f6e46756e6769626c6552656769737472793a20726563697069656e74206d60408201527f7573742068617665206e6f6e2d7a65726f2062616c616e636520696e2070726960608201526d36b0b93c903932b3b4b9ba393c9760911b608082015260a00190565b83815260406020820152816040820152818360608301376000818301606090810191909152601f909201601f1916010192915050565b60405161012081016001600160401b038111828210171561478557614785614913565b60405290565b604051601f8201601f191681016001600160401b03811182821017156147b3576147b3614913565b604052919050565b60006001600160401b038211156147d4576147d4614913565b5060051b60200190565b600082198211156147f1576147f16148e7565b500190565b600082614805576148056148fd565b500490565b6000816000190483118215151615614824576148246148e7565b500290565b60008282101561483b5761483b6148e7565b500390565b60005b8381101561485b578181015183820152602001614843565b838111156118585750506000910152565b60008161487b5761487b6148e7565b506000190190565b600181811c9082168061489757607f821691505b60208210811415611ee157634e487b7160e01b600052602260045260246000fd5b60006000198214156148cc576148cc6148e7565b5060010190565b6000826148e2576148e26148fd565b500690565b634e487b7160e01b600052601160045260246000fd5b634e487b7160e01b600052601260045260246000fd5b634e487b7160e01b600052604160045260246000fd5b801515811461101e57600080fd5b6001600160e01b03198116811461101e57600080fdfeedcc084d3dcd65a1f7f23c65c46722faca6953d28e43150a467cf43e5c309238a2646970667358221220f11f6e73d0f965f09744aeb7746fd7fe0108a64bed4340faad48b04ab2787e2564736f6c63430008040033",
  "linkReferences": {},
  "deployedLinkReferences": {}
}