{
  "_format": "hh-sol-artifact-1",
  "contractName": "UpgradeableRegistryFactory",
  "sourceName": "contracts/identity/UpgradeableRegistryFactory.sol",
  "abi": [
    {
      "inputs": [
        {
          "internalType": "address",
          "name": "_admin",
          "type": "address"
        },
        {
          "internalType": "string[]",
          "name": "_names",
          "type": "string[]"
        },
        {
          "internalType": "string[]",
          "name": "_symbols",
          "type": "string[]"
        },
        {
          "internalType": "address[]",
          "name": "_registrars",
          "type": "address[]"
        }
      ],
      "stateMutability": "nonpayable",
      "type": "constructor"
    },
    {
      "anonymous": false,
      "inputs": [
        {
          "indexed": false,
          "internalType": "address",
          "name": "registryAddress",
          "type": "address"
        }
      ],
      "name": "RegistryCreated",
      "type": "event"
    },
    {
      "anonymous": false,
      "inputs": [
        {
          "indexed": true,
          "internalType": "bytes32",
          "name": "role",
          "type": "bytes32"
        },
        {
          "indexed": true,
          "internalType": "bytes32",
          "name": "previousAdminRole",
          "type": "bytes32"
        },
        {
          "indexed": true,
          "internalType": "bytes32",
          "name": "newAdminRole",
          "type": "bytes32"
        }
      ],
      "name": "RoleAdminChanged",
      "type": "event"
    },
    {
      "anonymous": false,
      "inputs": [
        {
          "indexed": true,
          "internalType": "bytes32",
          "name": "role",
          "type": "bytes32"
        },
        {
          "indexed": true,
          "internalType": "address",
          "name": "account",
          "type": "address"
        },
        {
          "indexed": true,
          "internalType": "address",
          "name": "sender",
          "type": "address"
        }
      ],
      "name": "RoleGranted",
      "type": "event"
    },
    {
      "anonymous": false,
      "inputs": [
        {
          "indexed": true,
          "internalType": "bytes32",
          "name": "role",
          "type": "bytes32"
        },
        {
          "indexed": true,
          "internalType": "address",
          "name": "account",
          "type": "address"
        },
        {
          "indexed": true,
          "internalType": "address",
          "name": "sender",
          "type": "address"
        }
      ],
      "name": "RoleRevoked",
      "type": "event"
    },
    {
      "inputs": [],
      "name": "DEFAULT_ADMIN_ROLE",
      "outputs": [
        {
          "internalType": "bytes32",
          "name": "",
          "type": "bytes32"
        }
      ],
      "stateMutability": "view",
      "type": "function"
    },
    {
      "inputs": [],
      "name": "burnAddress",
      "outputs": [
        {
          "internalType": "address",
          "name": "",
          "type": "address"
        }
      ],
      "stateMutability": "view",
      "type": "function"
    },
    {
      "inputs": [
        {
          "internalType": "string",
          "name": "_name",
          "type": "string"
        },
        {
          "internalType": "string",
          "name": "_symbol",
          "type": "string"
        },
        {
          "internalType": "address",
          "name": "_registrar",
          "type": "address"
        },
        {
          "internalType": "bool",
          "name": "_enumerable",
          "type": "bool"
        }
      ],
      "name": "createRegistry",
      "outputs": [],
      "stateMutability": "nonpayable",
      "type": "function"
    },
    {
      "inputs": [
        {
          "internalType": "string",
          "name": "_name",
          "type": "string"
        },
        {
          "internalType": "string",
          "name": "_symbol",
          "type": "string"
        },
        {
          "internalType": "address",
          "name": "_registrar",
          "type": "address"
        },
        {
          "internalType": "bool",
          "name": "_enumerable",
          "type": "bool"
        }
      ],
      "name": "createRegistryByToken",
      "outputs": [],
      "stateMutability": "nonpayable",
      "type": "function"
    },
    {
      "inputs": [
        {
          "internalType": "uint256",
          "name": "",
          "type": "uint256"
        }
      ],
      "name": "enumerableRegistries",
      "outputs": [
        {
          "internalType": "address",
          "name": "",
          "type": "address"
        }
      ],
      "stateMutability": "view",
      "type": "function"
    },
    {
      "inputs": [],
      "name": "enumerableRegistryBeacon",
      "outputs": [
        {
          "internalType": "address",
          "name": "",
          "type": "address"
        }
      ],
      "stateMutability": "view",
      "type": "function"
    },
    {
      "inputs": [],
      "name": "getNumberOfRegistries",
      "outputs": [
        {
          "internalType": "uint256",
          "name": "numReg",
          "type": "uint256"
        }
      ],
      "stateMutability": "view",
      "type": "function"
    },
    {
      "inputs": [
        {
          "internalType": "bytes32",
          "name": "role",
          "type": "bytes32"
        }
      ],
      "name": "getRoleAdmin",
      "outputs": [
        {
          "internalType": "bytes32",
          "name": "",
          "type": "bytes32"
        }
      ],
      "stateMutability": "view",
      "type": "function"
    },
    {
      "inputs": [
        {
          "internalType": "bytes32",
          "name": "role",
          "type": "bytes32"
        },
        {
          "internalType": "uint256",
          "name": "index",
          "type": "uint256"
        }
      ],
      "name": "getRoleMember",
      "outputs": [
        {
          "internalType": "address",
          "name": "",
          "type": "address"
        }
      ],
      "stateMutability": "view",
      "type": "function"
    },
    {
      "inputs": [
        {
          "internalType": "bytes32",
          "name": "role",
          "type": "bytes32"
        }
      ],
      "name": "getRoleMemberCount",
      "outputs": [
        {
          "internalType": "uint256",
          "name": "",
          "type": "uint256"
        }
      ],
      "stateMutability": "view",
      "type": "function"
    },
    {
      "inputs": [
        {
          "internalType": "bytes32",
          "name": "role",
          "type": "bytes32"
        },
        {
          "internalType": "address",
          "name": "account",
          "type": "address"
        }
      ],
      "name": "grantRole",
      "outputs": [],
      "stateMutability": "nonpayable",
      "type": "function"
    },
    {
      "inputs": [
        {
          "internalType": "bytes32",
          "name": "role",
          "type": "bytes32"
        },
        {
          "internalType": "address",
          "name": "account",
          "type": "address"
        }
      ],
      "name": "hasRole",
      "outputs": [
        {
          "internalType": "bool",
          "name": "",
          "type": "bool"
        }
      ],
      "stateMutability": "view",
      "type": "function"
    },
    {
      "inputs": [
        {
          "internalType": "string",
          "name": "",
          "type": "string"
        }
      ],
      "name": "nameToAddress",
      "outputs": [
        {
          "internalType": "address",
          "name": "",
          "type": "address"
        }
      ],
      "stateMutability": "view",
      "type": "function"
    },
    {
      "inputs": [],
      "name": "registrationFee",
      "outputs": [
        {
          "internalType": "uint256",
          "name": "",
          "type": "uint256"
        }
      ],
      "stateMutability": "view",
      "type": "function"
    },
    {
      "inputs": [],
      "name": "registrationToken",
      "outputs": [
        {
          "internalType": "address",
          "name": "",
          "type": "address"
        }
      ],
      "stateMutability": "view",
      "type": "function"
    },
    {
      "inputs": [
        {
          "internalType": "uint256",
          "name": "",
          "type": "uint256"
        }
      ],
      "name": "registries",
      "outputs": [
        {
          "internalType": "address",
          "name": "",
          "type": "address"
        }
      ],
      "stateMutability": "view",
      "type": "function"
    },
    {
      "inputs": [],
      "name": "registryBeacon",
      "outputs": [
        {
          "internalType": "address",
          "name": "",
          "type": "address"
        }
      ],
      "stateMutability": "view",
      "type": "function"
    },
    {
      "inputs": [
        {
          "internalType": "bytes32",
          "name": "role",
          "type": "bytes32"
        },
        {
          "internalType": "address",
          "name": "account",
          "type": "address"
        }
      ],
      "name": "renounceRole",
      "outputs": [],
      "stateMutability": "nonpayable",
      "type": "function"
    },
    {
      "inputs": [
        {
          "internalType": "bytes32",
          "name": "role",
          "type": "bytes32"
        },
        {
          "internalType": "address",
          "name": "account",
          "type": "address"
        }
      ],
      "name": "revokeRole",
      "outputs": [],
      "stateMutability": "nonpayable",
      "type": "function"
    },
    {
      "inputs": [
        {
          "internalType": "address",
          "name": "_burnAddress",
          "type": "address"
        }
      ],
      "name": "setBurnAddress",
      "outputs": [],
      "stateMutability": "nonpayable",
      "type": "function"
    },
    {
      "inputs": [
        {
          "internalType": "uint256",
          "name": "_registrationFee",
          "type": "uint256"
        }
      ],
      "name": "setRegistrationFee",
      "outputs": [],
      "stateMutability": "nonpayable",
      "type": "function"
    },
    {
      "inputs": [
        {
          "internalType": "address",
          "name": "_registrationToken",
          "type": "address"
        }
      ],
      "name": "setRegistrationToken",
      "outputs": [],
      "stateMutability": "nonpayable",
      "type": "function"
    },
    {
      "inputs": [
        {
          "internalType": "bytes4",
          "name": "interfaceId",
          "type": "bytes4"
        }
      ],
      "name": "supportsInterface",
      "outputs": [
        {
          "internalType": "bool",
          "name": "",
          "type": "bool"
        }
      ],
      "stateMutability": "view",
      "type": "function"
    }
  ],
  "bytecode": "0x6080604052600780546001600160a01b03199081169091556802b5e3af16b18800006008556009805490911661dead1790553480156200003e57600080fd5b50604051620099d8380380620099d883398101604081905262000061916200096b565b8151835114620000cd5760405162461bcd60e51b81526020600482015260396024820152600080516020620099b883398151915260448201527f617973206d75737420626520657175616c206c656e6774682e0000000000000060648201526084015b60405180910390fd5b8051825114620001355760405162461bcd60e51b81526020600482015260396024820152600080516020620099b883398151915260448201527f617973206d75737420626520657175616c206c656e6774682e000000000000006064820152608401620000c4565b62000142600085620003c8565b600060405162000152906200082c565b604051809103906000f0801580156200016f573d6000803e3d6000fd5b506040516200017e906200083a565b6001600160a01b039091168152602001604051809103906000f080158015620001ab573d6000803e3d6000fd5b5060405163f2fde38b60e01b81526001600160a01b0387811660048301529192509082169063f2fde38b90602401600060405180830381600087803b158015620001f457600080fd5b505af115801562000209573d6000803e3d6000fd5b5050600280546001600160a01b0319166001600160a01b038516179055505060405160009062000239906200082c565b604051809103906000f08015801562000256573d6000803e3d6000fd5b5060405162000265906200083a565b6001600160a01b039091168152602001604051809103906000f08015801562000292573d6000803e3d6000fd5b5060405163f2fde38b60e01b81526001600160a01b0388811660048301529192509082169063f2fde38b90602401600060405180830381600087803b158015620002db57600080fd5b505af1158015620002f0573d6000803e3d6000fd5b5050600380546001600160a01b0319166001600160a01b03851617905550600090505b8551811015620003bb57620003a88682815181106200034257634e487b7160e01b600052603260045260246000fd5b60200260200101518683815181106200036b57634e487b7160e01b600052603260045260246000fd5b60200260200101518684815181106200039457634e487b7160e01b600052603260045260246000fd5b60200260200101516200040b60201b60201c565b620003b38162000bc7565b905062000313565b5050505050505062000c05565b620003df82826200065660201b6200082e1760201c565b6000828152600160209081526040909120620004069183906200083e62000666821b17901c565b505050565b6001600160a01b0381166200047d5760405162461bcd60e51b815260206004820152603160248201527f5265676973747279466163746f72793a2052656769737472617220616464726560448201527039b99036bab9ba103737ba10313290181760791b6064820152608401620000c4565b620004888362000686565b15620004ee5760405162461bcd60e51b815260206004820152602e60248201527f5265676973747279466163746f72793a2052656769737472792062792074686160448201526d3a103730b6b29032bc34b9ba399760911b6064820152608401620000c4565b6002546000906001600160a01b03166323c56d0560e21b858585620005148680620006d3565b60405160240162000529949392919062000aed565b60408051601f198184030181529181526020820180516001600160e01b03166001600160e01b0319909416939093179092529051620005689062000848565b6200057592919062000abf565b604051809103906000f08015801562000592573d6000803e3d6000fd5b50600480546001810182556000919091527f8a35acfbc15ff81a39ae7d344fd709f28e8600b4aa8c65c6b64bfe7fe36bd19b0180546001600160a01b0319166001600160a01b0383161790556040519091508190600690620005f690879062000aa1565b9081526040516020918190038201812080546001600160a01b0319166001600160a01b0394851617905591831682527f3f204800c0e5d4c864ce5af4ec6df4566ef4e5ce94b654d6565870b67fc10d3c910160405180910390a150505050565b620006628282620006f9565b5050565b60006200067d836001600160a01b03841662000799565b90505b92915050565b6000808251118015620006cc575060006001600160a01b0316600683604051620006b1919062000aa1565b908152604051908190036020019020546001600160a01b0316145b1592915050565b600082815260016020908152604082206200067d91849062000855620007eb821b17901c565b6000828152602081815260408083206001600160a01b038516845290915290205460ff1662000662576000828152602081815260408083206001600160a01b03851684529091529020805460ff19166001179055620007553390565b6001600160a01b0316816001600160a01b0316837f2f8788117e7eff1d82e926ec794901d17c78024a50270940304540a733656f0d60405160405180910390a45050565b6000818152600183016020526040812054620007e25750815460018181018455600084815260208082209093018490558454848252828601909352604090209190915562000680565b50600062000680565b60006200067d838360008260000182815481106200081957634e487b7160e01b600052603260045260246000fd5b9060005260206000200154905092915050565b615cff8062002e2d83390190565b61050a8062008b2c83390190565b610982806200903683390190565b80516001600160a01b03811681146200086e57600080fd5b919050565b6000601f838184011262000885578182fd5b825160206200089e620008988362000b6e565b62000b3b565b80838252828201915082870188848660051b8a01011115620008be578687fd5b865b858110156200095d5781516001600160401b0380821115620008e057898afd5b818b0191508b603f830112620008f457898afd5b868201516040828211156200090d576200090d62000bef565b62000920828c01601f19168a0162000b3b565b92508183528d8183860101111562000936578b8cfd5b62000947828a850183870162000b94565b50508552509284019290840190600101620008c0565b509098975050505050505050565b6000806000806080858703121562000981578384fd5b6200098c8562000856565b602086810151919550906001600160401b0380821115620009ab578586fd5b620009b989838a0162000873565b95506040880151915080821115620009cf578485fd5b620009dd89838a0162000873565b94506060880151915080821115620009f3578384fd5b508601601f8101881362000a05578283fd5b805162000a16620008988262000b6e565b8082825284820191508484018b868560051b870101111562000a36578687fd5b8694505b8385101562000a635762000a4e8162000856565b83526001949094019391850191850162000a3a565b50979a9699509497505050505050565b6000815180845262000a8d81602086016020860162000b94565b601f01601f19169290920160200192915050565b6000825162000ab581846020870162000b94565b9190910192915050565b6001600160a01b038316815260406020820181905260009062000ae59083018462000a73565b949350505050565b60808152600062000b02608083018762000a73565b828103602084015262000b16818762000a73565b6001600160a01b03958616604085015293909416606090920191909152509392505050565b604051601f8201601f191681016001600160401b038111828210171562000b665762000b6662000bef565b604052919050565b60006001600160401b0382111562000b8a5762000b8a62000bef565b5060051b60200190565b60005b8381101562000bb157818101518382015260200162000b97565b8381111562000bc1576000848401525b50505050565b600060001982141562000be857634e487b7160e01b81526011600452602481fd5b5060010190565b634e487b7160e01b600052604160045260246000fd5b6122188062000c156000396000f3fe60806040523480156200001157600080fd5b5060043610620001695760003560e01c806370d5ae0511620000d3578063ca15c8731162000086578063ca15c8731462000331578063d0d260781462000348578063d547741f146200035f578063d5f9372d1462000376578063d827afc7146200038a578063d9b1ecc514620003a157600080fd5b806370d5ae0514620002b85780638ca5603214620002cc5780639010d07c14620002e357806391d1485414620002fa578063a217fddf1462000311578063c320c727146200031a57600080fd5b806336568abe116200012c57806336568abe14620002425780633db80c2414620002595780634b08b0a3146200026d5780634b0e721614620002815780636347c90014620002985780636e0d91ce14620002af57600080fd5b806301ffc9a7146200016e57806308d88aad146200019a57806314c44e0914620001ea578063248a9ca314620002035780632f2ff15d1462000229575b600080fd5b620001856200017f366004620013a4565b620003b8565b60405190151581526020015b60405180910390f35b620001d1620001ab3660046200146a565b80516020818301810180516006825292820191909301209152546001600160a01b031681565b6040516001600160a01b03909116815260200162000191565b620001f460085481565b60405190815260200162000191565b620001f4620002143660046200133b565b60009081526020819052604090206001015490565b620002406200023a36600462001354565b620003e6565b005b620002406200025336600462001354565b62000411565b600354620001d1906001600160a01b031681565b600754620001d1906001600160a01b031681565b6200024062000292366004620012ff565b62000437565b620001d1620002a93660046200133b565b6200048e565b600454620001f4565b600954620001d1906001600160a01b031681565b62000240620002dd366004620013ce565b620004b9565b620001d1620002f436600462001382565b620005e8565b620001856200030b36600462001354565b62000609565b620001f4600081565b620002406200032b3660046200133b565b62000632565b620001f4620003423660046200133b565b62000663565b620001d1620003593660046200133b565b6200067c565b620002406200037036600462001354565b6200068d565b600254620001d1906001600160a01b031681565b620002406200039b366004620012ff565b62000699565b62000240620003b2366004620014a9565b620006e7565b60006001600160e01b03198216635a05180f60e01b1480620003e05750620003e08262000863565b92915050565b620003f282826200089a565b60008281526001602052604090206200040c90826200083e565b505050565b6200041d8282620008c4565b60008281526001602052604090206200040c908262000942565b6200044460003362000609565b6200046c5760405162461bcd60e51b8152600401620004639062001725565b60405180910390fd5b600980546001600160a01b0319166001600160a01b0392909216919091179055565b600581815481106200049f57600080fd5b6000918252602090912001546001600160a01b0316905081565b620004c660003362000609565b620004e55760405162461bcd60e51b8152600401620004639062001725565b801562000569576200056386868080601f01602080910402602001604051908101604052809392919081815260200183838082843760009201919091525050604080516020601f8a01819004810282018101909252888152925088915087908190840183828082843760009201919091525087925062000959915050565b620005e0565b620005e086868080601f01602080910402602001604051908101604052809392919081815260200183838082843760009201919091525050604080516020601f8a01819004810282018101909252888152925088915087908190840183828082843760009201919091525087925062000b15915050565b505050505050565b600082815260016020526040812062000602908362000855565b9392505050565b6000918252602082815260408084206001600160a01b0393909316845291905290205460ff1690565b6200063f60003362000609565b6200065e5760405162461bcd60e51b8152600401620004639062001725565b600855565b6000818152600160205260408120620003e09062000c71565b600481815481106200049f57600080fd5b6200041d828262000c7c565b620006a660003362000609565b620006c55760405162461bcd60e51b8152600401620004639062001725565b600780546001600160a01b0319166001600160a01b0392909216919091179055565b6007546001600160a01b03166200075d5760405162461bcd60e51b815260206004820152603360248201527f5265676973747279466163746f72793a20726567697374726174696f6e206279604482015272103a37b5b2b7103737ba1032b730b13632b21760691b606482015260840162000463565b6007546001600160a01b03166323b872dd3360095460085460405160e085901b6001600160e01b03191681526001600160a01b0393841660048201529290911660248301526044820152606401602060405180830381600087803b158015620007c557600080fd5b505af1158015620007da573d6000803e3d6000fd5b505050506040513d601f19601f820116820180604052508101906200080091906200131c565b5080156200081b576200081584848462000959565b62000828565b6200082884848462000b15565b50505050565b6200083a828262000ca6565b5050565b600062000602836001600160a01b03841662000d2e565b600062000602838362000d80565b60006001600160e01b03198216637965db0b60e01b1480620003e057506301ffc9a760e01b6001600160e01b0319831614620003e0565b600082815260208190526040902060010154620008b8813362000db9565b6200040c838362000ca6565b6001600160a01b0381163314620009365760405162461bcd60e51b815260206004820152602f60248201527f416363657373436f6e74726f6c3a2063616e206f6e6c792072656e6f756e636560448201526e103937b632b9903337b91039b2b63360891b606482015260840162000463565b6200083a828262000e28565b600062000602836001600160a01b03841662000e90565b6001600160a01b038116620009825760405162461bcd60e51b8152600401620004639062001686565b6200098d8362000fb8565b15620009ad5760405162461bcd60e51b81526004016200046390620016d7565b6002546000906001600160a01b03166323c56d0560e21b858585620009d38680620005e8565b604051602401620009e8949392919062001638565b60408051601f198184030181529181526020820180516001600160e01b03166001600160e01b031990941693909317909252905162000a2790620011fb565b62000a34929190620015fd565b604051809103906000f08015801562000a51573d6000803e3d6000fd5b50600480546001810182556000919091527f8a35acfbc15ff81a39ae7d344fd709f28e8600b4aa8c65c6b64bfe7fe36bd19b0180546001600160a01b0319166001600160a01b038316179055604051909150819060069062000ab590879062001566565b9081526040516020918190038201812080546001600160a01b0319166001600160a01b0394851617905591831682527f3f204800c0e5d4c864ce5af4ec6df4566ef4e5ce94b654d6565870b67fc10d3c910160405180910390a150505050565b6001600160a01b03811662000b3e5760405162461bcd60e51b8152600401620004639062001686565b62000b498362000fb8565b1562000b695760405162461bcd60e51b81526004016200046390620016d7565b6003546000906001600160a01b03166323c56d0560e21b85858562000b8f8680620005e8565b60405160240162000ba4949392919062001638565b60408051601f198184030181529181526020820180516001600160e01b03166001600160e01b031990941693909317909252905162000be390620011fb565b62000bf0929190620015fd565b604051809103906000f08015801562000c0d573d6000803e3d6000fd5b50600580546001810182556000919091527f036b6384b5eca791c62761152d0c79bb0604c104a5fb6f4eb0703f3154bb3db00180546001600160a01b0319166001600160a01b038316179055604051909150819060069062000ab590879062001566565b6000620003e0825490565b60008281526020819052604090206001015462000c9a813362000db9565b6200040c838362000e28565b62000cb2828262000609565b6200083a576000828152602081815260408083206001600160a01b03851684529091529020805460ff1916600117905562000cea3390565b6001600160a01b0316816001600160a01b0316837f2f8788117e7eff1d82e926ec794901d17c78024a50270940304540a733656f0d60405160405180910390a45050565b600081815260018301602052604081205462000d7757508154600181810184556000848152602080822090930184905584548482528286019093526040902091909155620003e0565b506000620003e0565b600082600001828154811062000da657634e487b7160e01b600052603260045260246000fd5b9060005260206000200154905092915050565b62000dc5828262000609565b6200083a5762000de0816001600160a01b0316601462001005565b62000ded83602062001005565b60405160200162000e0092919062001584565b60408051601f198184030181529082905262461bcd60e51b8252620004639160040162001623565b62000e34828262000609565b156200083a576000828152602081815260408083206001600160a01b0385168085529252808320805460ff1916905551339285917ff6391f5c32d9c69d2a47ea670b442974b53935d1edc7fd64eb21e047a839171b9190a45050565b6000818152600183016020526040812054801562000fad57600062000eb7600183620017bf565b855490915060009062000ecd90600190620017bf565b905081811462000f5157600086600001828154811062000efd57634e487b7160e01b600052603260045260246000fd5b906000526020600020015490508087600001848154811062000f2f57634e487b7160e01b600052603260045260246000fd5b6000918252602080832090910192909255918252600188019052604090208390555b855486908062000f7157634e487b7160e01b600052603160045260246000fd5b600190038181906000526020600020016000905590558560010160008681526020019081526020016000206000905560019350505050620003e0565b6000915050620003e0565b600080825111801562000ffe575060006001600160a01b031660068360405162000fe3919062001566565b908152604051908190036020019020546001600160a01b0316145b1592915050565b60606000620010168360026200179d565b6200102390600262001782565b67ffffffffffffffff8111156200104a57634e487b7160e01b600052604160045260246000fd5b6040519080825280601f01601f19166020018201604052801562001075576020820181803683370190505b509050600360fc1b816000815181106200109f57634e487b7160e01b600052603260045260246000fd5b60200101906001600160f81b031916908160001a905350600f60fb1b81600181518110620010dd57634e487b7160e01b600052603260045260246000fd5b60200101906001600160f81b031916908160001a9053506000620011038460026200179d565b6200111090600162001782565b90505b6001811115620011aa576f181899199a1a9b1b9c1cb0b131b232b360811b85600f16601081106200115457634e487b7160e01b600052603260045260246000fd5b1a60f81b8282815181106200117957634e487b7160e01b600052603260045260246000fd5b60200101906001600160f81b031916908160001a90535060049490941c93620011a28162001808565b905062001113565b508315620006025760405162461bcd60e51b815260206004820181905260248201527f537472696e67733a20686578206c656e67746820696e73756666696369656e74604482015260640162000463565b610982806200186183390190565b80356001600160a01b03811681146200122157600080fd5b919050565b60008083601f84011262001238578182fd5b50813567ffffffffffffffff81111562001250578182fd5b6020830191508360208285010111156200126957600080fd5b9250929050565b600082601f83011262001281578081fd5b813567ffffffffffffffff808211156200129f576200129f62001838565b604051601f8301601f19908116603f01168101908282118183101715620012ca57620012ca62001838565b81604052838152866020858801011115620012e3578485fd5b8360208701602083013792830160200193909352509392505050565b60006020828403121562001311578081fd5b620006028262001209565b6000602082840312156200132e578081fd5b815162000602816200184e565b6000602082840312156200134d578081fd5b5035919050565b6000806040838503121562001367578081fd5b82359150620013796020840162001209565b90509250929050565b6000806040838503121562001395578182fd5b50508035926020909101359150565b600060208284031215620013b6578081fd5b81356001600160e01b03198116811462000602578182fd5b60008060008060008060808789031215620013e7578182fd5b863567ffffffffffffffff80821115620013ff578384fd5b6200140d8a838b0162001226565b9098509650602089013591508082111562001426578384fd5b506200143589828a0162001226565b90955093506200144a90506040880162001209565b915060608701356200145c816200184e565b809150509295509295509295565b6000602082840312156200147c578081fd5b813567ffffffffffffffff81111562001493578182fd5b620014a18482850162001270565b949350505050565b60008060008060808587031215620014bf578384fd5b843567ffffffffffffffff80821115620014d7578586fd5b620014e58883890162001270565b95506020870135915080821115620014fb578485fd5b506200150a8782880162001270565b9350506200151b6040860162001209565b915060608501356200152d816200184e565b939692955090935050565b6000815180845262001552816020860160208601620017d9565b601f01601f19169290920160200192915050565b600082516200157a818460208701620017d9565b9190910192915050565b7f416363657373436f6e74726f6c3a206163636f756e7420000000000000000000815260008351620015be816017850160208801620017d9565b7001034b99036b4b9b9b4b733903937b6329607d1b6017918401918201528351620015f1816028840160208801620017d9565b01602801949350505050565b6001600160a01b0383168152604060208201819052600090620014a19083018462001538565b60208152600062000602602083018462001538565b6080815260006200164d608083018762001538565b828103602084015262001661818762001538565b6001600160a01b03958616604085015293909416606090920191909152509392505050565b60208082526031908201527f5265676973747279466163746f72793a2052656769737472617220616464726560408201527039b99036bab9ba103737ba10313290181760791b606082015260800190565b6020808252602e908201527f5265676973747279466163746f72793a2052656769737472792062792074686160408201526d3a103730b6b29032bc34b9ba399760911b606082015260800190565b6020808252603a908201527f5265676973747279466163746f72793a206d75737420686176652061646d696e60408201527f20726f6c6520746f206372656174652061207265676973747279000000000000606082015260800190565b6000821982111562001798576200179862001822565b500190565b6000816000190483118215151615620017ba57620017ba62001822565b500290565b600082821015620017d457620017d462001822565b500390565b60005b83811015620017f6578181015183820152602001620017dc565b83811115620008285750506000910152565b6000816200181a576200181a62001822565b506000190190565b634e487b7160e01b600052601160045260246000fd5b634e487b7160e01b600052604160045260246000fd5b80151581146200185d57600080fd5b5056fe60806040526040516109823803806109828339810160408190526100229161047d565b61004d60017fa3f0ad74e5423aebfd80d3ef4346578335a9a72aeaee59ff6cb3582b35133d51610588565b60008051602061093b8339815191521461007757634e487b7160e01b600052600160045260246000fd5b6100838282600061008a565b50506105ed565b61009383610164565b6040516001600160a01b038416907f1cf3b03a6cf19fa2baba4df148e9dcabedea7f8a5c07840e207e5c089be95d3e90600090a26000825111806100d45750805b1561015f5761015d836001600160a01b0316635c60da1b6040518163ffffffff1660e01b815260040160206040518083038186803b15801561011557600080fd5b505afa158015610129573d6000803e3d6000fd5b505050506040513d601f19601f8201168201806040525081019061014d9190610463565b8361030460201b6100291760201c565b505b505050565b6101778161033060201b6100551760201c565b6101d65760405162461bcd60e51b815260206004820152602560248201527f455243313936373a206e657720626561636f6e206973206e6f74206120636f6e6044820152641d1c9858dd60da1b60648201526084015b60405180910390fd5b610259816001600160a01b0316635c60da1b6040518163ffffffff1660e01b815260040160206040518083038186803b15801561021257600080fd5b505afa158015610226573d6000803e3d6000fd5b505050506040513d601f19601f8201168201806040525081019061024a9190610463565b61033060201b6100551760201c565b6102be5760405162461bcd60e51b815260206004820152603060248201527f455243313936373a20626561636f6e20696d706c656d656e746174696f6e206960448201526f1cc81b9bdd08184818dbdb9d1c9858dd60821b60648201526084016101cd565b806102e360008051602061093b83398151915260001b61033660201b61005b1760201c565b80546001600160a01b0319166001600160a01b039290921691909117905550565b6060610329838360405180606001604052806027815260200161095b60279139610339565b9392505050565b3b151590565b90565b6060833b6103985760405162461bcd60e51b815260206004820152602660248201527f416464726573733a2064656c65676174652063616c6c20746f206e6f6e2d636f6044820152651b9d1c9858dd60d21b60648201526084016101cd565b600080856001600160a01b0316856040516103b39190610539565b600060405180830381855af49150503d80600081146103ee576040519150601f19603f3d011682016040523d82523d6000602084013e6103f3565b606091505b50909250905061040482828661040e565b9695505050505050565b6060831561041d575081610329565b82511561042d5782518084602001fd5b8160405162461bcd60e51b81526004016101cd9190610555565b80516001600160a01b038116811461045e57600080fd5b919050565b600060208284031215610474578081fd5b61032982610447565b6000806040838503121561048f578081fd5b61049883610447565b60208401519092506001600160401b03808211156104b4578283fd5b818501915085601f8301126104c7578283fd5b8151818111156104d9576104d96105d7565b604051601f8201601f19908116603f01168101908382118183101715610501576105016105d7565b81604052828152886020848701011115610519578586fd5b61052a8360208301602088016105ab565b80955050505050509250929050565b6000825161054b8184602087016105ab565b9190910192915050565b60208152600082518060208401526105748160408501602087016105ab565b601f01601f19169190910160400192915050565b6000828210156105a657634e487b7160e01b81526011600452602481fd5b500390565b60005b838110156105c65781810151838201526020016105ae565b8381111561015d5750506000910152565b634e487b7160e01b600052604160045260246000fd5b61033f806105fc6000396000f3fe60806040523661001357610011610017565b005b6100115b61002761002261005e565b610106565b565b606061004e83836040518060600160405280602781526020016102e36027913961012a565b9392505050565b3b151590565b90565b60006100917fa3f0ad74e5423aebfd80d3ef4346578335a9a72aeaee59ff6cb3582b35133d50546001600160a01b031690565b6001600160a01b0316635c60da1b6040518163ffffffff1660e01b815260040160206040518083038186803b1580156100c957600080fd5b505afa1580156100dd573d6000803e3d6000fd5b505050506040513d601f19601f82011682018060405250810190610101919061023c565b905090565b3660008037600080366000845af43d6000803e808015610125573d6000f35b3d6000fd5b6060833b61018e5760405162461bcd60e51b815260206004820152602660248201527f416464726573733a2064656c65676174652063616c6c20746f206e6f6e2d636f6044820152651b9d1c9858dd60d21b60648201526084015b60405180910390fd5b600080856001600160a01b0316856040516101a99190610263565b600060405180830381855af49150503d80600081146101e4576040519150601f19603f3d011682016040523d82523d6000602084013e6101e9565b606091505b50915091506101f9828286610203565b9695505050505050565b6060831561021257508161004e565b8251156102225782518084602001fd5b8160405162461bcd60e51b8152600401610185919061027f565b60006020828403121561024d578081fd5b81516001600160a01b038116811461004e578182fd5b600082516102758184602087016102b2565b9190910192915050565b602081526000825180602084015261029e8160408501602087016102b2565b601f01601f19169190910160400192915050565b60005b838110156102cd5781810151838201526020016102b5565b838111156102dc576000848401525b5050505056fe416464726573733a206c6f772d6c6576656c2064656c65676174652063616c6c206661696c6564a26469706673582212207874c9cc490fb37818e4bc4fd6b88eb07b2db65b8baa62c9aa03d317ad11a10964736f6c63430008040033a3f0ad74e5423aebfd80d3ef4346578335a9a72aeaee59ff6cb3582b35133d50416464726573733a206c6f772d6c6576656c2064656c65676174652063616c6c206661696c6564a2646970667358221220306d7804444d1721d0b61fb3cbf6f98d8252fc300a4fe97f5514cf92b2b1906e64736f6c6343000804003360a06040523060601b6080523480156200001857600080fd5b50600054610100900460ff168062000033575060005460ff16155b6200009b5760405162461bcd60e51b815260206004820152602e60248201527f496e697469616c697a61626c653a20636f6e747261637420697320616c72656160448201526d191e481a5b9a5d1a585b1a5e995960921b606482015260840160405180910390fd5b600054610100900460ff16158015620000be576000805461ffff19166101011790555b8015620000d1576000805461ff00191690555b5060805160601c615bf96200010660003960008181611167015281816111a7015281816114a101526114e10152615bf96000f3fe6080604052600436106102c95760003560e01c806366e7b60611610175578063a217fddf116100dc578063ca15c87311610095578063f041b4a71161006f578063f041b4a714610944578063f68e955314610965578063f8895cc814610987578063fce589d81461099c57600080fd5b8063ca15c873146108bb578063d547741f146108db578063e985e9c5146108fb57600080fd5b8063a217fddf146107f2578063a22cb46514610807578063b88d4fde14610827578063bb87c1c814610847578063bce8542e14610862578063c87b56dd1461089b57600080fd5b80638daf3f4e1161012e5780638daf3f4e1461073d5780638f15b4141461075d5780639010d07c1461077d57806391d148541461079d57806393d0da07146107bd57806395d89b41146107dd57600080fd5b806366e7b6061461067b5780636f4c25aa1461069b5780637092d9ea146106bc57806370a08231146106dc57806370d5ae05146106fc5780638d59cc021461071d57600080fd5b806336568abe116102345780634b08b0a3116101ed5780635471a057116101c75780635471a057146105e757806358083969146106075780636017160b1461063b5780636352211e1461065b57600080fd5b80634b08b0a31461058b5780634f1ef286146105b45780634f6ccce7146105c757600080fd5b806336568abe1461048b5780633659cfe6146104ab57806338f292d5146104cb57806342842e0e1461052b57806342966c681461054b57806347f00d5a1461056b57600080fd5b806318160ddd1161028657806318160ddd146103c45780632185810b146103d957806323b872dd146103fb578063248a9ca31461041b5780632f2ff15d1461044b5780632f745c591461046b57600080fd5b806301ffc9a7146102ce57806306fdde0314610303578063081812fc14610325578063095ea7b31461035d5780630ecf9dfd1461037f57806314c44e091461039f575b600080fd5b3480156102da57600080fd5b506102ee6102e93660046151c2565b6109b3565b60405190151581526020015b60405180910390f35b34801561030f57600080fd5b506103186109c4565b6040516102fa919061567e565b34801561033157600080fd5b50610345610340366004615167565b610a56565b6040516001600160a01b0390911681526020016102fa565b34801561036957600080fd5b5061037d61037836600461509f565b610ae3565b005b34801561038b57600080fd5b5061037d61039a366004614ff9565b610bf9565b3480156103ab57600080fd5b506103b66101c85481565b6040519081526020016102fa565b3480156103d057600080fd5b5060fd546103b6565b3480156103e557600080fd5b506101c7546102ee906301000000900460ff1681565b34801561040757600080fd5b5061037d610416366004614e5b565b61102b565b34801561042757600080fd5b506103b6610436366004615167565b60009081526065602052604090206001015490565b34801561045757600080fd5b5061037d61046636600461517f565b611082565b34801561047757600080fd5b506103b661048636600461509f565b6110a4565b34801561049757600080fd5b5061037d6104a636600461517f565b61113a565b3480156104b757600080fd5b5061037d6104c6366004614e0f565b61115c565b3480156104d757600080fd5b5061050c6104e6366004615167565b6101c660205260009081526040902080546001909101546001600160a01b039091169082565b604080516001600160a01b0390931683526020830191909152016102fa565b34801561053757600080fd5b5061037d610546366004614e5b565b611225565b34801561055757600080fd5b5061037d610566366004615167565b611240565b34801561057757600080fd5b5061037d6105863660046154ae565b61135b565b34801561059757600080fd5b506101c7546103459064010000000090046001600160a01b031681565b61037d6105c2366004614f31565b611496565b3480156105d357600080fd5b506103b66105e2366004615167565b611550565b3480156105f357600080fd5b506101c7546102ee90610100900460ff1681565b34801561061357600080fd5b506103b67fab17982698983e428c1b3359c794bb98c356bd485b8da9b6bffc27745eece3ba81565b34801561064757600080fd5b50610318610656366004615167565b6115f1565b34801561066757600080fd5b50610345610676366004615167565b61168c565b34801561068757600080fd5b5061037d6106963660046150c8565b611703565b3480156106a757600080fd5b506101c7546102ee9062010000900460ff1681565b3480156106c857600080fd5b5061037d6106d7366004614f7c565b6118f5565b3480156106e857600080fd5b506103b66106f7366004614e0f565b611c24565b34801561070857600080fd5b506101c954610345906001600160a01b031681565b34801561072957600080fd5b5061037d610738366004614f7c565b611cab565b34801561074957600080fd5b5061037d6107583660046151fa565b611d5b565b34801561076957600080fd5b5061037d61077836600461526b565b612328565b34801561078957600080fd5b506103456107983660046151a1565b6124a3565b3480156107a957600080fd5b506102ee6107b836600461517f565b6124c2565b3480156107c957600080fd5b5061037d6107d83660046154ae565b6124ed565b3480156107e957600080fd5b5061031861264f565b3480156107fe57600080fd5b506103b6600081565b34801561081357600080fd5b5061037d610822366004614efb565b61265e565b34801561083357600080fd5b5061037d610842366004614e96565b612723565b34801561085357600080fd5b506101c7546102ee9060ff1681565b34801561086e57600080fd5b506103b661087d366004615239565b80516020818301810180516101c48252928201919093012091525481565b3480156108a757600080fd5b506103186108b6366004615167565b61277a565b3480156108c757600080fd5b506103b66108d6366004615167565b612785565b3480156108e757600080fd5b5061037d6108f636600461517f565b61279c565b34801561090757600080fd5b506102ee610916366004614e29565b6001600160a01b03918216600090815260ce6020908152604080832093909416825291909152205460ff1690565b34801561095057600080fd5b506101cb54610345906001600160a01b031681565b34801561097157600080fd5b506103b6600080516020615ba483398151915281565b34801561099357600080fd5b506103186127a6565b3480156109a857600080fd5b506103b66101ca5481565b60006109be826127b4565b92915050565b606060c980546109d390615aac565b80601f01602080910402602001604051908101604052809291908181526020018280546109ff90615aac565b8015610a4c5780601f10610a2157610100808354040283529160200191610a4c565b820191906000526020600020905b815481529060010190602001808311610a2f57829003601f168201915b5050505050905090565b6000610a61826127d9565b610ac75760405162461bcd60e51b815260206004820152602c60248201527f4552433732313a20617070726f76656420717565727920666f72206e6f6e657860448201526b34b9ba32b73a103a37b5b2b760a11b60648201526084015b60405180910390fd5b50600090815260cd60205260409020546001600160a01b031690565b6000610aee8261168c565b9050806001600160a01b0316836001600160a01b03161415610b5c5760405162461bcd60e51b815260206004820152602160248201527f4552433732313a20617070726f76616c20746f2063757272656e74206f776e656044820152603960f91b6064820152608401610abe565b336001600160a01b0382161480610b785750610b788133610916565b610bea5760405162461bcd60e51b815260206004820152603860248201527f4552433732313a20617070726f76652063616c6c6572206973206e6f74206f7760448201527f6e6572206e6f7220617070726f76656420666f7220616c6c00000000000000006064820152608401610abe565b610bf483836127f6565b505050565b6101c75460ff16610c685760405162461bcd60e51b815260206004820152603360248201527f4e6f6e46756e6769626c6552656769737472793a204c617a79207265676973746044820152723930ba34b7b71034b9903234b9b0b13632b21760691b6064820152608401610abe565b610c7187612864565b610c8d5760405162461bcd60e51b8152600401610abe906158e1565b6101c75462010000900460ff1615610d205760405162461bcd60e51b815260206004820152604a60248201527f4e6f6e46756e6769626c6552656769737472793a206c6162656c206368616e6760448201527f6573206d7573742062652064697361626c656420666f72206c617a792072656760648201526934b9ba3930ba34b7b71760b11b608482015260a401610abe565b84610d895760405162461bcd60e51b815260206004820152603360248201527f4e6f6e46756e6769626c6552656769737472793a206c6162656c206669656c646044820152721036bab9ba103737ba10313290313630b7359760691b6064820152608401610abe565b610dc886868080601f01602080910402602001604051908101604052809392919081815260200183838082843760009201919091525061290192505050565b15610e3b5760405162461bcd60e51b815260206004820152603760248201527f4e6f6e46756e6769626c6552656769737472793a20526567697374726174696f60448201527f6e206c6162656c20616c7265616479206578697374732e0000000000000000006064820152608401610abe565b336001600160a01b03881614610ea95760405162461bcd60e51b815260206004820152602d60248201527f4e6f6e46756e6769626c6552656769737472793a2043616c6c6572206973206e60448201526c37ba103932b1b4b834b2b73a1760991b6064820152608401610abe565b610f518787878080601f01602080910402602001604051908101604052809392919081815260200183838082843760009201919091525050604080516020601f8b01819004810282018101909252898152925089915088908190840183828082843760009201919091525050604080516020601f8a01819004810282018101909252888152925088915087908190840183828082843760009201919091525061292c92505050565b610fad5760405162461bcd60e51b815260206004820152602760248201527f4e6f6e46756e6769626c6552656769737472793a207369676e6174757265206660448201526630b4b63ab9329760c91b6064820152608401610abe565b6110218787878080601f01602080910402602001604051908101604052809392919081815260200183838082843760009201919091525050604080516020601f8b0181900481028201810190925289815292508991508890819084018382808284376000920191909152506129d192505050565b5050505050505050565b611036335b82612a60565b6110525760405162461bcd60e51b8152600401610abe906157c9565b61105b82612864565b6110775760405162461bcd60e51b8152600401610abe906158e1565b610bf4838383612b60565b61108c8282612d0b565b6000828152609760205260409020610bf49082612d31565b60006110af83611c24565b82106111115760405162461bcd60e51b815260206004820152602b60248201527f455243373231456e756d657261626c653a206f776e657220696e646578206f7560448201526a74206f6620626f756e647360a81b6064820152608401610abe565b506001600160a01b0391909116600090815260fb60209081526040808320938352929052205490565b6111448282612d46565b6000828152609760205260409020610bf49082612dc0565b306001600160a01b037f00000000000000000000000000000000000000000000000000000000000000001614156111a55760405162461bcd60e51b8152600401610abe906156e3565b7f00000000000000000000000000000000000000000000000000000000000000006001600160a01b03166111d7612dd5565b6001600160a01b0316146111fd5760405162461bcd60e51b8152600401610abe9061572f565b61120681612e03565b6040805160008082526020820190925261122291839190612e1c565b50565b610bf483838360405180602001604052806000815250612723565b61124933611030565b6112655760405162461bcd60e51b8152600401610abe906157c9565b61126e81612f60565b60008181526101c66020526040902060010154156112225760008181526101c660205260409020546001600160a01b031663a9059cbb3360008481526101c660205260409081902060010154905160e084901b6001600160e01b03191681526001600160a01b0390921660048301526024820152604401602060405180830381600087803b1580156112ff57600080fd5b505af1158015611313573d6000803e3d6000fd5b505050506040513d601f19601f82011682018060405250810190611337919061514b565b5060009081526101c66020526040812080546001600160a01b031916815560010155565b611363613045565b6113ca5760405162461bcd60e51b815260206004820152603260248201527f4e6f6e46756e6769626c6552656769737472793a2053746f726167652075706460448201527130ba34b7339034b9903234b9b0b13632b21760711b6064820152608401610abe565b6113d5335b84612a60565b6113f15760405162461bcd60e51b8152600401610abe906157c9565b6114318383838080601f01602080910402602001604051908101604052809392919081815260200183838082843760009201919091525061307792505050565b7f2f0b1fafb1d28d13e045afb299578515ce12beeff8ee8ca9c6a32f18be41f0f483838360405160200161146692919061558d565b60408051601f198184030181528282528051602091820120938352820192909252015b60405180910390a1505050565b306001600160a01b037f00000000000000000000000000000000000000000000000000000000000000001614156114df5760405162461bcd60e51b8152600401610abe906156e3565b7f00000000000000000000000000000000000000000000000000000000000000006001600160a01b0316611511612dd5565b6001600160a01b0316146115375760405162461bcd60e51b8152600401610abe9061572f565b61154082612e03565b61154c82826001612e1c565b5050565b600061155b60fd5490565b82106115be5760405162461bcd60e51b815260206004820152602c60248201527f455243373231456e756d657261626c653a20676c6f62616c20696e646578206f60448201526b7574206f6620626f756e647360a01b6064820152608401610abe565b60fd82815481106115df57634e487b7160e01b600052603260045260246000fd5b90600052602060002001549050919050565b6101c5602052600090815260409020805461160b90615aac565b80601f016020809104026020016040519081016040528092919081815260200182805461163790615aac565b80156116845780601f1061165957610100808354040283529160200191611684565b820191906000526020600020905b81548152906001019060200180831161166757829003601f168201915b505050505081565b600081815260cb60205260408120546001600160a01b0316806109be5760405162461bcd60e51b815260206004820152602960248201527f4552433732313a206f776e657220717565727920666f72206e6f6e657869737460448201526832b73a103a37b5b2b760b91b6064820152608401610abe565b61171b600080516020615ba4833981519152336124c2565b6117375760405162461bcd60e51b8152600401610abe90615833565b81518351146117c15760405162461bcd60e51b815260206004820152604a60248201527f4e6f6e46756e6769626c6552656769737472793a20726563697069656e74732060448201527f6172726179206d7573742062652073616d65206c656e677468206173206c616260648201526932b6399030b93930bc9760b11b608482015260a401610abe565b81518151146118525760405162461bcd60e51b815260206004820152605160248201527f4e6f6e46756e6769626c6552656769737472793a20726567697374726174696f60448201527f6e4461746173206172726179206d7573742062652073616d65206c656e6774686064820152701030b9903630b132b6399030b93930bc9760791b608482015260a401610abe565b60005b83518110156118ef576118de84828151811061188157634e487b7160e01b600052603260045260246000fd5b60200260200101518483815181106118a957634e487b7160e01b600052603260045260246000fd5b60200260200101518484815181106118d157634e487b7160e01b600052603260045260246000fd5b60200260200101516129d1565b506118e881615ae7565b9050611855565b50505050565b6101c75464010000000090046001600160a01b031661197c5760405162461bcd60e51b815260206004820152603760248201527f4e6f6e46756e6769626c6552656769737472793a20726567697374726174696f60448201527f6e20627920746f6b656e206e6f7420656e61626c65642e0000000000000000006064820152608401610abe565b6119bb84848080601f01602080910402602001604051908101604052809392919081815260200183838082843760009201919091525061290192505050565b156119d85760405162461bcd60e51b8152600401610abe90615890565b6101c75464010000000090046001600160a01b03166323b872dd336101c8546040516001600160e01b031960e085901b1681526001600160a01b0390921660048301523060248301526044820152606401602060405180830381600087803b158015611a4357600080fd5b505af1158015611a57573d6000803e3d6000fd5b505050506040513d601f19601f82011682018060405250810190611a7b919061514b565b506000611af28686868080601f01602080910402602001604051908101604052809392919081815260200183838082843760009201919091525050604080516020601f8a0181900481028201810190925288815292508891508790819084018382808284376000920191909152506129d192505050565b905060006127106101ca546101c854611b0b9190615a33565b611b159190615a1f565b6101c7546101c95460405163a9059cbb60e01b81526001600160a01b03918216600482015260248101849052929350640100000000909104169063a9059cbb90604401602060405180830381600087803b158015611b7257600080fd5b505af1158015611b86573d6000803e3d6000fd5b505050506040513d601f19601f82011682018060405250810190611baa919061514b565b50604080518082019091526101c75464010000000090046001600160a01b031681526101c8546020820190611be0908490615a52565b905260009283526101c660209081526040909320815181546001600160a01b0319166001600160a01b03909116178155920151600190920191909155505050505050565b60006001600160a01b038216611c8f5760405162461bcd60e51b815260206004820152602a60248201527f4552433732313a2062616c616e636520717565727920666f7220746865207a65604482015269726f206164647265737360b01b6064820152608401610abe565b506001600160a01b0316600090815260cc602052604090205490565b611cc3600080516020615ba4833981519152336124c2565b611cdf5760405162461bcd60e51b8152600401610abe90615833565b611d538585858080601f01602080910402602001604051908101604052809392919081815260200183838082843760009201919091525050604080516020601f890181900481028201810190925287815292508791508690819084018382808284376000920191909152506129d192505050565b505050505050565b611d73600080516020615ba4833981519152336124c2565b611dcf5760405162461bcd60e51b815260206004820152602760248201527f4e6f6e46756e6769626c6552656769737472793a206d7573742062652072656760448201526634b9ba3930b91760c91b6064820152608401610abe565b6000611ddd828401846152ec565b80515190915015611e295780518051600090611e0957634e487b7160e01b600052603260045260246000fd5b60200260200101516101c39080519060200190611e27929190614a4f565b505b60208101515115611e7c578060200151600081518110611e5957634e487b7160e01b600052603260045260246000fd5b60200260200101516101c760006101000a81548160ff0219169083151502179055505b60408101515115611ecf578060400151600081518110611eac57634e487b7160e01b600052603260045260246000fd5b60200260200101516101c760016101000a81548160ff0219169083151502179055505b60608101515115611f22578060600151600081518110611eff57634e487b7160e01b600052603260045260246000fd5b60200260200101516101c760026101000a81548160ff0219169083151502179055505b60808101515115611f75578060800151600081518110611f5257634e487b7160e01b600052603260045260246000fd5b60200260200101516101c760036101000a81548160ff0219169083151502179055505b60a08101515115611fd5578060a00151600081518110611fa557634e487b7160e01b600052603260045260246000fd5b60200260200101516101c760046101000a8154816001600160a01b0302191690836001600160a01b031602179055505b60c08101515115612015578060c0015160008151811061200557634e487b7160e01b600052603260045260246000fd5b60200260200101516101c8819055505b60e08101515115612075578060e0015160008151811061204557634e487b7160e01b600052603260045260246000fd5b60200260200101516101c960006101000a8154816001600160a01b0302191690836001600160a01b031602179055505b61010081015151156121a0576127108161010001516000815181106120aa57634e487b7160e01b600052603260045260246000fd5b6020026020010151111580156120ee575060008161010001516000815181106120e357634e487b7160e01b600052603260045260246000fd5b602002602001015110155b61216a5760405162461bcd60e51b815260206004820152604160248201527f4e6f6e46756e6769626c6552656769737472793a206275726e466565206d757360448201527f74206265206765207468616e203020616e64206c65207468616e2031303030306064820152601760f91b608482015260a401610abe565b80610100015160008151811061219057634e487b7160e01b600052603260045260246000fd5b60200260200101516101ca819055505b6101208101515115610bf4578061012001516000815181106121d257634e487b7160e01b600052603260045260246000fd5b60209081029190910101516040516301ffc9a760e01b81526380ac58cd60e01b60048201526001600160a01b03909116906301ffc9a79060240160206040518083038186803b15801561222457600080fd5b505afa158015612238573d6000803e3d6000fd5b505050506040513d601f19601f8201168201806040525081019061225c919061514b565b6122ce5760405162461bcd60e51b815260206004820152603f60248201527f4e6f6e46756e6769626c6552656769737472793a204164647265737320646f6560448201527f73206e6f7420737570706f72742045524337323120696e746572666163652e006064820152608401610abe565b8061012001516000815181106122f457634e487b7160e01b600052603260045260246000fd5b60200260200101516101cb60006101000a8154816001600160a01b0302191690836001600160a01b03160217905550505050565b600054610100900460ff1680612341575060005460ff16155b61235d5760405162461bcd60e51b8152600401610abe9061577b565b600054610100900460ff1615801561237f576000805461ffff19166101011790555b612387613103565b61238f613176565b6123976131e5565b61239f6131e5565b6123a7613243565b6123b185856132a1565b6123bc600083613328565b6123d4600080516020615ba483398151915284613328565b61240c600080516020615ba48339815191527fab17982698983e428c1b3359c794bb98c356bd485b8da9b6bffc27745eece3ba613332565b6124367fab17982698983e428c1b3359c794bb98c356bd485b8da9b6bffc27745eece3ba84613328565b6101c780546001600160c01b0319166301000100179055670de0b6b3a76400006101c8556101c980546001600160a01b0384166001600160a01b0319918216179091556101f46101ca556101cb80549091169055801561249c576000805461ff00191690555b5050505050565b60008281526097602052604081206124bb908361337d565b9392505050565b60009182526065602090815260408084206001600160a01b0393909316845291905290205460ff1690565b6124f5613389565b61255a5760405162461bcd60e51b815260206004820152603060248201527f4e6f6e46756e6769626c6552656769737472793a204c6162656c20757064617460448201526f34b7339034b9903234b9b0b13632b21760811b6064820152608401610abe565b612563336113cf565b61257f5760405162461bcd60e51b8152600401610abe906157c9565b6125be82828080601f01602080910402602001604051908101604052809392919081815260200183838082843760009201919091525061290192505050565b156125db5760405162461bcd60e51b8152600401610abe90615890565b826101c483836040516125ef92919061558d565b90815260408051602092819003830190209290925560008581526101c59091522061261b908383614ad3565b507fec8103a13d35079ee852a6e0f70658be4c82016236869c5283833b6721454b2c83838360405161148993929190615955565b606060ca80546109d390615aac565b6001600160a01b0382163314156126b75760405162461bcd60e51b815260206004820152601960248201527f4552433732313a20617070726f766520746f2063616c6c6572000000000000006044820152606401610abe565b33600081815260ce602090815260408083206001600160a01b03871680855290835292819020805460ff191686151590811790915590519081529192917f17307eab39ab6107e8899845ad3d59bd9653f200f220920489ca2b5937696c31910160405180910390a35050565b61272d3383612a60565b6127495760405162461bcd60e51b8152600401610abe906157c9565b61275283612864565b61276e5760405162461bcd60e51b8152600401610abe906158e1565b6118ef848484846133b7565b60606109be826133ea565b60008181526097602052604081206109be9061355a565b6111448282613564565b6101c3805461160b90615aac565b60006001600160e01b0319821663780e9d6360e01b14806109be57506109be8261358a565b600090815260cb60205260409020546001600160a01b0316151590565b600081815260cd6020526040902080546001600160a01b0319166001600160a01b038416908117909155819061282b8261168c565b6001600160a01b03167f8c5be1e5ebec7d5bd14f71427d1e84f3dd0314c0f7b2291e5b200ac8c7c3b92560405160405180910390a45050565b6101cb546000906001600160a01b031615806109be57506101cb546040516370a0823160e01b81526001600160a01b03848116600483015260009216906370a082319060240160206040518083038186803b1580156128c257600080fd5b505afa1580156128d6573d6000803e3d6000fd5b505050506040513d601f19601f820116820180604052508101906128fa9190615496565b1192915050565b60006101c4826040516129149190615571565b90815260405190819003602001902054151592915050565b6000806129a786868660405160200161294793929190615523565b60408051601f1981840301815282825280516020918201207f19457468657265756d205369676e6564204d6573736167653a0a33320000000084830152603c8085019190915282518085039091018152605c909301909152815191012090565b90506129c5600080516020615ba48339815191526107b883866135ca565b9150505b949350505050565b815160009015612a56576129e483612901565b15612a015760405162461bcd60e51b8152600401610abe90615890565b612a0b84836135ee565b9050806101c484604051612a1f9190615571565b90815260408051602092819003830190209290925560008381526101c58252919091208451612a5092860190614a4f565b506124bb565b6129c984836135ee565b6000612a6b826127d9565b612acc5760405162461bcd60e51b815260206004820152602c60248201527f4552433732313a206f70657261746f7220717565727920666f72206e6f6e657860448201526b34b9ba32b73a103a37b5b2b760a11b6064820152608401610abe565b6000612ad78361168c565b9050806001600160a01b0316846001600160a01b03161480612b125750836001600160a01b0316612b0784610a56565b6001600160a01b0316145b80612b4257506001600160a01b03808216600090815260ce602090815260408083209388168352929052205460ff165b806129c957506129c9600080516020615ba4833981519152856124c2565b826001600160a01b0316612b738261168c565b6001600160a01b031614612bdb5760405162461bcd60e51b815260206004820152602960248201527f4552433732313a207472616e73666572206f6620746f6b656e2074686174206960448201526839903737ba1037bbb760b91b6064820152608401610abe565b6001600160a01b038216612c3d5760405162461bcd60e51b8152602060048201526024808201527f4552433732313a207472616e7366657220746f20746865207a65726f206164646044820152637265737360e01b6064820152608401610abe565b612c48838383613649565b612c536000826127f6565b6001600160a01b038316600090815260cc60205260408120805460019290612c7c908490615a52565b90915550506001600160a01b038216600090815260cc60205260408120805460019290612caa908490615a07565b9091555050600081815260cb602052604080822080546001600160a01b0319166001600160a01b0386811691821790925591518493918716917fddf252ad1be2c89b69c2b068fc378daa952ba7f163c4a11628f55a4df523b3ef91a4505050565b600082815260656020526040902060010154612d2781336136bd565b610bf48383613721565b60006124bb836001600160a01b0384166137a7565b6001600160a01b0381163314612db65760405162461bcd60e51b815260206004820152602f60248201527f416363657373436f6e74726f6c3a2063616e206f6e6c792072656e6f756e636560448201526e103937b632b9903337b91039b2b63360891b6064820152608401610abe565b61154c82826137f6565b60006124bb836001600160a01b03841661385d565b7f360894a13ba1a3210667c828492db98dca3e2076cc3735a920a3ca505d382bbc546001600160a01b031690565b600080516020615ba483398151915261154c81336136bd565b6000612e26612dd5565b9050612e318461397a565b600083511180612e3e5750815b15612e4f57612e4d8484613a1f565b505b7f4910fdfa16fed3260ed0e7147f7cc6da11a60208b5b9406d12a635614ffd9143805460ff1661249c57805460ff191660011781556040516001600160a01b0383166024820152612ece90869060440160408051601f198184030181529190526020810180516001600160e01b0316631b2ce7f360e11b179052613a1f565b50805460ff19168155612edf612dd5565b6001600160a01b0316826001600160a01b031614612f575760405162461bcd60e51b815260206004820152602f60248201527f45524331393637557067726164653a207570677261646520627265616b73206660448201526e75727468657220757067726164657360881b6064820152608401610abe565b61249c85613b0a565b612f6981613b4a565b60008181526101c5602052604081208054612f8390615aac565b80601f0160208091040260200160405190810160405280929190818152602001828054612faf90615aac565b8015612ffc5780601f10612fd157610100808354040283529160200191612ffc565b820191906000526020600020905b815481529060010190602001808311612fdf57829003601f168201915b50505060008581526101c56020526040812093945061301e9392509050614b47565b6101c48160405161302f9190615571565b9081526020016040518091039020600090555050565b6101c754600090610100900460ff16806130725750613072600080516020615ba4833981519152336124c2565b905090565b613080826127d9565b6130e35760405162461bcd60e51b815260206004820152602e60248201527f45524337323155524953746f726167653a2055524920736574206f66206e6f6e60448201526d32bc34b9ba32b73a103a37b5b2b760911b6064820152608401610abe565b600082815261012d602090815260409091208251610bf492840190614a4f565b600054610100900460ff168061311c575060005460ff16155b6131385760405162461bcd60e51b8152600401610abe9061577b565b600054610100900460ff1615801561315a576000805461ffff19166101011790555b613162613b8c565b8015611222576000805461ff001916905550565b600054610100900460ff168061318f575060005460ff16155b6131ab5760405162461bcd60e51b8152600401610abe9061577b565b600054610100900460ff161580156131cd576000805461ffff19166101011790555b6131d5613b8c565b6131dd613b8c565b61315a613b8c565b600054610100900460ff16806131fe575060005460ff16155b61321a5760405162461bcd60e51b8152600401610abe9061577b565b600054610100900460ff161580156131d5576000805461ffff19166101011790556131dd613b8c565b600054610100900460ff168061325c575060005460ff16155b6132785760405162461bcd60e51b8152600401610abe9061577b565b600054610100900460ff161580156131dd576000805461ffff191661010117905561315a613b8c565b600054610100900460ff16806132ba575060005460ff16155b6132d65760405162461bcd60e51b8152600401610abe9061577b565b600054610100900460ff161580156132f8576000805461ffff19166101011790555b613300613b8c565b613308613b8c565b6133128383613bf6565b8015610bf4576000805461ff0019169055505050565b61108c8282613c8b565b600082815260656020526040808220600101805490849055905190918391839186917fbd79b86ffe0ab8e8776151514217cd7cacd52c909f66475c3af44e129f0b00ff9190a4505050565b60006124bb8383613c95565b6101c75460009062010000900460ff16806130725750613072600080516020615ba4833981519152336124c2565b6133c2848484612b60565b6133ce84848484613ccd565b6118ef5760405162461bcd60e51b8152600401610abe90615691565b60606133f5826127d9565b61345b5760405162461bcd60e51b815260206004820152603160248201527f45524337323155524953746f726167653a2055524920717565727920666f72206044820152703737b732bc34b9ba32b73a103a37b5b2b760791b6064820152608401610abe565b600082815261012d60205260408120805461347590615aac565b80601f01602080910402602001604051908101604052809291908181526020018280546134a190615aac565b80156134ee5780601f106134c3576101008083540402835291602001916134ee565b820191906000526020600020905b8154815290600101906020018083116134d157829003601f168201915b50505050509050600061350c60408051602081019091526000815290565b905080516000141561351f575092915050565b81511561355157808260405160200161353992919061559d565b60405160208183030381529060405292505050919050565b6129c984613dd7565b60006109be825490565b60008281526065602052604090206001015461358081336136bd565b610bf483836137f6565b60006001600160e01b031982166380ac58cd60e01b14806135bb57506001600160e01b03198216635b5e139f60e01b145b806109be57506109be82613eae565b60008060006135d98585613ed3565b915091506135e681613f43565b509392505050565b60006135f983612864565b6136155760405162461bcd60e51b8152600401610abe906158e1565b6101cc54613624906001615a07565b90506136308382614144565b61363f6101cc80546001019055565b6109be8183613077565b613651614283565b6136b25760405162461bcd60e51b815260206004820152602c60248201527f4e6f6e46756e6769626c6552656769737472793a207472616e7366657273206160448201526b3932903234b9b0b13632b21760a11b6064820152608401610abe565b610bf48383836142b2565b6136c782826124c2565b61154c576136df816001600160a01b0316601461436a565b6136ea83602061436a565b6040516020016136fb9291906155cc565b60408051601f198184030181529082905262461bcd60e51b8252610abe9160040161567e565b61372b82826124c2565b61154c5760008281526065602090815260408083206001600160a01b03851684529091529020805460ff191660011790556137633390565b6001600160a01b0316816001600160a01b0316837f2f8788117e7eff1d82e926ec794901d17c78024a50270940304540a733656f0d60405160405180910390a45050565b60008181526001830160205260408120546137ee575081546001818101845560008481526020808220909301849055845484825282860190935260409020919091556109be565b5060006109be565b61380082826124c2565b1561154c5760008281526065602090815260408083206001600160a01b0385168085529252808320805460ff1916905551339285917ff6391f5c32d9c69d2a47ea670b442974b53935d1edc7fd64eb21e047a839171b9190a45050565b60008181526001830160205260408120548015613970576000613881600183615a52565b855490915060009061389590600190615a52565b90508181146139165760008660000182815481106138c357634e487b7160e01b600052603260045260246000fd5b90600052602060002001549050808760000184815481106138f457634e487b7160e01b600052603260045260246000fd5b6000918252602080832090910192909255918252600188019052604090208390555b855486908061393557634e487b7160e01b600052603160045260246000fd5b6001900381819060005260206000200160009055905585600101600086815260200190815260200160002060009055600193505050506109be565b60009150506109be565b803b6139de5760405162461bcd60e51b815260206004820152602d60248201527f455243313936373a206e657720696d706c656d656e746174696f6e206973206e60448201526c1bdd08184818dbdb9d1c9858dd609a1b6064820152608401610abe565b7f360894a13ba1a3210667c828492db98dca3e2076cc3735a920a3ca505d382bbc80546001600160a01b0319166001600160a01b0392909216919091179055565b6060823b613a7e5760405162461bcd60e51b815260206004820152602660248201527f416464726573733a2064656c65676174652063616c6c20746f206e6f6e2d636f6044820152651b9d1c9858dd60d21b6064820152608401610abe565b600080846001600160a01b031684604051613a999190615571565b600060405180830381855af49150503d8060008114613ad4576040519150601f19603f3d011682016040523d82523d6000602084013e613ad9565b606091505b5091509150613b018282604051806060016040528060278152602001615b7d6027913961454b565b95945050505050565b613b138161397a565b6040516001600160a01b038216907fbc7cd75a20ee27fd9adebab32041f755214dbc6bffa90cc0225b39da2e5c2d3b90600090a250565b613b5381614584565b600081815261012d602052604090208054613b6d90615aac565b15905061122257600081815261012d6020526040812061122291614b47565b600054610100900460ff1680613ba5575060005460ff16155b613bc15760405162461bcd60e51b8152600401610abe9061577b565b600054610100900460ff16158015613162576000805461ffff19166101011790558015611222576000805461ff001916905550565b600054610100900460ff1680613c0f575060005460ff16155b613c2b5760405162461bcd60e51b8152600401610abe9061577b565b600054610100900460ff16158015613c4d576000805461ffff19166101011790555b8251613c609060c9906020860190614a4f565b508151613c749060ca906020850190614a4f565b508015610bf4576000805461ff0019169055505050565b61154c8282613721565b6000826000018281548110613cba57634e487b7160e01b600052603260045260246000fd5b9060005260206000200154905092915050565b60006001600160a01b0384163b15613dcf57604051630a85bd0160e11b81526001600160a01b0385169063150b7a0290613d11903390899088908890600401615641565b602060405180830381600087803b158015613d2b57600080fd5b505af1925050508015613d5b575060408051601f3d908101601f19168201909252613d58918101906151de565b60015b613db5573d808015613d89576040519150601f19603f3d011682016040523d82523d6000602084013e613d8e565b606091505b508051613dad5760405162461bcd60e51b8152600401610abe90615691565b805181602001fd5b6001600160e01b031916630a85bd0160e11b1490506129c9565b5060016129c9565b6060613de2826127d9565b613e465760405162461bcd60e51b815260206004820152602f60248201527f4552433732314d657461646174613a2055524920717565727920666f72206e6f60448201526e3732bc34b9ba32b73a103a37b5b2b760891b6064820152608401610abe565b6000613e5d60408051602081019091526000815290565b90506000815111613e7d57604051806020016040528060008152506124bb565b80613e878461462b565b604051602001613e9892919061559d565b6040516020818303038152906040529392505050565b60006001600160e01b03198216635a05180f60e01b14806109be57506109be82614744565b600080825160411415613f0a5760208301516040840151606085015160001a613efe87828585614779565b94509450505050613f3c565b825160401415613f345760208301516040840151613f29868383614866565b935093505050613f3c565b506000905060025b9250929050565b6000816004811115613f6557634e487b7160e01b600052602160045260246000fd5b1415613f6e5750565b6001816004811115613f9057634e487b7160e01b600052602160045260246000fd5b1415613fde5760405162461bcd60e51b815260206004820152601860248201527f45434453413a20696e76616c6964207369676e617475726500000000000000006044820152606401610abe565b600281600481111561400057634e487b7160e01b600052602160045260246000fd5b141561404e5760405162461bcd60e51b815260206004820152601f60248201527f45434453413a20696e76616c6964207369676e6174757265206c656e677468006044820152606401610abe565b600381600481111561407057634e487b7160e01b600052602160045260246000fd5b14156140c95760405162461bcd60e51b815260206004820152602260248201527f45434453413a20696e76616c6964207369676e6174757265202773272076616c604482015261756560f01b6064820152608401610abe565b60048160048111156140eb57634e487b7160e01b600052602160045260246000fd5b14156112225760405162461bcd60e51b815260206004820152602260248201527f45434453413a20696e76616c6964207369676e6174757265202776272076616c604482015261756560f01b6064820152608401610abe565b6001600160a01b03821661419a5760405162461bcd60e51b815260206004820181905260248201527f4552433732313a206d696e7420746f20746865207a65726f20616464726573736044820152606401610abe565b6141a3816127d9565b156141f05760405162461bcd60e51b815260206004820152601c60248201527f4552433732313a20746f6b656e20616c7265616479206d696e746564000000006044820152606401610abe565b6141fc60008383613649565b6001600160a01b038216600090815260cc60205260408120805460019290614225908490615a07565b9091555050600081815260cb602052604080822080546001600160a01b0319166001600160a01b03861690811790915590518392907fddf252ad1be2c89b69c2b068fc378daa952ba7f163c4a11628f55a4df523b3ef908290a45050565b6101c7546000906301000000900460ff16806130725750613072600080516020615ba4833981519152336124c2565b6001600160a01b03831661430d576143088160fd8054600083815260fe60205260408120829055600182018355919091527f9346ac6dd7de6b96975fec380d4d994c4c12e6a8897544f22915316cc6cca2800155565b614330565b816001600160a01b0316836001600160a01b031614614330576143308382614895565b6001600160a01b03821661434757610bf481614932565b826001600160a01b0316826001600160a01b031614610bf457610bf48282614a0b565b60606000614379836002615a33565b614384906002615a07565b6001600160401b038111156143a957634e487b7160e01b600052604160045260246000fd5b6040519080825280601f01601f1916602001820160405280156143d3576020820181803683370190505b509050600360fc1b816000815181106143fc57634e487b7160e01b600052603260045260246000fd5b60200101906001600160f81b031916908160001a905350600f60fb1b8160018151811061443957634e487b7160e01b600052603260045260246000fd5b60200101906001600160f81b031916908160001a905350600061445d846002615a33565b614468906001615a07565b90505b60018111156144fc576f181899199a1a9b1b9c1cb0b131b232b360811b85600f16601081106144aa57634e487b7160e01b600052603260045260246000fd5b1a60f81b8282815181106144ce57634e487b7160e01b600052603260045260246000fd5b60200101906001600160f81b031916908160001a90535060049490941c936144f581615a95565b905061446b565b5083156124bb5760405162461bcd60e51b815260206004820181905260248201527f537472696e67733a20686578206c656e67746820696e73756666696369656e746044820152606401610abe565b6060831561455a5750816124bb565b82511561456a5782518084602001fd5b8160405162461bcd60e51b8152600401610abe919061567e565b600061458f8261168c565b905061459d81600084613649565b6145a86000836127f6565b6001600160a01b038116600090815260cc602052604081208054600192906145d1908490615a52565b9091555050600082815260cb602052604080822080546001600160a01b0319169055518391906001600160a01b038416907fddf252ad1be2c89b69c2b068fc378daa952ba7f163c4a11628f55a4df523b3ef908390a45050565b60608161464f5750506040805180820190915260018152600360fc1b602082015290565b8160005b8115614679578061466381615ae7565b91506146729050600a83615a1f565b9150614653565b6000816001600160401b038111156146a157634e487b7160e01b600052604160045260246000fd5b6040519080825280601f01601f1916602001820160405280156146cb576020820181803683370190505b5090505b84156129c9576146e0600183615a52565b91506146ed600a86615b02565b6146f8906030615a07565b60f81b81838151811061471b57634e487b7160e01b600052603260045260246000fd5b60200101906001600160f81b031916908160001a90535061473d600a86615a1f565b94506146cf565b60006001600160e01b03198216637965db0b60e01b14806109be57506301ffc9a760e01b6001600160e01b03198316146109be565b6000807f7fffffffffffffffffffffffffffffff5d576e7357a4501ddfe92f46681b20a08311156147b0575060009050600361485d565b8460ff16601b141580156147c857508460ff16601c14155b156147d9575060009050600461485d565b6040805160008082526020820180845289905260ff881692820192909252606081018690526080810185905260019060a0016020604051602081039080840390855afa15801561482d573d6000803e3d6000fd5b5050604051601f1901519150506001600160a01b0381166148565760006001925092505061485d565b9150600090505b94509492505050565b6000806001600160ff1b03831660ff84901c601b0161488787828885614779565b935093505050935093915050565b600060016148a284611c24565b6148ac9190615a52565b600083815260fc60205260409020549091508082146148ff576001600160a01b038416600090815260fb60209081526040808320858452825280832054848452818420819055835260fc90915290208190555b50600091825260fc602090815260408084208490556001600160a01b03909416835260fb81528383209183525290812055565b60fd5460009061494490600190615a52565b600083815260fe602052604081205460fd805493945090928490811061497a57634e487b7160e01b600052603260045260246000fd5b906000526020600020015490508060fd83815481106149a957634e487b7160e01b600052603260045260246000fd5b600091825260208083209091019290925582815260fe909152604080822084905585825281205560fd8054806149ef57634e487b7160e01b600052603160045260246000fd5b6001900381819060005260206000200160009055905550505050565b6000614a1683611c24565b6001600160a01b03909316600090815260fb60209081526040808320868452825280832085905593825260fc9052919091209190915550565b828054614a5b90615aac565b90600052602060002090601f016020900481019282614a7d5760008555614ac3565b82601f10614a9657805160ff1916838001178555614ac3565b82800160010185558215614ac3579182015b82811115614ac3578251825591602001919060010190614aa8565b50614acf929150614b7d565b5090565b828054614adf90615aac565b90600052602060002090601f016020900481019282614b015760008555614ac3565b82601f10614b1a5782800160ff19823516178555614ac3565b82800160010185558215614ac3579182015b82811115614ac3578235825591602001919060010190614b2c565b508054614b5390615aac565b6000825580601f10614b63575050565b601f01602090049060005260206000209081019061122291905b5b80821115614acf5760008155600101614b7e565b80356001600160a01b0381168114614ba957600080fd5b919050565b600082601f830112614bbe578081fd5b81356020614bd3614bce836159e4565b6159b4565b80838252828201915082860187848660051b8901011115614bf2578586fd5b855b85811015614c1757614c0582614b92565b84529284019290840190600101614bf4565b5090979650505050505050565b600082601f830112614c34578081fd5b81356020614c44614bce836159e4565b80838252828201915082860187848660051b8901011115614c63578586fd5b855b85811015614c17578135614c7881615b58565b84529284019290840190600101614c65565b600082601f830112614c9a578081fd5b81356020614caa614bce836159e4565b80838252828201915082860187848660051b8901011115614cc9578586fd5b855b85811015614c175781356001600160401b03811115614ce8578788fd5b614cf68a87838c0101614da5565b8552509284019290840190600101614ccb565b600082601f830112614d19578081fd5b81356020614d29614bce836159e4565b80838252828201915082860187848660051b8901011115614d48578586fd5b855b85811015614c1757813584529284019290840190600101614d4a565b60008083601f840112614d77578182fd5b5081356001600160401b03811115614d8d578182fd5b602083019150836020828501011115613f3c57600080fd5b600082601f830112614db5578081fd5b81356001600160401b03811115614dce57614dce615b42565b614de1601f8201601f19166020016159b4565b818152846020838601011115614df5578283fd5b816020850160208301379081016020019190915292915050565b600060208284031215614e20578081fd5b6124bb82614b92565b60008060408385031215614e3b578081fd5b614e4483614b92565b9150614e5260208401614b92565b90509250929050565b600080600060608486031215614e6f578081fd5b614e7884614b92565b9250614e8660208501614b92565b9150604084013590509250925092565b60008060008060808587031215614eab578182fd5b614eb485614b92565b9350614ec260208601614b92565b92506040850135915060608501356001600160401b03811115614ee3578182fd5b614eef87828801614da5565b91505092959194509250565b60008060408385031215614f0d578182fd5b614f1683614b92565b91506020830135614f2681615b58565b809150509250929050565b60008060408385031215614f43578182fd5b614f4c83614b92565b915060208301356001600160401b03811115614f66578182fd5b614f7285828601614da5565b9150509250929050565b600080600080600060608688031215614f93578283fd5b614f9c86614b92565b945060208601356001600160401b0380821115614fb7578485fd5b614fc389838a01614d66565b90965094506040880135915080821115614fdb578283fd5b50614fe888828901614d66565b969995985093965092949392505050565b60008060008060008060006080888a031215615013578485fd5b61501c88614b92565b965060208801356001600160401b0380821115615037578687fd5b6150438b838c01614d66565b909850965060408a013591508082111561505b578384fd5b6150678b838c01614d66565b909650945060608a013591508082111561507f578384fd5b5061508c8a828b01614d66565b989b979a50959850939692959293505050565b600080604083850312156150b1578182fd5b6150ba83614b92565b946020939093013593505050565b6000806000606084860312156150dc578081fd5b83356001600160401b03808211156150f2578283fd5b6150fe87838801614bae565b94506020860135915080821115615113578283fd5b61511f87838801614c8a565b93506040860135915080821115615134578283fd5b5061514186828701614c8a565b9150509250925092565b60006020828403121561515c578081fd5b81516124bb81615b58565b600060208284031215615178578081fd5b5035919050565b60008060408385031215615191578182fd5b82359150614e5260208401614b92565b600080604083850312156151b3578182fd5b50508035926020909101359150565b6000602082840312156151d3578081fd5b81356124bb81615b66565b6000602082840312156151ef578081fd5b81516124bb81615b66565b6000806020838503121561520c578182fd5b82356001600160401b03811115615221578283fd5b61522d85828601614d66565b90969095509350505050565b60006020828403121561524a578081fd5b81356001600160401b0381111561525f578182fd5b6129c984828501614da5565b60008060008060808587031215615280578182fd5b84356001600160401b0380821115615296578384fd5b6152a288838901614da5565b955060208701359150808211156152b7578384fd5b506152c487828801614da5565b9350506152d360408601614b92565b91506152e160608601614b92565b905092959194509250565b6000602082840312156152fd578081fd5b81356001600160401b0380821115615313578283fd5b908301906101408286031215615327578283fd5b61532f61598b565b82358281111561533d578485fd5b61534987828601614c8a565b82525060208301358281111561535d578485fd5b61536987828601614c24565b602083015250604083013582811115615380578485fd5b61538c87828601614c24565b6040830152506060830135828111156153a3578485fd5b6153af87828601614c24565b6060830152506080830135828111156153c6578485fd5b6153d287828601614c24565b60808301525060a0830135828111156153e9578485fd5b6153f587828601614bae565b60a08301525060c08301358281111561540c578485fd5b61541887828601614d09565b60c08301525060e08301358281111561542f578485fd5b61543b87828601614bae565b60e0830152506101008084013583811115615454578586fd5b61546088828701614d09565b8284015250506101208084013583811115615479578586fd5b61548588828701614bae565b918301919091525095945050505050565b6000602082840312156154a7578081fd5b5051919050565b6000806000604084860312156154c2578081fd5b8335925060208401356001600160401b038111156154de578182fd5b6154ea86828701614d66565b9497909650939450505050565b6000815180845261550f816020860160208601615a69565b601f01601f19169290920160200192915050565b6bffffffffffffffffffffffff198460601b1681526000835161554d816014850160208801615a69565b835190830190615564816014840160208801615a69565b0160140195945050505050565b60008251615583818460208701615a69565b9190910192915050565b8183823760009101908152919050565b600083516155af818460208801615a69565b8351908301906155c3818360208801615a69565b01949350505050565b7f416363657373436f6e74726f6c3a206163636f756e7420000000000000000000815260008351615604816017850160208801615a69565b7001034b99036b4b9b9b4b733903937b6329607d1b6017918401918201528351615635816028840160208801615a69565b01602801949350505050565b6001600160a01b0385811682528416602082015260408101839052608060608201819052600090615674908301846154f7565b9695505050505050565b6020815260006124bb60208301846154f7565b60208082526032908201527f4552433732313a207472616e7366657220746f206e6f6e20455243373231526560408201527131b2b4bb32b91034b6b83632b6b2b73a32b960711b606082015260800190565b6020808252602c908201527f46756e6374696f6e206d7573742062652063616c6c6564207468726f7567682060408201526b19195b1959d85d1958d85b1b60a21b606082015260800190565b6020808252602c908201527f46756e6374696f6e206d7573742062652063616c6c6564207468726f7567682060408201526b6163746976652070726f787960a01b606082015260800190565b6020808252602e908201527f496e697469616c697a61626c653a20636f6e747261637420697320616c72656160408201526d191e481a5b9a5d1a585b1a5e995960921b606082015260800190565b60208082526044908201527f4e6f6e46756e6769626c6552656769737472793a2063616c6c6572206973206e60408201527f6f74206f776e6572206e6f7220617070726f766564206e6f72207265676973746060820152633930b91760e11b608082015260a00190565b6020808252603a908201527f4e6f6e46756e6769626c6552656769737472793a206d7573742068617665207260408201527f656769737472617220726f6c6520746f2072656769737465722e000000000000606082015260800190565b60208082526031908201527f4e6f6e46756e6769626c6552656769737472793a206c6162656c20697320616c6040820152703932b0b23c903932b3b4b9ba32b932b21760791b606082015260800190565b6020808252604e908201527f4e6f6e46756e6769626c6552656769737472793a20726563697069656e74206d60408201527f7573742068617665206e6f6e2d7a65726f2062616c616e636520696e2070726960608201526d36b0b93c903932b3b4b9ba393c9760911b608082015260a00190565b83815260406020820152816040820152818360608301376000818301606090810191909152601f909201601f1916010192915050565b60405161014081016001600160401b03811182821017156159ae576159ae615b42565b60405290565b604051601f8201601f191681016001600160401b03811182821017156159dc576159dc615b42565b604052919050565b60006001600160401b038211156159fd576159fd615b42565b5060051b60200190565b60008219821115615a1a57615a1a615b16565b500190565b600082615a2e57615a2e615b2c565b500490565b6000816000190483118215151615615a4d57615a4d615b16565b500290565b600082821015615a6457615a64615b16565b500390565b60005b83811015615a84578181015183820152602001615a6c565b838111156118ef5750506000910152565b600081615aa457615aa4615b16565b506000190190565b600181811c90821680615ac057607f821691505b60208210811415615ae157634e487b7160e01b600052602260045260246000fd5b50919050565b6000600019821415615afb57615afb615b16565b5060010190565b600082615b1157615b11615b2c565b500690565b634e487b7160e01b600052601160045260246000fd5b634e487b7160e01b600052601260045260246000fd5b634e487b7160e01b600052604160045260246000fd5b801515811461122257600080fd5b6001600160e01b03198116811461122257600080fdfe416464726573733a206c6f772d6c6576656c2064656c65676174652063616c6c206661696c6564edcc084d3dcd65a1f7f23c65c46722faca6953d28e43150a467cf43e5c309238a2646970667358221220ba3b441a525af6790f1309b81ce054779ea3c5d2b870c4a97d116bb68f56755864736f6c63430008040033608060405234801561001057600080fd5b5060405161050a38038061050a83398101604081905261002f91610148565b61003833610047565b61004181610097565b50610176565b600080546001600160a01b038381166001600160a01b0319831681178455604051919092169283917f8be0079c531659141344cd1fd0a4f28419497f9722a3daafe3b4186f6b6457e09190a35050565b6100aa8161014260201b61020a1760201c565b6101205760405162461bcd60e51b815260206004820152603360248201527f5570677261646561626c65426561636f6e3a20696d706c656d656e746174696f60448201527f6e206973206e6f74206120636f6e747261637400000000000000000000000000606482015260840160405180910390fd5b600180546001600160a01b0319166001600160a01b0392909216919091179055565b3b151590565b600060208284031215610159578081fd5b81516001600160a01b038116811461016f578182fd5b9392505050565b610385806101856000396000f3fe608060405234801561001057600080fd5b50600436106100575760003560e01c80633659cfe61461005c5780635c60da1b14610071578063715018a61461009a5780638da5cb5b146100a2578063f2fde38b146100b3575b600080fd5b61006f61006a3660046102ec565b6100c6565b005b6001546001600160a01b03165b6040516001600160a01b03909116815260200160405180910390f35b61006f610139565b6000546001600160a01b031661007e565b61006f6100c13660046102ec565b61016f565b6000546001600160a01b031633146100f95760405162461bcd60e51b81526004016100f09061031a565b60405180910390fd5b61010281610210565b6040516001600160a01b038216907fbc7cd75a20ee27fd9adebab32041f755214dbc6bffa90cc0225b39da2e5c2d3b90600090a250565b6000546001600160a01b031633146101635760405162461bcd60e51b81526004016100f09061031a565b61016d600061029c565b565b6000546001600160a01b031633146101995760405162461bcd60e51b81526004016100f09061031a565b6001600160a01b0381166101fe5760405162461bcd60e51b815260206004820152602660248201527f4f776e61626c653a206e6577206f776e657220697320746865207a65726f206160448201526564647265737360d01b60648201526084016100f0565b6102078161029c565b50565b3b151590565b803b61027a5760405162461bcd60e51b815260206004820152603360248201527f5570677261646561626c65426561636f6e3a20696d706c656d656e746174696f6044820152721b881a5cc81b9bdd08184818dbdb9d1c9858dd606a1b60648201526084016100f0565b600180546001600160a01b0319166001600160a01b0392909216919091179055565b600080546001600160a01b038381166001600160a01b0319831681178455604051919092169283917f8be0079c531659141344cd1fd0a4f28419497f9722a3daafe3b4186f6b6457e09190a35050565b6000602082840312156102fd578081fd5b81356001600160a01b0381168114610313578182fd5b9392505050565b6020808252818101527f4f776e61626c653a2063616c6c6572206973206e6f7420746865206f776e657260408201526060019056fea264697066735822122035caf1712d5c7070a0bc5b3b6141e4f33542d7315b2f0dea7dcee69462301b7d64736f6c6343000804003360806040526040516109823803806109828339810160408190526100229161047d565b61004d60017fa3f0ad74e5423aebfd80d3ef4346578335a9a72aeaee59ff6cb3582b35133d51610588565b60008051602061093b8339815191521461007757634e487b7160e01b600052600160045260246000fd5b6100838282600061008a565b50506105ed565b61009383610164565b6040516001600160a01b038416907f1cf3b03a6cf19fa2baba4df148e9dcabedea7f8a5c07840e207e5c089be95d3e90600090a26000825111806100d45750805b1561015f5761015d836001600160a01b0316635c60da1b6040518163ffffffff1660e01b815260040160206040518083038186803b15801561011557600080fd5b505afa158015610129573d6000803e3d6000fd5b505050506040513d601f19601f8201168201806040525081019061014d9190610463565b8361030460201b6100291760201c565b505b505050565b6101778161033060201b6100551760201c565b6101d65760405162461bcd60e51b815260206004820152602560248201527f455243313936373a206e657720626561636f6e206973206e6f74206120636f6e6044820152641d1c9858dd60da1b60648201526084015b60405180910390fd5b610259816001600160a01b0316635c60da1b6040518163ffffffff1660e01b815260040160206040518083038186803b15801561021257600080fd5b505afa158015610226573d6000803e3d6000fd5b505050506040513d601f19601f8201168201806040525081019061024a9190610463565b61033060201b6100551760201c565b6102be5760405162461bcd60e51b815260206004820152603060248201527f455243313936373a20626561636f6e20696d706c656d656e746174696f6e206960448201526f1cc81b9bdd08184818dbdb9d1c9858dd60821b60648201526084016101cd565b806102e360008051602061093b83398151915260001b61033660201b61005b1760201c565b80546001600160a01b0319166001600160a01b039290921691909117905550565b6060610329838360405180606001604052806027815260200161095b60279139610339565b9392505050565b3b151590565b90565b6060833b6103985760405162461bcd60e51b815260206004820152602660248201527f416464726573733a2064656c65676174652063616c6c20746f206e6f6e2d636f6044820152651b9d1c9858dd60d21b60648201526084016101cd565b600080856001600160a01b0316856040516103b39190610539565b600060405180830381855af49150503d80600081146103ee576040519150601f19603f3d011682016040523d82523d6000602084013e6103f3565b606091505b50909250905061040482828661040e565b9695505050505050565b6060831561041d575081610329565b82511561042d5782518084602001fd5b8160405162461bcd60e51b81526004016101cd9190610555565b80516001600160a01b038116811461045e57600080fd5b919050565b600060208284031215610474578081fd5b61032982610447565b6000806040838503121561048f578081fd5b61049883610447565b60208401519092506001600160401b03808211156104b4578283fd5b818501915085601f8301126104c7578283fd5b8151818111156104d9576104d96105d7565b604051601f8201601f19908116603f01168101908382118183101715610501576105016105d7565b81604052828152886020848701011115610519578586fd5b61052a8360208301602088016105ab565b80955050505050509250929050565b6000825161054b8184602087016105ab565b9190910192915050565b60208152600082518060208401526105748160408501602087016105ab565b601f01601f19169190910160400192915050565b6000828210156105a657634e487b7160e01b81526011600452602481fd5b500390565b60005b838110156105c65781810151838201526020016105ae565b8381111561015d5750506000910152565b634e487b7160e01b600052604160045260246000fd5b61033f806105fc6000396000f3fe60806040523661001357610011610017565b005b6100115b61002761002261005e565b610106565b565b606061004e83836040518060600160405280602781526020016102e36027913961012a565b9392505050565b3b151590565b90565b60006100917fa3f0ad74e5423aebfd80d3ef4346578335a9a72aeaee59ff6cb3582b35133d50546001600160a01b031690565b6001600160a01b0316635c60da1b6040518163ffffffff1660e01b815260040160206040518083038186803b1580156100c957600080fd5b505afa1580156100dd573d6000803e3d6000fd5b505050506040513d601f19601f82011682018060405250810190610101919061023c565b905090565b3660008037600080366000845af43d6000803e808015610125573d6000f35b3d6000fd5b6060833b61018e5760405162461bcd60e51b815260206004820152602660248201527f416464726573733a2064656c65676174652063616c6c20746f206e6f6e2d636f6044820152651b9d1c9858dd60d21b60648201526084015b60405180910390fd5b600080856001600160a01b0316856040516101a99190610263565b600060405180830381855af49150503d80600081146101e4576040519150601f19603f3d011682016040523d82523d6000602084013e6101e9565b606091505b50915091506101f9828286610203565b9695505050505050565b6060831561021257508161004e565b8251156102225782518084602001fd5b8160405162461bcd60e51b8152600401610185919061027f565b60006020828403121561024d578081fd5b81516001600160a01b038116811461004e578182fd5b600082516102758184602087016102b2565b9190910192915050565b602081526000825180602084015261029e8160408501602087016102b2565b601f01601f19169190910160400192915050565b60005b838110156102cd5781810151838201526020016102b5565b838111156102dc576000848401525b5050505056fe416464726573733a206c6f772d6c6576656c2064656c65676174652063616c6c206661696c6564a26469706673582212207874c9cc490fb37818e4bc4fd6b88eb07b2db65b8baa62c9aa03d317ad11a10964736f6c63430008040033a3f0ad74e5423aebfd80d3ef4346578335a9a72aeaee59ff6cb3582b35133d50416464726573733a206c6f772d6c6576656c2064656c65676174652063616c6c206661696c65645265676973747279466163746f72793a20496e697469616c697a657220617272",
  "linkReferences": {},
  "deployedLinkReferences": {}
}