{
  "_format": "hh-sol-artifact-1",
  "contractName": "BulkTransferModule",
  "sourceName": "contracts/modules/BulkTransferModule.sol",
  "abi": [
    {
      "inputs": [
        {
          "internalType": "string",
          "name": "_name",
          "type": "string"
        }
      ],
      "stateMutability": "nonpayable",
      "type": "constructor"
    },
    {
      "inputs": [
        {
          "internalType": "address",
          "name": "owner",
          "type": "address"
        },
        {
          "internalType": "address[]",
          "name": "recipients",
          "type": "address[]"
        },
        {
          "internalType": "uint256[]",
          "name": "tokenIds",
          "type": "uint256[]"
        },
        {
          "internalType": "address",
          "name": "registry",
          "type": "address"
        }
      ],
      "name": "bulkTransfer",
      "outputs": [],
      "stateMutability": "nonpayable",
      "type": "function"
    },
    {
      "inputs": [],
      "name": "name",
      "outputs": [
        {
          "internalType": "string",
          "name": "",
          "type": "string"
        }
      ],
      "stateMutability": "view",
      "type": "function"
    }
  ],
  "bytecode": "0x608060405234801561001057600080fd5b5060405161086b38038061086b83398101604081905261002f916100e2565b8051610042906000906020840190610049565b50506101fc565b828054610055906101ab565b90600052602060002090601f01602090048101928261007757600085556100bd565b82601f1061009057805160ff19168380011785556100bd565b828001600101855582156100bd579182015b828111156100bd5782518255916020019190600101906100a2565b506100c99291506100cd565b5090565b5b808211156100c957600081556001016100ce565b600060208083850312156100f4578182fd5b82516001600160401b038082111561010a578384fd5b818501915085601f83011261011d578384fd5b81518181111561012f5761012f6101e6565b604051601f8201601f19908116603f01168101908382118183101715610157576101576101e6565b81604052828152888684870101111561016e578687fd5b8693505b8284101561018f5784840186015181850187015292850192610172565b8284111561019f57868684830101525b98975050505050505050565b600181811c908216806101bf57607f821691505b602082108114156101e057634e487b7160e01b600052602260045260246000fd5b50919050565b634e487b7160e01b600052604160045260246000fd5b6106608061020b6000396000f3fe608060405234801561001057600080fd5b50600436106100365760003560e01c806306fdde031461003b57806347c3897414610059575b600080fd5b61004361006e565b604051610050919061050a565b60405180910390f35b61006c6100673660046103ff565b6100fc565b005b6000805461007b906105b2565b80601f01602080910402602001604051908101604052809291908181526020018280546100a7906105b2565b80156100f45780601f106100c9576101008083540402835291602001916100f4565b820191906000526020600020905b8154815290600101906020018083116100d757829003601f168201915b505050505081565b815183511461018c5760405162461bcd60e51b815260206004820152604b60248201527f42756c6b5472616e736665724d6f64756c653a20726563697069656e7473206160448201527f72726179206d7573742062652073616d65206c656e67746820617320746f6b6560648201526a3724b2399030b93930bc9760a91b608482015260a4015b60405180910390fd5b6001600160a01b03811663e985e9c585336040516001600160e01b031960e085901b1681526001600160a01b0392831660048201529116602482015260440160206040518083038186803b1580156101e357600080fd5b505afa1580156101f7573d6000803e3d6000fd5b505050506040513d601f19601f8201168201806040525081019061021b91906104e3565b6102865760405162461bcd60e51b815260206004820152603660248201527f42756c6b5472616e736665724d6f64756c653a206d736753656e646572206973604482015275103737ba1030b8383937bb32b2103337b91030b6361760511b6064820152608401610183565b60005b835181101561036d57816001600160a01b03166342842e0e868684815181106102c257634e487b7160e01b600052603260045260246000fd5b60200260200101518685815181106102ea57634e487b7160e01b600052603260045260246000fd5b60209081029190910101516040516001600160e01b031960e086901b1681526001600160a01b0393841660048201529290911660248301526044820152606401600060405180830381600087803b15801561034457600080fd5b505af1158015610358573d6000803e3d6000fd5b5050505080610366906105ed565b9050610289565b5050505050565b80356001600160a01b038116811461038b57600080fd5b919050565b600082601f8301126103a0578081fd5b813560206103b56103b08361058e565b61055d565b80838252828201915082860187848660051b89010111156103d4578586fd5b855b858110156103f2578135845292840192908401906001016103d6565b5090979650505050505050565b60008060008060808587031215610414578384fd5b61041d85610374565b935060208086013567ffffffffffffffff8082111561043a578586fd5b818801915088601f83011261044d578586fd5b813561045b6103b08261058e565b8082825285820191508585018c878560051b880101111561047a57898afd5b8995505b838610156104a35761048f81610374565b83526001959095019491860191860161047e565b509750505060408801359250808311156104bb578485fd5b50506104c987828801610390565b9250506104d860608601610374565b905092959194509250565b6000602082840312156104f4578081fd5b81518015158114610503578182fd5b9392505050565b6000602080835283518082850152825b818110156105365785810183015185820160400152820161051a565b818111156105475783604083870101525b50601f01601f1916929092016040019392505050565b604051601f8201601f1916810167ffffffffffffffff8111828210171561058657610586610614565b604052919050565b600067ffffffffffffffff8211156105a8576105a8610614565b5060051b60200190565b600181811c908216806105c657607f821691505b602082108114156105e757634e487b7160e01b600052602260045260246000fd5b50919050565b600060001982141561060d57634e487b7160e01b81526011600452602481fd5b5060010190565b634e487b7160e01b600052604160045260246000fdfea2646970667358221220fed989b05e755d717c93b40c3821c12f440ef53884b86b27628da2d06c2d426c64736f6c63430008040033",
  "linkReferences": {},
  "deployedLinkReferences": {}
}