{
  "_format": "hh-sol-artifact-1",
  "contractName": "Hypertoken",
  "sourceName": "contracts/governance/Hypertoken.sol",
  "abi": [
    {
      "inputs": [],
      "stateMutability": "nonpayable",
      "type": "constructor"
    },
    {
      "anonymous": false,
      "inputs": [
        {
          "indexed": true,
          "internalType": "address",
          "name": "owner",
          "type": "address"
        },
        {
          "indexed": true,
          "internalType": "address",
          "name": "spender",
          "type": "address"
        },
        {
          "indexed": false,
          "internalType": "uint256",
          "name": "value",
          "type": "uint256"
        }
      ],
      "name": "Approval",
      "type": "event"
    },
    {
      "anonymous": false,
      "inputs": [
        {
          "indexed": true,
          "internalType": "address",
          "name": "delegator",
          "type": "address"
        },
        {
          "indexed": true,
          "internalType": "address",
          "name": "fromDelegate",
          "type": "address"
        },
        {
          "indexed": true,
          "internalType": "address",
          "name": "toDelegate",
          "type": "address"
        }
      ],
      "name": "DelegateChanged",
      "type": "event"
    },
    {
      "anonymous": false,
      "inputs": [
        {
          "indexed": true,
          "internalType": "address",
          "name": "delegate",
          "type": "address"
        },
        {
          "indexed": false,
          "internalType": "uint256",
          "name": "previousBalance",
          "type": "uint256"
        },
        {
          "indexed": false,
          "internalType": "uint256",
          "name": "newBalance",
          "type": "uint256"
        }
      ],
      "name": "DelegateVotesChanged",
      "type": "event"
    },
    {
      "anonymous": false,
      "inputs": [
        {
          "indexed": true,
          "internalType": "address",
          "name": "from",
          "type": "address"
        },
        {
          "indexed": true,
          "internalType": "address",
          "name": "to",
          "type": "address"
        },
        {
          "indexed": false,
          "internalType": "uint256",
          "name": "value",
          "type": "uint256"
        }
      ],
      "name": "Transfer",
      "type": "event"
    },
    {
      "inputs": [],
      "name": "DOMAIN_SEPARATOR",
      "outputs": [
        {
          "internalType": "bytes32",
          "name": "",
          "type": "bytes32"
        }
      ],
      "stateMutability": "view",
      "type": "function"
    },
    {
      "inputs": [
        {
          "internalType": "address",
          "name": "owner",
          "type": "address"
        },
        {
          "internalType": "address",
          "name": "spender",
          "type": "address"
        }
      ],
      "name": "allowance",
      "outputs": [
        {
          "internalType": "uint256",
          "name": "",
          "type": "uint256"
        }
      ],
      "stateMutability": "view",
      "type": "function"
    },
    {
      "inputs": [
        {
          "internalType": "address",
          "name": "spender",
          "type": "address"
        },
        {
          "internalType": "uint256",
          "name": "amount",
          "type": "uint256"
        }
      ],
      "name": "approve",
      "outputs": [
        {
          "internalType": "bool",
          "name": "",
          "type": "bool"
        }
      ],
      "stateMutability": "nonpayable",
      "type": "function"
    },
    {
      "inputs": [
        {
          "internalType": "address",
          "name": "account",
          "type": "address"
        }
      ],
      "name": "balanceOf",
      "outputs": [
        {
          "internalType": "uint256",
          "name": "",
          "type": "uint256"
        }
      ],
      "stateMutability": "view",
      "type": "function"
    },
    {
      "inputs": [
        {
          "internalType": "address",
          "name": "account",
          "type": "address"
        },
        {
          "internalType": "uint32",
          "name": "pos",
          "type": "uint32"
        }
      ],
      "name": "checkpoints",
      "outputs": [
        {
          "components": [
            {
              "internalType": "uint32",
              "name": "fromBlock",
              "type": "uint32"
            },
            {
              "internalType": "uint224",
              "name": "votes",
              "type": "uint224"
            }
          ],
          "internalType": "struct ERC20Votes.Checkpoint",
          "name": "",
          "type": "tuple"
        }
      ],
      "stateMutability": "view",
      "type": "function"
    },
    {
      "inputs": [],
      "name": "decimals",
      "outputs": [
        {
          "internalType": "uint8",
          "name": "",
          "type": "uint8"
        }
      ],
      "stateMutability": "view",
      "type": "function"
    },
    {
      "inputs": [
        {
          "internalType": "address",
          "name": "spender",
          "type": "address"
        },
        {
          "internalType": "uint256",
          "name": "subtractedValue",
          "type": "uint256"
        }
      ],
      "name": "decreaseAllowance",
      "outputs": [
        {
          "internalType": "bool",
          "name": "",
          "type": "bool"
        }
      ],
      "stateMutability": "nonpayable",
      "type": "function"
    },
    {
      "inputs": [
        {
          "internalType": "address",
          "name": "delegatee",
          "type": "address"
        }
      ],
      "name": "delegate",
      "outputs": [],
      "stateMutability": "nonpayable",
      "type": "function"
    },
    {
      "inputs": [
        {
          "internalType": "address",
          "name": "delegatee",
          "type": "address"
        },
        {
          "internalType": "uint256",
          "name": "nonce",
          "type": "uint256"
        },
        {
          "internalType": "uint256",
          "name": "expiry",
          "type": "uint256"
        },
        {
          "internalType": "uint8",
          "name": "v",
          "type": "uint8"
        },
        {
          "internalType": "bytes32",
          "name": "r",
          "type": "bytes32"
        },
        {
          "internalType": "bytes32",
          "name": "s",
          "type": "bytes32"
        }
      ],
      "name": "delegateBySig",
      "outputs": [],
      "stateMutability": "nonpayable",
      "type": "function"
    },
    {
      "inputs": [
        {
          "internalType": "address",
          "name": "account",
          "type": "address"
        }
      ],
      "name": "delegates",
      "outputs": [
        {
          "internalType": "address",
          "name": "",
          "type": "address"
        }
      ],
      "stateMutability": "view",
      "type": "function"
    },
    {
      "inputs": [
        {
          "internalType": "uint256",
          "name": "blockNumber",
          "type": "uint256"
        }
      ],
      "name": "getPastTotalSupply",
      "outputs": [
        {
          "internalType": "uint256",
          "name": "",
          "type": "uint256"
        }
      ],
      "stateMutability": "view",
      "type": "function"
    },
    {
      "inputs": [
        {
          "internalType": "address",
          "name": "account",
          "type": "address"
        },
        {
          "internalType": "uint256",
          "name": "blockNumber",
          "type": "uint256"
        }
      ],
      "name": "getPastVotes",
      "outputs": [
        {
          "internalType": "uint256",
          "name": "",
          "type": "uint256"
        }
      ],
      "stateMutability": "view",
      "type": "function"
    },
    {
      "inputs": [
        {
          "internalType": "address",
          "name": "account",
          "type": "address"
        }
      ],
      "name": "getVotes",
      "outputs": [
        {
          "internalType": "uint256",
          "name": "",
          "type": "uint256"
        }
      ],
      "stateMutability": "view",
      "type": "function"
    },
    {
      "inputs": [
        {
          "internalType": "address",
          "name": "spender",
          "type": "address"
        },
        {
          "internalType": "uint256",
          "name": "addedValue",
          "type": "uint256"
        }
      ],
      "name": "increaseAllowance",
      "outputs": [
        {
          "internalType": "bool",
          "name": "",
          "type": "bool"
        }
      ],
      "stateMutability": "nonpayable",
      "type": "function"
    },
    {
      "inputs": [],
      "name": "name",
      "outputs": [
        {
          "internalType": "string",
          "name": "",
          "type": "string"
        }
      ],
      "stateMutability": "view",
      "type": "function"
    },
    {
      "inputs": [
        {
          "internalType": "address",
          "name": "owner",
          "type": "address"
        }
      ],
      "name": "nonces",
      "outputs": [
        {
          "internalType": "uint256",
          "name": "",
          "type": "uint256"
        }
      ],
      "stateMutability": "view",
      "type": "function"
    },
    {
      "inputs": [
        {
          "internalType": "address",
          "name": "account",
          "type": "address"
        }
      ],
      "name": "numCheckpoints",
      "outputs": [
        {
          "internalType": "uint32",
          "name": "",
          "type": "uint32"
        }
      ],
      "stateMutability": "view",
      "type": "function"
    },
    {
      "inputs": [
        {
          "internalType": "address",
          "name": "owner",
          "type": "address"
        },
        {
          "internalType": "address",
          "name": "spender",
          "type": "address"
        },
        {
          "internalType": "uint256",
          "name": "value",
          "type": "uint256"
        },
        {
          "internalType": "uint256",
          "name": "deadline",
          "type": "uint256"
        },
        {
          "internalType": "uint8",
          "name": "v",
          "type": "uint8"
        },
        {
          "internalType": "bytes32",
          "name": "r",
          "type": "bytes32"
        },
        {
          "internalType": "bytes32",
          "name": "s",
          "type": "bytes32"
        }
      ],
      "name": "permit",
      "outputs": [],
      "stateMutability": "nonpayable",
      "type": "function"
    },
    {
      "inputs": [],
      "name": "symbol",
      "outputs": [
        {
          "internalType": "string",
          "name": "",
          "type": "string"
        }
      ],
      "stateMutability": "view",
      "type": "function"
    },
    {
      "inputs": [],
      "name": "totalSupply",
      "outputs": [
        {
          "internalType": "uint256",
          "name": "",
          "type": "uint256"
        }
      ],
      "stateMutability": "view",
      "type": "function"
    },
    {
      "inputs": [
        {
          "internalType": "address",
          "name": "recipient",
          "type": "address"
        },
        {
          "internalType": "uint256",
          "name": "amount",
          "type": "uint256"
        }
      ],
      "name": "transfer",
      "outputs": [
        {
          "internalType": "bool",
          "name": "",
          "type": "bool"
        }
      ],
      "stateMutability": "nonpayable",
      "type": "function"
    },
    {
      "inputs": [
        {
          "internalType": "address",
          "name": "sender",
          "type": "address"
        },
        {
          "internalType": "address",
          "name": "recipient",
          "type": "address"
        },
        {
          "internalType": "uint256",
          "name": "amount",
          "type": "uint256"
        }
      ],
      "name": "transferFrom",
      "outputs": [
        {
          "internalType": "bool",
          "name": "",
          "type": "bool"
        }
      ],
      "stateMutability": "nonpayable",
      "type": "function"
    }
  ],
  "bytecode": "0x6101606040527f6e71edae12b1b97f4d1f60370fef10105fa2faae0126114a169c64845d6126c9610140523480156200003757600080fd5b506040518060400160405280600a815260200169243cb832b93a37b5b2b760b11b81525080604051806040016040528060018152602001603160f81b8152506040518060400160405280600a815260200169243cb832b93a37b5b2b760b11b815250604051806040016040528060018152602001600960fb1b8152508160039080519060200190620000cb929190620007d7565b508051620000e1906004906020840190620007d7565b5050825160208085019190912083518483012060e08290526101008190524660a0818152604080517f8b73c3c69bb8fe3d512ecc4cf759cc79239f7b179b0ffacaa9a75d522b39400f81880181905281830187905260608201869052608082019490945230818401528151808203909301835260c0019052805194019390932091935091906080523060601b60c0526101205250620001ad93503392506200018a915050601290565b6200019790600a620008d7565b620001a7906305f5e10062000996565b620001b3565b62000a25565b620001ca8282620001ce60201b62000ad81760201c565b5050565b620001e582826200028560201b62000b681760201c565b6001600160e01b03620001f9620003748216565b1115620002665760405162461bcd60e51b815260206004820152603060248201527f4552433230566f7465733a20746f74616c20737570706c79207269736b73206f60448201526f766572666c6f77696e6720766f74657360801b60648201526084015b60405180910390fd5b6200027f600862000c536200037a60201b178362000391565b50505050565b6001600160a01b038216620002dd5760405162461bcd60e51b815260206004820152601f60248201527f45524332303a206d696e7420746f20746865207a65726f20616464726573730060448201526064016200025d565b8060026000828254620002f1919062000873565b90915550506001600160a01b038216600090815260208190526040812080548392906200032090849062000873565b90915550506040518181526001600160a01b038316906000907fddf252ad1be2c89b69c2b068fc378daa952ba7f163c4a11628f55a4df523b3ef9060200160405180910390a3620001ca600083836200056c565b60025490565b600062000388828462000873565b90505b92915050565b825460009081908015620003ef5785620003ad600183620009b8565b81548110620003cc57634e487b7160e01b600052603260045260246000fd5b60009182526020909120015464010000000090046001600160e01b0316620003f2565b60005b6001600160e01b031692506200040983858760201c565b9150600081118015620004595750438662000426600184620009b8565b815481106200044557634e487b7160e01b600052603260045260246000fd5b60009182526020909120015463ffffffff16145b15620004d95762000475826200058460201b62000c5f1760201c565b8662000483600184620009b8565b81548110620004a257634e487b7160e01b600052603260045260246000fd5b9060005260206000200160000160046101000a8154816001600160e01b0302191690836001600160e01b031602179055506200055e565b856040518060400160405280620004fb43620005f360201b62000ccc1760201c565b63ffffffff1681526020016200051c856200058460201b62000c5f1760201c565b6001600160e01b0390811690915282546001810184556000938452602093849020835194909301519091166401000000000263ffffffff909316929092179101555b50935093915050565b505050565b620005678383836200065a60201b62000d311760201c565b60006001600160e01b03821115620005ef5760405162461bcd60e51b815260206004820152602760248201527f53616665436173743a2076616c756520646f65736e27742066697420696e20326044820152663234206269747360c81b60648201526084016200025d565b5090565b600063ffffffff821115620005ef5760405162461bcd60e51b815260206004820152602660248201527f53616665436173743a2076616c756520646f65736e27742066697420696e203360448201526532206269747360d01b60648201526084016200025d565b620006728383836200056760201b62000d631760201c565b6001600160a01b038381166000908152600660205260408082205485841683529120546200056792918216911683818314801590620006b15750600081115b1562000567576001600160a01b038316156200073e576001600160a01b038316600090815260076020908152604082208291620006fb9190620007c9901b62000d68178562000391565b91509150846001600160a01b031660008051602062002710833981519152838360405162000733929190918252602082015260400190565b60405180910390a250505b6001600160a01b0382161562000567576001600160a01b0382166000908152600760209081526040822082916200078291906200037a901b62000c53178562000391565b91509150836001600160a01b0316600080516020620027108339815191528383604051620007ba929190918252602082015260400190565b60405180910390a25050505050565b6000620003888284620009b8565b828054620007e590620009d2565b90600052602060002090601f01602090048101928262000809576000855562000854565b82601f106200082457805160ff191683800117855562000854565b8280016001018555821562000854579182015b828111156200085457825182559160200191906001019062000837565b50620005ef9291505b80821115620005ef57600081556001016200085d565b6000821982111562000889576200088962000a0f565b500190565b600181815b80851115620008cf578160001904821115620008b357620008b362000a0f565b80851615620008c157918102915b93841c939080029062000893565b509250929050565b60006200038860ff841683600082620008f3575060016200038b565b8162000902575060006200038b565b81600181146200091b5760028114620009265762000946565b60019150506200038b565b60ff8411156200093a576200093a62000a0f565b50506001821b6200038b565b5060208310610133831016604e8410600b84101617156200096b575081810a6200038b565b6200097783836200088e565b80600019048211156200098e576200098e62000a0f565b029392505050565b6000816000190483118215151615620009b357620009b362000a0f565b500290565b600082821015620009cd57620009cd62000a0f565b500390565b600181811c90821680620009e757607f821691505b6020821081141562000a0957634e487b7160e01b600052602260045260246000fd5b50919050565b634e487b7160e01b600052601160045260246000fd5b60805160a05160c05160601c60e051610100516101205161014051611c8d62000a836000396000610936015260006110f6015260006111450152600061112001526000611079015260006110a3015260006110cd0152611c8d6000f3fe608060405234801561001057600080fd5b50600436106101425760003560e01c806370a08231116100b8578063a457c2d71161007c578063a457c2d7146102d5578063a9059cbb146102e8578063c3cda520146102fb578063d505accf1461030e578063dd62ed3e14610321578063f1127ed81461035a57600080fd5b806370a082311461026b5780637ecebe00146102945780638e539e8c146102a757806395d89b41146102ba5780639ab24eb0146102c257600080fd5b80633644e5151161010a5780633644e515146101bc57806339509351146101c45780633a46b1a8146101d7578063587cde1e146101ea5780635c19a95c1461022e5780636fcfff451461024357600080fd5b806306fdde0314610147578063095ea7b31461016557806318160ddd1461018857806323b872dd1461019a578063313ce567146101ad575b600080fd5b61014f610397565b60405161015c9190611b6a565b60405180910390f35b610178610173366004611a94565b610429565b604051901515815260200161015c565b6002545b60405190815260200161015c565b6101786101a83660046119f0565b61043f565b6040516012815260200161015c565b61018c6104ee565b6101786101d2366004611a94565b6104fd565b61018c6101e5366004611a94565b610539565b6102166101f83660046119a4565b6001600160a01b039081166000908152600660205260409020541690565b6040516001600160a01b03909116815260200161015c565b61024161023c3660046119a4565b6105b3565b005b6102566102513660046119a4565b6105c0565b60405163ffffffff909116815260200161015c565b61018c6102793660046119a4565b6001600160a01b031660009081526020819052604090205490565b61018c6102a23660046119a4565b6105e8565b61018c6102b5366004611b52565b610606565b61014f610662565b61018c6102d03660046119a4565b610671565b6101786102e3366004611a94565b610706565b6101786102f6366004611a94565b61079f565b610241610309366004611abd565b6107ac565b61024161031c366004611a2b565b6108e2565b61018c61032f3660046119be565b6001600160a01b03918216600090815260016020908152604080832093909416825291909152205490565b61036d610368366004611b14565b610a46565b60408051825163ffffffff1681526020928301516001600160e01b0316928101929092520161015c565b6060600380546103a690611c0c565b80601f01602080910402602001604051908101604052809291908181526020018280546103d290611c0c565b801561041f5780601f106103f45761010080835404028352916020019161041f565b820191906000526020600020905b81548152906001019060200180831161040257829003601f168201915b5050505050905090565b6000610436338484610d74565b50600192915050565b600061044c848484610e98565b6001600160a01b0384166000908152600160209081526040808320338452909152902054828110156104d65760405162461bcd60e51b815260206004820152602860248201527f45524332303a207472616e7366657220616d6f756e74206578636565647320616044820152676c6c6f77616e636560c01b60648201526084015b60405180910390fd5b6104e38533858403610d74565b506001949350505050565b60006104f861106c565b905090565b3360008181526001602090815260408083206001600160a01b03871684529091528120549091610436918590610534908690611bbd565b610d74565b600043821061058a5760405162461bcd60e51b815260206004820152601f60248201527f4552433230566f7465733a20626c6f636b206e6f7420796574206d696e65640060448201526064016104cd565b6001600160a01b03831660009081526007602052604090206105ac9083611193565b9392505050565b6105bd338261126c565b50565b6001600160a01b0381166000908152600760205260408120546105e290610ccc565b92915050565b6001600160a01b0381166000908152600560205260408120546105e2565b60004382106106575760405162461bcd60e51b815260206004820152601f60248201527f4552433230566f7465733a20626c6f636b206e6f7420796574206d696e65640060448201526064016104cd565b6105e2600883611193565b6060600480546103a690611c0c565b6001600160a01b03811660009081526007602052604081205480156106f3576001600160a01b03831660009081526007602052604090206106b3600183611bf5565b815481106106d157634e487b7160e01b600052603260045260246000fd5b60009182526020909120015464010000000090046001600160e01b03166106f6565b60005b6001600160e01b03169392505050565b3360009081526001602090815260408083206001600160a01b0386168452909152812054828110156107885760405162461bcd60e51b815260206004820152602560248201527f45524332303a2064656372656173656420616c6c6f77616e63652062656c6f77604482015264207a65726f60d81b60648201526084016104cd565b6107953385858403610d74565b5060019392505050565b6000610436338484610e98565b834211156107fc5760405162461bcd60e51b815260206004820152601d60248201527f4552433230566f7465733a207369676e6174757265206578706972656400000060448201526064016104cd565b604080517fe48329057bfd03d55e49b547132e39cffd9c1820ad7b9d4c5307691425d15adf60208201526001600160a01b0388169181019190915260608101869052608081018590526000906108769061086e9060a001604051602081830303815290604052805190602001206112e5565b858585611333565b90506108818161135b565b86146108cf5760405162461bcd60e51b815260206004820152601960248201527f4552433230566f7465733a20696e76616c6964206e6f6e63650000000000000060448201526064016104cd565b6108d9818861126c565b50505050505050565b834211156109325760405162461bcd60e51b815260206004820152601d60248201527f45524332305065726d69743a206578706972656420646561646c696e6500000060448201526064016104cd565b60007f00000000000000000000000000000000000000000000000000000000000000008888886109618c61135b565b6040805160208101969096526001600160a01b0394851690860152929091166060840152608083015260a082015260c0810186905260e00160405160208183030381529060405280519060200120905060006109bc826112e5565b905060006109cc82878787611333565b9050896001600160a01b0316816001600160a01b031614610a2f5760405162461bcd60e51b815260206004820152601e60248201527f45524332305065726d69743a20696e76616c6964207369676e6174757265000060448201526064016104cd565b610a3a8a8a8a610d74565b50505050505050505050565b60408051808201909152600080825260208201526001600160a01b0383166000908152600760205260409020805463ffffffff8416908110610a9857634e487b7160e01b600052603260045260246000fd5b60009182526020918290206040805180820190915291015463ffffffff8116825264010000000090046001600160e01b0316918101919091529392505050565b610ae28282610b68565b6002546001600160e01b031015610b545760405162461bcd60e51b815260206004820152603060248201527f4552433230566f7465733a20746f74616c20737570706c79207269736b73206f60448201526f766572666c6f77696e6720766f74657360801b60648201526084016104cd565b610b626008610c5383611383565b50505050565b6001600160a01b038216610bbe5760405162461bcd60e51b815260206004820152601f60248201527f45524332303a206d696e7420746f20746865207a65726f20616464726573730060448201526064016104cd565b8060026000828254610bd09190611bbd565b90915550506001600160a01b03821660009081526020819052604081208054839290610bfd908490611bbd565b90915550506040518181526001600160a01b038316906000907fddf252ad1be2c89b69c2b068fc378daa952ba7f163c4a11628f55a4df523b3ef9060200160405180910390a3610c4f60008383611526565b5050565b60006105ac8284611bbd565b60006001600160e01b03821115610cc85760405162461bcd60e51b815260206004820152602760248201527f53616665436173743a2076616c756520646f65736e27742066697420696e20326044820152663234206269747360c81b60648201526084016104cd565b5090565b600063ffffffff821115610cc85760405162461bcd60e51b815260206004820152602660248201527f53616665436173743a2076616c756520646f65736e27742066697420696e203360448201526532206269747360d01b60648201526084016104cd565b6001600160a01b03838116600090815260066020526040808220548584168352912054610d6392918216911683611531565b505050565b60006105ac8284611bf5565b6001600160a01b038316610dd65760405162461bcd60e51b8152602060048201526024808201527f45524332303a20617070726f76652066726f6d20746865207a65726f206164646044820152637265737360e01b60648201526084016104cd565b6001600160a01b038216610e375760405162461bcd60e51b815260206004820152602260248201527f45524332303a20617070726f766520746f20746865207a65726f206164647265604482015261737360f01b60648201526084016104cd565b6001600160a01b0383811660008181526001602090815260408083209487168084529482529182902085905590518481527f8c5be1e5ebec7d5bd14f71427d1e84f3dd0314c0f7b2291e5b200ac8c7c3b925910160405180910390a3505050565b6001600160a01b038316610efc5760405162461bcd60e51b815260206004820152602560248201527f45524332303a207472616e736665722066726f6d20746865207a65726f206164604482015264647265737360d81b60648201526084016104cd565b6001600160a01b038216610f5e5760405162461bcd60e51b815260206004820152602360248201527f45524332303a207472616e7366657220746f20746865207a65726f206164647260448201526265737360e81b60648201526084016104cd565b6001600160a01b03831660009081526020819052604090205481811015610fd65760405162461bcd60e51b815260206004820152602660248201527f45524332303a207472616e7366657220616d6f756e7420657863656564732062604482015265616c616e636560d01b60648201526084016104cd565b6001600160a01b0380851660009081526020819052604080822085850390559185168152908120805484929061100d908490611bbd565b92505081905550826001600160a01b0316846001600160a01b03167fddf252ad1be2c89b69c2b068fc378daa952ba7f163c4a11628f55a4df523b3ef8460405161105991815260200190565b60405180910390a3610b62848484611526565b6000306001600160a01b037f0000000000000000000000000000000000000000000000000000000000000000161480156110c557507f000000000000000000000000000000000000000000000000000000000000000046145b156110ef57507f000000000000000000000000000000000000000000000000000000000000000090565b50604080517f00000000000000000000000000000000000000000000000000000000000000006020808301919091527f0000000000000000000000000000000000000000000000000000000000000000828401527f000000000000000000000000000000000000000000000000000000000000000060608301524660808301523060a0808401919091528351808403909101815260c0909201909252805191012090565b8154600090815b818110156112055760006111ae828461166e565b9050848682815481106111d157634e487b7160e01b600052603260045260246000fd5b60009182526020909120015463ffffffff1611156111f1578092506111ff565b6111fc816001611bbd565b91505b5061119a565b81156112575784611217600184611bf5565b8154811061123557634e487b7160e01b600052603260045260246000fd5b60009182526020909120015464010000000090046001600160e01b031661125a565b60005b6001600160e01b031695945050505050565b6001600160a01b038281166000818152600660208181526040808420805485845282862054949093528787166001600160a01b03198416811790915590519190951694919391928592917f3134e8a2e6d97e929a7e54011ea5485d7d196dd5f0ba4d4ef95803e8e3fc257f9190a4610b62828483611531565b60006105e26112f261106c565b8360405161190160f01b6020820152602281018390526042810182905260009060620160405160208183030381529060405280519060200120905092915050565b600080600061134487878787611689565b9150915061135181611776565b5095945050505050565b6001600160a01b03811660009081526005602052604090208054600181018255905b50919050565b8254600090819080156113dc578561139c600183611bf5565b815481106113ba57634e487b7160e01b600052603260045260246000fd5b60009182526020909120015464010000000090046001600160e01b03166113df565b60005b6001600160e01b031692506113f883858763ffffffff16565b915060008111801561144457504386611412600184611bf5565b8154811061143057634e487b7160e01b600052603260045260246000fd5b60009182526020909120015463ffffffff16145b156114b25761145282610c5f565b8661145e600184611bf5565b8154811061147c57634e487b7160e01b600052603260045260246000fd5b9060005260206000200160000160046101000a8154816001600160e01b0302191690836001600160e01b0316021790555061151d565b8560405180604001604052806114c743610ccc565b63ffffffff1681526020016114db85610c5f565b6001600160e01b0390811690915282546001810184556000938452602093849020835194909301519091166401000000000263ffffffff909316929092179101555b50935093915050565b610d63838383610d31565b816001600160a01b0316836001600160a01b0316141580156115535750600081115b15610d63576001600160a01b038316156115e1576001600160a01b0383166000908152600760205260408120819061158e90610d6885611383565b91509150846001600160a01b03167fdec2bacdd2f05b59de34da9b523dff8be42e5e38e818c82fdb0bae774387a72483836040516115d6929190918252602082015260400190565b60405180910390a250505b6001600160a01b03821615610d63576001600160a01b0382166000908152600760205260408120819061161790610c5385611383565b91509150836001600160a01b03167fdec2bacdd2f05b59de34da9b523dff8be42e5e38e818c82fdb0bae774387a724838360405161165f929190918252602082015260400190565b60405180910390a25050505050565b600061167d6002848418611bd5565b6105ac90848416611bbd565b6000807f7fffffffffffffffffffffffffffffff5d576e7357a4501ddfe92f46681b20a08311156116c0575060009050600361176d565b8460ff16601b141580156116d857508460ff16601c14155b156116e9575060009050600461176d565b6040805160008082526020820180845289905260ff881692820192909252606081018690526080810185905260019060a0016020604051602081039080840390855afa15801561173d573d6000803e3d6000fd5b5050604051601f1901519150506001600160a01b0381166117665760006001925092505061176d565b9150600090505b94509492505050565b600081600481111561179857634e487b7160e01b600052602160045260246000fd5b14156117a15750565b60018160048111156117c357634e487b7160e01b600052602160045260246000fd5b14156118115760405162461bcd60e51b815260206004820152601860248201527f45434453413a20696e76616c6964207369676e6174757265000000000000000060448201526064016104cd565b600281600481111561183357634e487b7160e01b600052602160045260246000fd5b14156118815760405162461bcd60e51b815260206004820152601f60248201527f45434453413a20696e76616c6964207369676e6174757265206c656e6774680060448201526064016104cd565b60038160048111156118a357634e487b7160e01b600052602160045260246000fd5b14156118fc5760405162461bcd60e51b815260206004820152602260248201527f45434453413a20696e76616c6964207369676e6174757265202773272076616c604482015261756560f01b60648201526084016104cd565b600481600481111561191e57634e487b7160e01b600052602160045260246000fd5b14156105bd5760405162461bcd60e51b815260206004820152602260248201527f45434453413a20696e76616c6964207369676e6174757265202776272076616c604482015261756560f01b60648201526084016104cd565b80356001600160a01b038116811461198e57600080fd5b919050565b803560ff8116811461198e57600080fd5b6000602082840312156119b5578081fd5b6105ac82611977565b600080604083850312156119d0578081fd5b6119d983611977565b91506119e760208401611977565b90509250929050565b600080600060608486031215611a04578081fd5b611a0d84611977565b9250611a1b60208501611977565b9150604084013590509250925092565b600080600080600080600060e0888a031215611a45578283fd5b611a4e88611977565b9650611a5c60208901611977565b95506040880135945060608801359350611a7860808901611993565b925060a0880135915060c0880135905092959891949750929550565b60008060408385031215611aa6578182fd5b611aaf83611977565b946020939093013593505050565b60008060008060008060c08789031215611ad5578182fd5b611ade87611977565b95506020870135945060408701359350611afa60608801611993565b92506080870135915060a087013590509295509295509295565b60008060408385031215611b26578182fd5b611b2f83611977565b9150602083013563ffffffff81168114611b47578182fd5b809150509250929050565b600060208284031215611b63578081fd5b5035919050565b6000602080835283518082850152825b81811015611b9657858101830151858201604001528201611b7a565b81811115611ba75783604083870101525b50601f01601f1916929092016040019392505050565b60008219821115611bd057611bd0611c41565b500190565b600082611bf057634e487b7160e01b81526012600452602481fd5b500490565b600082821015611c0757611c07611c41565b500390565b600181811c90821680611c2057607f821691505b6020821081141561137d57634e487b7160e01b600052602260045260246000fd5b634e487b7160e01b600052601160045260246000fdfea26469706673582212202e33561a5f48ae96217d0aae53a9ba4ce2cfbe1d88dd2e8dee2a026e32a3d84764736f6c63430008040033dec2bacdd2f05b59de34da9b523dff8be42e5e38e818c82fdb0bae774387a724",
  "linkReferences": {},
  "deployedLinkReferences": {}
}