{
  "_format": "hh-sol-artifact-1",
  "contractName": "Test",
  "sourceName": "contracts/utils/Test.sol",
  "abi": [
    {
      "inputs": [],
      "stateMutability": "nonpayable",
      "type": "constructor"
    },
    {
      "anonymous": false,
      "inputs": [
        {
          "indexed": true,
          "internalType": "bytes32",
          "name": "role",
          "type": "bytes32"
        },
        {
          "indexed": true,
          "internalType": "bytes32",
          "name": "previousAdminRole",
          "type": "bytes32"
        },
        {
          "indexed": true,
          "internalType": "bytes32",
          "name": "newAdminRole",
          "type": "bytes32"
        }
      ],
      "name": "RoleAdminChanged",
      "type": "event"
    },
    {
      "anonymous": false,
      "inputs": [
        {
          "indexed": true,
          "internalType": "bytes32",
          "name": "role",
          "type": "bytes32"
        },
        {
          "indexed": true,
          "internalType": "uint256",
          "name": "tokenId",
          "type": "uint256"
        },
        {
          "indexed": true,
          "internalType": "address",
          "name": "sender",
          "type": "address"
        }
      ],
      "name": "RoleGranted",
      "type": "event"
    },
    {
      "anonymous": false,
      "inputs": [
        {
          "indexed": true,
          "internalType": "bytes32",
          "name": "role",
          "type": "bytes32"
        },
        {
          "indexed": true,
          "internalType": "uint256",
          "name": "tokenId",
          "type": "uint256"
        },
        {
          "indexed": true,
          "internalType": "address",
          "name": "sender",
          "type": "address"
        }
      ],
      "name": "RoleRevoked",
      "type": "event"
    },
    {
      "inputs": [],
      "name": "DEFAULT_ADMIN_ROLE",
      "outputs": [
        {
          "internalType": "bytes32",
          "name": "",
          "type": "bytes32"
        }
      ],
      "stateMutability": "view",
      "type": "function"
    },
    {
      "inputs": [
        {
          "internalType": "bytes32",
          "name": "role",
          "type": "bytes32"
        }
      ],
      "name": "getRoleAdmin",
      "outputs": [
        {
          "internalType": "bytes32",
          "name": "",
          "type": "bytes32"
        }
      ],
      "stateMutability": "view",
      "type": "function"
    },
    {
      "inputs": [
        {
          "internalType": "bytes32",
          "name": "role",
          "type": "bytes32"
        },
        {
          "internalType": "uint256",
          "name": "tokenId",
          "type": "uint256"
        }
      ],
      "name": "grantRole",
      "outputs": [],
      "stateMutability": "nonpayable",
      "type": "function"
    },
    {
      "inputs": [
        {
          "internalType": "bytes32",
          "name": "role",
          "type": "bytes32"
        },
        {
          "internalType": "uint256",
          "name": "tokenId",
          "type": "uint256"
        }
      ],
      "name": "hasRole",
      "outputs": [
        {
          "internalType": "bool",
          "name": "",
          "type": "bool"
        }
      ],
      "stateMutability": "view",
      "type": "function"
    },
    {
      "inputs": [
        {
          "internalType": "bytes32",
          "name": "role",
          "type": "bytes32"
        },
        {
          "internalType": "address",
          "name": "account",
          "type": "address"
        }
      ],
      "name": "hasRole",
      "outputs": [
        {
          "internalType": "bool",
          "name": "",
          "type": "bool"
        }
      ],
      "stateMutability": "view",
      "type": "function"
    },
    {
      "inputs": [
        {
          "internalType": "address",
          "name": "nftRegistry",
          "type": "address"
        },
        {
          "internalType": "uint256",
          "name": "tokenId",
          "type": "uint256"
        }
      ],
      "name": "initialize",
      "outputs": [],
      "stateMutability": "nonpayable",
      "type": "function"
    },
    {
      "inputs": [
        {
          "internalType": "bytes32",
          "name": "role",
          "type": "bytes32"
        },
        {
          "internalType": "uint256",
          "name": "tokenId",
          "type": "uint256"
        }
      ],
      "name": "renounceRole",
      "outputs": [],
      "stateMutability": "nonpayable",
      "type": "function"
    },
    {
      "inputs": [
        {
          "internalType": "bytes32",
          "name": "role",
          "type": "bytes32"
        },
        {
          "internalType": "uint256",
          "name": "tokenId",
          "type": "uint256"
        }
      ],
      "name": "revokeRole",
      "outputs": [],
      "stateMutability": "nonpayable",
      "type": "function"
    },
    {
      "inputs": [
        {
          "internalType": "bytes4",
          "name": "interfaceId",
          "type": "bytes4"
        }
      ],
      "name": "supportsInterface",
      "outputs": [
        {
          "internalType": "bool",
          "name": "",
          "type": "bool"
        }
      ],
      "stateMutability": "view",
      "type": "function"
    }
  ],
  "bytecode": "0x608060405234801561001057600080fd5b50600054610100900460ff1661002c5760005460ff1615610034565b6100346100d5565b61009b5760405162461bcd60e51b815260206004820152602e60248201527f496e697469616c697a61626c653a20636f6e747261637420697320616c72656160448201526d191e481a5b9a5d1a585b1a5e995960921b606482015260840160405180910390fd5b600054610100900460ff161580156100bd576000805461ffff19166101011790555b80156100cf576000805461ff00191690555b506100f6565b60006100ea306100f060201b6104ff1760201c565b15905090565b3b151590565b610de2806101056000396000f3fe608060405234801561001057600080fd5b50600436106100935760003560e01c80635354caa8116100665780635354caa8146101195780637e063c5a1461012c57806391d148541461015a578063a217fddf1461016d578063cd6dc6871461017557600080fd5b806301ffc9a71461009857806319d61ad9146100c05780631b6ea9f9146100d5578063248a9ca3146100e8575b600080fd5b6100ab6100a6366004610bb2565b610188565b60405190151581526020015b60405180910390f35b6100d36100ce366004610b91565b6101bf565b005b6100d36100e3366004610b91565b6101ea565b61010b6100f6366004610b4a565b60009081526065602052604090206001015490565b6040519081526020016100b7565b6100d3610127366004610b91565b610210565b6100ab61013a366004610b91565b600091825260656020908152604080842092845291905290205460ff1690565b6100ab610168366004610b62565b610315565b61010b600081565b6100d3610183366004610aff565b610478565b60006001600160e01b03198216639ab1912560e01b14806101b957506301ffc9a760e01b6001600160e01b03198316145b92915050565b6000828152606560205260409020600101546101db8133610505565b6101e58383610569565b505050565b6000828152606560205260409020600101546102068133610505565b6101e583836105db565b336066546040516331a9108f60e11b8152600481018490526001600160a01b039283169290911690636352211e9060240160206040518083038186803b15801561025957600080fd5b505afa15801561026d573d6000803e3d6000fd5b505050506040513d601f19601f820116820180604052508101906102919190610ae3565b6001600160a01b0316146103075760405162461bcd60e51b815260206004820152603260248201527f4e4654416363657373436f6e74726f6c3a2063616e206f6e6c792072656e6f756044820152713731b2903937b632b9903337b91039b2b63360711b60648201526084015b60405180910390fd5b6103118282610569565b5050565b6066546040516370a0823160e01b81526001600160a01b03838116600483015260009283929116906370a082319060240160206040518083038186803b15801561035e57600080fd5b505afa158015610372573d6000803e3d6000fd5b505050506040513d601f19601f820116820180604052508101906103969190610bda565b905060005b8181101561046d576000858152606560205260408082206066549151632f745c5960e01b81526001600160a01b038881166004830152602482018690529193929190911690632f745c599060440160206040518083038186803b15801561040157600080fd5b505afa158015610415573d6000803e3d6000fd5b505050506040513d601f19601f820116820180604052508101906104399190610bda565b815260208101919091526040016000205460ff161561045d576001925050506101b9565b61046681610d66565b905061039b565b506000949350505050565b600054610100900460ff166104935760005460ff1615610497565b303b155b6104b35760405162461bcd60e51b81526004016102fe90610c9a565b600054610100900460ff161580156104d5576000805461ffff19166101011790555b6104de83610662565b6104e9600083610811565b80156101e5576000805461ff0019169055505050565b3b151590565b61050f8282610315565b61031157610527816001600160a01b0316601461081b565b61053283602061081b565b604051602001610543929190610bf2565b60408051601f198184030181529082905262461bcd60e51b82526102fe91600401610c67565b600082815260656020908152604080832084845290915290205460ff1615610311576000828152606560209081526040808320848452909152808220805460ff19169055513391839185917f641261709a27417e18d0ccc3db95ddc812d61be919b2a5a3af21a5870590922a91a45050565b600082815260656020908152604080832084845290915290205460ff166103115760008281526065602090815260408083208484529091529020805460ff191660011790556106273390565b6001600160a01b031681837f7c2a2c4bb5a44dafa473fc49e557303dba6db62123713789deefe8ccb384654960405160405180910390a45050565b600054610100900460ff1661067d5760005460ff1615610681565b303b155b61069d5760405162461bcd60e51b81526004016102fe90610c9a565b600054610100900460ff161580156106bf576000805461ffff19166101011790555b6106c7610a04565b6106cf610a04565b6106d7610a71565b6040516301ffc9a760e01b815263780e9d6360e01b60048201526001600160a01b038316906301ffc9a79060240160206040518083038186803b15801561071d57600080fd5b505afa158015610731573d6000803e3d6000fd5b505050506040513d601f19601f820116820180604052508101906107559190610b2a565b6107e15760405162461bcd60e51b815260206004820152605160248201527f4e4654416363657373436f6e74726f6c5570677261646561626c653a2041646460448201527f7265737320646f6573206e6f7420737570706f727420455243373231456e756d60648201527032b930b136329034b73a32b93330b1b29760791b608482015260a4016102fe565b606680546001600160a01b0319166001600160a01b0384161790558015610311576000805461ff00191690555050565b61031182826105db565b6060600061082a836002610d00565b610835906002610ce8565b67ffffffffffffffff81111561085b57634e487b7160e01b600052604160045260246000fd5b6040519080825280601f01601f191660200182016040528015610885576020820181803683370190505b509050600360fc1b816000815181106108ae57634e487b7160e01b600052603260045260246000fd5b60200101906001600160f81b031916908160001a905350600f60fb1b816001815181106108eb57634e487b7160e01b600052603260045260246000fd5b60200101906001600160f81b031916908160001a905350600061090f846002610d00565b61091a906001610ce8565b90505b60018111156109ae576f181899199a1a9b1b9c1cb0b131b232b360811b85600f166010811061095c57634e487b7160e01b600052603260045260246000fd5b1a60f81b82828151811061098057634e487b7160e01b600052603260045260246000fd5b60200101906001600160f81b031916908160001a90535060049490941c936109a781610d4f565b905061091d565b5083156109fd5760405162461bcd60e51b815260206004820181905260248201527f537472696e67733a20686578206c656e67746820696e73756666696369656e7460448201526064016102fe565b9392505050565b600054610100900460ff16610a6f5760405162461bcd60e51b815260206004820152602b60248201527f496e697469616c697a61626c653a20636f6e7472616374206973206e6f74206960448201526a6e697469616c697a696e6760a81b60648201526084016102fe565b565b600054610100900460ff16610a8c5760005460ff1615610a90565b303b155b610aac5760405162461bcd60e51b81526004016102fe90610c9a565b600054610100900460ff16158015610ace576000805461ffff19166101011790555b8015610ae0576000805461ff00191690555b50565b600060208284031215610af4578081fd5b81516109fd81610d97565b60008060408385031215610b11578081fd5b8235610b1c81610d97565b946020939093013593505050565b600060208284031215610b3b578081fd5b815180151581146109fd578182fd5b600060208284031215610b5b578081fd5b5035919050565b60008060408385031215610b74578182fd5b823591506020830135610b8681610d97565b809150509250929050565b60008060408385031215610ba3578182fd5b50508035926020909101359150565b600060208284031215610bc3578081fd5b81356001600160e01b0319811681146109fd578182fd5b600060208284031215610beb578081fd5b5051919050565b7f4e4654416363657373436f6e74726f6c3a206163636f756e7420000000000000815260008351610c2a81601a850160208801610d1f565b7001034b99036b4b9b9b4b733903937b6329607d1b601a918401918201528351610c5b81602b840160208801610d1f565b01602b01949350505050565b6020815260008251806020840152610c86816040850160208701610d1f565b601f01601f19169190910160400192915050565b6020808252602e908201527f496e697469616c697a61626c653a20636f6e747261637420697320616c72656160408201526d191e481a5b9a5d1a585b1a5e995960921b606082015260800190565b60008219821115610cfb57610cfb610d81565b500190565b6000816000190483118215151615610d1a57610d1a610d81565b500290565b60005b83811015610d3a578181015183820152602001610d22565b83811115610d49576000848401525b50505050565b600081610d5e57610d5e610d81565b506000190190565b6000600019821415610d7a57610d7a610d81565b5060010190565b634e487b7160e01b600052601160045260246000fd5b6001600160a01b0381168114610ae057600080fdfea264697066735822122064cb26bb1d443e54ccf8a22f182427f82086f8c25f2b55b615910fc79d280f8964736f6c63430008040033",
  "linkReferences": {},
  "deployedLinkReferences": {}
}