{
  "_format": "hh-sol-artifact-1",
  "contractName": "Vester",
  "sourceName": "contracts/utils/Vesting.sol",
  "abi": [
    {
      "inputs": [
        {
          "internalType": "address",
          "name": "h_",
          "type": "address"
        },
        {
          "internalType": "address",
          "name": "recipient_",
          "type": "address"
        },
        {
          "internalType": "uint256",
          "name": "vestingAmount_",
          "type": "uint256"
        },
        {
          "internalType": "uint256",
          "name": "vestingBegin_",
          "type": "uint256"
        },
        {
          "internalType": "uint256",
          "name": "vestingCliff_",
          "type": "uint256"
        },
        {
          "internalType": "uint256",
          "name": "vestingEnd_",
          "type": "uint256"
        }
      ],
      "stateMutability": "nonpayable",
      "type": "constructor"
    },
    {
      "inputs": [],
      "name": "claim",
      "outputs": [],
      "stateMutability": "nonpayable",
      "type": "function"
    },
    {
      "inputs": [
        {
          "internalType": "address",
          "name": "recipient_",
          "type": "address"
        }
      ],
      "name": "delegate",
      "outputs": [],
      "stateMutability": "nonpayable",
      "type": "function"
    },
    {
      "inputs": [],
      "name": "h",
      "outputs": [
        {
          "internalType": "address",
          "name": "",
          "type": "address"
        }
      ],
      "stateMutability": "view",
      "type": "function"
    },
    {
      "inputs": [],
      "name": "lastUpdate",
      "outputs": [
        {
          "internalType": "uint256",
          "name": "",
          "type": "uint256"
        }
      ],
      "stateMutability": "view",
      "type": "function"
    },
    {
      "inputs": [],
      "name": "recipient",
      "outputs": [
        {
          "internalType": "address",
          "name": "",
          "type": "address"
        }
      ],
      "stateMutability": "view",
      "type": "function"
    },
    {
      "inputs": [
        {
          "internalType": "address",
          "name": "recipient_",
          "type": "address"
        }
      ],
      "name": "setRecipient",
      "outputs": [],
      "stateMutability": "nonpayable",
      "type": "function"
    },
    {
      "inputs": [],
      "name": "timeNow",
      "outputs": [
        {
          "internalType": "uint256",
          "name": "timenow",
          "type": "uint256"
        }
      ],
      "stateMutability": "view",
      "type": "function"
    },
    {
      "inputs": [],
      "name": "vestingAmount",
      "outputs": [
        {
          "internalType": "uint256",
          "name": "",
          "type": "uint256"
        }
      ],
      "stateMutability": "view",
      "type": "function"
    },
    {
      "inputs": [],
      "name": "vestingBegin",
      "outputs": [
        {
          "internalType": "uint256",
          "name": "",
          "type": "uint256"
        }
      ],
      "stateMutability": "view",
      "type": "function"
    },
    {
      "inputs": [],
      "name": "vestingCliff",
      "outputs": [
        {
          "internalType": "uint256",
          "name": "",
          "type": "uint256"
        }
      ],
      "stateMutability": "view",
      "type": "function"
    },
    {
      "inputs": [],
      "name": "vestingEnd",
      "outputs": [
        {
          "internalType": "uint256",
          "name": "",
          "type": "uint256"
        }
      ],
      "stateMutability": "view",
      "type": "function"
    }
  ],
  "bytecode": "0x608060405234801561001057600080fd5b506040516107cc3803806107cc83398101604081905261002f916101be565b428310156100995760405162461bcd60e51b815260206004820152602c60248201527f5665737465723a3a636f6e7374727563746f723a2076657374696e672062656760448201526b696e20746f6f206561726c7960a01b60648201526084015b60405180910390fd5b828210156100f95760405162461bcd60e51b815260206004820152602760248201527f5665737465723a3a636f6e7374727563746f723a20636c69666620697320746f6044820152666f206561726c7960c81b6064820152608401610090565b8181116101565760405162461bcd60e51b815260206004820152602560248201527f5665737465723a3a636f6e7374727563746f723a20656e6420697320746f6f206044820152646561726c7960d81b6064820152608401610090565b600080546001600160a01b039788166001600160a01b03199182161790915560018054969097169516949094179094556002919091556003819055600492909255600555600655610215565b80516001600160a01b03811681146101b957600080fd5b919050565b60008060008060008060c087890312156101d6578182fd5b6101df876101a2565b95506101ed602088016101a2565b945060408701519350606087015192506080870151915060a087015190509295509295509295565b6105a8806102246000396000f3fe608060405234801561001057600080fd5b50600436106100a85760003560e01c806384a1931f1161007157806384a1931f14610124578063b8c9d3651461012d578063c046371114610140578063d95660be14610149578063e29bc68b1461014f578063f3640e741461015857600080fd5b8062728f76146100ad5780633bbed4a0146100c95780634e71d92d146100de5780635c19a95c146100e657806366d003ac146100f9575b600080fd5b6100b660025481565b6040519081526020015b60405180910390f35b6100dc6100d736600461045d565b610161565b005b6100dc6101b6565b6100dc6100f436600461045d565b6103b2565b60015461010c906001600160a01b031681565b6040516001600160a01b0390911681526020016100c0565b6100b660055481565b60005461010c906001600160a01b031681565b6100b660065481565b426100b6565b6100b660035481565b6100b660045481565b6001546001600160a01b031633146101945760405162461bcd60e51b815260040161018b906104bc565b60405180910390fd5b600180546001600160a01b0319166001600160a01b0392909216919091179055565b6004544210156102085760405162461bcd60e51b815260206004820152601b60248201527f5665737465723a3a636c61696d3a206e6f742074696d65207965740000000000604482015260640161018b565b60006005544210610295576000546040516370a0823160e01b81523060048201526001600160a01b03909116906370a082319060240160206040518083038186803b15801561025657600080fd5b505afa15801561026a573d6000803e3d6000fd5b505050506040513d601f19601f8201168201806040525081019061028e91906104a4565b90506102cf565b6102c86003546005546102a89190610545565b6102c2600654426102b99190610545565b6002549061043e565b90610451565b4260065590505b60005460015460405163a9059cbb60e01b81526001600160a01b0391821660048201526024810184905291169063a9059cbb90604401602060405180830381600087803b15801561031f57600080fd5b505af1158015610333573d6000803e3d6000fd5b505050506040513d601f19601f820116820180604052508101906103579190610484565b6103af5760405162461bcd60e51b8152602060048201526024808201527f5665737465723a3a636c61696d3a20746f6b656e207472616e736665722066616044820152631a5b195960e21b606482015260840161018b565b50565b6001546001600160a01b031633146103dc5760405162461bcd60e51b815260040161018b906104bc565b6000546040516317066a5760e21b81526001600160a01b03838116600483015290911690635c19a95c90602401600060405180830381600087803b15801561042357600080fd5b505af1158015610437573d6000803e3d6000fd5b5050505050565b600061044a8284610526565b9392505050565b600061044a8284610506565b60006020828403121561046e578081fd5b81356001600160a01b038116811461044a578182fd5b600060208284031215610495578081fd5b8151801515811461044a578182fd5b6000602082840312156104b5578081fd5b5051919050565b6020808252602a908201527f54726561737572795665737465723a3a736574526563697069656e743a20756e604082015269185d5d1a1bdc9a5e995960b21b606082015260800190565b60008261052157634e487b7160e01b81526012600452602481fd5b500490565b60008160001904831182151516156105405761054061055c565b500290565b6000828210156105575761055761055c565b500390565b634e487b7160e01b600052601160045260246000fdfea2646970667358221220ec4022795aca7d322f5d986c3b3670d40a921335181dddc3026cd21db4915bb064736f6c63430008040033",
  "linkReferences": {},
  "deployedLinkReferences": {}
}