{
  "_format": "hh-sol-artifact-1",
  "contractName": "Test",
  "sourceName": "contracts/utils/Test.sol",
  "abi": [
    {
      "inputs": [],
      "stateMutability": "nonpayable",
      "type": "constructor"
    },
    {
      "anonymous": false,
      "inputs": [
        {
          "indexed": true,
          "internalType": "bytes32",
          "name": "role",
          "type": "bytes32"
        },
        {
          "indexed": true,
          "internalType": "bytes32",
          "name": "previousAdminRole",
          "type": "bytes32"
        },
        {
          "indexed": true,
          "internalType": "bytes32",
          "name": "newAdminRole",
          "type": "bytes32"
        }
      ],
      "name": "RoleAdminChanged",
      "type": "event"
    },
    {
      "anonymous": false,
      "inputs": [
        {
          "indexed": true,
          "internalType": "bytes32",
          "name": "role",
          "type": "bytes32"
        },
        {
          "indexed": true,
          "internalType": "uint256",
          "name": "tokenId",
          "type": "uint256"
        },
        {
          "indexed": true,
          "internalType": "address",
          "name": "sender",
          "type": "address"
        }
      ],
      "name": "RoleGranted",
      "type": "event"
    },
    {
      "anonymous": false,
      "inputs": [
        {
          "indexed": true,
          "internalType": "bytes32",
          "name": "role",
          "type": "bytes32"
        },
        {
          "indexed": true,
          "internalType": "uint256",
          "name": "tokenId",
          "type": "uint256"
        },
        {
          "indexed": true,
          "internalType": "address",
          "name": "sender",
          "type": "address"
        }
      ],
      "name": "RoleRevoked",
      "type": "event"
    },
    {
      "inputs": [],
      "name": "DEFAULT_ADMIN_ROLE",
      "outputs": [
        {
          "internalType": "bytes32",
          "name": "",
          "type": "bytes32"
        }
      ],
      "stateMutability": "view",
      "type": "function"
    },
    {
      "inputs": [
        {
          "internalType": "bytes32",
          "name": "role",
          "type": "bytes32"
        }
      ],
      "name": "getRoleAdmin",
      "outputs": [
        {
          "internalType": "bytes32",
          "name": "",
          "type": "bytes32"
        }
      ],
      "stateMutability": "view",
      "type": "function"
    },
    {
      "inputs": [
        {
          "internalType": "bytes32",
          "name": "role",
          "type": "bytes32"
        },
        {
          "internalType": "uint256",
          "name": "tokenId",
          "type": "uint256"
        }
      ],
      "name": "grantRole",
      "outputs": [],
      "stateMutability": "nonpayable",
      "type": "function"
    },
    {
      "inputs": [
        {
          "internalType": "bytes32",
          "name": "role",
          "type": "bytes32"
        },
        {
          "internalType": "uint256",
          "name": "tokenId",
          "type": "uint256"
        }
      ],
      "name": "hasRole",
      "outputs": [
        {
          "internalType": "bool",
          "name": "",
          "type": "bool"
        }
      ],
      "stateMutability": "view",
      "type": "function"
    },
    {
      "inputs": [
        {
          "internalType": "bytes32",
          "name": "role",
          "type": "bytes32"
        },
        {
          "internalType": "address",
          "name": "account",
          "type": "address"
        }
      ],
      "name": "hasRole",
      "outputs": [
        {
          "internalType": "bool",
          "name": "",
          "type": "bool"
        }
      ],
      "stateMutability": "view",
      "type": "function"
    },
    {
      "inputs": [
        {
          "internalType": "address",
          "name": "nftRegistry",
          "type": "address"
        },
        {
          "internalType": "uint256",
          "name": "tokenId",
          "type": "uint256"
        }
      ],
      "name": "initialize",
      "outputs": [],
      "stateMutability": "nonpayable",
      "type": "function"
    },
    {
      "inputs": [
        {
          "internalType": "bytes32",
          "name": "role",
          "type": "bytes32"
        },
        {
          "internalType": "uint256",
          "name": "tokenId",
          "type": "uint256"
        }
      ],
      "name": "renounceRole",
      "outputs": [],
      "stateMutability": "nonpayable",
      "type": "function"
    },
    {
      "inputs": [
        {
          "internalType": "bytes32",
          "name": "role",
          "type": "bytes32"
        },
        {
          "internalType": "uint256",
          "name": "tokenId",
          "type": "uint256"
        }
      ],
      "name": "revokeRole",
      "outputs": [],
      "stateMutability": "nonpayable",
      "type": "function"
    },
    {
      "inputs": [
        {
          "internalType": "bytes4",
          "name": "interfaceId",
          "type": "bytes4"
        }
      ],
      "name": "supportsInterface",
      "outputs": [
        {
          "internalType": "bool",
          "name": "",
          "type": "bool"
        }
      ],
      "stateMutability": "view",
      "type": "function"
    }
  ],
  "bytecode": "0x608060405234801561001057600080fd5b50600054610100900460ff168061002a575060005460ff16155b6100915760405162461bcd60e51b815260206004820152602e60248201527f496e697469616c697a61626c653a20636f6e747261637420697320616c72656160448201526d191e481a5b9a5d1a585b1a5e995960921b606482015260840160405180910390fd5b600054610100900460ff161580156100b3576000805461ffff19166101011790555b80156100c5576000805461ff00191690555b50610d5d806100d56000396000f3fe608060405234801561001057600080fd5b50600436106100935760003560e01c80635354caa8116100665780635354caa8146101195780637e063c5a1461012c57806391d148541461015a578063a217fddf1461016d578063cd6dc6871461017557600080fd5b806301ffc9a71461009857806319d61ad9146100c05780631b6ea9f9146100d5578063248a9ca3146100e8575b600080fd5b6100ab6100a6366004610b2d565b610188565b60405190151581526020015b60405180910390f35b6100d36100ce366004610b0c565b6101bf565b005b6100d36100e3366004610b0c565b6101ea565b61010b6100f6366004610ac5565b60009081526065602052604090206001015490565b6040519081526020016100b7565b6100d3610127366004610b0c565b610210565b6100ab61013a366004610b0c565b600091825260656020908152604080842092845291905290205460ff1690565b6100ab610168366004610add565b610315565b61010b600081565b6100d3610183366004610a7a565b610478565b60006001600160e01b03198216639ab1912560e01b14806101b957506301ffc9a760e01b6001600160e01b03198316145b92915050565b6000828152606560205260409020600101546101db81336104f9565b6101e5838361055d565b505050565b60008281526065602052604090206001015461020681336104f9565b6101e583836105cf565b336066546040516331a9108f60e11b8152600481018490526001600160a01b039283169290911690636352211e9060240160206040518083038186803b15801561025957600080fd5b505afa15801561026d573d6000803e3d6000fd5b505050506040513d601f19601f820116820180604052508101906102919190610a5e565b6001600160a01b0316146103075760405162461bcd60e51b815260206004820152603260248201527f4e4654416363657373436f6e74726f6c3a2063616e206f6e6c792072656e6f756044820152713731b2903937b632b9903337b91039b2b63360711b60648201526084015b60405180910390fd5b610311828261055d565b5050565b6066546040516370a0823160e01b81526001600160a01b03838116600483015260009283929116906370a082319060240160206040518083038186803b15801561035e57600080fd5b505afa158015610372573d6000803e3d6000fd5b505050506040513d601f19601f820116820180604052508101906103969190610b55565b905060005b8181101561046d576000858152606560205260408082206066549151632f745c5960e01b81526001600160a01b038881166004830152602482018690529193929190911690632f745c599060440160206040518083038186803b15801561040157600080fd5b505afa158015610415573d6000803e3d6000fd5b505050506040513d601f19601f820116820180604052508101906104399190610b55565b815260208101919091526040016000205460ff161561045d576001925050506101b9565b61046681610ce1565b905061039b565b506000949350505050565b600054610100900460ff1680610491575060005460ff16155b6104ad5760405162461bcd60e51b81526004016102fe90610c15565b600054610100900460ff161580156104cf576000805461ffff19166101011790555b6104d883610656565b6104e36000836107ff565b80156101e5576000805461ff0019169055505050565b6105038282610315565b6103115761051b816001600160a01b03166014610809565b610526836020610809565b604051602001610537929190610b6d565b60408051601f198184030181529082905262461bcd60e51b82526102fe91600401610be2565b600082815260656020908152604080832084845290915290205460ff1615610311576000828152606560209081526040808320848452909152808220805460ff19169055513391839185917f641261709a27417e18d0ccc3db95ddc812d61be919b2a5a3af21a5870590922a91a45050565b600082815260656020908152604080832084845290915290205460ff166103115760008281526065602090815260408083208484529091529020805460ff1916600117905561061b3390565b6001600160a01b031681837f7c2a2c4bb5a44dafa473fc49e557303dba6db62123713789deefe8ccb384654960405160405180910390a45050565b600054610100900460ff168061066f575060005460ff16155b61068b5760405162461bcd60e51b81526004016102fe90610c15565b600054610100900460ff161580156106ad576000805461ffff19166101011790555b6106b56109f2565b6106bd6109f2565b6106c56109f2565b6040516301ffc9a760e01b815263780e9d6360e01b60048201526001600160a01b038316906301ffc9a79060240160206040518083038186803b15801561070b57600080fd5b505afa15801561071f573d6000803e3d6000fd5b505050506040513d601f19601f820116820180604052508101906107439190610aa5565b6107cf5760405162461bcd60e51b815260206004820152605160248201527f4e4654416363657373436f6e74726f6c5570677261646561626c653a2041646460448201527f7265737320646f6573206e6f7420737570706f727420455243373231456e756d60648201527032b930b136329034b73a32b93330b1b29760791b608482015260a4016102fe565b606680546001600160a01b0319166001600160a01b0384161790558015610311576000805461ff00191690555050565b61031182826105cf565b60606000610818836002610c7b565b610823906002610c63565b67ffffffffffffffff81111561084957634e487b7160e01b600052604160045260246000fd5b6040519080825280601f01601f191660200182016040528015610873576020820181803683370190505b509050600360fc1b8160008151811061089c57634e487b7160e01b600052603260045260246000fd5b60200101906001600160f81b031916908160001a905350600f60fb1b816001815181106108d957634e487b7160e01b600052603260045260246000fd5b60200101906001600160f81b031916908160001a90535060006108fd846002610c7b565b610908906001610c63565b90505b600181111561099c576f181899199a1a9b1b9c1cb0b131b232b360811b85600f166010811061094a57634e487b7160e01b600052603260045260246000fd5b1a60f81b82828151811061096e57634e487b7160e01b600052603260045260246000fd5b60200101906001600160f81b031916908160001a90535060049490941c9361099581610cca565b905061090b565b5083156109eb5760405162461bcd60e51b815260206004820181905260248201527f537472696e67733a20686578206c656e67746820696e73756666696369656e7460448201526064016102fe565b9392505050565b600054610100900460ff1680610a0b575060005460ff16155b610a275760405162461bcd60e51b81526004016102fe90610c15565b600054610100900460ff16158015610a49576000805461ffff19166101011790555b8015610a5b576000805461ff00191690555b50565b600060208284031215610a6f578081fd5b81516109eb81610d12565b60008060408385031215610a8c578081fd5b8235610a9781610d12565b946020939093013593505050565b600060208284031215610ab6578081fd5b815180151581146109eb578182fd5b600060208284031215610ad6578081fd5b5035919050565b60008060408385031215610aef578182fd5b823591506020830135610b0181610d12565b809150509250929050565b60008060408385031215610b1e578182fd5b50508035926020909101359150565b600060208284031215610b3e578081fd5b81356001600160e01b0319811681146109eb578182fd5b600060208284031215610b66578081fd5b5051919050565b7f4e4654416363657373436f6e74726f6c3a206163636f756e7420000000000000815260008351610ba581601a850160208801610c9a565b7001034b99036b4b9b9b4b733903937b6329607d1b601a918401918201528351610bd681602b840160208801610c9a565b01602b01949350505050565b6020815260008251806020840152610c01816040850160208701610c9a565b601f01601f19169190910160400192915050565b6020808252602e908201527f496e697469616c697a61626c653a20636f6e747261637420697320616c72656160408201526d191e481a5b9a5d1a585b1a5e995960921b606082015260800190565b60008219821115610c7657610c76610cfc565b500190565b6000816000190483118215151615610c9557610c95610cfc565b500290565b60005b83811015610cb5578181015183820152602001610c9d565b83811115610cc4576000848401525b50505050565b600081610cd957610cd9610cfc565b506000190190565b6000600019821415610cf557610cf5610cfc565b5060010190565b634e487b7160e01b600052601160045260246000fd5b6001600160a01b0381168114610a5b57600080fdfea264697066735822122032e2542c623f012f645349a1e013fa96dc4ceea4da70c6ffab37aeaa84eff83664736f6c63430008040033",
  "linkReferences": {},
  "deployedLinkReferences": {}
}