{
    "abi": [
        {
            "anonymous": false,
            "inputs": [
                {
                    "indexed": true,
                    "internalType": "bytes32",
                    "name": "channelId",
                    "type": "bytes32"
                },
                {
                    "indexed": false,
                    "internalType": "uint48",
                    "name": "newTurnNumRecord",
                    "type": "uint48"
                }
            ],
            "name": "ChallengeCleared",
            "type": "event"
        },
        {
            "anonymous": false,
            "inputs": [
                {
                    "indexed": true,
                    "internalType": "bytes32",
                    "name": "channelId",
                    "type": "bytes32"
                },
                {
                    "indexed": false,
                    "internalType": "uint48",
                    "name": "turnNumRecord",
                    "type": "uint48"
                },
                {
                    "indexed": false,
                    "internalType": "uint48",
                    "name": "finalizesAt",
                    "type": "uint48"
                },
                {
                    "indexed": false,
                    "internalType": "address",
                    "name": "challenger",
                    "type": "address"
                },
                {
                    "indexed": false,
                    "internalType": "bool",
                    "name": "isFinal",
                    "type": "bool"
                },
                {
                    "components": [
                        {
                            "internalType": "uint256",
                            "name": "chainId",
                            "type": "uint256"
                        },
                        {
                            "internalType": "address[]",
                            "name": "participants",
                            "type": "address[]"
                        },
                        {
                            "internalType": "uint48",
                            "name": "channelNonce",
                            "type": "uint48"
                        },
                        {
                            "internalType": "address",
                            "name": "appDefinition",
                            "type": "address"
                        },
                        {
                            "internalType": "uint48",
                            "name": "challengeDuration",
                            "type": "uint48"
                        }
                    ],
                    "indexed": false,
                    "internalType": "struct IForceMove.FixedPart",
                    "name": "fixedPart",
                    "type": "tuple"
                },
                {
                    "components": [
                        {
                            "internalType": "bytes",
                            "name": "outcome",
                            "type": "bytes"
                        },
                        {
                            "internalType": "bytes",
                            "name": "appData",
                            "type": "bytes"
                        }
                    ],
                    "indexed": false,
                    "internalType": "struct ForceMoveApp.VariablePart[]",
                    "name": "variableParts",
                    "type": "tuple[]"
                },
                {
                    "components": [
                        {
                            "internalType": "uint8",
                            "name": "v",
                            "type": "uint8"
                        },
                        {
                            "internalType": "bytes32",
                            "name": "r",
                            "type": "bytes32"
                        },
                        {
                            "internalType": "bytes32",
                            "name": "s",
                            "type": "bytes32"
                        }
                    ],
                    "indexed": false,
                    "internalType": "struct IForceMove.Signature[]",
                    "name": "sigs",
                    "type": "tuple[]"
                },
                {
                    "indexed": false,
                    "internalType": "uint8[]",
                    "name": "whoSignedWhat",
                    "type": "uint8[]"
                }
            ],
            "name": "ChallengeRegistered",
            "type": "event"
        },
        {
            "anonymous": false,
            "inputs": [
                {
                    "indexed": true,
                    "internalType": "bytes32",
                    "name": "channelId",
                    "type": "bytes32"
                }
            ],
            "name": "Concluded",
            "type": "event"
        },
        {
            "inputs": [
                {
                    "internalType": "uint8[]",
                    "name": "whoSignedWhat",
                    "type": "uint8[]"
                },
                {
                    "internalType": "uint48",
                    "name": "largestTurnNum",
                    "type": "uint48"
                },
                {
                    "internalType": "uint256",
                    "name": "nParticipants",
                    "type": "uint256"
                },
                {
                    "internalType": "uint256",
                    "name": "nStates",
                    "type": "uint256"
                }
            ],
            "name": "acceptableWhoSignedWhat",
            "outputs": [
                {
                    "internalType": "bool",
                    "name": "",
                    "type": "bool"
                }
            ],
            "stateMutability": "pure",
            "type": "function"
        },
        {
            "inputs": [
                {
                    "internalType": "bytes32",
                    "name": "",
                    "type": "bytes32"
                }
            ],
            "name": "channelStorageHashes",
            "outputs": [
                {
                    "internalType": "bytes32",
                    "name": "",
                    "type": "bytes32"
                }
            ],
            "stateMutability": "view",
            "type": "function"
        },
        {
            "inputs": [
                {
                    "components": [
                        {
                            "internalType": "uint256",
                            "name": "chainId",
                            "type": "uint256"
                        },
                        {
                            "internalType": "address[]",
                            "name": "participants",
                            "type": "address[]"
                        },
                        {
                            "internalType": "uint48",
                            "name": "channelNonce",
                            "type": "uint48"
                        },
                        {
                            "internalType": "address",
                            "name": "appDefinition",
                            "type": "address"
                        },
                        {
                            "internalType": "uint48",
                            "name": "challengeDuration",
                            "type": "uint48"
                        }
                    ],
                    "internalType": "struct IForceMove.FixedPart",
                    "name": "fixedPart",
                    "type": "tuple"
                },
                {
                    "internalType": "uint48",
                    "name": "largestTurnNum",
                    "type": "uint48"
                },
                {
                    "components": [
                        {
                            "internalType": "bytes",
                            "name": "outcome",
                            "type": "bytes"
                        },
                        {
                            "internalType": "bytes",
                            "name": "appData",
                            "type": "bytes"
                        }
                    ],
                    "internalType": "struct ForceMoveApp.VariablePart[]",
                    "name": "variableParts",
                    "type": "tuple[]"
                },
                {
                    "internalType": "uint8",
                    "name": "isFinalCount",
                    "type": "uint8"
                },
                {
                    "components": [
                        {
                            "internalType": "uint8",
                            "name": "v",
                            "type": "uint8"
                        },
                        {
                            "internalType": "bytes32",
                            "name": "r",
                            "type": "bytes32"
                        },
                        {
                            "internalType": "bytes32",
                            "name": "s",
                            "type": "bytes32"
                        }
                    ],
                    "internalType": "struct IForceMove.Signature[]",
                    "name": "sigs",
                    "type": "tuple[]"
                },
                {
                    "internalType": "uint8[]",
                    "name": "whoSignedWhat",
                    "type": "uint8[]"
                }
            ],
            "name": "checkpoint",
            "outputs": [],
            "stateMutability": "nonpayable",
            "type": "function"
        },
        {
            "inputs": [
                {
                    "internalType": "uint48",
                    "name": "largestTurnNum",
                    "type": "uint48"
                },
                {
                    "components": [
                        {
                            "internalType": "uint256",
                            "name": "chainId",
                            "type": "uint256"
                        },
                        {
                            "internalType": "address[]",
                            "name": "participants",
                            "type": "address[]"
                        },
                        {
                            "internalType": "uint48",
                            "name": "channelNonce",
                            "type": "uint48"
                        },
                        {
                            "internalType": "address",
                            "name": "appDefinition",
                            "type": "address"
                        },
                        {
                            "internalType": "uint48",
                            "name": "challengeDuration",
                            "type": "uint48"
                        }
                    ],
                    "internalType": "struct IForceMove.FixedPart",
                    "name": "fixedPart",
                    "type": "tuple"
                },
                {
                    "internalType": "bytes32",
                    "name": "appPartHash",
                    "type": "bytes32"
                },
                {
                    "internalType": "bytes32",
                    "name": "outcomeHash",
                    "type": "bytes32"
                },
                {
                    "internalType": "uint8",
                    "name": "numStates",
                    "type": "uint8"
                },
                {
                    "internalType": "uint8[]",
                    "name": "whoSignedWhat",
                    "type": "uint8[]"
                },
                {
                    "components": [
                        {
                            "internalType": "uint8",
                            "name": "v",
                            "type": "uint8"
                        },
                        {
                            "internalType": "bytes32",
                            "name": "r",
                            "type": "bytes32"
                        },
                        {
                            "internalType": "bytes32",
                            "name": "s",
                            "type": "bytes32"
                        }
                    ],
                    "internalType": "struct IForceMove.Signature[]",
                    "name": "sigs",
                    "type": "tuple[]"
                }
            ],
            "name": "conclude",
            "outputs": [],
            "stateMutability": "nonpayable",
            "type": "function"
        },
        {
            "inputs": [
                {
                    "internalType": "uint48",
                    "name": "largestTurnNum",
                    "type": "uint48"
                },
                {
                    "components": [
                        {
                            "internalType": "uint256",
                            "name": "chainId",
                            "type": "uint256"
                        },
                        {
                            "internalType": "address[]",
                            "name": "participants",
                            "type": "address[]"
                        },
                        {
                            "internalType": "uint48",
                            "name": "channelNonce",
                            "type": "uint48"
                        },
                        {
                            "internalType": "address",
                            "name": "appDefinition",
                            "type": "address"
                        },
                        {
                            "internalType": "uint48",
                            "name": "challengeDuration",
                            "type": "uint48"
                        }
                    ],
                    "internalType": "struct IForceMove.FixedPart",
                    "name": "fixedPart",
                    "type": "tuple"
                },
                {
                    "internalType": "bytes32",
                    "name": "appPartHash",
                    "type": "bytes32"
                },
                {
                    "internalType": "bytes",
                    "name": "outcomeBytes",
                    "type": "bytes"
                },
                {
                    "internalType": "uint8",
                    "name": "numStates",
                    "type": "uint8"
                },
                {
                    "internalType": "uint8[]",
                    "name": "whoSignedWhat",
                    "type": "uint8[]"
                },
                {
                    "components": [
                        {
                            "internalType": "uint8",
                            "name": "v",
                            "type": "uint8"
                        },
                        {
                            "internalType": "bytes32",
                            "name": "r",
                            "type": "bytes32"
                        },
                        {
                            "internalType": "bytes32",
                            "name": "s",
                            "type": "bytes32"
                        }
                    ],
                    "internalType": "struct IForceMove.Signature[]",
                    "name": "sigs",
                    "type": "tuple[]"
                }
            ],
            "name": "concludePushOutcomeAndTransferAll",
            "outputs": [],
            "stateMutability": "nonpayable",
            "type": "function"
        },
        {
            "inputs": [
                {
                    "components": [
                        {
                            "internalType": "uint256",
                            "name": "chainId",
                            "type": "uint256"
                        },
                        {
                            "internalType": "address[]",
                            "name": "participants",
                            "type": "address[]"
                        },
                        {
                            "internalType": "uint48",
                            "name": "channelNonce",
                            "type": "uint48"
                        },
                        {
                            "internalType": "address",
                            "name": "appDefinition",
                            "type": "address"
                        },
                        {
                            "internalType": "uint48",
                            "name": "challengeDuration",
                            "type": "uint48"
                        }
                    ],
                    "internalType": "struct IForceMove.FixedPart",
                    "name": "fixedPart",
                    "type": "tuple"
                },
                {
                    "internalType": "uint48",
                    "name": "largestTurnNum",
                    "type": "uint48"
                },
                {
                    "components": [
                        {
                            "internalType": "bytes",
                            "name": "outcome",
                            "type": "bytes"
                        },
                        {
                            "internalType": "bytes",
                            "name": "appData",
                            "type": "bytes"
                        }
                    ],
                    "internalType": "struct ForceMoveApp.VariablePart[]",
                    "name": "variableParts",
                    "type": "tuple[]"
                },
                {
                    "internalType": "uint8",
                    "name": "isFinalCount",
                    "type": "uint8"
                },
                {
                    "components": [
                        {
                            "internalType": "uint8",
                            "name": "v",
                            "type": "uint8"
                        },
                        {
                            "internalType": "bytes32",
                            "name": "r",
                            "type": "bytes32"
                        },
                        {
                            "internalType": "bytes32",
                            "name": "s",
                            "type": "bytes32"
                        }
                    ],
                    "internalType": "struct IForceMove.Signature[]",
                    "name": "sigs",
                    "type": "tuple[]"
                },
                {
                    "internalType": "uint8[]",
                    "name": "whoSignedWhat",
                    "type": "uint8[]"
                },
                {
                    "components": [
                        {
                            "internalType": "uint8",
                            "name": "v",
                            "type": "uint8"
                        },
                        {
                            "internalType": "bytes32",
                            "name": "r",
                            "type": "bytes32"
                        },
                        {
                            "internalType": "bytes32",
                            "name": "s",
                            "type": "bytes32"
                        }
                    ],
                    "internalType": "struct IForceMove.Signature",
                    "name": "challengerSig",
                    "type": "tuple"
                }
            ],
            "name": "forceMove",
            "outputs": [],
            "stateMutability": "nonpayable",
            "type": "function"
        },
        {
            "inputs": [
                {
                    "internalType": "bytes32",
                    "name": "channelId",
                    "type": "bytes32"
                }
            ],
            "name": "getChannelStorage",
            "outputs": [
                {
                    "internalType": "uint48",
                    "name": "turnNumRecord",
                    "type": "uint48"
                },
                {
                    "internalType": "uint48",
                    "name": "finalizesAt",
                    "type": "uint48"
                },
                {
                    "internalType": "uint160",
                    "name": "fingerprint",
                    "type": "uint160"
                }
            ],
            "stateMutability": "view",
            "type": "function"
        },
        {
            "inputs": [
                {
                    "internalType": "address",
                    "name": "suspect",
                    "type": "address"
                },
                {
                    "internalType": "address[]",
                    "name": "addresses",
                    "type": "address[]"
                }
            ],
            "name": "isAddressInArray",
            "outputs": [
                {
                    "internalType": "bool",
                    "name": "",
                    "type": "bool"
                }
            ],
            "stateMutability": "pure",
            "type": "function"
        },
        {
            "inputs": [
                {
                    "internalType": "bytes32",
                    "name": "channelId",
                    "type": "bytes32"
                },
                {
                    "internalType": "uint48",
                    "name": "turnNumRecord",
                    "type": "uint48"
                },
                {
                    "internalType": "uint48",
                    "name": "finalizesAt",
                    "type": "uint48"
                },
                {
                    "internalType": "bytes32",
                    "name": "stateHash",
                    "type": "bytes32"
                },
                {
                    "internalType": "address",
                    "name": "challengerAddress",
                    "type": "address"
                },
                {
                    "internalType": "bytes",
                    "name": "outcomeBytes",
                    "type": "bytes"
                }
            ],
            "name": "pushOutcome",
            "outputs": [],
            "stateMutability": "nonpayable",
            "type": "function"
        },
        {
            "inputs": [
                {
                    "internalType": "bytes32",
                    "name": "channelId",
                    "type": "bytes32"
                },
                {
                    "internalType": "uint48",
                    "name": "turnNumRecord",
                    "type": "uint48"
                },
                {
                    "internalType": "uint48",
                    "name": "finalizesAt",
                    "type": "uint48"
                },
                {
                    "internalType": "bytes32",
                    "name": "stateHash",
                    "type": "bytes32"
                },
                {
                    "internalType": "address",
                    "name": "challengerAddress",
                    "type": "address"
                },
                {
                    "internalType": "bytes",
                    "name": "outcomeBytes",
                    "type": "bytes"
                }
            ],
            "name": "pushOutcomeAndTransferAll",
            "outputs": [],
            "stateMutability": "nonpayable",
            "type": "function"
        },
        {
            "inputs": [
                {
                    "internalType": "bytes32",
                    "name": "_d",
                    "type": "bytes32"
                },
                {
                    "components": [
                        {
                            "internalType": "uint8",
                            "name": "v",
                            "type": "uint8"
                        },
                        {
                            "internalType": "bytes32",
                            "name": "r",
                            "type": "bytes32"
                        },
                        {
                            "internalType": "bytes32",
                            "name": "s",
                            "type": "bytes32"
                        }
                    ],
                    "internalType": "struct IForceMove.Signature",
                    "name": "sig",
                    "type": "tuple"
                }
            ],
            "name": "recoverSigner",
            "outputs": [
                {
                    "internalType": "address",
                    "name": "",
                    "type": "address"
                }
            ],
            "stateMutability": "pure",
            "type": "function"
        },
        {
            "inputs": [
                {
                    "internalType": "address",
                    "name": "challenger",
                    "type": "address"
                },
                {
                    "internalType": "bool[2]",
                    "name": "isFinalAB",
                    "type": "bool[2]"
                },
                {
                    "components": [
                        {
                            "internalType": "uint256",
                            "name": "chainId",
                            "type": "uint256"
                        },
                        {
                            "internalType": "address[]",
                            "name": "participants",
                            "type": "address[]"
                        },
                        {
                            "internalType": "uint48",
                            "name": "channelNonce",
                            "type": "uint48"
                        },
                        {
                            "internalType": "address",
                            "name": "appDefinition",
                            "type": "address"
                        },
                        {
                            "internalType": "uint48",
                            "name": "challengeDuration",
                            "type": "uint48"
                        }
                    ],
                    "internalType": "struct IForceMove.FixedPart",
                    "name": "fixedPart",
                    "type": "tuple"
                },
                {
                    "components": [
                        {
                            "internalType": "bytes",
                            "name": "outcome",
                            "type": "bytes"
                        },
                        {
                            "internalType": "bytes",
                            "name": "appData",
                            "type": "bytes"
                        }
                    ],
                    "internalType": "struct ForceMoveApp.VariablePart[2]",
                    "name": "variablePartAB",
                    "type": "tuple[2]"
                },
                {
                    "components": [
                        {
                            "internalType": "uint8",
                            "name": "v",
                            "type": "uint8"
                        },
                        {
                            "internalType": "bytes32",
                            "name": "r",
                            "type": "bytes32"
                        },
                        {
                            "internalType": "bytes32",
                            "name": "s",
                            "type": "bytes32"
                        }
                    ],
                    "internalType": "struct IForceMove.Signature",
                    "name": "sig",
                    "type": "tuple"
                }
            ],
            "name": "respond",
            "outputs": [],
            "stateMutability": "nonpayable",
            "type": "function"
        },
        {
            "inputs": [
                {
                    "internalType": "bytes32",
                    "name": "channelId",
                    "type": "bytes32"
                },
                {
                    "components": [
                        {
                            "internalType": "uint48",
                            "name": "turnNumRecord",
                            "type": "uint48"
                        },
                        {
                            "internalType": "uint48",
                            "name": "finalizesAt",
                            "type": "uint48"
                        },
                        {
                            "internalType": "bytes32",
                            "name": "stateHash",
                            "type": "bytes32"
                        },
                        {
                            "internalType": "address",
                            "name": "challengerAddress",
                            "type": "address"
                        },
                        {
                            "internalType": "bytes32",
                            "name": "outcomeHash",
                            "type": "bytes32"
                        }
                    ],
                    "internalType": "struct IForceMove.ChannelData",
                    "name": "channelData",
                    "type": "tuple"
                }
            ],
            "name": "setChannelStorage",
            "outputs": [],
            "stateMutability": "nonpayable",
            "type": "function"
        },
        {
            "inputs": [
                {
                    "internalType": "bytes32",
                    "name": "channelId",
                    "type": "bytes32"
                },
                {
                    "internalType": "bytes32",
                    "name": "h",
                    "type": "bytes32"
                }
            ],
            "name": "setChannelStorageHash",
            "outputs": [],
            "stateMutability": "nonpayable",
            "type": "function"
        },
        {
            "inputs": [
                {
                    "internalType": "uint48",
                    "name": "largestTurnNum",
                    "type": "uint48"
                },
                {
                    "internalType": "address[]",
                    "name": "participants",
                    "type": "address[]"
                },
                {
                    "internalType": "bytes32[]",
                    "name": "stateHashes",
                    "type": "bytes32[]"
                },
                {
                    "components": [
                        {
                            "internalType": "uint8",
                            "name": "v",
                            "type": "uint8"
                        },
                        {
                            "internalType": "bytes32",
                            "name": "r",
                            "type": "bytes32"
                        },
                        {
                            "internalType": "bytes32",
                            "name": "s",
                            "type": "bytes32"
                        }
                    ],
                    "internalType": "struct IForceMove.Signature[]",
                    "name": "sigs",
                    "type": "tuple[]"
                },
                {
                    "internalType": "uint8[]",
                    "name": "whoSignedWhat",
                    "type": "uint8[]"
                }
            ],
            "name": "validSignatures",
            "outputs": [
                {
                    "internalType": "bool",
                    "name": "",
                    "type": "bool"
                }
            ],
            "stateMutability": "pure",
            "type": "function"
        },
        {
            "inputs": [
                {
                    "internalType": "uint256",
                    "name": "nParticipants",
                    "type": "uint256"
                },
                {
                    "internalType": "bool[2]",
                    "name": "isFinalAB",
                    "type": "bool[2]"
                },
                {
                    "components": [
                        {
                            "internalType": "bytes",
                            "name": "outcome",
                            "type": "bytes"
                        },
                        {
                            "internalType": "bytes",
                            "name": "appData",
                            "type": "bytes"
                        }
                    ],
                    "internalType": "struct ForceMoveApp.VariablePart[2]",
                    "name": "ab",
                    "type": "tuple[2]"
                },
                {
                    "internalType": "uint48",
                    "name": "turnNumB",
                    "type": "uint48"
                },
                {
                    "internalType": "address",
                    "name": "appDefinition",
                    "type": "address"
                }
            ],
            "name": "validTransition",
            "outputs": [
                {
                    "internalType": "bool",
                    "name": "",
                    "type": "bool"
                }
            ],
            "stateMutability": "pure",
            "type": "function"
        }
    ],
    "evm": {
        "bytecode": {
            "linkReferences": {},
            "object": "608060405234801561001057600080fd5b506146b7806100206000396000f3fe608060405234801561001057600080fd5b50600436106101005760003560e01c806378b9e5cb11610097578063d2f8a1be11610066578063d2f8a1be146102b9578063eb026514146102e9578063fe9e5db914610305578063ff8ceb321461033757610100565b806378b9e5cb146102355780637ff6a98214610251578063829d1a2d1461026d578063958c960a1461028957610100565b80635a04d456116100d35780635a04d4561461019d5780636775b173146101b95780636f65e87d146101e957806374ce052a1461021957610100565b80630149b7621461010557806315029f201461012157806329b40cab14610151578063448a4ab314610181575b600080fd5b61011f600480360361011a9190810190612aff565b610353565b005b61013b600480360361013691908101906129e1565b610396565b6040516101489190613cad565b60405180910390f35b61016b6004803603610166919081019061289c565b6103aa565b6040516101789190613cc8565b60405180910390f35b61019b600480360361019691908101906129a5565b6103c2565b005b6101b760048036036101b29190810190612a1d565b6103e5565b005b6101d360048036036101ce9190810190612ce7565b610587565b6040516101e09190613cc8565b60405180910390f35b61020360048036036101fe9190810190612940565b6105a1565b6040516102109190613ce3565b60405180910390f35b610233600480360361022e9190810190612a1d565b6105b9565b005b61024f600480360361024a9190810190612be8565b610656565b005b61026b60048036036102669190810190612e4d565b610810565b005b61028760048036036102829190810190612969565b6109fe565b005b6102a3600480360361029e919081019061275f565b610a19565b6040516102b09190613cc8565b60405180910390f35b6102d360048036036102ce9190810190612d76565b610a2d565b6040516102e09190613cc8565b60405180910390f35b61030360048036036102fe9190810190612f33565b610a47565b005b61031f600480360361031a9190810190612940565b610c6b565b60405161032e939291906141c8565b60405180910390f35b610351600480360361034c91908101906127b3565b610c8c565b005b600061035e87610e93565b905061036981610ed3565b6103738187610f37565b610382868686848b8888610f9d565b5061038d8187611026565b50505050505050565b60006103a283836110d5565b905092915050565b60006103b8858585856111a2565b9050949350505050565b6103cb81611259565b600080848152602001908152602001600020819055505050565b6103ee866112ee565b6000816040516020016104019190613dec565b60405160208183030381529060405280519060200120905061046f6040518060a001604052808865ffffffffffff1681526020018765ffffffffffff1681526020018681526020018573ffffffffffffffffffffffffffffffffffffffff1681526020018381525088611351565b606082806020019051610485919081019061285b565b905060008090505b815181101561057c578181815181106104a257fe5b60200260200101516000015173ffffffffffffffffffffffffffffffffffffffff1663a3c863a38a8484815181106104d657fe5b6020026020010151602001516040516104ef9190613c6e565b60405180910390206040518363ffffffff1660e01b8152600401610514929190613cfe565b602060405180830381600087803b15801561052e57600080fd5b505af1158015610542573d6000803e3d6000fd5b505050506040513d601f19601f820116820180604052506105669190810190612917565b61056f57600080fd5b808060010191505061048d565b505050505050505050565b600061059686868686866113b0565b905095945050505050565b60006020528060005260406000206000915090505481565b6105c2866112ee565b6000816040516020016105d59190613dec565b6040516020818303038152906040528051906020012090506106436040518060a001604052808865ffffffffffff1681526020018765ffffffffffff1681526020018681526020018573ffffffffffffffffffffffffffffffffffffffff1681526020018381525088611351565b61064d878361167d565b50505050505050565b600061066188610e93565b90506000600281111561067057fe5b6106798261179d565b600281111561068457fe5b14156106995761069481886117ec565b6106da565b600160028111156106a657fe5b6106af8261179d565b60028111156106ba57fe5b14156106cf576106ca8188610f37565b6106d9565b6106d881610ed3565b5b5b60006106eb888888858d8a8a610f9d565b905060006106fe828b6020015186611853565b9050827f1f9f029de8ab3f81b5381a9bc066b421d0f215db28cc8160ec346bc6f0463c6e8a8c6080015142018460008c60ff16118f8e8d8d60405161074a98979695949392919061412e565b60405180910390a26107ee6040518060a001604052808b65ffffffffffff1681526020018c60800151420165ffffffffffff1681526020018481526020018373ffffffffffffffffffffffffffffffffffffffff1681526020018a60018c5103815181106107b457fe5b6020026020010151600001516040516020016107d09190613dca565b60405160208183030381529060405280519060200120815250611259565b6000808581526020019081526020016000208190555050505050505050505050565b600061081b87610e93565b905061082681610ed3565b60608460ff1660405190808252806020026020018201604052801561085a5781602001602082028038833980820191505090505b50905060008090505b8560ff168165ffffffffffff161015610905576040518060a001604052808760ff16600184018d010365ffffffffffff168152602001600115158152602001848152602001898152602001888152506040516020016108c29190614029565b60405160208183030381529060405280519060200120828265ffffffffffff16815181106108ec57fe5b6020026020010181815250508080600101915050610863565b506109178989602001518386886118d7565b610956576040517f08c379a000000000000000000000000000000000000000000000000000000000815260040161094d90613f8e565b60405180910390fd5b6109b06040518060a00160405280600065ffffffffffff1681526020014265ffffffffffff1681526020016000801b8152602001600073ffffffffffffffffffffffffffffffffffffffff16815260200188815250611259565b60008084815260200190815260200160002081905550817f3e659e9176c25a527f4575e010a270b3e1f8e9d1e94f5e49d4a91dd2c59e8cf860405160405180910390a2505050505050505050565b80600080848152602001908152602001600020819055505050565b6000610a2583836119f9565b905092915050565b6000610a3c86868686866118d7565b905095945050505050565b6000610a5287610e93565b9050610a5d81610ed3565b60608460ff16604051908082528060200260200182016040528015610a915781602001602082028038833980820191505090505b509050600086604051602001610aa79190613dec565b60405160208183030381529060405280519060200120905060008090505b8660ff168165ffffffffffff161015610b67576040518060a001604052808860ff16600184018e010365ffffffffffff1681526020016001151581526020018581526020018a815260200183815250604051602001610b249190614029565b60405160208183030381529060405280519060200120838265ffffffffffff1681518110610b4e57fe5b6020026020010181815250508080600101915050610ac5565b50610b798a8a602001518487896118d7565b610bb8576040517f08c379a0000000000000000000000000000000000000000000000000000000008152600401610baf90613ece565b60405180910390fd5b610c126040518060a00160405280600065ffffffffffff1681526020014265ffffffffffff1681526020016000801b8152602001600073ffffffffffffffffffffffffffffffffffffffff16815260200183815250611259565b60008085815260200190815260200160002081905550827f3e659e9176c25a527f4575e010a270b3e1f8e9d1e94f5e49d4a91dd2c59e8cf860405160405180910390a2610c5f838861167d565b50505050505050505050565b6000806000610c7984611a74565b8093508194508295505050509193909250565b6000610c9784610e93565b9050600080610ca583611a74565b50915091506000610cca86600060028110610cbc57fe5b602002015160000151611acb565b90506000610cec87600160028110610cde57fe5b602002015160000151611acb565b90506000610d24858b600060028110610d0157fe5b6020020151888c8c600060028110610d1557fe5b60200201516020015188611afb565b90506000610d5f600187018c600160028110610d3c57fe5b6020020151898d8d600160028110610d5057fe5b60200201516020015188611afb565b9050610db76040518060a001604052808865ffffffffffff1681526020018765ffffffffffff1681526020018481526020018e73ffffffffffffffffffffffffffffffffffffffff1681526020018681525088611b92565b89602001518a60200151516001880165ffffffffffff1681610dd557fe5b0681518110610de057fe5b602002602001015173ffffffffffffffffffffffffffffffffffffffff16610e08828a6110d5565b73ffffffffffffffffffffffffffffffffffffffff1614610e5e576040517f08c379a0000000000000000000000000000000000000000000000000000000008152600401610e5590613fee565b60405180910390fd5b610e778a60200151518c8b60018a018e606001516113b0565b50610e858760018801611026565b505050505050505050505050565b6000816000015182602001518360400151604051602001610eb693929190614097565b604051602081830303815290604052805190602001209050919050565b600280811115610edf57fe5b610ee88261179d565b6002811115610ef357fe5b1415610f34576040517f08c379a0000000000000000000000000000000000000000000000000000000008152600401610f2b90613e4e565b60405180910390fd5b50565b6000610f4283611a74565b505090508065ffffffffffff168265ffffffffffff1611610f98576040517f08c379a0000000000000000000000000000000000000000000000000000000008152600401610f8f90613e2e565b60405180910390fd5b505050565b60006060610fae8989898989611ba9565b9050610fc18986602001518387876118d7565b611000576040517f08c379a0000000000000000000000000000000000000000000000000000000008152600401610ff790613ece565b60405180910390fd5b8060018251038151811061101057fe5b6020026020010151915050979650505050505050565b6110836040518060a001604052808365ffffffffffff168152602001600065ffffffffffff1681526020016000801b8152602001600073ffffffffffffffffffffffffffffffffffffffff1681526020016000801b815250611259565b60008084815260200190815260200160002081905550817f07da0a0674fb921e484018c8b81d80e292745e5d8ed134b580c8b9c631c5e9e0826040516110c991906140d5565b60405180910390a25050565b6000806040518060400160405280601c81526020017f19457468657265756d205369676e6564204d6573736167653a0a33320000000081525084604051602001611120929190613c85565b6040516020818303038152906040528051906020012090506000600182856000015186602001518760400151604051600081526020016040526040516111699493929190613d85565b6020604051602081039080840390855afa15801561118b573d6000803e3d6000fd5b505050602060405103519050809250505092915050565b6000828551146111e7576040517f08c379a00000000000000000000000000000000000000000000000000000000081526004016111de90613f0e565b60405180910390fd5b60008090505b8381101561124b57600084828765ffffffffffff168701038161120c57fe5b069050600184038188848151811061122057fe5b602002602001015160ff1601101561123d57600092505050611251565b5080806001019150506111ed565b50600190505b949350505050565b600080600061010090506030810390508061ffff16846000015165ffffffffffff16901b91506030810390508061ffff16846020015165ffffffffffff16901b82179150836040516020016112ae919061400e565b6040516020818303038152906040528051906020012060001c73ffffffffffffffffffffffffffffffffffffffff16821791508160001b92505050919050565b6002808111156112fa57fe5b6113038261179d565b600281111561130e57fe5b1461134e576040517f08c379a000000000000000000000000000000000000000000000000000000000815260040161134590613fce565b60405180910390fd5b50565b61136d8260008084815260200190815260200160002054611d79565b6113ac576040517f08c379a00000000000000000000000000000000000000000000000000000000081526004016113a390613f6e565b60405180910390fd5b5050565b6000846001600281106113bf57fe5b602002015115611441576113fd846001600281106113d957fe5b602002015160000151856000600281106113ef57fe5b602002015160000151611d8e565b61143c576040517f08c379a000000000000000000000000000000000000000000000000000000000815260040161143390613f4e565b60405180910390fd5b611670565b8460006002811061144e57fe5b602002015115611493576040517f08c379a000000000000000000000000000000000000000000000000000000000815260040161148a90613f2e565b60405180910390fd5b856002028365ffffffffffff1610156115b4576114da846001600281106114b657fe5b602002015160000151856000600281106114cc57fe5b602002015160000151611d8e565b611519576040517f08c379a000000000000000000000000000000000000000000000000000000000815260040161151090613eee565b60405180910390fd5b8360006002811061152657fe5b60200201516020015160405161153c9190613c6e565b60405180910390208460016002811061155157fe5b6020020151602001516040516115679190613c6e565b6040518091039020146115af576040517f08c379a00000000000000000000000000000000000000000000000000000000081526004016115a690613e0e565b60405180910390fd5b61166f565b8173ffffffffffffffffffffffffffffffffffffffff1663fd7a2f65856000600281106115dd57fe5b6020020151866001600281106115ef57fe5b6020020151868a6040518563ffffffff1660e01b81526004016116159493929190614044565b60206040518083038186803b15801561162d57600080fd5b505afa158015611641573d6000803e3d6000fd5b505050506040513d601f19601f820116820180604052506116659190810190612917565b61166e57600080fd5b5b5b6001905095945050505050565b606081806020019051611693919081019061285b565b905060008090505b8151811015611797576116ac611e0d565b8282815181106116b857fe5b6020026020010151602001518060200190516116d79190810190612abe565b9050600060018111156116e657fe5b60ff16816000015160ff1614156117845782828151811061170357fe5b60200260200101516000015173ffffffffffffffffffffffffffffffffffffffff1663022cbbe88683602001516040518363ffffffff1660e01b815260040161174d929190613d27565b600060405180830381600087803b15801561176757600080fd5b505af115801561177b573d6000803e3d6000fd5b50505050611789565b600080fd5b50808060010191505061169b565b50505050565b6000806117a983611a74565b5091505060008165ffffffffffff1614156117c85760009150506117e7565b428165ffffffffffff16116117e15760029150506117e7565b60019150505b919050565b60006117f783611a74565b505090508065ffffffffffff168265ffffffffffff16101561184e576040517f08c379a000000000000000000000000000000000000000000000000000000000815260040161184590613e6e565b60405180910390fd5b505050565b6000611885846040516020016118699190613d57565b60405160208183030381529060405280519060200120836110d5565b905061189181846119f9565b6118d0576040517f08c379a00000000000000000000000000000000000000000000000000000000081526004016118c790613eae565b60405180910390fd5b9392505050565b600080855190506000855190506118f0848984846111a2565b61192f576040517f08c379a000000000000000000000000000000000000000000000000000000000815260040161192690613fae565b60405180910390fd5b60008090505b828110156119e85760006119858887848151811061194f57fe5b602002602001015160ff168151811061196457fe5b602002602001015188848151811061197857fe5b60200260200101516110d5565b905088828151811061199357fe5b602002602001015173ffffffffffffffffffffffffffffffffffffffff168173ffffffffffffffffffffffffffffffffffffffff16146119da5760009450505050506119f0565b508080600101915050611935565b506001925050505b95945050505050565b600080600090505b8251811015611a6857828181518110611a1657fe5b602002602001015173ffffffffffffffffffffffffffffffffffffffff168473ffffffffffffffffffffffffffffffffffffffff161415611a5b576001915050611a6e565b8080600101915050611a01565b50600090505b92915050565b600080600080600080868152602001908152602001600020549050600061010090506030810390508061ffff168260001c901c94506030810390508061ffff168260001c901c93508160001c925050509193909250565b600081604051602001611ade9190613dec565b604051602081830303815290604052805190602001209050919050565b60006040518060a001604052808865ffffffffffff16815260200187151581526020018681526020018560800151866060015186604051602001611b41939291906140f0565b60405160208183030381529060405280519060200120815260200183815250604051602001611b709190614029565b6040516020818303038152906040528051906020012090509695505050505050565b611b9c8282611351565b611ba581611da9565b5050565b6060808551604051908082528060200260200182016040528015611bdc5781602001602082028038833980820191505090505b509050600060018660ff168903019050600080600090505b88518165ffffffffffff161015611d69578060018a518c0301019150611c77828465ffffffffffff168465ffffffffffff16101589898d8665ffffffffffff1681518110611c3e57fe5b602002602001015160200151611c728f8865ffffffffffff1681518110611c6157fe5b602002602001015160000151611acb565b611afb565b848265ffffffffffff1681518110611c8b57fe5b6020026020010181815250508965ffffffffffff168265ffffffffffff161015611d5c57611d5a86602001515160405180604001604052808665ffffffffffff168665ffffffffffff1610151515151581526020018665ffffffffffff166001870165ffffffffffff1610151515151581525060405180604001604052808d8665ffffffffffff1681518110611d1d57fe5b602002602001015181526020018d6001870165ffffffffffff1681518110611d4157fe5b6020026020010151815250600186018a606001516113b0565b505b8080600101915050611bf4565b5082935050505095945050505050565b600081611d8584611259565b14905092915050565b60008180519060200120838051906020012014905092915050565b60016002811115611db657fe5b611dbf8261179d565b6002811115611dca57fe5b14611e0a576040517f08c379a0000000000000000000000000000000000000000000000000000000008152600401611e0190613e8e565b60405180910390fd5b50565b6040518060400160405280600060ff168152602001606081525090565b600081359050611e39816145f7565b92915050565b600081519050611e4e816145f7565b92915050565b600082601f830112611e6557600080fd5b8135611e78611e738261422c565b6141ff565b91508181835260208401935060208101905083856020840282011115611e9d57600080fd5b60005b83811015611ecd5781611eb38882611e2a565b845260208401935060208301925050600181019050611ea0565b5050505092915050565b600082601f830112611ee857600080fd5b8135611efb611ef682614254565b6141ff565b91508181835260208401935060208101905083856020840282011115611f2057600080fd5b60005b83811015611f505781611f368882611e2a565b845260208401935060208301925050600181019050611f23565b5050505092915050565b600082601f830112611f6b57600080fd5b6002611f7e611f798261427c565b6141ff565b91508183856020840282011115611f9457600080fd5b60005b83811015611fc45781611faa88826122a4565b845260208401935060208301925050600181019050611f97565b5050505092915050565b600082601f830112611fdf57600080fd5b8135611ff2611fed8261429e565b6141ff565b9150818183526020840193506020810190508385602084028201111561201757600080fd5b60005b83811015612047578161202d88826122ce565b84526020840193506020830192505060018101905061201a565b5050505092915050565b600082601f83011261206257600080fd5b8151612075612070826142c6565b6141ff565b9150818183526020840193506020810190508360005b838110156120bb57815186016120a1888261256b565b84526020840193506020830192505060018101905061208b565b5050505092915050565b600082601f8301126120d657600080fd5b81356120e96120e4826142ee565b6141ff565b9150818183526020840193506020810190508385606084028201111561210e57600080fd5b60005b8381101561213e578161212488826125cf565b845260208401935060608301925050600181019050612111565b5050505092915050565b600082601f83011261215957600080fd5b600261216c61216782614316565b6141ff565b9150818360005b838110156121a35781358601612189888261268f565b845260208401935060208301925050600181019050612173565b5050505092915050565b600082601f8301126121be57600080fd5b81356121d16121cc82614338565b6141ff565b9150818183526020840193506020810190508360005b8381101561221757813586016121fd888261268f565b8452602084019350602083019250506001810190506121e7565b5050505092915050565b600082601f83011261223257600080fd5b813561224561224082614360565b6141ff565b9150818183526020840193506020810190508385602084028201111561226a57600080fd5b60005b8381101561229a57816122808882612735565b84526020840193506020830192505060018101905061226d565b5050505092915050565b6000813590506122b38161460e565b92915050565b6000815190506122c88161460e565b92915050565b6000813590506122dd81614625565b92915050565b600082601f8301126122f457600080fd5b813561230761230282614388565b6141ff565b9150808252602083016020830185838301111561232357600080fd5b61232e83828461459a565b50505092915050565b600082601f83011261234857600080fd5b815161235b61235682614388565b6141ff565b9150808252602083016020830185838301111561237757600080fd5b6123828382846145a9565b50505092915050565b600082601f83011261239c57600080fd5b81356123af6123aa826143b4565b6141ff565b915080825260208301602083018583830111156123cb57600080fd5b6123d683828461459a565b50505092915050565b6000604082840312156123f157600080fd5b6123fb60406141ff565b9050600061240b8482850161274a565b600083015250602082015167ffffffffffffffff81111561242b57600080fd5b61243784828501612337565b60208301525092915050565b600060a0828403121561245557600080fd5b61245f60a06141ff565b9050600061246f84828501612720565b600083015250602061248384828501612720565b6020830152506040612497848285016122ce565b60408301525060606124ab84828501611e2a565b60608301525060806124bf848285016122ce565b60808301525092915050565b600060a082840312156124dd57600080fd5b6124e760a06141ff565b905060006124f78482850161270b565b600083015250602082013567ffffffffffffffff81111561251757600080fd5b61252384828501611e54565b602083015250604061253784828501612720565b604083015250606061254b84828501611e2a565b606083015250608061255f84828501612720565b60808301525092915050565b60006040828403121561257d57600080fd5b61258760406141ff565b9050600061259784828501611e3f565b600083015250602082015167ffffffffffffffff8111156125b757600080fd5b6125c384828501612337565b60208301525092915050565b6000606082840312156125e157600080fd5b6125eb60606141ff565b905060006125fb84828501612735565b600083015250602061260f848285016122ce565b6020830152506040612623848285016122ce565b60408301525092915050565b60006060828403121561264157600080fd5b61264b60606141ff565b9050600061265b84828501612735565b600083015250602061266f848285016122ce565b6020830152506040612683848285016122ce565b60408301525092915050565b6000604082840312156126a157600080fd5b6126ab60406141ff565b9050600082013567ffffffffffffffff8111156126c757600080fd5b6126d3848285016122e3565b600083015250602082013567ffffffffffffffff8111156126f357600080fd5b6126ff848285016122e3565b60208301525092915050565b60008135905061271a8161463c565b92915050565b60008135905061272f81614653565b92915050565b6000813590506127448161466a565b92915050565b6000815190506127598161466a565b92915050565b6000806040838503121561277257600080fd5b600061278085828601611e2a565b925050602083013567ffffffffffffffff81111561279d57600080fd5b6127a985828601611ed7565b9150509250929050565b600080600080600061010086880312156127cc57600080fd5b60006127da88828901611e2a565b95505060206127eb88828901611f5a565b945050606086013567ffffffffffffffff81111561280857600080fd5b612814888289016124cb565b935050608086013567ffffffffffffffff81111561283157600080fd5b61283d88828901612148565b92505060a061284e8882890161262f565b9150509295509295909350565b60006020828403121561286d57600080fd5b600082015167ffffffffffffffff81111561288757600080fd5b61289384828501612051565b91505092915050565b600080600080608085870312156128b257600080fd5b600085013567ffffffffffffffff8111156128cc57600080fd5b6128d887828801612221565b94505060206128e987828801612720565b93505060406128fa8782880161270b565b925050606061290b8782880161270b565b91505092959194509250565b60006020828403121561292957600080fd5b6000612937848285016122b9565b91505092915050565b60006020828403121561295257600080fd5b6000612960848285016122ce565b91505092915050565b6000806040838503121561297c57600080fd5b600061298a858286016122ce565b925050602061299b858286016122ce565b9150509250929050565b60008060c083850312156129b857600080fd5b60006129c6858286016122ce565b92505060206129d785828601612443565b9150509250929050565b600080608083850312156129f457600080fd5b6000612a02858286016122ce565b9250506020612a138582860161262f565b9150509250929050565b60008060008060008060c08789031215612a3657600080fd5b6000612a4489828a016122ce565b9650506020612a5589828a01612720565b9550506040612a6689828a01612720565b9450506060612a7789828a016122ce565b9350506080612a8889828a01611e2a565b92505060a087013567ffffffffffffffff811115612aa557600080fd5b612ab189828a0161238b565b9150509295509295509295565b600060208284031215612ad057600080fd5b600082015167ffffffffffffffff811115612aea57600080fd5b612af6848285016123df565b91505092915050565b60008060008060008060c08789031215612b1857600080fd5b600087013567ffffffffffffffff811115612b3257600080fd5b612b3e89828a016124cb565b9650506020612b4f89828a01612720565b955050604087013567ffffffffffffffff811115612b6c57600080fd5b612b7889828a016121ad565b9450506060612b8989828a01612735565b935050608087013567ffffffffffffffff811115612ba657600080fd5b612bb289828a016120c5565b92505060a087013567ffffffffffffffff811115612bcf57600080fd5b612bdb89828a01612221565b9150509295509295509295565b6000806000806000806000610120888a031215612c0457600080fd5b600088013567ffffffffffffffff811115612c1e57600080fd5b612c2a8a828b016124cb565b9750506020612c3b8a828b01612720565b965050604088013567ffffffffffffffff811115612c5857600080fd5b612c648a828b016121ad565b9550506060612c758a828b01612735565b945050608088013567ffffffffffffffff811115612c9257600080fd5b612c9e8a828b016120c5565b93505060a088013567ffffffffffffffff811115612cbb57600080fd5b612cc78a828b01612221565b92505060c0612cd88a828b0161262f565b91505092959891949750929550565b600080600080600060c08688031215612cff57600080fd5b6000612d0d8882890161270b565b9550506020612d1e88828901611f5a565b945050606086013567ffffffffffffffff811115612d3b57600080fd5b612d4788828901612148565b9350506080612d5888828901612720565b92505060a0612d6988828901611e2a565b9150509295509295909350565b600080600080600060a08688031215612d8e57600080fd5b6000612d9c88828901612720565b955050602086013567ffffffffffffffff811115612db957600080fd5b612dc588828901611ed7565b945050604086013567ffffffffffffffff811115612de257600080fd5b612dee88828901611fce565b935050606086013567ffffffffffffffff811115612e0b57600080fd5b612e17888289016120c5565b925050608086013567ffffffffffffffff811115612e3457600080fd5b612e4088828901612221565b9150509295509295909350565b600080600080600080600060e0888a031215612e6857600080fd5b6000612e768a828b01612720565b975050602088013567ffffffffffffffff811115612e9357600080fd5b612e9f8a828b016124cb565b9650506040612eb08a828b016122ce565b9550506060612ec18a828b016122ce565b9450506080612ed28a828b01612735565b93505060a088013567ffffffffffffffff811115612eef57600080fd5b612efb8a828b01612221565b92505060c088013567ffffffffffffffff811115612f1857600080fd5b612f248a828b016120c5565b91505092959891949750929550565b600080600080600080600060e0888a031215612f4e57600080fd5b6000612f5c8a828b01612720565b975050602088013567ffffffffffffffff811115612f7957600080fd5b612f858a828b016124cb565b9650506040612f968a828b016122ce565b955050606088013567ffffffffffffffff811115612fb357600080fd5b612fbf8a828b0161238b565b9450506080612fd08a828b01612735565b93505060a088013567ffffffffffffffff811115612fed57600080fd5b612ff98a828b01612221565b92505060c088013567ffffffffffffffff81111561301657600080fd5b6130228a828b016120c5565b91505092959891949750929550565b600061303d838361308d565b60208301905092915050565b60006130558383613ad3565b60608301905092915050565b600061306d8383613b7d565b905092915050565b60006130818383613c50565b60208301905092915050565b61309681614529565b82525050565b6130a581614529565b82525050565b60006130b682614420565b6130c08185614496565b93506130cb836143e0565b8060005b838110156130fc5781516130e38882613031565b97506130ee83614462565b9250506001810190506130cf565b5085935050505092915050565b600061311482614420565b61311e81856144a7565b9350613129836143e0565b8060005b8381101561315a5781516131418882613031565b975061314c83614462565b92505060018101905061312d565b5085935050505092915050565b60006131728261442b565b61317c81856144b8565b9350613187836143f0565b8060005b838110156131b857815161319f8882613049565b97506131aa8361446f565b92505060018101905061318b565b5085935050505092915050565b60006131d082614436565b6131da81856144c9565b9350836020820285016131ec85614400565b8060005b8581101561322857848403895281516132098582613061565b94506132148361447c565b925060208a019950506001810190506131f0565b50829750879550505050505092915050565b600061324582614441565b61324f81856144da565b935061325a83614410565b8060005b8381101561328b5781516132728882613075565b975061327d83614489565b92505060018101905061325e565b5085935050505092915050565b6132a18161453b565b82525050565b6132b08161453b565b82525050565b6132bf81614547565b82525050565b6132ce81614547565b82525050565b6132e56132e082614547565b6145dc565b82525050565b60006132f682614457565b61330081856144fc565b93506133108185602086016145a9565b613319816145e6565b840191505092915050565b600061332f8261444c565b61333981856144eb565b93506133498185602086016145a9565b613352816145e6565b840191505092915050565b60006133688261444c565b61337281856144fc565b93506133828185602086016145a9565b61338b816145e6565b840191505092915050565b60006133a18261444c565b6133ab818561450d565b93506133bb8185602086016145a9565b80840191505092915050565b60006133d4604483614518565b91507f496e76616c69645472616e736974696f6e4572726f723a2043616e6e6f74206360008301527f68616e676520746865206170704461746120647572696e67207365747570207060208301527f68617365000000000000000000000000000000000000000000000000000000006040830152606082019050919050565b6000613460601c83614518565b91507f7475726e4e756d5265636f7264206e6f7420696e637265617365642e000000006000830152602082019050919050565b60006134a0601283614518565b91507f4368616e6e656c2066696e616c697a65642e00000000000000000000000000006000830152602082019050919050565b60006134e0601883614518565b91507f7475726e4e756d5265636f7264206465637265617365642e00000000000000006000830152602082019050919050565b6000613520601583614518565b91507f4e6f206f6e676f696e67206368616c6c656e67652e00000000000000000000006000830152602082019050919050565b6000613560601f83614518565b91507f4368616c6c656e676572206973206e6f742061207061727469636970616e74006000830152602082019050919050565b60006135a0601283614518565b91507f496e76616c6964207369676e61747572657300000000000000000000000000006000830152602082019050919050565b60006135e0604c83614518565b91507f496e76616c69645472616e736974696f6e4572726f723a2043616e6e6f74206360008301527f68616e6765207468652064656661756c74206f7574636f6d6520647572696e6760208301527f20736574757020706861736500000000000000000000000000000000000000006040830152606082019050919050565b600061366c604783614518565b91507f5f76616c69645369676e6174757265733a2077686f5369676e6564576861742060008301527f6d757374206265207468652073616d65206c656e67746820617320706172746960208301527f636970616e7473000000000000000000000000000000000000000000000000006040830152606082019050919050565b60006136f8600983614518565b91507f666f7263654d6f766500000000000000000000000000000000000000000000006000830152602082019050919050565b6000613738604b83614518565b91507f496e76616c69645472616e736974696f6e4572726f723a2043616e6e6f74206d60008301527f6f76652066726f6d20612066696e616c20737461746520746f2061206e6f6e2060208301527f66696e616c2073746174650000000000000000000000000000000000000000006040830152606082019050919050565b60006137c4605583614518565b91507f496e76616c69645472616e736974696f6e4572726f723a2043616e6e6f74206d60008301527f6f766520746f20612066696e616c20737461746520776974682061206469666660208301527f6572656e742064656661756c74206f7574636f6d6500000000000000000000006040830152606082019050919050565b6000613850602e83614518565b91507f4368616e6e656c2073746f7261676520646f6573206e6f74206d61746368207360008301527f746f7265642076657273696f6e2e0000000000000000000000000000000000006020830152604082019050919050565b60006138b6602b83614518565b91507f496e76616c6964207369676e617475726573204f5220697346696e616c3d747260008301527f75652065787065637465640000000000000000000000000000000000000000006020830152604082019050919050565b600061391c602083614518565b91507f556e61636365707461626c652077686f5369676e6564576861742061727261796000830152602082019050919050565b600061395c601683614518565b91507f4368616e6e656c206e6f742066696e616c697a65642e000000000000000000006000830152602082019050919050565b600061399c602783614518565b91507f526573706f6e7365206e6f74207369676e656420627920617574686f72697a6560008301527f64206d6f766572000000000000000000000000000000000000000000000000006020830152604082019050919050565b60a082016000820151613a0b6000850182613c32565b506020820151613a1e6020850182613c32565b506040820151613a3160408501826132b6565b506060820151613a44606085018261308d565b506080820151613a5760808501826132b6565b50505050565b600060a083016000830151613a756000860182613c14565b5060208301518482036020860152613a8d82826130ab565b9150506040830151613aa26040860182613c32565b506060830151613ab5606086018261308d565b506080830151613ac86080860182613c32565b508091505092915050565b606082016000820151613ae96000850182613c50565b506020820151613afc60208501826132b6565b506040820151613b0f60408501826132b6565b50505050565b60a082016000820151613b2b6000850182613c32565b506020820151613b3e6020850182613298565b506040820151613b5160408501826132b6565b506060820151613b6460608501826132b6565b506080820151613b7760808501826132b6565b50505050565b60006040830160008301518482036000860152613b9a8282613324565b91505060208301518482036020860152613bb48282613324565b9150508091505092915050565b60006040830160008301518482036000860152613bde8282613324565b91505060208301518482036020860152613bf88282613324565b9150508091505092915050565b613c0e81614551565b82525050565b613c1d81614571565b82525050565b613c2c81614571565b82525050565b613c3b8161457b565b82525050565b613c4a8161457b565b82525050565b613c598161458d565b82525050565b613c688161458d565b82525050565b6000613c7a8284613396565b915081905092915050565b6000613c918285613396565b9150613c9d82846132d4565b6020820191508190509392505050565b6000602082019050613cc2600083018461309c565b92915050565b6000602082019050613cdd60008301846132a7565b92915050565b6000602082019050613cf860008301846132c5565b92915050565b6000604082019050613d1360008301856132c5565b613d2060208301846132c5565b9392505050565b6000604082019050613d3c60008301856132c5565b8181036020830152613d4e818461335d565b90509392505050565b6000604082019050613d6c60008301846132c5565b8181036020830152613d7d816136eb565b905092915050565b6000608082019050613d9a60008301876132c5565b613da76020830186613c5f565b613db460408301856132c5565b613dc160608301846132c5565b95945050505050565b60006020820190508181036000830152613de4818461335d565b905092915050565b60006020820190508181036000830152613e0681846132eb565b905092915050565b60006020820190508181036000830152613e27816133c7565b9050919050565b60006020820190508181036000830152613e4781613453565b9050919050565b60006020820190508181036000830152613e6781613493565b9050919050565b60006020820190508181036000830152613e87816134d3565b9050919050565b60006020820190508181036000830152613ea781613513565b9050919050565b60006020820190508181036000830152613ec781613553565b9050919050565b60006020820190508181036000830152613ee781613593565b9050919050565b60006020820190508181036000830152613f07816135d3565b9050919050565b60006020820190508181036000830152613f278161365f565b9050919050565b60006020820190508181036000830152613f478161372b565b9050919050565b60006020820190508181036000830152613f67816137b7565b9050919050565b60006020820190508181036000830152613f8781613843565b9050919050565b60006020820190508181036000830152613fa7816138a9565b9050919050565b60006020820190508181036000830152613fc78161390f565b9050919050565b60006020820190508181036000830152613fe78161394f565b9050919050565b600060208201905081810360008301526140078161398f565b9050919050565b600060a08201905061402360008301846139f5565b92915050565b600060a08201905061403e6000830184613b15565b92915050565b6000608082019050818103600083015261405e8187613bc1565b905081810360208301526140728186613bc1565b90506140816040830185613c41565b61408e6060830184613c23565b95945050505050565b60006060820190506140ac6000830186613c23565b81810360208301526140be8185613109565b90506140cd6040830184613c41565b949350505050565b60006020820190506140ea6000830184613c41565b92915050565b60006060820190506141056000830186613c41565b614112602083018561309c565b818103604083015261412481846132eb565b9050949350505050565b600061010082019050614144600083018b613c41565b614151602083018a613c41565b61415e604083018961309c565b61416b60608301886132a7565b818103608083015261417d8187613a5d565b905081810360a083015261419181866131c5565b905081810360c08301526141a58185613167565b905081810360e08301526141b9818461323a565b90509998505050505050505050565b60006060820190506141dd6000830186613c41565b6141ea6020830185613c41565b6141f76040830184613c05565b949350505050565b6000604051905081810181811067ffffffffffffffff8211171561422257600080fd5b8060405250919050565b600067ffffffffffffffff82111561424357600080fd5b602082029050602081019050919050565b600067ffffffffffffffff82111561426b57600080fd5b602082029050602081019050919050565b600067ffffffffffffffff82111561429357600080fd5b602082029050919050565b600067ffffffffffffffff8211156142b557600080fd5b602082029050602081019050919050565b600067ffffffffffffffff8211156142dd57600080fd5b602082029050602081019050919050565b600067ffffffffffffffff82111561430557600080fd5b602082029050602081019050919050565b600067ffffffffffffffff82111561432d57600080fd5b602082029050919050565b600067ffffffffffffffff82111561434f57600080fd5b602082029050602081019050919050565b600067ffffffffffffffff82111561437757600080fd5b602082029050602081019050919050565b600067ffffffffffffffff82111561439f57600080fd5b601f19601f8301169050602081019050919050565b600067ffffffffffffffff8211156143cb57600080fd5b601f19601f8301169050602081019050919050565b6000819050602082019050919050565b6000819050602082019050919050565b6000819050602082019050919050565b6000819050602082019050919050565b600081519050919050565b600081519050919050565b600081519050919050565b600081519050919050565b600081519050919050565b600081519050919050565b6000602082019050919050565b6000602082019050919050565b6000602082019050919050565b6000602082019050919050565b600082825260208201905092915050565b600082825260208201905092915050565b600082825260208201905092915050565b600082825260208201905092915050565b600082825260208201905092915050565b600082825260208201905092915050565b600082825260208201905092915050565b600081905092915050565b600082825260208201905092915050565b600061453482614551565b9050919050565b60008115159050919050565b6000819050919050565b600073ffffffffffffffffffffffffffffffffffffffff82169050919050565b6000819050919050565b600065ffffffffffff82169050919050565b600060ff82169050919050565b82818337600083830152505050565b60005b838110156145c75780820151818401526020810190506145ac565b838111156145d6576000848401525b50505050565b6000819050919050565b6000601f19601f8301169050919050565b61460081614529565b811461460b57600080fd5b50565b6146178161453b565b811461462257600080fd5b50565b61462e81614547565b811461463957600080fd5b50565b61464581614571565b811461465057600080fd5b50565b61465c8161457b565b811461466757600080fd5b50565b6146738161458d565b811461467e57600080fd5b5056fea26469706673582212201db5964e919cb2e04c673d25703df0fd76cdafae1bf3f171bcbd4d2ab5586a9864736f6c63430006020033",
            "opcodes": "PUSH1 0x80 PUSH1 0x40 MSTORE CALLVALUE DUP1 ISZERO PUSH2 0x10 JUMPI PUSH1 0x0 DUP1 REVERT JUMPDEST POP PUSH2 0x46B7 DUP1 PUSH2 0x20 PUSH1 0x0 CODECOPY PUSH1 0x0 RETURN INVALID PUSH1 0x80 PUSH1 0x40 MSTORE CALLVALUE DUP1 ISZERO PUSH2 0x10 JUMPI PUSH1 0x0 DUP1 REVERT JUMPDEST POP PUSH1 0x4 CALLDATASIZE LT PUSH2 0x100 JUMPI PUSH1 0x0 CALLDATALOAD PUSH1 0xE0 SHR DUP1 PUSH4 0x78B9E5CB GT PUSH2 0x97 JUMPI DUP1 PUSH4 0xD2F8A1BE GT PUSH2 0x66 JUMPI DUP1 PUSH4 0xD2F8A1BE EQ PUSH2 0x2B9 JUMPI DUP1 PUSH4 0xEB026514 EQ PUSH2 0x2E9 JUMPI DUP1 PUSH4 0xFE9E5DB9 EQ PUSH2 0x305 JUMPI DUP1 PUSH4 0xFF8CEB32 EQ PUSH2 0x337 JUMPI PUSH2 0x100 JUMP JUMPDEST DUP1 PUSH4 0x78B9E5CB EQ PUSH2 0x235 JUMPI DUP1 PUSH4 0x7FF6A982 EQ PUSH2 0x251 JUMPI DUP1 PUSH4 0x829D1A2D EQ PUSH2 0x26D JUMPI DUP1 PUSH4 0x958C960A EQ PUSH2 0x289 JUMPI PUSH2 0x100 JUMP JUMPDEST DUP1 PUSH4 0x5A04D456 GT PUSH2 0xD3 JUMPI DUP1 PUSH4 0x5A04D456 EQ PUSH2 0x19D JUMPI DUP1 PUSH4 0x6775B173 EQ PUSH2 0x1B9 JUMPI DUP1 PUSH4 0x6F65E87D EQ PUSH2 0x1E9 JUMPI DUP1 PUSH4 0x74CE052A EQ PUSH2 0x219 JUMPI PUSH2 0x100 JUMP JUMPDEST DUP1 PUSH4 0x149B762 EQ PUSH2 0x105 JUMPI DUP1 PUSH4 0x15029F20 EQ PUSH2 0x121 JUMPI DUP1 PUSH4 0x29B40CAB EQ PUSH2 0x151 JUMPI DUP1 PUSH4 0x448A4AB3 EQ PUSH2 0x181 JUMPI JUMPDEST PUSH1 0x0 DUP1 REVERT JUMPDEST PUSH2 0x11F PUSH1 0x4 DUP1 CALLDATASIZE SUB PUSH2 0x11A SWAP2 SWAP1 DUP2 ADD SWAP1 PUSH2 0x2AFF JUMP JUMPDEST PUSH2 0x353 JUMP JUMPDEST STOP JUMPDEST PUSH2 0x13B PUSH1 0x4 DUP1 CALLDATASIZE SUB PUSH2 0x136 SWAP2 SWAP1 DUP2 ADD SWAP1 PUSH2 0x29E1 JUMP JUMPDEST PUSH2 0x396 JUMP JUMPDEST PUSH1 0x40 MLOAD PUSH2 0x148 SWAP2 SWAP1 PUSH2 0x3CAD JUMP JUMPDEST PUSH1 0x40 MLOAD DUP1 SWAP2 SUB SWAP1 RETURN JUMPDEST PUSH2 0x16B PUSH1 0x4 DUP1 CALLDATASIZE SUB PUSH2 0x166 SWAP2 SWAP1 DUP2 ADD SWAP1 PUSH2 0x289C JUMP JUMPDEST PUSH2 0x3AA JUMP JUMPDEST PUSH1 0x40 MLOAD PUSH2 0x178 SWAP2 SWAP1 PUSH2 0x3CC8 JUMP JUMPDEST PUSH1 0x40 MLOAD DUP1 SWAP2 SUB SWAP1 RETURN JUMPDEST PUSH2 0x19B PUSH1 0x4 DUP1 CALLDATASIZE SUB PUSH2 0x196 SWAP2 SWAP1 DUP2 ADD SWAP1 PUSH2 0x29A5 JUMP JUMPDEST PUSH2 0x3C2 JUMP JUMPDEST STOP JUMPDEST PUSH2 0x1B7 PUSH1 0x4 DUP1 CALLDATASIZE SUB PUSH2 0x1B2 SWAP2 SWAP1 DUP2 ADD SWAP1 PUSH2 0x2A1D JUMP JUMPDEST PUSH2 0x3E5 JUMP JUMPDEST STOP JUMPDEST PUSH2 0x1D3 PUSH1 0x4 DUP1 CALLDATASIZE SUB PUSH2 0x1CE SWAP2 SWAP1 DUP2 ADD SWAP1 PUSH2 0x2CE7 JUMP JUMPDEST PUSH2 0x587 JUMP JUMPDEST PUSH1 0x40 MLOAD PUSH2 0x1E0 SWAP2 SWAP1 PUSH2 0x3CC8 JUMP JUMPDEST PUSH1 0x40 MLOAD DUP1 SWAP2 SUB SWAP1 RETURN JUMPDEST PUSH2 0x203 PUSH1 0x4 DUP1 CALLDATASIZE SUB PUSH2 0x1FE SWAP2 SWAP1 DUP2 ADD SWAP1 PUSH2 0x2940 JUMP JUMPDEST PUSH2 0x5A1 JUMP JUMPDEST PUSH1 0x40 MLOAD PUSH2 0x210 SWAP2 SWAP1 PUSH2 0x3CE3 JUMP JUMPDEST PUSH1 0x40 MLOAD DUP1 SWAP2 SUB SWAP1 RETURN JUMPDEST PUSH2 0x233 PUSH1 0x4 DUP1 CALLDATASIZE SUB PUSH2 0x22E SWAP2 SWAP1 DUP2 ADD SWAP1 PUSH2 0x2A1D JUMP JUMPDEST PUSH2 0x5B9 JUMP JUMPDEST STOP JUMPDEST PUSH2 0x24F PUSH1 0x4 DUP1 CALLDATASIZE SUB PUSH2 0x24A SWAP2 SWAP1 DUP2 ADD SWAP1 PUSH2 0x2BE8 JUMP JUMPDEST PUSH2 0x656 JUMP JUMPDEST STOP JUMPDEST PUSH2 0x26B PUSH1 0x4 DUP1 CALLDATASIZE SUB PUSH2 0x266 SWAP2 SWAP1 DUP2 ADD SWAP1 PUSH2 0x2E4D JUMP JUMPDEST PUSH2 0x810 JUMP JUMPDEST STOP JUMPDEST PUSH2 0x287 PUSH1 0x4 DUP1 CALLDATASIZE SUB PUSH2 0x282 SWAP2 SWAP1 DUP2 ADD SWAP1 PUSH2 0x2969 JUMP JUMPDEST PUSH2 0x9FE JUMP JUMPDEST STOP JUMPDEST PUSH2 0x2A3 PUSH1 0x4 DUP1 CALLDATASIZE SUB PUSH2 0x29E SWAP2 SWAP1 DUP2 ADD SWAP1 PUSH2 0x275F JUMP JUMPDEST PUSH2 0xA19 JUMP JUMPDEST PUSH1 0x40 MLOAD PUSH2 0x2B0 SWAP2 SWAP1 PUSH2 0x3CC8 JUMP JUMPDEST PUSH1 0x40 MLOAD DUP1 SWAP2 SUB SWAP1 RETURN JUMPDEST PUSH2 0x2D3 PUSH1 0x4 DUP1 CALLDATASIZE SUB PUSH2 0x2CE SWAP2 SWAP1 DUP2 ADD SWAP1 PUSH2 0x2D76 JUMP JUMPDEST PUSH2 0xA2D JUMP JUMPDEST PUSH1 0x40 MLOAD PUSH2 0x2E0 SWAP2 SWAP1 PUSH2 0x3CC8 JUMP JUMPDEST PUSH1 0x40 MLOAD DUP1 SWAP2 SUB SWAP1 RETURN JUMPDEST PUSH2 0x303 PUSH1 0x4 DUP1 CALLDATASIZE SUB PUSH2 0x2FE SWAP2 SWAP1 DUP2 ADD SWAP1 PUSH2 0x2F33 JUMP JUMPDEST PUSH2 0xA47 JUMP JUMPDEST STOP JUMPDEST PUSH2 0x31F PUSH1 0x4 DUP1 CALLDATASIZE SUB PUSH2 0x31A SWAP2 SWAP1 DUP2 ADD SWAP1 PUSH2 0x2940 JUMP JUMPDEST PUSH2 0xC6B JUMP JUMPDEST PUSH1 0x40 MLOAD PUSH2 0x32E SWAP4 SWAP3 SWAP2 SWAP1 PUSH2 0x41C8 JUMP JUMPDEST PUSH1 0x40 MLOAD DUP1 SWAP2 SUB SWAP1 RETURN JUMPDEST PUSH2 0x351 PUSH1 0x4 DUP1 CALLDATASIZE SUB PUSH2 0x34C SWAP2 SWAP1 DUP2 ADD SWAP1 PUSH2 0x27B3 JUMP JUMPDEST PUSH2 0xC8C JUMP JUMPDEST STOP JUMPDEST PUSH1 0x0 PUSH2 0x35E DUP8 PUSH2 0xE93 JUMP JUMPDEST SWAP1 POP PUSH2 0x369 DUP2 PUSH2 0xED3 JUMP JUMPDEST PUSH2 0x373 DUP2 DUP8 PUSH2 0xF37 JUMP JUMPDEST PUSH2 0x382 DUP7 DUP7 DUP7 DUP5 DUP12 DUP9 DUP9 PUSH2 0xF9D JUMP JUMPDEST POP PUSH2 0x38D DUP2 DUP8 PUSH2 0x1026 JUMP JUMPDEST POP POP POP POP POP POP POP JUMP JUMPDEST PUSH1 0x0 PUSH2 0x3A2 DUP4 DUP4 PUSH2 0x10D5 JUMP JUMPDEST SWAP1 POP SWAP3 SWAP2 POP POP JUMP JUMPDEST PUSH1 0x0 PUSH2 0x3B8 DUP6 DUP6 DUP6 DUP6 PUSH2 0x11A2 JUMP JUMPDEST SWAP1 POP SWAP5 SWAP4 POP POP POP POP JUMP JUMPDEST PUSH2 0x3CB DUP2 PUSH2 0x1259 JUMP JUMPDEST PUSH1 0x0 DUP1 DUP5 DUP2 MSTORE PUSH1 0x20 ADD SWAP1 DUP2 MSTORE PUSH1 0x20 ADD PUSH1 0x0 KECCAK256 DUP2 SWAP1 SSTORE POP POP POP JUMP JUMPDEST PUSH2 0x3EE DUP7 PUSH2 0x12EE JUMP JUMPDEST PUSH1 0x0 DUP2 PUSH1 0x40 MLOAD PUSH1 0x20 ADD PUSH2 0x401 SWAP2 SWAP1 PUSH2 0x3DEC JUMP JUMPDEST PUSH1 0x40 MLOAD PUSH1 0x20 DUP2 DUP4 SUB SUB DUP2 MSTORE SWAP1 PUSH1 0x40 MSTORE DUP1 MLOAD SWAP1 PUSH1 0x20 ADD KECCAK256 SWAP1 POP PUSH2 0x46F PUSH1 0x40 MLOAD DUP1 PUSH1 0xA0 ADD PUSH1 0x40 MSTORE DUP1 DUP9 PUSH6 0xFFFFFFFFFFFF AND DUP2 MSTORE PUSH1 0x20 ADD DUP8 PUSH6 0xFFFFFFFFFFFF AND DUP2 MSTORE PUSH1 0x20 ADD DUP7 DUP2 MSTORE PUSH1 0x20 ADD DUP6 PUSH20 0xFFFFFFFFFFFFFFFFFFFFFFFFFFFFFFFFFFFFFFFF AND DUP2 MSTORE PUSH1 0x20 ADD DUP4 DUP2 MSTORE POP DUP9 PUSH2 0x1351 JUMP JUMPDEST PUSH1 0x60 DUP3 DUP1 PUSH1 0x20 ADD SWAP1 MLOAD PUSH2 0x485 SWAP2 SWAP1 DUP2 ADD SWAP1 PUSH2 0x285B JUMP JUMPDEST SWAP1 POP PUSH1 0x0 DUP1 SWAP1 POP JUMPDEST DUP2 MLOAD DUP2 LT ISZERO PUSH2 0x57C JUMPI DUP2 DUP2 DUP2 MLOAD DUP2 LT PUSH2 0x4A2 JUMPI INVALID JUMPDEST PUSH1 0x20 MUL PUSH1 0x20 ADD ADD MLOAD PUSH1 0x0 ADD MLOAD PUSH20 0xFFFFFFFFFFFFFFFFFFFFFFFFFFFFFFFFFFFFFFFF AND PUSH4 0xA3C863A3 DUP11 DUP5 DUP5 DUP2 MLOAD DUP2 LT PUSH2 0x4D6 JUMPI INVALID JUMPDEST PUSH1 0x20 MUL PUSH1 0x20 ADD ADD MLOAD PUSH1 0x20 ADD MLOAD PUSH1 0x40 MLOAD PUSH2 0x4EF SWAP2 SWAP1 PUSH2 0x3C6E JUMP JUMPDEST PUSH1 0x40 MLOAD DUP1 SWAP2 SUB SWAP1 KECCAK256 PUSH1 0x40 MLOAD DUP4 PUSH4 0xFFFFFFFF AND PUSH1 0xE0 SHL DUP2 MSTORE PUSH1 0x4 ADD PUSH2 0x514 SWAP3 SWAP2 SWAP1 PUSH2 0x3CFE JUMP JUMPDEST PUSH1 0x20 PUSH1 0x40 MLOAD DUP1 DUP4 SUB DUP2 PUSH1 0x0 DUP8 DUP1 EXTCODESIZE ISZERO DUP1 ISZERO PUSH2 0x52E JUMPI PUSH1 0x0 DUP1 REVERT JUMPDEST POP GAS CALL ISZERO DUP1 ISZERO PUSH2 0x542 JUMPI RETURNDATASIZE PUSH1 0x0 DUP1 RETURNDATACOPY RETURNDATASIZE PUSH1 0x0 REVERT JUMPDEST POP POP POP POP PUSH1 0x40 MLOAD RETURNDATASIZE PUSH1 0x1F NOT PUSH1 0x1F DUP3 ADD AND DUP3 ADD DUP1 PUSH1 0x40 MSTORE POP PUSH2 0x566 SWAP2 SWAP1 DUP2 ADD SWAP1 PUSH2 0x2917 JUMP JUMPDEST PUSH2 0x56F JUMPI PUSH1 0x0 DUP1 REVERT JUMPDEST DUP1 DUP1 PUSH1 0x1 ADD SWAP2 POP POP PUSH2 0x48D JUMP JUMPDEST POP POP POP POP POP POP POP POP POP JUMP JUMPDEST PUSH1 0x0 PUSH2 0x596 DUP7 DUP7 DUP7 DUP7 DUP7 PUSH2 0x13B0 JUMP JUMPDEST SWAP1 POP SWAP6 SWAP5 POP POP POP POP POP JUMP JUMPDEST PUSH1 0x0 PUSH1 0x20 MSTORE DUP1 PUSH1 0x0 MSTORE PUSH1 0x40 PUSH1 0x0 KECCAK256 PUSH1 0x0 SWAP2 POP SWAP1 POP SLOAD DUP2 JUMP JUMPDEST PUSH2 0x5C2 DUP7 PUSH2 0x12EE JUMP JUMPDEST PUSH1 0x0 DUP2 PUSH1 0x40 MLOAD PUSH1 0x20 ADD PUSH2 0x5D5 SWAP2 SWAP1 PUSH2 0x3DEC JUMP JUMPDEST PUSH1 0x40 MLOAD PUSH1 0x20 DUP2 DUP4 SUB SUB DUP2 MSTORE SWAP1 PUSH1 0x40 MSTORE DUP1 MLOAD SWAP1 PUSH1 0x20 ADD KECCAK256 SWAP1 POP PUSH2 0x643 PUSH1 0x40 MLOAD DUP1 PUSH1 0xA0 ADD PUSH1 0x40 MSTORE DUP1 DUP9 PUSH6 0xFFFFFFFFFFFF AND DUP2 MSTORE PUSH1 0x20 ADD DUP8 PUSH6 0xFFFFFFFFFFFF AND DUP2 MSTORE PUSH1 0x20 ADD DUP7 DUP2 MSTORE PUSH1 0x20 ADD DUP6 PUSH20 0xFFFFFFFFFFFFFFFFFFFFFFFFFFFFFFFFFFFFFFFF AND DUP2 MSTORE PUSH1 0x20 ADD DUP4 DUP2 MSTORE POP DUP9 PUSH2 0x1351 JUMP JUMPDEST PUSH2 0x64D DUP8 DUP4 PUSH2 0x167D JUMP JUMPDEST POP POP POP POP POP POP POP JUMP JUMPDEST PUSH1 0x0 PUSH2 0x661 DUP9 PUSH2 0xE93 JUMP JUMPDEST SWAP1 POP PUSH1 0x0 PUSH1 0x2 DUP2 GT ISZERO PUSH2 0x670 JUMPI INVALID JUMPDEST PUSH2 0x679 DUP3 PUSH2 0x179D JUMP JUMPDEST PUSH1 0x2 DUP2 GT ISZERO PUSH2 0x684 JUMPI INVALID JUMPDEST EQ ISZERO PUSH2 0x699 JUMPI PUSH2 0x694 DUP2 DUP9 PUSH2 0x17EC JUMP JUMPDEST PUSH2 0x6DA JUMP JUMPDEST PUSH1 0x1 PUSH1 0x2 DUP2 GT ISZERO PUSH2 0x6A6 JUMPI INVALID JUMPDEST PUSH2 0x6AF DUP3 PUSH2 0x179D JUMP JUMPDEST PUSH1 0x2 DUP2 GT ISZERO PUSH2 0x6BA JUMPI INVALID JUMPDEST EQ ISZERO PUSH2 0x6CF JUMPI PUSH2 0x6CA DUP2 DUP9 PUSH2 0xF37 JUMP JUMPDEST PUSH2 0x6D9 JUMP JUMPDEST PUSH2 0x6D8 DUP2 PUSH2 0xED3 JUMP JUMPDEST JUMPDEST JUMPDEST PUSH1 0x0 PUSH2 0x6EB DUP9 DUP9 DUP9 DUP6 DUP14 DUP11 DUP11 PUSH2 0xF9D JUMP JUMPDEST SWAP1 POP PUSH1 0x0 PUSH2 0x6FE DUP3 DUP12 PUSH1 0x20 ADD MLOAD DUP7 PUSH2 0x1853 JUMP JUMPDEST SWAP1 POP DUP3 PUSH32 0x1F9F029DE8AB3F81B5381A9BC066B421D0F215DB28CC8160EC346BC6F0463C6E DUP11 DUP13 PUSH1 0x80 ADD MLOAD TIMESTAMP ADD DUP5 PUSH1 0x0 DUP13 PUSH1 0xFF AND GT DUP16 DUP15 DUP14 DUP14 PUSH1 0x40 MLOAD PUSH2 0x74A SWAP9 SWAP8 SWAP7 SWAP6 SWAP5 SWAP4 SWAP3 SWAP2 SWAP1 PUSH2 0x412E JUMP JUMPDEST PUSH1 0x40 MLOAD DUP1 SWAP2 SUB SWAP1 LOG2 PUSH2 0x7EE PUSH1 0x40 MLOAD DUP1 PUSH1 0xA0 ADD PUSH1 0x40 MSTORE DUP1 DUP12 PUSH6 0xFFFFFFFFFFFF AND DUP2 MSTORE PUSH1 0x20 ADD DUP13 PUSH1 0x80 ADD MLOAD TIMESTAMP ADD PUSH6 0xFFFFFFFFFFFF AND DUP2 MSTORE PUSH1 0x20 ADD DUP5 DUP2 MSTORE PUSH1 0x20 ADD DUP4 PUSH20 0xFFFFFFFFFFFFFFFFFFFFFFFFFFFFFFFFFFFFFFFF AND DUP2 MSTORE PUSH1 0x20 ADD DUP11 PUSH1 0x1 DUP13 MLOAD SUB DUP2 MLOAD DUP2 LT PUSH2 0x7B4 JUMPI INVALID JUMPDEST PUSH1 0x20 MUL PUSH1 0x20 ADD ADD MLOAD PUSH1 0x0 ADD MLOAD PUSH1 0x40 MLOAD PUSH1 0x20 ADD PUSH2 0x7D0 SWAP2 SWAP1 PUSH2 0x3DCA JUMP JUMPDEST PUSH1 0x40 MLOAD PUSH1 0x20 DUP2 DUP4 SUB SUB DUP2 MSTORE SWAP1 PUSH1 0x40 MSTORE DUP1 MLOAD SWAP1 PUSH1 0x20 ADD KECCAK256 DUP2 MSTORE POP PUSH2 0x1259 JUMP JUMPDEST PUSH1 0x0 DUP1 DUP6 DUP2 MSTORE PUSH1 0x20 ADD SWAP1 DUP2 MSTORE PUSH1 0x20 ADD PUSH1 0x0 KECCAK256 DUP2 SWAP1 SSTORE POP POP POP POP POP POP POP POP POP POP POP JUMP JUMPDEST PUSH1 0x0 PUSH2 0x81B DUP8 PUSH2 0xE93 JUMP JUMPDEST SWAP1 POP PUSH2 0x826 DUP2 PUSH2 0xED3 JUMP JUMPDEST PUSH1 0x60 DUP5 PUSH1 0xFF AND PUSH1 0x40 MLOAD SWAP1 DUP1 DUP3 MSTORE DUP1 PUSH1 0x20 MUL PUSH1 0x20 ADD DUP3 ADD PUSH1 0x40 MSTORE DUP1 ISZERO PUSH2 0x85A JUMPI DUP2 PUSH1 0x20 ADD PUSH1 0x20 DUP3 MUL DUP1 CODESIZE DUP4 CODECOPY DUP1 DUP3 ADD SWAP2 POP POP SWAP1 POP JUMPDEST POP SWAP1 POP PUSH1 0x0 DUP1 SWAP1 POP JUMPDEST DUP6 PUSH1 0xFF AND DUP2 PUSH6 0xFFFFFFFFFFFF AND LT ISZERO PUSH2 0x905 JUMPI PUSH1 0x40 MLOAD DUP1 PUSH1 0xA0 ADD PUSH1 0x40 MSTORE DUP1 DUP8 PUSH1 0xFF AND PUSH1 0x1 DUP5 ADD DUP14 ADD SUB PUSH6 0xFFFFFFFFFFFF AND DUP2 MSTORE PUSH1 0x20 ADD PUSH1 0x1 ISZERO ISZERO DUP2 MSTORE PUSH1 0x20 ADD DUP5 DUP2 MSTORE PUSH1 0x20 ADD DUP10 DUP2 MSTORE PUSH1 0x20 ADD DUP9 DUP2 MSTORE POP PUSH1 0x40 MLOAD PUSH1 0x20 ADD PUSH2 0x8C2 SWAP2 SWAP1 PUSH2 0x4029 JUMP JUMPDEST PUSH1 0x40 MLOAD PUSH1 0x20 DUP2 DUP4 SUB SUB DUP2 MSTORE SWAP1 PUSH1 0x40 MSTORE DUP1 MLOAD SWAP1 PUSH1 0x20 ADD KECCAK256 DUP3 DUP3 PUSH6 0xFFFFFFFFFFFF AND DUP2 MLOAD DUP2 LT PUSH2 0x8EC JUMPI INVALID JUMPDEST PUSH1 0x20 MUL PUSH1 0x20 ADD ADD DUP2 DUP2 MSTORE POP POP DUP1 DUP1 PUSH1 0x1 ADD SWAP2 POP POP PUSH2 0x863 JUMP JUMPDEST POP PUSH2 0x917 DUP10 DUP10 PUSH1 0x20 ADD MLOAD DUP4 DUP7 DUP9 PUSH2 0x18D7 JUMP JUMPDEST PUSH2 0x956 JUMPI PUSH1 0x40 MLOAD PUSH32 0x8C379A000000000000000000000000000000000000000000000000000000000 DUP2 MSTORE PUSH1 0x4 ADD PUSH2 0x94D SWAP1 PUSH2 0x3F8E JUMP JUMPDEST PUSH1 0x40 MLOAD DUP1 SWAP2 SUB SWAP1 REVERT JUMPDEST PUSH2 0x9B0 PUSH1 0x40 MLOAD DUP1 PUSH1 0xA0 ADD PUSH1 0x40 MSTORE DUP1 PUSH1 0x0 PUSH6 0xFFFFFFFFFFFF AND DUP2 MSTORE PUSH1 0x20 ADD TIMESTAMP PUSH6 0xFFFFFFFFFFFF AND DUP2 MSTORE PUSH1 0x20 ADD PUSH1 0x0 DUP1 SHL DUP2 MSTORE PUSH1 0x20 ADD PUSH1 0x0 PUSH20 0xFFFFFFFFFFFFFFFFFFFFFFFFFFFFFFFFFFFFFFFF AND DUP2 MSTORE PUSH1 0x20 ADD DUP9 DUP2 MSTORE POP PUSH2 0x1259 JUMP JUMPDEST PUSH1 0x0 DUP1 DUP5 DUP2 MSTORE PUSH1 0x20 ADD SWAP1 DUP2 MSTORE PUSH1 0x20 ADD PUSH1 0x0 KECCAK256 DUP2 SWAP1 SSTORE POP DUP2 PUSH32 0x3E659E9176C25A527F4575E010A270B3E1F8E9D1E94F5E49D4A91DD2C59E8CF8 PUSH1 0x40 MLOAD PUSH1 0x40 MLOAD DUP1 SWAP2 SUB SWAP1 LOG2 POP POP POP POP POP POP POP POP POP JUMP JUMPDEST DUP1 PUSH1 0x0 DUP1 DUP5 DUP2 MSTORE PUSH1 0x20 ADD SWAP1 DUP2 MSTORE PUSH1 0x20 ADD PUSH1 0x0 KECCAK256 DUP2 SWAP1 SSTORE POP POP POP JUMP JUMPDEST PUSH1 0x0 PUSH2 0xA25 DUP4 DUP4 PUSH2 0x19F9 JUMP JUMPDEST SWAP1 POP SWAP3 SWAP2 POP POP JUMP JUMPDEST PUSH1 0x0 PUSH2 0xA3C DUP7 DUP7 DUP7 DUP7 DUP7 PUSH2 0x18D7 JUMP JUMPDEST SWAP1 POP SWAP6 SWAP5 POP POP POP POP POP JUMP JUMPDEST PUSH1 0x0 PUSH2 0xA52 DUP8 PUSH2 0xE93 JUMP JUMPDEST SWAP1 POP PUSH2 0xA5D DUP2 PUSH2 0xED3 JUMP JUMPDEST PUSH1 0x60 DUP5 PUSH1 0xFF AND PUSH1 0x40 MLOAD SWAP1 DUP1 DUP3 MSTORE DUP1 PUSH1 0x20 MUL PUSH1 0x20 ADD DUP3 ADD PUSH1 0x40 MSTORE DUP1 ISZERO PUSH2 0xA91 JUMPI DUP2 PUSH1 0x20 ADD PUSH1 0x20 DUP3 MUL DUP1 CODESIZE DUP4 CODECOPY DUP1 DUP3 ADD SWAP2 POP POP SWAP1 POP JUMPDEST POP SWAP1 POP PUSH1 0x0 DUP7 PUSH1 0x40 MLOAD PUSH1 0x20 ADD PUSH2 0xAA7 SWAP2 SWAP1 PUSH2 0x3DEC JUMP JUMPDEST PUSH1 0x40 MLOAD PUSH1 0x20 DUP2 DUP4 SUB SUB DUP2 MSTORE SWAP1 PUSH1 0x40 MSTORE DUP1 MLOAD SWAP1 PUSH1 0x20 ADD KECCAK256 SWAP1 POP PUSH1 0x0 DUP1 SWAP1 POP JUMPDEST DUP7 PUSH1 0xFF AND DUP2 PUSH6 0xFFFFFFFFFFFF AND LT ISZERO PUSH2 0xB67 JUMPI PUSH1 0x40 MLOAD DUP1 PUSH1 0xA0 ADD PUSH1 0x40 MSTORE DUP1 DUP9 PUSH1 0xFF AND PUSH1 0x1 DUP5 ADD DUP15 ADD SUB PUSH6 0xFFFFFFFFFFFF AND DUP2 MSTORE PUSH1 0x20 ADD PUSH1 0x1 ISZERO ISZERO DUP2 MSTORE PUSH1 0x20 ADD DUP6 DUP2 MSTORE PUSH1 0x20 ADD DUP11 DUP2 MSTORE PUSH1 0x20 ADD DUP4 DUP2 MSTORE POP PUSH1 0x40 MLOAD PUSH1 0x20 ADD PUSH2 0xB24 SWAP2 SWAP1 PUSH2 0x4029 JUMP JUMPDEST PUSH1 0x40 MLOAD PUSH1 0x20 DUP2 DUP4 SUB SUB DUP2 MSTORE SWAP1 PUSH1 0x40 MSTORE DUP1 MLOAD SWAP1 PUSH1 0x20 ADD KECCAK256 DUP4 DUP3 PUSH6 0xFFFFFFFFFFFF AND DUP2 MLOAD DUP2 LT PUSH2 0xB4E JUMPI INVALID JUMPDEST PUSH1 0x20 MUL PUSH1 0x20 ADD ADD DUP2 DUP2 MSTORE POP POP DUP1 DUP1 PUSH1 0x1 ADD SWAP2 POP POP PUSH2 0xAC5 JUMP JUMPDEST POP PUSH2 0xB79 DUP11 DUP11 PUSH1 0x20 ADD MLOAD DUP5 DUP8 DUP10 PUSH2 0x18D7 JUMP JUMPDEST PUSH2 0xBB8 JUMPI PUSH1 0x40 MLOAD PUSH32 0x8C379A000000000000000000000000000000000000000000000000000000000 DUP2 MSTORE PUSH1 0x4 ADD PUSH2 0xBAF SWAP1 PUSH2 0x3ECE JUMP JUMPDEST PUSH1 0x40 MLOAD DUP1 SWAP2 SUB SWAP1 REVERT JUMPDEST PUSH2 0xC12 PUSH1 0x40 MLOAD DUP1 PUSH1 0xA0 ADD PUSH1 0x40 MSTORE DUP1 PUSH1 0x0 PUSH6 0xFFFFFFFFFFFF AND DUP2 MSTORE PUSH1 0x20 ADD TIMESTAMP PUSH6 0xFFFFFFFFFFFF AND DUP2 MSTORE PUSH1 0x20 ADD PUSH1 0x0 DUP1 SHL DUP2 MSTORE PUSH1 0x20 ADD PUSH1 0x0 PUSH20 0xFFFFFFFFFFFFFFFFFFFFFFFFFFFFFFFFFFFFFFFF AND DUP2 MSTORE PUSH1 0x20 ADD DUP4 DUP2 MSTORE POP PUSH2 0x1259 JUMP JUMPDEST PUSH1 0x0 DUP1 DUP6 DUP2 MSTORE PUSH1 0x20 ADD SWAP1 DUP2 MSTORE PUSH1 0x20 ADD PUSH1 0x0 KECCAK256 DUP2 SWAP1 SSTORE POP DUP3 PUSH32 0x3E659E9176C25A527F4575E010A270B3E1F8E9D1E94F5E49D4A91DD2C59E8CF8 PUSH1 0x40 MLOAD PUSH1 0x40 MLOAD DUP1 SWAP2 SUB SWAP1 LOG2 PUSH2 0xC5F DUP4 DUP9 PUSH2 0x167D JUMP JUMPDEST POP POP POP POP POP POP POP POP POP POP JUMP JUMPDEST PUSH1 0x0 DUP1 PUSH1 0x0 PUSH2 0xC79 DUP5 PUSH2 0x1A74 JUMP JUMPDEST DUP1 SWAP4 POP DUP2 SWAP5 POP DUP3 SWAP6 POP POP POP POP SWAP2 SWAP4 SWAP1 SWAP3 POP JUMP JUMPDEST PUSH1 0x0 PUSH2 0xC97 DUP5 PUSH2 0xE93 JUMP JUMPDEST SWAP1 POP PUSH1 0x0 DUP1 PUSH2 0xCA5 DUP4 PUSH2 0x1A74 JUMP JUMPDEST POP SWAP2 POP SWAP2 POP PUSH1 0x0 PUSH2 0xCCA DUP7 PUSH1 0x0 PUSH1 0x2 DUP2 LT PUSH2 0xCBC JUMPI INVALID JUMPDEST PUSH1 0x20 MUL ADD MLOAD PUSH1 0x0 ADD MLOAD PUSH2 0x1ACB JUMP JUMPDEST SWAP1 POP PUSH1 0x0 PUSH2 0xCEC DUP8 PUSH1 0x1 PUSH1 0x2 DUP2 LT PUSH2 0xCDE JUMPI INVALID JUMPDEST PUSH1 0x20 MUL ADD MLOAD PUSH1 0x0 ADD MLOAD PUSH2 0x1ACB JUMP JUMPDEST SWAP1 POP PUSH1 0x0 PUSH2 0xD24 DUP6 DUP12 PUSH1 0x0 PUSH1 0x2 DUP2 LT PUSH2 0xD01 JUMPI INVALID JUMPDEST PUSH1 0x20 MUL ADD MLOAD DUP9 DUP13 DUP13 PUSH1 0x0 PUSH1 0x2 DUP2 LT PUSH2 0xD15 JUMPI INVALID JUMPDEST PUSH1 0x20 MUL ADD MLOAD PUSH1 0x20 ADD MLOAD DUP9 PUSH2 0x1AFB JUMP JUMPDEST SWAP1 POP PUSH1 0x0 PUSH2 0xD5F PUSH1 0x1 DUP8 ADD DUP13 PUSH1 0x1 PUSH1 0x2 DUP2 LT PUSH2 0xD3C JUMPI INVALID JUMPDEST PUSH1 0x20 MUL ADD MLOAD DUP10 DUP14 DUP14 PUSH1 0x1 PUSH1 0x2 DUP2 LT PUSH2 0xD50 JUMPI INVALID JUMPDEST PUSH1 0x20 MUL ADD MLOAD PUSH1 0x20 ADD MLOAD DUP9 PUSH2 0x1AFB JUMP JUMPDEST SWAP1 POP PUSH2 0xDB7 PUSH1 0x40 MLOAD DUP1 PUSH1 0xA0 ADD PUSH1 0x40 MSTORE DUP1 DUP9 PUSH6 0xFFFFFFFFFFFF AND DUP2 MSTORE PUSH1 0x20 ADD DUP8 PUSH6 0xFFFFFFFFFFFF AND DUP2 MSTORE PUSH1 0x20 ADD DUP5 DUP2 MSTORE PUSH1 0x20 ADD DUP15 PUSH20 0xFFFFFFFFFFFFFFFFFFFFFFFFFFFFFFFFFFFFFFFF AND DUP2 MSTORE PUSH1 0x20 ADD DUP7 DUP2 MSTORE POP DUP9 PUSH2 0x1B92 JUMP JUMPDEST DUP10 PUSH1 0x20 ADD MLOAD DUP11 PUSH1 0x20 ADD MLOAD MLOAD PUSH1 0x1 DUP9 ADD PUSH6 0xFFFFFFFFFFFF AND DUP2 PUSH2 0xDD5 JUMPI INVALID JUMPDEST MOD DUP2 MLOAD DUP2 LT PUSH2 0xDE0 JUMPI INVALID JUMPDEST PUSH1 0x20 MUL PUSH1 0x20 ADD ADD MLOAD PUSH20 0xFFFFFFFFFFFFFFFFFFFFFFFFFFFFFFFFFFFFFFFF AND PUSH2 0xE08 DUP3 DUP11 PUSH2 0x10D5 JUMP JUMPDEST PUSH20 0xFFFFFFFFFFFFFFFFFFFFFFFFFFFFFFFFFFFFFFFF AND EQ PUSH2 0xE5E JUMPI PUSH1 0x40 MLOAD PUSH32 0x8C379A000000000000000000000000000000000000000000000000000000000 DUP2 MSTORE PUSH1 0x4 ADD PUSH2 0xE55 SWAP1 PUSH2 0x3FEE JUMP JUMPDEST PUSH1 0x40 MLOAD DUP1 SWAP2 SUB SWAP1 REVERT JUMPDEST PUSH2 0xE77 DUP11 PUSH1 0x20 ADD MLOAD MLOAD DUP13 DUP12 PUSH1 0x1 DUP11 ADD DUP15 PUSH1 0x60 ADD MLOAD PUSH2 0x13B0 JUMP JUMPDEST POP PUSH2 0xE85 DUP8 PUSH1 0x1 DUP9 ADD PUSH2 0x1026 JUMP JUMPDEST POP POP POP POP POP POP POP POP POP POP POP POP JUMP JUMPDEST PUSH1 0x0 DUP2 PUSH1 0x0 ADD MLOAD DUP3 PUSH1 0x20 ADD MLOAD DUP4 PUSH1 0x40 ADD MLOAD PUSH1 0x40 MLOAD PUSH1 0x20 ADD PUSH2 0xEB6 SWAP4 SWAP3 SWAP2 SWAP1 PUSH2 0x4097 JUMP JUMPDEST PUSH1 0x40 MLOAD PUSH1 0x20 DUP2 DUP4 SUB SUB DUP2 MSTORE SWAP1 PUSH1 0x40 MSTORE DUP1 MLOAD SWAP1 PUSH1 0x20 ADD KECCAK256 SWAP1 POP SWAP2 SWAP1 POP JUMP JUMPDEST PUSH1 0x2 DUP1 DUP2 GT ISZERO PUSH2 0xEDF JUMPI INVALID JUMPDEST PUSH2 0xEE8 DUP3 PUSH2 0x179D JUMP JUMPDEST PUSH1 0x2 DUP2 GT ISZERO PUSH2 0xEF3 JUMPI INVALID JUMPDEST EQ ISZERO PUSH2 0xF34 JUMPI PUSH1 0x40 MLOAD PUSH32 0x8C379A000000000000000000000000000000000000000000000000000000000 DUP2 MSTORE PUSH1 0x4 ADD PUSH2 0xF2B SWAP1 PUSH2 0x3E4E JUMP JUMPDEST PUSH1 0x40 MLOAD DUP1 SWAP2 SUB SWAP1 REVERT JUMPDEST POP JUMP JUMPDEST PUSH1 0x0 PUSH2 0xF42 DUP4 PUSH2 0x1A74 JUMP JUMPDEST POP POP SWAP1 POP DUP1 PUSH6 0xFFFFFFFFFFFF AND DUP3 PUSH6 0xFFFFFFFFFFFF AND GT PUSH2 0xF98 JUMPI PUSH1 0x40 MLOAD PUSH32 0x8C379A000000000000000000000000000000000000000000000000000000000 DUP2 MSTORE PUSH1 0x4 ADD PUSH2 0xF8F SWAP1 PUSH2 0x3E2E JUMP JUMPDEST PUSH1 0x40 MLOAD DUP1 SWAP2 SUB SWAP1 REVERT JUMPDEST POP POP POP JUMP JUMPDEST PUSH1 0x0 PUSH1 0x60 PUSH2 0xFAE DUP10 DUP10 DUP10 DUP10 DUP10 PUSH2 0x1BA9 JUMP JUMPDEST SWAP1 POP PUSH2 0xFC1 DUP10 DUP7 PUSH1 0x20 ADD MLOAD DUP4 DUP8 DUP8 PUSH2 0x18D7 JUMP JUMPDEST PUSH2 0x1000 JUMPI PUSH1 0x40 MLOAD PUSH32 0x8C379A000000000000000000000000000000000000000000000000000000000 DUP2 MSTORE PUSH1 0x4 ADD PUSH2 0xFF7 SWAP1 PUSH2 0x3ECE JUMP JUMPDEST PUSH1 0x40 MLOAD DUP1 SWAP2 SUB SWAP1 REVERT JUMPDEST DUP1 PUSH1 0x1 DUP3 MLOAD SUB DUP2 MLOAD DUP2 LT PUSH2 0x1010 JUMPI INVALID JUMPDEST PUSH1 0x20 MUL PUSH1 0x20 ADD ADD MLOAD SWAP2 POP POP SWAP8 SWAP7 POP POP POP POP POP POP POP JUMP JUMPDEST PUSH2 0x1083 PUSH1 0x40 MLOAD DUP1 PUSH1 0xA0 ADD PUSH1 0x40 MSTORE DUP1 DUP4 PUSH6 0xFFFFFFFFFFFF AND DUP2 MSTORE PUSH1 0x20 ADD PUSH1 0x0 PUSH6 0xFFFFFFFFFFFF AND DUP2 MSTORE PUSH1 0x20 ADD PUSH1 0x0 DUP1 SHL DUP2 MSTORE PUSH1 0x20 ADD PUSH1 0x0 PUSH20 0xFFFFFFFFFFFFFFFFFFFFFFFFFFFFFFFFFFFFFFFF AND DUP2 MSTORE PUSH1 0x20 ADD PUSH1 0x0 DUP1 SHL DUP2 MSTORE POP PUSH2 0x1259 JUMP JUMPDEST PUSH1 0x0 DUP1 DUP5 DUP2 MSTORE PUSH1 0x20 ADD SWAP1 DUP2 MSTORE PUSH1 0x20 ADD PUSH1 0x0 KECCAK256 DUP2 SWAP1 SSTORE POP DUP2 PUSH32 0x7DA0A0674FB921E484018C8B81D80E292745E5D8ED134B580C8B9C631C5E9E0 DUP3 PUSH1 0x40 MLOAD PUSH2 0x10C9 SWAP2 SWAP1 PUSH2 0x40D5 JUMP JUMPDEST PUSH1 0x40 MLOAD DUP1 SWAP2 SUB SWAP1 LOG2 POP POP JUMP JUMPDEST PUSH1 0x0 DUP1 PUSH1 0x40 MLOAD DUP1 PUSH1 0x40 ADD PUSH1 0x40 MSTORE DUP1 PUSH1 0x1C DUP2 MSTORE PUSH1 0x20 ADD PUSH32 0x19457468657265756D205369676E6564204D6573736167653A0A333200000000 DUP2 MSTORE POP DUP5 PUSH1 0x40 MLOAD PUSH1 0x20 ADD PUSH2 0x1120 SWAP3 SWAP2 SWAP1 PUSH2 0x3C85 JUMP JUMPDEST PUSH1 0x40 MLOAD PUSH1 0x20 DUP2 DUP4 SUB SUB DUP2 MSTORE SWAP1 PUSH1 0x40 MSTORE DUP1 MLOAD SWAP1 PUSH1 0x20 ADD KECCAK256 SWAP1 POP PUSH1 0x0 PUSH1 0x1 DUP3 DUP6 PUSH1 0x0 ADD MLOAD DUP7 PUSH1 0x20 ADD MLOAD DUP8 PUSH1 0x40 ADD MLOAD PUSH1 0x40 MLOAD PUSH1 0x0 DUP2 MSTORE PUSH1 0x20 ADD PUSH1 0x40 MSTORE PUSH1 0x40 MLOAD PUSH2 0x1169 SWAP5 SWAP4 SWAP3 SWAP2 SWAP1 PUSH2 0x3D85 JUMP JUMPDEST PUSH1 0x20 PUSH1 0x40 MLOAD PUSH1 0x20 DUP2 SUB SWAP1 DUP1 DUP5 SUB SWAP1 DUP6 GAS STATICCALL ISZERO DUP1 ISZERO PUSH2 0x118B JUMPI RETURNDATASIZE PUSH1 0x0 DUP1 RETURNDATACOPY RETURNDATASIZE PUSH1 0x0 REVERT JUMPDEST POP POP POP PUSH1 0x20 PUSH1 0x40 MLOAD SUB MLOAD SWAP1 POP DUP1 SWAP3 POP POP POP SWAP3 SWAP2 POP POP JUMP JUMPDEST PUSH1 0x0 DUP3 DUP6 MLOAD EQ PUSH2 0x11E7 JUMPI PUSH1 0x40 MLOAD PUSH32 0x8C379A000000000000000000000000000000000000000000000000000000000 DUP2 MSTORE PUSH1 0x4 ADD PUSH2 0x11DE SWAP1 PUSH2 0x3F0E JUMP JUMPDEST PUSH1 0x40 MLOAD DUP1 SWAP2 SUB SWAP1 REVERT JUMPDEST PUSH1 0x0 DUP1 SWAP1 POP JUMPDEST DUP4 DUP2 LT ISZERO PUSH2 0x124B JUMPI PUSH1 0x0 DUP5 DUP3 DUP8 PUSH6 0xFFFFFFFFFFFF AND DUP8 ADD SUB DUP2 PUSH2 0x120C JUMPI INVALID JUMPDEST MOD SWAP1 POP PUSH1 0x1 DUP5 SUB DUP2 DUP9 DUP5 DUP2 MLOAD DUP2 LT PUSH2 0x1220 JUMPI INVALID JUMPDEST PUSH1 0x20 MUL PUSH1 0x20 ADD ADD MLOAD PUSH1 0xFF AND ADD LT ISZERO PUSH2 0x123D JUMPI PUSH1 0x0 SWAP3 POP POP POP PUSH2 0x1251 JUMP JUMPDEST POP DUP1 DUP1 PUSH1 0x1 ADD SWAP2 POP POP PUSH2 0x11ED JUMP JUMPDEST POP PUSH1 0x1 SWAP1 POP JUMPDEST SWAP5 SWAP4 POP POP POP POP JUMP JUMPDEST PUSH1 0x0 DUP1 PUSH1 0x0 PUSH2 0x100 SWAP1 POP PUSH1 0x30 DUP2 SUB SWAP1 POP DUP1 PUSH2 0xFFFF AND DUP5 PUSH1 0x0 ADD MLOAD PUSH6 0xFFFFFFFFFFFF AND SWAP1 SHL SWAP2 POP PUSH1 0x30 DUP2 SUB SWAP1 POP DUP1 PUSH2 0xFFFF AND DUP5 PUSH1 0x20 ADD MLOAD PUSH6 0xFFFFFFFFFFFF AND SWAP1 SHL DUP3 OR SWAP2 POP DUP4 PUSH1 0x40 MLOAD PUSH1 0x20 ADD PUSH2 0x12AE SWAP2 SWAP1 PUSH2 0x400E JUMP JUMPDEST PUSH1 0x40 MLOAD PUSH1 0x20 DUP2 DUP4 SUB SUB DUP2 MSTORE SWAP1 PUSH1 0x40 MSTORE DUP1 MLOAD SWAP1 PUSH1 0x20 ADD KECCAK256 PUSH1 0x0 SHR PUSH20 0xFFFFFFFFFFFFFFFFFFFFFFFFFFFFFFFFFFFFFFFF AND DUP3 OR SWAP2 POP DUP2 PUSH1 0x0 SHL SWAP3 POP POP POP SWAP2 SWAP1 POP JUMP JUMPDEST PUSH1 0x2 DUP1 DUP2 GT ISZERO PUSH2 0x12FA JUMPI INVALID JUMPDEST PUSH2 0x1303 DUP3 PUSH2 0x179D JUMP JUMPDEST PUSH1 0x2 DUP2 GT ISZERO PUSH2 0x130E JUMPI INVALID JUMPDEST EQ PUSH2 0x134E JUMPI PUSH1 0x40 MLOAD PUSH32 0x8C379A000000000000000000000000000000000000000000000000000000000 DUP2 MSTORE PUSH1 0x4 ADD PUSH2 0x1345 SWAP1 PUSH2 0x3FCE JUMP JUMPDEST PUSH1 0x40 MLOAD DUP1 SWAP2 SUB SWAP1 REVERT JUMPDEST POP JUMP JUMPDEST PUSH2 0x136D DUP3 PUSH1 0x0 DUP1 DUP5 DUP2 MSTORE PUSH1 0x20 ADD SWAP1 DUP2 MSTORE PUSH1 0x20 ADD PUSH1 0x0 KECCAK256 SLOAD PUSH2 0x1D79 JUMP JUMPDEST PUSH2 0x13AC JUMPI PUSH1 0x40 MLOAD PUSH32 0x8C379A000000000000000000000000000000000000000000000000000000000 DUP2 MSTORE PUSH1 0x4 ADD PUSH2 0x13A3 SWAP1 PUSH2 0x3F6E JUMP JUMPDEST PUSH1 0x40 MLOAD DUP1 SWAP2 SUB SWAP1 REVERT JUMPDEST POP POP JUMP JUMPDEST PUSH1 0x0 DUP5 PUSH1 0x1 PUSH1 0x2 DUP2 LT PUSH2 0x13BF JUMPI INVALID JUMPDEST PUSH1 0x20 MUL ADD MLOAD ISZERO PUSH2 0x1441 JUMPI PUSH2 0x13FD DUP5 PUSH1 0x1 PUSH1 0x2 DUP2 LT PUSH2 0x13D9 JUMPI INVALID JUMPDEST PUSH1 0x20 MUL ADD MLOAD PUSH1 0x0 ADD MLOAD DUP6 PUSH1 0x0 PUSH1 0x2 DUP2 LT PUSH2 0x13EF JUMPI INVALID JUMPDEST PUSH1 0x20 MUL ADD MLOAD PUSH1 0x0 ADD MLOAD PUSH2 0x1D8E JUMP JUMPDEST PUSH2 0x143C JUMPI PUSH1 0x40 MLOAD PUSH32 0x8C379A000000000000000000000000000000000000000000000000000000000 DUP2 MSTORE PUSH1 0x4 ADD PUSH2 0x1433 SWAP1 PUSH2 0x3F4E JUMP JUMPDEST PUSH1 0x40 MLOAD DUP1 SWAP2 SUB SWAP1 REVERT JUMPDEST PUSH2 0x1670 JUMP JUMPDEST DUP5 PUSH1 0x0 PUSH1 0x2 DUP2 LT PUSH2 0x144E JUMPI INVALID JUMPDEST PUSH1 0x20 MUL ADD MLOAD ISZERO PUSH2 0x1493 JUMPI PUSH1 0x40 MLOAD PUSH32 0x8C379A000000000000000000000000000000000000000000000000000000000 DUP2 MSTORE PUSH1 0x4 ADD PUSH2 0x148A SWAP1 PUSH2 0x3F2E JUMP JUMPDEST PUSH1 0x40 MLOAD DUP1 SWAP2 SUB SWAP1 REVERT JUMPDEST DUP6 PUSH1 0x2 MUL DUP4 PUSH6 0xFFFFFFFFFFFF AND LT ISZERO PUSH2 0x15B4 JUMPI PUSH2 0x14DA DUP5 PUSH1 0x1 PUSH1 0x2 DUP2 LT PUSH2 0x14B6 JUMPI INVALID JUMPDEST PUSH1 0x20 MUL ADD MLOAD PUSH1 0x0 ADD MLOAD DUP6 PUSH1 0x0 PUSH1 0x2 DUP2 LT PUSH2 0x14CC JUMPI INVALID JUMPDEST PUSH1 0x20 MUL ADD MLOAD PUSH1 0x0 ADD MLOAD PUSH2 0x1D8E JUMP JUMPDEST PUSH2 0x1519 JUMPI PUSH1 0x40 MLOAD PUSH32 0x8C379A000000000000000000000000000000000000000000000000000000000 DUP2 MSTORE PUSH1 0x4 ADD PUSH2 0x1510 SWAP1 PUSH2 0x3EEE JUMP JUMPDEST PUSH1 0x40 MLOAD DUP1 SWAP2 SUB SWAP1 REVERT JUMPDEST DUP4 PUSH1 0x0 PUSH1 0x2 DUP2 LT PUSH2 0x1526 JUMPI INVALID JUMPDEST PUSH1 0x20 MUL ADD MLOAD PUSH1 0x20 ADD MLOAD PUSH1 0x40 MLOAD PUSH2 0x153C SWAP2 SWAP1 PUSH2 0x3C6E JUMP JUMPDEST PUSH1 0x40 MLOAD DUP1 SWAP2 SUB SWAP1 KECCAK256 DUP5 PUSH1 0x1 PUSH1 0x2 DUP2 LT PUSH2 0x1551 JUMPI INVALID JUMPDEST PUSH1 0x20 MUL ADD MLOAD PUSH1 0x20 ADD MLOAD PUSH1 0x40 MLOAD PUSH2 0x1567 SWAP2 SWAP1 PUSH2 0x3C6E JUMP JUMPDEST PUSH1 0x40 MLOAD DUP1 SWAP2 SUB SWAP1 KECCAK256 EQ PUSH2 0x15AF JUMPI PUSH1 0x40 MLOAD PUSH32 0x8C379A000000000000000000000000000000000000000000000000000000000 DUP2 MSTORE PUSH1 0x4 ADD PUSH2 0x15A6 SWAP1 PUSH2 0x3E0E JUMP JUMPDEST PUSH1 0x40 MLOAD DUP1 SWAP2 SUB SWAP1 REVERT JUMPDEST PUSH2 0x166F JUMP JUMPDEST DUP2 PUSH20 0xFFFFFFFFFFFFFFFFFFFFFFFFFFFFFFFFFFFFFFFF AND PUSH4 0xFD7A2F65 DUP6 PUSH1 0x0 PUSH1 0x2 DUP2 LT PUSH2 0x15DD JUMPI INVALID JUMPDEST PUSH1 0x20 MUL ADD MLOAD DUP7 PUSH1 0x1 PUSH1 0x2 DUP2 LT PUSH2 0x15EF JUMPI INVALID JUMPDEST PUSH1 0x20 MUL ADD MLOAD DUP7 DUP11 PUSH1 0x40 MLOAD DUP6 PUSH4 0xFFFFFFFF AND PUSH1 0xE0 SHL DUP2 MSTORE PUSH1 0x4 ADD PUSH2 0x1615 SWAP5 SWAP4 SWAP3 SWAP2 SWAP1 PUSH2 0x4044 JUMP JUMPDEST PUSH1 0x20 PUSH1 0x40 MLOAD DUP1 DUP4 SUB DUP2 DUP7 DUP1 EXTCODESIZE ISZERO DUP1 ISZERO PUSH2 0x162D JUMPI PUSH1 0x0 DUP1 REVERT JUMPDEST POP GAS STATICCALL ISZERO DUP1 ISZERO PUSH2 0x1641 JUMPI RETURNDATASIZE PUSH1 0x0 DUP1 RETURNDATACOPY RETURNDATASIZE PUSH1 0x0 REVERT JUMPDEST POP POP POP POP PUSH1 0x40 MLOAD RETURNDATASIZE PUSH1 0x1F NOT PUSH1 0x1F DUP3 ADD AND DUP3 ADD DUP1 PUSH1 0x40 MSTORE POP PUSH2 0x1665 SWAP2 SWAP1 DUP2 ADD SWAP1 PUSH2 0x2917 JUMP JUMPDEST PUSH2 0x166E JUMPI PUSH1 0x0 DUP1 REVERT JUMPDEST JUMPDEST JUMPDEST PUSH1 0x1 SWAP1 POP SWAP6 SWAP5 POP POP POP POP POP JUMP JUMPDEST PUSH1 0x60 DUP2 DUP1 PUSH1 0x20 ADD SWAP1 MLOAD PUSH2 0x1693 SWAP2 SWAP1 DUP2 ADD SWAP1 PUSH2 0x285B JUMP JUMPDEST SWAP1 POP PUSH1 0x0 DUP1 SWAP1 POP JUMPDEST DUP2 MLOAD DUP2 LT ISZERO PUSH2 0x1797 JUMPI PUSH2 0x16AC PUSH2 0x1E0D JUMP JUMPDEST DUP3 DUP3 DUP2 MLOAD DUP2 LT PUSH2 0x16B8 JUMPI INVALID JUMPDEST PUSH1 0x20 MUL PUSH1 0x20 ADD ADD MLOAD PUSH1 0x20 ADD MLOAD DUP1 PUSH1 0x20 ADD SWAP1 MLOAD PUSH2 0x16D7 SWAP2 SWAP1 DUP2 ADD SWAP1 PUSH2 0x2ABE JUMP JUMPDEST SWAP1 POP PUSH1 0x0 PUSH1 0x1 DUP2 GT ISZERO PUSH2 0x16E6 JUMPI INVALID JUMPDEST PUSH1 0xFF AND DUP2 PUSH1 0x0 ADD MLOAD PUSH1 0xFF AND EQ ISZERO PUSH2 0x1784 JUMPI DUP3 DUP3 DUP2 MLOAD DUP2 LT PUSH2 0x1703 JUMPI INVALID JUMPDEST PUSH1 0x20 MUL PUSH1 0x20 ADD ADD MLOAD PUSH1 0x0 ADD MLOAD PUSH20 0xFFFFFFFFFFFFFFFFFFFFFFFFFFFFFFFFFFFFFFFF AND PUSH4 0x22CBBE8 DUP7 DUP4 PUSH1 0x20 ADD MLOAD PUSH1 0x40 MLOAD DUP4 PUSH4 0xFFFFFFFF AND PUSH1 0xE0 SHL DUP2 MSTORE PUSH1 0x4 ADD PUSH2 0x174D SWAP3 SWAP2 SWAP1 PUSH2 0x3D27 JUMP JUMPDEST PUSH1 0x0 PUSH1 0x40 MLOAD DUP1 DUP4 SUB DUP2 PUSH1 0x0 DUP8 DUP1 EXTCODESIZE ISZERO DUP1 ISZERO PUSH2 0x1767 JUMPI PUSH1 0x0 DUP1 REVERT JUMPDEST POP GAS CALL ISZERO DUP1 ISZERO PUSH2 0x177B JUMPI RETURNDATASIZE PUSH1 0x0 DUP1 RETURNDATACOPY RETURNDATASIZE PUSH1 0x0 REVERT JUMPDEST POP POP POP POP PUSH2 0x1789 JUMP JUMPDEST PUSH1 0x0 DUP1 REVERT JUMPDEST POP DUP1 DUP1 PUSH1 0x1 ADD SWAP2 POP POP PUSH2 0x169B JUMP JUMPDEST POP POP POP POP JUMP JUMPDEST PUSH1 0x0 DUP1 PUSH2 0x17A9 DUP4 PUSH2 0x1A74 JUMP JUMPDEST POP SWAP2 POP POP PUSH1 0x0 DUP2 PUSH6 0xFFFFFFFFFFFF AND EQ ISZERO PUSH2 0x17C8 JUMPI PUSH1 0x0 SWAP2 POP POP PUSH2 0x17E7 JUMP JUMPDEST TIMESTAMP DUP2 PUSH6 0xFFFFFFFFFFFF AND GT PUSH2 0x17E1 JUMPI PUSH1 0x2 SWAP2 POP POP PUSH2 0x17E7 JUMP JUMPDEST PUSH1 0x1 SWAP2 POP POP JUMPDEST SWAP2 SWAP1 POP JUMP JUMPDEST PUSH1 0x0 PUSH2 0x17F7 DUP4 PUSH2 0x1A74 JUMP JUMPDEST POP POP SWAP1 POP DUP1 PUSH6 0xFFFFFFFFFFFF AND DUP3 PUSH6 0xFFFFFFFFFFFF AND LT ISZERO PUSH2 0x184E JUMPI PUSH1 0x40 MLOAD PUSH32 0x8C379A000000000000000000000000000000000000000000000000000000000 DUP2 MSTORE PUSH1 0x4 ADD PUSH2 0x1845 SWAP1 PUSH2 0x3E6E JUMP JUMPDEST PUSH1 0x40 MLOAD DUP1 SWAP2 SUB SWAP1 REVERT JUMPDEST POP POP POP JUMP JUMPDEST PUSH1 0x0 PUSH2 0x1885 DUP5 PUSH1 0x40 MLOAD PUSH1 0x20 ADD PUSH2 0x1869 SWAP2 SWAP1 PUSH2 0x3D57 JUMP JUMPDEST PUSH1 0x40 MLOAD PUSH1 0x20 DUP2 DUP4 SUB SUB DUP2 MSTORE SWAP1 PUSH1 0x40 MSTORE DUP1 MLOAD SWAP1 PUSH1 0x20 ADD KECCAK256 DUP4 PUSH2 0x10D5 JUMP JUMPDEST SWAP1 POP PUSH2 0x1891 DUP2 DUP5 PUSH2 0x19F9 JUMP JUMPDEST PUSH2 0x18D0 JUMPI PUSH1 0x40 MLOAD PUSH32 0x8C379A000000000000000000000000000000000000000000000000000000000 DUP2 MSTORE PUSH1 0x4 ADD PUSH2 0x18C7 SWAP1 PUSH2 0x3EAE JUMP JUMPDEST PUSH1 0x40 MLOAD DUP1 SWAP2 SUB SWAP1 REVERT JUMPDEST SWAP4 SWAP3 POP POP POP JUMP JUMPDEST PUSH1 0x0 DUP1 DUP6 MLOAD SWAP1 POP PUSH1 0x0 DUP6 MLOAD SWAP1 POP PUSH2 0x18F0 DUP5 DUP10 DUP5 DUP5 PUSH2 0x11A2 JUMP JUMPDEST PUSH2 0x192F JUMPI PUSH1 0x40 MLOAD PUSH32 0x8C379A000000000000000000000000000000000000000000000000000000000 DUP2 MSTORE PUSH1 0x4 ADD PUSH2 0x1926 SWAP1 PUSH2 0x3FAE JUMP JUMPDEST PUSH1 0x40 MLOAD DUP1 SWAP2 SUB SWAP1 REVERT JUMPDEST PUSH1 0x0 DUP1 SWAP1 POP JUMPDEST DUP3 DUP2 LT ISZERO PUSH2 0x19E8 JUMPI PUSH1 0x0 PUSH2 0x1985 DUP9 DUP8 DUP5 DUP2 MLOAD DUP2 LT PUSH2 0x194F JUMPI INVALID JUMPDEST PUSH1 0x20 MUL PUSH1 0x20 ADD ADD MLOAD PUSH1 0xFF AND DUP2 MLOAD DUP2 LT PUSH2 0x1964 JUMPI INVALID JUMPDEST PUSH1 0x20 MUL PUSH1 0x20 ADD ADD MLOAD DUP9 DUP5 DUP2 MLOAD DUP2 LT PUSH2 0x1978 JUMPI INVALID JUMPDEST PUSH1 0x20 MUL PUSH1 0x20 ADD ADD MLOAD PUSH2 0x10D5 JUMP JUMPDEST SWAP1 POP DUP9 DUP3 DUP2 MLOAD DUP2 LT PUSH2 0x1993 JUMPI INVALID JUMPDEST PUSH1 0x20 MUL PUSH1 0x20 ADD ADD MLOAD PUSH20 0xFFFFFFFFFFFFFFFFFFFFFFFFFFFFFFFFFFFFFFFF AND DUP2 PUSH20 0xFFFFFFFFFFFFFFFFFFFFFFFFFFFFFFFFFFFFFFFF AND EQ PUSH2 0x19DA JUMPI PUSH1 0x0 SWAP5 POP POP POP POP POP PUSH2 0x19F0 JUMP JUMPDEST POP DUP1 DUP1 PUSH1 0x1 ADD SWAP2 POP POP PUSH2 0x1935 JUMP JUMPDEST POP PUSH1 0x1 SWAP3 POP POP POP JUMPDEST SWAP6 SWAP5 POP POP POP POP POP JUMP JUMPDEST PUSH1 0x0 DUP1 PUSH1 0x0 SWAP1 POP JUMPDEST DUP3 MLOAD DUP2 LT ISZERO PUSH2 0x1A68 JUMPI DUP3 DUP2 DUP2 MLOAD DUP2 LT PUSH2 0x1A16 JUMPI INVALID JUMPDEST PUSH1 0x20 MUL PUSH1 0x20 ADD ADD MLOAD PUSH20 0xFFFFFFFFFFFFFFFFFFFFFFFFFFFFFFFFFFFFFFFF AND DUP5 PUSH20 0xFFFFFFFFFFFFFFFFFFFFFFFFFFFFFFFFFFFFFFFF AND EQ ISZERO PUSH2 0x1A5B JUMPI PUSH1 0x1 SWAP2 POP POP PUSH2 0x1A6E JUMP JUMPDEST DUP1 DUP1 PUSH1 0x1 ADD SWAP2 POP POP PUSH2 0x1A01 JUMP JUMPDEST POP PUSH1 0x0 SWAP1 POP JUMPDEST SWAP3 SWAP2 POP POP JUMP JUMPDEST PUSH1 0x0 DUP1 PUSH1 0x0 DUP1 PUSH1 0x0 DUP1 DUP7 DUP2 MSTORE PUSH1 0x20 ADD SWAP1 DUP2 MSTORE PUSH1 0x20 ADD PUSH1 0x0 KECCAK256 SLOAD SWAP1 POP PUSH1 0x0 PUSH2 0x100 SWAP1 POP PUSH1 0x30 DUP2 SUB SWAP1 POP DUP1 PUSH2 0xFFFF AND DUP3 PUSH1 0x0 SHR SWAP1 SHR SWAP5 POP PUSH1 0x30 DUP2 SUB SWAP1 POP DUP1 PUSH2 0xFFFF AND DUP3 PUSH1 0x0 SHR SWAP1 SHR SWAP4 POP DUP2 PUSH1 0x0 SHR SWAP3 POP POP POP SWAP2 SWAP4 SWAP1 SWAP3 POP JUMP JUMPDEST PUSH1 0x0 DUP2 PUSH1 0x40 MLOAD PUSH1 0x20 ADD PUSH2 0x1ADE SWAP2 SWAP1 PUSH2 0x3DEC JUMP JUMPDEST PUSH1 0x40 MLOAD PUSH1 0x20 DUP2 DUP4 SUB SUB DUP2 MSTORE SWAP1 PUSH1 0x40 MSTORE DUP1 MLOAD SWAP1 PUSH1 0x20 ADD KECCAK256 SWAP1 POP SWAP2 SWAP1 POP JUMP JUMPDEST PUSH1 0x0 PUSH1 0x40 MLOAD DUP1 PUSH1 0xA0 ADD PUSH1 0x40 MSTORE DUP1 DUP9 PUSH6 0xFFFFFFFFFFFF AND DUP2 MSTORE PUSH1 0x20 ADD DUP8 ISZERO ISZERO DUP2 MSTORE PUSH1 0x20 ADD DUP7 DUP2 MSTORE PUSH1 0x20 ADD DUP6 PUSH1 0x80 ADD MLOAD DUP7 PUSH1 0x60 ADD MLOAD DUP7 PUSH1 0x40 MLOAD PUSH1 0x20 ADD PUSH2 0x1B41 SWAP4 SWAP3 SWAP2 SWAP1 PUSH2 0x40F0 JUMP JUMPDEST PUSH1 0x40 MLOAD PUSH1 0x20 DUP2 DUP4 SUB SUB DUP2 MSTORE SWAP1 PUSH1 0x40 MSTORE DUP1 MLOAD SWAP1 PUSH1 0x20 ADD KECCAK256 DUP2 MSTORE PUSH1 0x20 ADD DUP4 DUP2 MSTORE POP PUSH1 0x40 MLOAD PUSH1 0x20 ADD PUSH2 0x1B70 SWAP2 SWAP1 PUSH2 0x4029 JUMP JUMPDEST PUSH1 0x40 MLOAD PUSH1 0x20 DUP2 DUP4 SUB SUB DUP2 MSTORE SWAP1 PUSH1 0x40 MSTORE DUP1 MLOAD SWAP1 PUSH1 0x20 ADD KECCAK256 SWAP1 POP SWAP7 SWAP6 POP POP POP POP POP POP JUMP JUMPDEST PUSH2 0x1B9C DUP3 DUP3 PUSH2 0x1351 JUMP JUMPDEST PUSH2 0x1BA5 DUP2 PUSH2 0x1DA9 JUMP JUMPDEST POP POP JUMP JUMPDEST PUSH1 0x60 DUP1 DUP6 MLOAD PUSH1 0x40 MLOAD SWAP1 DUP1 DUP3 MSTORE DUP1 PUSH1 0x20 MUL PUSH1 0x20 ADD DUP3 ADD PUSH1 0x40 MSTORE DUP1 ISZERO PUSH2 0x1BDC JUMPI DUP2 PUSH1 0x20 ADD PUSH1 0x20 DUP3 MUL DUP1 CODESIZE DUP4 CODECOPY DUP1 DUP3 ADD SWAP2 POP POP SWAP1 POP JUMPDEST POP SWAP1 POP PUSH1 0x0 PUSH1 0x1 DUP7 PUSH1 0xFF AND DUP10 SUB ADD SWAP1 POP PUSH1 0x0 DUP1 PUSH1 0x0 SWAP1 POP JUMPDEST DUP9 MLOAD DUP2 PUSH6 0xFFFFFFFFFFFF AND LT ISZERO PUSH2 0x1D69 JUMPI DUP1 PUSH1 0x1 DUP11 MLOAD DUP13 SUB ADD ADD SWAP2 POP PUSH2 0x1C77 DUP3 DUP5 PUSH6 0xFFFFFFFFFFFF AND DUP5 PUSH6 0xFFFFFFFFFFFF AND LT ISZERO DUP10 DUP10 DUP14 DUP7 PUSH6 0xFFFFFFFFFFFF AND DUP2 MLOAD DUP2 LT PUSH2 0x1C3E JUMPI INVALID JUMPDEST PUSH1 0x20 MUL PUSH1 0x20 ADD ADD MLOAD PUSH1 0x20 ADD MLOAD PUSH2 0x1C72 DUP16 DUP9 PUSH6 0xFFFFFFFFFFFF AND DUP2 MLOAD DUP2 LT PUSH2 0x1C61 JUMPI INVALID JUMPDEST PUSH1 0x20 MUL PUSH1 0x20 ADD ADD MLOAD PUSH1 0x0 ADD MLOAD PUSH2 0x1ACB JUMP JUMPDEST PUSH2 0x1AFB JUMP JUMPDEST DUP5 DUP3 PUSH6 0xFFFFFFFFFFFF AND DUP2 MLOAD DUP2 LT PUSH2 0x1C8B JUMPI INVALID JUMPDEST PUSH1 0x20 MUL PUSH1 0x20 ADD ADD DUP2 DUP2 MSTORE POP POP DUP10 PUSH6 0xFFFFFFFFFFFF AND DUP3 PUSH6 0xFFFFFFFFFFFF AND LT ISZERO PUSH2 0x1D5C JUMPI PUSH2 0x1D5A DUP7 PUSH1 0x20 ADD MLOAD MLOAD PUSH1 0x40 MLOAD DUP1 PUSH1 0x40 ADD PUSH1 0x40 MSTORE DUP1 DUP7 PUSH6 0xFFFFFFFFFFFF AND DUP7 PUSH6 0xFFFFFFFFFFFF AND LT ISZERO ISZERO ISZERO ISZERO ISZERO DUP2 MSTORE PUSH1 0x20 ADD DUP7 PUSH6 0xFFFFFFFFFFFF AND PUSH1 0x1 DUP8 ADD PUSH6 0xFFFFFFFFFFFF AND LT ISZERO ISZERO ISZERO ISZERO ISZERO DUP2 MSTORE POP PUSH1 0x40 MLOAD DUP1 PUSH1 0x40 ADD PUSH1 0x40 MSTORE DUP1 DUP14 DUP7 PUSH6 0xFFFFFFFFFFFF AND DUP2 MLOAD DUP2 LT PUSH2 0x1D1D JUMPI INVALID JUMPDEST PUSH1 0x20 MUL PUSH1 0x20 ADD ADD MLOAD DUP2 MSTORE PUSH1 0x20 ADD DUP14 PUSH1 0x1 DUP8 ADD PUSH6 0xFFFFFFFFFFFF AND DUP2 MLOAD DUP2 LT PUSH2 0x1D41 JUMPI INVALID JUMPDEST PUSH1 0x20 MUL PUSH1 0x20 ADD ADD MLOAD DUP2 MSTORE POP PUSH1 0x1 DUP7 ADD DUP11 PUSH1 0x60 ADD MLOAD PUSH2 0x13B0 JUMP JUMPDEST POP JUMPDEST DUP1 DUP1 PUSH1 0x1 ADD SWAP2 POP POP PUSH2 0x1BF4 JUMP JUMPDEST POP DUP3 SWAP4 POP POP POP POP SWAP6 SWAP5 POP POP POP POP POP JUMP JUMPDEST PUSH1 0x0 DUP2 PUSH2 0x1D85 DUP5 PUSH2 0x1259 JUMP JUMPDEST EQ SWAP1 POP SWAP3 SWAP2 POP POP JUMP JUMPDEST PUSH1 0x0 DUP2 DUP1 MLOAD SWAP1 PUSH1 0x20 ADD KECCAK256 DUP4 DUP1 MLOAD SWAP1 PUSH1 0x20 ADD KECCAK256 EQ SWAP1 POP SWAP3 SWAP2 POP POP JUMP JUMPDEST PUSH1 0x1 PUSH1 0x2 DUP2 GT ISZERO PUSH2 0x1DB6 JUMPI INVALID JUMPDEST PUSH2 0x1DBF DUP3 PUSH2 0x179D JUMP JUMPDEST PUSH1 0x2 DUP2 GT ISZERO PUSH2 0x1DCA JUMPI INVALID JUMPDEST EQ PUSH2 0x1E0A JUMPI PUSH1 0x40 MLOAD PUSH32 0x8C379A000000000000000000000000000000000000000000000000000000000 DUP2 MSTORE PUSH1 0x4 ADD PUSH2 0x1E01 SWAP1 PUSH2 0x3E8E JUMP JUMPDEST PUSH1 0x40 MLOAD DUP1 SWAP2 SUB SWAP1 REVERT JUMPDEST POP JUMP JUMPDEST PUSH1 0x40 MLOAD DUP1 PUSH1 0x40 ADD PUSH1 0x40 MSTORE DUP1 PUSH1 0x0 PUSH1 0xFF AND DUP2 MSTORE PUSH1 0x20 ADD PUSH1 0x60 DUP2 MSTORE POP SWAP1 JUMP JUMPDEST PUSH1 0x0 DUP2 CALLDATALOAD SWAP1 POP PUSH2 0x1E39 DUP2 PUSH2 0x45F7 JUMP JUMPDEST SWAP3 SWAP2 POP POP JUMP JUMPDEST PUSH1 0x0 DUP2 MLOAD SWAP1 POP PUSH2 0x1E4E DUP2 PUSH2 0x45F7 JUMP JUMPDEST SWAP3 SWAP2 POP POP JUMP JUMPDEST PUSH1 0x0 DUP3 PUSH1 0x1F DUP4 ADD SLT PUSH2 0x1E65 JUMPI PUSH1 0x0 DUP1 REVERT JUMPDEST DUP2 CALLDATALOAD PUSH2 0x1E78 PUSH2 0x1E73 DUP3 PUSH2 0x422C JUMP JUMPDEST PUSH2 0x41FF JUMP JUMPDEST SWAP2 POP DUP2 DUP2 DUP4 MSTORE PUSH1 0x20 DUP5 ADD SWAP4 POP PUSH1 0x20 DUP2 ADD SWAP1 POP DUP4 DUP6 PUSH1 0x20 DUP5 MUL DUP3 ADD GT ISZERO PUSH2 0x1E9D JUMPI PUSH1 0x0 DUP1 REVERT JUMPDEST PUSH1 0x0 JUMPDEST DUP4 DUP2 LT ISZERO PUSH2 0x1ECD JUMPI DUP2 PUSH2 0x1EB3 DUP9 DUP3 PUSH2 0x1E2A JUMP JUMPDEST DUP5 MSTORE PUSH1 0x20 DUP5 ADD SWAP4 POP PUSH1 0x20 DUP4 ADD SWAP3 POP POP PUSH1 0x1 DUP2 ADD SWAP1 POP PUSH2 0x1EA0 JUMP JUMPDEST POP POP POP POP SWAP3 SWAP2 POP POP JUMP JUMPDEST PUSH1 0x0 DUP3 PUSH1 0x1F DUP4 ADD SLT PUSH2 0x1EE8 JUMPI PUSH1 0x0 DUP1 REVERT JUMPDEST DUP2 CALLDATALOAD PUSH2 0x1EFB PUSH2 0x1EF6 DUP3 PUSH2 0x4254 JUMP JUMPDEST PUSH2 0x41FF JUMP JUMPDEST SWAP2 POP DUP2 DUP2 DUP4 MSTORE PUSH1 0x20 DUP5 ADD SWAP4 POP PUSH1 0x20 DUP2 ADD SWAP1 POP DUP4 DUP6 PUSH1 0x20 DUP5 MUL DUP3 ADD GT ISZERO PUSH2 0x1F20 JUMPI PUSH1 0x0 DUP1 REVERT JUMPDEST PUSH1 0x0 JUMPDEST DUP4 DUP2 LT ISZERO PUSH2 0x1F50 JUMPI DUP2 PUSH2 0x1F36 DUP9 DUP3 PUSH2 0x1E2A JUMP JUMPDEST DUP5 MSTORE PUSH1 0x20 DUP5 ADD SWAP4 POP PUSH1 0x20 DUP4 ADD SWAP3 POP POP PUSH1 0x1 DUP2 ADD SWAP1 POP PUSH2 0x1F23 JUMP JUMPDEST POP POP POP POP SWAP3 SWAP2 POP POP JUMP JUMPDEST PUSH1 0x0 DUP3 PUSH1 0x1F DUP4 ADD SLT PUSH2 0x1F6B JUMPI PUSH1 0x0 DUP1 REVERT JUMPDEST PUSH1 0x2 PUSH2 0x1F7E PUSH2 0x1F79 DUP3 PUSH2 0x427C JUMP JUMPDEST PUSH2 0x41FF JUMP JUMPDEST SWAP2 POP DUP2 DUP4 DUP6 PUSH1 0x20 DUP5 MUL DUP3 ADD GT ISZERO PUSH2 0x1F94 JUMPI PUSH1 0x0 DUP1 REVERT JUMPDEST PUSH1 0x0 JUMPDEST DUP4 DUP2 LT ISZERO PUSH2 0x1FC4 JUMPI DUP2 PUSH2 0x1FAA DUP9 DUP3 PUSH2 0x22A4 JUMP JUMPDEST DUP5 MSTORE PUSH1 0x20 DUP5 ADD SWAP4 POP PUSH1 0x20 DUP4 ADD SWAP3 POP POP PUSH1 0x1 DUP2 ADD SWAP1 POP PUSH2 0x1F97 JUMP JUMPDEST POP POP POP POP SWAP3 SWAP2 POP POP JUMP JUMPDEST PUSH1 0x0 DUP3 PUSH1 0x1F DUP4 ADD SLT PUSH2 0x1FDF JUMPI PUSH1 0x0 DUP1 REVERT JUMPDEST DUP2 CALLDATALOAD PUSH2 0x1FF2 PUSH2 0x1FED DUP3 PUSH2 0x429E JUMP JUMPDEST PUSH2 0x41FF JUMP JUMPDEST SWAP2 POP DUP2 DUP2 DUP4 MSTORE PUSH1 0x20 DUP5 ADD SWAP4 POP PUSH1 0x20 DUP2 ADD SWAP1 POP DUP4 DUP6 PUSH1 0x20 DUP5 MUL DUP3 ADD GT ISZERO PUSH2 0x2017 JUMPI PUSH1 0x0 DUP1 REVERT JUMPDEST PUSH1 0x0 JUMPDEST DUP4 DUP2 LT ISZERO PUSH2 0x2047 JUMPI DUP2 PUSH2 0x202D DUP9 DUP3 PUSH2 0x22CE JUMP JUMPDEST DUP5 MSTORE PUSH1 0x20 DUP5 ADD SWAP4 POP PUSH1 0x20 DUP4 ADD SWAP3 POP POP PUSH1 0x1 DUP2 ADD SWAP1 POP PUSH2 0x201A JUMP JUMPDEST POP POP POP POP SWAP3 SWAP2 POP POP JUMP JUMPDEST PUSH1 0x0 DUP3 PUSH1 0x1F DUP4 ADD SLT PUSH2 0x2062 JUMPI PUSH1 0x0 DUP1 REVERT JUMPDEST DUP2 MLOAD PUSH2 0x2075 PUSH2 0x2070 DUP3 PUSH2 0x42C6 JUMP JUMPDEST PUSH2 0x41FF JUMP JUMPDEST SWAP2 POP DUP2 DUP2 DUP4 MSTORE PUSH1 0x20 DUP5 ADD SWAP4 POP PUSH1 0x20 DUP2 ADD SWAP1 POP DUP4 PUSH1 0x0 JUMPDEST DUP4 DUP2 LT ISZERO PUSH2 0x20BB JUMPI DUP2 MLOAD DUP7 ADD PUSH2 0x20A1 DUP9 DUP3 PUSH2 0x256B JUMP JUMPDEST DUP5 MSTORE PUSH1 0x20 DUP5 ADD SWAP4 POP PUSH1 0x20 DUP4 ADD SWAP3 POP POP PUSH1 0x1 DUP2 ADD SWAP1 POP PUSH2 0x208B JUMP JUMPDEST POP POP POP POP SWAP3 SWAP2 POP POP JUMP JUMPDEST PUSH1 0x0 DUP3 PUSH1 0x1F DUP4 ADD SLT PUSH2 0x20D6 JUMPI PUSH1 0x0 DUP1 REVERT JUMPDEST DUP2 CALLDATALOAD PUSH2 0x20E9 PUSH2 0x20E4 DUP3 PUSH2 0x42EE JUMP JUMPDEST PUSH2 0x41FF JUMP JUMPDEST SWAP2 POP DUP2 DUP2 DUP4 MSTORE PUSH1 0x20 DUP5 ADD SWAP4 POP PUSH1 0x20 DUP2 ADD SWAP1 POP DUP4 DUP6 PUSH1 0x60 DUP5 MUL DUP3 ADD GT ISZERO PUSH2 0x210E JUMPI PUSH1 0x0 DUP1 REVERT JUMPDEST PUSH1 0x0 JUMPDEST DUP4 DUP2 LT ISZERO PUSH2 0x213E JUMPI DUP2 PUSH2 0x2124 DUP9 DUP3 PUSH2 0x25CF JUMP JUMPDEST DUP5 MSTORE PUSH1 0x20 DUP5 ADD SWAP4 POP PUSH1 0x60 DUP4 ADD SWAP3 POP POP PUSH1 0x1 DUP2 ADD SWAP1 POP PUSH2 0x2111 JUMP JUMPDEST POP POP POP POP SWAP3 SWAP2 POP POP JUMP JUMPDEST PUSH1 0x0 DUP3 PUSH1 0x1F DUP4 ADD SLT PUSH2 0x2159 JUMPI PUSH1 0x0 DUP1 REVERT JUMPDEST PUSH1 0x2 PUSH2 0x216C PUSH2 0x2167 DUP3 PUSH2 0x4316 JUMP JUMPDEST PUSH2 0x41FF JUMP JUMPDEST SWAP2 POP DUP2 DUP4 PUSH1 0x0 JUMPDEST DUP4 DUP2 LT ISZERO PUSH2 0x21A3 JUMPI DUP2 CALLDATALOAD DUP7 ADD PUSH2 0x2189 DUP9 DUP3 PUSH2 0x268F JUMP JUMPDEST DUP5 MSTORE PUSH1 0x20 DUP5 ADD SWAP4 POP PUSH1 0x20 DUP4 ADD SWAP3 POP POP PUSH1 0x1 DUP2 ADD SWAP1 POP PUSH2 0x2173 JUMP JUMPDEST POP POP POP POP SWAP3 SWAP2 POP POP JUMP JUMPDEST PUSH1 0x0 DUP3 PUSH1 0x1F DUP4 ADD SLT PUSH2 0x21BE JUMPI PUSH1 0x0 DUP1 REVERT JUMPDEST DUP2 CALLDATALOAD PUSH2 0x21D1 PUSH2 0x21CC DUP3 PUSH2 0x4338 JUMP JUMPDEST PUSH2 0x41FF JUMP JUMPDEST SWAP2 POP DUP2 DUP2 DUP4 MSTORE PUSH1 0x20 DUP5 ADD SWAP4 POP PUSH1 0x20 DUP2 ADD SWAP1 POP DUP4 PUSH1 0x0 JUMPDEST DUP4 DUP2 LT ISZERO PUSH2 0x2217 JUMPI DUP2 CALLDATALOAD DUP7 ADD PUSH2 0x21FD DUP9 DUP3 PUSH2 0x268F JUMP JUMPDEST DUP5 MSTORE PUSH1 0x20 DUP5 ADD SWAP4 POP PUSH1 0x20 DUP4 ADD SWAP3 POP POP PUSH1 0x1 DUP2 ADD SWAP1 POP PUSH2 0x21E7 JUMP JUMPDEST POP POP POP POP SWAP3 SWAP2 POP POP JUMP JUMPDEST PUSH1 0x0 DUP3 PUSH1 0x1F DUP4 ADD SLT PUSH2 0x2232 JUMPI PUSH1 0x0 DUP1 REVERT JUMPDEST DUP2 CALLDATALOAD PUSH2 0x2245 PUSH2 0x2240 DUP3 PUSH2 0x4360 JUMP JUMPDEST PUSH2 0x41FF JUMP JUMPDEST SWAP2 POP DUP2 DUP2 DUP4 MSTORE PUSH1 0x20 DUP5 ADD SWAP4 POP PUSH1 0x20 DUP2 ADD SWAP1 POP DUP4 DUP6 PUSH1 0x20 DUP5 MUL DUP3 ADD GT ISZERO PUSH2 0x226A JUMPI PUSH1 0x0 DUP1 REVERT JUMPDEST PUSH1 0x0 JUMPDEST DUP4 DUP2 LT ISZERO PUSH2 0x229A JUMPI DUP2 PUSH2 0x2280 DUP9 DUP3 PUSH2 0x2735 JUMP JUMPDEST DUP5 MSTORE PUSH1 0x20 DUP5 ADD SWAP4 POP PUSH1 0x20 DUP4 ADD SWAP3 POP POP PUSH1 0x1 DUP2 ADD SWAP1 POP PUSH2 0x226D JUMP JUMPDEST POP POP POP POP SWAP3 SWAP2 POP POP JUMP JUMPDEST PUSH1 0x0 DUP2 CALLDATALOAD SWAP1 POP PUSH2 0x22B3 DUP2 PUSH2 0x460E JUMP JUMPDEST SWAP3 SWAP2 POP POP JUMP JUMPDEST PUSH1 0x0 DUP2 MLOAD SWAP1 POP PUSH2 0x22C8 DUP2 PUSH2 0x460E JUMP JUMPDEST SWAP3 SWAP2 POP POP JUMP JUMPDEST PUSH1 0x0 DUP2 CALLDATALOAD SWAP1 POP PUSH2 0x22DD DUP2 PUSH2 0x4625 JUMP JUMPDEST SWAP3 SWAP2 POP POP JUMP JUMPDEST PUSH1 0x0 DUP3 PUSH1 0x1F DUP4 ADD SLT PUSH2 0x22F4 JUMPI PUSH1 0x0 DUP1 REVERT JUMPDEST DUP2 CALLDATALOAD PUSH2 0x2307 PUSH2 0x2302 DUP3 PUSH2 0x4388 JUMP JUMPDEST PUSH2 0x41FF JUMP JUMPDEST SWAP2 POP DUP1 DUP3 MSTORE PUSH1 0x20 DUP4 ADD PUSH1 0x20 DUP4 ADD DUP6 DUP4 DUP4 ADD GT ISZERO PUSH2 0x2323 JUMPI PUSH1 0x0 DUP1 REVERT JUMPDEST PUSH2 0x232E DUP4 DUP3 DUP5 PUSH2 0x459A JUMP JUMPDEST POP POP POP SWAP3 SWAP2 POP POP JUMP JUMPDEST PUSH1 0x0 DUP3 PUSH1 0x1F DUP4 ADD SLT PUSH2 0x2348 JUMPI PUSH1 0x0 DUP1 REVERT JUMPDEST DUP2 MLOAD PUSH2 0x235B PUSH2 0x2356 DUP3 PUSH2 0x4388 JUMP JUMPDEST PUSH2 0x41FF JUMP JUMPDEST SWAP2 POP DUP1 DUP3 MSTORE PUSH1 0x20 DUP4 ADD PUSH1 0x20 DUP4 ADD DUP6 DUP4 DUP4 ADD GT ISZERO PUSH2 0x2377 JUMPI PUSH1 0x0 DUP1 REVERT JUMPDEST PUSH2 0x2382 DUP4 DUP3 DUP5 PUSH2 0x45A9 JUMP JUMPDEST POP POP POP SWAP3 SWAP2 POP POP JUMP JUMPDEST PUSH1 0x0 DUP3 PUSH1 0x1F DUP4 ADD SLT PUSH2 0x239C JUMPI PUSH1 0x0 DUP1 REVERT JUMPDEST DUP2 CALLDATALOAD PUSH2 0x23AF PUSH2 0x23AA DUP3 PUSH2 0x43B4 JUMP JUMPDEST PUSH2 0x41FF JUMP JUMPDEST SWAP2 POP DUP1 DUP3 MSTORE PUSH1 0x20 DUP4 ADD PUSH1 0x20 DUP4 ADD DUP6 DUP4 DUP4 ADD GT ISZERO PUSH2 0x23CB JUMPI PUSH1 0x0 DUP1 REVERT JUMPDEST PUSH2 0x23D6 DUP4 DUP3 DUP5 PUSH2 0x459A JUMP JUMPDEST POP POP POP SWAP3 SWAP2 POP POP JUMP JUMPDEST PUSH1 0x0 PUSH1 0x40 DUP3 DUP5 SUB SLT ISZERO PUSH2 0x23F1 JUMPI PUSH1 0x0 DUP1 REVERT JUMPDEST PUSH2 0x23FB PUSH1 0x40 PUSH2 0x41FF JUMP JUMPDEST SWAP1 POP PUSH1 0x0 PUSH2 0x240B DUP5 DUP3 DUP6 ADD PUSH2 0x274A JUMP JUMPDEST PUSH1 0x0 DUP4 ADD MSTORE POP PUSH1 0x20 DUP3 ADD MLOAD PUSH8 0xFFFFFFFFFFFFFFFF DUP2 GT ISZERO PUSH2 0x242B JUMPI PUSH1 0x0 DUP1 REVERT JUMPDEST PUSH2 0x2437 DUP5 DUP3 DUP6 ADD PUSH2 0x2337 JUMP JUMPDEST PUSH1 0x20 DUP4 ADD MSTORE POP SWAP3 SWAP2 POP POP JUMP JUMPDEST PUSH1 0x0 PUSH1 0xA0 DUP3 DUP5 SUB SLT ISZERO PUSH2 0x2455 JUMPI PUSH1 0x0 DUP1 REVERT JUMPDEST PUSH2 0x245F PUSH1 0xA0 PUSH2 0x41FF JUMP JUMPDEST SWAP1 POP PUSH1 0x0 PUSH2 0x246F DUP5 DUP3 DUP6 ADD PUSH2 0x2720 JUMP JUMPDEST PUSH1 0x0 DUP4 ADD MSTORE POP PUSH1 0x20 PUSH2 0x2483 DUP5 DUP3 DUP6 ADD PUSH2 0x2720 JUMP JUMPDEST PUSH1 0x20 DUP4 ADD MSTORE POP PUSH1 0x40 PUSH2 0x2497 DUP5 DUP3 DUP6 ADD PUSH2 0x22CE JUMP JUMPDEST PUSH1 0x40 DUP4 ADD MSTORE POP PUSH1 0x60 PUSH2 0x24AB DUP5 DUP3 DUP6 ADD PUSH2 0x1E2A JUMP JUMPDEST PUSH1 0x60 DUP4 ADD MSTORE POP PUSH1 0x80 PUSH2 0x24BF DUP5 DUP3 DUP6 ADD PUSH2 0x22CE JUMP JUMPDEST PUSH1 0x80 DUP4 ADD MSTORE POP SWAP3 SWAP2 POP POP JUMP JUMPDEST PUSH1 0x0 PUSH1 0xA0 DUP3 DUP5 SUB SLT ISZERO PUSH2 0x24DD JUMPI PUSH1 0x0 DUP1 REVERT JUMPDEST PUSH2 0x24E7 PUSH1 0xA0 PUSH2 0x41FF JUMP JUMPDEST SWAP1 POP PUSH1 0x0 PUSH2 0x24F7 DUP5 DUP3 DUP6 ADD PUSH2 0x270B JUMP JUMPDEST PUSH1 0x0 DUP4 ADD MSTORE POP PUSH1 0x20 DUP3 ADD CALLDATALOAD PUSH8 0xFFFFFFFFFFFFFFFF DUP2 GT ISZERO PUSH2 0x2517 JUMPI PUSH1 0x0 DUP1 REVERT JUMPDEST PUSH2 0x2523 DUP5 DUP3 DUP6 ADD PUSH2 0x1E54 JUMP JUMPDEST PUSH1 0x20 DUP4 ADD MSTORE POP PUSH1 0x40 PUSH2 0x2537 DUP5 DUP3 DUP6 ADD PUSH2 0x2720 JUMP JUMPDEST PUSH1 0x40 DUP4 ADD MSTORE POP PUSH1 0x60 PUSH2 0x254B DUP5 DUP3 DUP6 ADD PUSH2 0x1E2A JUMP JUMPDEST PUSH1 0x60 DUP4 ADD MSTORE POP PUSH1 0x80 PUSH2 0x255F DUP5 DUP3 DUP6 ADD PUSH2 0x2720 JUMP JUMPDEST PUSH1 0x80 DUP4 ADD MSTORE POP SWAP3 SWAP2 POP POP JUMP JUMPDEST PUSH1 0x0 PUSH1 0x40 DUP3 DUP5 SUB SLT ISZERO PUSH2 0x257D JUMPI PUSH1 0x0 DUP1 REVERT JUMPDEST PUSH2 0x2587 PUSH1 0x40 PUSH2 0x41FF JUMP JUMPDEST SWAP1 POP PUSH1 0x0 PUSH2 0x2597 DUP5 DUP3 DUP6 ADD PUSH2 0x1E3F JUMP JUMPDEST PUSH1 0x0 DUP4 ADD MSTORE POP PUSH1 0x20 DUP3 ADD MLOAD PUSH8 0xFFFFFFFFFFFFFFFF DUP2 GT ISZERO PUSH2 0x25B7 JUMPI PUSH1 0x0 DUP1 REVERT JUMPDEST PUSH2 0x25C3 DUP5 DUP3 DUP6 ADD PUSH2 0x2337 JUMP JUMPDEST PUSH1 0x20 DUP4 ADD MSTORE POP SWAP3 SWAP2 POP POP JUMP JUMPDEST PUSH1 0x0 PUSH1 0x60 DUP3 DUP5 SUB SLT ISZERO PUSH2 0x25E1 JUMPI PUSH1 0x0 DUP1 REVERT JUMPDEST PUSH2 0x25EB PUSH1 0x60 PUSH2 0x41FF JUMP JUMPDEST SWAP1 POP PUSH1 0x0 PUSH2 0x25FB DUP5 DUP3 DUP6 ADD PUSH2 0x2735 JUMP JUMPDEST PUSH1 0x0 DUP4 ADD MSTORE POP PUSH1 0x20 PUSH2 0x260F DUP5 DUP3 DUP6 ADD PUSH2 0x22CE JUMP JUMPDEST PUSH1 0x20 DUP4 ADD MSTORE POP PUSH1 0x40 PUSH2 0x2623 DUP5 DUP3 DUP6 ADD PUSH2 0x22CE JUMP JUMPDEST PUSH1 0x40 DUP4 ADD MSTORE POP SWAP3 SWAP2 POP POP JUMP JUMPDEST PUSH1 0x0 PUSH1 0x60 DUP3 DUP5 SUB SLT ISZERO PUSH2 0x2641 JUMPI PUSH1 0x0 DUP1 REVERT JUMPDEST PUSH2 0x264B PUSH1 0x60 PUSH2 0x41FF JUMP JUMPDEST SWAP1 POP PUSH1 0x0 PUSH2 0x265B DUP5 DUP3 DUP6 ADD PUSH2 0x2735 JUMP JUMPDEST PUSH1 0x0 DUP4 ADD MSTORE POP PUSH1 0x20 PUSH2 0x266F DUP5 DUP3 DUP6 ADD PUSH2 0x22CE JUMP JUMPDEST PUSH1 0x20 DUP4 ADD MSTORE POP PUSH1 0x40 PUSH2 0x2683 DUP5 DUP3 DUP6 ADD PUSH2 0x22CE JUMP JUMPDEST PUSH1 0x40 DUP4 ADD MSTORE POP SWAP3 SWAP2 POP POP JUMP JUMPDEST PUSH1 0x0 PUSH1 0x40 DUP3 DUP5 SUB SLT ISZERO PUSH2 0x26A1 JUMPI PUSH1 0x0 DUP1 REVERT JUMPDEST PUSH2 0x26AB PUSH1 0x40 PUSH2 0x41FF JUMP JUMPDEST SWAP1 POP PUSH1 0x0 DUP3 ADD CALLDATALOAD PUSH8 0xFFFFFFFFFFFFFFFF DUP2 GT ISZERO PUSH2 0x26C7 JUMPI PUSH1 0x0 DUP1 REVERT JUMPDEST PUSH2 0x26D3 DUP5 DUP3 DUP6 ADD PUSH2 0x22E3 JUMP JUMPDEST PUSH1 0x0 DUP4 ADD MSTORE POP PUSH1 0x20 DUP3 ADD CALLDATALOAD PUSH8 0xFFFFFFFFFFFFFFFF DUP2 GT ISZERO PUSH2 0x26F3 JUMPI PUSH1 0x0 DUP1 REVERT JUMPDEST PUSH2 0x26FF DUP5 DUP3 DUP6 ADD PUSH2 0x22E3 JUMP JUMPDEST PUSH1 0x20 DUP4 ADD MSTORE POP SWAP3 SWAP2 POP POP JUMP JUMPDEST PUSH1 0x0 DUP2 CALLDATALOAD SWAP1 POP PUSH2 0x271A DUP2 PUSH2 0x463C JUMP JUMPDEST SWAP3 SWAP2 POP POP JUMP JUMPDEST PUSH1 0x0 DUP2 CALLDATALOAD SWAP1 POP PUSH2 0x272F DUP2 PUSH2 0x4653 JUMP JUMPDEST SWAP3 SWAP2 POP POP JUMP JUMPDEST PUSH1 0x0 DUP2 CALLDATALOAD SWAP1 POP PUSH2 0x2744 DUP2 PUSH2 0x466A JUMP JUMPDEST SWAP3 SWAP2 POP POP JUMP JUMPDEST PUSH1 0x0 DUP2 MLOAD SWAP1 POP PUSH2 0x2759 DUP2 PUSH2 0x466A JUMP JUMPDEST SWAP3 SWAP2 POP POP JUMP JUMPDEST PUSH1 0x0 DUP1 PUSH1 0x40 DUP4 DUP6 SUB SLT ISZERO PUSH2 0x2772 JUMPI PUSH1 0x0 DUP1 REVERT JUMPDEST PUSH1 0x0 PUSH2 0x2780 DUP6 DUP3 DUP7 ADD PUSH2 0x1E2A JUMP JUMPDEST SWAP3 POP POP PUSH1 0x20 DUP4 ADD CALLDATALOAD PUSH8 0xFFFFFFFFFFFFFFFF DUP2 GT ISZERO PUSH2 0x279D JUMPI PUSH1 0x0 DUP1 REVERT JUMPDEST PUSH2 0x27A9 DUP6 DUP3 DUP7 ADD PUSH2 0x1ED7 JUMP JUMPDEST SWAP2 POP POP SWAP3 POP SWAP3 SWAP1 POP JUMP JUMPDEST PUSH1 0x0 DUP1 PUSH1 0x0 DUP1 PUSH1 0x0 PUSH2 0x100 DUP7 DUP9 SUB SLT ISZERO PUSH2 0x27CC JUMPI PUSH1 0x0 DUP1 REVERT JUMPDEST PUSH1 0x0 PUSH2 0x27DA DUP9 DUP3 DUP10 ADD PUSH2 0x1E2A JUMP JUMPDEST SWAP6 POP POP PUSH1 0x20 PUSH2 0x27EB DUP9 DUP3 DUP10 ADD PUSH2 0x1F5A JUMP JUMPDEST SWAP5 POP POP PUSH1 0x60 DUP7 ADD CALLDATALOAD PUSH8 0xFFFFFFFFFFFFFFFF DUP2 GT ISZERO PUSH2 0x2808 JUMPI PUSH1 0x0 DUP1 REVERT JUMPDEST PUSH2 0x2814 DUP9 DUP3 DUP10 ADD PUSH2 0x24CB JUMP JUMPDEST SWAP4 POP POP PUSH1 0x80 DUP7 ADD CALLDATALOAD PUSH8 0xFFFFFFFFFFFFFFFF DUP2 GT ISZERO PUSH2 0x2831 JUMPI PUSH1 0x0 DUP1 REVERT JUMPDEST PUSH2 0x283D DUP9 DUP3 DUP10 ADD PUSH2 0x2148 JUMP JUMPDEST SWAP3 POP POP PUSH1 0xA0 PUSH2 0x284E DUP9 DUP3 DUP10 ADD PUSH2 0x262F JUMP JUMPDEST SWAP2 POP POP SWAP3 SWAP6 POP SWAP3 SWAP6 SWAP1 SWAP4 POP JUMP JUMPDEST PUSH1 0x0 PUSH1 0x20 DUP3 DUP5 SUB SLT ISZERO PUSH2 0x286D JUMPI PUSH1 0x0 DUP1 REVERT JUMPDEST PUSH1 0x0 DUP3 ADD MLOAD PUSH8 0xFFFFFFFFFFFFFFFF DUP2 GT ISZERO PUSH2 0x2887 JUMPI PUSH1 0x0 DUP1 REVERT JUMPDEST PUSH2 0x2893 DUP5 DUP3 DUP6 ADD PUSH2 0x2051 JUMP JUMPDEST SWAP2 POP POP SWAP3 SWAP2 POP POP JUMP JUMPDEST PUSH1 0x0 DUP1 PUSH1 0x0 DUP1 PUSH1 0x80 DUP6 DUP8 SUB SLT ISZERO PUSH2 0x28B2 JUMPI PUSH1 0x0 DUP1 REVERT JUMPDEST PUSH1 0x0 DUP6 ADD CALLDATALOAD PUSH8 0xFFFFFFFFFFFFFFFF DUP2 GT ISZERO PUSH2 0x28CC JUMPI PUSH1 0x0 DUP1 REVERT JUMPDEST PUSH2 0x28D8 DUP8 DUP3 DUP9 ADD PUSH2 0x2221 JUMP JUMPDEST SWAP5 POP POP PUSH1 0x20 PUSH2 0x28E9 DUP8 DUP3 DUP9 ADD PUSH2 0x2720 JUMP JUMPDEST SWAP4 POP POP PUSH1 0x40 PUSH2 0x28FA DUP8 DUP3 DUP9 ADD PUSH2 0x270B JUMP JUMPDEST SWAP3 POP POP PUSH1 0x60 PUSH2 0x290B DUP8 DUP3 DUP9 ADD PUSH2 0x270B JUMP JUMPDEST SWAP2 POP POP SWAP3 SWAP6 SWAP2 SWAP5 POP SWAP3 POP JUMP JUMPDEST PUSH1 0x0 PUSH1 0x20 DUP3 DUP5 SUB SLT ISZERO PUSH2 0x2929 JUMPI PUSH1 0x0 DUP1 REVERT JUMPDEST PUSH1 0x0 PUSH2 0x2937 DUP5 DUP3 DUP6 ADD PUSH2 0x22B9 JUMP JUMPDEST SWAP2 POP POP SWAP3 SWAP2 POP POP JUMP JUMPDEST PUSH1 0x0 PUSH1 0x20 DUP3 DUP5 SUB SLT ISZERO PUSH2 0x2952 JUMPI PUSH1 0x0 DUP1 REVERT JUMPDEST PUSH1 0x0 PUSH2 0x2960 DUP5 DUP3 DUP6 ADD PUSH2 0x22CE JUMP JUMPDEST SWAP2 POP POP SWAP3 SWAP2 POP POP JUMP JUMPDEST PUSH1 0x0 DUP1 PUSH1 0x40 DUP4 DUP6 SUB SLT ISZERO PUSH2 0x297C JUMPI PUSH1 0x0 DUP1 REVERT JUMPDEST PUSH1 0x0 PUSH2 0x298A DUP6 DUP3 DUP7 ADD PUSH2 0x22CE JUMP JUMPDEST SWAP3 POP POP PUSH1 0x20 PUSH2 0x299B DUP6 DUP3 DUP7 ADD PUSH2 0x22CE JUMP JUMPDEST SWAP2 POP POP SWAP3 POP SWAP3 SWAP1 POP JUMP JUMPDEST PUSH1 0x0 DUP1 PUSH1 0xC0 DUP4 DUP6 SUB SLT ISZERO PUSH2 0x29B8 JUMPI PUSH1 0x0 DUP1 REVERT JUMPDEST PUSH1 0x0 PUSH2 0x29C6 DUP6 DUP3 DUP7 ADD PUSH2 0x22CE JUMP JUMPDEST SWAP3 POP POP PUSH1 0x20 PUSH2 0x29D7 DUP6 DUP3 DUP7 ADD PUSH2 0x2443 JUMP JUMPDEST SWAP2 POP POP SWAP3 POP SWAP3 SWAP1 POP JUMP JUMPDEST PUSH1 0x0 DUP1 PUSH1 0x80 DUP4 DUP6 SUB SLT ISZERO PUSH2 0x29F4 JUMPI PUSH1 0x0 DUP1 REVERT JUMPDEST PUSH1 0x0 PUSH2 0x2A02 DUP6 DUP3 DUP7 ADD PUSH2 0x22CE JUMP JUMPDEST SWAP3 POP POP PUSH1 0x20 PUSH2 0x2A13 DUP6 DUP3 DUP7 ADD PUSH2 0x262F JUMP JUMPDEST SWAP2 POP POP SWAP3 POP SWAP3 SWAP1 POP JUMP JUMPDEST PUSH1 0x0 DUP1 PUSH1 0x0 DUP1 PUSH1 0x0 DUP1 PUSH1 0xC0 DUP8 DUP10 SUB SLT ISZERO PUSH2 0x2A36 JUMPI PUSH1 0x0 DUP1 REVERT JUMPDEST PUSH1 0x0 PUSH2 0x2A44 DUP10 DUP3 DUP11 ADD PUSH2 0x22CE JUMP JUMPDEST SWAP7 POP POP PUSH1 0x20 PUSH2 0x2A55 DUP10 DUP3 DUP11 ADD PUSH2 0x2720 JUMP JUMPDEST SWAP6 POP POP PUSH1 0x40 PUSH2 0x2A66 DUP10 DUP3 DUP11 ADD PUSH2 0x2720 JUMP JUMPDEST SWAP5 POP POP PUSH1 0x60 PUSH2 0x2A77 DUP10 DUP3 DUP11 ADD PUSH2 0x22CE JUMP JUMPDEST SWAP4 POP POP PUSH1 0x80 PUSH2 0x2A88 DUP10 DUP3 DUP11 ADD PUSH2 0x1E2A JUMP JUMPDEST SWAP3 POP POP PUSH1 0xA0 DUP8 ADD CALLDATALOAD PUSH8 0xFFFFFFFFFFFFFFFF DUP2 GT ISZERO PUSH2 0x2AA5 JUMPI PUSH1 0x0 DUP1 REVERT JUMPDEST PUSH2 0x2AB1 DUP10 DUP3 DUP11 ADD PUSH2 0x238B JUMP JUMPDEST SWAP2 POP POP SWAP3 SWAP6 POP SWAP3 SWAP6 POP SWAP3 SWAP6 JUMP JUMPDEST PUSH1 0x0 PUSH1 0x20 DUP3 DUP5 SUB SLT ISZERO PUSH2 0x2AD0 JUMPI PUSH1 0x0 DUP1 REVERT JUMPDEST PUSH1 0x0 DUP3 ADD MLOAD PUSH8 0xFFFFFFFFFFFFFFFF DUP2 GT ISZERO PUSH2 0x2AEA JUMPI PUSH1 0x0 DUP1 REVERT JUMPDEST PUSH2 0x2AF6 DUP5 DUP3 DUP6 ADD PUSH2 0x23DF JUMP JUMPDEST SWAP2 POP POP SWAP3 SWAP2 POP POP JUMP JUMPDEST PUSH1 0x0 DUP1 PUSH1 0x0 DUP1 PUSH1 0x0 DUP1 PUSH1 0xC0 DUP8 DUP10 SUB SLT ISZERO PUSH2 0x2B18 JUMPI PUSH1 0x0 DUP1 REVERT JUMPDEST PUSH1 0x0 DUP8 ADD CALLDATALOAD PUSH8 0xFFFFFFFFFFFFFFFF DUP2 GT ISZERO PUSH2 0x2B32 JUMPI PUSH1 0x0 DUP1 REVERT JUMPDEST PUSH2 0x2B3E DUP10 DUP3 DUP11 ADD PUSH2 0x24CB JUMP JUMPDEST SWAP7 POP POP PUSH1 0x20 PUSH2 0x2B4F DUP10 DUP3 DUP11 ADD PUSH2 0x2720 JUMP JUMPDEST SWAP6 POP POP PUSH1 0x40 DUP8 ADD CALLDATALOAD PUSH8 0xFFFFFFFFFFFFFFFF DUP2 GT ISZERO PUSH2 0x2B6C JUMPI PUSH1 0x0 DUP1 REVERT JUMPDEST PUSH2 0x2B78 DUP10 DUP3 DUP11 ADD PUSH2 0x21AD JUMP JUMPDEST SWAP5 POP POP PUSH1 0x60 PUSH2 0x2B89 DUP10 DUP3 DUP11 ADD PUSH2 0x2735 JUMP JUMPDEST SWAP4 POP POP PUSH1 0x80 DUP8 ADD CALLDATALOAD PUSH8 0xFFFFFFFFFFFFFFFF DUP2 GT ISZERO PUSH2 0x2BA6 JUMPI PUSH1 0x0 DUP1 REVERT JUMPDEST PUSH2 0x2BB2 DUP10 DUP3 DUP11 ADD PUSH2 0x20C5 JUMP JUMPDEST SWAP3 POP POP PUSH1 0xA0 DUP8 ADD CALLDATALOAD PUSH8 0xFFFFFFFFFFFFFFFF DUP2 GT ISZERO PUSH2 0x2BCF JUMPI PUSH1 0x0 DUP1 REVERT JUMPDEST PUSH2 0x2BDB DUP10 DUP3 DUP11 ADD PUSH2 0x2221 JUMP JUMPDEST SWAP2 POP POP SWAP3 SWAP6 POP SWAP3 SWAP6 POP SWAP3 SWAP6 JUMP JUMPDEST PUSH1 0x0 DUP1 PUSH1 0x0 DUP1 PUSH1 0x0 DUP1 PUSH1 0x0 PUSH2 0x120 DUP9 DUP11 SUB SLT ISZERO PUSH2 0x2C04 JUMPI PUSH1 0x0 DUP1 REVERT JUMPDEST PUSH1 0x0 DUP9 ADD CALLDATALOAD PUSH8 0xFFFFFFFFFFFFFFFF DUP2 GT ISZERO PUSH2 0x2C1E JUMPI PUSH1 0x0 DUP1 REVERT JUMPDEST PUSH2 0x2C2A DUP11 DUP3 DUP12 ADD PUSH2 0x24CB JUMP JUMPDEST SWAP8 POP POP PUSH1 0x20 PUSH2 0x2C3B DUP11 DUP3 DUP12 ADD PUSH2 0x2720 JUMP JUMPDEST SWAP7 POP POP PUSH1 0x40 DUP9 ADD CALLDATALOAD PUSH8 0xFFFFFFFFFFFFFFFF DUP2 GT ISZERO PUSH2 0x2C58 JUMPI PUSH1 0x0 DUP1 REVERT JUMPDEST PUSH2 0x2C64 DUP11 DUP3 DUP12 ADD PUSH2 0x21AD JUMP JUMPDEST SWAP6 POP POP PUSH1 0x60 PUSH2 0x2C75 DUP11 DUP3 DUP12 ADD PUSH2 0x2735 JUMP JUMPDEST SWAP5 POP POP PUSH1 0x80 DUP9 ADD CALLDATALOAD PUSH8 0xFFFFFFFFFFFFFFFF DUP2 GT ISZERO PUSH2 0x2C92 JUMPI PUSH1 0x0 DUP1 REVERT JUMPDEST PUSH2 0x2C9E DUP11 DUP3 DUP12 ADD PUSH2 0x20C5 JUMP JUMPDEST SWAP4 POP POP PUSH1 0xA0 DUP9 ADD CALLDATALOAD PUSH8 0xFFFFFFFFFFFFFFFF DUP2 GT ISZERO PUSH2 0x2CBB JUMPI PUSH1 0x0 DUP1 REVERT JUMPDEST PUSH2 0x2CC7 DUP11 DUP3 DUP12 ADD PUSH2 0x2221 JUMP JUMPDEST SWAP3 POP POP PUSH1 0xC0 PUSH2 0x2CD8 DUP11 DUP3 DUP12 ADD PUSH2 0x262F JUMP JUMPDEST SWAP2 POP POP SWAP3 SWAP6 SWAP9 SWAP2 SWAP5 SWAP8 POP SWAP3 SWAP6 POP JUMP JUMPDEST PUSH1 0x0 DUP1 PUSH1 0x0 DUP1 PUSH1 0x0 PUSH1 0xC0 DUP7 DUP9 SUB SLT ISZERO PUSH2 0x2CFF JUMPI PUSH1 0x0 DUP1 REVERT JUMPDEST PUSH1 0x0 PUSH2 0x2D0D DUP9 DUP3 DUP10 ADD PUSH2 0x270B JUMP JUMPDEST SWAP6 POP POP PUSH1 0x20 PUSH2 0x2D1E DUP9 DUP3 DUP10 ADD PUSH2 0x1F5A JUMP JUMPDEST SWAP5 POP POP PUSH1 0x60 DUP7 ADD CALLDATALOAD PUSH8 0xFFFFFFFFFFFFFFFF DUP2 GT ISZERO PUSH2 0x2D3B JUMPI PUSH1 0x0 DUP1 REVERT JUMPDEST PUSH2 0x2D47 DUP9 DUP3 DUP10 ADD PUSH2 0x2148 JUMP JUMPDEST SWAP4 POP POP PUSH1 0x80 PUSH2 0x2D58 DUP9 DUP3 DUP10 ADD PUSH2 0x2720 JUMP JUMPDEST SWAP3 POP POP PUSH1 0xA0 PUSH2 0x2D69 DUP9 DUP3 DUP10 ADD PUSH2 0x1E2A JUMP JUMPDEST SWAP2 POP POP SWAP3 SWAP6 POP SWAP3 SWAP6 SWAP1 SWAP4 POP JUMP JUMPDEST PUSH1 0x0 DUP1 PUSH1 0x0 DUP1 PUSH1 0x0 PUSH1 0xA0 DUP7 DUP9 SUB SLT ISZERO PUSH2 0x2D8E JUMPI PUSH1 0x0 DUP1 REVERT JUMPDEST PUSH1 0x0 PUSH2 0x2D9C DUP9 DUP3 DUP10 ADD PUSH2 0x2720 JUMP JUMPDEST SWAP6 POP POP PUSH1 0x20 DUP7 ADD CALLDATALOAD PUSH8 0xFFFFFFFFFFFFFFFF DUP2 GT ISZERO PUSH2 0x2DB9 JUMPI PUSH1 0x0 DUP1 REVERT JUMPDEST PUSH2 0x2DC5 DUP9 DUP3 DUP10 ADD PUSH2 0x1ED7 JUMP JUMPDEST SWAP5 POP POP PUSH1 0x40 DUP7 ADD CALLDATALOAD PUSH8 0xFFFFFFFFFFFFFFFF DUP2 GT ISZERO PUSH2 0x2DE2 JUMPI PUSH1 0x0 DUP1 REVERT JUMPDEST PUSH2 0x2DEE DUP9 DUP3 DUP10 ADD PUSH2 0x1FCE JUMP JUMPDEST SWAP4 POP POP PUSH1 0x60 DUP7 ADD CALLDATALOAD PUSH8 0xFFFFFFFFFFFFFFFF DUP2 GT ISZERO PUSH2 0x2E0B JUMPI PUSH1 0x0 DUP1 REVERT JUMPDEST PUSH2 0x2E17 DUP9 DUP3 DUP10 ADD PUSH2 0x20C5 JUMP JUMPDEST SWAP3 POP POP PUSH1 0x80 DUP7 ADD CALLDATALOAD PUSH8 0xFFFFFFFFFFFFFFFF DUP2 GT ISZERO PUSH2 0x2E34 JUMPI PUSH1 0x0 DUP1 REVERT JUMPDEST PUSH2 0x2E40 DUP9 DUP3 DUP10 ADD PUSH2 0x2221 JUMP JUMPDEST SWAP2 POP POP SWAP3 SWAP6 POP SWAP3 SWAP6 SWAP1 SWAP4 POP JUMP JUMPDEST PUSH1 0x0 DUP1 PUSH1 0x0 DUP1 PUSH1 0x0 DUP1 PUSH1 0x0 PUSH1 0xE0 DUP9 DUP11 SUB SLT ISZERO PUSH2 0x2E68 JUMPI PUSH1 0x0 DUP1 REVERT JUMPDEST PUSH1 0x0 PUSH2 0x2E76 DUP11 DUP3 DUP12 ADD PUSH2 0x2720 JUMP JUMPDEST SWAP8 POP POP PUSH1 0x20 DUP9 ADD CALLDATALOAD PUSH8 0xFFFFFFFFFFFFFFFF DUP2 GT ISZERO PUSH2 0x2E93 JUMPI PUSH1 0x0 DUP1 REVERT JUMPDEST PUSH2 0x2E9F DUP11 DUP3 DUP12 ADD PUSH2 0x24CB JUMP JUMPDEST SWAP7 POP POP PUSH1 0x40 PUSH2 0x2EB0 DUP11 DUP3 DUP12 ADD PUSH2 0x22CE JUMP JUMPDEST SWAP6 POP POP PUSH1 0x60 PUSH2 0x2EC1 DUP11 DUP3 DUP12 ADD PUSH2 0x22CE JUMP JUMPDEST SWAP5 POP POP PUSH1 0x80 PUSH2 0x2ED2 DUP11 DUP3 DUP12 ADD PUSH2 0x2735 JUMP JUMPDEST SWAP4 POP POP PUSH1 0xA0 DUP9 ADD CALLDATALOAD PUSH8 0xFFFFFFFFFFFFFFFF DUP2 GT ISZERO PUSH2 0x2EEF JUMPI PUSH1 0x0 DUP1 REVERT JUMPDEST PUSH2 0x2EFB DUP11 DUP3 DUP12 ADD PUSH2 0x2221 JUMP JUMPDEST SWAP3 POP POP PUSH1 0xC0 DUP9 ADD CALLDATALOAD PUSH8 0xFFFFFFFFFFFFFFFF DUP2 GT ISZERO PUSH2 0x2F18 JUMPI PUSH1 0x0 DUP1 REVERT JUMPDEST PUSH2 0x2F24 DUP11 DUP3 DUP12 ADD PUSH2 0x20C5 JUMP JUMPDEST SWAP2 POP POP SWAP3 SWAP6 SWAP9 SWAP2 SWAP5 SWAP8 POP SWAP3 SWAP6 POP JUMP JUMPDEST PUSH1 0x0 DUP1 PUSH1 0x0 DUP1 PUSH1 0x0 DUP1 PUSH1 0x0 PUSH1 0xE0 DUP9 DUP11 SUB SLT ISZERO PUSH2 0x2F4E JUMPI PUSH1 0x0 DUP1 REVERT JUMPDEST PUSH1 0x0 PUSH2 0x2F5C DUP11 DUP3 DUP12 ADD PUSH2 0x2720 JUMP JUMPDEST SWAP8 POP POP PUSH1 0x20 DUP9 ADD CALLDATALOAD PUSH8 0xFFFFFFFFFFFFFFFF DUP2 GT ISZERO PUSH2 0x2F79 JUMPI PUSH1 0x0 DUP1 REVERT JUMPDEST PUSH2 0x2F85 DUP11 DUP3 DUP12 ADD PUSH2 0x24CB JUMP JUMPDEST SWAP7 POP POP PUSH1 0x40 PUSH2 0x2F96 DUP11 DUP3 DUP12 ADD PUSH2 0x22CE JUMP JUMPDEST SWAP6 POP POP PUSH1 0x60 DUP9 ADD CALLDATALOAD PUSH8 0xFFFFFFFFFFFFFFFF DUP2 GT ISZERO PUSH2 0x2FB3 JUMPI PUSH1 0x0 DUP1 REVERT JUMPDEST PUSH2 0x2FBF DUP11 DUP3 DUP12 ADD PUSH2 0x238B JUMP JUMPDEST SWAP5 POP POP PUSH1 0x80 PUSH2 0x2FD0 DUP11 DUP3 DUP12 ADD PUSH2 0x2735 JUMP JUMPDEST SWAP4 POP POP PUSH1 0xA0 DUP9 ADD CALLDATALOAD PUSH8 0xFFFFFFFFFFFFFFFF DUP2 GT ISZERO PUSH2 0x2FED JUMPI PUSH1 0x0 DUP1 REVERT JUMPDEST PUSH2 0x2FF9 DUP11 DUP3 DUP12 ADD PUSH2 0x2221 JUMP JUMPDEST SWAP3 POP POP PUSH1 0xC0 DUP9 ADD CALLDATALOAD PUSH8 0xFFFFFFFFFFFFFFFF DUP2 GT ISZERO PUSH2 0x3016 JUMPI PUSH1 0x0 DUP1 REVERT JUMPDEST PUSH2 0x3022 DUP11 DUP3 DUP12 ADD PUSH2 0x20C5 JUMP JUMPDEST SWAP2 POP POP SWAP3 SWAP6 SWAP9 SWAP2 SWAP5 SWAP8 POP SWAP3 SWAP6 POP JUMP JUMPDEST PUSH1 0x0 PUSH2 0x303D DUP4 DUP4 PUSH2 0x308D JUMP JUMPDEST PUSH1 0x20 DUP4 ADD SWAP1 POP SWAP3 SWAP2 POP POP JUMP JUMPDEST PUSH1 0x0 PUSH2 0x3055 DUP4 DUP4 PUSH2 0x3AD3 JUMP JUMPDEST PUSH1 0x60 DUP4 ADD SWAP1 POP SWAP3 SWAP2 POP POP JUMP JUMPDEST PUSH1 0x0 PUSH2 0x306D DUP4 DUP4 PUSH2 0x3B7D JUMP JUMPDEST SWAP1 POP SWAP3 SWAP2 POP POP JUMP JUMPDEST PUSH1 0x0 PUSH2 0x3081 DUP4 DUP4 PUSH2 0x3C50 JUMP JUMPDEST PUSH1 0x20 DUP4 ADD SWAP1 POP SWAP3 SWAP2 POP POP JUMP JUMPDEST PUSH2 0x3096 DUP2 PUSH2 0x4529 JUMP JUMPDEST DUP3 MSTORE POP POP JUMP JUMPDEST PUSH2 0x30A5 DUP2 PUSH2 0x4529 JUMP JUMPDEST DUP3 MSTORE POP POP JUMP JUMPDEST PUSH1 0x0 PUSH2 0x30B6 DUP3 PUSH2 0x4420 JUMP JUMPDEST PUSH2 0x30C0 DUP2 DUP6 PUSH2 0x4496 JUMP JUMPDEST SWAP4 POP PUSH2 0x30CB DUP4 PUSH2 0x43E0 JUMP JUMPDEST DUP1 PUSH1 0x0 JUMPDEST DUP4 DUP2 LT ISZERO PUSH2 0x30FC JUMPI DUP2 MLOAD PUSH2 0x30E3 DUP9 DUP3 PUSH2 0x3031 JUMP JUMPDEST SWAP8 POP PUSH2 0x30EE DUP4 PUSH2 0x4462 JUMP JUMPDEST SWAP3 POP POP PUSH1 0x1 DUP2 ADD SWAP1 POP PUSH2 0x30CF JUMP JUMPDEST POP DUP6 SWAP4 POP POP POP POP SWAP3 SWAP2 POP POP JUMP JUMPDEST PUSH1 0x0 PUSH2 0x3114 DUP3 PUSH2 0x4420 JUMP JUMPDEST PUSH2 0x311E DUP2 DUP6 PUSH2 0x44A7 JUMP JUMPDEST SWAP4 POP PUSH2 0x3129 DUP4 PUSH2 0x43E0 JUMP JUMPDEST DUP1 PUSH1 0x0 JUMPDEST DUP4 DUP2 LT ISZERO PUSH2 0x315A JUMPI DUP2 MLOAD PUSH2 0x3141 DUP9 DUP3 PUSH2 0x3031 JUMP JUMPDEST SWAP8 POP PUSH2 0x314C DUP4 PUSH2 0x4462 JUMP JUMPDEST SWAP3 POP POP PUSH1 0x1 DUP2 ADD SWAP1 POP PUSH2 0x312D JUMP JUMPDEST POP DUP6 SWAP4 POP POP POP POP SWAP3 SWAP2 POP POP JUMP JUMPDEST PUSH1 0x0 PUSH2 0x3172 DUP3 PUSH2 0x442B JUMP JUMPDEST PUSH2 0x317C DUP2 DUP6 PUSH2 0x44B8 JUMP JUMPDEST SWAP4 POP PUSH2 0x3187 DUP4 PUSH2 0x43F0 JUMP JUMPDEST DUP1 PUSH1 0x0 JUMPDEST DUP4 DUP2 LT ISZERO PUSH2 0x31B8 JUMPI DUP2 MLOAD PUSH2 0x319F DUP9 DUP3 PUSH2 0x3049 JUMP JUMPDEST SWAP8 POP PUSH2 0x31AA DUP4 PUSH2 0x446F JUMP JUMPDEST SWAP3 POP POP PUSH1 0x1 DUP2 ADD SWAP1 POP PUSH2 0x318B JUMP JUMPDEST POP DUP6 SWAP4 POP POP POP POP SWAP3 SWAP2 POP POP JUMP JUMPDEST PUSH1 0x0 PUSH2 0x31D0 DUP3 PUSH2 0x4436 JUMP JUMPDEST PUSH2 0x31DA DUP2 DUP6 PUSH2 0x44C9 JUMP JUMPDEST SWAP4 POP DUP4 PUSH1 0x20 DUP3 MUL DUP6 ADD PUSH2 0x31EC DUP6 PUSH2 0x4400 JUMP JUMPDEST DUP1 PUSH1 0x0 JUMPDEST DUP6 DUP2 LT ISZERO PUSH2 0x3228 JUMPI DUP5 DUP5 SUB DUP10 MSTORE DUP2 MLOAD PUSH2 0x3209 DUP6 DUP3 PUSH2 0x3061 JUMP JUMPDEST SWAP5 POP PUSH2 0x3214 DUP4 PUSH2 0x447C JUMP JUMPDEST SWAP3 POP PUSH1 0x20 DUP11 ADD SWAP10 POP POP PUSH1 0x1 DUP2 ADD SWAP1 POP PUSH2 0x31F0 JUMP JUMPDEST POP DUP3 SWAP8 POP DUP8 SWAP6 POP POP POP POP POP POP SWAP3 SWAP2 POP POP JUMP JUMPDEST PUSH1 0x0 PUSH2 0x3245 DUP3 PUSH2 0x4441 JUMP JUMPDEST PUSH2 0x324F DUP2 DUP6 PUSH2 0x44DA JUMP JUMPDEST SWAP4 POP PUSH2 0x325A DUP4 PUSH2 0x4410 JUMP JUMPDEST DUP1 PUSH1 0x0 JUMPDEST DUP4 DUP2 LT ISZERO PUSH2 0x328B JUMPI DUP2 MLOAD PUSH2 0x3272 DUP9 DUP3 PUSH2 0x3075 JUMP JUMPDEST SWAP8 POP PUSH2 0x327D DUP4 PUSH2 0x4489 JUMP JUMPDEST SWAP3 POP POP PUSH1 0x1 DUP2 ADD SWAP1 POP PUSH2 0x325E JUMP JUMPDEST POP DUP6 SWAP4 POP POP POP POP SWAP3 SWAP2 POP POP JUMP JUMPDEST PUSH2 0x32A1 DUP2 PUSH2 0x453B JUMP JUMPDEST DUP3 MSTORE POP POP JUMP JUMPDEST PUSH2 0x32B0 DUP2 PUSH2 0x453B JUMP JUMPDEST DUP3 MSTORE POP POP JUMP JUMPDEST PUSH2 0x32BF DUP2 PUSH2 0x4547 JUMP JUMPDEST DUP3 MSTORE POP POP JUMP JUMPDEST PUSH2 0x32CE DUP2 PUSH2 0x4547 JUMP JUMPDEST DUP3 MSTORE POP POP JUMP JUMPDEST PUSH2 0x32E5 PUSH2 0x32E0 DUP3 PUSH2 0x4547 JUMP JUMPDEST PUSH2 0x45DC JUMP JUMPDEST DUP3 MSTORE POP POP JUMP JUMPDEST PUSH1 0x0 PUSH2 0x32F6 DUP3 PUSH2 0x4457 JUMP JUMPDEST PUSH2 0x3300 DUP2 DUP6 PUSH2 0x44FC JUMP JUMPDEST SWAP4 POP PUSH2 0x3310 DUP2 DUP6 PUSH1 0x20 DUP7 ADD PUSH2 0x45A9 JUMP JUMPDEST PUSH2 0x3319 DUP2 PUSH2 0x45E6 JUMP JUMPDEST DUP5 ADD SWAP2 POP POP SWAP3 SWAP2 POP POP JUMP JUMPDEST PUSH1 0x0 PUSH2 0x332F DUP3 PUSH2 0x444C JUMP JUMPDEST PUSH2 0x3339 DUP2 DUP6 PUSH2 0x44EB JUMP JUMPDEST SWAP4 POP PUSH2 0x3349 DUP2 DUP6 PUSH1 0x20 DUP7 ADD PUSH2 0x45A9 JUMP JUMPDEST PUSH2 0x3352 DUP2 PUSH2 0x45E6 JUMP JUMPDEST DUP5 ADD SWAP2 POP POP SWAP3 SWAP2 POP POP JUMP JUMPDEST PUSH1 0x0 PUSH2 0x3368 DUP3 PUSH2 0x444C JUMP JUMPDEST PUSH2 0x3372 DUP2 DUP6 PUSH2 0x44FC JUMP JUMPDEST SWAP4 POP PUSH2 0x3382 DUP2 DUP6 PUSH1 0x20 DUP7 ADD PUSH2 0x45A9 JUMP JUMPDEST PUSH2 0x338B DUP2 PUSH2 0x45E6 JUMP JUMPDEST DUP5 ADD SWAP2 POP POP SWAP3 SWAP2 POP POP JUMP JUMPDEST PUSH1 0x0 PUSH2 0x33A1 DUP3 PUSH2 0x444C JUMP JUMPDEST PUSH2 0x33AB DUP2 DUP6 PUSH2 0x450D JUMP JUMPDEST SWAP4 POP PUSH2 0x33BB DUP2 DUP6 PUSH1 0x20 DUP7 ADD PUSH2 0x45A9 JUMP JUMPDEST DUP1 DUP5 ADD SWAP2 POP POP SWAP3 SWAP2 POP POP JUMP JUMPDEST PUSH1 0x0 PUSH2 0x33D4 PUSH1 0x44 DUP4 PUSH2 0x4518 JUMP JUMPDEST SWAP2 POP PUSH32 0x496E76616C69645472616E736974696F6E4572726F723A2043616E6E6F742063 PUSH1 0x0 DUP4 ADD MSTORE PUSH32 0x68616E676520746865206170704461746120647572696E672073657475702070 PUSH1 0x20 DUP4 ADD MSTORE PUSH32 0x6861736500000000000000000000000000000000000000000000000000000000 PUSH1 0x40 DUP4 ADD MSTORE PUSH1 0x60 DUP3 ADD SWAP1 POP SWAP2 SWAP1 POP JUMP JUMPDEST PUSH1 0x0 PUSH2 0x3460 PUSH1 0x1C DUP4 PUSH2 0x4518 JUMP JUMPDEST SWAP2 POP PUSH32 0x7475726E4E756D5265636F7264206E6F7420696E637265617365642E00000000 PUSH1 0x0 DUP4 ADD MSTORE PUSH1 0x20 DUP3 ADD SWAP1 POP SWAP2 SWAP1 POP JUMP JUMPDEST PUSH1 0x0 PUSH2 0x34A0 PUSH1 0x12 DUP4 PUSH2 0x4518 JUMP JUMPDEST SWAP2 POP PUSH32 0x4368616E6E656C2066696E616C697A65642E0000000000000000000000000000 PUSH1 0x0 DUP4 ADD MSTORE PUSH1 0x20 DUP3 ADD SWAP1 POP SWAP2 SWAP1 POP JUMP JUMPDEST PUSH1 0x0 PUSH2 0x34E0 PUSH1 0x18 DUP4 PUSH2 0x4518 JUMP JUMPDEST SWAP2 POP PUSH32 0x7475726E4E756D5265636F7264206465637265617365642E0000000000000000 PUSH1 0x0 DUP4 ADD MSTORE PUSH1 0x20 DUP3 ADD SWAP1 POP SWAP2 SWAP1 POP JUMP JUMPDEST PUSH1 0x0 PUSH2 0x3520 PUSH1 0x15 DUP4 PUSH2 0x4518 JUMP JUMPDEST SWAP2 POP PUSH32 0x4E6F206F6E676F696E67206368616C6C656E67652E0000000000000000000000 PUSH1 0x0 DUP4 ADD MSTORE PUSH1 0x20 DUP3 ADD SWAP1 POP SWAP2 SWAP1 POP JUMP JUMPDEST PUSH1 0x0 PUSH2 0x3560 PUSH1 0x1F DUP4 PUSH2 0x4518 JUMP JUMPDEST SWAP2 POP PUSH32 0x4368616C6C656E676572206973206E6F742061207061727469636970616E7400 PUSH1 0x0 DUP4 ADD MSTORE PUSH1 0x20 DUP3 ADD SWAP1 POP SWAP2 SWAP1 POP JUMP JUMPDEST PUSH1 0x0 PUSH2 0x35A0 PUSH1 0x12 DUP4 PUSH2 0x4518 JUMP JUMPDEST SWAP2 POP PUSH32 0x496E76616C6964207369676E6174757265730000000000000000000000000000 PUSH1 0x0 DUP4 ADD MSTORE PUSH1 0x20 DUP3 ADD SWAP1 POP SWAP2 SWAP1 POP JUMP JUMPDEST PUSH1 0x0 PUSH2 0x35E0 PUSH1 0x4C DUP4 PUSH2 0x4518 JUMP JUMPDEST SWAP2 POP PUSH32 0x496E76616C69645472616E736974696F6E4572726F723A2043616E6E6F742063 PUSH1 0x0 DUP4 ADD MSTORE PUSH32 0x68616E6765207468652064656661756C74206F7574636F6D6520647572696E67 PUSH1 0x20 DUP4 ADD MSTORE PUSH32 0x2073657475702070686173650000000000000000000000000000000000000000 PUSH1 0x40 DUP4 ADD MSTORE PUSH1 0x60 DUP3 ADD SWAP1 POP SWAP2 SWAP1 POP JUMP JUMPDEST PUSH1 0x0 PUSH2 0x366C PUSH1 0x47 DUP4 PUSH2 0x4518 JUMP JUMPDEST SWAP2 POP PUSH32 0x5F76616C69645369676E6174757265733A2077686F5369676E65645768617420 PUSH1 0x0 DUP4 ADD MSTORE PUSH32 0x6D757374206265207468652073616D65206C656E677468206173207061727469 PUSH1 0x20 DUP4 ADD MSTORE PUSH32 0x636970616E747300000000000000000000000000000000000000000000000000 PUSH1 0x40 DUP4 ADD MSTORE PUSH1 0x60 DUP3 ADD SWAP1 POP SWAP2 SWAP1 POP JUMP JUMPDEST PUSH1 0x0 PUSH2 0x36F8 PUSH1 0x9 DUP4 PUSH2 0x4518 JUMP JUMPDEST SWAP2 POP PUSH32 0x666F7263654D6F76650000000000000000000000000000000000000000000000 PUSH1 0x0 DUP4 ADD MSTORE PUSH1 0x20 DUP3 ADD SWAP1 POP SWAP2 SWAP1 POP JUMP JUMPDEST PUSH1 0x0 PUSH2 0x3738 PUSH1 0x4B DUP4 PUSH2 0x4518 JUMP JUMPDEST SWAP2 POP PUSH32 0x496E76616C69645472616E736974696F6E4572726F723A2043616E6E6F74206D PUSH1 0x0 DUP4 ADD MSTORE PUSH32 0x6F76652066726F6D20612066696E616C20737461746520746F2061206E6F6E20 PUSH1 0x20 DUP4 ADD MSTORE PUSH32 0x66696E616C207374617465000000000000000000000000000000000000000000 PUSH1 0x40 DUP4 ADD MSTORE PUSH1 0x60 DUP3 ADD SWAP1 POP SWAP2 SWAP1 POP JUMP JUMPDEST PUSH1 0x0 PUSH2 0x37C4 PUSH1 0x55 DUP4 PUSH2 0x4518 JUMP JUMPDEST SWAP2 POP PUSH32 0x496E76616C69645472616E736974696F6E4572726F723A2043616E6E6F74206D PUSH1 0x0 DUP4 ADD MSTORE PUSH32 0x6F766520746F20612066696E616C207374617465207769746820612064696666 PUSH1 0x20 DUP4 ADD MSTORE PUSH32 0x6572656E742064656661756C74206F7574636F6D650000000000000000000000 PUSH1 0x40 DUP4 ADD MSTORE PUSH1 0x60 DUP3 ADD SWAP1 POP SWAP2 SWAP1 POP JUMP JUMPDEST PUSH1 0x0 PUSH2 0x3850 PUSH1 0x2E DUP4 PUSH2 0x4518 JUMP JUMPDEST SWAP2 POP PUSH32 0x4368616E6E656C2073746F7261676520646F6573206E6F74206D617463682073 PUSH1 0x0 DUP4 ADD MSTORE PUSH32 0x746F7265642076657273696F6E2E000000000000000000000000000000000000 PUSH1 0x20 DUP4 ADD MSTORE PUSH1 0x40 DUP3 ADD SWAP1 POP SWAP2 SWAP1 POP JUMP JUMPDEST PUSH1 0x0 PUSH2 0x38B6 PUSH1 0x2B DUP4 PUSH2 0x4518 JUMP JUMPDEST SWAP2 POP PUSH32 0x496E76616C6964207369676E617475726573204F5220697346696E616C3D7472 PUSH1 0x0 DUP4 ADD MSTORE PUSH32 0x7565206578706563746564000000000000000000000000000000000000000000 PUSH1 0x20 DUP4 ADD MSTORE PUSH1 0x40 DUP3 ADD SWAP1 POP SWAP2 SWAP1 POP JUMP JUMPDEST PUSH1 0x0 PUSH2 0x391C PUSH1 0x20 DUP4 PUSH2 0x4518 JUMP JUMPDEST SWAP2 POP PUSH32 0x556E61636365707461626C652077686F5369676E656457686174206172726179 PUSH1 0x0 DUP4 ADD MSTORE PUSH1 0x20 DUP3 ADD SWAP1 POP SWAP2 SWAP1 POP JUMP JUMPDEST PUSH1 0x0 PUSH2 0x395C PUSH1 0x16 DUP4 PUSH2 0x4518 JUMP JUMPDEST SWAP2 POP PUSH32 0x4368616E6E656C206E6F742066696E616C697A65642E00000000000000000000 PUSH1 0x0 DUP4 ADD MSTORE PUSH1 0x20 DUP3 ADD SWAP1 POP SWAP2 SWAP1 POP JUMP JUMPDEST PUSH1 0x0 PUSH2 0x399C PUSH1 0x27 DUP4 PUSH2 0x4518 JUMP JUMPDEST SWAP2 POP PUSH32 0x526573706F6E7365206E6F74207369676E656420627920617574686F72697A65 PUSH1 0x0 DUP4 ADD MSTORE PUSH32 0x64206D6F76657200000000000000000000000000000000000000000000000000 PUSH1 0x20 DUP4 ADD MSTORE PUSH1 0x40 DUP3 ADD SWAP1 POP SWAP2 SWAP1 POP JUMP JUMPDEST PUSH1 0xA0 DUP3 ADD PUSH1 0x0 DUP3 ADD MLOAD PUSH2 0x3A0B PUSH1 0x0 DUP6 ADD DUP3 PUSH2 0x3C32 JUMP JUMPDEST POP PUSH1 0x20 DUP3 ADD MLOAD PUSH2 0x3A1E PUSH1 0x20 DUP6 ADD DUP3 PUSH2 0x3C32 JUMP JUMPDEST POP PUSH1 0x40 DUP3 ADD MLOAD PUSH2 0x3A31 PUSH1 0x40 DUP6 ADD DUP3 PUSH2 0x32B6 JUMP JUMPDEST POP PUSH1 0x60 DUP3 ADD MLOAD PUSH2 0x3A44 PUSH1 0x60 DUP6 ADD DUP3 PUSH2 0x308D JUMP JUMPDEST POP PUSH1 0x80 DUP3 ADD MLOAD PUSH2 0x3A57 PUSH1 0x80 DUP6 ADD DUP3 PUSH2 0x32B6 JUMP JUMPDEST POP POP POP POP JUMP JUMPDEST PUSH1 0x0 PUSH1 0xA0 DUP4 ADD PUSH1 0x0 DUP4 ADD MLOAD PUSH2 0x3A75 PUSH1 0x0 DUP7 ADD DUP3 PUSH2 0x3C14 JUMP JUMPDEST POP PUSH1 0x20 DUP4 ADD MLOAD DUP5 DUP3 SUB PUSH1 0x20 DUP7 ADD MSTORE PUSH2 0x3A8D DUP3 DUP3 PUSH2 0x30AB JUMP JUMPDEST SWAP2 POP POP PUSH1 0x40 DUP4 ADD MLOAD PUSH2 0x3AA2 PUSH1 0x40 DUP7 ADD DUP3 PUSH2 0x3C32 JUMP JUMPDEST POP PUSH1 0x60 DUP4 ADD MLOAD PUSH2 0x3AB5 PUSH1 0x60 DUP7 ADD DUP3 PUSH2 0x308D JUMP JUMPDEST POP PUSH1 0x80 DUP4 ADD MLOAD PUSH2 0x3AC8 PUSH1 0x80 DUP7 ADD DUP3 PUSH2 0x3C32 JUMP JUMPDEST POP DUP1 SWAP2 POP POP SWAP3 SWAP2 POP POP JUMP JUMPDEST PUSH1 0x60 DUP3 ADD PUSH1 0x0 DUP3 ADD MLOAD PUSH2 0x3AE9 PUSH1 0x0 DUP6 ADD DUP3 PUSH2 0x3C50 JUMP JUMPDEST POP PUSH1 0x20 DUP3 ADD MLOAD PUSH2 0x3AFC PUSH1 0x20 DUP6 ADD DUP3 PUSH2 0x32B6 JUMP JUMPDEST POP PUSH1 0x40 DUP3 ADD MLOAD PUSH2 0x3B0F PUSH1 0x40 DUP6 ADD DUP3 PUSH2 0x32B6 JUMP JUMPDEST POP POP POP POP JUMP JUMPDEST PUSH1 0xA0 DUP3 ADD PUSH1 0x0 DUP3 ADD MLOAD PUSH2 0x3B2B PUSH1 0x0 DUP6 ADD DUP3 PUSH2 0x3C32 JUMP JUMPDEST POP PUSH1 0x20 DUP3 ADD MLOAD PUSH2 0x3B3E PUSH1 0x20 DUP6 ADD DUP3 PUSH2 0x3298 JUMP JUMPDEST POP PUSH1 0x40 DUP3 ADD MLOAD PUSH2 0x3B51 PUSH1 0x40 DUP6 ADD DUP3 PUSH2 0x32B6 JUMP JUMPDEST POP PUSH1 0x60 DUP3 ADD MLOAD PUSH2 0x3B64 PUSH1 0x60 DUP6 ADD DUP3 PUSH2 0x32B6 JUMP JUMPDEST POP PUSH1 0x80 DUP3 ADD MLOAD PUSH2 0x3B77 PUSH1 0x80 DUP6 ADD DUP3 PUSH2 0x32B6 JUMP JUMPDEST POP POP POP POP JUMP JUMPDEST PUSH1 0x0 PUSH1 0x40 DUP4 ADD PUSH1 0x0 DUP4 ADD MLOAD DUP5 DUP3 SUB PUSH1 0x0 DUP7 ADD MSTORE PUSH2 0x3B9A DUP3 DUP3 PUSH2 0x3324 JUMP JUMPDEST SWAP2 POP POP PUSH1 0x20 DUP4 ADD MLOAD DUP5 DUP3 SUB PUSH1 0x20 DUP7 ADD MSTORE PUSH2 0x3BB4 DUP3 DUP3 PUSH2 0x3324 JUMP JUMPDEST SWAP2 POP POP DUP1 SWAP2 POP POP SWAP3 SWAP2 POP POP JUMP JUMPDEST PUSH1 0x0 PUSH1 0x40 DUP4 ADD PUSH1 0x0 DUP4 ADD MLOAD DUP5 DUP3 SUB PUSH1 0x0 DUP7 ADD MSTORE PUSH2 0x3BDE DUP3 DUP3 PUSH2 0x3324 JUMP JUMPDEST SWAP2 POP POP PUSH1 0x20 DUP4 ADD MLOAD DUP5 DUP3 SUB PUSH1 0x20 DUP7 ADD MSTORE PUSH2 0x3BF8 DUP3 DUP3 PUSH2 0x3324 JUMP JUMPDEST SWAP2 POP POP DUP1 SWAP2 POP POP SWAP3 SWAP2 POP POP JUMP JUMPDEST PUSH2 0x3C0E DUP2 PUSH2 0x4551 JUMP JUMPDEST DUP3 MSTORE POP POP JUMP JUMPDEST PUSH2 0x3C1D DUP2 PUSH2 0x4571 JUMP JUMPDEST DUP3 MSTORE POP POP JUMP JUMPDEST PUSH2 0x3C2C DUP2 PUSH2 0x4571 JUMP JUMPDEST DUP3 MSTORE POP POP JUMP JUMPDEST PUSH2 0x3C3B DUP2 PUSH2 0x457B JUMP JUMPDEST DUP3 MSTORE POP POP JUMP JUMPDEST PUSH2 0x3C4A DUP2 PUSH2 0x457B JUMP JUMPDEST DUP3 MSTORE POP POP JUMP JUMPDEST PUSH2 0x3C59 DUP2 PUSH2 0x458D JUMP JUMPDEST DUP3 MSTORE POP POP JUMP JUMPDEST PUSH2 0x3C68 DUP2 PUSH2 0x458D JUMP JUMPDEST DUP3 MSTORE POP POP JUMP JUMPDEST PUSH1 0x0 PUSH2 0x3C7A DUP3 DUP5 PUSH2 0x3396 JUMP JUMPDEST SWAP2 POP DUP2 SWAP1 POP SWAP3 SWAP2 POP POP JUMP JUMPDEST PUSH1 0x0 PUSH2 0x3C91 DUP3 DUP6 PUSH2 0x3396 JUMP JUMPDEST SWAP2 POP PUSH2 0x3C9D DUP3 DUP5 PUSH2 0x32D4 JUMP JUMPDEST PUSH1 0x20 DUP3 ADD SWAP2 POP DUP2 SWAP1 POP SWAP4 SWAP3 POP POP POP JUMP JUMPDEST PUSH1 0x0 PUSH1 0x20 DUP3 ADD SWAP1 POP PUSH2 0x3CC2 PUSH1 0x0 DUP4 ADD DUP5 PUSH2 0x309C JUMP JUMPDEST SWAP3 SWAP2 POP POP JUMP JUMPDEST PUSH1 0x0 PUSH1 0x20 DUP3 ADD SWAP1 POP PUSH2 0x3CDD PUSH1 0x0 DUP4 ADD DUP5 PUSH2 0x32A7 JUMP JUMPDEST SWAP3 SWAP2 POP POP JUMP JUMPDEST PUSH1 0x0 PUSH1 0x20 DUP3 ADD SWAP1 POP PUSH2 0x3CF8 PUSH1 0x0 DUP4 ADD DUP5 PUSH2 0x32C5 JUMP JUMPDEST SWAP3 SWAP2 POP POP JUMP JUMPDEST PUSH1 0x0 PUSH1 0x40 DUP3 ADD SWAP1 POP PUSH2 0x3D13 PUSH1 0x0 DUP4 ADD DUP6 PUSH2 0x32C5 JUMP JUMPDEST PUSH2 0x3D20 PUSH1 0x20 DUP4 ADD DUP5 PUSH2 0x32C5 JUMP JUMPDEST SWAP4 SWAP3 POP POP POP JUMP JUMPDEST PUSH1 0x0 PUSH1 0x40 DUP3 ADD SWAP1 POP PUSH2 0x3D3C PUSH1 0x0 DUP4 ADD DUP6 PUSH2 0x32C5 JUMP JUMPDEST DUP2 DUP2 SUB PUSH1 0x20 DUP4 ADD MSTORE PUSH2 0x3D4E DUP2 DUP5 PUSH2 0x335D JUMP JUMPDEST SWAP1 POP SWAP4 SWAP3 POP POP POP JUMP JUMPDEST PUSH1 0x0 PUSH1 0x40 DUP3 ADD SWAP1 POP PUSH2 0x3D6C PUSH1 0x0 DUP4 ADD DUP5 PUSH2 0x32C5 JUMP JUMPDEST DUP2 DUP2 SUB PUSH1 0x20 DUP4 ADD MSTORE PUSH2 0x3D7D DUP2 PUSH2 0x36EB JUMP JUMPDEST SWAP1 POP SWAP3 SWAP2 POP POP JUMP JUMPDEST PUSH1 0x0 PUSH1 0x80 DUP3 ADD SWAP1 POP PUSH2 0x3D9A PUSH1 0x0 DUP4 ADD DUP8 PUSH2 0x32C5 JUMP JUMPDEST PUSH2 0x3DA7 PUSH1 0x20 DUP4 ADD DUP7 PUSH2 0x3C5F JUMP JUMPDEST PUSH2 0x3DB4 PUSH1 0x40 DUP4 ADD DUP6 PUSH2 0x32C5 JUMP JUMPDEST PUSH2 0x3DC1 PUSH1 0x60 DUP4 ADD DUP5 PUSH2 0x32C5 JUMP JUMPDEST SWAP6 SWAP5 POP POP POP POP POP JUMP JUMPDEST PUSH1 0x0 PUSH1 0x20 DUP3 ADD SWAP1 POP DUP2 DUP2 SUB PUSH1 0x0 DUP4 ADD MSTORE PUSH2 0x3DE4 DUP2 DUP5 PUSH2 0x335D JUMP JUMPDEST SWAP1 POP SWAP3 SWAP2 POP POP JUMP JUMPDEST PUSH1 0x0 PUSH1 0x20 DUP3 ADD SWAP1 POP DUP2 DUP2 SUB PUSH1 0x0 DUP4 ADD MSTORE PUSH2 0x3E06 DUP2 DUP5 PUSH2 0x32EB JUMP JUMPDEST SWAP1 POP SWAP3 SWAP2 POP POP JUMP JUMPDEST PUSH1 0x0 PUSH1 0x20 DUP3 ADD SWAP1 POP DUP2 DUP2 SUB PUSH1 0x0 DUP4 ADD MSTORE PUSH2 0x3E27 DUP2 PUSH2 0x33C7 JUMP JUMPDEST SWAP1 POP SWAP2 SWAP1 POP JUMP JUMPDEST PUSH1 0x0 PUSH1 0x20 DUP3 ADD SWAP1 POP DUP2 DUP2 SUB PUSH1 0x0 DUP4 ADD MSTORE PUSH2 0x3E47 DUP2 PUSH2 0x3453 JUMP JUMPDEST SWAP1 POP SWAP2 SWAP1 POP JUMP JUMPDEST PUSH1 0x0 PUSH1 0x20 DUP3 ADD SWAP1 POP DUP2 DUP2 SUB PUSH1 0x0 DUP4 ADD MSTORE PUSH2 0x3E67 DUP2 PUSH2 0x3493 JUMP JUMPDEST SWAP1 POP SWAP2 SWAP1 POP JUMP JUMPDEST PUSH1 0x0 PUSH1 0x20 DUP3 ADD SWAP1 POP DUP2 DUP2 SUB PUSH1 0x0 DUP4 ADD MSTORE PUSH2 0x3E87 DUP2 PUSH2 0x34D3 JUMP JUMPDEST SWAP1 POP SWAP2 SWAP1 POP JUMP JUMPDEST PUSH1 0x0 PUSH1 0x20 DUP3 ADD SWAP1 POP DUP2 DUP2 SUB PUSH1 0x0 DUP4 ADD MSTORE PUSH2 0x3EA7 DUP2 PUSH2 0x3513 JUMP JUMPDEST SWAP1 POP SWAP2 SWAP1 POP JUMP JUMPDEST PUSH1 0x0 PUSH1 0x20 DUP3 ADD SWAP1 POP DUP2 DUP2 SUB PUSH1 0x0 DUP4 ADD MSTORE PUSH2 0x3EC7 DUP2 PUSH2 0x3553 JUMP JUMPDEST SWAP1 POP SWAP2 SWAP1 POP JUMP JUMPDEST PUSH1 0x0 PUSH1 0x20 DUP3 ADD SWAP1 POP DUP2 DUP2 SUB PUSH1 0x0 DUP4 ADD MSTORE PUSH2 0x3EE7 DUP2 PUSH2 0x3593 JUMP JUMPDEST SWAP1 POP SWAP2 SWAP1 POP JUMP JUMPDEST PUSH1 0x0 PUSH1 0x20 DUP3 ADD SWAP1 POP DUP2 DUP2 SUB PUSH1 0x0 DUP4 ADD MSTORE PUSH2 0x3F07 DUP2 PUSH2 0x35D3 JUMP JUMPDEST SWAP1 POP SWAP2 SWAP1 POP JUMP JUMPDEST PUSH1 0x0 PUSH1 0x20 DUP3 ADD SWAP1 POP DUP2 DUP2 SUB PUSH1 0x0 DUP4 ADD MSTORE PUSH2 0x3F27 DUP2 PUSH2 0x365F JUMP JUMPDEST SWAP1 POP SWAP2 SWAP1 POP JUMP JUMPDEST PUSH1 0x0 PUSH1 0x20 DUP3 ADD SWAP1 POP DUP2 DUP2 SUB PUSH1 0x0 DUP4 ADD MSTORE PUSH2 0x3F47 DUP2 PUSH2 0x372B JUMP JUMPDEST SWAP1 POP SWAP2 SWAP1 POP JUMP JUMPDEST PUSH1 0x0 PUSH1 0x20 DUP3 ADD SWAP1 POP DUP2 DUP2 SUB PUSH1 0x0 DUP4 ADD MSTORE PUSH2 0x3F67 DUP2 PUSH2 0x37B7 JUMP JUMPDEST SWAP1 POP SWAP2 SWAP1 POP JUMP JUMPDEST PUSH1 0x0 PUSH1 0x20 DUP3 ADD SWAP1 POP DUP2 DUP2 SUB PUSH1 0x0 DUP4 ADD MSTORE PUSH2 0x3F87 DUP2 PUSH2 0x3843 JUMP JUMPDEST SWAP1 POP SWAP2 SWAP1 POP JUMP JUMPDEST PUSH1 0x0 PUSH1 0x20 DUP3 ADD SWAP1 POP DUP2 DUP2 SUB PUSH1 0x0 DUP4 ADD MSTORE PUSH2 0x3FA7 DUP2 PUSH2 0x38A9 JUMP JUMPDEST SWAP1 POP SWAP2 SWAP1 POP JUMP JUMPDEST PUSH1 0x0 PUSH1 0x20 DUP3 ADD SWAP1 POP DUP2 DUP2 SUB PUSH1 0x0 DUP4 ADD MSTORE PUSH2 0x3FC7 DUP2 PUSH2 0x390F JUMP JUMPDEST SWAP1 POP SWAP2 SWAP1 POP JUMP JUMPDEST PUSH1 0x0 PUSH1 0x20 DUP3 ADD SWAP1 POP DUP2 DUP2 SUB PUSH1 0x0 DUP4 ADD MSTORE PUSH2 0x3FE7 DUP2 PUSH2 0x394F JUMP JUMPDEST SWAP1 POP SWAP2 SWAP1 POP JUMP JUMPDEST PUSH1 0x0 PUSH1 0x20 DUP3 ADD SWAP1 POP DUP2 DUP2 SUB PUSH1 0x0 DUP4 ADD MSTORE PUSH2 0x4007 DUP2 PUSH2 0x398F JUMP JUMPDEST SWAP1 POP SWAP2 SWAP1 POP JUMP JUMPDEST PUSH1 0x0 PUSH1 0xA0 DUP3 ADD SWAP1 POP PUSH2 0x4023 PUSH1 0x0 DUP4 ADD DUP5 PUSH2 0x39F5 JUMP JUMPDEST SWAP3 SWAP2 POP POP JUMP JUMPDEST PUSH1 0x0 PUSH1 0xA0 DUP3 ADD SWAP1 POP PUSH2 0x403E PUSH1 0x0 DUP4 ADD DUP5 PUSH2 0x3B15 JUMP JUMPDEST SWAP3 SWAP2 POP POP JUMP JUMPDEST PUSH1 0x0 PUSH1 0x80 DUP3 ADD SWAP1 POP DUP2 DUP2 SUB PUSH1 0x0 DUP4 ADD MSTORE PUSH2 0x405E DUP2 DUP8 PUSH2 0x3BC1 JUMP JUMPDEST SWAP1 POP DUP2 DUP2 SUB PUSH1 0x20 DUP4 ADD MSTORE PUSH2 0x4072 DUP2 DUP7 PUSH2 0x3BC1 JUMP JUMPDEST SWAP1 POP PUSH2 0x4081 PUSH1 0x40 DUP4 ADD DUP6 PUSH2 0x3C41 JUMP JUMPDEST PUSH2 0x408E PUSH1 0x60 DUP4 ADD DUP5 PUSH2 0x3C23 JUMP JUMPDEST SWAP6 SWAP5 POP POP POP POP POP JUMP JUMPDEST PUSH1 0x0 PUSH1 0x60 DUP3 ADD SWAP1 POP PUSH2 0x40AC PUSH1 0x0 DUP4 ADD DUP7 PUSH2 0x3C23 JUMP JUMPDEST DUP2 DUP2 SUB PUSH1 0x20 DUP4 ADD MSTORE PUSH2 0x40BE DUP2 DUP6 PUSH2 0x3109 JUMP JUMPDEST SWAP1 POP PUSH2 0x40CD PUSH1 0x40 DUP4 ADD DUP5 PUSH2 0x3C41 JUMP JUMPDEST SWAP5 SWAP4 POP POP POP POP JUMP JUMPDEST PUSH1 0x0 PUSH1 0x20 DUP3 ADD SWAP1 POP PUSH2 0x40EA PUSH1 0x0 DUP4 ADD DUP5 PUSH2 0x3C41 JUMP JUMPDEST SWAP3 SWAP2 POP POP JUMP JUMPDEST PUSH1 0x0 PUSH1 0x60 DUP3 ADD SWAP1 POP PUSH2 0x4105 PUSH1 0x0 DUP4 ADD DUP7 PUSH2 0x3C41 JUMP JUMPDEST PUSH2 0x4112 PUSH1 0x20 DUP4 ADD DUP6 PUSH2 0x309C JUMP JUMPDEST DUP2 DUP2 SUB PUSH1 0x40 DUP4 ADD MSTORE PUSH2 0x4124 DUP2 DUP5 PUSH2 0x32EB JUMP JUMPDEST SWAP1 POP SWAP5 SWAP4 POP POP POP POP JUMP JUMPDEST PUSH1 0x0 PUSH2 0x100 DUP3 ADD SWAP1 POP PUSH2 0x4144 PUSH1 0x0 DUP4 ADD DUP12 PUSH2 0x3C41 JUMP JUMPDEST PUSH2 0x4151 PUSH1 0x20 DUP4 ADD DUP11 PUSH2 0x3C41 JUMP JUMPDEST PUSH2 0x415E PUSH1 0x40 DUP4 ADD DUP10 PUSH2 0x309C JUMP JUMPDEST PUSH2 0x416B PUSH1 0x60 DUP4 ADD DUP9 PUSH2 0x32A7 JUMP JUMPDEST DUP2 DUP2 SUB PUSH1 0x80 DUP4 ADD MSTORE PUSH2 0x417D DUP2 DUP8 PUSH2 0x3A5D JUMP JUMPDEST SWAP1 POP DUP2 DUP2 SUB PUSH1 0xA0 DUP4 ADD MSTORE PUSH2 0x4191 DUP2 DUP7 PUSH2 0x31C5 JUMP JUMPDEST SWAP1 POP DUP2 DUP2 SUB PUSH1 0xC0 DUP4 ADD MSTORE PUSH2 0x41A5 DUP2 DUP6 PUSH2 0x3167 JUMP JUMPDEST SWAP1 POP DUP2 DUP2 SUB PUSH1 0xE0 DUP4 ADD MSTORE PUSH2 0x41B9 DUP2 DUP5 PUSH2 0x323A JUMP JUMPDEST SWAP1 POP SWAP10 SWAP9 POP POP POP POP POP POP POP POP POP JUMP JUMPDEST PUSH1 0x0 PUSH1 0x60 DUP3 ADD SWAP1 POP PUSH2 0x41DD PUSH1 0x0 DUP4 ADD DUP7 PUSH2 0x3C41 JUMP JUMPDEST PUSH2 0x41EA PUSH1 0x20 DUP4 ADD DUP6 PUSH2 0x3C41 JUMP JUMPDEST PUSH2 0x41F7 PUSH1 0x40 DUP4 ADD DUP5 PUSH2 0x3C05 JUMP JUMPDEST SWAP5 SWAP4 POP POP POP POP JUMP JUMPDEST PUSH1 0x0 PUSH1 0x40 MLOAD SWAP1 POP DUP2 DUP2 ADD DUP2 DUP2 LT PUSH8 0xFFFFFFFFFFFFFFFF DUP3 GT OR ISZERO PUSH2 0x4222 JUMPI PUSH1 0x0 DUP1 REVERT JUMPDEST DUP1 PUSH1 0x40 MSTORE POP SWAP2 SWAP1 POP JUMP JUMPDEST PUSH1 0x0 PUSH8 0xFFFFFFFFFFFFFFFF DUP3 GT ISZERO PUSH2 0x4243 JUMPI PUSH1 0x0 DUP1 REVERT JUMPDEST PUSH1 0x20 DUP3 MUL SWAP1 POP PUSH1 0x20 DUP2 ADD SWAP1 POP SWAP2 SWAP1 POP JUMP JUMPDEST PUSH1 0x0 PUSH8 0xFFFFFFFFFFFFFFFF DUP3 GT ISZERO PUSH2 0x426B JUMPI PUSH1 0x0 DUP1 REVERT JUMPDEST PUSH1 0x20 DUP3 MUL SWAP1 POP PUSH1 0x20 DUP2 ADD SWAP1 POP SWAP2 SWAP1 POP JUMP JUMPDEST PUSH1 0x0 PUSH8 0xFFFFFFFFFFFFFFFF DUP3 GT ISZERO PUSH2 0x4293 JUMPI PUSH1 0x0 DUP1 REVERT JUMPDEST PUSH1 0x20 DUP3 MUL SWAP1 POP SWAP2 SWAP1 POP JUMP JUMPDEST PUSH1 0x0 PUSH8 0xFFFFFFFFFFFFFFFF DUP3 GT ISZERO PUSH2 0x42B5 JUMPI PUSH1 0x0 DUP1 REVERT JUMPDEST PUSH1 0x20 DUP3 MUL SWAP1 POP PUSH1 0x20 DUP2 ADD SWAP1 POP SWAP2 SWAP1 POP JUMP JUMPDEST PUSH1 0x0 PUSH8 0xFFFFFFFFFFFFFFFF DUP3 GT ISZERO PUSH2 0x42DD JUMPI PUSH1 0x0 DUP1 REVERT JUMPDEST PUSH1 0x20 DUP3 MUL SWAP1 POP PUSH1 0x20 DUP2 ADD SWAP1 POP SWAP2 SWAP1 POP JUMP JUMPDEST PUSH1 0x0 PUSH8 0xFFFFFFFFFFFFFFFF DUP3 GT ISZERO PUSH2 0x4305 JUMPI PUSH1 0x0 DUP1 REVERT JUMPDEST PUSH1 0x20 DUP3 MUL SWAP1 POP PUSH1 0x20 DUP2 ADD SWAP1 POP SWAP2 SWAP1 POP JUMP JUMPDEST PUSH1 0x0 PUSH8 0xFFFFFFFFFFFFFFFF DUP3 GT ISZERO PUSH2 0x432D JUMPI PUSH1 0x0 DUP1 REVERT JUMPDEST PUSH1 0x20 DUP3 MUL SWAP1 POP SWAP2 SWAP1 POP JUMP JUMPDEST PUSH1 0x0 PUSH8 0xFFFFFFFFFFFFFFFF DUP3 GT ISZERO PUSH2 0x434F JUMPI PUSH1 0x0 DUP1 REVERT JUMPDEST PUSH1 0x20 DUP3 MUL SWAP1 POP PUSH1 0x20 DUP2 ADD SWAP1 POP SWAP2 SWAP1 POP JUMP JUMPDEST PUSH1 0x0 PUSH8 0xFFFFFFFFFFFFFFFF DUP3 GT ISZERO PUSH2 0x4377 JUMPI PUSH1 0x0 DUP1 REVERT JUMPDEST PUSH1 0x20 DUP3 MUL SWAP1 POP PUSH1 0x20 DUP2 ADD SWAP1 POP SWAP2 SWAP1 POP JUMP JUMPDEST PUSH1 0x0 PUSH8 0xFFFFFFFFFFFFFFFF DUP3 GT ISZERO PUSH2 0x439F JUMPI PUSH1 0x0 DUP1 REVERT JUMPDEST PUSH1 0x1F NOT PUSH1 0x1F DUP4 ADD AND SWAP1 POP PUSH1 0x20 DUP2 ADD SWAP1 POP SWAP2 SWAP1 POP JUMP JUMPDEST PUSH1 0x0 PUSH8 0xFFFFFFFFFFFFFFFF DUP3 GT ISZERO PUSH2 0x43CB JUMPI PUSH1 0x0 DUP1 REVERT JUMPDEST PUSH1 0x1F NOT PUSH1 0x1F DUP4 ADD AND SWAP1 POP PUSH1 0x20 DUP2 ADD SWAP1 POP SWAP2 SWAP1 POP JUMP JUMPDEST PUSH1 0x0 DUP2 SWAP1 POP PUSH1 0x20 DUP3 ADD SWAP1 POP SWAP2 SWAP1 POP JUMP JUMPDEST PUSH1 0x0 DUP2 SWAP1 POP PUSH1 0x20 DUP3 ADD SWAP1 POP SWAP2 SWAP1 POP JUMP JUMPDEST PUSH1 0x0 DUP2 SWAP1 POP PUSH1 0x20 DUP3 ADD SWAP1 POP SWAP2 SWAP1 POP JUMP JUMPDEST PUSH1 0x0 DUP2 SWAP1 POP PUSH1 0x20 DUP3 ADD SWAP1 POP SWAP2 SWAP1 POP JUMP JUMPDEST PUSH1 0x0 DUP2 MLOAD SWAP1 POP SWAP2 SWAP1 POP JUMP JUMPDEST PUSH1 0x0 DUP2 MLOAD SWAP1 POP SWAP2 SWAP1 POP JUMP JUMPDEST PUSH1 0x0 DUP2 MLOAD SWAP1 POP SWAP2 SWAP1 POP JUMP JUMPDEST PUSH1 0x0 DUP2 MLOAD SWAP1 POP SWAP2 SWAP1 POP JUMP JUMPDEST PUSH1 0x0 DUP2 MLOAD SWAP1 POP SWAP2 SWAP1 POP JUMP JUMPDEST PUSH1 0x0 DUP2 MLOAD SWAP1 POP SWAP2 SWAP1 POP JUMP JUMPDEST PUSH1 0x0 PUSH1 0x20 DUP3 ADD SWAP1 POP SWAP2 SWAP1 POP JUMP JUMPDEST PUSH1 0x0 PUSH1 0x20 DUP3 ADD SWAP1 POP SWAP2 SWAP1 POP JUMP JUMPDEST PUSH1 0x0 PUSH1 0x20 DUP3 ADD SWAP1 POP SWAP2 SWAP1 POP JUMP JUMPDEST PUSH1 0x0 PUSH1 0x20 DUP3 ADD SWAP1 POP SWAP2 SWAP1 POP JUMP JUMPDEST PUSH1 0x0 DUP3 DUP3 MSTORE PUSH1 0x20 DUP3 ADD SWAP1 POP SWAP3 SWAP2 POP POP JUMP JUMPDEST PUSH1 0x0 DUP3 DUP3 MSTORE PUSH1 0x20 DUP3 ADD SWAP1 POP SWAP3 SWAP2 POP POP JUMP JUMPDEST PUSH1 0x0 DUP3 DUP3 MSTORE PUSH1 0x20 DUP3 ADD SWAP1 POP SWAP3 SWAP2 POP POP JUMP JUMPDEST PUSH1 0x0 DUP3 DUP3 MSTORE PUSH1 0x20 DUP3 ADD SWAP1 POP SWAP3 SWAP2 POP POP JUMP JUMPDEST PUSH1 0x0 DUP3 DUP3 MSTORE PUSH1 0x20 DUP3 ADD SWAP1 POP SWAP3 SWAP2 POP POP JUMP JUMPDEST PUSH1 0x0 DUP3 DUP3 MSTORE PUSH1 0x20 DUP3 ADD SWAP1 POP SWAP3 SWAP2 POP POP JUMP JUMPDEST PUSH1 0x0 DUP3 DUP3 MSTORE PUSH1 0x20 DUP3 ADD SWAP1 POP SWAP3 SWAP2 POP POP JUMP JUMPDEST PUSH1 0x0 DUP2 SWAP1 POP SWAP3 SWAP2 POP POP JUMP JUMPDEST PUSH1 0x0 DUP3 DUP3 MSTORE PUSH1 0x20 DUP3 ADD SWAP1 POP SWAP3 SWAP2 POP POP JUMP JUMPDEST PUSH1 0x0 PUSH2 0x4534 DUP3 PUSH2 0x4551 JUMP JUMPDEST SWAP1 POP SWAP2 SWAP1 POP JUMP JUMPDEST PUSH1 0x0 DUP2 ISZERO ISZERO SWAP1 POP SWAP2 SWAP1 POP JUMP JUMPDEST PUSH1 0x0 DUP2 SWAP1 POP SWAP2 SWAP1 POP JUMP JUMPDEST PUSH1 0x0 PUSH20 0xFFFFFFFFFFFFFFFFFFFFFFFFFFFFFFFFFFFFFFFF DUP3 AND SWAP1 POP SWAP2 SWAP1 POP JUMP JUMPDEST PUSH1 0x0 DUP2 SWAP1 POP SWAP2 SWAP1 POP JUMP JUMPDEST PUSH1 0x0 PUSH6 0xFFFFFFFFFFFF DUP3 AND SWAP1 POP SWAP2 SWAP1 POP JUMP JUMPDEST PUSH1 0x0 PUSH1 0xFF DUP3 AND SWAP1 POP SWAP2 SWAP1 POP JUMP JUMPDEST DUP3 DUP2 DUP4 CALLDATACOPY PUSH1 0x0 DUP4 DUP4 ADD MSTORE POP POP POP JUMP JUMPDEST PUSH1 0x0 JUMPDEST DUP4 DUP2 LT ISZERO PUSH2 0x45C7 JUMPI DUP1 DUP3 ADD MLOAD DUP2 DUP5 ADD MSTORE PUSH1 0x20 DUP2 ADD SWAP1 POP PUSH2 0x45AC JUMP JUMPDEST DUP4 DUP2 GT ISZERO PUSH2 0x45D6 JUMPI PUSH1 0x0 DUP5 DUP5 ADD MSTORE JUMPDEST POP POP POP POP JUMP JUMPDEST PUSH1 0x0 DUP2 SWAP1 POP SWAP2 SWAP1 POP JUMP JUMPDEST PUSH1 0x0 PUSH1 0x1F NOT PUSH1 0x1F DUP4 ADD AND SWAP1 POP SWAP2 SWAP1 POP JUMP JUMPDEST PUSH2 0x4600 DUP2 PUSH2 0x4529 JUMP JUMPDEST DUP2 EQ PUSH2 0x460B JUMPI PUSH1 0x0 DUP1 REVERT JUMPDEST POP JUMP JUMPDEST PUSH2 0x4617 DUP2 PUSH2 0x453B JUMP JUMPDEST DUP2 EQ PUSH2 0x4622 JUMPI PUSH1 0x0 DUP1 REVERT JUMPDEST POP JUMP JUMPDEST PUSH2 0x462E DUP2 PUSH2 0x4547 JUMP JUMPDEST DUP2 EQ PUSH2 0x4639 JUMPI PUSH1 0x0 DUP1 REVERT JUMPDEST POP JUMP JUMPDEST PUSH2 0x4645 DUP2 PUSH2 0x4571 JUMP JUMPDEST DUP2 EQ PUSH2 0x4650 JUMPI PUSH1 0x0 DUP1 REVERT JUMPDEST POP JUMP JUMPDEST PUSH2 0x465C DUP2 PUSH2 0x457B JUMP JUMPDEST DUP2 EQ PUSH2 0x4667 JUMPI PUSH1 0x0 DUP1 REVERT JUMPDEST POP JUMP JUMPDEST PUSH2 0x4673 DUP2 PUSH2 0x458D JUMP JUMPDEST DUP2 EQ PUSH2 0x467E JUMPI PUSH1 0x0 DUP1 REVERT JUMPDEST POP JUMP INVALID LOG2 PUSH5 0x6970667358 0x22 SLT KECCAK256 SAR 0xB5 SWAP7 0x4E SWAP2 SWAP13 0xB2 0xE0 0x4C PUSH8 0x3D25703DF0FD76CD 0xAF 0xAE SHL RETURN CALL PUSH18 0xBCBD4D2AB5586A9864736F6C634300060200 CALLER "
        }
    },
    "sourcePath": "contracts/test/TESTNitroAdjudicator.sol",
    "contractName": "TESTNitroAdjudicator",
    "compiler": {
        "version": "unknown"
    }
}