{
  "_format": "hh-sol-artifact-1",
  "contractName": "RegistryFactory",
  "sourceName": "contracts/RegistryFactory.sol",
  "abi": [
    {
      "inputs": [
        {
          "internalType": "address",
          "name": "_admin",
          "type": "address"
        },
        {
          "internalType": "string[]",
          "name": "_names",
          "type": "string[]"
        },
        {
          "internalType": "string[]",
          "name": "_symbols",
          "type": "string[]"
        },
        {
          "internalType": "address[]",
          "name": "_registrars",
          "type": "address[]"
        }
      ],
      "stateMutability": "nonpayable",
      "type": "constructor"
    },
    {
      "anonymous": false,
      "inputs": [
        {
          "indexed": false,
          "internalType": "address",
          "name": "registryAddress",
          "type": "address"
        }
      ],
      "name": "RegistryCreated",
      "type": "event"
    },
    {
      "anonymous": false,
      "inputs": [
        {
          "indexed": true,
          "internalType": "bytes32",
          "name": "role",
          "type": "bytes32"
        },
        {
          "indexed": true,
          "internalType": "bytes32",
          "name": "previousAdminRole",
          "type": "bytes32"
        },
        {
          "indexed": true,
          "internalType": "bytes32",
          "name": "newAdminRole",
          "type": "bytes32"
        }
      ],
      "name": "RoleAdminChanged",
      "type": "event"
    },
    {
      "anonymous": false,
      "inputs": [
        {
          "indexed": true,
          "internalType": "bytes32",
          "name": "role",
          "type": "bytes32"
        },
        {
          "indexed": true,
          "internalType": "address",
          "name": "account",
          "type": "address"
        },
        {
          "indexed": true,
          "internalType": "address",
          "name": "sender",
          "type": "address"
        }
      ],
      "name": "RoleGranted",
      "type": "event"
    },
    {
      "anonymous": false,
      "inputs": [
        {
          "indexed": true,
          "internalType": "bytes32",
          "name": "role",
          "type": "bytes32"
        },
        {
          "indexed": true,
          "internalType": "address",
          "name": "account",
          "type": "address"
        },
        {
          "indexed": true,
          "internalType": "address",
          "name": "sender",
          "type": "address"
        }
      ],
      "name": "RoleRevoked",
      "type": "event"
    },
    {
      "inputs": [],
      "name": "DEFAULT_ADMIN_ROLE",
      "outputs": [
        {
          "internalType": "bytes32",
          "name": "",
          "type": "bytes32"
        }
      ],
      "stateMutability": "view",
      "type": "function"
    },
    {
      "inputs": [
        {
          "internalType": "string",
          "name": "_name",
          "type": "string"
        },
        {
          "internalType": "string",
          "name": "_symbol",
          "type": "string"
        },
        {
          "internalType": "address",
          "name": "_registrar",
          "type": "address"
        }
      ],
      "name": "createRegistry",
      "outputs": [],
      "stateMutability": "nonpayable",
      "type": "function"
    },
    {
      "inputs": [
        {
          "internalType": "bytes32",
          "name": "role",
          "type": "bytes32"
        }
      ],
      "name": "getRoleAdmin",
      "outputs": [
        {
          "internalType": "bytes32",
          "name": "",
          "type": "bytes32"
        }
      ],
      "stateMutability": "view",
      "type": "function"
    },
    {
      "inputs": [
        {
          "internalType": "bytes32",
          "name": "role",
          "type": "bytes32"
        },
        {
          "internalType": "uint256",
          "name": "index",
          "type": "uint256"
        }
      ],
      "name": "getRoleMember",
      "outputs": [
        {
          "internalType": "address",
          "name": "",
          "type": "address"
        }
      ],
      "stateMutability": "view",
      "type": "function"
    },
    {
      "inputs": [
        {
          "internalType": "bytes32",
          "name": "role",
          "type": "bytes32"
        }
      ],
      "name": "getRoleMemberCount",
      "outputs": [
        {
          "internalType": "uint256",
          "name": "",
          "type": "uint256"
        }
      ],
      "stateMutability": "view",
      "type": "function"
    },
    {
      "inputs": [
        {
          "internalType": "bytes32",
          "name": "role",
          "type": "bytes32"
        },
        {
          "internalType": "address",
          "name": "account",
          "type": "address"
        }
      ],
      "name": "grantRole",
      "outputs": [],
      "stateMutability": "nonpayable",
      "type": "function"
    },
    {
      "inputs": [
        {
          "internalType": "bytes32",
          "name": "role",
          "type": "bytes32"
        },
        {
          "internalType": "address",
          "name": "account",
          "type": "address"
        }
      ],
      "name": "hasRole",
      "outputs": [
        {
          "internalType": "bool",
          "name": "",
          "type": "bool"
        }
      ],
      "stateMutability": "view",
      "type": "function"
    },
    {
      "inputs": [
        {
          "internalType": "string",
          "name": "",
          "type": "string"
        }
      ],
      "name": "nameToAddress",
      "outputs": [
        {
          "internalType": "address",
          "name": "",
          "type": "address"
        }
      ],
      "stateMutability": "view",
      "type": "function"
    },
    {
      "inputs": [
        {
          "internalType": "uint256",
          "name": "",
          "type": "uint256"
        }
      ],
      "name": "registries",
      "outputs": [
        {
          "internalType": "address",
          "name": "",
          "type": "address"
        }
      ],
      "stateMutability": "view",
      "type": "function"
    },
    {
      "inputs": [
        {
          "internalType": "bytes32",
          "name": "role",
          "type": "bytes32"
        },
        {
          "internalType": "address",
          "name": "account",
          "type": "address"
        }
      ],
      "name": "renounceRole",
      "outputs": [],
      "stateMutability": "nonpayable",
      "type": "function"
    },
    {
      "inputs": [
        {
          "internalType": "bytes32",
          "name": "role",
          "type": "bytes32"
        },
        {
          "internalType": "address",
          "name": "account",
          "type": "address"
        }
      ],
      "name": "revokeRole",
      "outputs": [],
      "stateMutability": "nonpayable",
      "type": "function"
    },
    {
      "inputs": [
        {
          "internalType": "bytes4",
          "name": "interfaceId",
          "type": "bytes4"
        }
      ],
      "name": "supportsInterface",
      "outputs": [
        {
          "internalType": "bool",
          "name": "",
          "type": "bool"
        }
      ],
      "stateMutability": "view",
      "type": "function"
    }
  ],
  "bytecode": "0x60806040523480156200001157600080fd5b5060405162009701380380620097018339810160408190526200003491620006eb565b8151835114620000a05760405162461bcd60e51b81526020600482015260396024820152600080516020620096e183398151915260448201527f617973206d75737420626520657175616c206c656e6774682e0000000000000060648201526084015b60405180910390fd5b8051825114620001085760405162461bcd60e51b81526020600482015260396024820152600080516020620096e183398151915260448201527f617973206d75737420626520657175616c206c656e6774682e00000000000000606482015260840162000097565b62000115600085620001cb565b60005b8351811015620001c057620001ad8482815181106200014757634e487b7160e01b600052603260045260246000fd5b60200260200101518483815181106200017057634e487b7160e01b600052603260045260246000fd5b60200260200101518484815181106200019957634e487b7160e01b600052603260045260246000fd5b60200260200101516200020e60201b60201c565b620001b88162000919565b905062000118565b505050505062000957565b620001e282826200040060201b620003e71760201c565b600082815260016020908152604090912062000209918390620003f762000410821b17901c565b505050565b6001600160a01b038116620002805760405162461bcd60e51b815260206004820152603160248201527f5265676973747279466163746f72793a2052656769737472617220616464726560448201527039b99036bab9ba103737ba10313290181760791b606482015260840162000097565b6200028b8362000430565b15620002f15760405162461bcd60e51b815260206004820152602e60248201527f5265676973747279466163746f72793a2052656769737472792062792074686160448201526d3a103730b6b29032bc34b9ba399760911b606482015260840162000097565b60008383836200030284806200046f565b6040516200031090620005c8565b6200031f94939291906200083f565b604051809103906000f0801580156200033c573d6000803e3d6000fd5b50600280546001810182556000919091527f405787fa12a823e0f2b7631cc41b3ba8828b3321ca811111fa75cd3aa3bb5ace0180546001600160a01b0319166001600160a01b0383161790556040519091508190600390620003a090879062000821565b9081526040516020918190038201812080546001600160a01b0319166001600160a01b0394851617905591831682527f3f204800c0e5d4c864ce5af4ec6df4566ef4e5ce94b654d6565870b67fc10d3c910160405180910390a150505050565b6200040c828262000495565b5050565b600062000427836001600160a01b03841662000535565b90505b92915050565b6000806001600160a01b03166003836040516200044e919062000821565b908152604051908190036020019020546001600160a01b0316141592915050565b60008281526001602090815260408220620004279184906200040e62000587821b17901c565b6000828152602081815260408083206001600160a01b038516845290915290205460ff166200040c576000828152602081815260408083206001600160a01b03851684529091529020805460ff19166001179055620004f13390565b6001600160a01b0316816001600160a01b0316837f2f8788117e7eff1d82e926ec794901d17c78024a50270940304540a733656f0d60405160405180910390a45050565b60008181526001830160205260408120546200057e575081546001818101845560008481526020808220909301849055845484825282860190935260409020919091556200042a565b5060006200042a565b60006200042783836000826000018281548110620005b557634e487b7160e01b600052603260045260246000fd5b9060005260206000200154905092915050565b613e63806200587e83390190565b80516001600160a01b0381168114620005ee57600080fd5b919050565b6000601f838184011262000605578182fd5b825160206200061e6200061883620008c0565b6200088d565b80838252828201915082870188848660051b8a010111156200063e578687fd5b865b85811015620006dd5781516001600160401b03808211156200066057898afd5b818b0191508b603f8301126200067457898afd5b868201516040828211156200068d576200068d62000941565b620006a0828c01601f19168a016200088d565b92508183528d81838601011115620006b6578b8cfd5b620006c7828a8501838701620008e6565b5050855250928401929084019060010162000640565b509098975050505050505050565b6000806000806080858703121562000701578384fd5b6200070c85620005d6565b602086810151919550906001600160401b03808211156200072b578586fd5b6200073989838a01620005f3565b955060408801519150808211156200074f578485fd5b6200075d89838a01620005f3565b9450606088015191508082111562000773578384fd5b508601601f8101881362000785578283fd5b8051620007966200061882620008c0565b8082825284820191508484018b868560051b8701011115620007b6578687fd5b8694505b83851015620007e357620007ce81620005d6565b835260019490940193918501918501620007ba565b50979a9699509497505050505050565b600081518084526200080d816020860160208601620008e6565b601f01601f19169290920160200192915050565b6000825162000835818460208701620008e6565b9190910192915050565b608081526000620008546080830187620007f3565b8281036020840152620008688187620007f3565b6001600160a01b03958616604085015293909416606090920191909152509392505050565b604051601f8201601f191681016001600160401b0381118282101715620008b857620008b862000941565b604052919050565b60006001600160401b03821115620008dc57620008dc62000941565b5060051b60200190565b60005b8381101562000903578181015183820152602001620008e9565b8381111562000913576000848401525b50505050565b60006000198214156200093a57634e487b7160e01b81526011600452602481fd5b5060010190565b634e487b7160e01b600052604160045260246000fd5b614f1780620009676000396000f3fe60806040523480156200001157600080fd5b5060043610620000c35760003560e01c80636347c900116200007a5780636347c90014620001c05780639010d07c14620001d757806391d1485414620001ee578063a217fddf1462000205578063ca15c873146200020e578063d547741f146200022557600080fd5b806301ffc9a714620000c857806308d88aad14620000f457806319fb2b081462000144578063248a9ca3146200015d5780632f2ff15d146200019257806336568abe14620001a9575b600080fd5b620000df620000d936600462000da3565b6200023c565b60405190151581526020015b60405180910390f35b6200012b6200010536600462000dcd565b80516020818301810180516003825292820191909301209152546001600160a01b031681565b6040516001600160a01b039091168152602001620000eb565b6200015b6200015536600462000e0c565b6200026a565b005b620001836200016e36600462000d3a565b60009081526020819052604090206001015490565b604051908152602001620000eb565b6200015b620001a336600462000d53565b62000301565b6200015b620001ba36600462000d53565b62000327565b6200012b620001d136600462000d3a565b6200034d565b6200012b620001e836600462000d81565b62000378565b620000df620001ff36600462000d53565b62000399565b62000183600081565b620001836200021f36600462000d3a565b620003c2565b6200015b6200023636600462000d53565b620003db565b60006001600160e01b03198216635a05180f60e01b148062000264575062000264826200041c565b92915050565b6200027760003362000399565b620002ef5760405162461bcd60e51b815260206004820152603a60248201527f5265676973747279466163746f72793a206d75737420686176652061646d696e60448201527f20726f6c6520746f20637265617465206120726567697374727900000000000060648201526084015b60405180910390fd5b620002fc83838362000453565b505050565b6200030d828262000645565b6000828152600160205260409020620002fc9082620003f7565b6200033382826200066f565b6000828152600160205260409020620002fc9082620006ed565b600281815481106200035e57600080fd5b6000918252602090912001546001600160a01b0316905081565b60008281526001602052604081206200039290836200040e565b9392505050565b6000918252602082815260408084206001600160a01b0393909316845291905290205460ff1690565b6000818152600160205260408120620002649062000704565b6200033382826200070f565b620003f3828262000739565b5050565b600062000392836001600160a01b038416620007c1565b600062000392838362000813565b60006001600160e01b03198216637965db0b60e01b14806200026457506301ffc9a760e01b6001600160e01b031983161462000264565b6001600160a01b038116620004c55760405162461bcd60e51b815260206004820152603160248201527f5265676973747279466163746f72793a2052656769737472617220616464726560448201527039b99036bab9ba103737ba10313290181760791b6064820152608401620002e6565b620004d0836200084c565b15620005365760405162461bcd60e51b815260206004820152602e60248201527f5265676973747279466163746f72793a2052656769737472792062792074686160448201526d3a103730b6b29032bc34b9ba399760911b6064820152608401620002e6565b600083838362000547848062000378565b604051620005559062000c80565b62000564949392919062000f60565b604051809103906000f08015801562000581573d6000803e3d6000fd5b50600280546001810182556000919091527f405787fa12a823e0f2b7631cc41b3ba8828b3321ca811111fa75cd3aa3bb5ace0180546001600160a01b0319166001600160a01b0383161790556040519091508190600390620005e590879062000eb4565b9081526040516020918190038201812080546001600160a01b0319166001600160a01b0394851617905591831682527f3f204800c0e5d4c864ce5af4ec6df4566ef4e5ce94b654d6565870b67fc10d3c910160405180910390a150505050565b6000828152602081905260409020600101546200066381336200088b565b620002fc838362000739565b6001600160a01b0381163314620006e15760405162461bcd60e51b815260206004820152602f60248201527f416363657373436f6e74726f6c3a2063616e206f6e6c792072656e6f756e636560448201526e103937b632b9903337b91039b2b63360891b6064820152608401620002e6565b620003f38282620008fa565b600062000392836001600160a01b03841662000962565b600062000264825490565b6000828152602081905260409020600101546200072d81336200088b565b620002fc8383620008fa565b62000745828262000399565b620003f3576000828152602081815260408083206001600160a01b03851684529091529020805460ff191660011790556200077d3390565b6001600160a01b0316816001600160a01b0316837f2f8788117e7eff1d82e926ec794901d17c78024a50270940304540a733656f0d60405160405180910390a45050565b60008181526001830160205260408120546200080a5750815460018181018455600084815260208082209093018490558454848252828601909352604090209190915562000264565b50600062000264565b60008260000182815481106200083957634e487b7160e01b600052603260045260246000fd5b9060005260206000200154905092915050565b6000806001600160a01b03166003836040516200086a919062000eb4565b908152604051908190036020019020546001600160a01b0316141592915050565b62000897828262000399565b620003f357620008b2816001600160a01b0316601462000a8a565b620008bf83602062000a8a565b604051602001620008d292919062000ed2565b60408051601f198184030181529082905262461bcd60e51b8252620002e69160040162000f4b565b62000906828262000399565b15620003f3576000828152602081815260408083206001600160a01b0385168085529252808320805460ff1916905551339285917ff6391f5c32d9c69d2a47ea670b442974b53935d1edc7fd64eb21e047a839171b9190a45050565b6000818152600183016020526040812054801562000a7f5760006200098960018362000feb565b85549091506000906200099f9060019062000feb565b905081811462000a23576000866000018281548110620009cf57634e487b7160e01b600052603260045260246000fd5b906000526020600020015490508087600001848154811062000a0157634e487b7160e01b600052603260045260246000fd5b6000918252602080832090910192909255918252600188019052604090208390555b855486908062000a4357634e487b7160e01b600052603160045260246000fd5b60019003818190600052602060002001600090559055856001016000868152602001908152602001600020600090556001935050505062000264565b600091505062000264565b6060600062000a9b83600262000fc9565b62000aa890600262000fae565b67ffffffffffffffff81111562000acf57634e487b7160e01b600052604160045260246000fd5b6040519080825280601f01601f19166020018201604052801562000afa576020820181803683370190505b509050600360fc1b8160008151811062000b2457634e487b7160e01b600052603260045260246000fd5b60200101906001600160f81b031916908160001a905350600f60fb1b8160018151811062000b6257634e487b7160e01b600052603260045260246000fd5b60200101906001600160f81b031916908160001a905350600062000b8884600262000fc9565b62000b9590600162000fae565b90505b600181111562000c2f576f181899199a1a9b1b9c1cb0b131b232b360811b85600f166010811062000bd957634e487b7160e01b600052603260045260246000fd5b1a60f81b82828151811062000bfe57634e487b7160e01b600052603260045260246000fd5b60200101906001600160f81b031916908160001a90535060049490941c9362000c278162001038565b905062000b98565b508315620003925760405162461bcd60e51b815260206004820181905260248201527f537472696e67733a20686578206c656e67746820696e73756666696369656e746044820152606401620002e6565b613e63806200107f83390190565b80356001600160a01b038116811462000ca657600080fd5b919050565b600082601f83011262000cbc578081fd5b813567ffffffffffffffff8082111562000cda5762000cda62001068565b604051601f8301601f19908116603f0116810190828211818310171562000d055762000d0562001068565b8160405283815286602085880101111562000d1e578485fd5b8360208701602083013792830160200193909352509392505050565b60006020828403121562000d4c578081fd5b5035919050565b6000806040838503121562000d66578081fd5b8235915062000d786020840162000c8e565b90509250929050565b6000806040838503121562000d94578182fd5b50508035926020909101359150565b60006020828403121562000db5578081fd5b81356001600160e01b03198116811462000392578182fd5b60006020828403121562000ddf578081fd5b813567ffffffffffffffff81111562000df6578182fd5b62000e048482850162000cab565b949350505050565b60008060006060848603121562000e21578081fd5b833567ffffffffffffffff8082111562000e39578283fd5b62000e478783880162000cab565b9450602086013591508082111562000e5d578283fd5b5062000e6c8682870162000cab565b92505062000e7d6040850162000c8e565b90509250925092565b6000815180845262000ea081602086016020860162001005565b601f01601f19169290920160200192915050565b6000825162000ec881846020870162001005565b9190910192915050565b7f416363657373436f6e74726f6c3a206163636f756e742000000000000000000081526000835162000f0c81601785016020880162001005565b7001034b99036b4b9b9b4b733903937b6329607d1b601791840191820152835162000f3f81602884016020880162001005565b01602801949350505050565b60208152600062000392602083018462000e86565b60808152600062000f75608083018762000e86565b828103602084015262000f89818762000e86565b6001600160a01b03958616604085015293909416606090920191909152509392505050565b6000821982111562000fc45762000fc462001052565b500190565b600081600019048311821515161562000fe65762000fe662001052565b500290565b60008282101562001000576200100062001052565b500390565b60005b838110156200102257818101518382015260200162001008565b8381111562001032576000848401525b50505050565b6000816200104a576200104a62001052565b506000190190565b634e487b7160e01b600052601160045260246000fd5b634e487b7160e01b600052604160045260246000fdfe6080604052600f805463ffffffff191663010001001790553480156200002457600080fd5b5060405162003e6338038062003e63833981016040819052620000479162000399565b8351849084906200006090600290602085019062000223565b5080516200007690600390602084019062000223565b506200008891506000905082620000be565b620000b47fedcc084d3dcd65a1f7f23c65c46722faca6953d28e43150a467cf43e5c30923883620000be565b5050505062000478565b620000d582826200010160201b6200157b1760201c565b6000828152600160209081526040909120620000fc9183906200158562000111821b17901c565b505050565b6200010d828262000131565b5050565b600062000128836001600160a01b038416620001d1565b90505b92915050565b6000828152602081815260408083206001600160a01b038516845290915290205460ff166200010d576000828152602081815260408083206001600160a01b03851684529091529020805460ff191660011790556200018d3390565b6001600160a01b0316816001600160a01b0316837f2f8788117e7eff1d82e926ec794901d17c78024a50270940304540a733656f0d60405160405180910390a45050565b60008181526001830160205260408120546200021a575081546001818101845560008481526020808220909301849055845484825282860190935260409020919091556200012b565b5060006200012b565b828054620002319062000425565b90600052602060002090601f016020900481019282620002555760008555620002a0565b82601f106200027057805160ff1916838001178555620002a0565b82800160010185558215620002a0579182015b82811115620002a057825182559160200191906001019062000283565b50620002ae929150620002b2565b5090565b5b80821115620002ae5760008155600101620002b3565b80516001600160a01b0381168114620002e157600080fd5b919050565b600082601f830112620002f7578081fd5b81516001600160401b038082111562000314576200031462000462565b604051601f8301601f19908116603f011681019082821181831017156200033f576200033f62000462565b816040528381526020925086838588010111156200035b578485fd5b8491505b838210156200037e57858201830151818301840152908201906200035f565b838211156200038f57848385830101525b9695505050505050565b60008060008060808587031215620003af578384fd5b84516001600160401b0380821115620003c6578586fd5b620003d488838901620002e6565b95506020870151915080821115620003ea578485fd5b50620003f987828801620002e6565b9350506200040a60408601620002c9565b91506200041a60608601620002c9565b905092959194509250565b600181811c908216806200043a57607f821691505b602082108114156200045c57634e487b7160e01b600052602260045260246000fd5b50919050565b634e487b7160e01b600052604160045260246000fd5b6139db80620004886000396000f3fe608060405234801561001057600080fd5b506004361061025e5760003560e01c80636f4c25aa11610146578063bb87c1c8116100c3578063d547741f11610087578063d547741f1461054b578063df50afa41461055e578063e985e9c514610571578063f68e955314610584578063f72a918a14610599578063fd90f232146105ac57600080fd5b8063bb87c1c8146104da578063bce8542e146104e7578063c004dcf614610512578063c87b56dd14610525578063ca15c8731461053857600080fd5b806393d0da071161010a57806393d0da071461049157806395d89b41146104a4578063a217fddf146104ac578063a22cb465146104b4578063b88d4fde146104c757600080fd5b80636f4c25aa1461043257806370a08231146104455780638d59cc02146104585780639010d07c1461046b57806391d148541461047e57600080fd5b80632f745c59116101df57806347f00d5a116101a357806347f00d5a146103c15780634f6ccce7146103d45780635471a057146103e75780636017160b146103f95780636352211e1461040c578063686c77d31461041f57600080fd5b80632f745c591461036257806336568abe1461037557806342842e0e1461038857806342966c681461039b57806343a75371146103ae57600080fd5b806318160ddd1161022657806318160ddd146102f35780632185810b1461030557806323b872dd14610319578063248a9ca31461032c5780632f2ff15d1461034f57600080fd5b806301ffc9a71461026357806306fdde031461028b578063081812fc146102a0578063095ea7b3146102cb5780630ecf9dfd146102e0575b600080fd5b610276610271366004613409565b6105bf565b60405190151581526020015b60405180910390f35b6102936105d0565b604051610282919061361a565b6102b36102ae3660046133ae565b610662565b6040516001600160a01b039091168152602001610282565b6102de6102d936600461336b565b6106ef565b005b6102de6102ee3660046132e2565b610805565b600a545b604051908152602001610282565b600f54610276906301000000900460ff1681565b6102de61032736600461315b565b610ad9565b6102f761033a3660046133ae565b60009081526020819052604090206001015490565b6102de61035d3660046133c6565b610b0a565b6102f761037036600461336b565b610b2c565b6102de6103833660046133c6565b610bc2565b6102de61039636600461315b565b610be4565b6102de6103a93660046133ae565b610bff565b6102de6103bc366004613394565b610c31565b6102de6103cf366004613474565b610c78565b6102f76103e23660046133ae565b610d1c565b600f5461027690610100900460ff1681565b6102936104073660046133ae565b610dbd565b6102b361041a3660046133ae565b610e57565b6102de61042d366004613394565b610ece565b600f546102769062010000900460ff1681565b6102f761045336600461310f565b610f1c565b6102de610466366004613271565b610fa3565b6102b36104793660046133e8565b6110e3565b61027661048c3660046133c6565b611102565b6102de61049f366004613474565b61112b565b610293611224565b6102f7600081565b6102de6104c23660046131fc565b611233565b6102de6104d5366004613196565b6112f8565b600f546102769060ff1681565b6102f76104f5366004613441565b8051602081830181018051600d8252928201919093012091525481565b6102de610520366004613394565b611330565b6102936105333660046133ae565b611380565b6102f76105463660046133ae565b61138b565b6102de6105593660046133c6565b6113a2565b6102de61056c366004613394565b6113ac565b61027661057f366004613129565b6113fe565b6102f760008051602061398683398151915281565b6102de6105a7366004613225565b61142c565b6102de6105ba36600461310f565b6114f2565b60006105ca8261159a565b92915050565b6060600280546105df906138c3565b80601f016020809104026020016040519081016040528092919081815260200182805461060b906138c3565b80156106585780601f1061062d57610100808354040283529160200191610658565b820191906000526020600020905b81548152906001019060200180831161063b57829003601f168201915b5050505050905090565b600061066d826115bf565b6106d35760405162461bcd60e51b815260206004820152602c60248201527f4552433732313a20617070726f76656420717565727920666f72206e6f6e657860448201526b34b9ba32b73a103a37b5b2b760a11b60648201526084015b60405180910390fd5b506000908152600660205260409020546001600160a01b031690565b60006106fa82610e57565b9050806001600160a01b0316836001600160a01b031614156107685760405162461bcd60e51b815260206004820152602160248201527f4552433732313a20617070726f76616c20746f2063757272656e74206f776e656044820152603960f91b60648201526084016106ca565b336001600160a01b0382161480610784575061078481336113fe565b6107f65760405162461bcd60e51b815260206004820152603860248201527f4552433732313a20617070726f76652063616c6c6572206973206e6f74206f7760448201527f6e6572206e6f7220617070726f76656420666f7220616c6c000000000000000060648201526084016106ca565b61080083836115dc565b505050565b600f5460ff166108735760405162461bcd60e51b815260206004820152603360248201527f4e6f6e46756e6769626c6552656769737472793a204c617a79207265676973746044820152723930ba34b7b71034b9903234b9b0b13632b21760691b60648201526084016106ca565b600f5462010000900460ff166109045760405162461bcd60e51b815260206004820152604a60248201527f4e6f6e46756e6769626c6552656769737472793a206c6162656c206368616e6760448201527f6573206d7573742062652064697361626c656420666f72206c617a792072656760648201526934b9ba3930ba34b7b71760b11b608482015260a4016106ca565b61090d8361164a565b156109805760405162461bcd60e51b815260206004820152603760248201527f4e6f6e46756e6769626c6552656769737472793a20526567697374726174696f60448201527f6e206c6162656c20616c7265616479206578697374732e00000000000000000060648201526084016106ca565b336001600160a01b038516146109ee5760405162461bcd60e51b815260206004820152602d60248201527f4e6f6e46756e6769626c6552656769737472793a2043616c6c6572206973206e60448201526c37ba103932b1b4b834b2b73a1760991b60648201526084016106ca565b6109fa84848484611674565b610a565760405162461bcd60e51b815260206004820152602760248201527f4e6f6e46756e6769626c6552656769737472793a207369676e6174757265206660448201526630b4b63ab9329760c91b60648201526084016106ca565b6000610a6160105490565b610a6c90600161381e565b9050610a788582611719565b610a86601080546001019055565b610a908184611858565b80600d85604051610aa1919061351d565b9081526040805160209281900383019020929092556000838152600e8252919091208551610ad192870190612f8d565b505050505050565b610ae333826118e3565b610aff5760405162461bcd60e51b81526004016106ca906137cd565b610800838383611960565b610b148282611b0b565b60008281526001602052604090206108009082611585565b6000610b3783610f1c565b8210610b995760405162461bcd60e51b815260206004820152602b60248201527f455243373231456e756d657261626c653a206f776e657220696e646578206f7560448201526a74206f6620626f756e647360a81b60648201526084016106ca565b506001600160a01b03919091166000908152600860209081526040808320938352929052205490565b610bcc8282611b31565b60008281526001602052604090206108009082611bab565b610800838383604051806020016040528060008152506112f8565b610c093382611bc0565b610c255760405162461bcd60e51b81526004016106ca90613712565b610c2e81611c5b565b50565b610c4960008051602061398683398151915233611102565b610c655760405162461bcd60e51b81526004016106ca9061367f565b600f805460ff1916911515919091179055565b610c80611d3d565b610ce75760405162461bcd60e51b815260206004820152603260248201527f4e6f6e46756e6769626c6552656769737472793a2053746f726167652075706460448201527130ba34b7339034b9903234b9b0b13632b21760711b60648201526084016106ca565b610cf2335b83611bc0565b610d0e5760405162461bcd60e51b81526004016106ca90613712565b610d188282611858565b5050565b6000610d27600a5490565b8210610d8a5760405162461bcd60e51b815260206004820152602c60248201527f455243373231456e756d657261626c653a20676c6f62616c20696e646578206f60448201526b7574206f6620626f756e647360a01b60648201526084016106ca565b600a8281548110610dab57634e487b7160e01b600052603260045260246000fd5b90600052602060002001549050919050565b600e6020526000908152604090208054610dd6906138c3565b80601f0160208091040260200160405190810160405280929190818152602001828054610e02906138c3565b8015610e4f5780601f10610e2457610100808354040283529160200191610e4f565b820191906000526020600020905b815481529060010190602001808311610e3257829003601f168201915b505050505081565b6000818152600460205260408120546001600160a01b0316806105ca5760405162461bcd60e51b815260206004820152602960248201527f4552433732313a206f776e657220717565727920666f72206e6f6e657869737460448201526832b73a103a37b5b2b760b91b60648201526084016106ca565b610ee660008051602061398683398151915233611102565b610f025760405162461bcd60e51b81526004016106ca9061367f565b600f80549115156101000261ff0019909216919091179055565b60006001600160a01b038216610f875760405162461bcd60e51b815260206004820152602a60248201527f4552433732313a2062616c616e636520717565727920666f7220746865207a65604482015269726f206164647265737360b01b60648201526084016106ca565b506001600160a01b031660009081526005602052604090205490565b610fbb60008051602061398683398151915233611102565b61103b5760405162461bcd60e51b815260206004820152604560248201527f4552433732315072657365744d696e7465725061757365724175746f49643a2060448201527f6d75737420686176652072656769737472617220726f6c6520746f207265676960648201526439ba32b91760d91b608482015260a4016106ca565b6110448261164a565b156110615760405162461bcd60e51b81526004016106ca9061377c565b600061106c60105490565b61107790600161381e565b90506110838482611719565b611091601080546001019055565b61109b8183611858565b80600d846040516110ac919061351d565b9081526040805160209281900383019020929092556000838152600e82529190912084516110dc92860190612f8d565b5050505050565b60008281526001602052604081206110fb9083611d6e565b9392505050565b6000918252602082815260408084206001600160a01b0393909316845291905290205460ff1690565b611133611d7a565b6111985760405162461bcd60e51b815260206004820152603060248201527f4e6f6e46756e6769626c6552656769737472793a204c6162656c20757064617460448201526f34b7339034b9903234b9b0b13632b21760811b60648201526084016106ca565b6111a133610cec565b6111bd5760405162461bcd60e51b81526004016106ca90613712565b6111c68161164a565b156111e35760405162461bcd60e51b81526004016106ca9061377c565b81600d826040516111f4919061351d565b9081526040805160209281900383019020929092556000848152600e825291909120825161080092840190612f8d565b6060600380546105df906138c3565b6001600160a01b03821633141561128c5760405162461bcd60e51b815260206004820152601960248201527f4552433732313a20617070726f766520746f2063616c6c65720000000000000060448201526064016106ca565b3360008181526007602090815260408083206001600160a01b03871680855290835292819020805460ff191686151590811790915590519081529192917f17307eab39ab6107e8899845ad3d59bd9653f200f220920489ca2b5937696c31910160405180910390a35050565b61130233836118e3565b61131e5760405162461bcd60e51b81526004016106ca906137cd565b61132a84848484611da7565b50505050565b61134860008051602061398683398151915233611102565b6113645760405162461bcd60e51b81526004016106ca9061367f565b600f8054911515620100000262ff000019909216919091179055565b60606105ca82611dda565b60008181526001602052604081206105ca90611f49565b610bcc8282611f53565b6113c460008051602061398683398151915233611102565b6113e05760405162461bcd60e51b81526004016106ca9061367f565b600f805491151563010000000263ff00000019909216919091179055565b6001600160a01b03918216600090815260076020908152604080832093909416825291909152205460ff1690565b61144460008051602061398683398151915233611102565b6114b8576040805162461bcd60e51b81526020600482015260248101919091527f4552433732315072657365744d696e7465725061757365724175746f49643a2060448201527f6d75737420686176652072656769737472617220726f6c6520746f206d696e7460648201526084016106ca565b60006114c360105490565b6114ce90600161381e565b90506114da8382611719565b6114e8601080546001019055565b6108008183611858565b6114fd600033611102565b61156f5760405162461bcd60e51b815260206004820152603960248201527f4e6f6e46756e6769626c6552656769737472793a206f6e6c792061646d696e2060448201527f63616e2064657374726f79207468652072656769737472792e0000000000000060648201526084016106ca565b806001600160a01b0316ff5b610d188282611f79565b60006110fb836001600160a01b038416611ffd565b60006001600160e01b0319821663780e9d6360e01b14806105ca57506105ca8261204c565b6000908152600460205260409020546001600160a01b0316151590565b600081815260066020526040902080546001600160a01b0319166001600160a01b038416908117909155819061161182610e57565b6001600160a01b03167f8c5be1e5ebec7d5bd14f71427d1e84f3dd0314c0f7b2291e5b200ac8c7c3b92560405160405180910390a45050565b6000600d8260405161165c919061351d565b90815260405190819003602001902054151592915050565b6000806116ef86868660405160200161168f939291906134cf565b60408051601f1981840301815282825280516020918201207f19457468657265756d205369676e6564204d6573736167653a0a33320000000084830152603c8085019190915282518085039091018152605c909301909152815191012090565b905061170d60008051602061398683398151915261048c838661208c565b9150505b949350505050565b6001600160a01b03821661176f5760405162461bcd60e51b815260206004820181905260248201527f4552433732313a206d696e7420746f20746865207a65726f206164647265737360448201526064016106ca565b611778816115bf565b156117c55760405162461bcd60e51b815260206004820152601c60248201527f4552433732313a20746f6b656e20616c7265616479206d696e7465640000000060448201526064016106ca565b6117d1600083836120b0565b6001600160a01b03821660009081526005602052604081208054600192906117fa90849061381e565b909155505060008181526004602052604080822080546001600160a01b0319166001600160a01b03861690811790915590518392907fddf252ad1be2c89b69c2b068fc378daa952ba7f163c4a11628f55a4df523b3ef908290a45050565b611861826115bf565b6118c45760405162461bcd60e51b815260206004820152602e60248201527f45524337323155524953746f726167653a2055524920736574206f66206e6f6e60448201526d32bc34b9ba32b73a103a37b5b2b760911b60648201526084016106ca565b6000828152600c60209081526040909120825161080092840190612f8d565b60006118ee826115bf565b61190a5760405162461bcd60e51b81526004016106ca906136c6565b600061191583610e57565b9050806001600160a01b0316846001600160a01b031614806119505750836001600160a01b031661194584610662565b6001600160a01b0316145b80611711575061171181856113fe565b826001600160a01b031661197382610e57565b6001600160a01b0316146119db5760405162461bcd60e51b815260206004820152602960248201527f4552433732313a207472616e73666572206f6620746f6b656e2074686174206960448201526839903737ba1037bbb760b91b60648201526084016106ca565b6001600160a01b038216611a3d5760405162461bcd60e51b8152602060048201526024808201527f4552433732313a207472616e7366657220746f20746865207a65726f206164646044820152637265737360e01b60648201526084016106ca565b611a488383836120b0565b611a536000826115dc565b6001600160a01b0383166000908152600560205260408120805460019290611a7c908490613869565b90915550506001600160a01b0382166000908152600560205260408120805460019290611aaa90849061381e565b909155505060008181526004602052604080822080546001600160a01b0319166001600160a01b0386811691821790925591518493918716917fddf252ad1be2c89b69c2b068fc378daa952ba7f163c4a11628f55a4df523b3ef91a4505050565b600082815260208190526040902060010154611b278133612124565b6108008383611f79565b6001600160a01b0381163314611ba15760405162461bcd60e51b815260206004820152602f60248201527f416363657373436f6e74726f6c3a2063616e206f6e6c792072656e6f756e636560448201526e103937b632b9903337b91039b2b63360891b60648201526084016106ca565b610d188282612188565b60006110fb836001600160a01b0384166121ed565b6000611bcb826115bf565b611be75760405162461bcd60e51b81526004016106ca906136c6565b6000611bf283610e57565b9050806001600160a01b0316846001600160a01b03161480611c2d5750836001600160a01b0316611c2284610662565b6001600160a01b0316145b80611c3d5750611c3d81856113fe565b80611711575061171160008051602061398683398151915233611102565b611c648161230a565b6000818152600e602052604081208054611c7d906138c3565b80601f0160208091040260200160405190810160405280929190818152602001828054611ca9906138c3565b8015611cf65780601f10611ccb57610100808354040283529160200191611cf6565b820191906000526020600020905b815481529060010190602001808311611cd957829003601f168201915b5050506000858152600e60205260408120939450611d179392509050613011565b600d81604051611d27919061351d565b9081526020016040518091039020600090555050565b600f54600090610100900460ff1680611d695750611d6960008051602061398683398151915233611102565b905090565b60006110fb838361234a565b600f5460009062010000900460ff1680611d695750611d6960008051602061398683398151915233611102565b611db2848484611960565b611dbe84848484612382565b61132a5760405162461bcd60e51b81526004016106ca9061362d565b6060611de5826115bf565b611e4b5760405162461bcd60e51b815260206004820152603160248201527f45524337323155524953746f726167653a2055524920717565727920666f72206044820152703737b732bc34b9ba32b73a103a37b5b2b760791b60648201526084016106ca565b6000828152600c602052604081208054611e64906138c3565b80601f0160208091040260200160405190810160405280929190818152602001828054611e90906138c3565b8015611edd5780601f10611eb257610100808354040283529160200191611edd565b820191906000526020600020905b815481529060010190602001808311611ec057829003601f168201915b505050505090506000611efb60408051602081019091526000815290565b9050805160001415611f0e575092915050565b815115611f40578082604051602001611f28929190613539565b60405160208183030381529060405292505050919050565b6117118461248c565b60006105ca825490565b600082815260208190526040902060010154611f6f8133612124565b6108008383612188565b611f838282611102565b610d18576000828152602081815260408083206001600160a01b03851684529091529020805460ff19166001179055611fb93390565b6001600160a01b0316816001600160a01b0316837f2f8788117e7eff1d82e926ec794901d17c78024a50270940304540a733656f0d60405160405180910390a45050565b6000818152600183016020526040812054612044575081546001818101845560008481526020808220909301849055845484825282860190935260409020919091556105ca565b5060006105ca565b60006001600160e01b031982166380ac58cd60e01b148061207d57506001600160e01b03198216635b5e139f60e01b145b806105ca57506105ca82612563565b600080600061209b8585612588565b915091506120a8816125f8565b509392505050565b6120b86127f9565b6121195760405162461bcd60e51b815260206004820152602c60248201527f4e6f6e46756e6769626c6552656769737472793a207472616e7366657273206160448201526b3932903234b9b0b13632b21760a11b60648201526084016106ca565b610800838383612827565b61212e8282611102565b610d1857612146816001600160a01b031660146128df565b6121518360206128df565b604051602001612162929190613568565b60408051601f198184030181529082905262461bcd60e51b82526106ca9160040161361a565b6121928282611102565b15610d18576000828152602081815260408083206001600160a01b0385168085529252808320805460ff1916905551339285917ff6391f5c32d9c69d2a47ea670b442974b53935d1edc7fd64eb21e047a839171b9190a45050565b60008181526001830160205260408120548015612300576000612211600183613869565b855490915060009061222590600190613869565b90508181146122a657600086600001828154811061225357634e487b7160e01b600052603260045260246000fd5b906000526020600020015490508087600001848154811061228457634e487b7160e01b600052603260045260246000fd5b6000918252602080832090910192909255918252600188019052604090208390555b85548690806122c557634e487b7160e01b600052603160045260246000fd5b6001900381819060005260206000200160009055905585600101600086815260200190815260200160002060009055600193505050506105ca565b60009150506105ca565b61231381612ac1565b6000818152600c60205260409020805461232c906138c3565b159050610c2e576000818152600c60205260408120610c2e91613011565b600082600001828154811061236f57634e487b7160e01b600052603260045260246000fd5b9060005260206000200154905092915050565b60006001600160a01b0384163b1561248457604051630a85bd0160e11b81526001600160a01b0385169063150b7a02906123c69033908990889088906004016135dd565b602060405180830381600087803b1580156123e057600080fd5b505af1925050508015612410575060408051601f3d908101601f1916820190925261240d91810190613425565b60015b61246a573d80801561243e576040519150601f19603f3d011682016040523d82523d6000602084013e612443565b606091505b5080516124625760405162461bcd60e51b81526004016106ca9061362d565b805181602001fd5b6001600160e01b031916630a85bd0160e11b149050611711565b506001611711565b6060612497826115bf565b6124fb5760405162461bcd60e51b815260206004820152602f60248201527f4552433732314d657461646174613a2055524920717565727920666f72206e6f60448201526e3732bc34b9ba32b73a103a37b5b2b760891b60648201526084016106ca565b600061251260408051602081019091526000815290565b9050600081511161253257604051806020016040528060008152506110fb565b8061253c84612b68565b60405160200161254d929190613539565b6040516020818303038152906040529392505050565b60006001600160e01b03198216635a05180f60e01b14806105ca57506105ca82612c82565b6000808251604114156125bf5760208301516040840151606085015160001a6125b387828585612cb7565b945094505050506125f1565b8251604014156125e957602083015160408401516125de868383612da4565b9350935050506125f1565b506000905060025b9250929050565b600081600481111561261a57634e487b7160e01b600052602160045260246000fd5b14156126235750565b600181600481111561264557634e487b7160e01b600052602160045260246000fd5b14156126935760405162461bcd60e51b815260206004820152601860248201527f45434453413a20696e76616c6964207369676e6174757265000000000000000060448201526064016106ca565b60028160048111156126b557634e487b7160e01b600052602160045260246000fd5b14156127035760405162461bcd60e51b815260206004820152601f60248201527f45434453413a20696e76616c6964207369676e6174757265206c656e6774680060448201526064016106ca565b600381600481111561272557634e487b7160e01b600052602160045260246000fd5b141561277e5760405162461bcd60e51b815260206004820152602260248201527f45434453413a20696e76616c6964207369676e6174757265202773272076616c604482015261756560f01b60648201526084016106ca565b60048160048111156127a057634e487b7160e01b600052602160045260246000fd5b1415610c2e5760405162461bcd60e51b815260206004820152602260248201527f45434453413a20696e76616c6964207369676e6174757265202776272076616c604482015261756560f01b60648201526084016106ca565b600f546000906301000000900460ff1680611d695750611d6960008051602061398683398151915233611102565b6001600160a01b0383166128825761287d81600a80546000838152600b60205260408120829055600182018355919091527fc65a7bb8d6351c1cf70c95a316cc6a92839c986682d98bc35f958f4883f9d2a80155565b6128a5565b816001600160a01b0316836001600160a01b0316146128a5576128a58382612dd3565b6001600160a01b0382166128bc5761080081612e70565b826001600160a01b0316826001600160a01b031614610800576108008282612f49565b606060006128ee83600261384a565b6128f990600261381e565b67ffffffffffffffff81111561291f57634e487b7160e01b600052604160045260246000fd5b6040519080825280601f01601f191660200182016040528015612949576020820181803683370190505b509050600360fc1b8160008151811061297257634e487b7160e01b600052603260045260246000fd5b60200101906001600160f81b031916908160001a905350600f60fb1b816001815181106129af57634e487b7160e01b600052603260045260246000fd5b60200101906001600160f81b031916908160001a90535060006129d384600261384a565b6129de90600161381e565b90505b6001811115612a72576f181899199a1a9b1b9c1cb0b131b232b360811b85600f1660108110612a2057634e487b7160e01b600052603260045260246000fd5b1a60f81b828281518110612a4457634e487b7160e01b600052603260045260246000fd5b60200101906001600160f81b031916908160001a90535060049490941c93612a6b816138ac565b90506129e1565b5083156110fb5760405162461bcd60e51b815260206004820181905260248201527f537472696e67733a20686578206c656e67746820696e73756666696369656e7460448201526064016106ca565b6000612acc82610e57565b9050612ada816000846120b0565b612ae56000836115dc565b6001600160a01b0381166000908152600560205260408120805460019290612b0e908490613869565b909155505060008281526004602052604080822080546001600160a01b0319169055518391906001600160a01b038416907fddf252ad1be2c89b69c2b068fc378daa952ba7f163c4a11628f55a4df523b3ef908390a45050565b606081612b8c5750506040805180820190915260018152600360fc1b602082015290565b8160005b8115612bb65780612ba0816138fe565b9150612baf9050600a83613836565b9150612b90565b60008167ffffffffffffffff811115612bdf57634e487b7160e01b600052604160045260246000fd5b6040519080825280601f01601f191660200182016040528015612c09576020820181803683370190505b5090505b841561171157612c1e600183613869565b9150612c2b600a86613919565b612c3690603061381e565b60f81b818381518110612c5957634e487b7160e01b600052603260045260246000fd5b60200101906001600160f81b031916908160001a905350612c7b600a86613836565b9450612c0d565b60006001600160e01b03198216637965db0b60e01b14806105ca57506301ffc9a760e01b6001600160e01b03198316146105ca565b6000807f7fffffffffffffffffffffffffffffff5d576e7357a4501ddfe92f46681b20a0831115612cee5750600090506003612d9b565b8460ff16601b14158015612d0657508460ff16601c14155b15612d175750600090506004612d9b565b6040805160008082526020820180845289905260ff881692820192909252606081018690526080810185905260019060a0016020604051602081039080840390855afa158015612d6b573d6000803e3d6000fd5b5050604051601f1901519150506001600160a01b038116612d9457600060019250925050612d9b565b9150600090505b94509492505050565b6000806001600160ff1b03831660ff84901c601b01612dc587828885612cb7565b935093505050935093915050565b60006001612de084610f1c565b612dea9190613869565b600083815260096020526040902054909150808214612e3d576001600160a01b03841660009081526008602090815260408083208584528252808320548484528184208190558352600990915290208190555b5060009182526009602090815260408084208490556001600160a01b039094168352600881528383209183525290812055565b600a54600090612e8290600190613869565b6000838152600b6020526040812054600a8054939450909284908110612eb857634e487b7160e01b600052603260045260246000fd5b9060005260206000200154905080600a8381548110612ee757634e487b7160e01b600052603260045260246000fd5b6000918252602080832090910192909255828152600b9091526040808220849055858252812055600a805480612f2d57634e487b7160e01b600052603160045260246000fd5b6001900381819060005260206000200160009055905550505050565b6000612f5483610f1c565b6001600160a01b039093166000908152600860209081526040808320868452825280832085905593825260099052919091209190915550565b828054612f99906138c3565b90600052602060002090601f016020900481019282612fbb5760008555613001565b82601f10612fd457805160ff1916838001178555613001565b82800160010185558215613001579182015b82811115613001578251825591602001919060010190612fe6565b5061300d929150613047565b5090565b50805461301d906138c3565b6000825580601f1061302d575050565b601f016020900490600052602060002090810190610c2e91905b5b8082111561300d5760008155600101613048565b80356001600160a01b038116811461307357600080fd5b919050565b8035801515811461307357600080fd5b600082601f830112613098578081fd5b813567ffffffffffffffff808211156130b3576130b3613959565b604051601f8301601f19908116603f011681019082821181831017156130db576130db613959565b816040528381528660208588010111156130f3578485fd5b8360208701602083013792830160200193909352509392505050565b600060208284031215613120578081fd5b6110fb8261305c565b6000806040838503121561313b578081fd5b6131448361305c565b91506131526020840161305c565b90509250929050565b60008060006060848603121561316f578081fd5b6131788461305c565b92506131866020850161305c565b9150604084013590509250925092565b600080600080608085870312156131ab578081fd5b6131b48561305c565b93506131c26020860161305c565b925060408501359150606085013567ffffffffffffffff8111156131e4578182fd5b6131f087828801613088565b91505092959194509250565b6000806040838503121561320e578182fd5b6132178361305c565b915061315260208401613078565b60008060408385031215613237578182fd5b6132408361305c565b9150602083013567ffffffffffffffff81111561325b578182fd5b61326785828601613088565b9150509250929050565b600080600060608486031215613285578283fd5b61328e8461305c565b9250602084013567ffffffffffffffff808211156132aa578384fd5b6132b687838801613088565b935060408601359150808211156132cb578283fd5b506132d886828701613088565b9150509250925092565b600080600080608085870312156132f7578384fd5b6133008561305c565b9350602085013567ffffffffffffffff8082111561331c578485fd5b61332888838901613088565b9450604087013591508082111561333d578384fd5b61334988838901613088565b9350606087013591508082111561335e578283fd5b506131f087828801613088565b6000806040838503121561337d578182fd5b6133868361305c565b946020939093013593505050565b6000602082840312156133a5578081fd5b6110fb82613078565b6000602082840312156133bf578081fd5b5035919050565b600080604083850312156133d8578182fd5b823591506131526020840161305c565b600080604083850312156133fa578182fd5b50508035926020909101359150565b60006020828403121561341a578081fd5b81356110fb8161396f565b600060208284031215613436578081fd5b81516110fb8161396f565b600060208284031215613452578081fd5b813567ffffffffffffffff811115613468578182fd5b61171184828501613088565b60008060408385031215613486578182fd5b82359150602083013567ffffffffffffffff81111561325b578182fd5b600081518084526134bb816020860160208601613880565b601f01601f19169290920160200192915050565b6bffffffffffffffffffffffff198460601b168152600083516134f9816014850160208801613880565b835190830190613510816014840160208801613880565b0160140195945050505050565b6000825161352f818460208701613880565b9190910192915050565b6000835161354b818460208801613880565b83519083019061355f818360208801613880565b01949350505050565b7f416363657373436f6e74726f6c3a206163636f756e74200000000000000000008152600083516135a0816017850160208801613880565b7001034b99036b4b9b9b4b733903937b6329607d1b60179184019182015283516135d1816028840160208801613880565b01602801949350505050565b6001600160a01b0385811682528416602082015260408101839052608060608201819052600090613610908301846134a3565b9695505050505050565b6020815260006110fb60208301846134a3565b60208082526032908201527f4552433732313a207472616e7366657220746f206e6f6e20455243373231526560408201527131b2b4bb32b91034b6b83632b6b2b73a32b960711b606082015260800190565b60208082526027908201527f4e6f6e46756e6769626c6552656769737472793a206d7573742062652072656760408201526634b9ba3930b91760c91b606082015260800190565b6020808252602c908201527f4552433732313a206f70657261746f7220717565727920666f72206e6f6e657860408201526b34b9ba32b73a103a37b5b2b760a11b606082015260800190565b60208082526044908201527f4e6f6e46756e6769626c6552656769737472793a2063616c6c6572206973206e60408201527f6f74206f776e6572206e6f7220617070726f766564206e6f72207265676973746060820152633930b91760e11b608082015260a00190565b60208082526031908201527f4e6f6e46756e6769626c6552656769737472793a206c6162656c20697320616c6040820152703932b0b23c903932b3b4b9ba32b932b21760791b606082015260800190565b60208082526031908201527f4552433732313a207472616e736665722063616c6c6572206973206e6f74206f6040820152701ddb995c881b9bdc88185c1c1c9bdd9959607a1b606082015260800190565b600082198211156138315761383161392d565b500190565b60008261384557613845613943565b500490565b60008160001904831182151516156138645761386461392d565b500290565b60008282101561387b5761387b61392d565b500390565b60005b8381101561389b578181015183820152602001613883565b8381111561132a5750506000910152565b6000816138bb576138bb61392d565b506000190190565b600181811c908216806138d757607f821691505b602082108114156138f857634e487b7160e01b600052602260045260246000fd5b50919050565b60006000198214156139125761391261392d565b5060010190565b60008261392857613928613943565b500690565b634e487b7160e01b600052601160045260246000fd5b634e487b7160e01b600052601260045260246000fd5b634e487b7160e01b600052604160045260246000fd5b6001600160e01b031981168114610c2e57600080fdfeedcc084d3dcd65a1f7f23c65c46722faca6953d28e43150a467cf43e5c309238a26469706673582212204781336097f2e3dc9ad5ac3aefe94032e957b667cf0ce3a097a04354b37f979a64736f6c63430008040033a26469706673582212204352005094a401fa3937ea7dfad8293d3ef8008e71e68374fffcbf4feedb082164736f6c634300080400336080604052600f805463ffffffff191663010001001790553480156200002457600080fd5b5060405162003e6338038062003e63833981016040819052620000479162000399565b8351849084906200006090600290602085019062000223565b5080516200007690600390602084019062000223565b506200008891506000905082620000be565b620000b47fedcc084d3dcd65a1f7f23c65c46722faca6953d28e43150a467cf43e5c30923883620000be565b5050505062000478565b620000d582826200010160201b6200157b1760201c565b6000828152600160209081526040909120620000fc9183906200158562000111821b17901c565b505050565b6200010d828262000131565b5050565b600062000128836001600160a01b038416620001d1565b90505b92915050565b6000828152602081815260408083206001600160a01b038516845290915290205460ff166200010d576000828152602081815260408083206001600160a01b03851684529091529020805460ff191660011790556200018d3390565b6001600160a01b0316816001600160a01b0316837f2f8788117e7eff1d82e926ec794901d17c78024a50270940304540a733656f0d60405160405180910390a45050565b60008181526001830160205260408120546200021a575081546001818101845560008481526020808220909301849055845484825282860190935260409020919091556200012b565b5060006200012b565b828054620002319062000425565b90600052602060002090601f016020900481019282620002555760008555620002a0565b82601f106200027057805160ff1916838001178555620002a0565b82800160010185558215620002a0579182015b82811115620002a057825182559160200191906001019062000283565b50620002ae929150620002b2565b5090565b5b80821115620002ae5760008155600101620002b3565b80516001600160a01b0381168114620002e157600080fd5b919050565b600082601f830112620002f7578081fd5b81516001600160401b038082111562000314576200031462000462565b604051601f8301601f19908116603f011681019082821181831017156200033f576200033f62000462565b816040528381526020925086838588010111156200035b578485fd5b8491505b838210156200037e57858201830151818301840152908201906200035f565b838211156200038f57848385830101525b9695505050505050565b60008060008060808587031215620003af578384fd5b84516001600160401b0380821115620003c6578586fd5b620003d488838901620002e6565b95506020870151915080821115620003ea578485fd5b50620003f987828801620002e6565b9350506200040a60408601620002c9565b91506200041a60608601620002c9565b905092959194509250565b600181811c908216806200043a57607f821691505b602082108114156200045c57634e487b7160e01b600052602260045260246000fd5b50919050565b634e487b7160e01b600052604160045260246000fd5b6139db80620004886000396000f3fe608060405234801561001057600080fd5b506004361061025e5760003560e01c80636f4c25aa11610146578063bb87c1c8116100c3578063d547741f11610087578063d547741f1461054b578063df50afa41461055e578063e985e9c514610571578063f68e955314610584578063f72a918a14610599578063fd90f232146105ac57600080fd5b8063bb87c1c8146104da578063bce8542e146104e7578063c004dcf614610512578063c87b56dd14610525578063ca15c8731461053857600080fd5b806393d0da071161010a57806393d0da071461049157806395d89b41146104a4578063a217fddf146104ac578063a22cb465146104b4578063b88d4fde146104c757600080fd5b80636f4c25aa1461043257806370a08231146104455780638d59cc02146104585780639010d07c1461046b57806391d148541461047e57600080fd5b80632f745c59116101df57806347f00d5a116101a357806347f00d5a146103c15780634f6ccce7146103d45780635471a057146103e75780636017160b146103f95780636352211e1461040c578063686c77d31461041f57600080fd5b80632f745c591461036257806336568abe1461037557806342842e0e1461038857806342966c681461039b57806343a75371146103ae57600080fd5b806318160ddd1161022657806318160ddd146102f35780632185810b1461030557806323b872dd14610319578063248a9ca31461032c5780632f2ff15d1461034f57600080fd5b806301ffc9a71461026357806306fdde031461028b578063081812fc146102a0578063095ea7b3146102cb5780630ecf9dfd146102e0575b600080fd5b610276610271366004613409565b6105bf565b60405190151581526020015b60405180910390f35b6102936105d0565b604051610282919061361a565b6102b36102ae3660046133ae565b610662565b6040516001600160a01b039091168152602001610282565b6102de6102d936600461336b565b6106ef565b005b6102de6102ee3660046132e2565b610805565b600a545b604051908152602001610282565b600f54610276906301000000900460ff1681565b6102de61032736600461315b565b610ad9565b6102f761033a3660046133ae565b60009081526020819052604090206001015490565b6102de61035d3660046133c6565b610b0a565b6102f761037036600461336b565b610b2c565b6102de6103833660046133c6565b610bc2565b6102de61039636600461315b565b610be4565b6102de6103a93660046133ae565b610bff565b6102de6103bc366004613394565b610c31565b6102de6103cf366004613474565b610c78565b6102f76103e23660046133ae565b610d1c565b600f5461027690610100900460ff1681565b6102936104073660046133ae565b610dbd565b6102b361041a3660046133ae565b610e57565b6102de61042d366004613394565b610ece565b600f546102769062010000900460ff1681565b6102f761045336600461310f565b610f1c565b6102de610466366004613271565b610fa3565b6102b36104793660046133e8565b6110e3565b61027661048c3660046133c6565b611102565b6102de61049f366004613474565b61112b565b610293611224565b6102f7600081565b6102de6104c23660046131fc565b611233565b6102de6104d5366004613196565b6112f8565b600f546102769060ff1681565b6102f76104f5366004613441565b8051602081830181018051600d8252928201919093012091525481565b6102de610520366004613394565b611330565b6102936105333660046133ae565b611380565b6102f76105463660046133ae565b61138b565b6102de6105593660046133c6565b6113a2565b6102de61056c366004613394565b6113ac565b61027661057f366004613129565b6113fe565b6102f760008051602061398683398151915281565b6102de6105a7366004613225565b61142c565b6102de6105ba36600461310f565b6114f2565b60006105ca8261159a565b92915050565b6060600280546105df906138c3565b80601f016020809104026020016040519081016040528092919081815260200182805461060b906138c3565b80156106585780601f1061062d57610100808354040283529160200191610658565b820191906000526020600020905b81548152906001019060200180831161063b57829003601f168201915b5050505050905090565b600061066d826115bf565b6106d35760405162461bcd60e51b815260206004820152602c60248201527f4552433732313a20617070726f76656420717565727920666f72206e6f6e657860448201526b34b9ba32b73a103a37b5b2b760a11b60648201526084015b60405180910390fd5b506000908152600660205260409020546001600160a01b031690565b60006106fa82610e57565b9050806001600160a01b0316836001600160a01b031614156107685760405162461bcd60e51b815260206004820152602160248201527f4552433732313a20617070726f76616c20746f2063757272656e74206f776e656044820152603960f91b60648201526084016106ca565b336001600160a01b0382161480610784575061078481336113fe565b6107f65760405162461bcd60e51b815260206004820152603860248201527f4552433732313a20617070726f76652063616c6c6572206973206e6f74206f7760448201527f6e6572206e6f7220617070726f76656420666f7220616c6c000000000000000060648201526084016106ca565b61080083836115dc565b505050565b600f5460ff166108735760405162461bcd60e51b815260206004820152603360248201527f4e6f6e46756e6769626c6552656769737472793a204c617a79207265676973746044820152723930ba34b7b71034b9903234b9b0b13632b21760691b60648201526084016106ca565b600f5462010000900460ff166109045760405162461bcd60e51b815260206004820152604a60248201527f4e6f6e46756e6769626c6552656769737472793a206c6162656c206368616e6760448201527f6573206d7573742062652064697361626c656420666f72206c617a792072656760648201526934b9ba3930ba34b7b71760b11b608482015260a4016106ca565b61090d8361164a565b156109805760405162461bcd60e51b815260206004820152603760248201527f4e6f6e46756e6769626c6552656769737472793a20526567697374726174696f60448201527f6e206c6162656c20616c7265616479206578697374732e00000000000000000060648201526084016106ca565b336001600160a01b038516146109ee5760405162461bcd60e51b815260206004820152602d60248201527f4e6f6e46756e6769626c6552656769737472793a2043616c6c6572206973206e60448201526c37ba103932b1b4b834b2b73a1760991b60648201526084016106ca565b6109fa84848484611674565b610a565760405162461bcd60e51b815260206004820152602760248201527f4e6f6e46756e6769626c6552656769737472793a207369676e6174757265206660448201526630b4b63ab9329760c91b60648201526084016106ca565b6000610a6160105490565b610a6c90600161381e565b9050610a788582611719565b610a86601080546001019055565b610a908184611858565b80600d85604051610aa1919061351d565b9081526040805160209281900383019020929092556000838152600e8252919091208551610ad192870190612f8d565b505050505050565b610ae333826118e3565b610aff5760405162461bcd60e51b81526004016106ca906137cd565b610800838383611960565b610b148282611b0b565b60008281526001602052604090206108009082611585565b6000610b3783610f1c565b8210610b995760405162461bcd60e51b815260206004820152602b60248201527f455243373231456e756d657261626c653a206f776e657220696e646578206f7560448201526a74206f6620626f756e647360a81b60648201526084016106ca565b506001600160a01b03919091166000908152600860209081526040808320938352929052205490565b610bcc8282611b31565b60008281526001602052604090206108009082611bab565b610800838383604051806020016040528060008152506112f8565b610c093382611bc0565b610c255760405162461bcd60e51b81526004016106ca90613712565b610c2e81611c5b565b50565b610c4960008051602061398683398151915233611102565b610c655760405162461bcd60e51b81526004016106ca9061367f565b600f805460ff1916911515919091179055565b610c80611d3d565b610ce75760405162461bcd60e51b815260206004820152603260248201527f4e6f6e46756e6769626c6552656769737472793a2053746f726167652075706460448201527130ba34b7339034b9903234b9b0b13632b21760711b60648201526084016106ca565b610cf2335b83611bc0565b610d0e5760405162461bcd60e51b81526004016106ca90613712565b610d188282611858565b5050565b6000610d27600a5490565b8210610d8a5760405162461bcd60e51b815260206004820152602c60248201527f455243373231456e756d657261626c653a20676c6f62616c20696e646578206f60448201526b7574206f6620626f756e647360a01b60648201526084016106ca565b600a8281548110610dab57634e487b7160e01b600052603260045260246000fd5b90600052602060002001549050919050565b600e6020526000908152604090208054610dd6906138c3565b80601f0160208091040260200160405190810160405280929190818152602001828054610e02906138c3565b8015610e4f5780601f10610e2457610100808354040283529160200191610e4f565b820191906000526020600020905b815481529060010190602001808311610e3257829003601f168201915b505050505081565b6000818152600460205260408120546001600160a01b0316806105ca5760405162461bcd60e51b815260206004820152602960248201527f4552433732313a206f776e657220717565727920666f72206e6f6e657869737460448201526832b73a103a37b5b2b760b91b60648201526084016106ca565b610ee660008051602061398683398151915233611102565b610f025760405162461bcd60e51b81526004016106ca9061367f565b600f80549115156101000261ff0019909216919091179055565b60006001600160a01b038216610f875760405162461bcd60e51b815260206004820152602a60248201527f4552433732313a2062616c616e636520717565727920666f7220746865207a65604482015269726f206164647265737360b01b60648201526084016106ca565b506001600160a01b031660009081526005602052604090205490565b610fbb60008051602061398683398151915233611102565b61103b5760405162461bcd60e51b815260206004820152604560248201527f4552433732315072657365744d696e7465725061757365724175746f49643a2060448201527f6d75737420686176652072656769737472617220726f6c6520746f207265676960648201526439ba32b91760d91b608482015260a4016106ca565b6110448261164a565b156110615760405162461bcd60e51b81526004016106ca9061377c565b600061106c60105490565b61107790600161381e565b90506110838482611719565b611091601080546001019055565b61109b8183611858565b80600d846040516110ac919061351d565b9081526040805160209281900383019020929092556000838152600e82529190912084516110dc92860190612f8d565b5050505050565b60008281526001602052604081206110fb9083611d6e565b9392505050565b6000918252602082815260408084206001600160a01b0393909316845291905290205460ff1690565b611133611d7a565b6111985760405162461bcd60e51b815260206004820152603060248201527f4e6f6e46756e6769626c6552656769737472793a204c6162656c20757064617460448201526f34b7339034b9903234b9b0b13632b21760811b60648201526084016106ca565b6111a133610cec565b6111bd5760405162461bcd60e51b81526004016106ca90613712565b6111c68161164a565b156111e35760405162461bcd60e51b81526004016106ca9061377c565b81600d826040516111f4919061351d565b9081526040805160209281900383019020929092556000848152600e825291909120825161080092840190612f8d565b6060600380546105df906138c3565b6001600160a01b03821633141561128c5760405162461bcd60e51b815260206004820152601960248201527f4552433732313a20617070726f766520746f2063616c6c65720000000000000060448201526064016106ca565b3360008181526007602090815260408083206001600160a01b03871680855290835292819020805460ff191686151590811790915590519081529192917f17307eab39ab6107e8899845ad3d59bd9653f200f220920489ca2b5937696c31910160405180910390a35050565b61130233836118e3565b61131e5760405162461bcd60e51b81526004016106ca906137cd565b61132a84848484611da7565b50505050565b61134860008051602061398683398151915233611102565b6113645760405162461bcd60e51b81526004016106ca9061367f565b600f8054911515620100000262ff000019909216919091179055565b60606105ca82611dda565b60008181526001602052604081206105ca90611f49565b610bcc8282611f53565b6113c460008051602061398683398151915233611102565b6113e05760405162461bcd60e51b81526004016106ca9061367f565b600f805491151563010000000263ff00000019909216919091179055565b6001600160a01b03918216600090815260076020908152604080832093909416825291909152205460ff1690565b61144460008051602061398683398151915233611102565b6114b8576040805162461bcd60e51b81526020600482015260248101919091527f4552433732315072657365744d696e7465725061757365724175746f49643a2060448201527f6d75737420686176652072656769737472617220726f6c6520746f206d696e7460648201526084016106ca565b60006114c360105490565b6114ce90600161381e565b90506114da8382611719565b6114e8601080546001019055565b6108008183611858565b6114fd600033611102565b61156f5760405162461bcd60e51b815260206004820152603960248201527f4e6f6e46756e6769626c6552656769737472793a206f6e6c792061646d696e2060448201527f63616e2064657374726f79207468652072656769737472792e0000000000000060648201526084016106ca565b806001600160a01b0316ff5b610d188282611f79565b60006110fb836001600160a01b038416611ffd565b60006001600160e01b0319821663780e9d6360e01b14806105ca57506105ca8261204c565b6000908152600460205260409020546001600160a01b0316151590565b600081815260066020526040902080546001600160a01b0319166001600160a01b038416908117909155819061161182610e57565b6001600160a01b03167f8c5be1e5ebec7d5bd14f71427d1e84f3dd0314c0f7b2291e5b200ac8c7c3b92560405160405180910390a45050565b6000600d8260405161165c919061351d565b90815260405190819003602001902054151592915050565b6000806116ef86868660405160200161168f939291906134cf565b60408051601f1981840301815282825280516020918201207f19457468657265756d205369676e6564204d6573736167653a0a33320000000084830152603c8085019190915282518085039091018152605c909301909152815191012090565b905061170d60008051602061398683398151915261048c838661208c565b9150505b949350505050565b6001600160a01b03821661176f5760405162461bcd60e51b815260206004820181905260248201527f4552433732313a206d696e7420746f20746865207a65726f206164647265737360448201526064016106ca565b611778816115bf565b156117c55760405162461bcd60e51b815260206004820152601c60248201527f4552433732313a20746f6b656e20616c7265616479206d696e7465640000000060448201526064016106ca565b6117d1600083836120b0565b6001600160a01b03821660009081526005602052604081208054600192906117fa90849061381e565b909155505060008181526004602052604080822080546001600160a01b0319166001600160a01b03861690811790915590518392907fddf252ad1be2c89b69c2b068fc378daa952ba7f163c4a11628f55a4df523b3ef908290a45050565b611861826115bf565b6118c45760405162461bcd60e51b815260206004820152602e60248201527f45524337323155524953746f726167653a2055524920736574206f66206e6f6e60448201526d32bc34b9ba32b73a103a37b5b2b760911b60648201526084016106ca565b6000828152600c60209081526040909120825161080092840190612f8d565b60006118ee826115bf565b61190a5760405162461bcd60e51b81526004016106ca906136c6565b600061191583610e57565b9050806001600160a01b0316846001600160a01b031614806119505750836001600160a01b031661194584610662565b6001600160a01b0316145b80611711575061171181856113fe565b826001600160a01b031661197382610e57565b6001600160a01b0316146119db5760405162461bcd60e51b815260206004820152602960248201527f4552433732313a207472616e73666572206f6620746f6b656e2074686174206960448201526839903737ba1037bbb760b91b60648201526084016106ca565b6001600160a01b038216611a3d5760405162461bcd60e51b8152602060048201526024808201527f4552433732313a207472616e7366657220746f20746865207a65726f206164646044820152637265737360e01b60648201526084016106ca565b611a488383836120b0565b611a536000826115dc565b6001600160a01b0383166000908152600560205260408120805460019290611a7c908490613869565b90915550506001600160a01b0382166000908152600560205260408120805460019290611aaa90849061381e565b909155505060008181526004602052604080822080546001600160a01b0319166001600160a01b0386811691821790925591518493918716917fddf252ad1be2c89b69c2b068fc378daa952ba7f163c4a11628f55a4df523b3ef91a4505050565b600082815260208190526040902060010154611b278133612124565b6108008383611f79565b6001600160a01b0381163314611ba15760405162461bcd60e51b815260206004820152602f60248201527f416363657373436f6e74726f6c3a2063616e206f6e6c792072656e6f756e636560448201526e103937b632b9903337b91039b2b63360891b60648201526084016106ca565b610d188282612188565b60006110fb836001600160a01b0384166121ed565b6000611bcb826115bf565b611be75760405162461bcd60e51b81526004016106ca906136c6565b6000611bf283610e57565b9050806001600160a01b0316846001600160a01b03161480611c2d5750836001600160a01b0316611c2284610662565b6001600160a01b0316145b80611c3d5750611c3d81856113fe565b80611711575061171160008051602061398683398151915233611102565b611c648161230a565b6000818152600e602052604081208054611c7d906138c3565b80601f0160208091040260200160405190810160405280929190818152602001828054611ca9906138c3565b8015611cf65780601f10611ccb57610100808354040283529160200191611cf6565b820191906000526020600020905b815481529060010190602001808311611cd957829003601f168201915b5050506000858152600e60205260408120939450611d179392509050613011565b600d81604051611d27919061351d565b9081526020016040518091039020600090555050565b600f54600090610100900460ff1680611d695750611d6960008051602061398683398151915233611102565b905090565b60006110fb838361234a565b600f5460009062010000900460ff1680611d695750611d6960008051602061398683398151915233611102565b611db2848484611960565b611dbe84848484612382565b61132a5760405162461bcd60e51b81526004016106ca9061362d565b6060611de5826115bf565b611e4b5760405162461bcd60e51b815260206004820152603160248201527f45524337323155524953746f726167653a2055524920717565727920666f72206044820152703737b732bc34b9ba32b73a103a37b5b2b760791b60648201526084016106ca565b6000828152600c602052604081208054611e64906138c3565b80601f0160208091040260200160405190810160405280929190818152602001828054611e90906138c3565b8015611edd5780601f10611eb257610100808354040283529160200191611edd565b820191906000526020600020905b815481529060010190602001808311611ec057829003601f168201915b505050505090506000611efb60408051602081019091526000815290565b9050805160001415611f0e575092915050565b815115611f40578082604051602001611f28929190613539565b60405160208183030381529060405292505050919050565b6117118461248c565b60006105ca825490565b600082815260208190526040902060010154611f6f8133612124565b6108008383612188565b611f838282611102565b610d18576000828152602081815260408083206001600160a01b03851684529091529020805460ff19166001179055611fb93390565b6001600160a01b0316816001600160a01b0316837f2f8788117e7eff1d82e926ec794901d17c78024a50270940304540a733656f0d60405160405180910390a45050565b6000818152600183016020526040812054612044575081546001818101845560008481526020808220909301849055845484825282860190935260409020919091556105ca565b5060006105ca565b60006001600160e01b031982166380ac58cd60e01b148061207d57506001600160e01b03198216635b5e139f60e01b145b806105ca57506105ca82612563565b600080600061209b8585612588565b915091506120a8816125f8565b509392505050565b6120b86127f9565b6121195760405162461bcd60e51b815260206004820152602c60248201527f4e6f6e46756e6769626c6552656769737472793a207472616e7366657273206160448201526b3932903234b9b0b13632b21760a11b60648201526084016106ca565b610800838383612827565b61212e8282611102565b610d1857612146816001600160a01b031660146128df565b6121518360206128df565b604051602001612162929190613568565b60408051601f198184030181529082905262461bcd60e51b82526106ca9160040161361a565b6121928282611102565b15610d18576000828152602081815260408083206001600160a01b0385168085529252808320805460ff1916905551339285917ff6391f5c32d9c69d2a47ea670b442974b53935d1edc7fd64eb21e047a839171b9190a45050565b60008181526001830160205260408120548015612300576000612211600183613869565b855490915060009061222590600190613869565b90508181146122a657600086600001828154811061225357634e487b7160e01b600052603260045260246000fd5b906000526020600020015490508087600001848154811061228457634e487b7160e01b600052603260045260246000fd5b6000918252602080832090910192909255918252600188019052604090208390555b85548690806122c557634e487b7160e01b600052603160045260246000fd5b6001900381819060005260206000200160009055905585600101600086815260200190815260200160002060009055600193505050506105ca565b60009150506105ca565b61231381612ac1565b6000818152600c60205260409020805461232c906138c3565b159050610c2e576000818152600c60205260408120610c2e91613011565b600082600001828154811061236f57634e487b7160e01b600052603260045260246000fd5b9060005260206000200154905092915050565b60006001600160a01b0384163b1561248457604051630a85bd0160e11b81526001600160a01b0385169063150b7a02906123c69033908990889088906004016135dd565b602060405180830381600087803b1580156123e057600080fd5b505af1925050508015612410575060408051601f3d908101601f1916820190925261240d91810190613425565b60015b61246a573d80801561243e576040519150601f19603f3d011682016040523d82523d6000602084013e612443565b606091505b5080516124625760405162461bcd60e51b81526004016106ca9061362d565b805181602001fd5b6001600160e01b031916630a85bd0160e11b149050611711565b506001611711565b6060612497826115bf565b6124fb5760405162461bcd60e51b815260206004820152602f60248201527f4552433732314d657461646174613a2055524920717565727920666f72206e6f60448201526e3732bc34b9ba32b73a103a37b5b2b760891b60648201526084016106ca565b600061251260408051602081019091526000815290565b9050600081511161253257604051806020016040528060008152506110fb565b8061253c84612b68565b60405160200161254d929190613539565b6040516020818303038152906040529392505050565b60006001600160e01b03198216635a05180f60e01b14806105ca57506105ca82612c82565b6000808251604114156125bf5760208301516040840151606085015160001a6125b387828585612cb7565b945094505050506125f1565b8251604014156125e957602083015160408401516125de868383612da4565b9350935050506125f1565b506000905060025b9250929050565b600081600481111561261a57634e487b7160e01b600052602160045260246000fd5b14156126235750565b600181600481111561264557634e487b7160e01b600052602160045260246000fd5b14156126935760405162461bcd60e51b815260206004820152601860248201527f45434453413a20696e76616c6964207369676e6174757265000000000000000060448201526064016106ca565b60028160048111156126b557634e487b7160e01b600052602160045260246000fd5b14156127035760405162461bcd60e51b815260206004820152601f60248201527f45434453413a20696e76616c6964207369676e6174757265206c656e6774680060448201526064016106ca565b600381600481111561272557634e487b7160e01b600052602160045260246000fd5b141561277e5760405162461bcd60e51b815260206004820152602260248201527f45434453413a20696e76616c6964207369676e6174757265202773272076616c604482015261756560f01b60648201526084016106ca565b60048160048111156127a057634e487b7160e01b600052602160045260246000fd5b1415610c2e5760405162461bcd60e51b815260206004820152602260248201527f45434453413a20696e76616c6964207369676e6174757265202776272076616c604482015261756560f01b60648201526084016106ca565b600f546000906301000000900460ff1680611d695750611d6960008051602061398683398151915233611102565b6001600160a01b0383166128825761287d81600a80546000838152600b60205260408120829055600182018355919091527fc65a7bb8d6351c1cf70c95a316cc6a92839c986682d98bc35f958f4883f9d2a80155565b6128a5565b816001600160a01b0316836001600160a01b0316146128a5576128a58382612dd3565b6001600160a01b0382166128bc5761080081612e70565b826001600160a01b0316826001600160a01b031614610800576108008282612f49565b606060006128ee83600261384a565b6128f990600261381e565b67ffffffffffffffff81111561291f57634e487b7160e01b600052604160045260246000fd5b6040519080825280601f01601f191660200182016040528015612949576020820181803683370190505b509050600360fc1b8160008151811061297257634e487b7160e01b600052603260045260246000fd5b60200101906001600160f81b031916908160001a905350600f60fb1b816001815181106129af57634e487b7160e01b600052603260045260246000fd5b60200101906001600160f81b031916908160001a90535060006129d384600261384a565b6129de90600161381e565b90505b6001811115612a72576f181899199a1a9b1b9c1cb0b131b232b360811b85600f1660108110612a2057634e487b7160e01b600052603260045260246000fd5b1a60f81b828281518110612a4457634e487b7160e01b600052603260045260246000fd5b60200101906001600160f81b031916908160001a90535060049490941c93612a6b816138ac565b90506129e1565b5083156110fb5760405162461bcd60e51b815260206004820181905260248201527f537472696e67733a20686578206c656e67746820696e73756666696369656e7460448201526064016106ca565b6000612acc82610e57565b9050612ada816000846120b0565b612ae56000836115dc565b6001600160a01b0381166000908152600560205260408120805460019290612b0e908490613869565b909155505060008281526004602052604080822080546001600160a01b0319169055518391906001600160a01b038416907fddf252ad1be2c89b69c2b068fc378daa952ba7f163c4a11628f55a4df523b3ef908390a45050565b606081612b8c5750506040805180820190915260018152600360fc1b602082015290565b8160005b8115612bb65780612ba0816138fe565b9150612baf9050600a83613836565b9150612b90565b60008167ffffffffffffffff811115612bdf57634e487b7160e01b600052604160045260246000fd5b6040519080825280601f01601f191660200182016040528015612c09576020820181803683370190505b5090505b841561171157612c1e600183613869565b9150612c2b600a86613919565b612c3690603061381e565b60f81b818381518110612c5957634e487b7160e01b600052603260045260246000fd5b60200101906001600160f81b031916908160001a905350612c7b600a86613836565b9450612c0d565b60006001600160e01b03198216637965db0b60e01b14806105ca57506301ffc9a760e01b6001600160e01b03198316146105ca565b6000807f7fffffffffffffffffffffffffffffff5d576e7357a4501ddfe92f46681b20a0831115612cee5750600090506003612d9b565b8460ff16601b14158015612d0657508460ff16601c14155b15612d175750600090506004612d9b565b6040805160008082526020820180845289905260ff881692820192909252606081018690526080810185905260019060a0016020604051602081039080840390855afa158015612d6b573d6000803e3d6000fd5b5050604051601f1901519150506001600160a01b038116612d9457600060019250925050612d9b565b9150600090505b94509492505050565b6000806001600160ff1b03831660ff84901c601b01612dc587828885612cb7565b935093505050935093915050565b60006001612de084610f1c565b612dea9190613869565b600083815260096020526040902054909150808214612e3d576001600160a01b03841660009081526008602090815260408083208584528252808320548484528184208190558352600990915290208190555b5060009182526009602090815260408084208490556001600160a01b039094168352600881528383209183525290812055565b600a54600090612e8290600190613869565b6000838152600b6020526040812054600a8054939450909284908110612eb857634e487b7160e01b600052603260045260246000fd5b9060005260206000200154905080600a8381548110612ee757634e487b7160e01b600052603260045260246000fd5b6000918252602080832090910192909255828152600b9091526040808220849055858252812055600a805480612f2d57634e487b7160e01b600052603160045260246000fd5b6001900381819060005260206000200160009055905550505050565b6000612f5483610f1c565b6001600160a01b039093166000908152600860209081526040808320868452825280832085905593825260099052919091209190915550565b828054612f99906138c3565b90600052602060002090601f016020900481019282612fbb5760008555613001565b82601f10612fd457805160ff1916838001178555613001565b82800160010185558215613001579182015b82811115613001578251825591602001919060010190612fe6565b5061300d929150613047565b5090565b50805461301d906138c3565b6000825580601f1061302d575050565b601f016020900490600052602060002090810190610c2e91905b5b8082111561300d5760008155600101613048565b80356001600160a01b038116811461307357600080fd5b919050565b8035801515811461307357600080fd5b600082601f830112613098578081fd5b813567ffffffffffffffff808211156130b3576130b3613959565b604051601f8301601f19908116603f011681019082821181831017156130db576130db613959565b816040528381528660208588010111156130f3578485fd5b8360208701602083013792830160200193909352509392505050565b600060208284031215613120578081fd5b6110fb8261305c565b6000806040838503121561313b578081fd5b6131448361305c565b91506131526020840161305c565b90509250929050565b60008060006060848603121561316f578081fd5b6131788461305c565b92506131866020850161305c565b9150604084013590509250925092565b600080600080608085870312156131ab578081fd5b6131b48561305c565b93506131c26020860161305c565b925060408501359150606085013567ffffffffffffffff8111156131e4578182fd5b6131f087828801613088565b91505092959194509250565b6000806040838503121561320e578182fd5b6132178361305c565b915061315260208401613078565b60008060408385031215613237578182fd5b6132408361305c565b9150602083013567ffffffffffffffff81111561325b578182fd5b61326785828601613088565b9150509250929050565b600080600060608486031215613285578283fd5b61328e8461305c565b9250602084013567ffffffffffffffff808211156132aa578384fd5b6132b687838801613088565b935060408601359150808211156132cb578283fd5b506132d886828701613088565b9150509250925092565b600080600080608085870312156132f7578384fd5b6133008561305c565b9350602085013567ffffffffffffffff8082111561331c578485fd5b61332888838901613088565b9450604087013591508082111561333d578384fd5b61334988838901613088565b9350606087013591508082111561335e578283fd5b506131f087828801613088565b6000806040838503121561337d578182fd5b6133868361305c565b946020939093013593505050565b6000602082840312156133a5578081fd5b6110fb82613078565b6000602082840312156133bf578081fd5b5035919050565b600080604083850312156133d8578182fd5b823591506131526020840161305c565b600080604083850312156133fa578182fd5b50508035926020909101359150565b60006020828403121561341a578081fd5b81356110fb8161396f565b600060208284031215613436578081fd5b81516110fb8161396f565b600060208284031215613452578081fd5b813567ffffffffffffffff811115613468578182fd5b61171184828501613088565b60008060408385031215613486578182fd5b82359150602083013567ffffffffffffffff81111561325b578182fd5b600081518084526134bb816020860160208601613880565b601f01601f19169290920160200192915050565b6bffffffffffffffffffffffff198460601b168152600083516134f9816014850160208801613880565b835190830190613510816014840160208801613880565b0160140195945050505050565b6000825161352f818460208701613880565b9190910192915050565b6000835161354b818460208801613880565b83519083019061355f818360208801613880565b01949350505050565b7f416363657373436f6e74726f6c3a206163636f756e74200000000000000000008152600083516135a0816017850160208801613880565b7001034b99036b4b9b9b4b733903937b6329607d1b60179184019182015283516135d1816028840160208801613880565b01602801949350505050565b6001600160a01b0385811682528416602082015260408101839052608060608201819052600090613610908301846134a3565b9695505050505050565b6020815260006110fb60208301846134a3565b60208082526032908201527f4552433732313a207472616e7366657220746f206e6f6e20455243373231526560408201527131b2b4bb32b91034b6b83632b6b2b73a32b960711b606082015260800190565b60208082526027908201527f4e6f6e46756e6769626c6552656769737472793a206d7573742062652072656760408201526634b9ba3930b91760c91b606082015260800190565b6020808252602c908201527f4552433732313a206f70657261746f7220717565727920666f72206e6f6e657860408201526b34b9ba32b73a103a37b5b2b760a11b606082015260800190565b60208082526044908201527f4e6f6e46756e6769626c6552656769737472793a2063616c6c6572206973206e60408201527f6f74206f776e6572206e6f7220617070726f766564206e6f72207265676973746060820152633930b91760e11b608082015260a00190565b60208082526031908201527f4e6f6e46756e6769626c6552656769737472793a206c6162656c20697320616c6040820152703932b0b23c903932b3b4b9ba32b932b21760791b606082015260800190565b60208082526031908201527f4552433732313a207472616e736665722063616c6c6572206973206e6f74206f6040820152701ddb995c881b9bdc88185c1c1c9bdd9959607a1b606082015260800190565b600082198211156138315761383161392d565b500190565b60008261384557613845613943565b500490565b60008160001904831182151516156138645761386461392d565b500290565b60008282101561387b5761387b61392d565b500390565b60005b8381101561389b578181015183820152602001613883565b8381111561132a5750506000910152565b6000816138bb576138bb61392d565b506000190190565b600181811c908216806138d757607f821691505b602082108114156138f857634e487b7160e01b600052602260045260246000fd5b50919050565b60006000198214156139125761391261392d565b5060010190565b60008261392857613928613943565b500690565b634e487b7160e01b600052601160045260246000fd5b634e487b7160e01b600052601260045260246000fd5b634e487b7160e01b600052604160045260246000fd5b6001600160e01b031981168114610c2e57600080fdfeedcc084d3dcd65a1f7f23c65c46722faca6953d28e43150a467cf43e5c309238a26469706673582212204781336097f2e3dc9ad5ac3aefe94032e957b667cf0ce3a097a04354b37f979a64736f6c634300080400335265676973747279466163746f72793a20496e697469616c697a657220617272",
  "linkReferences": {},
  "deployedLinkReferences": {}
}