{
  "_format": "hh-sol-artifact-1",
  "contractName": "HypernetGovernor",
  "sourceName": "contracts/governance/HypernetGovernor.sol",
  "abi": [
    {
      "inputs": [
        {
          "internalType": "contract ERC20Votes",
          "name": "_token",
          "type": "address"
        },
        {
          "internalType": "contract TimelockController",
          "name": "_timelock",
          "type": "address"
        }
      ],
      "stateMutability": "nonpayable",
      "type": "constructor"
    },
    {
      "anonymous": false,
      "inputs": [
        {
          "indexed": false,
          "internalType": "uint256",
          "name": "proposalId",
          "type": "uint256"
        }
      ],
      "name": "ProposalCanceled",
      "type": "event"
    },
    {
      "anonymous": false,
      "inputs": [
        {
          "indexed": false,
          "internalType": "uint256",
          "name": "proposalId",
          "type": "uint256"
        },
        {
          "indexed": false,
          "internalType": "address",
          "name": "proposer",
          "type": "address"
        },
        {
          "indexed": false,
          "internalType": "address[]",
          "name": "targets",
          "type": "address[]"
        },
        {
          "indexed": false,
          "internalType": "uint256[]",
          "name": "values",
          "type": "uint256[]"
        },
        {
          "indexed": false,
          "internalType": "string[]",
          "name": "signatures",
          "type": "string[]"
        },
        {
          "indexed": false,
          "internalType": "bytes[]",
          "name": "calldatas",
          "type": "bytes[]"
        },
        {
          "indexed": false,
          "internalType": "uint256",
          "name": "startBlock",
          "type": "uint256"
        },
        {
          "indexed": false,
          "internalType": "uint256",
          "name": "endBlock",
          "type": "uint256"
        },
        {
          "indexed": false,
          "internalType": "string",
          "name": "description",
          "type": "string"
        }
      ],
      "name": "ProposalCreated",
      "type": "event"
    },
    {
      "anonymous": false,
      "inputs": [
        {
          "indexed": false,
          "internalType": "uint256",
          "name": "proposalId",
          "type": "uint256"
        }
      ],
      "name": "ProposalExecuted",
      "type": "event"
    },
    {
      "anonymous": false,
      "inputs": [
        {
          "indexed": false,
          "internalType": "uint256",
          "name": "proposalId",
          "type": "uint256"
        },
        {
          "indexed": false,
          "internalType": "uint256",
          "name": "eta",
          "type": "uint256"
        }
      ],
      "name": "ProposalQueued",
      "type": "event"
    },
    {
      "anonymous": false,
      "inputs": [
        {
          "indexed": false,
          "internalType": "uint256",
          "name": "oldQuorumNumerator",
          "type": "uint256"
        },
        {
          "indexed": false,
          "internalType": "uint256",
          "name": "newQuorumNumerator",
          "type": "uint256"
        }
      ],
      "name": "QuorumNumeratorUpdated",
      "type": "event"
    },
    {
      "anonymous": false,
      "inputs": [
        {
          "indexed": false,
          "internalType": "address",
          "name": "oldTimelock",
          "type": "address"
        },
        {
          "indexed": false,
          "internalType": "address",
          "name": "newTimelock",
          "type": "address"
        }
      ],
      "name": "TimelockChange",
      "type": "event"
    },
    {
      "anonymous": false,
      "inputs": [
        {
          "indexed": true,
          "internalType": "address",
          "name": "voter",
          "type": "address"
        },
        {
          "indexed": false,
          "internalType": "uint256",
          "name": "proposalId",
          "type": "uint256"
        },
        {
          "indexed": false,
          "internalType": "uint8",
          "name": "support",
          "type": "uint8"
        },
        {
          "indexed": false,
          "internalType": "uint256",
          "name": "weight",
          "type": "uint256"
        },
        {
          "indexed": false,
          "internalType": "string",
          "name": "reason",
          "type": "string"
        }
      ],
      "name": "VoteCast",
      "type": "event"
    },
    {
      "inputs": [],
      "name": "BALLOT_TYPEHASH",
      "outputs": [
        {
          "internalType": "bytes32",
          "name": "",
          "type": "bytes32"
        }
      ],
      "stateMutability": "view",
      "type": "function"
    },
    {
      "inputs": [],
      "name": "COUNTING_MODE",
      "outputs": [
        {
          "internalType": "string",
          "name": "",
          "type": "string"
        }
      ],
      "stateMutability": "pure",
      "type": "function"
    },
    {
      "inputs": [],
      "name": "_proposalIdTracker",
      "outputs": [
        {
          "internalType": "uint256",
          "name": "_value",
          "type": "uint256"
        }
      ],
      "stateMutability": "view",
      "type": "function"
    },
    {
      "inputs": [
        {
          "internalType": "uint256",
          "name": "",
          "type": "uint256"
        }
      ],
      "name": "_proposalMap",
      "outputs": [
        {
          "internalType": "uint256",
          "name": "",
          "type": "uint256"
        }
      ],
      "stateMutability": "view",
      "type": "function"
    },
    {
      "inputs": [
        {
          "internalType": "uint256",
          "name": "proposalId",
          "type": "uint256"
        }
      ],
      "name": "cancel",
      "outputs": [],
      "stateMutability": "nonpayable",
      "type": "function"
    },
    {
      "inputs": [
        {
          "internalType": "uint256",
          "name": "proposalId",
          "type": "uint256"
        },
        {
          "internalType": "uint8",
          "name": "support",
          "type": "uint8"
        }
      ],
      "name": "castVote",
      "outputs": [
        {
          "internalType": "uint256",
          "name": "",
          "type": "uint256"
        }
      ],
      "stateMutability": "nonpayable",
      "type": "function"
    },
    {
      "inputs": [
        {
          "internalType": "uint256",
          "name": "proposalId",
          "type": "uint256"
        },
        {
          "internalType": "uint8",
          "name": "support",
          "type": "uint8"
        },
        {
          "internalType": "uint8",
          "name": "v",
          "type": "uint8"
        },
        {
          "internalType": "bytes32",
          "name": "r",
          "type": "bytes32"
        },
        {
          "internalType": "bytes32",
          "name": "s",
          "type": "bytes32"
        }
      ],
      "name": "castVoteBySig",
      "outputs": [
        {
          "internalType": "uint256",
          "name": "",
          "type": "uint256"
        }
      ],
      "stateMutability": "nonpayable",
      "type": "function"
    },
    {
      "inputs": [
        {
          "internalType": "uint256",
          "name": "proposalId",
          "type": "uint256"
        },
        {
          "internalType": "uint8",
          "name": "support",
          "type": "uint8"
        },
        {
          "internalType": "string",
          "name": "reason",
          "type": "string"
        }
      ],
      "name": "castVoteWithReason",
      "outputs": [
        {
          "internalType": "uint256",
          "name": "",
          "type": "uint256"
        }
      ],
      "stateMutability": "nonpayable",
      "type": "function"
    },
    {
      "inputs": [
        {
          "internalType": "address[]",
          "name": "targets",
          "type": "address[]"
        },
        {
          "internalType": "uint256[]",
          "name": "values",
          "type": "uint256[]"
        },
        {
          "internalType": "bytes[]",
          "name": "calldatas",
          "type": "bytes[]"
        },
        {
          "internalType": "bytes32",
          "name": "descriptionHash",
          "type": "bytes32"
        }
      ],
      "name": "execute",
      "outputs": [
        {
          "internalType": "uint256",
          "name": "",
          "type": "uint256"
        }
      ],
      "stateMutability": "payable",
      "type": "function"
    },
    {
      "inputs": [
        {
          "internalType": "uint256",
          "name": "proposalId",
          "type": "uint256"
        }
      ],
      "name": "execute",
      "outputs": [],
      "stateMutability": "payable",
      "type": "function"
    },
    {
      "inputs": [
        {
          "internalType": "uint256",
          "name": "proposalId",
          "type": "uint256"
        }
      ],
      "name": "getActions",
      "outputs": [
        {
          "internalType": "address[]",
          "name": "targets",
          "type": "address[]"
        },
        {
          "internalType": "uint256[]",
          "name": "values",
          "type": "uint256[]"
        },
        {
          "internalType": "string[]",
          "name": "signatures",
          "type": "string[]"
        },
        {
          "internalType": "bytes[]",
          "name": "calldatas",
          "type": "bytes[]"
        }
      ],
      "stateMutability": "view",
      "type": "function"
    },
    {
      "inputs": [
        {
          "internalType": "uint256",
          "name": "proposalId",
          "type": "uint256"
        },
        {
          "internalType": "address",
          "name": "voter",
          "type": "address"
        }
      ],
      "name": "getReceipt",
      "outputs": [
        {
          "components": [
            {
              "internalType": "bool",
              "name": "hasVoted",
              "type": "bool"
            },
            {
              "internalType": "uint8",
              "name": "support",
              "type": "uint8"
            },
            {
              "internalType": "uint96",
              "name": "votes",
              "type": "uint96"
            }
          ],
          "internalType": "struct IGovernorCompatibilityBravo.Receipt",
          "name": "",
          "type": "tuple"
        }
      ],
      "stateMutability": "view",
      "type": "function"
    },
    {
      "inputs": [
        {
          "internalType": "address",
          "name": "account",
          "type": "address"
        },
        {
          "internalType": "uint256",
          "name": "blockNumber",
          "type": "uint256"
        }
      ],
      "name": "getVotes",
      "outputs": [
        {
          "internalType": "uint256",
          "name": "",
          "type": "uint256"
        }
      ],
      "stateMutability": "view",
      "type": "function"
    },
    {
      "inputs": [
        {
          "internalType": "uint256",
          "name": "proposalId",
          "type": "uint256"
        },
        {
          "internalType": "address",
          "name": "account",
          "type": "address"
        }
      ],
      "name": "hasVoted",
      "outputs": [
        {
          "internalType": "bool",
          "name": "",
          "type": "bool"
        }
      ],
      "stateMutability": "view",
      "type": "function"
    },
    {
      "inputs": [
        {
          "internalType": "address[]",
          "name": "targets",
          "type": "address[]"
        },
        {
          "internalType": "uint256[]",
          "name": "values",
          "type": "uint256[]"
        },
        {
          "internalType": "bytes[]",
          "name": "calldatas",
          "type": "bytes[]"
        },
        {
          "internalType": "bytes32",
          "name": "descriptionHash",
          "type": "bytes32"
        }
      ],
      "name": "hashProposal",
      "outputs": [
        {
          "internalType": "uint256",
          "name": "",
          "type": "uint256"
        }
      ],
      "stateMutability": "pure",
      "type": "function"
    },
    {
      "inputs": [],
      "name": "hypernetProfileRegistry",
      "outputs": [
        {
          "internalType": "address",
          "name": "",
          "type": "address"
        }
      ],
      "stateMutability": "view",
      "type": "function"
    },
    {
      "inputs": [],
      "name": "name",
      "outputs": [
        {
          "internalType": "string",
          "name": "",
          "type": "string"
        }
      ],
      "stateMutability": "view",
      "type": "function"
    },
    {
      "inputs": [
        {
          "internalType": "uint256",
          "name": "proposalId",
          "type": "uint256"
        }
      ],
      "name": "proposalDeadline",
      "outputs": [
        {
          "internalType": "uint256",
          "name": "",
          "type": "uint256"
        }
      ],
      "stateMutability": "view",
      "type": "function"
    },
    {
      "inputs": [
        {
          "internalType": "uint256",
          "name": "",
          "type": "uint256"
        }
      ],
      "name": "proposalDescriptions",
      "outputs": [
        {
          "internalType": "string",
          "name": "",
          "type": "string"
        }
      ],
      "stateMutability": "view",
      "type": "function"
    },
    {
      "inputs": [
        {
          "internalType": "uint256",
          "name": "proposalId",
          "type": "uint256"
        }
      ],
      "name": "proposalEta",
      "outputs": [
        {
          "internalType": "uint256",
          "name": "",
          "type": "uint256"
        }
      ],
      "stateMutability": "view",
      "type": "function"
    },
    {
      "inputs": [
        {
          "internalType": "uint256",
          "name": "proposalId",
          "type": "uint256"
        }
      ],
      "name": "proposalSnapshot",
      "outputs": [
        {
          "internalType": "uint256",
          "name": "",
          "type": "uint256"
        }
      ],
      "stateMutability": "view",
      "type": "function"
    },
    {
      "inputs": [],
      "name": "proposalThreshold",
      "outputs": [
        {
          "internalType": "uint256",
          "name": "",
          "type": "uint256"
        }
      ],
      "stateMutability": "view",
      "type": "function"
    },
    {
      "inputs": [
        {
          "internalType": "uint256",
          "name": "proposalId",
          "type": "uint256"
        }
      ],
      "name": "proposals",
      "outputs": [
        {
          "internalType": "uint256",
          "name": "id",
          "type": "uint256"
        },
        {
          "internalType": "address",
          "name": "proposer",
          "type": "address"
        },
        {
          "internalType": "uint256",
          "name": "eta",
          "type": "uint256"
        },
        {
          "internalType": "uint256",
          "name": "startBlock",
          "type": "uint256"
        },
        {
          "internalType": "uint256",
          "name": "endBlock",
          "type": "uint256"
        },
        {
          "internalType": "uint256",
          "name": "forVotes",
          "type": "uint256"
        },
        {
          "internalType": "uint256",
          "name": "againstVotes",
          "type": "uint256"
        },
        {
          "internalType": "uint256",
          "name": "abstainVotes",
          "type": "uint256"
        },
        {
          "internalType": "bool",
          "name": "canceled",
          "type": "bool"
        },
        {
          "internalType": "bool",
          "name": "executed",
          "type": "bool"
        }
      ],
      "stateMutability": "view",
      "type": "function"
    },
    {
      "inputs": [
        {
          "internalType": "address[]",
          "name": "targets",
          "type": "address[]"
        },
        {
          "internalType": "uint256[]",
          "name": "values",
          "type": "uint256[]"
        },
        {
          "internalType": "bytes[]",
          "name": "calldatas",
          "type": "bytes[]"
        },
        {
          "internalType": "string",
          "name": "description",
          "type": "string"
        }
      ],
      "name": "propose",
      "outputs": [
        {
          "internalType": "uint256",
          "name": "",
          "type": "uint256"
        }
      ],
      "stateMutability": "nonpayable",
      "type": "function"
    },
    {
      "inputs": [
        {
          "internalType": "address[]",
          "name": "targets",
          "type": "address[]"
        },
        {
          "internalType": "uint256[]",
          "name": "values",
          "type": "uint256[]"
        },
        {
          "internalType": "string[]",
          "name": "signatures",
          "type": "string[]"
        },
        {
          "internalType": "bytes[]",
          "name": "calldatas",
          "type": "bytes[]"
        },
        {
          "internalType": "string",
          "name": "description",
          "type": "string"
        }
      ],
      "name": "propose",
      "outputs": [
        {
          "internalType": "uint256",
          "name": "",
          "type": "uint256"
        }
      ],
      "stateMutability": "nonpayable",
      "type": "function"
    },
    {
      "inputs": [
        {
          "internalType": "address[]",
          "name": "targets",
          "type": "address[]"
        },
        {
          "internalType": "uint256[]",
          "name": "values",
          "type": "uint256[]"
        },
        {
          "internalType": "bytes[]",
          "name": "calldatas",
          "type": "bytes[]"
        },
        {
          "internalType": "bytes32",
          "name": "descriptionHash",
          "type": "bytes32"
        }
      ],
      "name": "queue",
      "outputs": [
        {
          "internalType": "uint256",
          "name": "",
          "type": "uint256"
        }
      ],
      "stateMutability": "nonpayable",
      "type": "function"
    },
    {
      "inputs": [
        {
          "internalType": "uint256",
          "name": "proposalId",
          "type": "uint256"
        }
      ],
      "name": "queue",
      "outputs": [],
      "stateMutability": "nonpayable",
      "type": "function"
    },
    {
      "inputs": [
        {
          "internalType": "uint256",
          "name": "blockNumber",
          "type": "uint256"
        }
      ],
      "name": "quorum",
      "outputs": [
        {
          "internalType": "uint256",
          "name": "",
          "type": "uint256"
        }
      ],
      "stateMutability": "view",
      "type": "function"
    },
    {
      "inputs": [],
      "name": "quorumDenominator",
      "outputs": [
        {
          "internalType": "uint256",
          "name": "",
          "type": "uint256"
        }
      ],
      "stateMutability": "view",
      "type": "function"
    },
    {
      "inputs": [],
      "name": "quorumNumerator",
      "outputs": [
        {
          "internalType": "uint256",
          "name": "",
          "type": "uint256"
        }
      ],
      "stateMutability": "view",
      "type": "function"
    },
    {
      "inputs": [],
      "name": "quorumVotes",
      "outputs": [
        {
          "internalType": "uint256",
          "name": "",
          "type": "uint256"
        }
      ],
      "stateMutability": "view",
      "type": "function"
    },
    {
      "inputs": [
        {
          "internalType": "address",
          "name": "_hypernetProfileRegistry",
          "type": "address"
        }
      ],
      "name": "setProfileRegistry",
      "outputs": [],
      "stateMutability": "nonpayable",
      "type": "function"
    },
    {
      "inputs": [
        {
          "internalType": "uint256",
          "name": "newProposalThreshold",
          "type": "uint256"
        }
      ],
      "name": "setProposalThreshold",
      "outputs": [],
      "stateMutability": "nonpayable",
      "type": "function"
    },
    {
      "inputs": [
        {
          "internalType": "uint256",
          "name": "newVotingDelay",
          "type": "uint256"
        }
      ],
      "name": "setVotingDelay",
      "outputs": [],
      "stateMutability": "nonpayable",
      "type": "function"
    },
    {
      "inputs": [
        {
          "internalType": "uint256",
          "name": "newVotingPeriod",
          "type": "uint256"
        }
      ],
      "name": "setVotingPeriod",
      "outputs": [],
      "stateMutability": "nonpayable",
      "type": "function"
    },
    {
      "inputs": [
        {
          "internalType": "uint256",
          "name": "proposalId",
          "type": "uint256"
        }
      ],
      "name": "state",
      "outputs": [
        {
          "internalType": "enum IGovernor.ProposalState",
          "name": "",
          "type": "uint8"
        }
      ],
      "stateMutability": "view",
      "type": "function"
    },
    {
      "inputs": [
        {
          "internalType": "bytes4",
          "name": "interfaceId",
          "type": "bytes4"
        }
      ],
      "name": "supportsInterface",
      "outputs": [
        {
          "internalType": "bool",
          "name": "",
          "type": "bool"
        }
      ],
      "stateMutability": "view",
      "type": "function"
    },
    {
      "inputs": [],
      "name": "timelock",
      "outputs": [
        {
          "internalType": "address",
          "name": "",
          "type": "address"
        }
      ],
      "stateMutability": "view",
      "type": "function"
    },
    {
      "inputs": [],
      "name": "token",
      "outputs": [
        {
          "internalType": "contract ERC20Votes",
          "name": "",
          "type": "address"
        }
      ],
      "stateMutability": "view",
      "type": "function"
    },
    {
      "inputs": [
        {
          "internalType": "uint256",
          "name": "newQuorumNumerator",
          "type": "uint256"
        }
      ],
      "name": "updateQuorumNumerator",
      "outputs": [],
      "stateMutability": "nonpayable",
      "type": "function"
    },
    {
      "inputs": [
        {
          "internalType": "contract TimelockController",
          "name": "newTimelock",
          "type": "address"
        }
      ],
      "name": "updateTimelock",
      "outputs": [],
      "stateMutability": "nonpayable",
      "type": "function"
    },
    {
      "inputs": [],
      "name": "version",
      "outputs": [
        {
          "internalType": "string",
          "name": "",
          "type": "string"
        }
      ],
      "stateMutability": "view",
      "type": "function"
    },
    {
      "inputs": [],
      "name": "votingDelay",
      "outputs": [
        {
          "internalType": "uint256",
          "name": "",
          "type": "uint256"
        }
      ],
      "stateMutability": "view",
      "type": "function"
    },
    {
      "inputs": [],
      "name": "votingPeriod",
      "outputs": [
        {
          "internalType": "uint256",
          "name": "",
          "type": "uint256"
        }
      ],
      "stateMutability": "view",
      "type": "function"
    },
    {
      "stateMutability": "payable",
      "type": "receive"
    }
  ],
  "bytecode": "0x61016060405260016009556014600a5569d3c21bcecceda1000000600b55600c80546001600160a01b03191690553480156200003a57600080fd5b506040516200483a3803806200483a8339810160408190526200005d916200036e565b806004836040518060400160405280601081526020016f243cb832b93732ba23b7bb32b93737b960811b815250806200009b6200017760201b60201c565b815160208084019190912082518383012060e08290526101008190524660a0818152604080517f8b73c3c69bb8fe3d512ecc4cf759cc79239f7b179b0ffacaa9a75d522b39400f81880181905281830187905260608201869052608082019490945230818401528151808203909301835260c00190528051940193909320919290916080523060601b60c0526101205250508251620001449250600091506020840190620002c8565b505060601b6001600160601b03191661014052620001628162000192565b506200016e816200025f565b50505062000402565b6040805180820190915260018152603160f81b602082015290565b60648111156200021a5760405162461bcd60e51b815260206004820152604360248201527f476f7665726e6f72566f74657351756f72756d4672616374696f6e3a2071756f60448201527f72756d4e756d657261746f72206f7665722071756f72756d44656e6f6d696e616064820152623a37b960e91b608482015260a40160405180910390fd5b600380549082905560408051828152602081018490527f0553476bf02ef2726e8ce5ced78d63e26e602e4a2257b1f559418e24b4633997910160405180910390a15050565b600454604080516001600160a01b03928316815291831660208301527f08f74ea46ef7894f65eabfb5e6e695de773a000b47c529ab559178069b226401910160405180910390a1600480546001600160a01b0319166001600160a01b0392909216919091179055565b828054620002d690620003ac565b90600052602060002090601f016020900481019282620002fa576000855562000345565b82601f106200031557805160ff191683800117855562000345565b8280016001018555821562000345579182015b828111156200034557825182559160200191906001019062000328565b506200035392915062000357565b5090565b5b8082111562000353576000815560010162000358565b6000806040838503121562000381578182fd5b82516200038e81620003e9565b6020840151909250620003a181620003e9565b809150509250929050565b600181811c90821680620003c157607f821691505b60208210811415620003e357634e487b7160e01b600052602260045260246000fd5b50919050565b6001600160a01b0381168114620003ff57600080fd5b50565b60805160a05160c05160601c60e05161010051610120516101405160601c6143c9620004716000396000818161095b015281816125e901526126820152600061284a0152600061289901526000612874015260006127cd015260006127f70152600061282101526143c96000f3fe60806040526004361061026b5760003560e01c80638059f7e111610144578063dc45c5c1116100b6578063ea0217cf1161007a578063ea0217cf146108c9578063eb9019d4146108e9578063ece40cc114610909578063f8ce560a14610929578063fc0c546a14610949578063fe0d94c11461097d57600080fd5b8063dc45c5c114610745578063dd4e2ba514610765578063ddf0b009146107ab578063deaaa7cc146107cb578063e23a9a52146107ff57600080fd5b8063b58131b011610108578063b58131b014610692578063b6a67c4b146106a7578063c01f9e37146106c7578063c59057e4146106e7578063d33219b414610707578063da95691a1461072557600080fd5b80638059f7e11461061257806397c3d33414610629578063a7713a701461063d578063a890c91014610652578063ab58fb8e1461067257600080fd5b80633bccf4fd116101dd57806356781388116101a1578063567813881461052d5780635aeb927e1461054d5780636a8828da1461057a57806370b0f660146105b25780637b3c71d3146105d25780637d5e81e2146105f257600080fd5b80633bccf4fd1461044c5780633e4f49e61461046c57806340e58ee51461049957806343859632146104b957806354fd4d501461050357600080fd5b8063160cbed71161022f578063160cbed71461039f57806324bc1a64146103bf5780632656227d146103d45780632d63f693146103e7578063328dd982146104075780633932abb11461043757600080fd5b8063013cf08b1461029357806301ffc9a71461030e57806302a251a31461033e57806306f3f9e61461035d57806306fdde031461037d57600080fd5b3661028e5730610279610990565b6001600160a01b03161461028c57600080fd5b005b600080fd5b34801561029f57600080fd5b506102b36102ae366004613c36565b6109a9565b604080519a8b526001600160a01b0390991660208b0152978901969096526060880194909452608087019290925260a086015260c085015260e084015215156101008301521515610120820152610140015b60405180910390f35b34801561031a57600080fd5b5061032e610329366004613c0e565b610a6e565b6040519015158152602001610305565b34801561034a57600080fd5b50600a545b604051908152602001610305565b34801561036957600080fd5b5061028c610378366004613c36565b610a7f565b34801561038957600080fd5b50610392610acc565b6040516103059190613fff565b3480156103ab57600080fd5b5061034f6103ba3660046139d9565b610b5e565b3480156103cb57600080fd5b5061034f610d95565b61034f6103e23660046139d9565b610da5565b3480156103f357600080fd5b5061034f610402366004613c36565b610e94565b34801561041357600080fd5b50610427610422366004613c36565b610ecb565b6040516103059493929190613f8a565b34801561044357600080fd5b5060095461034f565b34801561045857600080fd5b5061034f610467366004613d29565b61115c565b34801561047857600080fd5b5061048c610487366004613c36565b6111f0565b6040516103059190613fd7565b3480156104a557600080fd5b5061028c6104b4366004613c36565b6111fb565b3480156104c557600080fd5b5061032e6104d4366004613c4e565b60008281526002602090815260408083206001600160a01b038516845260080190915290205460ff1692915050565b34801561050f57600080fd5b506040805180820190915260018152603160f81b6020820152610392565b34801561053957600080fd5b5061034f610548366004613c7d565b61150e565b34801561055957600080fd5b5061034f610568366004613c36565b60066020526000908152604090205481565b34801561058657600080fd5b50600c5461059a906001600160a01b031681565b6040516001600160a01b039091168152602001610305565b3480156105be57600080fd5b5061028c6105cd366004613c36565b611537565b3480156105de57600080fd5b5061034f6105ed366004613ca8565b611574565b3480156105fe57600080fd5b5061034f61060d366004613a64565b6115c6565b34801561061e57600080fd5b5060075461034f9081565b34801561063557600080fd5b50606461034f565b34801561064957600080fd5b5060035461034f565b34801561065e57600080fd5b5061028c61066d366004613992565b61165f565b34801561067e57600080fd5b5061034f61068d366004613c36565b6116a0565b34801561069e57600080fd5b50600b5461034f565b3480156106b357600080fd5b5061028c6106c2366004613992565b611744565b3480156106d357600080fd5b5061034f6106e2366004613c36565b61179e565b3480156106f357600080fd5b5061034f6107023660046139d9565b6117cd565b34801561071357600080fd5b506004546001600160a01b031661059a565b34801561073157600080fd5b5061034f610740366004613b0b565b611807565b34801561075157600080fd5b50610392610760366004613c36565b61182c565b34801561077157600080fd5b5060408051808201909152601a81527f737570706f72743d627261766f2671756f72756d3d627261766f0000000000006020820152610392565b3480156107b757600080fd5b5061028c6107c6366004613c36565b6118c6565b3480156107d757600080fd5b5061034f7f150214d74d59b7d1e90c73fc22ef3d991dd0a76b046543d4d80ab92d2a50328f81565b34801561080b57600080fd5b5061089961081a366004613c4e565b60408051606081018252600080825260208201819052918101919091525060009182526002602090815260408084206001600160a01b0393909316845260089092018152918190208151606081018352905460ff8082161515835261010082041693820193909352620100009092046001600160601b03169082015290565b6040805182511515815260208084015160ff1690820152918101516001600160601b031690820152606001610305565b3480156108d557600080fd5b5061028c6108e4366004613c36565b611b34565b3480156108f557600080fd5b5061034f6109043660046139ae565b611b71565b34801561091557600080fd5b5061028c610924366004613c36565b611b7d565b34801561093557600080fd5b5061034f610944366004613c36565b611bba565b34801561095557600080fd5b5061059a7f000000000000000000000000000000000000000000000000000000000000000081565b61028c61098b366004613c36565b611bc5565b60006109a46004546001600160a01b031690565b905090565b80600080808080808080806109bd8a6116a0565b97506109c88b610e94565b96506109d38b61179e565b60008c815260026020526040812080546005820154600683015460078401546001600160a01b039093169e50949a509850929650919450610a138d6111f0565b90506002816007811115610a3757634e487b7160e01b600052602160045260246000fd5b1493506007816007811115610a5c57634e487b7160e01b600052602160045260246000fd5b14925050509193959799509193959799565b6000610a7982611e33565b92915050565b610a87610990565b6001600160a01b0316336001600160a01b031614610ac05760405162461bcd60e51b8152600401610ab790614012565b60405180910390fd5b610ac981611e58565b50565b606060008054610adb90614302565b80601f0160208091040260200160405190810160405280929190818152602001828054610b0790614302565b8015610b545780601f10610b2957610100808354040283529160200191610b54565b820191906000526020600020905b815481529060010190602001808311610b3757829003601f168201915b5050505050905090565b600080610b6d868686866117cd565b90506004610b7a826111f0565b6007811115610b9957634e487b7160e01b600052602160045260246000fd5b14610bb65760405162461bcd60e51b8152600401610ab79061408a565b6000600460009054906101000a90046001600160a01b03166001600160a01b031663f27a0c926040518163ffffffff1660e01b815260040160206040518083038186803b158015610c0657600080fd5b505afa158015610c1a573d6000803e3d6000fd5b505050506040513d601f19601f82011682018060405250810190610c3e9190613bf6565b6004805460405163b1c5f42760e01b81529293506001600160a01b03169163b1c5f42791610c77918b918b918b916000918c9101613ee4565b60206040518083038186803b158015610c8f57600080fd5b505afa158015610ca3573d6000803e3d6000fd5b505050506040513d601f19601f82011682018060405250810190610cc79190613bf6565b600083815260056020526040808220929092556004805492516308f2a0bb60e41b81526001600160a01b0390931692638f2a0bb092610d12928c928c928c9290918c918a9101613f32565b600060405180830381600087803b158015610d2c57600080fd5b505af1158015610d40573d6000803e3d6000fd5b505050507f9a2e42fd6722813d69113e7d0079d3d940171428df7373df9c7f7617cfda2892828242610d729190614239565b604080519283526020830191909152015b60405180910390a15095945050505050565b60006109a46109446001436142bb565b600080610db4868686866117cd565b90506000610dc1826111f0565b90506004816007811115610de557634e487b7160e01b600052602160045260246000fd5b1480610e1057506005816007811115610e0e57634e487b7160e01b600052602160045260246000fd5b145b610e2c5760405162461bcd60e51b8152600401610ab79061408a565b600082815260016020818152604092839020600201805460ff191690921790915590518381527f712ae1383f79ac853f8d882153778e0260ef8f03b504e2866e0593e04d2b291f910160405180910390a1610e8a8288888888611f20565b5095945050505050565b60008181526001602090815260408083208151928301909152546001600160401b0316908190525b6001600160401b031692915050565b60608060608060006002600087815260200190815260200160002090508060010181600201826003018360040183805480602002602001604051908101604052809291908181526020018280548015610f4d57602002820191906000526020600020905b81546001600160a01b03168152600190910190602001808311610f2f575b5050505050935082805480602002602001604051908101604052809291908181526020018280548015610f9f57602002820191906000526020600020905b815481526020019060010190808311610f8b575b5050505050925081805480602002602001604051908101604052809291908181526020016000905b82821015611073578382906000526020600020018054610fe690614302565b80601f016020809104026020016040519081016040528092919081815260200182805461101290614302565b801561105f5780601f106110345761010080835404028352916020019161105f565b820191906000526020600020905b81548152906001019060200180831161104257829003601f168201915b505050505081526020019060010190610fc7565b50505050915080805480602002602001604051908101604052809291908181526020016000905b828210156111465783829060005260206000200180546110b990614302565b80601f01602080910402602001604051908101604052809291908181526020018280546110e590614302565b80156111325780601f1061110757610100808354040283529160200191611132565b820191906000526020600020905b81548152906001019060200180831161111557829003601f168201915b50505050508152602001906001019061109a565b5050505090509450945094509450509193509193565b604080517f150214d74d59b7d1e90c73fc22ef3d991dd0a76b046543d4d80ab92d2a50328f602082015290810186905260ff8516606082015260009081906111c8906111c09060800160405160208183030381529060405280519060200120611f59565b868686611fa7565b90506111e587828860405180602001604052806000815250611fc5565b979650505050505050565b6000610a79826120de565b600081815260026020526040902080546001600160a01b0316336001600160a01b031614806112445750600b548154611242906001600160a01b03166109046001436142bb565b105b6112a05760405162461bcd60e51b815260206004820152602760248201527f476f7665726e6f72427261766f3a2070726f706f7365722061626f76652074686044820152661c995cda1bdb1960ca1b6064820152608401610ab7565b611509816001018054806020026020016040519081016040528092919081815260200182805480156112fb57602002820191906000526020600020905b81546001600160a01b031681526001909101906020018083116112dd575b50505050508260020180548060200260200160405190810160405280929190818152602001828054801561134e57602002820191906000526020600020905b81548152602001906001019080831161133a575b50505050506114ff84600301805480602002602001604051908101604052809291908181526020016000905b8282101561142657838290600052602060002001805461139990614302565b80601f01602080910402602001604051908101604052809291908181526020018280546113c590614302565b80156114125780601f106113e757610100808354040283529160200191611412565b820191906000526020600020905b8154815290600101906020018083116113f557829003601f168201915b50505050508152602001906001019061137a565b50505060048701805460408051602080840282018101909252828152935060009084015b828210156114f657838290600052602060002001805461146990614302565b80601f016020809104026020016040519081016040528092919081815260200182805461149590614302565b80156114e25780601f106114b7576101008083540402835291602001916114e2565b820191906000526020600020905b8154815290600101906020018083116114c557829003601f168201915b50505050508152602001906001019061144a565b505050506121c7565b846009015461234d565b505050565b60008033905061152f84828560405180602001604052806000815250611fc5565b949350505050565b61153f610990565b6001600160a01b0316336001600160a01b03161461156f5760405162461bcd60e51b8152600401610ab790614012565b600955565b6000803390506115bc86828787878080601f016020809104026020016040519081016040528093929190818152602001838380828437600092019190915250611fc592505050565b9695505050505050565b60006115d133612389565b6115ed5760405162461bcd60e51b8152600401610ab7906140cb565b60006115fb86868686612424565b9050600061160860075490565b611613906001614239565b60008181526006602052604090208390559050611634600780546001019055565b60008281526008602090815260409091208551611653928701906134d6565b50909695505050505050565b611667610990565b6001600160a01b0316336001600160a01b0316146116975760405162461bcd60e51b8152600401610ab790614012565b610ac98161249a565b6004805460008381526005602052604080822054905163d45c443560e01b8152938401529182916001600160a01b03169063d45c44359060240160206040518083038186803b1580156116f257600080fd5b505afa158015611706573d6000803e3d6000fd5b505050506040513d601f19601f8201168201806040525081019061172a9190613bf6565b90508060011461173a578061173d565b60005b9392505050565b61174c610990565b6001600160a01b0316336001600160a01b03161461177c5760405162461bcd60e51b8152600401610ab790614012565b600c80546001600160a01b0319166001600160a01b0392909216919091179055565b60008181526001602081815260408084208151928301909152909101546001600160401b031690819052610ebc565b6000848484846040516020016117e69493929190613e99565b60408051601f19818403018152919052805160209091012095945050505050565b6000611817338787878787612503565b6115bc868661182687876121c7565b856115c6565b6008602052600090815260409020805461184590614302565b80601f016020809104026020016040519081016040528092919081815260200182805461187190614302565b80156118be5780601f10611893576101008083540402835291602001916118be565b820191906000526020600020905b8154815290600101906020018083116118a157829003601f168201915b505050505081565b60008181526002602090815260409182902060018101805484518185028101850190955280855291936115099390929083018282801561192f57602002820191906000526020600020905b81546001600160a01b03168152600190910190602001808311611911575b50505050508260020180548060200260200160405190810160405280929190818152602001828054801561198257602002820191906000526020600020905b81548152602001906001019080831161196e575b5050505050611b2a84600301805480602002602001604051908101604052809291908181526020016000905b82821015611a5a5783829060005260206000200180546119cd90614302565b80601f01602080910402602001604051908101604052809291908181526020018280546119f990614302565b8015611a465780601f10611a1b57610100808354040283529160200191611a46565b820191906000526020600020905b815481529060010190602001808311611a2957829003601f168201915b5050505050815260200190600101906119ae565b50505060048701805460408051602080840282018101909252828152935060009084015b828210156114f6578382906000526020600020018054611a9d90614302565b80601f0160208091040260200160405190810160405280929190818152602001828054611ac990614302565b8015611b165780601f10611aeb57610100808354040283529160200191611b16565b820191906000526020600020905b815481529060010190602001808311611af957829003601f168201915b505050505081526020019060010190611a7e565b8460090154610b5e565b611b3c610990565b6001600160a01b0316336001600160a01b031614611b6c5760405162461bcd60e51b8152600401610ab790614012565b600a55565b600061173d83836125c0565b611b85610990565b6001600160a01b0316336001600160a01b031614611bb55760405162461bcd60e51b8152600401610ab790614012565b600b55565b6000610a7982612665565b600081815260026020908152604091829020600181018054845181850281018501909552808552919361150993909290830182828015611c2e57602002820191906000526020600020905b81546001600160a01b03168152600190910190602001808311611c10575b505050505082600201805480602002602001604051908101604052809291908181526020018280548015611c8157602002820191906000526020600020905b815481526020019060010190808311611c6d575b5050505050611e2984600301805480602002602001604051908101604052809291908181526020016000905b82821015611d59578382906000526020600020018054611ccc90614302565b80601f0160208091040260200160405190810160405280929190818152602001828054611cf890614302565b8015611d455780601f10611d1a57610100808354040283529160200191611d45565b820191906000526020600020905b815481529060010190602001808311611d2857829003601f168201915b505050505081526020019060010190611cad565b50505060048701805460408051602080840282018101909252828152935060009084015b828210156114f6578382906000526020600020018054611d9c90614302565b80601f0160208091040260200160405190810160405280929190818152602001828054611dc890614302565b8015611e155780601f10611dea57610100808354040283529160200191611e15565b820191906000526020600020905b815481529060010190602001808311611df857829003601f168201915b505050505081526020019060010190611d7d565b8460090154610da5565b60006001600160e01b03198216636e665ced60e01b1480610a795750610a7982612718565b6064811115611edb5760405162461bcd60e51b815260206004820152604360248201527f476f7665726e6f72566f74657351756f72756d4672616374696f6e3a2071756f60448201527f72756d4e756d657261746f72206f7665722071756f72756d44656e6f6d696e616064820152623a37b960e91b608482015260a401610ab7565b600380549082905560408051828152602081018490527f0553476bf02ef2726e8ce5ced78d63e26e602e4a2257b1f559418e24b4633997910160405180910390a15050565b611f2933612389565b611f455760405162461bcd60e51b8152600401610ab7906140cb565b611f52858585858561274d565b5050505050565b6000610a79611f666127c0565b8360405161190160f01b6020820152602281018390526042810182905260009060620160405160208183030381529060405280519060200120905092915050565b6000806000611fb8878787876128e7565b91509150610e8a816129d4565b6000848152600160208190526040822090611fdf876111f0565b6007811115611ffe57634e487b7160e01b600052602160045260246000fd5b146120575760405162461bcd60e51b815260206004820152602360248201527f476f7665726e6f723a20766f7465206e6f742063757272656e746c792061637460448201526269766560e81b6064820152608401610ab7565b604080516020810190915281546001600160401b03169081905260009061207f908790611b71565b905061208d87878784612bd5565b856001600160a01b03167fb8e138887d0aa13bab447e82de9d5c1777041ecd21ca36ba824ff1e6c07ddda4888784886040516120cc94939291906141be565b60405180910390a29695505050505050565b6000806120ea83612d7a565b9050600481600781111561210e57634e487b7160e01b600052602160045260246000fd5b146121195792915050565b60008381526005602052604090205480612134575092915050565b60048054604051632ab0f52960e01b81529182018390526001600160a01b031690632ab0f5299060240160206040518083038186803b15801561217657600080fd5b505afa15801561218a573d6000803e3d6000fd5b505050506040513d601f19601f820116820180604052508101906121ae9190613bd6565b156121bd575060079392505050565b5060059392505050565b6060600082516001600160401b038111156121f257634e487b7160e01b600052604160045260246000fd5b60405190808252806020026020018201604052801561222557816020015b60608152602001906001900390816122105790505b50905060005b84518110156123455784818151811061225457634e487b7160e01b600052603260045260246000fd5b6020026020010151516000146122e05784818151811061228457634e487b7160e01b600052603260045260246000fd5b6020026020010151805190602001208482815181106122b357634e487b7160e01b600052603260045260246000fd5b60200260200101516040516020016122cc929190613e68565b604051602081830303815290604052612309565b83818151811061230057634e487b7160e01b600052603260045260246000fd5b60200260200101515b82828151811061232957634e487b7160e01b600052603260045260246000fd5b60200260200101819052508061233e90614337565b905061222b565b509392505050565b600061235833612389565b6123745760405162461bcd60e51b8152600401610ab7906140cb565b61238085858585612ee1565b95945050505050565b600c546000906001600160a01b03161580610a795750600c546040516370a0823160e01b81526001600160a01b03848116600483015260009216906370a082319060240160206040518083038186803b1580156123e557600080fd5b505afa1580156123f9573d6000803e3d6000fd5b505050506040513d601f19601f8201168201806040525081019061241d9190613bf6565b1192915050565b600061248e33868686516001600160401b0381111561245357634e487b7160e01b600052604160045260246000fd5b60405190808252806020026020018201604052801561248657816020015b60608152602001906001900390816124715790505b508787612503565b61238085858585612f89565b600454604080516001600160a01b03928316815291831660208301527f08f74ea46ef7894f65eabfb5e6e695de773a000b47c529ab559178069b226401910160405180910390a1600480546001600160a01b0319166001600160a01b0392909216919091179055565b805160208201206000612521878761251b88886121c7565b856117cd565b60008181526002602052604090206009810154919250906125b55780546001600160a01b0319166001600160a01b038a16178155875161256a90600183019060208b0190613556565b50865161258090600283019060208a01906135ab565b50855161259690600383019060208901906135e5565b5084516125ac906004830190602088019061363e565b50600981018390555b505050505050505050565b604051630748d63560e31b81526001600160a01b038381166004830152602482018390526000917f000000000000000000000000000000000000000000000000000000000000000090911690633a46b1a89060440160206040518083038186803b15801561262d57600080fd5b505afa158015612641573d6000803e3d6000fd5b505050506040513d601f19601f8201168201806040525081019061173d9190613bf6565b60006064600354604051632394e7a360e21b8152600481018590527f00000000000000000000000000000000000000000000000000000000000000006001600160a01b031690638e539e8c9060240160206040518083038186803b1580156126cc57600080fd5b505afa1580156126e0573d6000803e3d6000fd5b505050506040513d601f19601f820116820180604052508101906127049190613bf6565b61270e919061429c565b610a79919061427c565b60006001600160e01b0319821663bf26d89760e01b1480610a7957506301ffc9a760e01b6001600160e01b0319831614610a79565b6004805460405163e38335e560e01b81526001600160a01b039091169163e38335e5913491612787918991899189916000918a9101613ee4565b6000604051808303818588803b1580156127a057600080fd5b505af11580156127b4573d6000803e3d6000fd5b50505050505050505050565b6000306001600160a01b037f00000000000000000000000000000000000000000000000000000000000000001614801561281957507f000000000000000000000000000000000000000000000000000000000000000046145b1561284357507f000000000000000000000000000000000000000000000000000000000000000090565b50604080517f00000000000000000000000000000000000000000000000000000000000000006020808301919091527f0000000000000000000000000000000000000000000000000000000000000000828401527f000000000000000000000000000000000000000000000000000000000000000060608301524660808301523060a0808401919091528351808403909101815260c0909201909252805191012090565b6000807f7fffffffffffffffffffffffffffffff5d576e7357a4501ddfe92f46681b20a083111561291e57506000905060036129cb565b8460ff16601b1415801561293657508460ff16601c14155b1561294757506000905060046129cb565b6040805160008082526020820180845289905260ff881692820192909252606081018690526080810185905260019060a0016020604051602081039080840390855afa15801561299b573d6000803e3d6000fd5b5050604051601f1901519150506001600160a01b0381166129c4576000600192509250506129cb565b9150600090505b94509492505050565b60008160048111156129f657634e487b7160e01b600052602160045260246000fd5b14156129ff5750565b6001816004811115612a2157634e487b7160e01b600052602160045260246000fd5b1415612a6f5760405162461bcd60e51b815260206004820152601860248201527f45434453413a20696e76616c6964207369676e617475726500000000000000006044820152606401610ab7565b6002816004811115612a9157634e487b7160e01b600052602160045260246000fd5b1415612adf5760405162461bcd60e51b815260206004820152601f60248201527f45434453413a20696e76616c6964207369676e6174757265206c656e677468006044820152606401610ab7565b6003816004811115612b0157634e487b7160e01b600052602160045260246000fd5b1415612b5a5760405162461bcd60e51b815260206004820152602260248201527f45434453413a20696e76616c6964207369676e6174757265202773272076616c604482015261756560f01b6064820152608401610ab7565b6004816004811115612b7c57634e487b7160e01b600052602160045260246000fd5b1415610ac95760405162461bcd60e51b815260206004820152602260248201527f45434453413a20696e76616c6964207369676e6174757265202776272076616c604482015261756560f01b6064820152608401610ab7565b60008481526002602090815260408083206001600160a01b038716845260088101909252909120805460ff1615612c645760405162461bcd60e51b815260206004820152602d60248201527f476f7665726e6f72436f6d7061746962696c697479427261766f3a20766f746560448201526c08185b1c9958591e4818d85cdd609a1b6064820152608401610ab7565b805460ff85166101000261ffff19909116176001178155612c8483613275565b81546001600160601b039190911662010000026dffffffffffffffffffffffff00001990911617815560ff8416612cd45782826006016000828254612cc99190614239565b90915550612d729050565b60ff841660011415612cf45782826005016000828254612cc99190614239565b60ff841660021415612d145782826007016000828254612cc99190614239565b60405162461bcd60e51b815260206004820152602d60248201527f476f7665726e6f72436f6d7061746962696c697479427261766f3a20696e766160448201526c6c696420766f7465207479706560981b6064820152608401610ab7565b505050505050565b6000818152600160208181526040808420815160a08101835281546001600160401b0390811660808301908152825283518086018552958301541685529283019390935260029092015460ff80821615801594840194909452610100909104161515606082015290612def5750600792915050565b806060015115612e025750600292915050565b80515143906001600160401b031610612e1e5750600092915050565b43612e2b82602001515190565b6001600160401b031610612e425750600192915050565b612e4f81602001516132e1565b15612e9357612e5d83613310565b8015612e7f575060008381526002602052604090206006810154600590910154115b612e8a57600361173d565b60049392505050565b60405162461bcd60e51b815260206004820152601d60248201527f476f7665726e6f723a20756e6b6e6f776e2070726f706f73616c2069640000006044820152606401610ab7565b50919050565b600080612ef086868686613338565b6000818152600560205260409020549091501561238057600480546000838152600560205260409081902054905163c4d252f560e01b8152928301526001600160a01b03169063c4d252f590602401600060405180830381600087803b158015612f5957600080fd5b505af1158015612f6d573d6000803e3d6000fd5b5050506000828152600560205260408120555095945050505050565b6000612f94600b5490565b612fa3336109046001436142bb565b10156130235760405162461bcd60e51b815260206004820152604360248201527f476f7665726e6f72436f6d7061746962696c697479427261766f3a2070726f7060448201527f6f73657220766f7465732062656c6f772070726f706f73616c207468726573686064820152621bdb1960ea1b608482015260a401610ab7565b600061303886868686805190602001206117cd565b9050845186511461305b5760405162461bcd60e51b8152600401610ab790614049565b835186511461307c5760405162461bcd60e51b8152600401610ab790614049565b60008651116130cd5760405162461bcd60e51b815260206004820152601860248201527f476f7665726e6f723a20656d7074792070726f706f73616c00000000000000006044820152606401610ab7565b600081815260016020908152604091829020825191820190925281546001600160401b0316908190521561314d5760405162461bcd60e51b815260206004820152602160248201527f476f7665726e6f723a2070726f706f73616c20616c72656164792065786973746044820152607360f81b6064820152608401610ab7565b600061316061315b60095490565b61346e565b6131694361346e565b6131739190614251565b9050600061318361315b600a5490565b61318d9083614251565b835467ffffffffffffffff19166001600160401b038416178455905060018301805467ffffffffffffffff19166001600160401b0383161790557f7d84a6263ae0d98d3329bd7b46bb4e8d6f98cd35a7adb45c274c8b7fd5ebd5e084338b8b8d516001600160401b0381111561321357634e487b7160e01b600052604160045260246000fd5b60405190808252806020026020018201604052801561324657816020015b60608152602001906001900390816132315790505b508c88888e6040516132609998979695949392919061411b565b60405180910390a15091979650505050505050565b60006001600160601b038211156132dd5760405162461bcd60e51b815260206004820152602660248201527f53616665436173743a2076616c756520646f65736e27742066697420696e203960448201526536206269747360d01b6064820152608401610ab7565b5090565b60006132f682516001600160401b0316151590565b8015610a7957505051436001600160401b03909116111590565b6000818152600260205260408120600581015461332f61094485610e94565b11159392505050565b600080613347868686866117cd565b90506000613354826111f0565b9050600281600781111561337857634e487b7160e01b600052602160045260246000fd5b141580156133a6575060068160078111156133a357634e487b7160e01b600052602160045260246000fd5b14155b80156133d2575060078160078111156133cf57634e487b7160e01b600052602160045260246000fd5b14155b61341e5760405162461bcd60e51b815260206004820152601d60248201527f476f7665726e6f723a2070726f706f73616c206e6f74206163746976650000006044820152606401610ab7565b60008281526001602052604090819020600201805461ff001916610100179055517f789cf55be980739dad1d0699b93b58e806b51c9d96619bfa8fe0a28abaa7b30c90610d839084815260200190565b60006001600160401b038211156132dd5760405162461bcd60e51b815260206004820152602660248201527f53616665436173743a2076616c756520646f65736e27742066697420696e203660448201526534206269747360d01b6064820152608401610ab7565b8280546134e290614302565b90600052602060002090601f016020900481019282613504576000855561354a565b82601f1061351d57805160ff191683800117855561354a565b8280016001018555821561354a579182015b8281111561354a57825182559160200191906001019061352f565b506132dd929150613697565b82805482825590600052602060002090810192821561354a579160200282015b8281111561354a57825182546001600160a01b0319166001600160a01b03909116178255602090920191600190910190613576565b82805482825590600052602060002090810192821561354a579160200282018281111561354a57825182559160200191906001019061352f565b828054828255906000526020600020908101928215613632579160200282015b8281111561363257825180516136229184916020909101906134d6565b5091602001919060010190613605565b506132dd9291506136ac565b82805482825590600052602060002090810192821561368b579160200282015b8281111561368b578251805161367b9184916020909101906134d6565b509160200191906001019061365e565b506132dd9291506136c9565b5b808211156132dd5760008155600101613698565b808211156132dd5760006136c082826136e6565b506001016136ac565b808211156132dd5760006136dd82826136e6565b506001016136c9565b5080546136f290614302565b6000825580601f10613702575050565b601f016020900490600052602060002090810190610ac99190613697565b60006001600160401b0383111561373957613739614368565b61374c601f8401601f19166020016141e6565b905082815283838301111561376057600080fd5b828260208301376000602084830101529392505050565b600082601f830112613787578081fd5b8135602061379c61379783614216565b6141e6565b80838252828201915082860187848660051b89010111156137bb578586fd5b855b858110156137e25781356137d08161437e565b845292840192908401906001016137bd565b5090979650505050505050565b600082601f8301126137ff578081fd5b8135602061380f61379783614216565b80838252828201915082860187848660051b890101111561382e578586fd5b855b858110156137e25781356001600160401b0381111561384d578788fd5b8801603f81018a1361385d578788fd5b61386e8a8783013560408401613720565b8552509284019290840190600101613830565b600082601f830112613891578081fd5b813560206138a161379783614216565b80838252828201915082860187848660051b89010111156138c0578586fd5b855b858110156137e25781356001600160401b038111156138df578788fd5b6138ed8a87838c010161395d565b85525092840192908401906001016138c2565b600082601f830112613910578081fd5b8135602061392061379783614216565b80838252828201915082860187848660051b890101111561393f578586fd5b855b858110156137e257813584529284019290840190600101613941565b600082601f83011261396d578081fd5b61173d83833560208501613720565b803560ff8116811461398d57600080fd5b919050565b6000602082840312156139a3578081fd5b813561173d8161437e565b600080604083850312156139c0578081fd5b82356139cb8161437e565b946020939093013593505050565b600080600080608085870312156139ee578182fd5b84356001600160401b0380821115613a04578384fd5b613a1088838901613777565b95506020870135915080821115613a25578384fd5b613a3188838901613900565b94506040870135915080821115613a46578384fd5b50613a53878288016137ef565b949793965093946060013593505050565b60008060008060808587031215613a79578182fd5b84356001600160401b0380821115613a8f578384fd5b613a9b88838901613777565b95506020870135915080821115613ab0578384fd5b613abc88838901613900565b94506040870135915080821115613ad1578384fd5b613add888389016137ef565b93506060870135915080821115613af2578283fd5b50613aff8782880161395d565b91505092959194509250565b600080600080600060a08688031215613b22578283fd5b85356001600160401b0380821115613b38578485fd5b613b4489838a01613777565b96506020880135915080821115613b59578485fd5b613b6589838a01613900565b95506040880135915080821115613b7a578485fd5b613b8689838a01613881565b94506060880135915080821115613b9b578283fd5b613ba789838a016137ef565b93506080880135915080821115613bbc578283fd5b50613bc98882890161395d565b9150509295509295909350565b600060208284031215613be7578081fd5b8151801515811461173d578182fd5b600060208284031215613c07578081fd5b5051919050565b600060208284031215613c1f578081fd5b81356001600160e01b03198116811461173d578182fd5b600060208284031215613c47578081fd5b5035919050565b60008060408385031215613c60578182fd5b823591506020830135613c728161437e565b809150509250929050565b60008060408385031215613c8f578182fd5b82359150613c9f6020840161397c565b90509250929050565b60008060008060608587031215613cbd578182fd5b84359350613ccd6020860161397c565b925060408501356001600160401b0380821115613ce8578384fd5b818701915087601f830112613cfb578384fd5b813581811115613d09578485fd5b886020828501011115613d1a578485fd5b95989497505060200194505050565b600080600080600060a08688031215613d40578283fd5b85359450613d506020870161397c565b9350613d5e6040870161397c565b94979396509394606081013594506080013592915050565b6000815180845260208085019450808401835b83811015613dae5781516001600160a01b031687529582019590820190600101613d89565b509495945050505050565b600081518084526020808501808196508360051b81019150828601855b85811015613e00578284038952613dee848351613e3c565b98850198935090840190600101613dd6565b5091979650505050505050565b6000815180845260208085019450808401835b83811015613dae57815187529582019590820190600101613e20565b60008151808452613e548160208601602086016142d2565b601f01601f19169290920160200192915050565b6001600160e01b0319831681528151600090613e8b8160048501602087016142d2565b919091016004019392505050565b608081526000613eac6080830187613d76565b8281036020840152613ebe8187613e0d565b90508281036040840152613ed28186613db9565b91505082606083015295945050505050565b60a081526000613ef760a0830188613d76565b8281036020840152613f098188613e0d565b90508281036040840152613f1d8187613db9565b60608401959095525050608001529392505050565b60c081526000613f4560c0830189613d76565b8281036020840152613f578189613e0d565b90508281036040840152613f6b8188613db9565b60608401969096525050608081019290925260a0909101529392505050565b608081526000613f9d6080830187613d76565b8281036020840152613faf8187613e0d565b90508281036040840152613fc38186613db9565b905082810360608401526111e58185613db9565b6020810160088310613ff957634e487b7160e01b600052602160045260246000fd5b91905290565b60208152600061173d6020830184613e3c565b60208082526018908201527f476f7665726e6f723a206f6e6c79476f7665726e616e63650000000000000000604082015260600190565b60208082526021908201527f476f7665726e6f723a20696e76616c69642070726f706f73616c206c656e67746040820152600d60fb1b606082015260800190565b60208082526021908201527f476f7665726e6f723a2070726f706f73616c206e6f74207375636365737366756040820152601b60fa1b606082015260800190565b60208082526030908201527f476f7665726e616e63653a2063616c6c6572206d75737420686176652061204860408201526f3cb832b93732ba10283937b334b6329760811b606082015260800190565b8981526001600160a01b0389166020820152610120604082018190526000906141468382018b613d76565b9050828103606084015261415a818a613e0d565b9050828103608084015261416e8189613db9565b905082810360a08401526141828188613db9565b6001600160401b0387811660c0860152861660e085015283810361010085015290506141ae8185613e3c565b9c9b505050505050505050505050565b84815260ff841660208201528260408201526080606082015260006115bc6080830184613e3c565b604051601f8201601f191681016001600160401b038111828210171561420e5761420e614368565b604052919050565b60006001600160401b0382111561422f5761422f614368565b5060051b60200190565b6000821982111561424c5761424c614352565b500190565b60006001600160401b0380831681851680830382111561427357614273614352565b01949350505050565b60008261429757634e487b7160e01b81526012600452602481fd5b500490565b60008160001904831182151516156142b6576142b6614352565b500290565b6000828210156142cd576142cd614352565b500390565b60005b838110156142ed5781810151838201526020016142d5565b838111156142fc576000848401525b50505050565b600181811c9082168061431657607f821691505b60208210811415612edb57634e487b7160e01b600052602260045260246000fd5b600060001982141561434b5761434b614352565b5060010190565b634e487b7160e01b600052601160045260246000fd5b634e487b7160e01b600052604160045260246000fd5b6001600160a01b0381168114610ac957600080fdfea26469706673582212202748172da7fb07c6e1219bfb43a2aa892fbfd627a95e88f8e2e57251fc809bef64736f6c63430008040033",
  "linkReferences": {},
  "deployedLinkReferences": {}
}