{
  "_format": "hh-sol-artifact-1",
  "contractName": "UpgradeableRegistryFactory",
  "sourceName": "contracts/identity/UpgradeableRegistryFactory.sol",
  "abi": [
    {
      "inputs": [
        {
          "internalType": "address",
          "name": "_admin",
          "type": "address"
        },
        {
          "internalType": "string[]",
          "name": "_names",
          "type": "string[]"
        },
        {
          "internalType": "string[]",
          "name": "_symbols",
          "type": "string[]"
        },
        {
          "internalType": "address[]",
          "name": "_registrars",
          "type": "address[]"
        },
        {
          "internalType": "address",
          "name": "_enumerableRegistry",
          "type": "address"
        },
        {
          "internalType": "address",
          "name": "_registry",
          "type": "address"
        },
        {
          "internalType": "address",
          "name": "_registrationToken",
          "type": "address"
        }
      ],
      "stateMutability": "nonpayable",
      "type": "constructor"
    },
    {
      "anonymous": false,
      "inputs": [
        {
          "indexed": false,
          "internalType": "address",
          "name": "registryAddress",
          "type": "address"
        }
      ],
      "name": "RegistryCreated",
      "type": "event"
    },
    {
      "anonymous": false,
      "inputs": [
        {
          "indexed": true,
          "internalType": "bytes32",
          "name": "role",
          "type": "bytes32"
        },
        {
          "indexed": true,
          "internalType": "bytes32",
          "name": "previousAdminRole",
          "type": "bytes32"
        },
        {
          "indexed": true,
          "internalType": "bytes32",
          "name": "newAdminRole",
          "type": "bytes32"
        }
      ],
      "name": "RoleAdminChanged",
      "type": "event"
    },
    {
      "anonymous": false,
      "inputs": [
        {
          "indexed": true,
          "internalType": "bytes32",
          "name": "role",
          "type": "bytes32"
        },
        {
          "indexed": true,
          "internalType": "address",
          "name": "account",
          "type": "address"
        },
        {
          "indexed": true,
          "internalType": "address",
          "name": "sender",
          "type": "address"
        }
      ],
      "name": "RoleGranted",
      "type": "event"
    },
    {
      "anonymous": false,
      "inputs": [
        {
          "indexed": true,
          "internalType": "bytes32",
          "name": "role",
          "type": "bytes32"
        },
        {
          "indexed": true,
          "internalType": "address",
          "name": "account",
          "type": "address"
        },
        {
          "indexed": true,
          "internalType": "address",
          "name": "sender",
          "type": "address"
        }
      ],
      "name": "RoleRevoked",
      "type": "event"
    },
    {
      "inputs": [],
      "name": "DEFAULT_ADMIN_ROLE",
      "outputs": [
        {
          "internalType": "bytes32",
          "name": "",
          "type": "bytes32"
        }
      ],
      "stateMutability": "view",
      "type": "function"
    },
    {
      "inputs": [],
      "name": "burnAddress",
      "outputs": [
        {
          "internalType": "address",
          "name": "",
          "type": "address"
        }
      ],
      "stateMutability": "view",
      "type": "function"
    },
    {
      "inputs": [
        {
          "internalType": "string",
          "name": "_name",
          "type": "string"
        },
        {
          "internalType": "string",
          "name": "_symbol",
          "type": "string"
        },
        {
          "internalType": "address",
          "name": "_registrar",
          "type": "address"
        },
        {
          "internalType": "bool",
          "name": "_enumerable",
          "type": "bool"
        }
      ],
      "name": "createRegistry",
      "outputs": [],
      "stateMutability": "nonpayable",
      "type": "function"
    },
    {
      "inputs": [
        {
          "internalType": "string",
          "name": "_name",
          "type": "string"
        },
        {
          "internalType": "string",
          "name": "_symbol",
          "type": "string"
        },
        {
          "internalType": "address",
          "name": "_registrar",
          "type": "address"
        },
        {
          "internalType": "bool",
          "name": "_enumerable",
          "type": "bool"
        }
      ],
      "name": "createRegistryByToken",
      "outputs": [],
      "stateMutability": "nonpayable",
      "type": "function"
    },
    {
      "inputs": [
        {
          "internalType": "uint256",
          "name": "",
          "type": "uint256"
        }
      ],
      "name": "enumerableRegistries",
      "outputs": [
        {
          "internalType": "address",
          "name": "",
          "type": "address"
        }
      ],
      "stateMutability": "view",
      "type": "function"
    },
    {
      "inputs": [],
      "name": "enumerableRegistryBeacon",
      "outputs": [
        {
          "internalType": "address",
          "name": "",
          "type": "address"
        }
      ],
      "stateMutability": "view",
      "type": "function"
    },
    {
      "inputs": [],
      "name": "getNumberOfEnumerableRegistries",
      "outputs": [
        {
          "internalType": "uint256",
          "name": "numReg",
          "type": "uint256"
        }
      ],
      "stateMutability": "view",
      "type": "function"
    },
    {
      "inputs": [],
      "name": "getNumberOfRegistries",
      "outputs": [
        {
          "internalType": "uint256",
          "name": "numReg",
          "type": "uint256"
        }
      ],
      "stateMutability": "view",
      "type": "function"
    },
    {
      "inputs": [
        {
          "internalType": "bytes32",
          "name": "role",
          "type": "bytes32"
        }
      ],
      "name": "getRoleAdmin",
      "outputs": [
        {
          "internalType": "bytes32",
          "name": "",
          "type": "bytes32"
        }
      ],
      "stateMutability": "view",
      "type": "function"
    },
    {
      "inputs": [
        {
          "internalType": "bytes32",
          "name": "role",
          "type": "bytes32"
        },
        {
          "internalType": "uint256",
          "name": "index",
          "type": "uint256"
        }
      ],
      "name": "getRoleMember",
      "outputs": [
        {
          "internalType": "address",
          "name": "",
          "type": "address"
        }
      ],
      "stateMutability": "view",
      "type": "function"
    },
    {
      "inputs": [
        {
          "internalType": "bytes32",
          "name": "role",
          "type": "bytes32"
        }
      ],
      "name": "getRoleMemberCount",
      "outputs": [
        {
          "internalType": "uint256",
          "name": "",
          "type": "uint256"
        }
      ],
      "stateMutability": "view",
      "type": "function"
    },
    {
      "inputs": [
        {
          "internalType": "bytes32",
          "name": "role",
          "type": "bytes32"
        },
        {
          "internalType": "address",
          "name": "account",
          "type": "address"
        }
      ],
      "name": "grantRole",
      "outputs": [],
      "stateMutability": "nonpayable",
      "type": "function"
    },
    {
      "inputs": [
        {
          "internalType": "bytes32",
          "name": "role",
          "type": "bytes32"
        },
        {
          "internalType": "address",
          "name": "account",
          "type": "address"
        }
      ],
      "name": "hasRole",
      "outputs": [
        {
          "internalType": "bool",
          "name": "",
          "type": "bool"
        }
      ],
      "stateMutability": "view",
      "type": "function"
    },
    {
      "inputs": [],
      "name": "hypernetProfileRegistry",
      "outputs": [
        {
          "internalType": "address",
          "name": "",
          "type": "address"
        }
      ],
      "stateMutability": "view",
      "type": "function"
    },
    {
      "inputs": [
        {
          "internalType": "string",
          "name": "",
          "type": "string"
        }
      ],
      "name": "nameToAddress",
      "outputs": [
        {
          "internalType": "address",
          "name": "",
          "type": "address"
        }
      ],
      "stateMutability": "view",
      "type": "function"
    },
    {
      "inputs": [],
      "name": "registrationFee",
      "outputs": [
        {
          "internalType": "uint256",
          "name": "",
          "type": "uint256"
        }
      ],
      "stateMutability": "view",
      "type": "function"
    },
    {
      "inputs": [],
      "name": "registrationToken",
      "outputs": [
        {
          "internalType": "address",
          "name": "",
          "type": "address"
        }
      ],
      "stateMutability": "view",
      "type": "function"
    },
    {
      "inputs": [
        {
          "internalType": "uint256",
          "name": "",
          "type": "uint256"
        }
      ],
      "name": "registries",
      "outputs": [
        {
          "internalType": "address",
          "name": "",
          "type": "address"
        }
      ],
      "stateMutability": "view",
      "type": "function"
    },
    {
      "inputs": [],
      "name": "registryBeacon",
      "outputs": [
        {
          "internalType": "address",
          "name": "",
          "type": "address"
        }
      ],
      "stateMutability": "view",
      "type": "function"
    },
    {
      "inputs": [
        {
          "internalType": "bytes32",
          "name": "role",
          "type": "bytes32"
        },
        {
          "internalType": "address",
          "name": "account",
          "type": "address"
        }
      ],
      "name": "renounceRole",
      "outputs": [],
      "stateMutability": "nonpayable",
      "type": "function"
    },
    {
      "inputs": [
        {
          "internalType": "bytes32",
          "name": "role",
          "type": "bytes32"
        },
        {
          "internalType": "address",
          "name": "account",
          "type": "address"
        }
      ],
      "name": "revokeRole",
      "outputs": [],
      "stateMutability": "nonpayable",
      "type": "function"
    },
    {
      "inputs": [
        {
          "internalType": "address",
          "name": "_burnAddress",
          "type": "address"
        }
      ],
      "name": "setBurnAddress",
      "outputs": [],
      "stateMutability": "nonpayable",
      "type": "function"
    },
    {
      "inputs": [
        {
          "internalType": "address",
          "name": "_hypernetProfileRegistry",
          "type": "address"
        }
      ],
      "name": "setProfileRegistryAddress",
      "outputs": [],
      "stateMutability": "nonpayable",
      "type": "function"
    },
    {
      "inputs": [
        {
          "internalType": "uint256",
          "name": "_registrationFee",
          "type": "uint256"
        }
      ],
      "name": "setRegistrationFee",
      "outputs": [],
      "stateMutability": "nonpayable",
      "type": "function"
    },
    {
      "inputs": [
        {
          "internalType": "address",
          "name": "_registrationToken",
          "type": "address"
        }
      ],
      "name": "setRegistrationToken",
      "outputs": [],
      "stateMutability": "nonpayable",
      "type": "function"
    },
    {
      "inputs": [
        {
          "internalType": "bytes4",
          "name": "interfaceId",
          "type": "bytes4"
        }
      ],
      "name": "supportsInterface",
      "outputs": [
        {
          "internalType": "bool",
          "name": "",
          "type": "bool"
        }
      ],
      "stateMutability": "view",
      "type": "function"
    }
  ],
  "bytecode": "0x6080604052600480546001600160a01b03191690556802b5e3af16b18800006009553480156200002e57600080fd5b5060405162003fdf38038062003fdf833981016040819052620000519162000983565b8451865114620000bd5760405162461bcd60e51b8152602060048201526039602482015260008051602062003fbf83398151915260448201527f617973206d75737420626520657175616c206c656e6774682e0000000000000060648201526084015b60405180910390fd5b8351855114620001255760405162461bcd60e51b8152602060048201526039602482015260008051602062003fbf83398151915260448201527f617973206d75737420626520657175616c206c656e6774682e000000000000006064820152608401620000b4565b62000132600088620003dd565b600083604051620001439062000852565b6001600160a01b039091168152602001604051809103906000f08015801562000170573d6000803e3d6000fd5b5060405163f2fde38b60e01b81526001600160a01b038a811660048301529192509082169063f2fde38b90602401600060405180830381600087803b158015620001b957600080fd5b505af1158015620001ce573d6000803e3d6000fd5b5050600280546001600160a01b0319166001600160a01b03851617905550506040516000908490620002009062000852565b6001600160a01b039091168152602001604051809103906000f0801580156200022d573d6000803e3d6000fd5b5060405163f2fde38b60e01b81526001600160a01b038b811660048301529192509082169063f2fde38b90602401600060405180830381600087803b1580156200027657600080fd5b505af11580156200028b573d6000803e3d6000fd5b5050600380546001600160a01b038086166001600160a01b03199283161790925560088054888416908316179055600a8054928e169290911691909117905550600090505b8851811015620003cd5762000365898281518110620002ff57634e487b7160e01b600052603260045260246000fd5b60200260200101518983815181106200032857634e487b7160e01b600052603260045260246000fd5b60200260200101518984815181106200035157634e487b7160e01b600052603260045260246000fd5b6020026020010151620003ed60201b60201c565b80620003ba5760056000815481106200038e57634e487b7160e01b600052603260045260246000fd5b600091825260209091200154600480546001600160a01b0319166001600160a01b039092169190911790555b620003c58162000c1f565b9050620002d0565b5050505050505050505062000c5d565b620003e9828262000643565b5050565b6001600160a01b0381166200045f5760405162461bcd60e51b815260206004820152603160248201527f5265676973747279466163746f72793a2052656769737472617220616464726560448201527039b99036bab9ba103737ba10313290181760791b6064820152608401620000b4565b6200046a8362000686565b15620004d05760405162461bcd60e51b815260206004820152602e60248201527f5265676973747279466163746f72793a2052656769737472792062792074686160448201526d3a103730b6b29032bc34b9ba399760911b6064820152608401620000b4565b6002546004546000916001600160a01b03908116916306d876b560e51b91879187911686620005008780620006d3565b6040516024016200051695949392919062000b3f565b60408051601f198184030181529181526020820180516001600160e01b03166001600160e01b0319909416939093179092529051620005559062000860565b6200056292919062000b11565b604051809103906000f0801580156200057f573d6000803e3d6000fd5b50600580546001810182556000919091527f036b6384b5eca791c62761152d0c79bb0604c104a5fb6f4eb0703f3154bb3db00180546001600160a01b0319166001600160a01b0383161790556040519091508190600790620005e390879062000af3565b9081526040516020918190038201812080546001600160a01b0319166001600160a01b0394851617905591831682527f3f204800c0e5d4c864ce5af4ec6df4566ef4e5ce94b654d6565870b67fc10d3c910160405180910390a150505050565b6200065a82826200070260201b62000a981760201c565b60008281526001602090815260409091206200068191839062000b20620007a2821b17901c565b505050565b6000808251118015620006cc575060006001600160a01b0316600783604051620006b1919062000af3565b908152604051908190036020019020546001600160a01b0316145b1592915050565b60008281526001602090815260408220620006f991849062000b37620007b9821b17901c565b90505b92915050565b6000828152602081815260408083206001600160a01b038516845290915290205460ff16620003e9576000828152602081815260408083206001600160a01b03851684529091529020805460ff191660011790556200075e3390565b6001600160a01b0316816001600160a01b0316837f2f8788117e7eff1d82e926ec794901d17c78024a50270940304540a733656f0d60405160405180910390a45050565b6000620006f9836001600160a01b038416620007c7565b6000620006f9838362000819565b60008181526001830160205260408120546200081057508154600181810184556000848152602080822090930184905584548482528286019093526040902091909155620006fc565b506000620006fc565b60008260000182815481106200083f57634e487b7160e01b600052603260045260246000fd5b9060005260206000200154905092915050565b61050a806200313383390190565b610982806200363d83390190565b80516001600160a01b03811681146200088657600080fd5b919050565b6000601f83818401126200089d578182fd5b82516020620008b6620008b08362000bc6565b62000b93565b80838252828201915082870188848660051b8a01011115620008d6578687fd5b865b85811015620009755781516001600160401b0380821115620008f857898afd5b818b0191508b603f8301126200090c57898afd5b8682015160408282111562000925576200092562000c47565b62000938828c01601f19168a0162000b93565b92508183528d818386010111156200094e578b8cfd5b6200095f828a850183870162000bec565b50508552509284019290840190600101620008d8565b509098975050505050505050565b600080600080600080600060e0888a0312156200099e578283fd5b620009a9886200086e565b602089810151919850906001600160401b0380821115620009c8578586fd5b620009d68c838d016200088b565b985060408b0151915080821115620009ec578586fd5b620009fa8c838d016200088b565b975060608b015191508082111562000a10578586fd5b508901601f81018b1362000a22578485fd5b805162000a33620008b08262000bc6565b8082825284820191508484018e868560051b870101111562000a53578889fd5b8894505b8385101562000a805762000a6b816200086e565b83526001949094019391850191850162000a57565b50809850505050505062000a97608089016200086e565b925062000aa760a089016200086e565b915062000ab760c089016200086e565b905092959891949750929550565b6000815180845262000adf81602086016020860162000bec565b601f01601f19169290920160200192915050565b6000825162000b0781846020870162000bec565b9190910192915050565b6001600160a01b038316815260406020820181905260009062000b379083018462000ac5565b949350505050565b60a08152600062000b5460a083018862000ac5565b828103602084015262000b68818862000ac5565b6001600160a01b03968716604085015294861660608401525050921660809092019190915292915050565b604051601f8201601f191681016001600160401b038111828210171562000bbe5762000bbe62000c47565b604052919050565b60006001600160401b0382111562000be25762000be262000c47565b5060051b60200190565b60005b8381101562000c0957818101518382015260200162000bef565b8381111562000c19576000848401525b50505050565b600060001982141562000c4057634e487b7160e01b81526011600452602481fd5b5060010190565b634e487b7160e01b600052604160045260246000fd5b6124c68062000c6d6000396000f3fe60806040523480156200001157600080fd5b5060043610620001af5760003560e01c80638ca5603211620000f0578063ca15c87311620000a3578063d54bdf1e116200007a578063d54bdf1e14620003e7578063d5f9372d14620003f0578063d827afc71462000404578063d9b1ecc5146200041b57600080fd5b8063ca15c87314620003a2578063d0d2607814620003b9578063d547741f14620003d057600080fd5b80638ca5603214620003265780639010d07c146200033d57806391d148541462000354578063a217fddf146200036b578063b57bf4301462000374578063c320c727146200038b57600080fd5b80633db80c2411620001665780636347c900116200013d5780636347c90014620002de5780636a8828da14620002f55780636e0d91ce146200030957806370d5ae05146200031257600080fd5b80633db80c24146200029f5780634b08b0a314620002b35780634b0e721614620002c757600080fd5b806301ffc9a714620001b457806308d88aad14620001e057806314c44e091462000230578063248a9ca314620002495780632f2ff15d146200026f57806336568abe1462000288575b600080fd5b620001cb620001c536600462001633565b62000432565b60405190151581526020015b60405180910390f35b62000217620001f1366004620016f9565b80516020818301810180516007825292820191909301209152546001600160a01b031681565b6040516001600160a01b039091168152602001620001d7565b6200023a60095481565b604051908152602001620001d7565b6200023a6200025a366004620015ca565b60009081526020819052604090206001015490565b6200028662000280366004620015e3565b62000460565b005b6200028662000299366004620015e3565b6200048f565b60035462000217906001600160a01b031681565b60085462000217906001600160a01b031681565b62000286620002d83660046200158e565b62000515565b62000217620002ef366004620015ca565b62000563565b60045462000217906001600160a01b031681565b6006546200023a565b600a5462000217906001600160a01b031681565b62000286620003373660046200165d565b6200058e565b620002176200034e36600462001611565b62000712565b620001cb62000365366004620015e3565b62000733565b6200023a600081565b62000286620003853660046200158e565b6200075c565b620002866200039c366004620015ca565b620007aa565b6200023a620003b3366004620015ca565b620007db565b62000217620003ca366004620015ca565b620007f4565b62000286620003e1366004620015e3565b62000805565b6005546200023a565b60025462000217906001600160a01b031681565b62000286620004153660046200158e565b6200082f565b620002866200042c36600462001738565b6200087d565b60006001600160e01b03198216635a05180f60e01b14806200045a57506200045a8262000b45565b92915050565b6000828152602081905260409020600101546200047e813362000b7c565b6200048a838362000beb565b505050565b6001600160a01b0381163314620005055760405162461bcd60e51b815260206004820152602f60248201527f416363657373436f6e74726f6c3a2063616e206f6e6c792072656e6f756e636560448201526e103937b632b9903337b91039b2b63360891b60648201526084015b60405180910390fd5b62000511828262000c11565b5050565b6200052260003362000733565b620005415760405162461bcd60e51b8152600401620004fc90620019d3565b600a80546001600160a01b0319166001600160a01b0392909216919091179055565b600681815481106200057457600080fd5b6000918252602090912001546001600160a01b0316905081565b6200059b60003362000733565b6200060f5760405162461bcd60e51b815260206004820152603a60248201527f5265676973747279466163746f72793a206d75737420686176652061646d696e60448201527f20726f6c6520746f2063726561746520612072656769737472790000000000006064820152608401620004fc565b801562000693576200068d86868080601f01602080910402602001604051908101604052809392919081815260200183838082843760009201919091525050604080516020601f8a01819004810282018101909252888152925088915087908190840183828082843760009201919091525087925062000c37915050565b6200070a565b6200070a86868080601f01602080910402602001604051908101604052809392919081815260200183838082843760009201919091525050604080516020601f8a01819004810282018101909252888152925088915087908190840183828082843760009201919091525087925062000dfe915050565b505050505050565b60008281526001602052604081206200072c908362000b37565b9392505050565b6000918252602082815260408084206001600160a01b0393909316845291905290205460ff1690565b6200076960003362000733565b620007885760405162461bcd60e51b8152600401620004fc90620019d3565b600480546001600160a01b0319166001600160a01b0392909216919091179055565b620007b760003362000733565b620007d65760405162461bcd60e51b8152600401620004fc90620019d3565b600955565b60008181526001602052604081206200045a9062000f65565b600581815481106200057457600080fd5b60008281526020819052604090206001015462000823813362000b7c565b6200048a838362000c11565b6200083c60003362000733565b6200085b5760405162461bcd60e51b8152600401620004fc90620019d3565b600880546001600160a01b0319166001600160a01b0392909216919091179055565b620008883362000f70565b620008f45760405162461bcd60e51b815260206004820152603560248201527f5265676973747279466163746f72793a2063616c6c6572206d7573742068617660448201527432903090243cb832b93732ba10283937b334b6329760591b6064820152608401620004fc565b6008546001600160a01b03166200096a5760405162461bcd60e51b815260206004820152603360248201527f5265676973747279466163746f72793a20726567697374726174696f6e206279604482015272103a37b5b2b7103737ba1032b730b13632b21760691b6064820152608401620004fc565b6008546001600160a01b03166323b872dd33600a5460095460405160e085901b6001600160e01b03191681526001600160a01b0393841660048201529290911660248301526044820152606401602060405180830381600087803b158015620009d257600080fd5b505af1158015620009e7573d6000803e3d6000fd5b505050506040513d601f19601f8201168201806040525081019062000a0d9190620015ab565b62000a6b5760405162461bcd60e51b815260206004820152602760248201527f5265676973747279466163746f72793a20746f6b656e207472616e73666572206044820152663330b4b632b21760c91b6064820152608401620004fc565b801562000a855762000a7f84848462000c37565b62000a92565b62000a9284848462000dfe565b50505050565b62000aa4828262000733565b62000511576000828152602081815260408083206001600160a01b03851684529091529020805460ff1916600117905562000adc3390565b6001600160a01b0316816001600160a01b0316837f2f8788117e7eff1d82e926ec794901d17c78024a50270940304540a733656f0d60405160405180910390a45050565b60006200072c836001600160a01b03841662001015565b60006200072c838362001067565b60006001600160e01b03198216637965db0b60e01b14806200045a57506301ffc9a760e01b6001600160e01b03198316146200045a565b62000b88828262000733565b620005115762000ba3816001600160a01b03166014620010a0565b62000bb0836020620010a0565b60405160200162000bc39291906200182c565b60408051601f198184030181529082905262461bcd60e51b8252620004fc91600401620018cb565b62000bf7828262000a98565b60008281526001602052604090206200048a908262000b20565b62000c1d828262001296565b60008281526001602052604090206200048a9082620012fe565b6001600160a01b03811662000c605760405162461bcd60e51b8152600401620004fc9062001934565b62000c6b8362001315565b1562000c8b5760405162461bcd60e51b8152600401620004fc9062001985565b6002546004546000916001600160a01b03908116916306d876b560e51b9187918791168662000cbb878062000712565b60405160240162000cd1959493929190620018e0565b60408051601f198184030181529181526020820180516001600160e01b03166001600160e01b031990941693909317909252905162000d10906200148a565b62000d1d929190620018a5565b604051809103906000f08015801562000d3a573d6000803e3d6000fd5b50600580546001810182556000919091527f036b6384b5eca791c62761152d0c79bb0604c104a5fb6f4eb0703f3154bb3db00180546001600160a01b0319166001600160a01b038316179055604051909150819060079062000d9e9087906200180e565b9081526040516020918190038201812080546001600160a01b0319166001600160a01b0394851617905591831682527f3f204800c0e5d4c864ce5af4ec6df4566ef4e5ce94b654d6565870b67fc10d3c910160405180910390a150505050565b6001600160a01b03811662000e275760405162461bcd60e51b8152600401620004fc9062001934565b62000e328362001315565b1562000e525760405162461bcd60e51b8152600401620004fc9062001985565b6003546004546000916001600160a01b03908116916306d876b560e51b9187918791168662000e82878062000712565b60405160240162000e98959493929190620018e0565b60408051601f198184030181529181526020820180516001600160e01b03166001600160e01b031990941693909317909252905162000ed7906200148a565b62000ee4929190620018a5565b604051809103906000f08015801562000f01573d6000803e3d6000fd5b50600680546001810182556000919091527ff652222313e28459528d920b65115c16c04f3efc82aaedc97be59f3f377c0d3f0180546001600160a01b0319166001600160a01b038316179055604051909150819060079062000d9e9087906200180e565b60006200045a825490565b6004546000906001600160a01b031615806200045a5750600480546040516370a0823160e01b81526001600160a01b0385811693820193909352600092909116906370a082319060240160206040518083038186803b15801562000fd357600080fd5b505afa15801562000fe8573d6000803e3d6000fd5b505050506040513d601f19601f820116820180604052508101906200100e9190620017c7565b1192915050565b60008181526001830160205260408120546200105e575081546001818101845560008481526020808220909301849055845484825282860190935260409020919091556200045a565b5060006200045a565b60008260000182815481106200108d57634e487b7160e01b600052603260045260246000fd5b9060005260206000200154905092915050565b60606000620010b183600262001a4b565b620010be90600262001a30565b67ffffffffffffffff811115620010e557634e487b7160e01b600052604160045260246000fd5b6040519080825280601f01601f19166020018201604052801562001110576020820181803683370190505b509050600360fc1b816000815181106200113a57634e487b7160e01b600052603260045260246000fd5b60200101906001600160f81b031916908160001a905350600f60fb1b816001815181106200117857634e487b7160e01b600052603260045260246000fd5b60200101906001600160f81b031916908160001a90535060006200119e84600262001a4b565b620011ab90600162001a30565b90505b600181111562001245576f181899199a1a9b1b9c1cb0b131b232b360811b85600f1660108110620011ef57634e487b7160e01b600052603260045260246000fd5b1a60f81b8282815181106200121457634e487b7160e01b600052603260045260246000fd5b60200101906001600160f81b031916908160001a90535060049490941c936200123d8162001ab6565b9050620011ae565b5083156200072c5760405162461bcd60e51b815260206004820181905260248201527f537472696e67733a20686578206c656e67746820696e73756666696369656e746044820152606401620004fc565b620012a2828262000733565b1562000511576000828152602081815260408083206001600160a01b0385168085529252808320805460ff1916905551339285917ff6391f5c32d9c69d2a47ea670b442974b53935d1edc7fd64eb21e047a839171b9190a45050565b60006200072c836001600160a01b03841662001362565b60008082511180156200135b575060006001600160a01b03166007836040516200134091906200180e565b908152604051908190036020019020546001600160a01b0316145b1592915050565b600081815260018301602052604081205480156200147f5760006200138960018362001a6d565b85549091506000906200139f9060019062001a6d565b905081811462001423576000866000018281548110620013cf57634e487b7160e01b600052603260045260246000fd5b90600052602060002001549050808760000184815481106200140157634e487b7160e01b600052603260045260246000fd5b6000918252602080832090910192909255918252600188019052604090208390555b85548690806200144357634e487b7160e01b600052603160045260246000fd5b6001900381819060005260206000200160009055905585600101600086815260200190815260200160002060009055600193505050506200045a565b60009150506200045a565b6109828062001b0f83390190565b80356001600160a01b0381168114620014b057600080fd5b919050565b60008083601f840112620014c7578182fd5b50813567ffffffffffffffff811115620014df578182fd5b602083019150836020828501011115620014f857600080fd5b9250929050565b600082601f83011262001510578081fd5b813567ffffffffffffffff808211156200152e576200152e62001ae6565b604051601f8301601f19908116603f0116810190828211818310171562001559576200155962001ae6565b8160405283815286602085880101111562001572578485fd5b8360208701602083013792830160200193909352509392505050565b600060208284031215620015a0578081fd5b6200072c8262001498565b600060208284031215620015bd578081fd5b81516200072c8162001afc565b600060208284031215620015dc578081fd5b5035919050565b60008060408385031215620015f6578081fd5b82359150620016086020840162001498565b90509250929050565b6000806040838503121562001624578182fd5b50508035926020909101359150565b60006020828403121562001645578081fd5b81356001600160e01b0319811681146200072c578182fd5b6000806000806000806080878903121562001676578182fd5b863567ffffffffffffffff808211156200168e578384fd5b6200169c8a838b01620014b5565b90985096506020890135915080821115620016b5578384fd5b50620016c489828a01620014b5565b9095509350620016d990506040880162001498565b91506060870135620016eb8162001afc565b809150509295509295509295565b6000602082840312156200170b578081fd5b813567ffffffffffffffff81111562001722578182fd5b6200173084828501620014ff565b949350505050565b600080600080608085870312156200174e578384fd5b843567ffffffffffffffff8082111562001766578586fd5b6200177488838901620014ff565b955060208701359150808211156200178a578485fd5b506200179987828801620014ff565b935050620017aa6040860162001498565b91506060850135620017bc8162001afc565b939692955090935050565b600060208284031215620017d9578081fd5b5051919050565b60008151808452620017fa81602086016020860162001a87565b601f01601f19169290920160200192915050565b600082516200182281846020870162001a87565b9190910192915050565b7f416363657373436f6e74726f6c3a206163636f756e74200000000000000000008152600083516200186681601785016020880162001a87565b7001034b99036b4b9b9b4b733903937b6329607d1b60179184019182015283516200189981602884016020880162001a87565b01602801949350505050565b6001600160a01b03831681526040602082018190526000906200173090830184620017e0565b6020815260006200072c6020830184620017e0565b60a081526000620018f560a0830188620017e0565b8281036020840152620019098188620017e0565b6001600160a01b03968716604085015294861660608401525050921660809092019190915292915050565b60208082526031908201527f5265676973747279466163746f72793a2052656769737472617220616464726560408201527039b99036bab9ba103737ba10313290181760791b606082015260800190565b6020808252602e908201527f5265676973747279466163746f72793a2052656769737472792062792074686160408201526d3a103730b6b29032bc34b9ba399760911b606082015260800190565b60208082526037908201527f5265676973747279466163746f72793a206d75737420686176652061646d696e60408201527f20726f6c6520746f2073657420706172616d6574657273000000000000000000606082015260800190565b6000821982111562001a465762001a4662001ad0565b500190565b600081600019048311821515161562001a685762001a6862001ad0565b500290565b60008282101562001a825762001a8262001ad0565b500390565b60005b8381101562001aa457818101518382015260200162001a8a565b8381111562000a925750506000910152565b60008162001ac85762001ac862001ad0565b506000190190565b634e487b7160e01b600052601160045260246000fd5b634e487b7160e01b600052604160045260246000fd5b801515811462001b0b57600080fd5b5056fe60806040526040516109823803806109828339810160408190526100229161047d565b61004d60017fa3f0ad74e5423aebfd80d3ef4346578335a9a72aeaee59ff6cb3582b35133d51610588565b60008051602061093b8339815191521461007757634e487b7160e01b600052600160045260246000fd5b6100838282600061008a565b50506105ed565b61009383610164565b6040516001600160a01b038416907f1cf3b03a6cf19fa2baba4df148e9dcabedea7f8a5c07840e207e5c089be95d3e90600090a26000825111806100d45750805b1561015f5761015d836001600160a01b0316635c60da1b6040518163ffffffff1660e01b815260040160206040518083038186803b15801561011557600080fd5b505afa158015610129573d6000803e3d6000fd5b505050506040513d601f19601f8201168201806040525081019061014d9190610463565b8361030460201b6100291760201c565b505b505050565b6101778161033060201b6100551760201c565b6101d65760405162461bcd60e51b815260206004820152602560248201527f455243313936373a206e657720626561636f6e206973206e6f74206120636f6e6044820152641d1c9858dd60da1b60648201526084015b60405180910390fd5b610259816001600160a01b0316635c60da1b6040518163ffffffff1660e01b815260040160206040518083038186803b15801561021257600080fd5b505afa158015610226573d6000803e3d6000fd5b505050506040513d601f19601f8201168201806040525081019061024a9190610463565b61033060201b6100551760201c565b6102be5760405162461bcd60e51b815260206004820152603060248201527f455243313936373a20626561636f6e20696d706c656d656e746174696f6e206960448201526f1cc81b9bdd08184818dbdb9d1c9858dd60821b60648201526084016101cd565b806102e360008051602061093b83398151915260001b61033660201b61005b1760201c565b80546001600160a01b0319166001600160a01b039290921691909117905550565b6060610329838360405180606001604052806027815260200161095b60279139610339565b9392505050565b3b151590565b90565b6060833b6103985760405162461bcd60e51b815260206004820152602660248201527f416464726573733a2064656c65676174652063616c6c20746f206e6f6e2d636f6044820152651b9d1c9858dd60d21b60648201526084016101cd565b600080856001600160a01b0316856040516103b39190610539565b600060405180830381855af49150503d80600081146103ee576040519150601f19603f3d011682016040523d82523d6000602084013e6103f3565b606091505b50909250905061040482828661040e565b9695505050505050565b6060831561041d575081610329565b82511561042d5782518084602001fd5b8160405162461bcd60e51b81526004016101cd9190610555565b80516001600160a01b038116811461045e57600080fd5b919050565b600060208284031215610474578081fd5b61032982610447565b6000806040838503121561048f578081fd5b61049883610447565b60208401519092506001600160401b03808211156104b4578283fd5b818501915085601f8301126104c7578283fd5b8151818111156104d9576104d96105d7565b604051601f8201601f19908116603f01168101908382118183101715610501576105016105d7565b81604052828152886020848701011115610519578586fd5b61052a8360208301602088016105ab565b80955050505050509250929050565b6000825161054b8184602087016105ab565b9190910192915050565b60208152600082518060208401526105748160408501602087016105ab565b601f01601f19169190910160400192915050565b6000828210156105a657634e487b7160e01b81526011600452602481fd5b500390565b60005b838110156105c65781810151838201526020016105ae565b8381111561015d5750506000910152565b634e487b7160e01b600052604160045260246000fd5b61033f806105fc6000396000f3fe60806040523661001357610011610017565b005b6100115b61002761002261005e565b610106565b565b606061004e83836040518060600160405280602781526020016102e36027913961012a565b9392505050565b3b151590565b90565b60006100917fa3f0ad74e5423aebfd80d3ef4346578335a9a72aeaee59ff6cb3582b35133d50546001600160a01b031690565b6001600160a01b0316635c60da1b6040518163ffffffff1660e01b815260040160206040518083038186803b1580156100c957600080fd5b505afa1580156100dd573d6000803e3d6000fd5b505050506040513d601f19601f82011682018060405250810190610101919061023c565b905090565b3660008037600080366000845af43d6000803e808015610125573d6000f35b3d6000fd5b6060833b61018e5760405162461bcd60e51b815260206004820152602660248201527f416464726573733a2064656c65676174652063616c6c20746f206e6f6e2d636f6044820152651b9d1c9858dd60d21b60648201526084015b60405180910390fd5b600080856001600160a01b0316856040516101a99190610263565b600060405180830381855af49150503d80600081146101e4576040519150601f19603f3d011682016040523d82523d6000602084013e6101e9565b606091505b50915091506101f9828286610203565b9695505050505050565b6060831561021257508161004e565b8251156102225782518084602001fd5b8160405162461bcd60e51b8152600401610185919061027f565b60006020828403121561024d578081fd5b81516001600160a01b038116811461004e578182fd5b600082516102758184602087016102b2565b9190910192915050565b602081526000825180602084015261029e8160408501602087016102b2565b601f01601f19169190910160400192915050565b60005b838110156102cd5781810151838201526020016102b5565b838111156102dc576000848401525b5050505056fe416464726573733a206c6f772d6c6576656c2064656c65676174652063616c6c206661696c6564a26469706673582212206852aa33c53a8f97178db898eb264b57440f85c3c070d59d86c8be1e5ed1346964736f6c63430008040033a3f0ad74e5423aebfd80d3ef4346578335a9a72aeaee59ff6cb3582b35133d50416464726573733a206c6f772d6c6576656c2064656c65676174652063616c6c206661696c6564a2646970667358221220acf89a9b4a13c53aed7bf962a210c8153a88c3c5b939f72658d2b53acb7601c864736f6c63430008040033608060405234801561001057600080fd5b5060405161050a38038061050a83398101604081905261002f91610148565b61003833610047565b61004181610097565b50610176565b600080546001600160a01b038381166001600160a01b0319831681178455604051919092169283917f8be0079c531659141344cd1fd0a4f28419497f9722a3daafe3b4186f6b6457e09190a35050565b6100aa8161014260201b61020a1760201c565b6101205760405162461bcd60e51b815260206004820152603360248201527f5570677261646561626c65426561636f6e3a20696d706c656d656e746174696f60448201527f6e206973206e6f74206120636f6e747261637400000000000000000000000000606482015260840160405180910390fd5b600180546001600160a01b0319166001600160a01b0392909216919091179055565b3b151590565b600060208284031215610159578081fd5b81516001600160a01b038116811461016f578182fd5b9392505050565b610385806101856000396000f3fe608060405234801561001057600080fd5b50600436106100575760003560e01c80633659cfe61461005c5780635c60da1b14610071578063715018a61461009a5780638da5cb5b146100a2578063f2fde38b146100b3575b600080fd5b61006f61006a3660046102ec565b6100c6565b005b6001546001600160a01b03165b6040516001600160a01b03909116815260200160405180910390f35b61006f610139565b6000546001600160a01b031661007e565b61006f6100c13660046102ec565b61016f565b6000546001600160a01b031633146100f95760405162461bcd60e51b81526004016100f09061031a565b60405180910390fd5b61010281610210565b6040516001600160a01b038216907fbc7cd75a20ee27fd9adebab32041f755214dbc6bffa90cc0225b39da2e5c2d3b90600090a250565b6000546001600160a01b031633146101635760405162461bcd60e51b81526004016100f09061031a565b61016d600061029c565b565b6000546001600160a01b031633146101995760405162461bcd60e51b81526004016100f09061031a565b6001600160a01b0381166101fe5760405162461bcd60e51b815260206004820152602660248201527f4f776e61626c653a206e6577206f776e657220697320746865207a65726f206160448201526564647265737360d01b60648201526084016100f0565b6102078161029c565b50565b3b151590565b803b61027a5760405162461bcd60e51b815260206004820152603360248201527f5570677261646561626c65426561636f6e3a20696d706c656d656e746174696f6044820152721b881a5cc81b9bdd08184818dbdb9d1c9858dd606a1b60648201526084016100f0565b600180546001600160a01b0319166001600160a01b0392909216919091179055565b600080546001600160a01b038381166001600160a01b0319831681178455604051919092169283917f8be0079c531659141344cd1fd0a4f28419497f9722a3daafe3b4186f6b6457e09190a35050565b6000602082840312156102fd578081fd5b81356001600160a01b0381168114610313578182fd5b9392505050565b6020808252818101527f4f776e61626c653a2063616c6c6572206973206e6f7420746865206f776e657260408201526060019056fea2646970667358221220160a0b05e6038ade7df343bbde513f3f97c78be12cb5889a920a6617e514cb0d64736f6c6343000804003360806040526040516109823803806109828339810160408190526100229161047d565b61004d60017fa3f0ad74e5423aebfd80d3ef4346578335a9a72aeaee59ff6cb3582b35133d51610588565b60008051602061093b8339815191521461007757634e487b7160e01b600052600160045260246000fd5b6100838282600061008a565b50506105ed565b61009383610164565b6040516001600160a01b038416907f1cf3b03a6cf19fa2baba4df148e9dcabedea7f8a5c07840e207e5c089be95d3e90600090a26000825111806100d45750805b1561015f5761015d836001600160a01b0316635c60da1b6040518163ffffffff1660e01b815260040160206040518083038186803b15801561011557600080fd5b505afa158015610129573d6000803e3d6000fd5b505050506040513d601f19601f8201168201806040525081019061014d9190610463565b8361030460201b6100291760201c565b505b505050565b6101778161033060201b6100551760201c565b6101d65760405162461bcd60e51b815260206004820152602560248201527f455243313936373a206e657720626561636f6e206973206e6f74206120636f6e6044820152641d1c9858dd60da1b60648201526084015b60405180910390fd5b610259816001600160a01b0316635c60da1b6040518163ffffffff1660e01b815260040160206040518083038186803b15801561021257600080fd5b505afa158015610226573d6000803e3d6000fd5b505050506040513d601f19601f8201168201806040525081019061024a9190610463565b61033060201b6100551760201c565b6102be5760405162461bcd60e51b815260206004820152603060248201527f455243313936373a20626561636f6e20696d706c656d656e746174696f6e206960448201526f1cc81b9bdd08184818dbdb9d1c9858dd60821b60648201526084016101cd565b806102e360008051602061093b83398151915260001b61033660201b61005b1760201c565b80546001600160a01b0319166001600160a01b039290921691909117905550565b6060610329838360405180606001604052806027815260200161095b60279139610339565b9392505050565b3b151590565b90565b6060833b6103985760405162461bcd60e51b815260206004820152602660248201527f416464726573733a2064656c65676174652063616c6c20746f206e6f6e2d636f6044820152651b9d1c9858dd60d21b60648201526084016101cd565b600080856001600160a01b0316856040516103b39190610539565b600060405180830381855af49150503d80600081146103ee576040519150601f19603f3d011682016040523d82523d6000602084013e6103f3565b606091505b50909250905061040482828661040e565b9695505050505050565b6060831561041d575081610329565b82511561042d5782518084602001fd5b8160405162461bcd60e51b81526004016101cd9190610555565b80516001600160a01b038116811461045e57600080fd5b919050565b600060208284031215610474578081fd5b61032982610447565b6000806040838503121561048f578081fd5b61049883610447565b60208401519092506001600160401b03808211156104b4578283fd5b818501915085601f8301126104c7578283fd5b8151818111156104d9576104d96105d7565b604051601f8201601f19908116603f01168101908382118183101715610501576105016105d7565b81604052828152886020848701011115610519578586fd5b61052a8360208301602088016105ab565b80955050505050509250929050565b6000825161054b8184602087016105ab565b9190910192915050565b60208152600082518060208401526105748160408501602087016105ab565b601f01601f19169190910160400192915050565b6000828210156105a657634e487b7160e01b81526011600452602481fd5b500390565b60005b838110156105c65781810151838201526020016105ae565b8381111561015d5750506000910152565b634e487b7160e01b600052604160045260246000fd5b61033f806105fc6000396000f3fe60806040523661001357610011610017565b005b6100115b61002761002261005e565b610106565b565b606061004e83836040518060600160405280602781526020016102e36027913961012a565b9392505050565b3b151590565b90565b60006100917fa3f0ad74e5423aebfd80d3ef4346578335a9a72aeaee59ff6cb3582b35133d50546001600160a01b031690565b6001600160a01b0316635c60da1b6040518163ffffffff1660e01b815260040160206040518083038186803b1580156100c957600080fd5b505afa1580156100dd573d6000803e3d6000fd5b505050506040513d601f19601f82011682018060405250810190610101919061023c565b905090565b3660008037600080366000845af43d6000803e808015610125573d6000f35b3d6000fd5b6060833b61018e5760405162461bcd60e51b815260206004820152602660248201527f416464726573733a2064656c65676174652063616c6c20746f206e6f6e2d636f6044820152651b9d1c9858dd60d21b60648201526084015b60405180910390fd5b600080856001600160a01b0316856040516101a99190610263565b600060405180830381855af49150503d80600081146101e4576040519150601f19603f3d011682016040523d82523d6000602084013e6101e9565b606091505b50915091506101f9828286610203565b9695505050505050565b6060831561021257508161004e565b8251156102225782518084602001fd5b8160405162461bcd60e51b8152600401610185919061027f565b60006020828403121561024d578081fd5b81516001600160a01b038116811461004e578182fd5b600082516102758184602087016102b2565b9190910192915050565b602081526000825180602084015261029e8160408501602087016102b2565b601f01601f19169190910160400192915050565b60005b838110156102cd5781810151838201526020016102b5565b838111156102dc576000848401525b5050505056fe416464726573733a206c6f772d6c6576656c2064656c65676174652063616c6c206661696c6564a26469706673582212206852aa33c53a8f97178db898eb264b57440f85c3c070d59d86c8be1e5ed1346964736f6c63430008040033a3f0ad74e5423aebfd80d3ef4346578335a9a72aeaee59ff6cb3582b35133d50416464726573733a206c6f772d6c6576656c2064656c65676174652063616c6c206661696c65645265676973747279466163746f72793a20496e697469616c697a657220617272",
  "linkReferences": {},
  "deployedLinkReferences": {}
}